:020000040800F2
:10000000803D0020DD3F00088D3A0008B13F000828
:10001000B13F0008B13F0008B13F000800000000F8
:10002000000000000000000000000000CD3B0008C0
:10003000B13F0008000000003D3B0008219400088B
:10004000613D0008613D0008613D0008613D000818
:10005000613D0008613D0008613D0008613D000808
:10006000613D0008613D0008613D0008613D0008F8
:10007000613D0008613D0008613D0008613D0008E8
:10008000613D0008613D0008613D0008613D0008D8
:10009000613D0008613D0008613D0008613D0008C8
:1000A000613D0008613D0008613D0008613D0008B8
:1000B000613D0008613D0008613D0008613D0008A8
:1000C000613D0008613D0008613D0008613D000898
:1000D000613D0008613D0008613D0008613D000888
:1000E000613D0008613D0008613D0008613D000878
:1000F000613D0008613D0008613D0008613D000868
:10010000613D0008613D0008613D0008613D000857
:10011000613D0008613D0008613D0008613D000847
:10012000613D0008613D0008613D0008613D000837
:10013000613D0008613D0008613D0008613D000827
:10014000613D0008613D0008613D0008613D000817
:10015000613D0008613D0008613D0008613D000807
:10016000613D0008613D0008613D0008613D0008F7
:10017000613D0008613D0008613D0008613D0008E7
:10018000613D0008613D0008613D0008613D0008D7
:04019000613D0008C5
:0C019400FFFFFFFFFFFFFFFFFFFFFFFF6B
:1001A00001F0FF01102A2BDB10F0070F08D010F828
:1001B000013B013A8B422DD010F0070F42B3F6D12C
:1001C000F0B441EA012141EA014122F007047FF045
:1001D00000070023F0E80256083C85EA010586EA9C
:1001E000010685FA47F5A3FA87F586FA47F6A5FAD8
:1001F00087F68EB9EED1F0BC01F0FF0102F00702E4
:1002000032B110F8013B013A83EA010313B1F8D18E
:100210000020704701387047002D06BF354603386F
:10022000073815F0010F07D1013015F4807F02BFA8
:10023000013015F4C03F0130F0BC0138704700BFF9
:1002400081F0004102E000BF83F0004330B54FEA87
:1002500041044FEA430594EA050F08BF90EA020FF4
:100260001FBF54EA000C55EA020C7FEA645C7FEA87
:10027000655C00F0E2804FEA5454D4EB5555B8BFAA
:100280006D420CDD2C4480EA020281EA030382EA1B
:10029000000083EA010180EA020281EA0303362DAD
:1002A00088BF30BD11F0004F4FEA01314FF4801C80
:1002B0004CEA113102D0404261EB410113F0004F92
:1002C0004FEA03334CEA133302D0524263EB430349
:1002D00094EA050F00F0A780A4F10104D5F1200EE7
:1002E0000DDB02FA0EFC22FA05F2801841F1000142
:1002F00003FA0EF2801843FA05F359410EE0A5F116
:1003000020050EF1200E012A03FA0EFC28BF4CF046
:10031000020C43FA05F3C01851EBE37101F00045FC
:1003200007D54FF0000EDCF1000C7EEB00006EEB09
:100330000101B1F5801F1BD3B1F5001F0CD3490893
:100340005FEA30004FEA3C0C04F101044FEA4452EA
:1003500012F5800F80F09A80BCF1004F08BF5FEA71
:10036000500C50F1000041EB045141EA050130BD51
:100370005FEA4C0C404141EB0101013C28BFB1F563
:10038000801FE9D291F0000F04BF01460020B1FAAE
:1003900081F308BF2033A3F10B03B3F120020CDA81
:1003A0000C3208DD02F1140CC2F10C0201FA0CF05F
:1003B00021FA02F10CE002F11402D8BFC2F1200CC4
:1003C00001FA02F120FA0CFCDCBF41EA0C0190407A
:1003D000E41AA2BF01EB0451294330BD6FEA0404C3
:1003E0001F3C1CDA0C340EDC04F11404C4F12002AE
:1003F00020FA04F001FA02F340EA030021FA04F3C0
:1004000045EA030130BDC4F10C04C4F1200220FA16
:1004100002F001FA04F340EA0300294630BD21FA54
:1004200004F0294630BD94F0000F83F4801306BF1A
:1004300081F480110134013D4EE77FEA645C18BF0E
:100440007FEA655C29D094EA050F08BF90EA020FA5
:1004500005D054EA000C04BF1946104630BD91EA9D
:10046000030F1EBF0021002030BD5FEA545C05D1A0
:100470004000494128BF41F0004130BD14F58004DF
:100480003CBF01F5801130BD01F0004545F0FE4153
:1004900041F470014FF0000030BD7FEA645C1ABF88
:1004A000194610467FEA655C1CBF0B46024650EABF
:1004B000013406BF52EA033591EA030F41F40021EB
:1004C00030BD00BF90F0000F04BF0021704730B571
:1004D0004FF4806404F132044FF000054FF0000146
:1004E00050E700BF90F0000F04BF0021704730B507
:1004F0004FF4806404F1320410F0004548BF4042DC
:100500004FF000013EE700BF42004FEAE2014FEA30
:1005100031014FEA02701FBF12F07F4393F07F4F0B
:1005200081F06051704732F07F4208BF704793F00E
:100530007F4F04BF41F40021704730B54FF4607421
:1005400001F0004521F000411CE700BF50EA010224
:1005500008BF704730B54FF000050AE050EA0102CD
:1005600008BF704730B511F0004502D5404261EB3D
:1005700041014FF4806404F132045FEA915C3FF47E
:10058000D8AE4FF003025FEADC0C18BF03325FEA1B
:10059000DC0C18BF033202EBDC02C2F1200300FACC
:1005A00003FC20FA02F001FA03FE40EA0E0021FAF1
:1005B00002F11444BDE600BF70B54FF0FF0C4CF4DF
:1005C000E06C1CEA11541DBF1CEA135594EA0C0F91
:1005D00095EA0C0F00F0DEF82C4481EA030621EACC
:1005E0004C5123EA4C5350EA013518BF52EA033507
:1005F00041F4801143F4801338D0A0FB02CE4FF0B9
:100600000005E1FB02E506F00042E0FB03E54FF0E8
:100610000006E1FB03569CF0000F18BF4EF0010EE0
:10062000A4F1FF04B6F5007F64F5407404D25FEADC
:100630004E0E6D4146EB060642EAC62141EA55518F
:100640004FEAC52040EA5E504FEACE2EB4F1FD0CD1
:1006500088BFBCF5E06F1ED8BEF1004F08BF5FEA4F
:10066000500E50F1000041EB045170BD06F0004601
:1006700046EA010140EA020081EA0301B4EB5C04AE
:10068000C2BFD4EB0C0541EA045170BD41F48011A6
:100690004FF0000E013C00F3AB8014F1360FDEBFCB
:1006A000002001F0004170BDC4F10004203C35DAA7
:1006B0000C341BDC04F11404C4F1200500FA05F32A
:1006C00020FA04F001FA05F240EA020001F00042CB
:1006D00021F0004110EBD37021FA04F642EB060141
:1006E0005EEA430E08BF20EAD37070BDC4F10C046B
:1006F000C4F1200500FA04F320FA05F001FA04F22F
:1007000040EA020001F0004110EBD37041F100011A
:100710005EEA430E08BF20EAD37070BDC4F1200525
:1007200000FA05F24EEA020E20FA04F301FA05F28D
:1007300043EA020321FA04F001F0004121FA04F235
:1007400020EA020000EBD3705EEA430E08BF20EA05
:10075000D37070BD94F0000F0FD101F0004640003F
:1007600041EB010111F4801F08BF013CF7D041EAC1
:10077000060195F0000F18BF704703F000465200C5
:1007800043EB030313F4801F08BF013DF7D043EA96
:100790000603704794EA0C0F0CEA135518BF95EA4C
:1007A0000C0F0CD050EA410618BF52EA4306D1D1D3
:1007B00081EA030101F000414FF0000070BD50EAF2
:1007C000410606BF1046194652EA430619D094EA7C
:1007D0000C0F02D150EA013613D195EA0C0F05D166
:1007E00052EA03361CBF104619460AD181EA0301BA
:1007F00001F0004141F0FE4141F470014FF0000072
:1008000070BD41F0FE4141F4780170BD70B54FF00C
:10081000FF0C4CF4E06C1CEA11541DBF1CEA13558C
:1008200094EA0C0F95EA0C0F00F0A7F8A4EB05046E
:1008300081EA030E52EA03354FEA013100F0888065
:100840004FEA03334FF0805545EA131343EA12632E
:100850004FEA022245EA111545EA10654FEA0026E3
:100860000EF000419D4208BF964244F1FD0404F59C
:10087000407402D25B084FEA3202B61A65EB0305F8
:100880005B084FEA32024FF480104FF4002CB6EBB5
:10089000020E75EB030E22BFB61A754640EA0C0035
:1008A0005B084FEA3202B6EB020E75EB030E22BF75
:1008B000B61A754640EA5C005B084FEA3202B6EBB6
:1008C000020E75EB030E22BFB61A754640EA9C0075
:1008D0005B084FEA3202B6EB020E75EB030E22BF45
:1008E000B61A754640EADC0055EA060E18D04FEA03
:1008F000051545EA16754FEA06164FEAC30343EAA3
:1009000052734FEAC2025FEA1C1CC0D111F4801F6F
:100910000BD141EA00014FF000004FF0004CB6E768
:1009200011F4801F04BF01430020B4F1FD0C88BF07
:10093000BCF5E06F3FF6AFAEB5EB030C04BFB6EB12
:10094000020C5FEA500C50F1000041EB045170BD05
:100950000EF0004E4EEA113114EB5C04C2BFD4EB32
:100960000C0541EA045170BD41F480114FF0000EB6
:10097000013C90E645EA060E8DE60CEA135594EA32
:100980000C0F08BF95EA0C0F3FF43BAF94EA0C0F35
:100990000AD150EA01347FF434AF95EA0C0F7FF4AA
:1009A00025AF104619462CE795EA0C0F06D152EAFE
:1009B00003353FF4FDAE1046194622E750EA4106E2
:1009C00018BF52EA43067FF4C5AE50EA41047FF4F3
:1009D0000DAF52EA43057FF4EBAE12E74FF0FF3C58
:1009E00006E000BF4FF0010C02E000BF4FF0010C29
:1009F0004DF804CD4FEA410C7FEA6C5C4FEA430CA2
:100A000018BF7FEA6C5C1BD001B050EA410C0CBFF0
:100A100052EA430C91EA030F02BF90EA020F002052
:100A2000704710F1000F91EA030F58BF994208BFB9
:100A300090422CBFD8176FEAE37040F00100704776
:100A40004FEA410C7FEA6C5C02D150EA013C07D1CD
:100A50004FEA430C7FEA6C5CD6D152EA033CD3D018
:100A60005DF8040B704700BF8446104662468C4612
:100A70001946634600E000BF01B5FFF7B7FF002845
:100A800048BF10F1000F01BD4DF808EDFFF7F4FF6E
:100A90000CBF012000205DF808FB00BF4DF808EDF9
:100AA000FFF7EAFF34BF012000205DF808FB00BF1C
:100AB0004DF808EDFFF7E0FF94BF012000205DF83E
:100AC00008FB00BF4DF808EDFFF7CEFF94BF0120F3
:100AD00000205DF808FB00BF4DF808EDFFF7C4FFEC
:100AE00034BF012000205DF808FB00BF4FEA41023F
:100AF00012F5001215D211D56FF47873B3EB625270
:100B000012D94FEAC12343F0004343EA505311F096
:100B1000004F23FA02F018BF404270474FF0000028
:100B2000704750EA013005D111F0004008BF6FF066
:100B3000004070474FF00000704700BF53B94AB9FA
:100B4000002908BF00281CBF4FF0FF314FF0FF30D5
:100B500000F00CB8ADF1080C6DE904CE00F01EF801
:100B6000DDF804E0DDE9022304B07047704700BF00
:100B70004FEA410C7FEA6C5C02D150EA013C0AD199
:100B80004FEA430C7FEA6C5C02D152EA033C02D18B
:100B90004FF0000070474FF0010070472DE9F04F13
:100BA000099E88468E46154604461946002B40F09D
:100BB000C7804245B2FA82F746D94FB1C7F1200C3F
:100BC00008FA07F320FA0CFCBD404CEA030EBC40C7
:100BD0004FEA15481FFA85FCBEFBF8F9220C08FB0A
:100BE00019E309FB0CFA42EA03439A4528D9EB18AA
:100BF00009F1FF3004D29A4502D9A9F102002B4431
:100C0000A3EB0A03A4B2B3FBF8F208FB123302FB16
:100C10000CFC44EA0344A44514D92C1902F1FF3317
:100C200003D2A44501D9931E2C44A4EB0C0443EA3F
:100C300000401EB1FC40002334607360BDE8F08FBB
:100C40004846DDE71346F0E702B9FFDE8FBBA8EBAD
:100C5000020301214FEA154EAAB2B3FBFEFC200CA1
:100C60000EFB1C330CFB02F840EA0343984563D9A2
:100C7000EB180CF1FF3004D2984502D9ACF1020018
:100C80002B44A3EB0803A4B2B3FBFEFC0EFB1C3306
:100C90000CFB02F244EA0344A2424FD92C190CF196
:100CA000FF3304D2A24202D9ACF102032C44A41AAD
:100CB000BDE7C7F1200C28FA0CF908FA07F320FA6F
:100CC0000CFCBD404CEA03024FEA154EABB2B9FB37
:100CD000FEFC110C0EFB1C900CFB03F841EA0040DB
:100CE000804504FA07F423D928180CF1FF3104D207
:100CF000804502D9ACF102012844A0EB080092B271
:100D0000B0FBFEFC0EFB1C000CFB03F842EA0043A8
:100D100098450FD9EB180CF1FF3204D2984502D94F
:100D2000ACF102022B44A3EB080342EA014191E734
:100D30006146E2E76246F6E76046A2E76346B6E749
:100D4000434505D90EB1C6E900080021084675E7FC
:100D5000B3FA83FCBCF1000F10D1434501D38242AA
:100D60000AD8841A68EB030301209E46002E68D03F
:100D7000C6E9004E002161E76046F7E7CCF1200E9E
:100D800003FA0CF322FA0EF41C4320FA0EF108FACF
:100D90000CF328FA0EFB19434FEA144902FA0CF53A
:100DA000BBFBF9F8A3B209FB18BB0A0C08FB03FA5A
:100DB00042EA0B42924500FA0CF73ED9A21808F11C
:100DC000FF3004D2924502D9A8F102002244A2EBDE
:100DD0000A0289B2B2FBF9F809FB182208FB03F3F7
:100DE00041EA024293422AD9A21808F1FF3104D203
:100DF000934202D9A8F10201224441EA0040A0FB3B
:100E00000598D21A42454B46414602D306D14F457A
:100E100004D2B9EB050368EB040101388EB1FC1A6A
:100E200062EB010707FA0EFE24FA0CF34EEA030305
:100E300027FA0CF7C6E900379CE74046C7E741466A
:100E4000DBE73146FAE610F8012B11F8013B012AE5
:100E500028BF9A42F7D0D01A7047034613F8012BE7
:100E6000002AFBD1181A013870470000000000006A
:100E700000B50A2383B09FED067BA0FB0323064841
:100E80008DED007B0EF002F903B05DF804FB00BFAE
:100E90000000000000000000080700200000000023
:100EA000F0B544680669206883B00CF0B5FC0028F2
:100EB0003DD0217E79B1E2690139531E52FA81F1A8
:100EC00001E08B4207D013F8012F032AF9D96FF004
:100ED000150003B0F0BDD4E9000183686A465B6881
:100EE0009847A38C009D019FA3FB050103FB0711FD
:100EF00011A3D3E90023FFF721FE218C3060A1FB71
:100F0000050C0DA3D3E9002301FB07C1FFF716FE73
:100F1000638C7060A3FB050103FB071106A3D3E9F3
:100F20000023FFF70BFEB060002003B0F0BD6FF0B0
:100F30001200FAE7AFF3008000CA9A3B00000000FD
:100F40002DE9F04F2DED028B9FED518BDFF84C8199
:100F500087B0054600F1D00900F1D80A00274FF00C
:100F60001003EFF3118683F31288BFF36F8FD5F868
:100F7000C840002C63D0D5F8CC202368C5F8C83011
:100F8000944208BFC5F8CC30D5F8E030626843F031
:100F90000203C5F8E030E36823F0040343F00103E3
:100FA000E36086F31188BFF36F8F204690474FF0C0
:100FB0001003EFF3118283F31288BFF36F8FE3689E
:100FC000980723F001010FD4E160D5F8E03023F059
:100FD0000203C5F8E03082F31188BFF36F8FDB05A1
:100FE000BDD40DF0C7FCBAE7D8F8000023F0030326
:100FF000E3600028E9D0436806689C424FF0000B8C
:10100000014608D0002EE0D030468B464368366853
:101010009C420146F6D10168D8F80430BBF1000FBC
:101020002DD09842CBF8001008BFC8F804B040F8A3
:10103000087B05920CF0A4FF059A5946E2E7D5F823
:10104000E03023F004025C07C5F8E02008D48DED01
:10105000008B02974A4631460F480DF041FE7EE76D
:101060000022012150460DF007FE0028EFD000229B
:10107000012150460DF000FE0028F1D1E7E798422B
:10108000C8F80010D3D1C8F80410D0E7AFF300803F
:10109000FFFFFFFFFFFFFFFF381700203C17002076
:1010A00030B589B004460020C4E932000C9D04F13B
:1010B000D000C4E9340004F1D800C4E936000DB30F
:1010C0002879002840F2011008BF01209FED0E7B17
:1010D000C4F8E0000020CDE90100039304908DEDF9
:1010E000067B0B4B009420460CF0B8FC25B1296818
:1010F00011B120460CF07CFC204609B0BDE8304020
:101100000CF07ABC0120E1E7FFFFFFFFFFFFFFFFCC
:10111000410F0008000000002DE9F84F2DED028B73
:1011200006460DF0F3F94FF01003EFF3118583F34A
:101130001288BFF36F8FDFF8D490DFF8D480D9F82E
:101140000040C8F800604C454DD09FED2D8B2E4FD0
:101150002B46D7E9002120464FEAE67C1D4654B3D2
:101160002369D4F814E09E427CEB0E0BA6EB030A35
:101170003DDB9A1841EBE37384ED048BC7E9002350
:10118000C8F800A00DF0DEFD85F31188BFF36F8F66
:10119000A36898474FF01003EFF3118583F312888B
:1011A000BFF36F8FD9F80040D8F800604C452B464C
:1011B000CFD14FEAE67C3B689B193B607B684FF0E0
:1011C000000443EB0C037B60C8F800400DF0D6FD33
:1011D000214608F04BF985F31188BFF36F8FBDEC02
:1011E000028BBDE8F88F084F4FEAE67CE3E79B1BD4
:1011F0006EEB0C0123616161DDE700BFAFF300809E
:101200000000000000000000E00D0020200400208D
:1012100050170020000000002DE9F04F2DED048B49
:1012200057EC106B93B0456ADDF88080069110EEA4
:1012300010AA044609920C93BB4675B910200EF013
:1012400053FB0246606220B9A74BEA21A7480EF083
:101250001BFBC0E901550560C560636A196851B19F
:101260005A684A60012393408B6020460FF07AFB56
:10127000636A00221A603B1EAABF002323F0004BC2
:10128000C8F800309A4BBCBF0122C8F8002033EAEE
:101290000B031BD10C9A42F20F731360CBF31303B1
:1012A000334300F09285219B63B9924B22E0924B2D
:1012B00001930833219A1360019813B0BDEC048B9D
:1012C000BDE8F08F8B4B01930333F3E7002200233B
:1012D00050465946FFF7D8FB4BEC19AB804658B146
:1012E0000C9A01231360219B002B00F06B8583482F
:1012F0001860431E0193DFE74BEC10AB10AA11A955
:1013000020460FF0ABFDCBF30A5508EE100A002D76
:1013100000F0848019EE903AC3F3130343F07F5733
:10132000564647F44017A5F2FF35CDF83880744B88
:10133000002230463946FEF787FF65A3D3E9002334
:10134000FFF73AF964A3D3E90023FEF77FFF0646CF
:1013500028460F46FFF7C6F861A3D3E90023FFF73D
:101360002BF902460B4630463946FEF76FFF06461C
:101370000F46FFF7BBFB00220090002330463946A2
:10138000FFF78CFB50B10098FFF7ACF832463B46B4
:10139000FFF77AFB10B9009B013B0093009B162BD3
:1013A0005AD8009A574B03EBC203D3E9002351EC00
:1013B000190BFFF773FB002850D0009B013B0093F3
:1013C00000230B93109B5D1B6B1E059345BFC5F15E
:1013D00001030493002300234CBF05930493009B57
:1013E000002B3DDB059B009A0A92134405930023D2
:1013F0000793069B092B00F28980052BC4BF043B91
:101400000693069BA3F10203CCBF00250125032B05
:1014100000F28780DFE803F02D3A3859DDE91053F8
:101420001D4405F23243202BC1BFC3F1400305F236
:1014300012400BFA03F326FA00F0DABFC3F12003DF
:1014400006FA03F01843FFF73DF801230646A1F121
:10145000F877013D0E936AE70123B2E70B90B1E7FD
:10146000049B009A9B1A04935342079300230A9308
:10147000BFE700230893099B002B55DC0123CDE92E
:1014800002331A4609920CE00123F3E70023099A7C
:101490000893009B134402930133012B0393B8BFBD
:1014A0000123606A00224260042202F114069E4277
:1014B00041683DD920460FF015FA019000283BD134
:1014C000114B02464FF4D571C0E60123DFE700BFA0
:1014D00061436F63A787D23FB3C8608B288AC63F3A
:1014E000FB799F501344D33FCF2E0108E62E01080D
:1014F0000000F07FCB2E0108C22E01089F2E0108AC
:101500000000F83F881E0108402F01080125002334
:10151000069308954FF0FF33CDE9023300221223E2
:10152000B0E701230893F5E7099BCDE90233B8E75B
:10153000013141605200B8E7636A019A1A60039B67
:101540000E2B00F29D80002D00F09A80009B002B56
:1015500032DDB74A03F00F0302EBC303D3E900897E
:10156000009BD8054FEA231716D5B24B51EC190B47
:10157000D3E90823FFF74AF907F00F0782468B46A5
:101580000325AC4E57B942464B4650465946FFF7E5
:101590003DF982468B4628E00225F2E7F90708D597
:1015A00040464946D6E90023FFF706F80135804654
:1015B00089467F100836E5E700F09B80009B9D4F31
:1015C0005E429B4B06F00F0203EBC203D3E90023FC
:1015D00051EC190BFEF7F0FF361182468B460023C3
:1015E0000225002E7AD1002BD3D10B9B002B00F0CB
:1015F0008280914B002250465946FFF74FFA00284F
:1016000079D0039B002B76D0029B002B36DD009B0C
:10161000504659465F1E0022884BFEF7CDFF029EC2
:1016200082468B4601352846FEF75CFF52465B46F4
:10163000FEF7C2FF824B0022FEF708FED046D946D5
:101640008246A1F1507B002E58D17E4B00224046AD
:101650004946FEF7F9FD52465B4680468946FFF74C
:101660003BFA002840F0958252460BF10043404679
:101670004946FFF713FA002840F089825BEC19AB6A
:10168000119B002BC0F24881009A0E2A00F344817E
:10169000674B03EBC203D3E90089099B002B80F25F
:1016A000D580039B002B00F3D18040F06F82654B07
:1016B000002240464946FEF77FFF52465B46FFF751
:1016C00001FA039E3746002840F04582019D3123F0
:1016D00005F8013B009B0133009340E2F20705D57A
:1016E000D7E90023FEF768FF01350123761008379C
:1016F00077E7022579E7009F039E94E701994C4B19
:1017000031440D91089903EBC60353E902230029E4
:1017100043D04D490020FFF779F852465B46FEF76B
:1017200093FD019D82468B4649464046FFF7DEF910
:101730000646FEF7D7FE02460B4640464946FEF7F0
:1017400083FD303605F8016B52465B46804689467C
:10175000FFF7A4F9002863D142464B4636490020E2
:10176000FEF772FD52465B46FFF798F9002840F0FD
:10177000B5800D9B9D4281D0304B0022504659468A
:10178000FEF71AFF2D4B82468B4640464946002203
:10179000FEF712FF80468946C6E750465946FEF7D7
:1017A0000BFF0D9B019D0F9382468B464946404699
:1017B000FFF79CF90646FEF795FE303602460B46CB
:1017C00040464946FEF740FD05F8016B0D9B9D42E2
:1017D000804689464FF0000224D11B4B50465946A3
:1017E000FEF734FD02460B4640464946FFF774F9C2
:1017F000002873D152465B4613490020FEF724FDB2
:1018000002460B4640464946FFF748F900283FF498
:1018100035AF0F9D6B1E0F9315F8013C302BF8D0A0
:10182000009749E0054BFEF7C7FE80468946BDE7B5
:10183000881E0108601E01080000F03F00002440DF
:1018400000001C40000014400000E03F019D56468F
:101850005F4642464B4630463946FEF7D7FFFFF714
:1018600045F98246FEF73EFE42464B46FEF7A4FE91
:1018700002460B46304639460AF13006FEF7E4FCD4
:1018800005F8016B019E039FAE1BB74202460B4653
:1018900035D1FEF7DBFC42464B4606460F46FFF7C6
:1018A0001BF9D0B942464B4630463946FFF7ECF8B3
:1018B00010B11AF0010F10D1204618EE101A0FF0D7
:1018C00051F8002300982B700C9B01301860219B6D
:1018D000002B3FF4F1AC1D60EEE4009F2B461D464B
:1018E00013F8012D392A06D1019A9A42F7D10199AC
:1018F000302201370A701A7801321A7090E7A64B2D
:101900000022FEF759FE0022002306460F46FFF78D
:10191000BBF800289DD0CFE7089A002A00F0D780B6
:10192000069A012A00F3BA800E9A002A00F0B280CB
:1019300003F23343079E049D049A1A440492059AC5
:1019400001211A44204605920FF074F80746002D35
:101950000CDD059B002B09DDAB42049AA8BF2B468A
:10196000D21A0492059AED1AD31A0593079B1BB35A
:10197000089B002B00F0AF80002E13DD3946324665
:1019800020460FF017F918EE102A014607462046A8
:101990000FF066F818EE101A804620460EF0E2FFAF
:1019A00008EE108A079B9A1B06D018EE101A2046E4
:1019B0000FF000F908EE100A012120460FF03AF866
:1019C0000A9B002B064640F388801A4601462046B3
:1019D0000FF0F0F8069B012B064640F381804FF094
:1019E0000008336906EB830318690FF042FEC0F16B
:1019F0002000059B184410F01F0000F09280C0F1F9
:101A00002003042B40F38A80C0F11C00049B034494
:101A10000493059B034405440593049B002B07DDB9
:101A200018EE101A1A4620460FF01EF908EE100A9A
:101A3000059B002B05DD31461A4620460FF014F9B0
:101A400006460B9B002B6ED018EE100A31460FF0A5
:101A50005FFE002867DA009B013B18EE101A009326
:101A60000A22002320460EF09FFF089B08EE100A72
:101A7000002B00F0B181002339460A2220460EF0E7
:101A800093FF029B002B074600F38E80069B022BE0
:101A900051DC89E0109BC3F136034BE7039B5E1ECC
:101AA000079BB342BFBF079B0796F21A0A9BB6BFBC
:101AB0009B189E1B0A93039BB8BF0026002BB7BF41
:101AC000DDE90323DDE903359D1A002334E7079E92
:101AD000049D089F3BE7079A67E7069B012B18DCEC
:101AE000BAF1000F15D1CBF3130393B92BF00043D8
:101AF0001B0D1B0583B1049B01330493059B01332C
:101B000005934FF001080A9B002B7FF46AAF012078
:101B10006FE74FF00008F6E79846F4E73FF47DAF33
:101B200018461C3072E7039B002B37DC069B022B08
:101B300034DD039B0293029B6BB93146052220469C
:101B40000EF032FF0146064618EE100A0FF0E0FDD7
:101B500000283FF7BBAD099B019DDB4300934FF08D
:101B60000008314620460EF0FDFE002F3FF4A4AEE3
:101B7000B8F1000F05D0B84503D0414620460EF01D
:101B8000F1FE394620460EF0EDFE95E6002637467A
:101B9000E1E70097374699E500002440089B002BB9
:101BA00000F0CA80039B0293002D05DD39462A46CA
:101BB00020460FF059F80746B8F1000F5BD079685E
:101BC00020460EF08FFE054628B9874B024640F2AC
:101BD000EA21FFF73BBB3A690232920007F10C01A0
:101BE0000C300FF0DFFA0122294620460FF03CF8B6
:101BF000019B03F10109DDE90123134405930AF078
:101C00000103B84604930746314618EE100A0FF058
:101C10004BFC4146029000F1300A18EE100A0FF01A
:101C200077FD3A460390314620460FF08DF8C268A2
:101C300009F1FF3B054602BB014618EE100A0FF002
:101C400067FD02462946204607920EF08BFEDDE92D
:101C5000063243EA0201049B0B434D460FD1BAF111
:101C6000390F2AD0039B002B02DD029B03F1310ABE
:101C70008BF800A075E73846BAE70122E2E7039B3C
:101C8000002B04DB06990B4304990B4322D1002A55
:101C9000EEDD18EE101A012220460EF0E5FF314667
:101CA00008EE100A0FF034FD002803DCE0D11AF032
:101CB000010FDDD0BAF1390FD7D139238BF80030BD
:101CC0002B461D46013B15F8012C392A71D00132F3
:101CD0001A7046E7002A07DDBAF1390FEDD00AF194
:101CE00001038BF800303CE7059B09F801AC9945EE
:101CF00047D018EE101A00230A2220460EF054FE98
:101D0000B84508EE100A4FF000034FF00A024146B2
:101D1000204606D10EF048FE8046074609F101092B
:101D200072E70EF041FE3946804600230A22204623
:101D30000EF03AFE0746F1E7039B0293019D18EE71
:101D4000100A31460FF0B0FB00F1300A019B05F894
:101D500001ABEA1A029B934209DD18EE101A002328
:101D60000A2220460EF020FE08EE100AE7E7029B4A
:101D7000002BC8BF1D46019BD8BF01251D444FF055
:101D8000000818EE101A012220460EF06DFF3146B1
:101D900008EE100A0FF0BCFC002891DC02D11AF00A
:101DA000010F8DD12B461D4613F8012D302AFAD094
:101DB000D7E6019A9A4284D1009B013300933123E4
:101DC0001370CEE6094BFFF795BA219B002B7FF4E9
:101DD0006EAA074BFFF78EBA029B002BAEDC069B68
:101DE000022B3FF7A8AEA9E7402F01089E2E01085D
:101DF000C22E0108704700BF00B587B0002307213D
:101E00004FF60472CDE90333314CADF80410ADF850
:101E10000620ADF80830059303E00A2000210CF0FD
:101E200047FE20460BF0F8FC0028F6D029482A4C43
:101E30002A4D2B4E012108F0D7FC2A4B2A4A2B4968
:101E40002B4808F02FFB254901A80BF08BFA002244
:101E50000023012120460DF0BFFB20B100210A2004
:101E60000CF026FEF3E723699860E36860F35233D1
:101E7000E3600A22002303A930460BF01BFFA0B940
:101E80002369DB68022B15D00CDC012BDFD1BFF3FB
:101E90005B8F2B68BFF35B8F092B06D028460BF0B6
:101EA0000DFBD4E7033B012BD1D8294601A80BF049
:101EB00059FACCE7BFF35B8F2B68BFF35B8F072B1F
:101EC000F3D1034803AB2A4601A90BF091FABEE710
:101ED0005C1A010880D02324D403002000000020D5
:101EE00090070020B5D2000839D300080DD30008B0
:101EF000E1D2000801480BF0D3B900BF0C0000206C
:101F0000F0B52C4C83B00023206801930BF084FCC7
:101F1000002848D094F805C0206821794CF48072DC
:101F2000056986682F6801238B401CF0010F14BFE0
:101F30003B4327EA03032B603368984720682179E5
:101F4000036982681B689669012505FA01F21A4245
:101F50000CBF4FF480234FF400334FF4A032B0474E
:101F600015492068154A23794A60826805FA03F307
:101F70008B60D3690BB12A4698470AF07DFD104962
:101F8000019101A84FF0FF324FF0FF330AF06EFCD1
:101F90000C4A0D4B92E8030083E8030001200AF08D
:101FA0006BFF03B0F0BD4FF0FF314FF0FF300CF08E
:101FB0007FFDAFE70C000020E80E0020F51E0008B2
:101FC000C8030020482C0108341600202DE9804861
:101FD00089B00023DFF85892ADF80A300493ADF8C9
:101FE00014300693ADF81C308B4FDFF84882DFF8D1
:101FF00048B2DFF848A2CDF80C900123019309F113
:10200000040609F108050AF015FF044600286FD1FF
:10201000032306AA022102A80AF064FD0028F2D0D8
:102020009DF81B30002B68D0012BECD19DF81A30A5
:102030008DF812300322022B8DF8102000F0C6809C
:10204000052BE0D1019B002B40F0D9800DF10A0057
:102050000AF0F8FEBDF90A3013F1460F80F2BB809A
:102060009BB203F1500292B2092A40F2B68003F10A
:102070005A0292B2092A40F2BC8003F1640292B281
:10208000092A40F2B88003F1690292B2042A40F2B0
:10209000B48003F17D0292B2132A40F2B98003F1B9
:1020A0007F0292B2012A40F2B58082339BB2022BAA
:1020B0008CBF00230123BFF35B8F56E8002F46E857
:1020C00000310029F9D1BFF35B8F9DF81D30BFF3BC
:1020D0005B8F55E8002F45E800310029F9D1BFF3A7
:1020E0005B8FBFF35B8F3B68BFF35B8F002B5DD0D3
:1020F000002101200CF0DCFC85E79DF81A30042B50
:1021000081D801A252F823F0832100083D21000864
:10211000072000081D2100081D2100089DF8184017
:10212000032C93D13D4B0393002203A900233C4889
:102130000BF064FD20460AF09FFE87E79DF81840EB
:10214000032C83D1354B039303A84FF0FF324FF09C
:10215000FF330AF08BFB0023324ACDF80C9003A822
:102160000AF084FBBFF35B8F002357E8002F47E89A
:1021700000310029F9D1BFF35B8F20460AF07CFEC5
:1021800064E7294B039303A84FF0FF334FF0FF326E
:102190000AF06CFBBFF35B8F012357E8002F47E881
:1021A00000310029F9D1BFF35B8F2CE75A46414635
:1021B00050460DF0D9FAD8F8003083B1194ACDF85D
:1021C0000C9003A800230AF051FB91E7214604A8D4
:1021D0000AF040FE3AE708236DE707236BE7134B4D
:1021E000039303A84FF0FF324FF0FF330AF03EFB9A
:1021F0007EE706235FE705235DE704235BE7094AE3
:10220000CDF80C9003A8002301940AF02FFB1DE7E2
:10221000032350E702234EE72C16002088030020FA
:10222000C4070020C0270900500300205C030020E1
:10223000C8030020D40E0020D00E0020F816002085
:102240002DE98048824B0FCB87B00DF1080989E852
:102250000F00002301937F480BF0DEFA002800F006
:10226000E980DFF8F0A1DAF80840494623685046D3
:1022700098470028C0F2E580FFF742FE2369764ABE
:1022800076497448DFF8FC81754E724FDFF8C8B1AB
:10229000984798F80440012C32D0BFF35B8F00249C
:1022A00056E8003F012B03D146E80042002AF7D14F
:1022B000BFF35B8F77D1DAF80850224621462B69AD
:1022C000384698478DF815402B6849463846984758
:1022D000044600285AD12B6960495A463846984727
:1022E000002865DB5FD15F4B019301A84FF0FF32FF
:1022F0004FF0FF330AF0BAFA98F80440012CCCD121
:10230000594B5A49022200200AF0C0FC00284AD04A
:102310004FF01002EFF3118382F31288BFF36F8F37
:10232000534ADAF808501360002211462B693846E8
:1023300098472B688DF8154049463846984700283D
:1023400055DB6B684949022238469847041E6ADB10
:10235000BFF35B8F012356E8002F46E800310029C8
:10236000F9D1BFF35B8F404B424A9B7892E8030060
:10237000052B3F4B88E803001B6808BF012483F34B
:102380001188BFF36F8F002CADD00AE00123BFF39B
:102390005B8F56E8002F46E800310029F9D1BFF3E2
:1023A0005B8F002C0FDB002101200CF081FB70E71C
:1023B0000123BFF35B8F56E8002F46E80031002968
:1023C000F9D1BFF35B8F2C4B019301A84FF0FF3382
:1023D0004FF0FF320AF04AFABFF35B8F274B1B68BE
:1023E000BFF35B8F002B3FF454AF254B7CE71E49B6
:1023F0000023002000220BF001FC1E4B93E8030099
:1024000088E80300BFF35B8F56E8003F46E80042D0
:10241000002AF9D1BFF35B8F154B1B6883F311883A
:10242000BFF36F8FCFE710490022002300200BF08D
:10243000E5FB8DE74FF0FF314FF0FF300CF038FB3C
:102440000FE74FF0FF314FF0FF300CF031FB13E797
:10245000281E0108741A01080DC3000875C300087E
:1024600040160020A0030020E00E0020DC0E00201B
:10247000D80E0020482C0108940300202C160020C0
:10248000500300203416002038B50A4D02682B682E
:10249000116804461868FEF7D6FC18B922792B7922
:1024A0009A4200D038BDBDE83840034801210AF007
:1024B000D1BC00BF0C00002004000020044A054BE2
:1024C00092E80300044A83E8030010680CF01CBB88
:1024D000502C0108341600207C1F01080020704792
:1024E0000B68024A013312680B6010471400002089
:1024F0000FB410B582B004AB002453F8042B054888
:10250000009301A9019400F0E1F802B0BDE8104089
:1025100004B07047E12400088C460446114608B513
:102520001A466046A0470CF029FB01F06DFD00BF84
:1025300000EBC10370B55B885B08B3FA83F3C3F1AA
:102540001F0300EB8304CA00151D02F1060C22696B
:102550001FFA81FE5AB9C268012606FA03F31A432C
:10256000C260216120F805E020F80CE070BDD300C6
:102570000433C15A415300EBC10120F80C20A1F8EB
:1025800006E020F803E070BDA2F1040C8C44CA1DE3
:1025900022F007022CF0070CACEB020C30B44FEA2F
:1025A000DC050260B5FA85F0C0F124018900002441
:1025B0000731D0F12000C2E902544FEAD10107D01F
:1025C00002F10C0303EB800043F8044F8342FBD17C
:1025D000002313804B006D1A43F0010302EBC1008E
:1025E00053806C0002EB0C034480012022F8311070
:1025F00022F80C50588030BC1046FFF799BF00BF3E
:102600002DE9F84F92469846D3782F4A0A9E13F840
:1026100002906F2B04460D4609F003093ED038D9CD
:1026200003F0F703702B36D00A27BB460CE00CF101
:102630005703DBB2BC4206F8013D75F100031BD322
:10264000464504460D4617D9204629463A460023FA
:10265000FEF774FA5FFA82FC092A0CF13003E8D91C
:10266000B9F1010FE3D10CF13703DBB2BC4206F83C
:10267000013D75F10003E3D29AF800309B0605D5C1
:10268000BBF1080F0DD0BBF1100F13D03046BDE8E1
:10269000F88F582BC8D11027BB46D5E70827BB4673
:1026A000D2E79AF8023043F008038AF80230304645
:1026B000BDE8F88F9AF8023043F010038AF8023030
:1026C0003046BDE8F88F00BF7D2D01082DE9F04FA1
:1026D000174699B012780293002A00F09D86814631
:1026E0004FF0333388464FF0000A039310464C46B0
:1026F000252807F101050DD04146A047002806DB3B
:102700000AF1010A2F4638780028F1D1504619B055
:10271000BDE8F08F7B780021252BCDE90A11CDE9AA
:102720000C11CDE90E1100F0E4800E4608468C46EF
:102730008E46A3F12002102A0AD8DFE802F0D2095F
:1027400009D009090909090909D409D70909CC00DF
:10275000BEF1000F05D09DF8302042F004028DF844
:102760003020BCF1000F05D09DF8302042F0080267
:102770008DF8302028B19DF8302042F010028DF8FD
:1027800030202EB19DF8302042F020028DF830200C
:1027900029B19DF8302042F040028DF830209DF89C
:1027A000302002F04401442900F0A8819DF8302037
:1027B0002A2B42F080028DF8302000F08281DFF871
:1027C000B49B19F8032052071846294648BF002237
:1027D00016D511F8013F19F8036002EB820200EBF5
:1027E00042027607A2F130021846F2D48D4207D099
:1027F0009DF830000D92D20F62F341008DF8300049
:102800009DF831202E2B0CBF0120002060F34102E7
:102810008DF8312028D14B782A2B00F07481DFF815
:10282000549B19F8032012F00402184601F101012B
:1028300008BF10460ED0002211F8013F19F80350CE
:1028400002EB820200EB42026D07A2F13002184651
:10285000F2D4D00F0E929DF83020C2F340052843E9
:1028600060F341028DF83020A3F14C024D1C2E2A5A
:1028700000F25281DFE812F055045001500150017E
:1028800050015001500150015001500150015001C0
:1028900050015001500150015001500150015001B0
:1028A00050015001500150015001500150015001A0
:1028B00045045001410450013104500150015001C0
:1028C00050015001500150012D04500150015001A0
:1028D000500150012004012115F8013F29E701268C
:1028E000FAE70120F8E74FF0010CF5E74FF0010E91
:1028F000F2E78DF83300BD1C08460A460B468C46AD
:102900009DF930609DF830E0002EB4BF0D9E4FF071
:10291000FF36002B00F08180029B53F8049BB9F135
:10292000000F07DA9DF831C06FF3410C8DF831C00C
:102930004FF0FF394FF0000C042ACDE90DCC7BD0CD
:10294000012A00F09280022A00F0C480032A00F0DD
:10295000BE8402931EF0030F40F0A0809DF8333038
:102960000493253B532B56D8DFE813F03C04550065
:1029700055005500550055005500550055005500AF
:10298000550055005500550055005500550055009F
:10299000550055005500550055005500550055008F
:1029A000550055007C015500550055007C017C0107
:1029B0007C01550055005500550055005500550047
:1029C000550055005500550055005500550055005F
:1029D000550003035500550055005500550055009E
:1029E000550055007C015500340490037C017C01A6
:1029F0007C01550090035500550055005500FD031E
:102A00000303280455005500140455000303550022
:102A100055000303CA462F4675E61CF0020F18BF87
:102A2000DDF83890029B08BF4FF0FF394FF0000CE3
:102A3000042ACDE90DCC83D19DF831C01CF0020FE2
:102A400008D19DF931C0BCF1000FB4BF4FF00D09A2
:102A50004FF00609073323F0070C0CF1080302932B
:102A60009CED007B8DED0A7B74E7A1F1030CBCF1BA
:102A7000040F00F2E680DFE81CF074020500050098
:102A8000E400E400073323F00703B3EC027B1EF0FD
:102A9000030F8DED0A7B02933FF460AF002606E042
:102AA00017F8010BA0470028FFF631AE0136AF4200
:102AB0004146F5D3002E3046FFF629AEB2442F46EC
:102AC00021E69DF8313043F001038DF831306B7809
:102AD000691C95E6A1F1030CBCF1040F00F20B8216
:102AE0000FF2040B5BF82CF04B300008852A00082D
:102AF000852A0008F72E0008F72E00086FF38612CB
:102B00008DF8302052E69DF8313043F004038DF803
:102B100031308B780231A7E69DF830600D46C6F360
:102B20004006A3F1410201358DF83330372A39D8F8
:102B3000DFE812F05C003800380038005C005C0010
:102B40005C003800380038003800380038003800A1
:102B500038003800380038003800380038003800B5
:102B60003800F601380038003800380038003800E6
:102B7000380038005C003800F601A4025C005C00FC
:102B80005C003800A4023800380038003800060322
:102B9000F60192023800380092023800F60138003F
:102BA0003800F6019DF830309DF831C043F0010344
:102BB000CCF3C3018DF83030002208469DF8303048
:102BC0001CF0010F66F341038DF830300CF0040364
:102BD0003FF496AEDDF808E05EF8046B002EC0F21C
:102BE0004B83CDF808E09DF830E092E603F0DF0378
:102BF000A3F141039DF831109DF83200B3FA83F33D
:102C00005B0963F3C711042262F302000B068DF81F
:102C100031108DF832005FFA81FC00F100840CF075
:102C20007803182B00F0AA84CCF3C3011CF0380FF2
:102C30000846C3D09DF8303043F001038DF83030A2
:102C4000BCE753F804CB029301284FEAEC73CDF8AC
:102C500028C00B9340F084839DF828300A9300230A
:102C60000B9377E6DDE90A310029C0F23E841EF0BD
:102C7000080F40F07F841EF0100018BF2020059040
:102C8000C1F31300C1F30A57069040F2FF71079396
:102C9000002F40F0D3831A46024300F0E3840499E6
:102CA000069A46294FEA023208BF662152EA1352B9
:102CB00004914FEA033B00F12E861BEB0B0B5241B4
:102CC000002A07F1FF37F8DAA7F2FE31881C42F03C
:102CD000004280F2188600274FEA5B0B4BEAC27B6A
:102CE0005208B2F1333F0B4601F10101F4D29000DA
:102CF000991C4FEA8B0340EA9B7013EB0B0B42EBE2
:102D000000028B1C07F1FF37E6DB00292ADD07EE06
:102D1000908A4FF033301BF10203A3FB003C42F1D9
:102D2000000210EB030BA2FB00B240EB0C0813EB0C
:102D30000B034CEB020C13EB08034CF100031BEBF1
:102D4000030B01F1FF3107F1010742F100021BEB18
:102D50000B0B5241002A01F1FF31F8DA0029DADCCD
:102D600017EE908AC1F104031C312BFA03F002FA2A
:102D700001F101430846A3F1200122FA03F306936F
:102D8000049B22FA01F10143672B079100F08B8429
:102D9000472B00F08884049B662B00F0F984002206
:102DA00009F101030892102B9C46A8BF4FF0100CAC
:102DB0000CF1FF3C002B00F0628507EE908A4FF08B
:102DC000000B4FF000624FF033314FEA5B0040EAF6
:102DD000C270A0FB010B52080B18A2FB013241EBA1
:102DE0000B08C0184BEB020B10EB08004BF1000076
:102DF00013EB000B0CF1FF3C42F10002BCF1FF3F72
:102E0000E3D117EE908A079B06991BEB030342EB75
:102E10000101B1F1805F80F0FC830EF02002069288
:102E2000049A662A00F0B4838A00980042EA9372FA
:102E3000C31841EB0201C1F3C3623032DB184941D0
:102E40008DF84420302A069A21F0704118BF07F10E
:102E5000FF37002A40F0FA83B9F1000F40F3D9841C
:102E60002E228DF845200F220DF1460C0DF1440E57
:102E7000E346624488004FEA830C40EA93701CEBFF
:102E8000030341EB0000DB18404120F07041000FCC
:102E900000F1300C0BF801CBB9F10109A2EB0B00EA
:102EA00001D00028E6DC089BCDF838904BB1002318
:102EB0000E935A461BF8013D302BFAD02E2B18BF2B
:102EC0009346049B03F0DF03452B00F0CB820D9B60
:102ED000002B40F3498301219DF8322061F38612D3
:102EE0008DF8322000228BF80020ABEB0E009DF80D
:102EF0003220774664E09C4600230B93634601280A
:102F000053F804CB0293CDF828C03FF4A5AE0228B5
:102F10007FF420ADBDF828300A9300230B9319E508
:102F20009DF83210022262F302018DF832109DF8F2
:102F3000311001F0780EBEF1400F8C4605D19DF89E
:102F4000300040F001008DF83000C1F3C301632B65
:102F500008467FF433AEBEF1000F18BF46F00106FD
:102F60002CE6184650F8043B0A93DB1702900B93AB
:102F7000F0E4002305930DF15D0BDDE90A01CDF8C6
:102F800000B011AB0CAAFFF73BFB0746B9F1000FED
:102F90000CDB9DF830306FF386138DF83030ABEBDF
:102FA0000703994502D9A9EB03030D93002F3FF4C2
:102FB00032AD9DF832200D9BABEB07000DF15D0BA0
:102FC000059901B10130D10640F1888102305106E6
:102FD000184444BF0E9BC018002E40F317819DF883
:102FE00030305A07A6EB0006C3F3800900F10E81CA
:102FF000580640F17E82059B002B00F01682184691
:103000004146A0470028FFF682AB002E0AF1010AD4
:1030100006F1FF3340F31082CDF8149030220AF10C
:10302000010A99469A44164606E0B9F1000F09F1E3
:10303000FF3340F3E980994641463046A0470028D7
:10304000AAEB0902F1DAFFF762BB181D02901B68B8
:103050000A9300230B937DE49DF832309DF831C034
:1030600003221CF0780F62F30203CCF3C30118BFF4
:1030700046F001068DF8323008469FE59DF8321083
:10308000012262F302018DF8321050E71EF0080FA2
:1030900040F0E5811EF0100318BF20230593DDE901
:1030A0000A23002BBFF667AF524263EB43030B9337
:1030B0002D230A9205935EE79DF83130062262F3D4
:1030C000C6039DF830608DF831304B78C6F340066A
:1030D00027E59DF831300722F1E74B789DF8306005
:1030E0006C2BC6F3400600F0F1819DF831200321DE
:1030F00061F3C6028DF8312013E59DF831300522C9
:10310000DDE74B789DF83060682BC6F3400600F091
:10311000D2819DF83120022161F3C6028DF8312061
:10312000FFE4BDF830204B7822F4F04222F0020296
:1031300042F4804242F00202ADF830200126F0E471
:103140009DF832309DF831C0032262F302038DF8FE
:103150003230CCF3C3010CF07803402B08BF46F0AB
:10316000010608462AE50A9B07293FF654ACDFE82A
:1031700001F00446410409090404C3F800A02F46E5
:10318000FFF7C1BA4FEAEA72C3F800A02F465A60AF
:10319000FFF7B9BAB9F1000F0A9FC0F2A281494600
:1031A00038460EF075F907EB000B002F3FF433ACF7
:1031B00000219DF832200D9B059104E70A98002814
:1031C00040F0A081DFF8B0B10520ABF10507002386
:1031D0000593FCE60A9B8DF844300DF1450B11AFC9
:1031E0000120F4E741462520A0470028BFF688AA21
:1031F000FFF78DBAA3F800A02F46FFF784BA83F833
:1032000000A02F46FFF77FBA1E469246059B3BB1B2
:1032100018464146A0470028FFF679AA0AF1010A9C
:103220009DF832205106134631D59DF9313038785A
:10323000002BC0F2A380DFF83C9119F800305B0747
:1032400058BF534640F1C780AAEB070307F1010AB4
:103250001F460AE09AF8000019F80010490707EB2A
:1032600002030AF1010A40F1B3804146A047002859
:103270005246EFDAFFF74BBACDF808E09DF830E0A0
:103280004EF0040E76428DF830E0FFF742BBD106D7
:103290005BD41A0759D4DB0608D59DF833004146A4
:1032A000A0470028FFF633AA0AF1010A0D9B002B64
:1032B00018DD03EB0A0901E0CA4514D0414630206D
:1032C000A04700280AF1010AF6DAFFF720BA1846EB
:1032D00050F8043B02900A93FFF73CBB110748BF2C
:1032E000013074E6D14623464FF0000A5C46AB46F7
:1032F0001D4608E03878A847002807F10107FFF6C7
:1033000006AA0AF1010ABC424146F3D814B938783A
:103310000028F0D1BAF1000F2C4650465D46FFF66A
:10332000F6A9D144002EC8BF06EB090A04DCFFF75A
:1033300071BBD1453FF46FAB41462020A047002828
:1033400009F10109F5DAFFF7E2B941463020A0475B
:103350000028FFF6DCA99DF832300AF1010A9AE74D
:1033600002287FF4F7AABDF928300A93DB170B93E4
:10337000FFF7F0BA7D2D0108851F0108702800F0C5
:103380009482AAEB070907F1010A03E01AF8010B7E
:10339000702809D04146A047002809EB0A03574688
:1033A000F4DAFFF7B4B90F460E9A002A40F3C18051
:1033B00002EB03099A4602E0CA4500F0BB80414691
:1033C0003020A04700280AF1010AF5DAFFF79FB97B
:1033D00017469DF83220DDF834A0900640F1C181F7
:1033E00038782E2800F0A08119F800205207DBD58C
:1033F000DB1B07F1010A1F4607E007EB0A031AF877
:10340000010B19F800205207CDD54146A0470028EE
:103410005146F2DAFFF77BB91046FFF778B9CCF3E3
:10342000C30108460126FFF7C9BB002E06F1FF3392
:10343000C8BF30223FF7F3AD1E46F1E68F4200F0E1
:103440004C810499069A46294FEAC22242EA535215
:103450004FEAC32B14BF0B466623049334E42B239B
:1034600005931CE6002F5A46049B02F8023BBABFA4
:103470007F422D232B23632F8BF801300CDDC74BAC
:10348000A3FB07235B0903F1300264218BF80220C0
:1034900001FB13770BF10302C14BA3FB0713DB08FE
:1034A00003EB8301A7EB41019346303330310BF836
:1034B000023B51700BE59DF83130012262F3C603E7
:1034C0008DF831308B788D1CFFF72BBB9DF8313098
:1034D000042262F3C6038DF831308B788D1CFFF720
:1034E00020BB3846FDF7B9FC5DE62D200590FFF7BF
:1034F000C7BB002E06F1FF33C8BF20223FF78FADB8
:103500001E4683E60DF15D0B11ABCDF800B00CAAA1
:103510000021FFF775F8BDF8323003F0EF0343F4F4
:10352000F04343F01003ADF8323000230746059313
:103530002CE5994623464FF0000A5C46AB461D46F3
:1035400008E03878A847002807F10107FFF6DFA850
:103550000AF1010ABC424146F3D8002C7FF4DAAEEE
:1035600038780028EED1D5E60E990029D4BF002185
:103570000121B1E42B200590FFF782BB6FF3C60C4D
:1035800000208DF831C001465FFA8CFCFFF716BBB6
:10359000002F40F311810DF1440EA7F11002C7F185
:1035A0000F00F346CDF81CA0CDF824E08246A646D5
:1035B00014468A00980042EA9372C31841EB020154
:1035C000DB1849410A0F3032DC460BF8012B0AEBBD
:1035D0000702013F21F0704100F04B81A742E8D182
:1035E0007446DDF81CA0DDF824E0002206980D9753
:1035F000002840F01981B9F1000F40F31F812E20FF
:103600000CF1020C8BF80000002A00F0508100271A
:103610002EE4039A5B0843EAC173A3FB02B0490896
:10362000134612EB0B02A1FB032140EB030C1BEB37
:10363000020340EB010013EB0C0340F100001318F0
:1036400007F1010741F10001FFF7E7BB2E22B9F1B5
:10365000000F8DF845203FF706AC0DF1460B0DF13C
:10366000440E20E4049B462B00F09280049B672BC1
:1036700003D0049B472B7FF48EAB4F4515DC1EF027
:10368000200FA9EB07024B4640F00B81002AD4BF64
:103690000021012108919146002BC0F2858066220D
:1036A0000492FFF780BBF81CE7DA049B023BDBB215
:1036B000B9F1000F0493CEF340137FF770AB09F11B
:1036C000FF32002B40F0C380002AD4BF002101212B
:1036D0004B4608919146FFF766BB0499314801318A
:1036E000C9B2095C0698034301F0030140F08680EB
:1036F000012900F0DF8069238DF844306E238DF8B6
:10370000453066238DF846309DF830306FF38613D0
:103710008DF83030059B002B00F000810023032042
:103720000DF1470B11AF4DE405934146A0477B1CBB
:1037300000280493FEF6EBAF059BBAF1000F03F1EE
:1037400001036EDD05959A441D4601E0554566D09E
:1037500041463020A047002805F10105F6DAFEF7C2
:10376000D6BFBAF1000F0AF1FF3240F3DC800495B6
:103770009A44154601E0691C77D041463020A047A5
:103780000028AAEB050305F1FF35F4DAFEF7BFBF09
:10379000002207EB090308927EE700BF1F85EB516B
:1037A000CDCCCCCC7C2D0108662304934FF0000BCC
:1037B0004FF00062FFF727BB30228DF84420069AB5
:1037C000002A61D1B9F1000F40F3A0802E228DF8BC
:1037D000452067B17A424A457FDC0D929DF8322040
:1037E00019EB070942F020028DF8322054D0102244
:1037F0000DF1460C0DF1440EFFF73ABB012963D0E1
:103800006E238DF844308DF8463061238DF84530B5
:103810007AE70DF1450B0DF1440EFFF744BB2B4643
:10382000059D7878049FDFE52E20B9F1000F0CF19B
:10383000020C8BF800003FF7E7AEE3460027089B39
:10384000CDF83890002B3FF442ABFFF730BBB9F115
:10385000100FCC464FF00003A8BF4FF0100C0CF136
:10386000FF3C91460893FFF7A8BA2A469246049D6A
:10387000B6E57446DDF81CA0DDF824E0B6E69B460C
:103880004FF00062FFF7BFBA2E228DF84520002FBF
:103890004BD0B9F1000F9DDC0DF1460B0DF1440E3C
:1038A000CDE7914600220892F6E653467CE517469E
:1038B000E346C4E749238DF844304E238DF8453064
:1038C00046238DF846301FE74E238DF844308DF89F
:1038D000463041238DF8453016E7B9F1000F9DF8C9
:1038E0003230CDF83490D4BF4FF000094FF00109C9
:1038F00069F345138DF832304FF000090DF1460B96
:103900000DF1440E9BE70027FFF7FFB90DF1450BC2
:103910000DF1440E93E70749FFF7DDB911AF0DF143
:10392000470B032053E492465AE5B9F1000F3FF7E5
:103930005EAFB1E702FCFFFF704700BF4FF010021F
:10394000EFF3118382F31288BFF36F8F83F3118833
:10395000BFF36F8F024B034A1A600020704700BF0D
:10396000EC02002000093D000020704708B500F07F
:1039700015F8BDE8084000F001B800BF38B5054CA7
:10398000054DAC4204D254F8043B9847AC42FAD3FC
:1039900038BD00BF541D0108581D010838B5064D3B
:1039A0002C6844B1631C05EB8305013C55F8043DCC
:1039B0009847002CF9D138BD4C1D010800207047F4
:1039C000014910220A60704710ED00E072B64040D5
:1039D00080F31188BFF36F8FBFF34F8F30BF62B694
:1039E000BFF36F8F704700BF09F030BF014600681A
:1039F00009F02CBF43B2002B08DB05495B0901220B
:103A000000F01F0002FA00F041F82300704700BFE9
:103A100000E100E043B2002B0DDB5B090649012207
:103A2000203300F01F0002FA00F041F82300BFF33A
:103A30004F8FBFF36F8F704700E100E0054B4209E5
:103A400000F01F0053F82220012303FA00F0104079
:103A5000704700BF00E100E0013143B20901002BD3
:103A6000C9B206DB03F1604303F5614383F8001339
:103A70007047034B00F00F0003441976704700BFF6
:103A8000FCEC00E000210120FFF7AEBF08B500F01C
:103A900005F8BDE8084000F07DB900BF30BFFFF772
:103AA000FDBF00BF144A08B5144B22F07F029A6094
:103AB000BFF34F8FBFF36F8FD3F88820104922F4E4
:103AC0007002C3F88820D3F888204FF0404042F4B9
:103AD000A002C3F888204863BFF34F8FBFF36F8FF6
:103AE0000023E1EE103A09F0EBFE0BF011F900F0C3
:103AF00069FA09F0EFFE00BF0000000800ED00E0E9
:103B000000EF00E010B40A4A0A4C936824680A499E
:103B1000C3E91E044B6843F0805300204B6080F3E0
:103B20001188BFF36F8F93685DF8044BD86F7047AF
:103B300008170020A02C010800ED00E021498A6848
:103B400082F8C1E04FF030001044EFF3098C80E8B8
:103B5000F01F1EF0100F03D102F1800080EC108ADC
:103B6000102080F31288BFF36F8F174F4FF000665D
:103B70008A698A603E6092F9C1E0906F0023936782
:103B800080F311881EF0100F03D00023E1EE103AED
:103B900003E002F1800090EC108AEFF3148323F02D
:103BA000040383F31488BFF36F8F04B5104600F04D
:103BB0004DFABDE8044002F1300090E8F01F8CF3AC
:103BC000098870470817002004ED00E01EF0040F7C
:103BD0000CBFEFF30880EFF30980816911F8021C34
:103BE0000229FFD001B5FFF701FF01BD017B10B431
:103BF00011F0020405D0816E60318166C16E6039BA
:103C0000C16642F8203C019B42F81C3C029B42F8F2
:103C1000183C4FF0807342F8043C039B42F8143C7C
:103C20000C4B23F0010342F8083C0021203A0265C6
:103C30008167C0F8C0102CB9FD235DF8044B80F8F3
:103C4000C13070474FF608535DF8044BC0F8C030E0
:103C5000704700BF1925000830B4037BD0F8C0209E
:103C60009D0702F0080403D490F8C110C9060BD4D4
:103C7000164D696B41F080416963C4B143F00203A2
:103C8000037330BC8020704710494B6B23F0804396
:103C90004B63BCB1D0E91A1322F0080260396033DB
:103CA000C0E91A13C0F8C02030BC20207047D0E90A
:103CB0001A4142F0080260346039C0E91A41C0F884
:103CC000C020DBE7202030BC704700BF00EF00E0E1
:103CD000104B9B68DBB110B4D3F8C040024614F01F
:103CE000080F986E14BF8023202312F1160F08D0FE
:103CF000C31A934203D900205DF8044B70478242F7
:103D0000F9D2814228BF00205DF8044B7047184665
:103D1000704700BF0817002008B514460D46002262
:103D2000E1EE102AEFF3148222F0040282F31488E9
:103D3000BFF36F8FBFF36F8F084A906000F086F972
:103D4000204685F30988002163B681F31188BFF30B
:103D50006F8F00220023FEF7DFFB00BF0817002053
:103D600001B5EFF30580A0F110004FEAC00004494F
:103D7000014409C99847BDE80140024908470000CD
:103D8000A41A0108953D0008034608461946FFF7A6
:103D900015BE00BF044B99689869884203D0034957
:103DA0004FF080520A6070470817002004ED00E0D1
:103DB00038B51A4B9C6A9C6A9D6AAD07144603D5B8
:103DC0005D6B9A6A120621D46FF01505134B9A6A3F
:103DD0009A6A9A6AD1060BD49B6A9A0708D4002083
:103DE0000E4A936A002143F0FF039362217038BDAD
:103DF0000A4B5B681B05F2D501462846FFF768FFB2
:103E00000028ECD080F309880220E9E70029DDD002
:103E10009A6A22F080029A62D8E700BF00ED00E0C3
:103E20000E4B9A6A9A6A9A6A920508D59A6B9A6AB0
:103E3000120404D518B19A6A22F400429A62074B20
:103E40009A6A9A6AD205054A58BF9B6A936A00200B
:103E500043F47F4393620870704700BF00ED00E0B9
:103E600070B54E4B5B689CB0C3F30803002585F327
:103E70001188BFF36F8F02F07F44B4F17F4F69D197
:103E800002F00C04082C65D0140747BF0C462E46E0
:103E9000044601260022033B8DF80720032B66D839
:103EA000DFE803F03B3125023C4B00259A6A9A6A11
:103EB0009A6A9A6A9A6A9A6A9A6A6FEA02426FEAF8
:103EC00012429A626822214602A80DF06BF9099B02
:103ED000002E42D0C3F3080240F2FF110AB90B438F
:103EE000099302A92846FFF77FFD1CB070BD0DF1B4
:103EF00007010020FFF794FF9DF807300546002BCF
:103F0000E0D01CB070BD0DF1070200212046FFF784
:103F10004FFF9DF807300546F1E7204BDD6A15F0AD
:103F2000020524D1DA6A002ACCDBDA6A5200C9D54C
:103F3000A26932F8021C4DF60272914223D093F826
:103F40002820B2B993F82920FAB95A8D92B2002AE2
:103F5000B8D0ABE72E462C469CE723F4FF7323F042
:103F6000010302A928460993FFF73EFDBDE700259E
:103F7000A8E70DF1070201212046FFF719FF9DF880
:103F800007300546BBE725689CE70DF107010120D6
:103F9000FFF746FF9DF807300546B0E700ED00E06B
:103FA000024A536943F010035361704700ED00E08B
:103FB000EFF30880EFF3098101B57246FFF750FF78
:103FC00001BD00BF044800231021C2180133552B46
:103FD00082F80013F9D1704700E100E0102080F36F
:103FE000118808484FF40261401880F30988EFF304
:103FF00014800221084380F31488BFF36F8FFFF70A
:1040000051FD0000803F0020084B9B68834201D097
:104010000AF0CABDEFF30583002BF9D0044A5368B8
:1040200043F0805353600AF0BFBD00BF0817002063
:1040300000ED00E0024B034A0348012100F064B8A0
:104040000080022000000020881F010810B50446EF
:10405000FFF702FEA26E064B064C9C60121AC3E9E3
:104060000020BDE810400121184600F057B800BFFD
:10407000F80E002000000B15002941D0F0B5214FAB
:1040800084464FF0000EDCF804406CB3DCF80050BE
:1040900053B11F2C04D944EA0500661E304203D0F8
:1040A0006FF015021046F0BD202CDCF80860D2B28B
:1040B00022D9B4F1004F21D8013CB4FA84F4C4F100
:1040C0001F046400072A44EA0604E9D825F01F0506
:1040D000154345F0100544F00104C7F89820C7F8CF
:1040E0009C500132C7F8A0400EF1010E8E450CF134
:1040F0000C0CC8D11046F0BD0824E3E73E24E1E7EC
:104100001046704700ED00E010B5034C0123227803
:10411000FFF7B2FF207010BD6817002008B5094AEC
:1041200000231278FFF7A8FF10F1160F09D0072817
:1041300007DC054AC2F8980001300828C2F8A03010
:10414000F8D108BD6817002000ED00E01A4B10B44C
:104150001C68082C2CD8BFF35F8F18480022C0F8C9
:1041600094201CB35968C0F898200B6823F01F03F3
:10417000134343F010030C31C0F89C3051F8043C59
:10418000013243F00103A242C0F8A030EBD1D2B219
:104190000B480A4B02700521C3F89410BFF34F8FF0
:1041A000BFF36F8F00205DF8044B70472246EFE7A6
:1041B0004FF0FF30F7E700BFAC1F010800ED00E053
:1041C00068170020002070474FF0FF30704700BF95
:1041D00000207047F0B583B00191002A16DD013A46
:1041E0000B4F0E464C1E8D1803E00D280BD0AC4231
:1041F00009D03B689847234602330A2804F8010F88
:10420000A3EB0603F1D1184603B0F0BD0023FAE793
:1042100018000020F8B51746002A0FDD551E084E7D
:104220004C1E0D4414F8010F0A2803D133680D20E9
:104230009847207833689847AC42F3D13846F8BDA8
:104240001C0000204FF0FF30704700BF0020704777
:104250000228CCBF00200120704700BF002070471B
:10426000002070474FF400534B600020704700BFA0
:10427000F8B50B4C0B4E271D65253368284698472B
:10428000BC420BD014F8015F0A2DF6D133680D2023
:104290009847336828469847BC42F3D1FEE700BFF1
:1042A000941F01081C00002030B4084C084D2368FE
:1042B000C5F10051C21801F520318A423ABF5819A0
:1042C00022604FF0FF3030BC704700BF040F002069
:1042D000604D002010B5044614200BF005FB206053
:1042E000BDE8104009F068BD4FF0FF324FF0FF33DA
:1042F00009F06ABD09F0ECBD10B50C4C206882B025
:1043000050B1836804221B680DEB02019847002816
:1043100007DB019802B010BD054809F049FA20609A
:10432000EFE705F069F902B010BD00BF080F0020EB
:10433000CC1F0108002208B511460620FFF78CFBB0
:10434000002211460720FFF787FB002211460820B4
:10435000FFF782FB002211460920FFF77DFB0022B8
:1043600011460A20FFF778FB002211461720FFF7BD
:1043700073FB002228201146FFF76EFB002008BDCA
:104380002DE9F04107690E4D0A24012607F10408C2
:1043900002E00134102C11D06A6906FA04F333EA02
:1043A0000202F6D157F834206B612046002AF0D083
:1043B00058F8341001349047102CEDD1BDE8F0814D
:1043C00000040140064B5A69D20700D470470169C6
:1043D0000A6801205861002AF8D049680020104777
:1043E00000040140064B5A69920700D470470169E6
:1043F0008A6802205861002AF8D0C9680120104755
:1044000000040140064B5A69520700D47047016905
:104410000A6904205861002AF8D04969022010472F
:1044200000040140064B5A69120700D47047016925
:104430008A6908205861002AF8D0C969032010470A
:1044400000040140064B5A69D20600D47047016946
:104450000A6A10205861002AF8D0496A04201047DF
:10446000000401402DE9F04107690E4D05240126A5
:1044700007F1040802E001340A2C11D06A6906FA37
:1044800004F333EA0202F6D157F834206B61204678
:10449000002AF0D058F83410013490470A2CEDD19E
:1044A000BDE8F08100040140064A074910B4012329
:1044B00014688340234308565DF8044B1360FFF7EC
:1044C00099BA00BF00040140F01F01081F2807DC53
:1044D000044901220B6802FA00F023EA0000086098
:1044E000704700BF0004014003290DD8DFE801F048
:1044F00025190D02174A0123916803FA00F00143C0
:104500009160D3681843D0607047124B0122D9687C
:1045100002FA00F00143D9609A6822EA000098602C
:1045200070470C4B0122996802FA00F00143996030
:10453000DA6822EA0000D8607047064B01229968C9
:1045400002FA00F021EA00019960DA6822EA00002C
:10455000D860704700040140084B10B453F8304055
:1045600044B943F8301003EBC00320465A605DF8AD
:10457000044B70476FF00F00F9E700BF0C0F0020ED
:10458000034A02EBC001002342F830304B60704711
:104590000C0F00200B68042B04D8054B1B6813601C
:1045A00000207047062BF8D06FF08500704700BFE1
:1045B000EC0200200B6886B0062B4DD8DFE803F034
:1045C000101C2834404C0400254A4B68116D1943D7
:1045D0001165126D13400193019B002006B07047D6
:1045E0001F4A4B68916C19439164926C1340059378
:1045F000059B002006B07047194A4B68D16C1943DF
:10460000D164D26C13400093009B002006B0704729
:10461000134A4B68916D19439165926D1340029353
:10462000029B002006B070470D4A4B68116E19437B
:104630001166126E13400493049B002006B070476D
:10464000074A4B68D16D1943D165D26D134003936E
:10465000039B002006B070476FF08500BEE700BFE7
:10466000001002400B68062B35D8DFE803F00C146D
:104670001C242C340400194A4968136D23EA0103F1
:10468000002013657047154A4968936C23EA0103BB
:10469000002093647047114A4968D36C23EA0103F0
:1046A0000020D36470470D4A4968936D23EA0103E3
:1046B000002093657047094A4968136E23EA010395
:1046C000002013667047054A4968D36D23EA010349
:1046D0000020D36570476FF08500704700100240DE
:1046E00010B586B00023CDE90033029300F03CF80A
:1046F00003A800F031F8174B1A68510506D41A6860
:1047000042F480721A601A685205FCD5114CA368F5
:1047100023F0030343F00103A360A36823F0F00335
:10472000A360A36803F00C03042BFAD1236823F0E1
:1047300080732360694603A805F0BEFA236823F45A
:10474000803323602368002023F00103236006B038
:1047500010BD00BF00100240002114224FF0007372
:1047600080E80E00704700BF064B9A6D42F0805201
:104770009A659B6D82B003F080530193019B02B058
:10478000704700BF00100240002208B511460B2000
:10479000FFF762F90B20FFF72DF9002211460C20DC
:1047A000FFF75AF90C20FFF725F9002211460D20DA
:1047B000FFF752F90D20FFF71DF9002211460E20D8
:1047C000FFF74AF90E20FFF715F9002211460F20D6
:1047D000FFF742F90F20FFF70DF9002211461020D4
:1047E000FFF73AF91020FFF705F9002211201146D2
:1047F000FFF732F9BDE808401120FFF7FBB800BF12
:10480000002208B511463820FFF726F93820FFF7B7
:10481000F1F8002211463920FFF71EF93920FFF781
:10482000E9F8002211463A20FFF716F93A20FFF77F
:10483000E1F8002211463B20FFF70EF93B20FFF77D
:10484000D9F8002211463C20FFF706F93C20FFF77B
:10485000D1F8002211464420FFF7FEF84420FFF76C
:10486000C9F8002245201146FFF7F6F8BDE80840D8
:104870004520FFF7BFB800BF43682DE9F0415D69EF
:104880001F69481E854217D99D69144600EB4002F6
:1048900005EBC2064FEAC20800F066FB084B55F86C
:1048A00008201B5C3B4400205B686270B279227078
:1048B0009BB26360BDE8F0816FF01500FAE700BFBE
:1048C0002020010870B546680446124D284608F0BD
:1048D000A3FFE0B1AB6828461B6831469847054600
:1048E000A8B9B3682046984772694AB1B36902EB28
:1048F000420203EBC2022946997118339342FBD15D
:1049000023690022C3E900229A60284670BD6FF037
:104910000405FAE7F418010843682DE9F0419C69A1
:104920001F6901EB410304EBC304002382B0064678
:10493000A37138460D4600F045FB05F1010880B132
:1049400063794BB1D4E90415002342463046AC46A6
:1049500002B0BDE8F04160472946384600F00AFB46
:10496000F0E72946384600F013FB38B16379002B95
:10497000E8D12946384600F003FBE3E738462946EC
:1049800000F040FB20B1D4E904156FF00403DCE72C
:1049900073682946186900F0F9FA7368294618699E
:1049A000019000F0EDFA0198294600F0E3FA019831
:1049B000294600F021FBE6E70021FFF7ADBF00BF6D
:1049C0000121FFF7A9BF00BF0221FFF7A5BF00BF6C
:1049D0000321FFF7A1BF00BF0421FFF79DBF00BF68
:1049E0000521FFF799BF00BF0621FFF795BF00BF64
:1049F0000621FFF791BF00BF0021FFF78DBF00BF69
:104A00000121FFF789BF00BF0221FFF785BF00BF6B
:104A10000321FFF781BF00BF0421FFF77DBF00BF67
:104A20000521FFF779BF00BF4368D3E904020139CC
:104A30008A4215D900B583B0CDE9000100F0A0FA93
:104A4000DDE9000100F096FADDE9000100F0D4FA9A
:104A5000DDE9000100F0D8FA002003B05DF804FBA6
:104A60006FF01500704700BF426801EB41032DE96C
:104A7000F041DB0007469069183B00EB0308D2E9E0
:104A800004634D1EAB4282B02BD9284600F06CFA6D
:104A9000154B1A5C935923F00203935141F28A3467
:104AA00005E0013C09D00A2000210AF001F829465E
:104AB000304600F0B7FA0028F3D17B682946186920
:104AC000019000F05DFA0198294600F053FA019830
:104AD000294600F091FA002088F8060002B0BDE8EF
:104AE000F0816FF01500F9E7202001082DE9F04F63
:104AF000406899464369066983B04D1EAB420192F6
:104B00001ED9D0F818A005EB45074FEAC70B41F2B4
:104B10008A340AEBC70705E0013C56D00A20002181
:104B200009F0C6FF2946304600F07CFA804600288E
:104B3000F2D15AF80B20012A08D032F002032CD00F
:104B40006FF01508404603B0BDE8F08F284600F02E
:104B50000BFA214C019B225C32442846D36000F0C2
:104B600003FA225C32442846C2F808903A793AB3F4
:104B700000F0FAF9BA68205C0C9BB3FBF2F2304407
:104B80004168090C09040A4342602946304600F096
:104B90003BFA404603B0BDE8F08F284600F0E4F948
:104BA0000D4C019B225C32442846936000F0DCF9F6
:104BB000225C32442846C2F80C903A79002AD7D1B8
:104BC00000F0D2F9FA68205CD6E76FF00F08404693
:104BD00003B0BDE8F08F00BF202001082DE9F04FA1
:104BE00044688FB01746824603A8D4F818B02669E7
:104BF00001EB41084D1E04F0D9FD7B884FEAC8083F
:104C000003F4FE63A8F11808B3F5FE6F0BEB080977
:104C100000F088806369AB427ED999F8063041F292
:104C20008A343BB1A3E0013C00F0A1800A200021BE
:104C300009F03EFF2946304600F0F4F90028F2D191
:104C4000DAF80420019029461069009000F098F9E4
:104C50000098294600F08EF92946009800F0CCF91A
:104C60003969019B4A69B2F5803F55D2FC88B7F893
:104C700004C0644550D1042C02D0621E012A4BD8D6
:104C80000A7FC2F38010B0EBD21F45D13A88B869D1
:104C9000C9F81400C2F3C21278694FF0010E89F806
:104CA00006E04BF80820C9F81000D1E900E0012A1D
:104CB0000CBFCDE9030ECDE903E03868C0F38330C3
:104CC000C9E902C4032827D8DFE800F03A464A02BF
:104CD0004FF440500D90012A36D0022A44D0DAB960
:104CE0004FF4804205920A7FC2F3011EC2F3810A8B
:104CF000BEF1010F5FFA8EF03FD0022840D058B9C4
:104D000080200890BAF1010F5FFA8AF035D00228AE
:104D100000F09580002836D06FF0150318460FB0CC
:104D2000BDE8F08F0123B9697A6989F8063089F8FE
:104D3000053000231846C9E904210FB0BDE8F08F03
:104D40000020012A0D90C8D10A7F10200590C2F3DF
:104D5000810EC2F3011ACBE74FF480500D90BAE7F1
:104D60004FF400500D90B6E700220592BBE76FF0BC
:104D70000F0318460FB0BDE8F08F6FF08503CDE745
:104D800000200890BEE7402007905BF808004969C2
:104D9000DFF8B4E0009312F0400F14BF202200228D
:104DA0000692A0F10202B2FA82F2520989F80420B6
:104DB000BCF1000F9CFAACF2B2FA82F208BF4FF0DD
:104DC000FF32002C5EF82220099294FAA4F2DFF858
:104DD0007CE0B2FA82F208BF4FF0FF3202285EF8A0
:104DE00022200A923A7818BFB1FBF4F102F07F0258
:104DF000284608BFB1FBFCF10C920B9100F0B4F80F
:104E000003AA0146304604F093FC284600F0ACF8B3
:104E10000C4C3A69215C177F8A59009B42F00202D0
:104E200017F0400F8A513FF479AF284600F09CF804
:104E3000215C009B8A5942F004028A516EE70020EF
:104E40000790A2E7202001088C200108802001089B
:104E50000068C0F3400070470068C0F3401070471E
:104E60000068C0F3402070470068C0F340307047CE
:104E70000068C0F3404070470068C0F3405070477E
:104E80000068C0F3406070470068C0F3800070475E
:104E90000068C0F3801070470068C0F3802070473E
:104EA0000068C0F3803070470068C0F380407047EE
:104EB0000068C0F3805070470068C0F3806070479E
:104EC00002234360704700BF20234360704700BF48
:104ED0004FF40073436070474FF4005343607047D2
:104EE0004FF40033436070474FF400134360704742
:104EF0004FF000734360704704234360704700BF66
:104F000040234360704700BF4FF4806343607047A5
:104F10004FF48043436070474FF4802343607047F1
:104F20004FF48003436070474FF0806343607047E5
:104F300008234360704700BF80234360704700BF71
:104F40004FF40063436070474FF400434360704781
:104F50004FF40023436070474FF4000343607047F1
:104F60004FF0006343607047014B53F820007047D7
:104F70002C210108014B53F821301847102101085A
:104F8000014B53F821301847F4200108704700BF47
:104F900008B5094B094A53F82130D25C835813F005
:104FA000020307D0064B53F821309847003818BF4A
:104FB000012008BD184608BD2C21010898200108D1
:104FC000BC20010808B5094B094A53F82130D25CCE
:104FD000835813F0040307D0064B53F82130984749
:104FE000003818BF012008BD184608BD2C21010853
:104FF00098200108D8200108014B53F821301847A8
:10500000A020010800207047044B054A53F82130C6
:10501000D25C835843F00103835070472C21010870
:1050200098200108084B094A53F82130D35CC25834
:1050300022F00102C250C35813F0010F14BF6FF0E9
:105040000A000020704700BF2C21010898200108A9
:1050500043685B681B690B600020704743685B68AE
:1050600010B45C6962400A40624000205DF8044B65
:105070005A61704743685B6800209961704700BFC0
:1050800043685B6800209962704700BF43685A68B4
:105090005369594000205161704700BF70B40569E1
:1050A000AE68E6B13346002400E0034699420DD0D5
:1050B00018681C460028F8D16FF0150022B1E86886
:1050C0000E60A96098B1002070BC70470B68E8685A
:1050D00084B18142236008BFEC6000230B60002A8A
:1050E000F1D0E868AE680E60A9600028EBD1E960F5
:1050F00070BC70478142AB60EFD1EB60EDE700BF61
:105100002DE9F043B2F5005F4768006983B00C46B3
:1051100057D0B2F5804F7DD00246404920461D460B
:10512000FFF71AFA0646002871D13D4BD7F80880E0
:1051300093E803006F4687E80300DFF8EC904846E9
:1051400008F06AFB30B1D9F8083039461B68484688
:105150009847A0B1B5F5802F2FD0B5F5C02F2ED030
:10516000B5F5003F14BF002102212046FFF7BCF92E
:105170002046FFF799F9304603B0BDE8F08304F00C
:105180000302043293000F229A4042EA9402D3B2FF
:105190009B0003F1804303F58033110C91FAA1F1D8
:1051A000B1FA81F108FA01F8996821EA124248EA55
:1051B0000202B5F5802F9A60CFD10121D5E70321F6
:1051C000D3E701F0030304339A000F23934043EA2B
:1051D0009103DAB21349B868023251F82220190C4F
:1051E00002EA134391FAA1F2B2FA82F2D340984252
:1051F00001D00026BFE72046FFF768F92046FFF7F9
:10520000BFF900212046FFF76FF90026B3E76FF0E2
:105210000F06B0E76FF08506ADE700BFDD5300086D
:10522000381E010800000140F4180108F0B5446878
:10523000012066688840C2F3801526EA00068D408A
:1052400035436560A76890FAA0F602F0300CC2F30F
:10525000C11E3EB1B6FA86F67600032505FA06F6BB
:1052600027EA060790FAA0F5002D54D0B5FA85F587
:105270006D000EFA05F53D43A560E76890FAA0F6CB
:10528000C2F341223EB1B6FA86F67600032505FA4E
:1052900006F627EA060790FAA0F5D5B3B5FA85F524
:1052A0006D0002FA05F53D43BCF1200FE56018D012
:1052B00090FAA0F221684FEA1C133AB1B2FA82F2D6
:1052C0005200032505FA02F221EA020190FAA0F049
:1052D00018B3B0FA80F0400003FA00F008432060F1
:1052E000F0BD07291FDC90FAA0F2216A3AB1B2FAA8
:1052F00082F292000F2505FA02F221EA020190FAE9
:10530000A0F24AB3B2FA82F2920093400B432362B6
:10531000CEE74025C5E74025ABE7402003FA00F083
:1053200008432060F0BD020A656A92FAA2F139B121
:10533000B1FA81F189000F2606FA01F125EA01058B
:1053400092FAA2F232B1B2FA82F2920093402B4367
:105350006362ADE78022F9E78022D6E708B59305BE
:1053600011D593071FD4D3064FF0100C21D54CF460
:10537000007C1305406823D4520509D542680123F7
:105380008B40936204E0D305406807D44FF0300CA3
:1053900000236246FFF74AFF002008BDD30614D55C
:1053A0004FF4007CF4E7530715D5D3064FF0500CAB
:1053B000DDD49306DDD5130540684CF4806CDBD555
:1053C000426801238B409361E2E712F0200C18BF82
:1053D0004FF4806CDCE76FF0850008BD8B688BB103
:1053E00070B501224E681C6802FA00F59A682A40DE
:1053F0001946304601D05B68984714B123462468AB
:10540000F4E770BD704700BF38B503694468586061
:10541000084D284608F000FA40B1AB680C341B6810
:1054200021462846984700EAE07038BD6FF0120028
:1054300038BD00BFF418010808B54068FFF7F6FE54
:10544000002008BD4163704781637047C1637047A6
:1054500001647047836D8165704700BFC165704707
:105460004168036949681B68002001315060B3FB43
:10547000F1F31360704700BF2DE9F04101F1FF3CEB
:1054800088B0BCF1050F9DF838E0D0F8048000F238
:10549000AE809A4214461D46C0F0A980D8F800306C
:1054A000B3F1804F03D0B2F5803F00F2B4805E4A82
:1054B00052F82C70002C68D01A6A02EA070137EA09
:1054C00002020EF0010631D0684604F0C1F9760000
:1054D000D8F800000395012360256A463946CDE9D6
:1054E0000053049604F0BEF9002840F09180D8F8EB
:1054F00000301A68012F42F080021A6035D0042F64
:1055000033D0102F5ED0402F2FD0B7F5807F61D0E1
:10551000B7F5806F5ED0B7F5805F70D0B7F5803F8C
:105520000CBF08224FF400623C201FE001294FEA23
:10553000460E32D0042950D0102953D0402944D0EF
:10554000B1F5807F56D0B1F5806F5CD0B1F5805F4A
:1055500064D0B1F5803F07BF4FEA0E4E6FF40032C2
:105560004FEA0E5E6FF4001219E0082203F11805ED
:10557000013C295811432950DC625A6942F001026A
:1055800000205A6108B0BDE8F0811A6A204622EA7C
:1055900007021A6208B0BDE8F0816FF002021E6ACD
:1055A000164046EA0E061E621846204B294653F85E
:1055B0002C309847D8F80030013C0020DC6208B05D
:1055C000BDE8F0814FF40062D0E74FEA8E1E6FF025
:1055D0008002E4E708220420C8E74FEA8E0E6FF04D
:1055E0000802DCE74FEA0E1E6FF02002D7E76FF0EB
:1055F0001500C7E74FEA0E2E6FF40072CFE74FF4A5
:1056000000620420B2E74FEA8E2E6FF40062C6E714
:105610006FF00400B6E76FF08500B3E74FEA0E3E87
:105620006FF40052BBE700BF542201089C2201081E
:105630002DE9F0414568D0F8108086B02F4C204607
:1056400008F0EAF8002855D0A76805F108063B687D
:10565000314620469847002841DB204608F0DCF818
:10566000002847D0FB686FF05700002B37D0314639
:10567000204601AA9847002831DB019B2869C8F819
:10568000003001AA002103F0E9FF002827DB019B7D
:1056900000221979186804F003F800281FDB01A81C
:1056A00004F092F86A682868ADF80420002301A984
:1056B000CDE90233049304F091F8C0B92B68104A85
:1056C00093420FD002F5A05293420BD002F58062B4
:1056D000934207D01A6842F0010200201A6006B017
:1056E000BDE8F0815A6C42F400425A64F2E76FF070
:1056F0000400F4E76FF01200F1E700BFF4180108AE
:10570000002C01403BB1CB6F43F00103CB6701F1AB
:10571000640008F035BCD1F8D03093420DD0D1F8F8
:1057200084309342CB6F0CBF43F0020343F001037C
:10573000CB6701F1640008F023BCCB6F43F0040396
:10574000CB6701F1640008F01BBC00BF2DE9F041FC
:10575000514D0F46164680460FCD8AB002AC0FC49D
:1057600095E80F0084E80F003B68B34200F08980A1
:10577000B388C3F34512082A02D0102A40F088806B
:10578000D8F8084013F4004F636814BF43F01003C7
:1057900023F010036360414D284608F03DF80028CF
:1057A00073D0AB68DB68002B6FD04146284601AA56
:1057B0009847002869DB01983168012320FA03F239
:1057C0008A4207D90133092BF8D16FF015000AB0CE
:1057D000BDE8F08122680AA922F04002226001EBB4
:1057E0008303226853F8243C22F038021A43B3881A
:1057F00022609A0740D4226822F0020222602268C6
:105800005D074CBF42F0010222F0010222602268D3
:1058100022F4444222602268D8064CBF42F0800243
:1058200022F080022260226822F400522260226864
:1058300042F400722260626822F004026260226810
:10584000D9074CBF22F4827242F482722260C3F301
:105850004513082B636806BF23F4706343F4E063C9
:1058600043F4706363606368002043F480536360B3
:105870003E600AB0BDE8F081226842F00202226078
:10588000BDE700200AB0BDE8F0816FF004009EE79C
:105890006FF085009BE700BF401E0108F418010867
:1058A00010B504692368A3B19B6893B11A6882B1EB
:1058B000986809F079FB23689B6818681B790121B7
:1058C000994003691B68194283680CBF1B69DB6838
:1058D0009847A3690BB1002010BD636004F110006C
:1058E00008F04EFB002010BD30B50B68846883B013
:1058F000E3B19A68D2B11068C0B19B88D80415D4BE
:1059000090680D4609F050FB2B689B6818681B795E
:105910000121994003691B68194283680CBF1B6908
:10592000DB689847A368D90703D5E368A368D9075C
:10593000FBD4236803F48273B3F5827F0FD0A3688E
:105940009B0606D5A3680193019B236823F04003BF
:105950002360236823F04003236003B030BDA368B5
:105960001A06ECD5A3681A06F9D4E8E72DE9F04F3A
:1059700006691F4643689D68D6F8CC3085B08046DE
:105980000C46914623B1D6F88030002B40F0DA80E7
:10599000B9F1000F00F04D82A388990404D5B369D2
:1059A00013B973689C4208D04FF0FF3206F1100023
:1059B0004FF0FF3308F00EFB74602246D8F8101049
:1059C000D8F80400FFF7C2FE044648B133689B884C
:1059D00013F4005300F0AD80204605B0BDE8F08F11
:1059E000B9F1000F00F09883D9F800207264002A02
:1059F00000F02284D9F80430B36433B98EE308325E
:105A0000C6E91123002B00F089835168013B00296E
:105A1000F5D01368B1657365002F00F078833B689B
:105A2000F364002B00F006847968316531B970E3C6
:105A30000833C6E91331002900F06B835A68013935
:105A4000002AF5D01B683266F36500233364AB6827
:105A5000DA0703D5EB68AB68DB07FBD42B68D8F813
:105A6000107043F040032B603B689BB19B688BB187
:105A7000186878B11A79036901211B6891401942AD
:105A8000836814BF1B69DB6898473B689B6898680C
:105A900009F08AFA002130688388DF0740F1CE815F
:105AA000AA68900740F14482B26D002A00F040825B
:105AB000C3F34513082B706D00F033830388AB816B
:105AC000013AB265002A00F0628302307065AB686B
