:020000040800F2
:10000000403E0020FD330008CD2F0008D13300080A
:10001000D1330008D1330008D133000800000000BC
:10002000000000000000000000000000B9300008DF
:10003000D13300080000000065300008358C00084E
:100040006D3100086D3100086D3100086D31000818
:100050006D3100086D3100086D3100086D31000808
:100060006D3100086D3100086D3100086D310008F8
:100070006D3100086D3100086D3100086D310008E8
:100080006D3100086D3100086D3100086D310008D8
:100090006D3100086D3100086D3100086D310008C8
:1000A0006D3100086D3100086D3100086D310008B8
:1000B0006D3100086D3100086D3100086D310008A8
:1000C0006D3100086D3100086D3100086D31000898
:1000D0006D3100086D3100086D3100086D31000888
:1000E0006D3100086D3100086D3100086D31000878
:1000F0006D3100086D3100086D3100086D31000868
:100100006D3100086D3100086D3100086D31000857
:100110006D3100086D3100086D3100086D31000847
:100120006D3100086D3100086D3100086D31000837
:100130006D3100086D3100086D3100086D31000827
:100140006D3100086D3100086D3100086D31000817
:100150006D3100086D3100086D3100086D31000807
:100160006D3100086D3100086D3100086D310008F7
:100170006D3100086D3100086D3100086D310008E7
:100180006D3100086D3100086D3100086D310008D7
:040190006D310008C5
:0C019400FFFFFFFFFFFFFFFFFFFFFFFF6B
:1001A00001F0FF01102A2BDB10F0070F08D010F828
:1001B000013B013A8B422DD010F0070F42B3F6D12C
:1001C000F0B441EA012141EA014122F007047FF045
:1001D00000070023F0E80256083C85EA010586EA9C
:1001E000010685FA47F5A3FA87F586FA47F6A5FAD8
:1001F00087F68EB9EED1F0BC01F0FF0102F00702E4
:1002000032B110F8013B013A83EA010313B1F8D18E
:100210000020704701387047002D06BF354603386F
:10022000073815F0010F07D1013015F4807F02BFA8
:10023000013015F4C03F0130F0BC0138704700BFF9
:1002400081F0004102E000BF83F0004330B54FEA87
:1002500041044FEA430594EA050F08BF90EA020FF4
:100260001FBF54EA000C55EA020C7FEA645C7FEA87
:10027000655C00F0E2804FEA5454D4EB5555B8BFAA
:100280006D420CDD2C4480EA020281EA030382EA1B
:10029000000083EA010180EA020281EA0303362DAD
:1002A00088BF30BD11F0004F4FEA01314FF4801C80
:1002B0004CEA113102D0404261EB410113F0004F92
:1002C0004FEA03334CEA133302D0524263EB430349
:1002D00094EA050F00F0A780A4F10104D5F1200EE7
:1002E0000DDB02FA0EFC22FA05F2801841F1000142
:1002F00003FA0EF2801843FA05F359410EE0A5F116
:1003000020050EF1200E012A03FA0EFC28BF4CF046
:10031000020C43FA05F3C01851EBE37101F00045FC
:1003200007D54FF0000EDCF1000C7EEB00006EEB09
:100330000101B1F5801F1BD3B1F5001F0CD3490893
:100340005FEA30004FEA3C0C04F101044FEA4452EA
:1003500012F5800F80F09A80BCF1004F08BF5FEA71
:10036000500C50F1000041EB045141EA050130BD51
:100370005FEA4C0C404141EB0101013C28BFB1F563
:10038000801FE9D291F0000F04BF01460020B1FAAE
:1003900081F308BF2033A3F10B03B3F120020CDA81
:1003A0000C3208DD02F1140CC2F10C0201FA0CF05F
:1003B00021FA02F10CE002F11402D8BFC2F1200CC4
:1003C00001FA02F120FA0CFCDCBF41EA0C0190407A
:1003D000E41AA2BF01EB0451294330BD6FEA0404C3
:1003E0001F3C1CDA0C340EDC04F11404C4F12002AE
:1003F00020FA04F001FA02F340EA030021FA04F3C0
:1004000045EA030130BDC4F10C04C4F1200220FA16
:1004100002F001FA04F340EA0300294630BD21FA54
:1004200004F0294630BD94F0000F83F4801306BF1A
:1004300081F480110134013D4EE77FEA645C18BF0E
:100440007FEA655C29D094EA050F08BF90EA020FA5
:1004500005D054EA000C04BF1946104630BD91EA9D
:10046000030F1EBF0021002030BD5FEA545C05D1A0
:100470004000494128BF41F0004130BD14F58004DF
:100480003CBF01F5801130BD01F0004545F0FE4153
:1004900041F470014FF0000030BD7FEA645C1ABF88
:1004A000194610467FEA655C1CBF0B46024650EABF
:1004B000013406BF52EA033591EA030F41F40021EB
:1004C00030BD00BF90F0000F04BF0021704730B571
:1004D0004FF4806404F132044FF000054FF0000146
:1004E00050E700BF90F0000F04BF0021704730B507
:1004F0004FF4806404F1320410F0004548BF4042DC
:100500004FF000013EE700BF42004FEAE2014FEA30
:1005100031014FEA02701FBF12F07F4393F07F4F0B
:1005200081F06051704732F07F4208BF704793F00E
:100530007F4F04BF41F40021704730B54FF4607421
:1005400001F0004521F000411CE700BF50EA010224
:1005500008BF704730B54FF000050AE050EA0102CD
:1005600008BF704730B511F0004502D5404261EB3D
:1005700041014FF4806404F132045FEA915C3FF47E
:10058000D8AE4FF003025FEADC0C18BF03325FEA1B
:10059000DC0C18BF033202EBDC02C2F1200300FACC
:1005A00003FC20FA02F001FA03FE40EA0E0021FAF1
:1005B00002F11444BDE600BF70B54FF0FF0C4CF4DF
:1005C000E06C1CEA11541DBF1CEA135594EA0C0F91
:1005D00095EA0C0F00F0DEF82C4481EA030621EACC
:1005E0004C5123EA4C5350EA013518BF52EA033507
:1005F00041F4801143F4801338D0A0FB02CE4FF0B9
:100600000005E1FB02E506F00042E0FB03E54FF0E8
:100610000006E1FB03569CF0000F18BF4EF0010EE0
:10062000A4F1FF04B6F5007F64F5407404D25FEADC
:100630004E0E6D4146EB060642EAC62141EA55518F
:100640004FEAC52040EA5E504FEACE2EB4F1FD0CD1
:1006500088BFBCF5E06F1ED8BEF1004F08BF5FEA4F
:10066000500E50F1000041EB045170BD06F0004601
:1006700046EA010140EA020081EA0301B4EB5C04AE
:10068000C2BFD4EB0C0541EA045170BD41F48011A6
:100690004FF0000E013C00F3AB8014F1360FDEBFCB
:1006A000002001F0004170BDC4F10004203C35DAA7
:1006B0000C341BDC04F11404C4F1200500FA05F32A
:1006C00020FA04F001FA05F240EA020001F00042CB
:1006D00021F0004110EBD37021FA04F642EB060141
:1006E0005EEA430E08BF20EAD37070BDC4F10C046B
:1006F000C4F1200500FA04F320FA05F001FA04F22F
:1007000040EA020001F0004110EBD37041F100011A
:100710005EEA430E08BF20EAD37070BDC4F1200525
:1007200000FA05F24EEA020E20FA04F301FA05F28D
:1007300043EA020321FA04F001F0004121FA04F235
:1007400020EA020000EBD3705EEA430E08BF20EA05
:10075000D37070BD94F0000F0FD101F0004640003F
:1007600041EB010111F4801F08BF013CF7D041EAC1
:10077000060195F0000F18BF704703F000465200C5
:1007800043EB030313F4801F08BF013DF7D043EA96
:100790000603704794EA0C0F0CEA135518BF95EA4C
:1007A0000C0F0CD050EA410618BF52EA4306D1D1D3
:1007B00081EA030101F000414FF0000070BD50EAF2
:1007C000410606BF1046194652EA430619D094EA7C
:1007D0000C0F02D150EA013613D195EA0C0F05D166
:1007E00052EA03361CBF104619460AD181EA0301BA
:1007F00001F0004141F0FE4141F470014FF0000072
:1008000070BD41F0FE4141F4780170BD70B54FF00C
:10081000FF0C4CF4E06C1CEA11541DBF1CEA13558C
:1008200094EA0C0F95EA0C0F00F0A7F8A4EB05046E
:1008300081EA030E52EA03354FEA013100F0888065
:100840004FEA03334FF0805545EA131343EA12632E
:100850004FEA022245EA111545EA10654FEA0026E3
:100860000EF000419D4208BF964244F1FD0404F59C
:10087000407402D25B084FEA3202B61A65EB0305F8
:100880005B084FEA32024FF480104FF4002CB6EBB5
:10089000020E75EB030E22BFB61A754640EA0C0035
:1008A0005B084FEA3202B6EB020E75EB030E22BF75
:1008B000B61A754640EA5C005B084FEA3202B6EBB6
:1008C000020E75EB030E22BFB61A754640EA9C0075
:1008D0005B084FEA3202B6EB020E75EB030E22BF45
:1008E000B61A754640EADC0055EA060E18D04FEA03
:1008F000051545EA16754FEA06164FEAC30343EAA3
:1009000052734FEAC2025FEA1C1CC0D111F4801F6F
:100910000BD141EA00014FF000004FF0004CB6E768
:1009200011F4801F04BF01430020B4F1FD0C88BF07
:10093000BCF5E06F3FF6AFAEB5EB030C04BFB6EB12
:10094000020C5FEA500C50F1000041EB045170BD05
:100950000EF0004E4EEA113114EB5C04C2BFD4EB32
:100960000C0541EA045170BD41F480114FF0000EB6
:10097000013C90E645EA060E8DE60CEA135594EA32
:100980000C0F08BF95EA0C0F3FF43BAF94EA0C0F35
:100990000AD150EA01347FF434AF95EA0C0F7FF4AA
:1009A00025AF104619462CE795EA0C0F06D152EAFE
:1009B00003353FF4FDAE1046194622E750EA4106E2
:1009C00018BF52EA43067FF4C5AE50EA41047FF4F3
:1009D0000DAF52EA43057FF4EBAE12E74FF0FF3C58
:1009E00006E000BF4FF0010C02E000BF4FF0010C29
:1009F0004DF804CD4FEA410C7FEA6C5C4FEA430CA2
:100A000018BF7FEA6C5C1BD001B050EA410C0CBFF0
:100A100052EA430C91EA030F02BF90EA020F002052
:100A2000704710F1000F91EA030F58BF994208BFB9
:100A300090422CBFD8176FEAE37040F00100704776
:100A40004FEA410C7FEA6C5C02D150EA013C07D1CD
:100A50004FEA430C7FEA6C5CD6D152EA033CD3D018
:100A60005DF8040B704700BF8446104662468C4612
:100A70001946634600E000BF01B5FFF7B7FF002845
:100A800048BF10F1000F01BD4DF808EDFFF7F4FF6E
:100A90000CBF012000205DF808FB00BF4DF808EDF9
:100AA000FFF7EAFF34BF012000205DF808FB00BF1C
:100AB0004DF808EDFFF7E0FF94BF012000205DF83E
:100AC00008FB00BF4DF808EDFFF7CEFF94BF0120F3
:100AD00000205DF808FB00BF4DF808EDFFF7C4FFEC
:100AE00034BF012000205DF808FB00BF4FEA41023F
:100AF00012F5001215D211D56FF47873B3EB625270
:100B000012D94FEAC12343F0004343EA505311F096
:100B1000004F23FA02F018BF404270474FF0000028
:100B2000704750EA013005D111F0004008BF6FF066
:100B3000004070474FF00000704700BF4A0011D2DC
:100B400012F5001211D20DD56FF47873B3EB625227
:100B50000ED44FEAC12343F0004343EA505323FA33
:100B600002F070474FF00000704750EA013002D1A8
:100B70004FF0FF3070474FF00000704753B94AB94B
:100B8000002908BF00281CBF4FF0FF314FF0FF3095
:100B900000F02AB8ADF1080C6DE904CE00F055F86C
:100BA000DDF804E0DDE9022304B07047D0B50C4B5A
:100BB000002206460F46FFF7FFFCFFF7BFFF044683
:100BC000FFF780FC074B0022FFF7F6FC02460B46BE
:100BD00030463946FFF738FBFFF7B0FF2146D0BD5E
:100BE0000000F03D0000F041704700BF4FEA410CAB
:100BF0007FEA6C5C02D150EA013C0AD14FEA430C17
:100C00007FEA6C5C02D152EA033C02D14FF0000053
:100C100070474FF00100704738B505460C4600227A
:100C2000002328462146FFF739FF28B928462146E8
:100C3000BDE83840FFF7BABF284604F10041FFF78E
:100C4000B5FF404261EB410138BD2DE9F04F074649
:100C50008C460846099E15463C461946002B40F036
:100C6000C6808242B2FA82F746D94FB1C7F1200E50
:100C700024FA0EFE00FA07F3BD404EEA030CBC4016
:100C80004FEA15481FFA85FEBCFBF8F9220C08FB59
:100C900019C309FB0EFA42EA03439A4528D9EB1817
:100CA00009F1FF3004D29A4502D9A9F102002B4480
:100CB000A3EB0A03A4B2B3FBF8F208FB123302FB66
:100CC0000EFE44EA0344A64514D92C1902F1FF3361
:100CD00003D2A64501D9931E2C44A4EB0E0443EA8B
:100CE00000401EB1FC40002334607360BDE8F08F0B
:100CF0004846DDE71346F0E702B9FFDE87BB831AFB
:100D000001214FEA154EAAB2B3FBFEFC200C0EFBEC
:100D10001C330CFB02F840EA0343984563D9EB18F7
:100D20000CF1FF3004D2984502D9ACF102002B44FB
:100D3000A3EB0803A4B2B3FBFEFC0EFB1C330CFBBD
:100D400002F244EA0344A2424FD92C190CF1FF33BA
:100D500004D2A24202D9ACF102032C44A41ABEE789
:100D6000C7F1200C20FA0CF800FA07F324FA0CFC67
:100D7000BD404CEA03024FEA154EABB2B8FBFEFC95
:100D8000110C0EFB1C800CFB03F941EA004081456D
:100D900004FA07F423D928180CF1FF3104D2814555
:100DA00002D9ACF102012844A0EB090092B2B0FBD9
:100DB000FEFC0EFB1C000CFB03F842EA00439845C6
:100DC0000FD9EB180CF1FF3204D2984502D9ACF1DF
:100DD00002022B44A3EB080342EA014191E761467A
:100DE000E2E76246F6E76046A2E76346B6E783427B
:100DF00005D90EB1C6E900700021084676E7B3FABE
:100E000083F181B9834201D3BA420AD8BC1A60EB9C
:100E1000030301209C46002E68D0C6E9004C002147
:100E200064E70846F7E7C1F1200C8B4022FA0CF486
:100E30001C4302FA01F500FA01F327FA0CF220FA3A
:100E40000CFB4FEA14491343BBFBF9F81FFA84FE6D
:100E500009FB18BB1A0C08FB0EFA42EA0B4292453A
:100E600007FA01F73ED9A21808F1FF3004D29245E3
:100E700002D9A8F102002244A2EB0A029BB2B2FB03
:100E8000F9F809FB182208FB0EFE43EA02429645D8
:100E90002AD9A21808F1FF3304D2964502D9A8F145
:100EA0000203224443EA0040A0FB0593A2EB0E029A
:100EB0009A42CE46984602D306D14F4504D2B9EBAA
:100EC000050E63EB0408013886B1B7EB0E0362EB45
:100ED000080707FA0CFCCB404CEA0303CF40C6E9F5
:100EE00000379CE74046C7E74346DBE73146FDE66F
:100EF00010F8012B11F8013B012A28BF9A42F7D0C4
:100F0000D01A7047034613F8012B002AFBD1181A98
:100F10000138704700000000F0B544680669206899
:100F200083B00CF011F900283DD0217E79B1E2693F
:100F30000139531E52FA81F101E08B4207D013F8B8
:100F4000012F032AF9D96FF0150003B0F0BDD4E9E1
:100F5000000183686A465B689847A38C009D019FE7
:100F6000A3FB050103FB071111A3D3E90023FFF73E
:100F700005FE218C3060A1FB050C0DA3D3E90023F5
:100F800001FB07C1FFF7FAFD638C7060A3FB05014D
:100F900003FB071106A3D3E90023FFF7EFFDB060C1
:100FA000002003B0F0BD6FF01200FAE7AFF300804D
:100FB00000CA9A3B000000002DE9F04F8668074602
:100FC000406883B0301A1D4690468946FFF77AFA8A
:100FD0000246A5EB080014460D46FFF773FA0246D9
:100FE000F868801B0F461646FFF76CFA02460B4660
:100FF000A8EB0900CDE90023FFF764FA32468246E8
:101000008B463B4620462946FFF7D6FA5246804695
:1010100089465B46DDE90001FFF7CEFA02460B4642
:1010200040464946FFF710F93246804689463B461E
:1010300020462946FFF70AF9DDE90023FFF706F904
:1010400052465B46FFF702F902460B4640464946C8
:10105000FFF7DCFBFFF7E0FDFFF780FA08A3D3E919
:101060000023FFF7A9FA08A3D3E90023FFF7A4FAA6
:1010700003B0BDE8F04F0FF051BE00BFAFF30080EA
:10108000FA48CE3B1835B13D0000001319DDB141DF
:101090002DE9F04F446A99B016461F46CDE9046722
:1010A000DDF89480054674B910200EF0F5F902467B
:1010B000686220B9A84BEA21A8480EF0BDF9C0E942
:1010C00001440460C4606B6A196851B15A684A608F
:1010D000012393408B6028460FF00AFA6B6A0022C6
:1010E0001A603B1EB9BF23F0004305930023C8F8E4
:1010F0000030DDF814909A4BBCBF0122C8F80020E4
:1011000033EA090319D1249A42F20F731360C9F329
:101110001303334300F08085269B53B9914B22E0A3
:10112000914B03930833269A1360039819B0BDE8D6
:10113000F08F8C4B03930333F5E7DDE90434CDE9FD
:101140000C34DDE90C0100220023FFF79DFC8046F2
:1011500058B1249A01231360269B002B00F0598577
:1011600082481860431E0393DFE716AB019317AB69
:1011700000932846DDE90C230FF032FCC9F30A5432
:101180008346002C7ED00D9BCDF84C80C3F3130317
:10119000DDE90C0143F07F5141F44011A4F2FF342A
:1011A000734B0022FFF750F865A3D3E90023FFF744
:1011B00003FA65A3D3E90023FFF748F80646204663
:1011C0000F46FFF78FF962A3D3E90023FFF7F4F985
:1011D00002460B4630463946FFF738F806460F46BA
:1011E000FFF784FC00228246002330463946FFF791
:1011F00055FC48B15046FFF775F932463B46FFF7BC
:1012000043FC08B90AF1FF3ABAF1160F57D8594B07
:1012100003EBCA03D3E90023DDE90C01FFF73EFC31
:1012200000284ED00AF1FF3A00230F93169B1C1B97
:10123000631E099345BFC4F10103069300230023F5
:101240004CBF09930693BAF1000F3CDB099BCDF824
:1012500038A05344099300230A93229B092B00F2E0
:101260008D80052BC4BF043B2293229BA3F1020374
:10127000CCBF00240124032B00F28C80DFE803F0B4
:101280002D4F4D5BDDE916431C4404F23243202B05
:10129000C3BFC3F1400304F2124009FA03F3C3F1E0
:1012A0002003C6BF26FA00F0184306FA03F0FFF742
:1012B00009F90123A1F1F871013C139370E70123AF
:1012C000B3E70F90B2E7069BA3EB0A030693CAF1BC
:1012D00000030A9300230E93BFE700230B93239B85
:1012E000002B5ADC4FF00109CDF820904B46CDF889
:1012F0008C90686A00224260042202F114069E4229
:10130000416850D928460FF0B3F8039000284ED119
:10131000194B02464FF4D571CEE60123DEE70023D8
:101320000B93239B0AEB030909F10103012B08939B
:10133000B8BF0123DDE70123F2E700BFAFF3008070
:1013400061436F63A787D23FB3C8608B288AC63FCB
:10135000FB799F501344D33F6B2A0108822A01086E
:101360000000F07F672A01085E2A01083B2A010875
:101370000000F83F001A0108DC2A010801240023BC
:1013800022930B944FF0FF390022CDF820901223C6
:101390002392AEE701230B93F4E7DDF88C90CDF8B0
:1013A00020904B46A5E7013141605200A5E76B6AEA
:1013B000039A1A60089B0E2B00F2A880002C00F004
:1013C000A580BAF1000F34DD9A4A0AF00F0302EB50
:1013D000C303D3E900341AF4807FCDE910344FEA17
:1013E0002A1416D0944BDDE90C01D3E90823FFF74A
:1013F0000DFACDE9040104F00F0403278E4E54B911
:10140000DDE91023DDE90401FFF700FACDE904016D
:1014100029E00227F2E7E10708D5DDE91001D6E966
:101420000023FFF7C9F8CDE9100101376410083631
:10143000E5E700F0A580CAF100047E4B7E4E04F083
:101440000F0203EBC203D3E90023DDE90C01FFF730
:10145000B3F8CDE90401241100230227002C40F049
:101460008480002BD2D10F9B002B00F08B80DDE914
:101470000434CDE91034DDE91001704B0022FFF790
:101480000DFB00287ED0089B002B7BD0B9F1000F0C
:1014900038DDDDE910016A4B0022FFF78DF8CDE958
:1014A00004010AF1FF3801374C463846FFF71AF8B5
:1014B000DDE90423FFF780F8624B0022FEF7C6FE49
:1014C000A1F15076CDE910011196002C5DD1DDE936
:1014D00004015D4B0022FEF7B7FE02460B46CDE944
:1014E0000423109A3346FFF7F7FA002840F09C8255
:1014F000DDE90401109A06F10043FFF7CFFA002856
:1015000040F09082DDE90C34CDE90434179B002BC8
:10151000C0F25281BAF10E0F00F34E81454B03EB3E
:10152000CA03D3E90034CDE90634239B002B80F2B3
:10153000DB80089B002B00F3D78040F07282424B87
:101540000022DDE90601FFF737F8DDE90423FFF7A4
:10155000B9FA089C2646002840F04882039F3123B0
:1015600007F8013B0AF1010A44E2E20705D5D6E992
:101570000023FFF721F801370123641008366DE7D7
:10158000022770E7089CD0468FE70399294B214436
:1015900012910B9903EBC403DDE9106753E90223B1
:1015A000002955D029490020FFF730F93B46324643
:1015B000FEF74AFECDE91001039FDDE90401FFF7C4
:1015C00095FA0446FEF78EFF02460B46DDE904015C
:1015D000FEF73AFE303402460B46CDE9042307F805
:1015E000014BDDE91023FFF759FA002874D1DDE93A
:1015F000042312490020FEF727FEDDE91023FFF740
:101600004DFA002840F0B780129B9F423FF47AAF1A
:10161000DDE910010A4B0022FEF7CEFF084BCDE9B1
:1016200010010022DDE90401FEF7C6FFCDE9040147
:10163000C3E700BF001A0108D81901080000F03FF5
:101640000000244000001C40000014400000E03F67
:1016500030463946FEF7B0FFCDE91001129B039CDE
:101660001493DDE90401FFF741FA1590FEF73AFF04
:1016700002460B46DDE90401FEF7E6FD159B30331B
:1016800004F8013B129B9C4206460F464FF00002B5
:1016900024D1A44BDDE91001FEF7D8FD02460B462C
:1016A00030463946FFF718FA002863D1DDE91023E8
:1016B0009C490020FEF7C8FD02460B4630463946DD
:1016C000FFF7ECF900283FF41DAF149F7B1E149325
:1016D00017F8013C302BF8D0C2463BE0924BFEF7A6
:1016E0006BFFCDE90401BCE7DDE90489039FDDE977
:1016F000062340464946FFF789F8FFF7F7F9044605
:10170000FEF7F0FEDDE90623FEF756FF04F1300692
:1017100002460B4640464946FEF796FD07F8016B28
:10172000039EDDF820C0BE1BB44502460B4636D1F1
:10173000FEF78CFDDDE9062380468946FFF7CCF9EC
:1017400058BBDDE9062340464946FFF79DF908B13D
:10175000E10722D4284659460EF0CAFE00233B700A
:10176000249B0AF101001860269B002B3FF4DDAC9E
:101770001F60DAE427463B461F4613F8012D392A3D
:1017800007D1039A9A42F7D10399302208F1010850
:101790000A701A7801321A709EE7D046EBE7624B66
:1017A0000022FEF709FF0022002380468946FFF74A
:1017B0006BF900289BD0CDE70B9A002A00F0D0806F
:1017C000229A012A00F3B280139A002A00F0A68020
:1017D00003F233430A9C069F069A1A440692099A1A
:1017E00001211A44284609920EF0EAFE0646002F0F
:1017F0000CDD099B002B09DDBB42069AA8BF3B46C6
:10180000D21A0692099AFF1AD31A09930A9BF3B1C6
:101810000B9B002B00F0A880002C10DD31462246E7
:1018200028460EF08BFF5A460146064628460EF023
:10183000DDFE5946804628460EF05AFEC3460A9BF6
:101840001A1B04D0594628460EF078FF8346012122
:1018500028460EF0B5FE0E9B002B044640F3868012
:101860001A46014628460EF069FF229B012B0446CA
:101870007FDD4FF00008236904EB830318690FF044
:10188000B6FCC0F12000099B184410F01F0000F0C6
:101890009280C0F12003042B40F38A80C0F11C0029
:1018A000069B03440693099B034407440993069B44
:1018B000002B05DD59461A4628460EF099FF83464F
:1018C000099B002B05DD21461A4628460EF090FFA5
:1018D00004460F9B002B70D0214658460FF0D4FCD5
:1018E00000286ADA002359460A2228460EF022FE12
:1018F0000B9B0AF1FF3A8346002B00F0948131469E
:1019000000230A2228460EF015FEB9F1000F064604
:1019100000F39380229B022B57DC8EE0169BC3F1D1
:10192000360357E70000E03F00002440089B5C1EA0
:101930000A9BA342BFBF0A9B0A94E21A0E9BB6BF42
:101940009B181C1B0E93089BB8BF0024002BB9BF2B
:10195000069B089A069F089BBCBF9F1A00233BE783
:101960000A9C069F0B9E42E70A9A6BE7229B012B7B
:1019700019DC049BBBB9059BC3F313039BB9059BFF
:1019800023F000431B0D1B0583B1069B0133069317
:10199000099B013309934FF001080E9B002B7FF444
:1019A0006AAF01206FE74FF00008F6E79846F4E7CA
:1019B0003FF47DAF18461C3072E7089B002B36DCE5
:1019C000229B022B33DDDDF82090B9F1000F0DD101
:1019D00021464B46052228460EF0ACFD0146044642
:1019E00058460FF051FC00283FF7B8AD239B039FEA
:1019F0006FEA030A4FF00008214628460EF078FDF2
:101A0000002E3FF4A7AEB8F1000F05D0B04503D0CB
:101A1000414628460EF06CFD314628460EF068FD22
:101A200098E600242646E1E7C246264696E50B9B4B
:101A3000DDF82090002B00F0FD80002F05DD314601
:101A40003A4628460EF0D4FE0646B8F1000F5CD0A8
:101A5000716828460EF00CFD074628B9804B0246F7
:101A600040F2EA21FFF728BB32690232920006F108
:101A70000C010C300FF05CF90122394628460EF0BB
:101A8000B7FE039B01330893039B4B440A93049BCB
:101A900003F00103B04609930646089B2146013B2B
:101AA000584604930FF0C2FA03463033069041467D
:101AB00058460B930FF0E8FB3246814621462846F4
:101AC0000EF006FFC2680B9B074602BB0146584654
:101AD0000FF0DAFB0B9B024639462846CDE90B3264
:101AE0000EF006FD229B0C9A089F43EA0201099B17
:101AF0000B430B9B0DD1392B29D0B9F1000F01DD20
:101B0000069B3133049A137076E73046B9E7012219
:101B1000E2E7B9F1000F06DB229941EA09090999C8
:101B200059EA010120D1002AECDD5946012228465C
:101B300008930EF05DFE214683460FF0A5FB0028BA
:101B4000089B02DCDED1DA07DCD5392BD8D1049A28
:101B5000392313703B461F46013B17F8012C392AE5
:101B600050D001321A7047E7002A03DD392BEED03E
:101B70000133C7E7089A0A9902F8013C8A422AD041
:101B8000594600230A2228460EF0D4FCB04583466D
:101B90004FF000034FF00A024146284607D10EF0ED
:101BA000C9FC80460646089B0133089375E70EF092
:101BB000C1FC3146804600230A2228460EF0BAFCBA
:101BC0000646F0E7B9F1000F039ACCBF4F46012754
:101BD00017444FF0000859460122284608930EF09A
:101BE00007FE214683460FF04FFB0028B2DC02D1EE
:101BF000089BDB07AED43B461F4613F8012D302A65
:101C0000FAD0F9E6039A9A42A5D10AF1010A3123E2
:101C100079E7144BFFF7A7BA269B002B7FF480AA25
:101C2000114BFFF7A0BAB9F1000F03DC229B022B86
:101C30003FF7CBAE039F214658460FF0F7F900F16E
:101C4000300307F8013B039ABA1A9145BADD5946A9
:101C500000230A2228460EF06DFC8346EBE700BF06
:101C6000DC2A01083A2A01085E2A0108704700BFF1
:101C70002DE9F04F85B00023234C01908DF80F30F3
:101C800003E00A2000210CF0BFFC002200232046C4
:101C90000BF030FD0028F4D11C4D9DF80FA01C4E18
:101CA000DFF87090044605F1080B4FF0000815F8B6
:101CB000017F42464B4667B1D6E90001FEF7F8FEC8
:101CC00038B10AF1010A4FF000032B705FFA8AFA6B
:101CD0003C465D4506F10806E9D10CB18DF80FA030
:101CE00009480BF08BFD00220DF10F0100230A487B
:101CF0000BF01AFC019842F2107200230CF036F837
:101D000005B0BDE8F08F00BFB00700202F0D002008
:101D10003009002000001440C40700202DE980484D
:101D2000A5B000210923302218A8CDE910110B938A
:101D300012915E4C0FF00AF803E00A2000210CF02B
:101D400063FC20460BF000FA0028F6D018A858498A
:101D50000BF0D2FF574B584A5849002007F0CEFFEE
:101D60005748012108F0BEF90CF0B0FB42F21072A6
:101D7000002318A80BF0CCFF0BA80AF0D1FF002716
:101D8000504CDFF844B1DFF844A1514DDFF84481F5
:101D90003E4600220023012120460DF0F7F920B134
:101DA00000210A200CF030FCF3E7E36803F4FC2385
:101DB000B3F5005FEDD123699860E36860F35233B7
:101DC000E3600A22002310A928460BF009FC814693
:101DD00030B92369DB68022B06D0033B012BD8D82E
:101DE0000BA80AF09DFFD4E7BFF35B8F0B9BBFF3FB
:101DF0005B8F092B35D0BFF35B8F0B9BBFF35B8FE2
:101E0000082BC6D1BDF84420142113A80AF07CFF8A
:101E10000028E5D009F048FACDE9080109F05AFA9E
:101E20008146079103E00A2000210CF0EDFB00221F
:101E3000002340460BF05EFC0028F4D1079B03937F
:101E4000089B0093099B0193CDE904ABCDF8089062
:101E50003A46334613A80AF0C1FF40460BF0CEFCC9
:101E6000BEE7BDF8442006210CA80AF04DFF00286B
:101E7000B6D009F02FFA0BAB01930EAB00939DF88F
:101E80003130ADF83C9001338DF83930BDF8323047
:101E90005BBAADF83A30082307468DF83830024671
:101EA0000B460CA80E460AF05FFF72E7D01501083A
:101EB000711C000885CC0008DDCC0008B1CC0008FE
:101EC00000D0232424040020300D002030090020FD
:101ED000F8070020B007002010B50021044605488F
:101EE0000AF04EFC2046044ABDE8104000230BF0E7
:101EF0003DBF00BF00000020A855020010B5837848
:101F000082B0012B01920C4626D01CD828490191A1
:101F10004FF0FF334FF0FF3201A80AF04DF90220D5
:101F20000AF050FCBFF35B8F224B012153E8002FD6
:101F300043E800100028F9D1BFF35B8F20460AF078
:101F40001FFC02B010BD033B012BFAD80021204634
:101F50000AF016FC02B010BD0378032B17D0164B05
:101F6000019301A84FF0FF324FF0FF330AF024F93C
:101F70001249019101A84FF0FF324FF0FF330AF0F0
:101F80001BF9012120460AF0FBFB02B010BD042022
:101F90000AF018FCBFF35B8F064B002253E8001FCA
:101FA00043E800200028F9D1BFF35B8FD7E700BFDB
:101FB0004C03002088140020C00300205803002098
:101FC0002DE98048AA4B0FCB8BB000240DF11809E6
:101FD00089E80F008DF80B40A6480BF0B5F80028F3
:101FE00000F03781A44BA54FA54DDFF888A2DFF89C
:101FF00094B2A54E0022CDE903230AF0E3F9A349E8
:10200000A3480BF079FE4FF0FF324FF0FF3304A8E6
:102010000AF0D2F89F4B93E803009F4B83E803003C
:1020200001200AF0CFFB0022002399480BF070FE3C
:1020300047F288720023002000210AF0B3FB002140
:102040000A200CF0E1FA00220DF10B0130460023CA
:102050000BF0C6FA48B99DF80B307A799A4204D051
:10206000014638467B710AF08BFBBFF35B8F2B6810
:10207000BFF35B8F1BB19DF80B30012B68D00AF0CA
:10208000C3FD0028DBD00AF0EBFD044648B301286D
:10209000D5D19DF80B308DF815300024042304941D
:1020A0007E4A8DF811307E488DF814402346022177
:1020B0000AF0BEF90028C2D0784BDB78012BBED1E4
:1020C00076490B788DF810308B788DF812300846F1
:1020D0009DF80B308DF81530224604A9FFF70EFF4E
:1020E000ADE76D4B93F80480B8F1010F51D0BFF309
:1020F0005B8F5BE8003F012B03D14BE80042002AD5
:10210000F7D1BFF35B8F9AD1DAF808805948D8F835
:102110001030214622469847D8F8003055488DF8AF
:1021200025404946984738B9D8F810305D4A5E498D
:1021300050489847002882DABFF35B8F01235BE8A1
:10214000002F4BE800310029F9D1BFF35B8F76E710
:1021500004200AF037FBBFF35B8F002355E8002F04
:1021600045E800310029F9D1BFF35B8F4F4B039352
:1021700003A84FF0FF324FF0FF330AF01DF84C4B2D
:10218000039303A84FF0FF324FF0FF330AF014F827
:1021900075E7484B484902220AF01EFA00283FF42E
:1021A0004EAF4FF01002EFF3118382F31288BFF3AA
:1021B0006F8F424A2F481360DAF8083001932246A5
:1021C0001B6921469847019B2A481B688DF825808A
:1021D0004946984700281FDB019B37495B68254823
:1021E0000222984700283BDBBFF35B8F01235BE8AB
:1021F000002F4BE800310029F9D1BFF35B8F254A4E
:102200002E4B92E80300244A1B6882E8030083F304
:102210001188BFF36F8F12E7264900232046002262
:102220000BF082F91B4B93E803001B4B83E8030080
:10223000BFF35B8F5BE8003F4BE80082002AF9D1D7
:10224000BFF35B8F1D4B1B6883F31188BFF36F8F48
:10225000F5E64FF0FF314FF0FF300CF0D5F9C1E655
:1022600014492046002200230BF05EF9BCE700BFB2
:10227000A0190108E815010818040020000000203A
:10228000881400209C140020C4070020D91E0008D8
:102290007009002000280108901400204C0D002037
:1022A000480D002009BC000895BC0008C0030020B0
:1022B00058030020400D00203C0D0020380D002068
:1022C000704700BF002070470B68024A0133126854
:1022D0000B601047080000200FB410B582B004ABAB
:1022E000002453F8042B0548009301A9019400F041
:1022F000E1F802B0BDE8104004B07047C922000800
:102300008C460446114608B51A466046A0470CF0B4
:10231000A7F901F089F800BF00EBC10370B55B8835
:102320005B08B3FA83F3C3F11F0300EB8304CA0015
:10233000151D02F1060C22691FFA81FE5AB9C26806
:10234000012606FA03F31A43C260216120F805E072
:1023500020F80CE070BDD3000433C15A415300EBA8
:10236000C10120F80C20A1F806E020F803E070BDC0
:10237000A2F1040C8C44CA1D22F007022CF0070CB9
:10238000ACEB020C30B44FEADC050260B5FA85F024
:10239000C0F12401890000240731D0F12000C2E9F6
:1023A00002544FEAD10107D002F10C0303EB800085
:1023B00043F8044F8342FBD1002313804B006D1A76
:1023C00043F0010302EBC10053806C0002EB0C03ED
:1023D0004480012022F8311022F80C50588030BC83
:1023E0001046FFF799BF00BF2DE9F84F9246984677
:1023F000D3782F4A0A9E13F802906F2B04460D469D
:1024000009F003093ED038D903F0F703702B36D01A
:102410000A27BB460CE00CF15703DBB2BC4206F8BE
:10242000013D75F100031BD3464504460D4617D9FF
:10243000204629463A460023FEF7A0FB5FFA82FCBD
:10244000092A0CF13003E8D9B9F1010FE3D10CF1FD
:102450003703DBB2BC4206F8013D75F10003E3D25D
:102460009AF800309B0605D5BBF1080F0DD0BBF1E3
:10247000100F13D03046BDE8F88F582BC8D1102765
:10248000BB46D5E70827BB46D2E79AF8023043F0AF
:1024900008038AF802303046BDE8F88F9AF8023017
:1024A00043F010038AF802303046BDE8F88F00BFD1
:1024B000192901082DE9F04F834691B01078029355
:1024C00088B116460C4600255F46252806F101080E
:1024D0000CD02146B847002805DB01354646307848
:1024E0000028F2D1284611B0BDE8F08F73780021A2
:1024F000252BCDE90A11CDE90C11CDE90E1100F023
:10250000EA808C4608468E468946A3F12002102AAE
:102510000AD8DFE802F0D80909D50909090909092B
:1025200009DA09DD0909D100B9F1000F05D09DF8DC
:10253000302042F004028DF83020BEF1000F05D0AB
:102540009DF8302042F008028DF8302028B19DF827
:10255000302042F010028DF83020BCF1000F05D081
:102560009DF8302042F020028DF8302029B19DF8EE
:10257000302042F040028DF830209DF8302002F0EB
:102580004401442900F098819DF830202A2B42F024
:1025900080028DF8302000F07181DFF868C21CF8ED
:1025A000032052071846414648BF002217D511F8AC
:1025B000013F1CF803E002EB820200EB42021EF036
:1025C000040FA2F130021846F1D1884507D09DF8DA
:1025D00030000D92D20F62F341008DF830009DF86B
:1025E00031202E2B0CBF0120002060F341028DF81A
:1025F00031202AD14B782A2B00F06381DFF804C206
:102600001CF8032012F00402184601F1010108BF72
:1026100010460FD0002211F8013F1CF803E002EB36
:10262000820200EB42021EF0040FA2F130021846B3
:10263000F1D1D00F0E929DF83020C2F3400C40EA49
:102640000C0060F341028DF83020A3F14C02481CCD
:102650002E2A00F24A81DFE812F0D7024801480131
:102660004801480148014801480148014801480122
:102670004801480148014801480148014801480112
:102680004801480148014801480148014801480102
:102690004801C7024801C3024801B302480148018A
:1026A00048014801480148014801AF02480148017A
:1026B000480148014801A202012118F8013F24E71E
:1026C0004FF0010CF9E70120F7E74FF0010EF4E7B6
:1026D0004FF00109F1E78DF833000A4606F1020BCD
:1026E00008460B468E469DF930C09DF830A0BCF1DF
:1026F000000FB4BFDDF834904FF0FF39002B00F02D
:102700008380029B53F8048BB8F1000F07DA9DF821
:1027100031C06FF3410C8DF831C04FF0FF384FF0EE
:10272000000C0128CDE90DCC7DD0022800F0B1804D
:10273000042800F0CF80032800F0448302931AF0AD
:10274000030F40F085809DF83330253B532B56D83E
:10275000DFE813F082025500550055005500550082
:1027600055005500550055005500550055005500C1
:1027700055005500550055005500550055005500B1
:1027800055005500550055005500550055005500A1
:102790005500550055005500550055005500550091
:1027A0005500550055005500550055005500550081
:1027B0005500550055005500550085015500550040
:1027C0005500550055005500550055005500550061
:1027D00078020F0255005500550055000F025500B4
:1027E000550055005500A80285019D025500550071
:1027F0008B025500850155005500850155465E4602
:102800006DE600BF192901081EF0020F18BFDDF8A0
:102810003880029B08BF4FF0FF384FF0000C0128B2
:10282000CDE90DCC81D1C81E042800F2D580DFE8A7
:1028300010F00E0105000500D300D300073323F08C
:1028400007031846F0E80223CDE90A23029076E751
:102850004FF0000807E016F8010BB8470028FFF614
:1028600042AE08F101085E452146F4D3B8F1000FED
:102870004046FFF638AE45445E4630E69DF83130BE
:1028800043F001038DF8313098F8013008F101016F
:10289000A5E6C81E042800F2B0800FF2080C5CF810
:1028A00020F000BF392B00083D2800083D28000813
:1028B000FB290008FB2900086FF386128DF83020F1
:1028C00062E69DF8313043F004038DF831308B78A7
:1028D0000231BAE6073323F0070303F10800029040
:1028E000D3E90023CDE90A2329E79DF83080084683
:1028F000C8F340089DF831C08DF83330A3F1410290
:1029000000F1010BE646372A39D8DFE812F05B0008
:102910003800380038005B005B005B00380038008E
:1029200038003800380038003800380038003800E7
:102930003800380038003800380038008800380087
:1029400038003800380038003800380038005B00A4
:102950003800880029015B005B005B00380029011A
:1029600038003800380038008D0188001C0138001C
:1029700038001C01380088003800380088009DF8B5
:10298000303043F001038DF8303000209DF83030B6
:10299000CCF3C30168F341031CF0010F8DF8303014
:1029A0000A460CF004033FF49EAEDDF808C05CF864
:1029B000049BB9F1000FC0F2FA819DF830A0CDF868
:1029C00008C09BE69DF83230042060F302038DF8C6
:1029D00032304FF00108D9E71846012A50F8043B7D
:1029E0000A934FEAE37302900B9340F0F1819DF854
:1029F00028300A9300230B93A1E6184600230B937B
:102A0000012A50F8043B02900A93F0D0022A7FF486
:102A100096AEBDF828300A9300230B938FE69DF8FD
:102A20003220022060F302028DF832200CF078028E
:102A3000402A05D19DF8301041F001018DF8301089
:102A4000632BA3D1002A18BF48F001089EE71A465D
:102A500052F8043B0A93DB1702920B936FE60023B4
:102A600003930DF1260ADDE90A01CDF800A004ABBD
:102A70000CAAFFF7B9FC0646B8F1000F0CDB9DF875
:102A800030306FF386138DF83030AAEB060398458B
:102A900002D9A8EB03030D93002E3FF4B0AE039AC6
:102AA0000D9BAAEB0600002A00F0E1810130D04620
:102AB0009DF83220D10640F13A8102301844530685
:102AC00044BF0E9BC018B9F1000F40F305819DF87B
:102AD00030305907A9EB0009C3F3800A00F1FC80EC
:102AE0005B0640F18881039B002B00F07A81184639
:102AF0002146B8470028FFF6F6ACB9F1000F05F102
:102B0000010509F1FF3340F34E81CDF80CA03022CE
:102B100001359A461D44914606E0BAF1000F0AF1CC
:102B2000FF3340F3D7809A4621464846B8470028ED
:102B3000A5EB0A02F1DAD6E4181D02901B680A938D
:102B400000230B93FBE59DF8323003201CF0780F37
:102B500060F3020318BF48F001088DF8323015E722
:102B60009DF83220012161F302028DF832200846DF
:102B70005CE71AF0080F40F048811AF0100318BF04
:102B800020230393DDE90A23002BBFF66AAF5242EC
:102B900063EB43030B932D230A92039361E79DF8A4
:102BA0003130062262F3C6039DF830808DF8313053
:102BB0004B78C8F340089DE69DF831300722F1E7D5
:102BC0004B789DF830806C2BC8F3400800F04581AD
:102BD0009DF83120032161F3C6028DF8312089E68A
:102BE0009DF831300522DDE74B789DF83080682B69
:102BF000C8F3400800F027819DF83120022161F3DD
:102C0000C6028DF8312075E6BDF830204B7822F4ED
:102C1000F04222F0020242F4804242F00202ADF899
:102C200030204FF0010865E69DF83230032060F354
:102C300002038DF832300CF07803402B08BF48F0C7
:102C40000108A3E60A9B8DF81030002303930DF1D1
:102C5000110804AE01202BE721462520B8470028A3
:102C6000FFF641AC01355E4639E4B8F1000F0A9E2B
:102C7000C0F2CE80414630460EF0CCF906EB00089B
:102C8000002E3FF4BCAD00220D9B039210E70A9882
:102C9000002840F0C180774E0390034606F10508F6
:102CA000052005E70A9B07293FF6A9ADDFE801F0FB
:102CB000040F0C04070704041D605E460FE4EA17C6
:102CC0001D605E465A600AE41D805E4607E41D7082
:102CD0005E4604E499461546039B002B64D0039896
:102CE0002146B8470028FFF6FEAB9DF8322001359B
:102CF000D0064ED411074CD4D30607D59DF8330027
:102D00002146B8470028FFF6EEAB01350D9B002B9E
:102D100011DD03EB050A01E055450DD021463020B9
:102D2000B847002805F10105F6DAFFF7DCBB11070B
:102D300048BF0130C2E6AA462346002544469846CD
:102D400007E03078B847002806F10106FFF6CBAB64
:102D50000135A6424146F4D314B930780028F1D1A8
:102D6000002D44462846FFF6BEABB9F1000FAA4439
:102D70007FF744AD09EB0A0502E0AA453FF43FADF9
:102D800021462020B84700280AF1010AF5DAFFF7AA
:102D9000AABB21463020B8470028FFF6A4AB9DF817
:102DA00032200135A8E799469DF83220A0E79DF82A
:102DB00030A0CDF808C04AF0040AC9F100098DF826
:102DC00030A09BE41A4652F8043B02920A93B6E400
:102DD000022A7FF4B4ACBDF928300A93DB170B93B9
:102DE000ADE409F1FF33B9F1000FD8BF99467FF781
:102DF0007FAF30228CE6B9F1000F09F1FF33C8BF75
:102E000020223FF785AE994666E72B230393B9E668
:102E10003046FEF777F831E70DF1260A04ABCDF81E
:102E200000A00CAA0021FFF7DFFABDF8323003F052
:102E3000EF0343F4F04343F01003ADF832300023C6
:102E40000646039318E69DF83130012262F3C6036B
:102E50008DF831308B78881C4CE59DF83130042298
:102E600062F3C6038DF831308B78881C42E5D0467A
:102E70001EE600BFFC1A0108704700BF4FF01002A9
:102E8000EFF3118382F31288BFF36F8F83F31188FE
:102E9000BFF36F8F024B034A1A600020704700BFD8
:102EA000E802002000093D000020704708B500F04E
:102EB00015F8BDE8084000F001B800BF38B5054C72
:102EC000054DAC4204D254F8043B9847AC42FAD3C7
:102ED00038BD00BFC8180108CC18010838B5064D28
:102EE0002C6844B1631C05EB8305013C55F8043D97
:102EF0009847002CF9D138BDC01801080020704750
:102F0000014910220A60704710ED00E072B640409F
:102F100080F31188BFF36F8FBFF34F8F30BF62B65E
:102F2000BFF36F8F704700BF0AF028B901460068F1
:102F30000AF024B943B2002B08DB05495B090122E2
:102F400000F01F0002FA00F041F82300704700BFB4
:102F500000E100E043B2002B0DDB5B0906490122D2
:102F6000203300F01F0002FA00F041F82300BFF305
:102F70004F8FBFF36F8F704700E100E0054B4209B0
:102F800000F01F0053F82220012303FA00F0104044
:102F9000704700BF00E100E0013143B20901002B9E
:102FA000C9B206DB03F1604303F5614383F8001304
:102FB0007047034B00F00F0003441976704700BFC1
:102FC000FCEC00E000210120FFF7AEBF08B500F0E7
:102FD00005F8BDE8084000F0E3B800BF30BFFFF7D8
:102FE000FDBF00BF0F4A08B50F4B22F07F029A6069
:102FF000BFF34F8FBFF36F8FD3F8882022F4700296
:10300000C3F88820EFF3148323F0040383F31488B8
:10301000BFF36F8F0AF0EAF80BF0ECFB00F0E2F977
:103020000AF0EEF80000000800ED00E010B40A4AD3
:103030000A4C936824680A49C3E91E044B6843F0AC
:10304000805300204B6080F31188BFF36F8F93682B
:1030500010BCD86F704700BF641500203C280108E1
:1030600000ED00E012498A684FF030001044EFF3A1
:10307000098C80E8F01F102080F31288BFF36F8F57
:103080000C4F4FF000668A698A603E60906F0023A3
:10309000936780F3118804B5104600F0E7F9BDE8A6
:1030A000044002F1300090E8F01F8CF3098870476B
:1030B0006415002004ED00E01EF0040F0CBFEFF3D8
:1030C0000880EFF30980816911F8021C0229FFD002
:1030D00001B5FFF72BFF01BD10B4019942F81C1C8C
:1030E000029942F8181C0A4942F8203C21F00101DB
:1030F000039B42F8081C42F8143C4FF08074A2F184
:103100002001002342F8044C10BC0165836770471E
:1031100001230008094B9B6802466BB112F1160FA0
:10312000986E05D0A0F12003934205D8824203D2C5
:10313000814228BF0020704700207047641500209E
:1031400008B5094B98600D46144600F08FF92046EB
:1031500085F30988002163B681F31188BFF36F8F6F
:1031600000220023FFF7CCF86415002001B5EFF32F
:103170000580A0F110004FEAC0000449014409C9CC
:103180009847BDE8014002490847000018160108A9
:10319000A1310008034608461946FFF7AFBE00BF3D
:1031A000044B99689869884203D003494FF08052D4
:1031B0000A6070476415002004ED00E038B51A4B32
:1031C0009C6A9C6A9D6AAD07144603D55D6B9A6A3A
:1031D000120621D46FF01505134B9A6A9A6A9A6AFF
:1031E000D1060BD49B6A9A0708D400200E4A936A32
:1031F000002143F0FF039362217038BD0A4B5B68E6
:103200001B05F2D501462846FFF784FF0028ECD0C5
:1032100080F309880220E9E70029DDD09A6A22F0CC
:1032200080029A62D8E700BF00ED00E00E4B9A6A78
:103230009A6A9A6A920508D59A6B9A6A120404D51A
:1032400018B19A6A22F400429A62074B9A6A9A6A03
:10325000D205054A58BF9B6A936A002043F47F4316
:1032600093620870704700BF00ED00E070B5534BEB
:103270005B688AB0C3F30803002585F31188BFF3A8
:103280006F8F02F07F44B4F17F4F71D102F00C04D4
:10329000082C6DD0140747BF0C462E460446012665
:1032A0000022033B8DF80720032B6FD8DFE803F0E3
:1032B00043392D02414B00259A6A9A6A9A6A9A6AA2
:1032C0009A6A9A6A9A6A6FEA02426FEA12429A62AC
:1032D00020686168A268E3680DF1080CACE80F0093
:1032E00020696169A269E369ACE80F00002E42D051
:1032F000C3F3080240F2FF110AB90B43099302A974
:103300002846FFF711FE0AB070BD0DF1070100203D
:10331000FFF78CFF9DF807300546002BD8D00AB088
:1033200070BD0DF1070200212046FFF747FF9DF811
:1033300007300546F1E7214BDD6A15F0020525D17E
:10334000DA6A002AC4DBDA6A5200C1D5A26932F80F
:10335000021C4DF60272914224D093F82820BAB98B
:1033600093F8292002BB5A8D92B2002AB0D0A3E76D
:103370002E462C4694E7099B23F4FF7323F00103A8
:1033800002A928460993FFF7CFFDBCE700259FE778
:103390000DF1070201212046FFF710FF9DF80730CD
:1033A0000546BAE7256893E70DF107010120FFF70D
:1033B0003DFF9DF807300546AFE700BF00ED00E098
:1033C000024A536943F010035361704700ED00E077
:1033D000EFF30880EFF3098101B57246FFF746FF6E
:1033E00001BD00BF044800231021C2180133552B32
:1033F00082F80013F9D1704700E100E0102080F35B
:10340000118808484FF40261401880F30988EFF3EF
:1034100014800221084380F31488BFF36F8FFFF7F5
:10342000E1FD0000C03F0020084B9B68834201D0B3
:103430000BF02CB9EFF30583002BF9D0044A536845
:1034400043F0805353600BF021B900BF6415002096
:1034500000ED00E0024B034A0348012100F05EB892
:103460000080022000000020041B0108826E064B31
:1034700010B42020054C9C60203AC3E9002010BC09
:103480000121184600F054B8580D002000000B151B
:103490008446104600293ED0F0B51F4F4FF0000E75
:1034A000DCF8044064B3DCF800504BB11F2C04D9A5
:1034B00044EA0502661E324202D06FF01500F0BDEC
:1034C000202CDCF80860C0B221D9B4F1004F20D81C
:1034D000013CB4FA84F4C4F11F046400072844EAF0
:1034E0000604EAD825F01F05054345F0100544F011
:1034F0000104C7F89800C7F89C500130C7F8A040F5
:103500000EF1010E8E450CF10C0CC9D1F0BD082452
:10351000E4E73E24E2E7704700ED00E010B5034C1D
:1035200001232278FFF7B4FF207010BDC0150020E2
:1035300008B5094A00231278FFF7AAFF10F1160F09
:1035400009D0072807DC054AC2F89800013008288E
:10355000C2F8A030F8D108BDC015002000ED00E091
:10356000194B10B41C68082C2BD8BFF35F8F174879
:103570000022C0F8942014B35968C0F898200B6852
:1035800023F01F03134343F010030C31C0F89C30A9
:1035900051F8043C013243F00103A242C0F8A030CC
:1035A000EBD1D2B20A48094B02700521C3F894103E
:1035B000BFF34F8FBFF36F8F002010BC70472246C0
:1035C000F0E74FF0FF30F8E7281B010800ED00E0BE
:1035D000C0150020002070474FF0FF30704700BF3B
:1035E00000207047F0B583B00191002A16DD013A42
:1035F0000B4F0E464C1E8D1803E00D280BD0AC422D
:1036000009D03B689847234602330A2804F8010F83
:10361000A3EB0603F1D1184603B0F0BD0023FAE78F
:103620000C000020F8B51746002A0FDD551E084E85
:103630004C1E0D4414F8010F0A2803D133680D20E5
:103640009847207833689847AC42F3D13846F8BDA4
:10365000100000204FF0FF30704700BF002070477F
:103660000228CCBF00200120704700BF0020704717
:10367000002070474FF400534B600020704700BF9C
:10368000F8B50B4C0B4E271D652533682846984727
:10369000BC420BD014F8015F0A2DF6D133680D201F
:1036A0009847336828469847BC42F3D1FEE700BFED
:1036B000101B01081000002030B4084C084D23688E
:1036C000C5F10051C21801F520318A423ABF58199C
:1036D00022604FF0FF3030BC704700BF640D002007
:1036E0004A4D002010B5044614200BF0D5FE206092
:1036F000BDE8104009F0F6BF4FF0FF324FF0FF3346
:1037000009F0F8BF0AF07AB8002208B51146062081
:10371000FFF742FC002211460720FFF73DFC002284
:1037200011460820FFF738FC002211460920FFF758
:1037300033FC002211460A20FFF72EFC002211461E
:103740001720FFF729FC002228201146FFF724FC50
:10375000002008BD2DE9F04107690E4D0A2401261D
:1037600007F1040802E00134102C11D06A6906FA4E
:1037700004F333EA0202F6D157F834206B61204695
:10378000002AF0D058F8341001349047102CEDD1B5
:10379000BDE8F08100040140064B5A69D20700D40D
:1037A000704701690A6801205861002AF8D0496809
:1037B0000020104700040140064B5A69920700D4CC
:1037C000704701698A6802205861002AF8D0C968E8
:1037D0000120104700040140064B5A69520700D4EB
:1037E000704701690A6904205861002AF8D04969C4
:1037F0000220104700040140064B5A69120700D40A
:10380000704701698A6908205861002AF8D0C9699F
:103810000320104700040140064B5A69D20600D429
:10382000704701690A6A10205861002AF8D0496A75
:1038300004201047000401402DE9F04107690E4DB6
:103840000524012607F1040802E001340A2C11D0F6
:103850006A6906FA04F333EA0202F6D157F8342013
:103860006B612046002AF0D058F83410013490479C
:103870000A2CEDD1BDE8F08100040140054A06495B
:1038800010B40123146883402343085610BC13600E
:10389000FFF750BB00040140681B01081F2807DC2C
:1038A000044901220B6802FA00F023EA00000860D4
:1038B000704700BF0004014003290DD8DFE801F084
:1038C00025190D02174A0123916803FA00F00143FC
:1038D0009160D3681843D0607047124B0122D968B9
:1038E00002FA00F00143D9609A6822EA0000986069
:1038F00070470C4B0122996802FA00F0014399606D
:10390000DA6822EA0000D8607047064B0122996805
:1039100002FA00F021EA00019960DA6822EA000068
:10392000D860704700040140074B10B453F8304092
:103930003CB943F8301003EBC00320465A6010BC7A
:1039400070476FF00F00FAE7680D0020034A02EBA2
:10395000C001002342F830304B607047680D0020F2
:103960000B68042B04D8054B1B68136000207047BC
:10397000062BF8D06FF08500704700BFE8020020EA
:103980000B6886B0062B4DD8DFE803F0101C2834F6
:10399000404C0400254A4B68116D19431165126DA6
:1039A00013400193019B002006B070471F4A4B68EB
:1039B000916C19439164926C13400593059B002010
:1039C00006B07047194A4B68D16C1943D164D26C68
:1039D00013400093009B002006B07047134A4B68C9
:1039E000916D19439165926D13400293029B0020E3
:1039F00006B070470D4A4B68116E19431166126E7E
:103A000013400493049B002006B07047074A4B689C
:103A1000D16D1943D165D26D13400393039B0020F0
:103A200006B070476FF08500BEE700BF001002408F
:103A30000B68062B35D8DFE803F00C141C242C345B
:103A40000400194A4968136D23EA01030020136535
:103A50007047154A4968936C23EA01030020936478
:103A60007047114A4968D36C23EA01030020D364EC
:103A700070470D4A4968936D23EA0103002093655E
:103A80007047094A4968136E23EA01030020136650
:103A90007047054A4968D36D23EA01030020D365C6
:103AA00070476FF0850070470010024010B586B077
:103AB0000023CDE90033029300F042F803A800F0A0
:103AC00037F81A4B1A68510506D41A6842F4807206
:103AD0001A601A685205FCD5144CA36823F003033E
:103AE00043F00103A360A36823F0F003A360A3687D
:103AF00003F00C03042BFAD1236823F080732360B6
:103B0000E36823F4C00343F48003E360694603A839
:103B100005F0D0FC236823F4803323602368002061
:103B200023F00103236006B010BD00BF0010024067
:103B3000002114224FF0007380E80E00704700BF90
:103B4000064B9A6D42F080529A659B6D82B003F0ED
:103B500080530193019B02B0704700BF00100240E8
:103B6000002208B511460B20FFF716FA0B20FFF7CD
:103B7000E1F9002211460C20FFF70EFA0C20FFF7A6
:103B8000D9F9002211460D20FFF706FA0D20FFF7A4
:103B9000D1F9002211460E20FFF7FEF90E20FFF7A3
:103BA000C9F9002211460F20FFF7F6F90F20FFF7A1
:103BB000C1F9002211461020FFF7EEF91020FFF79F
:103BC000B9F9002211201146FFF7E6F9BDE80840D7
:103BD0001120FFF7AFB900BF002208B51146382009
:103BE000FFF7DAF93820FFF7A5F90022114639204E
:103BF000FFF7D2F93920FFF79DF9002211463A204C
:103C0000FFF7CAF93A20FFF795F9002211463B2049
:103C1000FFF7C2F93B20FFF78DF9002211463C2047
:103C2000FFF7BAF93C20FFF785F90022114644203E
:103C3000FFF7B2F94420FFF77DF900224520114635
:103C4000FFF7AAF9BDE808404520FFF773B900BFA8
:103C500043682DE9F0415D691F69481E854217D907
:103C60009D69144600EB400205EBC2064FEAC2080C
:103C700000F064FB084B55F808201B5C3B44002017
:103C80005B686270B27922709BB26360BDE8F081BC
:103C90006FF01500FAE700BF981B010870B5466881
:103CA0000446124D284609F04FFAE0B1AB682846A9
:103CB0001B68314698470546A8B9B368204698471F
:103CC00072694AB1B36902EB420203EBC2022946B0
:103CD000997118339342FBD123690022C3E9002272
:103CE0009A60284670BD6FF00405FAE76814010871
:103CF00043682DE9F0419C691F6901EB410304EB26
:103D0000C30400230646A37138460D4600F044FB69
:103D100005F1010878B1637943B1D4E9041542464D
:103D20003046AC460023BDE8F0416047294638469E
:103D300000F00AFBF1E72946384600F013FB38B1E2
:103D40006379002BE9D12946384600F003FBE4E70C
:103D50003846294600F040FB48B1D4E904154246F4
:103D60003046AC466FF00403BDE8F041604773682D
:103D70002946186900F0F4FA73681F692946384625
:103D800000F0E8FA2946384600F0DEFA29463846BF
:103D900000F01CFBE1E700BF0021FFF7A9BF00BF57
:103DA0000121FFF7A5BF00BF0221FFF7A1BF00BFA0
:103DB0000321FFF79DBF00BF0421FFF799BF00BF9C
:103DC0000521FFF795BF00BF0621FFF791BF00BF98
:103DD0000621FFF78DBF00BF0021FFF789BF00BF9D
:103DE0000121FFF785BF00BF0221FFF781BF00BFA0
:103DF0000321FFF77DBF00BF0421FFF779BF00BF9C
:103E00000521FFF775BF00BF38B54368D3E90452F9
:103E10004C1EA24211D92146284600F09BFA2146A9
:103E2000284600F091FA2146284600F0CFFA2846AD
:103E3000214600F0D3FA002038BD6FF0150038BDE0
:103E4000426801EB41032DE9F041DB000746906930
:103E5000183B00EB0308D2E904634D1EAB422AD99C
:103E6000284600F06BFA154B1A5C935923F00203B5
:103E7000935141F28A3405E0013C09D00A20002127
:103E80000AF0C2FB2946304600F0B6FA0028F3D10A
:103E90007B681C692946204600F05CFA29462046CA
:103EA00000F052FA2046294600F090FA002088F8E7
:103EB0000600BDE8F0816FF01500FAE7981B0108D5
:103EC0002DE9F04F406899464369066983B04D1E5D
:103ED000AB4201921ED9D0F818A005EB45074FEA76
:103EE000C70B41F28A340AEBC70705E0013C56D004
:103EF0000A2000210AF088FB2946304600F07CFAAF
:103F000080460028F2D15AF80B20012A08D032F05E
:103F100002032CD06FF01508404603B0BDE8F08FC7
:103F2000284600F00BFA214C019B225C32442846C3
:103F3000D36000F003FA225C32442846C2F80890AD
:103F40003A793AB300F0FAF9BA68205C0C9BB3FBFB
:103F5000F2F230444168090C09040A4342602946E0
:103F6000304600F03BFA404603B0BDE8F08F2846EB
:103F700000F0E4F90D4C019B225C3244284693602A
:103F800000F0DCF9225C32442846C2F80C903A7901
:103F9000002AD7D100F0D2F9FA68205CD6E76FF09A
:103FA0000F08404603B0BDE8F08F00BF981B010822
:103FB0002DE9F04F44688FB01746824603A8D4F825
:103FC00018B0266901EB41084D1E04F0F9FF7B880B
:103FD0004FEAC80803F4FE63A8F11808B3F5FE6FB2
:103FE0000BEB080900F088806369AB427ED999F831
:103FF000063041F28A343BB1A3E0013C00F0A180DD
:104000000A2000210AF000FB2946304600F0F4F9AE
:104010000028F2D1DAF804200190146929462046DC
:1040200000F098F92946204600F08EF929462046EE
:1040300000F0CCF93969019B4A69B2F5803F55D24D
:10404000FC88B7F804C0644550D1042C02D0621E2D
:10405000012A4BD80A7FC2F38010B0EBD21F45D1A2
:104060003A88B869C9F81400C2F3C21278694FF0EF
:10407000010E89F806E04BF80820C9F81000D1E9D4
:1040800000E0012A0CBFCDE9030ECDE903E038685A
:10409000C0F38330C9E902C4032827D8DFE800F061
:1040A0003A464A024FF440500D90012A36D0022A77
:1040B00044D0DAB94FF4804205920A7FC2F3011E60
:1040C000C2F3810ABEF1010F5FFA8EF03FD00228E1
:1040D00040D058B980200890BAF1010F5FFA8AF0F9
:1040E00035D0022800F09580002836D06FF01503F7
:1040F00018460FB0BDE8F08F0123B9697A6989F8D5
:10410000063089F8053000231846C9E904210FB0AC
:10411000BDE8F08F0020012A0D90C8D10A7F102041
:104120000590C2F3810EC2F3011ACBE74FF4805021
:104130000D90BAE74FF400500D90B6E700220592BB
:10414000BBE76FF00F0318460FB0BDE8F08F6FF0BC
:104150008503CDE700200890BEE7402007905BF87C
:1041600008004969DFF8B0E0019312F0400F14BF76
:10417000202200220692A0F10202B2FA82F2520933
:1041800089F80420BCF1000F9CFAACF2B2FA82F27A
:1041900008BF4FF0FF32002C5EF82220099294FAFB
:1041A000A4F2DFF878E0B2FA82F208BF4FF0FF32F3
:1041B00002285EF822200A923A7818BFB1FBF4F187
:1041C00002F07F02284608BFB1FBFCF10C920B9174
:1041D00000F0B4F803AA0146304604F0B3FE2846C6
:1041E00000F0ACF80E4C3A69215C177F8A59019BAC
:1041F00042F0020217F0400F8A513FF479AF28468F
:1042000000F09CF8215C019B8A5942F004028A511B
:104210006EE700200790A2E7041C0108F81B0108C4
:10422000981B01080068C0F3400070470068C0F3A5
:10423000401070470068C0F3402070470068C0F32A
:10424000403070470068C0F3404070470068C0F3DA
:10425000405070470068C0F3406070470068C0F38A
:10426000800070470068C0F3801070470068C0F39A
:10427000802070470068C0F3803070470068C0F34A
:10428000804070470068C0F3805070470068C0F3FA
:104290008060704702234360704700BF2023436063
:1042A000704700BF4FF40073436070474FF40053F2
:1042B000436070474FF40033436070474FF400137E
:1042C000436070474FF000734360704704234360BE
:1042D000704700BF40234360704700BF4FF48063C6
:1042E000436070474FF48043436070474FF480232E
:1042F000436070474FF48003436070474FF0806322
:104300004360704708234360704700BF80234360C9
:10431000704700BF4FF40063436070474FF40043A1
:10432000436070474FF40023436070474FF400032D
:10433000436070474FF0006343607047014B53F890
:1043400020007047A41C0108014B53F82130184786
:10435000881C0108014B53F8213018476C1C0108D8
:10436000704700BF08B5094B094A53F82130D25CA9
:10437000835813F0020307D0064B53F821309847B7
:10438000003818BF012008BD184608BDA41C01084C
:10439000101C0108341C010808B5094B094A53F8E0
:1043A0002130D25C835813F0040307D0064B53F836
:1043B00021309847003818BF012008BD184608BDB5
:1043C000A41C0108101C0108501C0108014B53F8E3
:1043D00021301847181C010800207047044B054A7B
:1043E00053F82130D25C835843F001038350704767
:1043F000A41C0108101C0108084B094A53F821307D
:10440000D35CC25822F00102C250C35813F0010F0E
:1044100014BF6FF00A000020704700BFA41C010801
:10442000101C010843685B681B690B600020704723
:1044300043685B6810B45C6962400A4062400020D7
:1044400010BC5A61704700BF43685B6800209961E7
:10445000704700BF43685B6800209962704700BFE7
:1044600043685A6853694B4000205361704700BF4E
:1044700070B40569AE68E6B13346002400E0034637
:1044800099420DD018681C460028F8D16FF015002D
:1044900022B1E8680E60A96098B1002070BC704736
:1044A0000B68E86884B18142236008BFEC60002398
:1044B0000B60002AF1D0E868AE680E60A9600028A1
:1044C000EBD1E96070BC70478142AB60EFD1EB602B
:1044D000EDE700BF2DE9F0439446BCF5005F476867
:1044E000026983B00C4656D0BCF5804F7CD0404961
:1044F00020461D46FFF718FA0646002871D13D4BAD
:10450000D7F8088093E803006F4687E80300DFF8D8
:10451000E890484608F018FE30B1D9F8083039461E
:104520001B6848469847A0B1B5F5802F2FD0B5F548
:10453000C02F2ED0B5F5003F14BF00210221204628
:10454000FFF7BAF92046FFF799F9304603B0BDE806
:10455000F08304F00302043293000F229A4042EAEF
:104560009402D3B29B0003F1804303F58033110C16
:1045700091FAA1F1B1FA81F108FA01F8996821EAFA
:10458000124248EA0202B5F5802F9A60CFD101218C
:10459000D5E70321D3E701F0030304339A000F2387
:1045A000934043EA9103DAB21449B868023251F8F1
:1045B0002220190C02EA134391FAA1F2B2FA82F214
:1045C000D340984201D00026BFE72046FFF766F9A6
:1045D0002046FFF7BBF900212046FFF76DF90026C2
:1045E000B3E76FF00F06B0E76FF08506ADE700BFE9
:1045F000C1470008B0190108681401080000014013
:10460000F0B54468012066688840C2F3801526EA48
:1046100000068D4035436560A76890FAA0F602F069
:10462000300CC2F3C11E3EB1B6FA86F67600032501
:1046300005FA06F627EA060790FAA0F5002D54D0F1
:10464000B5FA85F56D000EFA05F53D43A560E768FE
:1046500090FAA0F6C2F341223EB1B6FA86F6760091
:10466000032505FA06F627EA060790FAA0F5D5B362
:10467000B5FA85F56D0002FA05F53D43BCF1200F52
:10468000E56018D090FAA0F221684FEA1C133AB105
:10469000B2FA82F25200032505FA02F221EA02017F
:1046A00090FAA0F018B3B0FA80F0400003FA00F0DE
:1046B00008432060F0BD07291FDC90FAA0F2216AB0
:1046C0003AB1B2FA82F292000F2505FA02F221EA1B
:1046D000020190FAA0F24AB3B2FA82F29200934039
:1046E0000B432362CEE74025C5E74025ABE74020DA
:1046F00003FA00F008432060F0BD020A656A92FAEE
:10470000A2F139B1B1FA81F189000F2606FA01F15F
:1047100025EA010592FAA2F232B1B2FA82F29200CF
:1047200093402B436362ADE78022F9E78022D6E70E
:1047300008B51346920515D59A0721D413F0100F2A
:104740004FF0100223D042F4007213F4006F40685F
:1047500026D15B050AD5D0F804C001238B40CCF8E4
:10476000283003E0DA05406805D430220023FFF743
:1047700047FF002008BDDA0619D54FF40072F5E7AF
:104780005A071AD513F0100F4FF05002DBD113F077
:10479000200FDAD013F4006F406842F48062D8D062
:1047A000D0F804C001238B40CCF81830DEE713F0BA
:1047B000200218BF4FF48062D8E76FF0850008BD73
:1047C0008B6883B170B501254E681C6885409A6876
:1047D0002A401946304601D05B68984714B12346F9
:1047E0002468F4E770BD704738B5036944685860C1
:1047F000084D284608F0A8FC40B1AB680C341B6893
:1048000021462846984700EAE07038BD6FF0120054
:1048100038BD00BF6814010808B54068FFF7F0FE16
:10482000002008BD4163704781637047C1637047D2
:1048300001647047836D8165704700BFC165704733
:104840004168036949681B68002001315060B3FB6F
:10485000F1F31360704700BF2DE9F04101F1FF3C17
:1048600088B0BCF1050F9DF838E0D0F8048000F264
:10487000AE809A4214461D46C0F0A980D8F8003098
:10488000B3F1804F03D0B2F5803F00F2B4805E4AAE
:1048900052F82C70002C68D01A6A02EA070137EA35
:1048A00002020EF0010631D0684604F0DBFB760010
:1048B000D8F800000395012360256A463946CDE902
:1048C0000053049604F0D8FB002840F09180D8F8FB
:1048D00000301A68012F42F080021A6035D0042F90
:1048E00033D0102F5ED0402F2FD0B7F5807F61D00E
:1048F000B7F5806F5ED0B7F5805F70D0B7F5803FB9
:104900000CBF08224FF400623C201FE001294FEA4F
:10491000460E32D0042950D0102953D0402944D01B
:10492000B1F5807F56D0B1F5806F5CD0B1F5805F76
:1049300064D0B1F5803F07BF4FEA0E4E6FF40032EE
:104940004FEA0E5E6FF4001219E0082203F1180519
:10495000013C295811432950DC625A6942F0010296
:1049600000205A6108B0BDE8F0811A6A204622EAA8
:1049700007021A6208B0BDE8F0816FF002021E6AF9
:10498000164046EA0E061E621846204B294653F88A
:104990002C309847D8F80030013C0020DC6208B089
:1049A000BDE8F0814FF40062D0E74FEA8E1E6FF051
:1049B0008002E4E708220420C8E74FEA8E0E6FF079
:1049C0000802DCE74FEA0E1E6FF02002D7E76FF017
:1049D0001500C7E74FEA0E2E6FF40072CFE74FF4D1
:1049E00000620420B2E74FEA8E2E6FF40062C6E741
:1049F0006FF00400B6E76FF08500B3E74FEA0E3EB4
:104A00006FF40052BBE700BFB41D0108E81D0108A8
:104A10002DE9F0414568D0F8108086B02F4C204633
:104A200008F092FB002855D0A76805F108063B68FE
:104A3000314620469847002841DB204608F084FB99
:104A4000002847D0FB686FF05700002B37D0314665
:104A5000204601AA9847002831DB019B2869C8F845
:104A6000003001AA002104F001FA002827DB019B95
:104A700000221979186804F01DFA00281FDB01A82C
:104A800004F0ACFA6A682868ADF80420002301A994
:104A9000CDE90233049304F0ABFAC0B92B68104A95
:104AA00093420FD002F5A05293420BD002F58062E0
:104AB000934207D01A6842F0010200201A6006B043
:104AC000BDE8F0815A6C42F400425A64F2E76FF09C
:104AD0000400F4E76FF01200F1E700BF681401086A
:104AE000002C01403BB1CB6F43F00103CB6701F1D8
:104AF000640008F0DBBED1F8D03093420DD0D1F87D
:104B000084309342CB6F0CBF43F0020343F00103A8
:104B1000CB6701F1640008F0C9BECB6F43F004031A
:104B2000CB6701F1640008F0C1BE00BF2DE9F04180
:104B3000514D0F46164680460FCD8AB002AC0FC4C9
:104B400095E80F0084E80F003B68B34200F08980CD
:104B5000B388C3F34512082A02D0102A40F0888097
:104B6000D8F8084013F4004F636814BF43F01003F3
:104B700023F010036360414D284608F0E5FA002851
:104B800073D0AB68DB68002B6FD04146284601AA82
:104B90009847002869DB01983168012320FA03F265
:104BA0008A4207D90133092BF8D16FF015000AB0FA
:104BB000BDE8F08122680AA922F04002226001EBE0
:104BC0008303226853F8243C22F038021A43B38846
:104BD00022609A0740D4226822F0020222602268F2
:104BE0005D074CBF42F0010222F001022260226800
:104BF00022F4444222602268D8064CBF42F0800270
:104C000022F080022260226822F400522260226890
:104C100042F400722260626822F00402626022683C
:104C2000D9074CBF22F4827242F482722260C3F32D
:104C30004513082B636806BF23F4706343F4E063F5
:104C400043F4706363606368002043F480536360DF
:104C50003E600AB0BDE8F081226842F002022260A4
:104C6000BDE700200AB0BDE8F0816FF004009EE7C8
:104C70006FF085009BE700BFB819010868140108B0
:104C800010B504692368A3B19B6893B11A6882B117
:104C9000986809F071FF23689B6818681B790121E7
:104CA000994003691B68194283680CBF1B69DB6864
:104CB0009847A3690BB1002010BD636004F1100098
:104CC00008F0F4FD002010BD30B50B68846883B097
:104CD000E3B19A68D2B10D461168B9B19B88D80486
:104CE00014D4906809F048FF2B689B6818681B79FA
:104CF0000121994003691B68194283680CBF1B6935
:104D0000DB689847A368D90703D5E368A368D90788
:104D1000FBD4236803F48273B3F5827F0FD0A368BA
:104D20009B0606D5A3680193019B236823F04003EB
:104D30002360236823F04003236003B030BDA368E1
:104D40001A06ECD5A3681A06F9D4E8E72DE9F04F66
:104D500006691F4643689D68D6F8CC3085B080460A
:104D60000C46914623B1D6F88030002B40F0DA8013
:104D7000B9F1000F00F04D82A388990404D5B369FE
:104D800013B973689C4208D04FF0FF3206F110004F
:104D90004FF0FF3308F0B4FD74602246D8F81010CD
:104DA000D8F80400FFF7C2FE044648B133689B8878
:104DB00013F4005300F0AD80204605B0BDE8F08F3D
:104DC000B9F1000F00F09883D9F800207264002A2E
:104DD00000F02284D9F80430B36433B98EE308328A
:104DE000C6E91123002B00F089835168013B00299B
:104DF000F5D01368B1657365002F00F078833B68C8
:104E0000F364002B00F006847A68326532B970E3EF
:104E10000833C6E91332002A00F06B835968013A5F
:104E20000029F5D01B683166F36500233364AB6855
:104E3000DA0703D5EB68AB68DB07FBD42B68D8F83F
:104E4000107043F040032B603B689BB19B688BB1B3
:104E5000186878B11A79036901211B6891401942D9
:104E6000836814BF1B69DB6898473B689B68986838
:104E700009F082FE002130688388DF0740F1CE818F
:104E8000AA68900740F14482B26D002A00F0408287
:104E9000C3F34513082B706D00F033830388AB8197
:104EA000013AB265002A00F0628302307065AB6897
:104EB000DA0717D5F36DABB1326E9AB132689288CA
:104EC000C2F34512082A00F02C83EA681A80336E78
:104ED00043B1013B3366002B00F07C83F36D0BB1D3
:104EE0000233F365AB6813F4B87F40F08783B36D8A
:104EF000002BC0D1336E002BBDD1D8F81010D8F8DC
:104F00000400FFF7E1FE33689B8813F400537FF43D
:104F100053AF736006F1100008F0C8FC204605B0DE
:104F2000BDE8F08F002A00F01D83A3889A0404D501
:104F3000B36913B973689C4208D04FF0FF3206F191
:104F400010004FF0FF3308F0DBFC746006F16400E2
:104F500008F002FD2246D8F81010D8F80400FFF738
:104F6000E5FD044600287FF421AFB9F1000F00F001
:104F70001883D9F800307364002B00F05483D9F8FB
:104F80000420B26432B90EE30833C6E91132002AB4
:104F900000F009835968013A0029F5D01B68B16512
:104FA0007365002F00F0F8823B68F364002B00F07B
:104FB00038837A68326532B9F0E20833C6E91332D1
:104FC000002A00F0EB825968013A0029F5D01B68ED
:104FD0003166D8F810A0F365DAF8003000223264A8
:104FE000B3B19B68A3B1186890B11A790369012124
:104FF0001B6891401942836814BF1B69DB6898479E
:10500000DAF800309B68986809F0B6FDD8F810A06F
:105010002B68B46DD6F8609043F0400322464C46AE
:105020002B60002C00F06E8112B1944228BF144610
:105030000021DAF85CB0D8F80430F1670AF1A4096D
:1050400020224846BAF88E700193B4FBF7F70BF0B4
:105050007DFE019BCAF8B8700021BBF1000F00F083
:10506000AB819AF8C620CAF8A8B0002A00F0638184
:105070009AF8C02061F305128AF8C0209B68DAF81C
:10508000C820CAF898900C33CAF8A4309AF8C530F2
:10509000CAF89CA0002B14BF0023022302F00F02C9
:1050A0009B0043EA0223BAF8C020DAE9200122F487
:1050B000706222F00C021343AAF8C03083680AF130
:1050C00088021B6898470146002840F02681DAE9EB
:1050D000200183689B6898470146002840F01D81A5
:1050E000D8F81070019007F1F00318462022BAF8A2
:1050F000D890DAF854B0D8F804A0B4FBF9F90BF062
:1051000025FE0199C7F804910346BBF1000F00F09A
:105110006F8197F81121C7F8F0B0002A00F059818B
:1051200097F80C2161F3830287F80C21DAF8082044
:10513000C7F8E43097F81231D7F8CC00C7F8E87018
:10514000002BD7F8143102F10C0203F00F01C7F85D
:10515000F42018BF0023B7F80C2108BF02231B015D
:1051600022F4736243EA01231343A7F80C318368E6
:10517000D7F8D0101B6807F1D402984701460028E1
:1051800040F0CB80D7E9330183689B68984701469C
:10519000002840F0C2806B68D8F8107043F001031B
:1051A0006B606B6843F002036B6007F1640907E012
:1051B000FB6FDB0700F1F280FB6F13F0060F6ED17F
:1051C00042F210720023484608F09AFB0028EFD004
:1051D000D8F810A00446D8F804005146FFF774FD33
:1051E0002B68D6F88000D6F8841023F040032B609B
:1051F0006B6823F002036B606B6823F001036B6044
:105200008368DB689847D6E933018368DB68984791
:10521000CCE5002F7FF4B0AD3C46CDE5AA689207FF
:10522000FCD5C3F34513082B726D00F0A180B36D5C
:10523000002A00F0EA80002B40F0B580AB81AB681B
:10524000DF07FCD58288336EF06DC2F34512082A61
:10525000EA6878D020B1002B3FF444AE0280336E70
:10526000002B3FF43FAE013B3366002B7FF436AE9C
:10527000F26C336D0832013BF264336533B920E1DF
:105280000832C6E91323002B00F01B815068012867
:1052900003F1FF33F4D940081368306621E6AB68A8
:1052A00013F4C05FFBD1AB689F07FCD5AB68180651
:1052B000F9D46B68B26D23F002036B606B6823F066
:1052C00001036B6052B1944208D8121BB265002AE8
:1052D00000F0D180736D0BB123447365336E1BB343
:1052E0009C4274D81B1B3366002B00F0AE80F16D1E
:1052F00000296CD02144F1651C46D8F810A0002C80
:105300007FF492AE1446002A7FF492AE144662E710
:105310006B6823F080036B60C9E5D8F810A00C46D9
:1053200059E70023C6E91733D8F810A01446002A1D
:105330007FF47EAEEAE79AF8C020022161F30512FD
:105340008AF8C0209AE620B1002B3FF4CBAD027062
:10535000336E002B3FF4C6AD013B3366002B00F0EB
:105360009F80F36D002B3FF4BDAD0133F365B9E5CC
:105370001AB1B36D002B34D11A462A73B36D002BCA
:1053800034D0013B3068B365002B00F09D80736D15
:10539000002B3FF454AF0133736550E7D8F810A0E9
:1053A0006FF0040417E71788AF81013BB365002B4A
:1053B00034D00232726542E79C4ACAF8A8209AF8B3
:1053C000C020022161F305128AF8C02056E61C466F
:1053D00093E797F80C21022161F3830287F80C21EF
:1053E000A4E612782A73B36D002BCAD1306826E781
:1053F0008E4AC7F8F020C2F800B097F80C210221BD
:1054000061F3830287F80C2190E6AA81002B3FF418
:1054100016AF013BB365002B7FF411AF726CB36C18
:105420000832013B7264B3642BB95DE00832C6E90F
:105430001123002B58D05768012F03F1FF33F5D902
:105440007F081368B7657365F9E6F16C336D083151
:10545000013BF164336533B963E70831C6E91313DF
:10546000002B3FF45EAF4C68013B002CF5D00B687D
:10547000C6E9173441E7716CB36C0831013B7164C4
:10548000B3642BB96BE00831C6E91113002B66D069
:105490004868013B0028F6D00B68B06502461CE75F
:1054A000F26C336D0832013BF26433654BB15068E6
:1054B000013B00287FF4F0AE0832C6E91323002B2D
:1054C000F5D1316600230CE5726CB36C0832013BF8
:1054D0007264B36443B15768013B002FB1D1083205
:1054E000C6E91123002BF6D1B1650023ABE7C6E96D
:1054F00013770023336697E4C6E911000023B365F0
:1055000079E403782B73B36D002B3FF4D0AC013BEF
:10551000B365002B4AD0736D002B3FF4C8AC013348
:1055200056E0EA681A70336E002B3FF4DBAC013BA7
:105530003366002B7FF415AFF26C336D0832013BFC
:10554000F2643365002BBCD05068013B00287FF427
:10555000A3AE0832C6E91323002BF5D1B1E700232F
:10556000B365BAE6002F7FF4E0AC3C4624E4726CED
:10557000B36C0832013B7264B36423B926E008328D
:10558000C6E9112313B35068012803F1FF33F6D99C
:1055900040081368B0651BE0C6E913770023336643
:1055A00017E5C6E911990023B365F9E4726CB36C91
:1055B0000832013B7264B36443B15068013B002878
:1055C000E7D10832C6E91123002BF6D1B1650023DB
:1055D00073656CE4F26C336D0832013BF264336541
:1055E00033B96EE70832C6E91323002B3FF469AFE5
:1055F0005068012803F1FF33F4D94CE6AB685B0631
:105600000CD5EB680393039BAB680393039B6FF08C
:10561000040472E433656CE7B0646FE76FF0040470
:105620006BE43365BAE7B364BDE700BFB40F002095
:105630002DE9F0470569466882B04D4C204607F0D9
:1056400083FD002800F09080A36831461B68204647
:1056500098470746002840F08780F06801AA39463D
:1056600003F004FC002857DB019B3A4619791868BF
:1056700003F020FC00284FDBD5F8800018B107F0BC
:1056800063FD002842D0D5F8CC0018B107F05CFDCE
:1056900000283BD0D5E9024304EBC3039C4240D22F
:1056A00008344FF001082AE054F8080C14F8041CE0
:1056B00014F8033CD0F810E0D0F80890DEF800C0F1
:1056C000D9F80090DA0754BF43F4B05383F4D053B1
:1056D00023F4805208FA01FADB074CBF4CEA0A03B4
:1056E0002CEA0A03CEF80030C847002804F1080469
:1056F00012DBD5E9023203EBC2039E4211D254F809
:10570000080C264607F020FD0028CDD16FF01207C7
:10571000384602B0BDE8F0870746384602B0BDE81B
:10572000F0872B68A3B19B6893B11A6882B198681F
:1057300009F022FA2B689B6818681A79036901211D
:105740001B6891401942836814BFDB681B69984746
:10575000AB69002BDCD16B6005F1100008F0A6F8F6
:10576000384602B0BDE8F0876FF00407D0E700BF0D
:105770006814010800F0E6BE014808F061BA00BFF5
:105780005C02002008B509F0DFF90A220023FBF7CC
:10579000F5F908BD08B509F0D7F90A220023FBF78F
:1057A000EDF9024B1B68C01A08BD00BFB80F0020FE
:1057B00001207047014809F0A7BA00BF2807002060
:1057C00030B50A2283B0A0FB022300240025034841
:1057D000CDE9004509F040FA03B030BD28070020AC
:1057E00008B509F0B1F90A220023FBF7C7F9014B0C
:1057F000186008BDB80F0020014B1868704700BF43
:10580000B80F00200A21A0FB010108F0FDBE00BF77
:10581000704700BF704700BF4FF01002EFF31183D5
:1058200082F31288BFF36F8F03607047036883F3BE
:105830001188BFF36F8F7047074BDA6810B55C684B
:105840000AB1186890472CB100212046BDE81040ED
:1058500009F068BD10BD00BFBC0F00202DE9F0416C
:10586000274CA5688C4684B0014617461E4665B194
:105870002068009313466246A847224B5B6B039354
:10588000002004B0BDE8F041184704F144050223AC
:10589000D4F80480BFF35B8F55E8002F012A03D1B1
:1058A00045E800300028F7D1BFF35B8F25D1E36CCA
:1058B0001A78624503D983F800C0E36C1A78A06CAB
:1058C0000BF036FA236D03B11F80636D03B11E70B8
:1058D0000C4BDB6A984700216160BFF35B8F55E892
:1058E000003F45E80012002AF9D1BFF35B8F404624
:1058F00004B0BDE8F04109F015BD04B0BDE8F08189
:10590000BC0F0020AC1E010870B5144D022305F138
:1059100044046E68BFF35B8F54E8002F012A03D163
:1059200044E800310029F7D1BFF35B8F14D10C4B51
:10593000DB6A984700216960BFF35B8F54E8003F42
:1059400044E80012002AF9D1BFF35B8F26B130463C
:10595000BDE8704009F0E6BC70BD00BFBC0F002080
:10596000AC1E0108F8B5154C0026666104F144052B
:1059700002236768BFF35B8F55E8002F012A03D12C
:1059800045E800310029F7D1BFF35B8F14D10C4BF0
:10599000DB6A98476660BFF35B8F55E8003F45E8D8
:1059A0000062002AF9D1BFF35B8F2FB13146384630
:1059B000BDE8F84009F0B6BCF8BD00BFBC0F002040
:1059C000AC1E010870B50546164608461C4607F091
:1059D00087FB286000B3E2048168056906D514F4EA
:1059E000406F03D0E3070FD584F4406424F4805261
:1059F000E4072B680BD50124B44023432B600B68CC
:105A00003146BDE8704018472B6824F480520124C9
:105A1000B44023EA0403F1E76FF0040070BD00BF57
:105A20002DE9F047414D8EB08A46696B002405ABE5
:105A300001270C94CDE90533CDE90744CDE90944AC
:105A40000B940D938DF83170002968D0BFF35B8FF4
:105A500005F1440858E8001FA14203D148E800704E
:105A60000028F7D1BFF35B8F5CD1DFF8C4906B6087
:105A7000D6B2D9F85430314638469847D9F828304C
:105A800050463146984795F83F300193AB8F95F8D3
:105A900039200093CDE9026795F83A30D9F82460AF
:105AA00095F838103846B0470A22B840A0FB0223C8
:105AB000394609A809F06AFBA04203DB20460EB074
:105AC000BDE8F0870223BFF35B8F58E8002FBA428E
