:020000040800F2
:10000000603D00204D550008B51F0108055500084A
:1000100005550008055500080555000800000000BA
:10002000000000000000000000000000514800082F
:100030000555000800000000FD47000885A90008DC
:1000400029490008294900082949000829490008C8
:1000500029490008294900082949000829490008B8
:1000600029490008294900082949000829490008A8
:100070002949000829490008294900082949000898
:100080002949000829490008294900082949000888
:100090002949000829490008294900082949000878
:1000A0002949000829490008294900082949000868
:1000B0002949000829490008294900082949000858
:1000C0002949000829490008294900082949000848
:1000D0002949000829490008294900082949000838
:1000E0002949000829490008294900082949000828
:1000F0002949000829490008294900082949000818
:100100002949000829490008294900082949000807
:1001100029490008294900082949000829490008F7
:1001200029490008294900082949000829490008E7
:1001300029490008294900082949000829490008D7
:1001400029490008294900082949000829490008C7
:1001500029490008294900082949000829490008B7
:1001600029490008294900082949000829490008A7
:100170002949000829490008294900082949000897
:100180002949000829490008294900082949000887
:0401900029490008F1
:0C019400FFFFFFFFFFFFFFFFFFFFFFFF6B
:1001A00001F0FF01102A2BDB10F0070F08D010F828
:1001B000013B013A8B422DD010F0070F42B3F6D12C
:1001C000F0B441EA012141EA014122F007047FF045
:1001D00000070023F0E80256083C85EA010586EA9C
:1001E000010685FA47F5A3FA87F586FA47F6A5FAD8
:1001F00087F68EB9EED1F0BC01F0FF0102F00702E4
:1002000032B110F8013B013A83EA010313B1F8D18E
:100210000020704701387047002D06BF354603386F
:10022000073815F0010F07D1013015F4807F02BFA8
:10023000013015F4C03F0130F0BC0138704700BFF9
:1002400081F0004102E000BF83F0004330B54FEA87
:1002500041044FEA430594EA050F08BF90EA020FF4
:100260001FBF54EA000C55EA020C7FEA645C7FEA87
:10027000655C00F0E2804FEA5454D4EB5555B8BFAA
:100280006D420CDD2C4480EA020281EA030382EA1B
:10029000000083EA010180EA020281EA0303362DAD
:1002A00088BF30BD11F0004F4FEA01314FF4801C80
:1002B0004CEA113102D0404261EB410113F0004F92
:1002C0004FEA03334CEA133302D0524263EB430349
:1002D00094EA050F00F0A780A4F10104D5F1200EE7
:1002E0000DDB02FA0EFC22FA05F2801841F1000142
:1002F00003FA0EF2801843FA05F359410EE0A5F116
:1003000020050EF1200E012A03FA0EFC28BF4CF046
:10031000020C43FA05F3C01851EBE37101F00045FC
:1003200007D54FF0000EDCF1000C7EEB00006EEB09
:100330000101B1F5801F1BD3B1F5001F0CD3490893
:100340005FEA30004FEA3C0C04F101044FEA4452EA
:1003500012F5800F80F09A80BCF1004F08BF5FEA71
:10036000500C50F1000041EB045141EA050130BD51
:100370005FEA4C0C404141EB0101013C28BFB1F563
:10038000801FE9D291F0000F04BF01460020B1FAAE
:1003900081F308BF2033A3F10B03B3F120020CDA81
:1003A0000C3208DD02F1140CC2F10C0201FA0CF05F
:1003B00021FA02F10CE002F11402D8BFC2F1200CC4
:1003C00001FA02F120FA0CFCDCBF41EA0C0190407A
:1003D000E41AA2BF01EB0451294330BD6FEA0404C3
:1003E0001F3C1CDA0C340EDC04F11404C4F12002AE
:1003F00020FA04F001FA02F340EA030021FA04F3C0
:1004000045EA030130BDC4F10C04C4F1200220FA16
:1004100002F001FA04F340EA0300294630BD21FA54
:1004200004F0294630BD94F0000F83F4801306BF1A
:1004300081F480110134013D4EE77FEA645C18BF0E
:100440007FEA655C29D094EA050F08BF90EA020FA5
:1004500005D054EA000C04BF1946104630BD91EA9D
:10046000030F1EBF0021002030BD5FEA545C05D1A0
:100470004000494128BF41F0004130BD14F58004DF
:100480003CBF01F5801130BD01F0004545F0FE4153
:1004900041F470014FF0000030BD7FEA645C1ABF88
:1004A000194610467FEA655C1CBF0B46024650EABF
:1004B000013406BF52EA033591EA030F41F40021EB
:1004C00030BD00BF90F0000F04BF0021704730B571
:1004D0004FF4806404F132044FF000054FF0000146
:1004E00050E700BF90F0000F04BF0021704730B507
:1004F0004FF4806404F1320410F0004548BF4042DC
:100500004FF000013EE700BF42004FEAE2014FEA30
:1005100031014FEA02701FBF12F07F4393F07F4F0B
:1005200081F06051704732F07F4208BF704793F00E
:100530007F4F04BF41F40021704730B54FF4607421
:1005400001F0004521F000411CE700BF50EA010224
:1005500008BF704730B54FF000050AE050EA0102CD
:1005600008BF704730B511F0004502D5404261EB3D
:1005700041014FF4806404F132045FEA915C3FF47E
:10058000D8AE4FF003025FEADC0C18BF03325FEA1B
:10059000DC0C18BF033202EBDC02C2F1200300FACC
:1005A00003FC20FA02F001FA03FE40EA0E0021FAF1
:1005B00002F11444BDE600BF70B54FF0FF0C4CF4DF
:1005C000E06C1CEA11541DBF1CEA135594EA0C0F91
:1005D00095EA0C0F00F0DEF82C4481EA030621EACC
:1005E0004C5123EA4C5350EA013518BF52EA033507
:1005F00041F4801143F4801338D0A0FB02CE4FF0B9
:100600000005E1FB02E506F00042E0FB03E54FF0E8
:100610000006E1FB03569CF0000F18BF4EF0010EE0
:10062000A4F1FF04B6F5007F64F5407404D25FEADC
:100630004E0E6D4146EB060642EAC62141EA55518F
:100640004FEAC52040EA5E504FEACE2EB4F1FD0CD1
:1006500088BFBCF5E06F1ED8BEF1004F08BF5FEA4F
:10066000500E50F1000041EB045170BD06F0004601
:1006700046EA010140EA020081EA0301B4EB5C04AE
:10068000C2BFD4EB0C0541EA045170BD41F48011A6
:100690004FF0000E013C00F3AB8014F1360FDEBFCB
:1006A000002001F0004170BDC4F10004203C35DAA7
:1006B0000C341BDC04F11404C4F1200500FA05F32A
:1006C00020FA04F001FA05F240EA020001F00042CB
:1006D00021F0004110EBD37021FA04F642EB060141
:1006E0005EEA430E08BF20EAD37070BDC4F10C046B
:1006F000C4F1200500FA04F320FA05F001FA04F22F
:1007000040EA020001F0004110EBD37041F100011A
:100710005EEA430E08BF20EAD37070BDC4F1200525
:1007200000FA05F24EEA020E20FA04F301FA05F28D
:1007300043EA020321FA04F001F0004121FA04F235
:1007400020EA020000EBD3705EEA430E08BF20EA05
:10075000D37070BD94F0000F0FD101F0004640003F
:1007600041EB010111F4801F08BF013CF7D041EAC1
:10077000060195F0000F18BF704703F000465200C5
:1007800043EB030313F4801F08BF013DF7D043EA96
:100790000603704794EA0C0F0CEA135518BF95EA4C
:1007A0000C0F0CD050EA410618BF52EA4306D1D1D3
:1007B00081EA030101F000414FF0000070BD50EAF2
:1007C000410606BF1046194652EA430619D094EA7C
:1007D0000C0F02D150EA013613D195EA0C0F05D166
:1007E00052EA03361CBF104619460AD181EA0301BA
:1007F00001F0004141F0FE4141F470014FF0000072
:1008000070BD41F0FE4141F4780170BD70B54FF00C
:10081000FF0C4CF4E06C1CEA11541DBF1CEA13558C
:1008200094EA0C0F95EA0C0F00F0A7F8A4EB05046E
:1008300081EA030E52EA03354FEA013100F0888065
:100840004FEA03334FF0805545EA131343EA12632E
:100850004FEA022245EA111545EA10654FEA0026E3
:100860000EF000419D4208BF964244F1FD0404F59C
:10087000407402D25B084FEA3202B61A65EB0305F8
:100880005B084FEA32024FF480104FF4002CB6EBB5
:10089000020E75EB030E22BFB61A754640EA0C0035
:1008A0005B084FEA3202B6EB020E75EB030E22BF75
:1008B000B61A754640EA5C005B084FEA3202B6EBB6
:1008C000020E75EB030E22BFB61A754640EA9C0075
:1008D0005B084FEA3202B6EB020E75EB030E22BF45
:1008E000B61A754640EADC0055EA060E18D04FEA03
:1008F000051545EA16754FEA06164FEAC30343EAA3
:1009000052734FEAC2025FEA1C1CC0D111F4801F6F
:100910000BD141EA00014FF000004FF0004CB6E768
:1009200011F4801F04BF01430020B4F1FD0C88BF07
:10093000BCF5E06F3FF6AFAEB5EB030C04BFB6EB12
:10094000020C5FEA500C50F1000041EB045170BD05
:100950000EF0004E4EEA113114EB5C04C2BFD4EB32
:100960000C0541EA045170BD41F480114FF0000EB6
:10097000013C90E645EA060E8DE60CEA135594EA32
:100980000C0F08BF95EA0C0F3FF43BAF94EA0C0F35
:100990000AD150EA01347FF434AF95EA0C0F7FF4AA
:1009A00025AF104619462CE795EA0C0F06D152EAFE
:1009B00003353FF4FDAE1046194622E750EA4106E2
:1009C00018BF52EA43067FF4C5AE50EA41047FF4F3
:1009D0000DAF52EA43057FF4EBAE12E74FF0FF3C58
:1009E00006E000BF4FF0010C02E000BF4FF0010C29
:1009F0004DF804CD4FEA410C7FEA6C5C4FEA430CA2
:100A000018BF7FEA6C5C1BD001B050EA410C0CBFF0
:100A100052EA430C91EA030F02BF90EA020F002052
:100A2000704710F1000F91EA030F58BF994208BFB9
:100A300090422CBFD8176FEAE37040F00100704776
:100A40004FEA410C7FEA6C5C02D150EA013C07D1CD
:100A50004FEA430C7FEA6C5CD6D152EA033CD3D018
:100A60005DF8040B704700BF8446104662468C4612
:100A70001946634600E000BF01B5FFF7B7FF002845
:100A800048BF10F1000F01BD4DF808EDFFF7F4FF6E
:100A90000CBF012000205DF808FB00BF4DF808EDF9
:100AA000FFF7EAFF34BF012000205DF808FB00BF1C
:100AB0004DF808EDFFF7E0FF94BF012000205DF83E
:100AC00008FB00BF4DF808EDFFF7CEFF94BF0120F3
:100AD00000205DF808FB00BF4DF808EDFFF7C4FFEC
:100AE00034BF012000205DF808FB00BF4FEA41023F
:100AF00012F5001215D211D56FF47873B3EB625270
:100B000012D94FEAC12343F0004343EA505311F096
:100B1000004F23FA02F018BF404270474FF0000028
:100B2000704750EA013005D111F0004008BF6FF066
:100B3000004070474FF00000704700BF4A0011D2DC
:100B400012F5001211D20DD56FF47873B3EB625227
:100B50000ED44FEAC12343F0004343EA505323FA33
:100B600002F070474FF00000704750EA013002D1A8
:100B70004FF0FF3070474FF00000704753B94AB94B
:100B8000002908BF00281CBF4FF0FF314FF0FF3095
:100B900000F02AB8ADF1080C6DE904CE00F055F86C
:100BA000DDF804E0DDE9022304B07047D0B50C4B5A
:100BB000002206460F46FFF7FFFCFFF7BFFF044683
:100BC000FFF780FC074B0022FFF7F6FC02460B46BE
:100BD00030463946FFF738FBFFF7B0FF2146D0BD5E
:100BE0000000F03D0000F041704700BF4FEA410CAB
:100BF0007FEA6C5C02D150EA013C0AD14FEA430C17
:100C00007FEA6C5C02D152EA033C02D14FF0000053
:100C100070474FF00100704738B505460C4600227A
:100C2000002328462146FFF739FF28B928462146E8
:100C3000BDE83840FFF7BABF284604F10041FFF78E
:100C4000B5FF404261EB410138BD2DE9F04F074649
:100C50008C460846099E15463C461946002B40F036
:100C6000C6808242B2FA82F746D94FB1C7F1200E50
:100C700024FA0EFE00FA07F3BD404EEA030CBC4016
:100C80004FEA15481FFA85FEBCFBF8F9220C08FB59
:100C900019C309FB0EFA42EA03439A4528D9EB1817
:100CA00009F1FF3004D29A4502D9A9F102002B4480
:100CB000A3EB0A03A4B2B3FBF8F208FB123302FB66
:100CC0000EFE44EA0344A64514D92C1902F1FF3361
:100CD00003D2A64501D9931E2C44A4EB0E0443EA8B
:100CE00000401EB1FC40002334607360BDE8F08F0B
:100CF0004846DDE71346F0E702B9FFDE87BB831AFB
:100D000001214FEA154EAAB2B3FBFEFC200C0EFBEC
:100D10001C330CFB02F840EA0343984563D9EB18F7
:100D20000CF1FF3004D2984502D9ACF102002B44FB
:100D3000A3EB0803A4B2B3FBFEFC0EFB1C330CFBBD
:100D400002F244EA0344A2424FD92C190CF1FF33BA
:100D500004D2A24202D9ACF102032C44A41ABEE789
:100D6000C7F1200C20FA0CF800FA07F324FA0CFC67
:100D7000BD404CEA03024FEA154EABB2B8FBFEFC95
:100D8000110C0EFB1C800CFB03F941EA004081456D
:100D900004FA07F423D928180CF1FF3104D2814555
:100DA00002D9ACF102012844A0EB090092B2B0FBD9
:100DB000FEFC0EFB1C000CFB03F842EA00439845C6
:100DC0000FD9EB180CF1FF3204D2984502D9ACF1DF
:100DD00002022B44A3EB080342EA014191E761467A
:100DE000E2E76246F6E76046A2E76346B6E783427B
:100DF00005D90EB1C6E900700021084676E7B3FABE
:100E000083F181B9834201D3BA420AD8BC1A60EB9C
:100E1000030301209C46002E68D0C6E9004C002147
:100E200064E70846F7E7C1F1200C8B4022FA0CF486
:100E30001C4302FA01F500FA01F327FA0CF220FA3A
:100E40000CFB4FEA14491343BBFBF9F81FFA84FE6D
:100E500009FB18BB1A0C08FB0EFA42EA0B4292453A
:100E600007FA01F73ED9A21808F1FF3004D29245E3
:100E700002D9A8F102002244A2EB0A029BB2B2FB03
:100E8000F9F809FB182208FB0EFE43EA02429645D8
:100E90002AD9A21808F1FF3304D2964502D9A8F145
:100EA0000203224443EA0040A0FB0593A2EB0E029A
:100EB0009A42CE46984602D306D14F4504D2B9EBAA
:100EC000050E63EB0408013886B1B7EB0E0362EB45
:100ED000080707FA0CFCCB404CEA0303CF40C6E9F5
:100EE00000379CE74046C7E74346DBE73146FDE66F
:100EF00010F8012B11F8013B012A28BF9A42F7D0C4
:100F0000D01A7047034613F8012B002AFBD1181A98
:100F1000013870470000000070B586B0054644688F
:100F20000669206813F0BBF950B10023227E93427A
:100F300022D2E269D25C032A10D80133DBB2F5E792
:100F400023681B680293284B0193009003460122FB
:100F5000264912F0C0FE6FF012003DE02B680293AC
:100F6000234B019300200090034601221F4912F0F9
:100F7000B2FE6FF015002FE02068616883685B683F
:100F800004AA9847A58C0498A0FB050114A3D3E9F3
:100F90000023DDF814C005FB0C11FFF7EFFD3060F6
:100FA000258C0498A0FB05010DA3D3E90023DDF8EF
:100FB00014C005FB0C11FFF7E1FD7060648C049810
:100FC000A0FB040106A3D3E90023059D04FB051142
:100FD000FFF7D4FDB060002006B070BDAFF3008015
:100FE00000CA9A3B000000006073010840590108E4
:100FF0007C730108000000002DE9F04F83B08246A9
:10100000894690461E46D0F808B04068ABEB000019
:10101000FFF758FA04460D46A6EB0800FFF752FA10
:1010200006460F46DAF80C00A0EB0B00FFF74AFA71
:10103000CDE90001A8EB0900FFF744FA82468B4690
:1010400032463B4620462946FFF7B6FA8046894697
:1010500052465B46DDE90001FFF7AEFA02460B4659
:1010600040464946FFF7F0F88046894632463B46FF
:1010700020462946FFF7EAF8DDE90023FFF7E6F806
:1010800052465B46FFF7E2F802460B4640464946A9
:10109000FFF7BCFBFFF7C0FDFFF760FA08A3D3E939
:1010A0000023FFF789FA08A3D3E90023FFF784FAA6
:1010B00013F01BFE03B0BDE8F08F00BFAFF300805C
:1010C000FA48CE3B1835B13D0000001319DDB1419F
:1010D0002DE9F04F446A99B016461F46CDE90467E2
:1010E000DDF89480054674B910200EF061FF0246C9
:1010F000686220B9A84BEA21A8480EF029FFC0E990
:1011000001440460C4606B6A196851B15A684A604E
:10111000012393408B6028460FF076FF6B6A002214
:101120001A603B1EB9BF23F0004305930023C8F8A3
:101130000030DDF814909A4BBCBF0122C8F80020A3
:1011400033EA090319D1249A42F20F731360C9F3E9
:101150001303334300F08085269B53B9914B22E063
:10116000914B03930833269A1360039819B0BDE896
:10117000F08F8C4B03930333F5E7DDE90434CDE9BD
:101180000C34DDE90C0100220023FFF77DFC8046D2
:1011900058B1249A01231360269B002B00F0598537
:1011A00082481860431E0393DFE716AB019317AB29
:1011B00000932846DDE90C2310F09EF9C9F30A5488
:1011C0008346002C7ED00D9BCDF84C80C3F31303D7
:1011D000DDE90C0143F07F5141F44011A4F2FF34EA
:1011E000734B0022FFF730F865A3D3E90023FFF724
:1011F000E3F965A3D3E90023FFF728F80646204664
:101200000F46FFF76FF962A3D3E90023FFF7D4F984
:1012100002460B4630463946FFF718F806460F4699
:10122000FFF764FC00228246002330463946FFF770
:1012300035FC48B15046FFF755F932463B46FFF7BB
:1012400023FC08B90AF1FF3ABAF1160F57D8594BE7
:1012500003EBCA03D3E90023DDE90C01FFF71EFC11
:1012600000284ED00AF1FF3A00230F93169B1C1B57
:10127000631E099345BFC4F10103069300230023B5
:101280004CBF09930693BAF1000F3CDB099BCDF8E4
:1012900038A05344099300230A93229B092B00F2A0
:1012A0008D80052BC4BF043B2293229BA3F1020334
:1012B000CCBF00240124032B00F28C80DFE803F074
:1012C0002D4F4D5BDDE916431C4404F23243202BC5
:1012D000C3BFC3F1400304F2124009FA03F3C3F1A0
:1012E0002003C6BF26FA00F0184306FA03F0FFF702
:1012F000E9F80123A1F1F871013C139370E7012390
:10130000B3E70F90B2E7069BA3EB0A030693CAF17B
:1013100000030A9300230E93BFE700230B93239B44
:10132000002B5ADC4FF00109CDF820904B46CDF848
:101330008C90686A00224260042202F114069E42E8
:10134000416850D928460FF01FFE039000284ED167
:10135000194B02464FF4D571CEE60123DEE7002398
:101360000B93239B0AEB030909F10103012B08935B
:10137000B8BF0123DDE70123F2E700BFAFF3008030
:1013800061436F63A787D23FB3C8608B288AC63F8B
:10139000FB799F501344D33F9B7E0108B27E010826
:1013A0000000F07F977E01088E7E01086B7E0108A9
:1013B0000000F83F885A01080C7F0108012400232F
:1013C00022930B944FF0FF390022CDF82090122386
:1013D0002392AEE701230B93F4E7DDF88C90CDF870
:1013E00020904B46A5E7013141605200A5E76B6AAA
:1013F000039A1A60089B0E2B00F2A880002C00F0C4
:10140000A580BAF1000F34DD9A4A0AF00F0302EB0F
:10141000C303D3E900341AF4807FCDE910344FEAD6
:101420002A1416D0944BDDE90C01D3E90823FFF709
:10143000EDF9CDE9040104F00F0403278E4E54B9F1
:10144000DDE91023DDE90401FFF7E0F9CDE904014E
:1014500029E00227F2E7E10708D5DDE91001D6E926
:101460000023FFF7A9F8CDE9100101376410083611
:10147000E5E700F0A580CAF100047E4B7E4E04F043
:101480000F0203EBC203D3E90023DDE90C01FFF7F0
:1014900093F8CDE90401241100230227002C40F029
:1014A0008480002BD2D10F9B002B00F08B80DDE9D4
:1014B0000434CDE91034DDE91001704B0022FFF750
:1014C000EDFA00287ED0089B002B7BD0B9F1000FED
:1014D00038DDDDE910016A4B0022FFF76DF8CDE938
:1014E00004010AF1FF3801374C463846FEF7FAFF8F
:1014F000DDE90423FFF760F8624B0022FEF7A6FE49
:10150000A1F15076CDE910011196002C5DD1DDE9F5
:1015100004015D4B0022FEF797FE02460B46CDE923
:101520000423109A3346FFF7D7FA002840F09C8234
:10153000DDE90401109A06F10043FFF7AFFA002835
:1015400040F09082DDE90C34CDE90434179B002B88
:10155000C0F25281BAF10E0F00F34E81454B03EBFE
:10156000CA03D3E90034CDE90634239B002B80F273
:10157000DB80089B002B00F3D78040F07282424B47
:101580000022DDE90601FFF717F8DDE90423FFF784
:1015900099FA089C2646002840F04882039F312390
:1015A00007F8013B0AF1010A44E2E20705D5D6E952
:1015B0000023FFF701F801370123641008366DE7B7
:1015C000022770E7089CD0468FE70399294B2144F6
:1015D00012910B9903EBC403DDE9106753E9022371
:1015E000002955D029490020FFF710F93B46324623
:1015F000FEF72AFECDE91001039FDDE90401FFF7A4
:1016000075FA0446FEF76EFF02460B46DDE904015B
:10161000FEF71AFE303402460B46CDE9042307F8E4
:10162000014BDDE91023FFF739FA002874D1DDE919
:10163000042312490020FEF707FEDDE91023FFF71F
:101640002DFA002840F0B780129B9F423FF47AAFFA
:10165000DDE910010A4B0022FEF7AEFF084BCDE991
:1016600010010022DDE90401FEF7A6FFCDE9040127
:10167000C3E700BF885A0108605A01080000F03F24
:101680000000244000001C40000014400000E03F27
:1016900030463946FEF790FFCDE91001129B039CBE
:1016A0001493DDE90401FFF721FA1590FEF71AFF04
:1016B00002460B46DDE90401FEF7C6FD159B3033FB
:1016C00004F8013B129B9C4206460F464FF0000275
:1016D00024D1A44BDDE91001FEF7B8FD02460B460C
:1016E00030463946FFF7F8F9002863D1DDE91023C9
:1016F0009C490020FEF7A8FD02460B4630463946BD
:10170000FFF7CCF900283FF41DAF149F7B1E149304
:1017100017F8013C302BF8D0C2463BE0924BFEF765
:101720004BFFCDE90401BCE7DDE90489039FDDE956
:10173000062340464946FFF769F8FFF7D7F9044604
:10174000FEF7D0FEDDE90623FEF736FF04F1300692
:1017500002460B4640464946FEF776FD07F8016B08
:10176000039EDDF820C0BE1BB44502460B4636D1B1
:10177000FEF76CFDDDE9062380468946FFF7ACF9EC
:1017800058BBDDE9062340464946FFF77DF908B11D
:10179000E10722D4284659460FF036FC00233B705F
:1017A000249B0AF101001860269B002B3FF4DDAC5E
:1017B0001F60DAE427463B461F4613F8012D392AFD
:1017C00007D1039A9A42F7D10399302208F1010810
:1017D0000A701A7801321A709EE7D046EBE7624B26
:1017E0000022FEF7E9FE0022002380468946FFF72B
:1017F0004BF900289BD0CDE70B9A002A00F0D0804F
:10180000229A012A00F3B280139A002A00F0A680DF
:1018100003F233430A9C069F069A1A440692099AD9
:1018200001211A44284609920FF056FC0646002F63
:101830000CDD099B002B09DDBB42069AA8BF3B4685
:10184000D21A0692099AFF1AD31A09930A9BF3B186
:101850000B9B002B00F0A880002C10DD31462246A7
:1018600028460FF0F7FC5A460146064628460FF078
:1018700049FC5946804628460FF0C6FBC3460A9BE2
:101880001A1B04D0594628460FF0E4FC8346012178
:1018900028460FF021FC0E9B002B044640F3868067
:1018A0001A46014628460FF0D5FC229B012B044620
:1018B0007FDD4FF00008236904EB8303186913F000
:1018C0007DFCC0F12000099B184410F01F0000F0BF
:1018D0009280C0F12003042B40F38A80C0F11C00E9
:1018E000069B03440693099B034407440993069B04
:1018F000002B05DD59461A4628460FF005FD8346A4
:10190000099B002B05DD21461A4628460FF0FCFCFA
:1019100004460F9B002B70D02146584613F09BFCC9
:1019200000286ADA002359460A2228460FF08EFB67
:101930000B9B0AF1FF3A8346002B00F0948131465D
:1019400000230A2228460FF081FBB9F1000F06465A
:1019500000F39380229B022B57DC8EE0169BC3F191
:10196000360357E70000E03F00002440089B5C1E60
:101970000A9BA342BFBF0A9B0A94E21A0E9BB6BF02
:101980009B181C1B0E93089BB8BF0024002BB9BFEB
:10199000069B089A069F089BBCBF9F1A00233BE743
:1019A0000A9C069F0B9E42E70A9A6BE7229B012B3B
:1019B00019DC049BBBB9059BC3F313039BB9059BBF
:1019C00023F000431B0D1B0583B1069B01330693D7
:1019D000099B013309934FF001080E9B002B7FF404
:1019E0006AAF01206FE74FF00008F6E79846F4E78A
:1019F0003FF47DAF18461C3072E7089B002B36DCA5
:101A0000229B022B33DDDDF82090B9F1000F0DD1C0
:101A100021464B46052228460FF018FB0146044696
:101A2000584613F018FC00283FF7B8AD239B039FDE
:101A30006FEA030A4FF00008214628460FF0E4FA47
:101A4000002E3FF4A7AEB8F1000F05D0B04503D08B
:101A5000414628460FF0D8FA314628460FF0D4FA0E
:101A600098E600242646E1E7C246264696E50B9B0B
:101A7000DDF82090002B00F0FD80002F05DD3146C1
:101A80003A4628460FF040FC0646B8F1000F5CD0FD
:101A9000716828460FF078FA074628B9804B02464D
:101AA00040F2EA21FFF728BB32690232920006F1C8
:101AB0000C010C3013F023F90122394628460FF0AF
:101AC00023FC039B01330893039B4B440A93049B21
:101AD00003F00103B04609930646089B2146013BEB
:101AE0005846049313F089FA034630330690414672
:101AF00058460B9313F0AFFB3246814621462846E9
:101B00000FF072FCC2680B9B074602BB01465846A9
:101B100013F0A1FB0B9B024639462846CDE90B3258
:101B20000FF072FA229B0C9A089F43EA0201099B6C
:101B30000B430B9B0DD1392B29D0B9F1000F01DDDF
:101B4000069B3133049A137076E73046B9E70122D9
:101B5000E2E7B9F1000F06DB229941EA0909099988
:101B600059EA010120D1002AECDD5946012228461C
:101B700008930FF0C9FB2146834613F06CFB002845
:101B8000089B02DCDED1DA07DCD5392BD8D1049AE8
:101B9000392313703B461F46013B17F8012C392AA5
:101BA00050D001321A7047E7002A03DD392BEED0FE
:101BB0000133C7E7089A0A9902F8013C8A422AD001
:101BC000594600230A2228460FF040FAB0458346C2
:101BD0004FF000034FF00A024146284607D10FF0AC
:101BE00035FA80460646089B0133089375E70FF0E7
:101BF0002DFA3146804600230A2228460FF026FAA5
:101C00000646F0E7B9F1000F039ACCBF4F46012713
:101C100017444FF0000859460122284608930FF058
:101C200073FB2146834613F016FB0028B2DC02D179
:101C3000089BDB07AED43B461F4613F8012D302A24
:101C4000FAD0F9E6039A9A42A5D10AF1010A3123A2
:101C500079E7144BFFF7A7BA269B002B7FF480AAE5
:101C6000114BFFF7A0BAB9F1000F03DC229B022B46
:101C70003FF7CBAE039F2146584613F0BEF900F163
:101C8000300307F8013B039ABA1A9145BADD594669
:101C900000230A2228460FF0D9F98346EBE700BF5C
:101CA0000C7F01086A7E01088E7E010870B582B043
:101CB000054600248DF8074003E00A2000210DF0BE
:101CC0007FFB002200231A480CF020FD0028F4D1ED
:101CD00001E00134E4B2072C17D8164B1B5D002B32
:101CE000F7D0154901EBC4010022144BD1E90001E2
:101CF000FEF7DEFE0028ECD00E4B00221A559DF8B0
:101D0000073001338DF80730E3E709480CF088FD10
:101D1000002200230DF1070109480CF03BFC47F2BB
:101D20003052002328460CF0BBFF02B070BD00BF4C
:101D300088070020581100202009002000001440CE
:101D40009C07002080B5AEB009232D93002121917E
:101D500022912391302214A812F0DFFF664812F07E
:101D60009EFA20B90A2000210DF02AFBF6E763490C
:101D700014A812F0C1FB002407942E22214608A8C3
:101D800012F0CBFF5E4B5F4A5F49204609F002FB31
:101D900001215E4811F0E6FE0DF082FA47F2305262
:101DA000002314A80CF074FF2DA80CF023F925468D
:101DB00006E0574BDB6803F4FC23B3F5005F0CD05F
:101DC00000220023012152480DF088FF0028F0D0A6
:101DD0000A2000210DF0F4FAF2E74D4B1A690021B8
:101DE0009160DA6861F35232DA600A22002321A995
:101DF00048480CF02BFC60B9454B1B69DB68022B93
:101E00000BD0DDDB033B012BDAD82DA80CF0F2F868
:101E1000D6E72DA80CF0EEF8D2E7BFF35B8F2D9B31
:101E2000BFF35B8F092B11D0BFF35B8F2D9BBFF3EB
:101E30005B8F082BC4D1BDF88820142124A812F090
:101E4000D2F978BB2DA80CF0D5F8B9E7BDF88820F9
:101E500006212BA812F0C7F900B311F061FF054667
:101E60000C469DF8AD3001339DF8AF109DF8AE20C3
:101E700008208DF8A4008DF8A5308DF8A6108DF8F7
:101E8000A7200023ADF8A8302DAB019329AB009318
:101E90002A4623462BA812F0B1F991E72DA80CF0A1
:101EA000A9F88DE711F024FF07460E4611F038FF20
:101EB0008146884603E00A2000210DF081FA0022C5
:101EC000002315480CF022FC0028F4D1134B059395
:101ED000134B0493CDF80890CDF80C800097019631
:101EE0002A46234624A812F0C3F90B480CF098FCAC
:101EF0002DA80CF07FF863E7B4550108AD1C00086D
:101F000089DF0008D1DF0008ADDF000800D02324FE
:101F100030040020D007002088070020581100203E
:101F20002009002070B582B0144B01930BF078FAB1
:101F3000134E1449304612F0DFFA4FF0FF324FF0E3
:101F4000FF3301A80BF03CF90F4B104A92E8030055
:101F500083E8030001200BF0F5FD00240025224654
:101F60002B4630460CF094FE42F690120023204699
:101F700029460BF0D9FD02B070BD00BF240400203B
:101F800060090020911F000834190020207B0108FF
:101F9000F0B591B000AF04466D4601233B810223AA
:101FA0007B81224B7B6000230AE007F1400202EBB9
:101FB000830252F83C1C07F1380242F82310013327
:101FC000002BF2D002237B81194B7B6000230AE0B7
:101FD00007F1400202EB830252F83C1C07F13C027D
:101FE00042F823100133002BF2D000267E60032339
:101FF0003B717B687B633146042363F388110C23B8
:1020000063F35221334607F134020A480FF04BFFC5
:10201000AD46314608480BF073FD4CF6D0720023F4
:1020200020460CF03DFE4437BD46F0BD505B010834
:10203000705B0108B058010808000020F0B5B7B087
:1020400000AF0C467A608378042B00F2D781DFE87A
:1020500013F0E300050080013E013E0105466E4697
:1020600001233B8202237B82BE4BFB6000230AE0FC
:1020700007F1D80202EB830252F8CC1C07F1700280
:1020800042F823100133002BF2D002237B82B64B9F
:10209000FB6000230AE007F1D80202EB830252F84A
:1020A000CC1C07F1740242F823100133002BF2D04C
:1020B0000023FB6003223A73FA68FA661946042289
:1020C00062F388110C2262F3522107F16C02A748D7
:1020D0000FF0E9FEB5462B78032B15D06D46012392
:1020E0003B8202237B82A24BFB600023002B6CD13E
:1020F00007F1D80202EB830252F8CC1C07F1A002D0
:1021000042F823100133F1E76D4601233B8202239D
:102110007B82984BFB6000235BB907F1D80202EB8E
:10212000830252F8CC1C07F1880242F823100133D5
:10213000F2E702237B828C4BFB6000235BB907F143
:10214000D80202EB830252F8CC1C07F18C0242F851
:1021500023100133F2E70026FE6003233B73FB6884
:10216000C7F884303146042363F388110C2363F3EA
:102170005221334607F184027C480FF094FEAD46AD
:1021800004200BF0DFFC7C4BBFF35B8F53E8002F88
:1021900043E800610029F9D1BFF35B8F774B7B6087
:1021A0004FF0FF324FF0FF33381D0BF009F8744B3E
:1021B0007B604FF0FF324FF0FF33381D0BF000F81B
:1021C000012120460BF09CFC7EE002237B82664BC3
:1021D000FB6000235BB907F1D80202EB830252F8DF
:1021E000CC1C07F1A40242F823100133F2E70023CC
:1021F000FB6003223A73FA68C7F89C201946042250
:1022000062F388110C2262F3522107F19C025748B5
:102210000FF049FEAD46C1E76D4601233B82022324
:102220007B82584BFB6000230AE007F1D80202EBE7
:10223000830252F8CC1C07F1B80242F82310013394
:10224000002BF2D002237B82474BFB6000230AE085
:1022500007F1D80202EB830252F8CC1C07F1BC0252
:1022600042F823100133002BF2D00023FB6003223D
:102270003A73FA68C7F8B4201946042262F3881149
:102280000C2262F3522107F1B40238480FF00BFE22
:10229000AD463D4B7B604FF0FF324FF0FF33381DB2
:1022A0000AF08EFF02200BF04DFC334B0121BFF3EF
:1022B0005B8F53E8002F43E800100028F9D1BFF3EB
:1022C0005B8F20460BF01CFCDC37BD46F0BD6D4635
:1022D00001233B8202237B822C4BFB6000230AE01C
:1022E00007F1D80202EB830252F8CC1C07F140023E
:1022F00042F823100133002BF2D002237B821A4BC9
:10230000FB6000230AE007F1D80202EB830252F8D7
:10231000CC1C07F1440242F823100133002BF2D009
:102320000026FE6003233B73FB68FB6331460423F6
:1023300063F388110C2363F35221334607F13C0207
:102340000A480FF0B0FDAD46314620460BF0D8FBF1
:10235000BAE76C4601233B8202237B820C4BFB6075
:10236000002322E0845B0108A45B0108B058010847
:10237000DC5B0108B85B01082C190020CC030020AD
:1023800064030020105C010858030020285C010849
:10239000485C010807F1D80202EB830252F8CC1C1A
:1023A00007F1580242F823100133002BF2D0022328
:1023B0007B82304BFB6000230AE007F1D80202EB7E
:1023C000830252F8CC1C07F15C0242F8231001335F
:1023D000002BF2D00023FB6003223A73FA687A657F
:1023E0001946042262F388110C2262F3522107F18C
:1023F000540221480FF057FDA54665E76C460123BE
:102400003B8202237B821D4BFB6000235BB907F1FB
:10241000D80202EB830252F8CC1C07F1D00242F83A
:1024200023100133F2E702237B82124BFB6000236F
:102430005BB907F1D80202EB830252F8CC1C07F11A
:10244000D40242F823100133F2E70023FB60032299
:102450003A73FA68C7F8CC201946042262F388114F
:102460000C2262F3522107F1CC0203480FF01BFD4E
:10247000A54629E7A45B0108B0580108645C01087F
:10248000B0B5AEB000AF04466D4601233B810223D8
:102490007B81B54B7B6000230AE007F1B80202EBB9
:1024A000830252F8B41C07F1380242F823100133BA
:1024B000002BF2D002237B81AC4B7B6000230AE02F
:1024C00007F1B80202EB830252F8B41C07F13C0298
:1024D00042F823100133002BF2D000237B6003224B
:1024E0003A717A687A631946042262F388110C22E1
:1024F00062F3522107F134029D480FF0D4FCAD463F
:10250000A378042B00F2F480DFE803F04003B77CEB
:102510007C006C4601233B8102237B81954B7B60D1
:1025200000235BB907F1B80202EB830252F8B41C36
:1025300007F1800242F823100133F2E702237B8186
:102540008A4B7B6000235BB907F1B80202EB830280
:1025500052F8B41C07F1840242F823100133F2E769
:1025600000237B6003223A717A68FA6719460422D5
:1025700062F388110C2262F3522107F17C027C483D
:102580000FF091FCA546B837BD46B0BD6C4601239F
:102590003B8102237B81784B7B6000235BB907F191
:1025A000B80202EB830252F8B41C07F1980242F819
:1025B00023100133F2E702237B816C4B7B60002305
:1025C0005BB907F1B80202EB830252F8B41C07F1C1
:1025D0009C0242F823100133F2E700237B600322C0
:1025E0003A717A68C7F894201946042262F3881178
:1025F0000C2262F3522107F194025D480FF053FC64
:10260000A546C0E76C4601233B8102237B815B4BDF
:102610007B6000235BB907F1B80202EB830252F83A
:10262000B41C07F1500242F823100133F2E70223F1
:102630007B814E4B7B6000235BB907F1B80202EB54
:10264000830252F8B41C07F1540242F823100133FC
:10265000F2E700237B6003223A717A68FA64194634
:10266000042262F388110C2262F3522107F14C021A
:102670003F480FF018FCA54685E76C4601233B81D7
:1026800002237B813E4B7B6000235BB907F1B802DC
:1026900002EB830252F8B41C07F1680242F82310DF
:1026A0000133F2E702237B81304B7B6000235BB96F
:1026B00007F1B80202EB830252F8B41C07F16C0276
:1026C00042F823100133F2E700237B6003223A71C2
:1026D0007A687A661946042262F388110C2262F342
:1026E000522107F1640222480FF0DDFBA5464AE7BC
:1026F0006C4601233B8102237B81224B7B600023BC
:102700005BB907F1B80202EB830252F8B41C07F17F
:10271000B00242F823100133F2E702237B81134B0E
:102720007B6000235BB907F1B80202EB830252F829
:10273000B41C07F1B40242F823100133F2E700237E
:102740007B6003223A717A68C7F8AC2019460422EC
:1027500062F388110C2262F3522107F1AC020448A3
:102760000FF0A1FBA5460EE7845C0108985C010808
:10277000B0580108845B0108105C0108285C01085E
:10278000485C0108645C0108F0B59FB000AF0546E5
:102790000023BB62BB85042287F82920027887F8D2
:1027A0002D206F4A02216F480AF086FE002800F0B3
:1027B0008F806B4BDB78002B00F08D80012B40F07D
:1027C00091806E463B8102237B81674B7B600023B7
:1027D0000AE007F1780202EB830252F8741C07F159
:1027E000400242F823100133002BF2D002237B81F8
:1027F0005E4B7B6000230AE007F1780202EB830264
:1028000052F8741C07F1440242F823100133002BE4
:10281000F2D000247C6003233B717B68FB6321467C
:10282000042363F388110C2363F35221234607F139
:102830003C024F480FF037FBB5466E4601233B8103
:1028400002237B814B4B7B600AE007F1780303EBAB
:10285000840252F8741C07F1580242F82410013423
:10286000002CF2D002237B81404B7B6000230AE0E6
:1028700007F1780202EB830252F8741C07F15C0244
:1028800042F823100133002BF2D000247C60032394
:102890003B717B687B652146042363F388110C231D
:1028A00063F35221234607F1540231480FF0FBFA3B
:1028B000B5462B48037887F82830837887F82A3084
:1028C0002B7887F82D30224607F12801FFF7B6FB59
:1028D0007C37BD46F0BD002207F128012048FFF7F4
:1028E000CFFDF5E76C4601233B8102237B81224B20
:1028F0007B6000230AE007F1780202EB830252F8C2
:10290000741C07F1700242F823100133002BF2D03F
:1029100002237B81154B7B6000230AE007F17802DC
:1029200002EB830252F8741C07F1740242F8231080
:102930000133002BF2D000237B6003223A717A68C6
:10294000FA661946042262F388110C2262F35221BE
:1029500007F16C0206480FF0A6FAA546B8E700BFDB
:102960006C11002068110020AC5C0108BC5C0108FF
:10297000B0580108845C0108C85C010880B5A8B0A3
:1029800000AF002387F83F30BD4B07F12C040FCB7D
:1029900084E80F00BB4811F082FC20B10023BB6229
:1029A000FFF7C0FA7AE04FF0FF304FF0FF310CF044
:1029B00007FDF3E7B448437100210BF0A1F87CE078
:1029C000B24C637104200BF0BDF8B14B0022BFF391
:1029D0005B8F53E8001F43E800200028F9D1BFF3C4
:1029E0005B8FAC4BBB624FF0FF324FF0FF3307F110
:1029F00028000AF0E5FBA84BBB624FF0FF324FF016
:102A0000FF3307F128000AF0DBFB012120460BF021
:102A100077F864E0A1480EF083FE02206CE06C467B
:102A200001233B8102237B819D4B7B6000235BB9AB
:102A300007F1A00202EB830252F89C1C07F180020E
:102A400042F823100133F2E702237B81954B7B6030
:102A500000235BB907F1A00202EB830252F89C1C31
:102A600007F1840242F823100133F2E700237B6070
:102A700003223A717A68FA671946042262F38811D0
:102A80000C2262F3522107F17C0287480FF00BFA07
:102A9000A54607F12C017B480AF0C4FF0022002361
:102AA00007F13F0181480BF0D1FD60B9764B5A79AF
:102AB00097F83F309A427FF47DAF97F83F307C4AD9
:102AC0005371724A5371BFF35B8F714B1B68BFF335
:102AD0005B8F23B197F83F30012B3FF471AF002497
:102AE0000A2000210CF06CFC0BF01EFA0134714B33
:102AF0009C428FD00028F3DB01281AD0022857D03F
:102B000000288CD06C4601233B8102237B816A4BD9
:102B10007B600023002B40F08B8007F1A00202EBCA
:102B2000830252F89C1C07F1980242F823100133EB
:102B3000F0E76C4601233B8102237B815F4B7B6086
:102B400000235BB907F1A00202EB830252F89C1C40
:102B500007F1680242F823100133F2E702237B8178
:102B6000504B7B6000235BB907F1A00202EB8302AC
:102B700052F89C1C07F16C0242F823100133F2E773
:102B800000237B6003223A717A687A661946042230
:102B900062F388110C2262F3522107F16402424869
:102BA0000FF081F9A54607F13F00FFF7EDFD75E74E
:102BB0006C4601233B8102237B81414B7B600023D8
:102BC0005BB907F1A00202EB830252F89C1C07F1EB
:102BD000500242F823100133F2E702237B81314B8C
:102BE0007B6000235BB907F1A00202EB830252F87D
:102BF0009C1C07F1540242F823100133F2E7002332
:102C00007B6003223A717A68FA641946042262F3FF
:102C100088110C2262F3522107F14C0222480FF076
:102C200042F9A54607F12C0116480AF099FA35E752
:102C300002237B811B4B7B6000235BB907F1A00261
:102C400002EB830252F89C1C07F19C0242F823100D
:102C50000133F2E700237B6003223A717A68C7F8F8
:102C600094201946042262F388110C2262F3522147
:102C700007F194020C480FF016F9A5460EE700BFC5
:102C8000285A0108CC550108080000200000002047
:102C90002C190020CC03002064030020EC5C010808
:102CA0000C5D0108205D0108B05801089C07002058
:102CB00060110020809698005C5D01082C5D010881
:102CC000485D01082DE9F04F89B0029210F0030A27
:102CD00040F0158207468B46041DE0B127B1E21B88
:102CE00004325A4500F20E825D1ECDF800A0CDF8E8
:102CF0000CA0CDF804A000264FF00408C14607B18F
:102D00002360C64A9342C0F05A81C54A9342C0F03C
:102D10007F81002254E101F0070B5C44CBF1080BEA
:102D2000DCE7252B05D101264FF00408C14600E061
:102D30000026654605F1010C6B78002B00F08481BC
:102D4000002EEED0A3F120015A29F1D801A252F8A9
:102D500021F000BF332D0008312D0008312D00086F
:102D6000332D0008312D0008312D0008312D0008C9
:102D7000312D0008312D0008312D0008E12E00080A
:102D8000332D0008312D0008332D0008332D0008A5
:102D9000312D0008332D0008332D0008332D000895
:102DA000332D0008332D0008332D0008332D000883
:102DB000332D0008332D0008332D0008312D000875
:102DC000312D0008312D0008312D0008312D00086B
:102DD000312D0008312D0008492F0008312D000841
:102DE000312D0008312D0008492F0008492F000817
:102DF000492F0008312D0008312D0008312D000821
:102E0000312D0008332D0008312D0008312D000828
:102E1000312D0008312D0008312D0008312D00081A
:102E2000312D0008312D0008312D0008312D00080A
:102E3000312D0008D92E0008312D0008312D000851
:102E4000312D0008312D0008312D0008312D0008EA
:102E5000312D0008312D0008492F0008312D0008C0
:102E6000D92E0008D92E0008492F0008492F000844
:102E7000492F0008332D0008D92E0008C12E000864
:102E8000312D0008332D0008312D0008A92F00082E
:102E9000D92E0008A92F0008312D0008312D000877
:102EA000A92F0008D12E0008D92E0008312D0008C6
:102EB000312D0008D92E0008312D0008C92E000838
:102EC0004FF00808C14634E74FF00408C14630E728
:102ED0004FF00408C1462CE72A786C2A26D0002639
:102EE00004EB0802013AC8F100010A40144627B178
:102EF000D11B49448B45C0F00881732B59D0B9F1DF
:102F0000040F00F09980B9F1080F40F00781129B7F
:102F1000073323F0070303F108011291D3E90001FD
:102F20000FB1C2E9000102F1080402E71CF8022C0B
:102F30006C2A04D000264FF00408C146D0E70026D2
:102F40004FF00808C146CBE72B784C2B1CD0129BC6
:102F5000073323F0070303F108021292D3E90001BB
:102F6000E21D22F0070247B1D31B08335B4515D899
:102F70002B784C2B15D0C2E9000102F10804002681
:102F80004FF00808C146D4E6129B073323F007032D
:102F900003F108021292D3E90001E1E76FF01B0090
:102FA000AAE0C2E90001E8E700264FF00408C146A4
:102FB00096E7129B1A1D12921B6865469FE6002237
:102FC000029901F00101104602B1F9B1A4EB070C1E
:102FD0004FEA9C0219B1BCF5007F80F099800199FD
:102FE0000F2900F29880EFB1D2B208AB0B4403F87E
:102FF000102C78B162F07F0208AB0B4403F8102C60
:10300000009B01330093019B01330193043491E64B
:103010000122D5E7039B01330393F4E774530108BE
:10302000847F010810B10BF1010BECE71846FDF7A6
:1030300069FF831C9B44E6E7129B191D12911B68D4
:1030400007B11360141D74E6E31BB3F5806F68D2FB
:103050005FB100223A609B083B70039B7B70009B32
:10306000BB70D3B9DDF8049039E05B44A3F10800EC
:1030700042E00133984213D908AA1A4412F8101CEE
:1030800012F9102C002AF4DA01F07F01E21B013260
:10309000934549D304F8011BEBE753460198E9E750
:1030A000DDF804901BE008AB534413F8106C57F89C
:1030B0002680002347F826304046FDF723FF451CB5
:1030C000E31B2B4401339B4531D304F8016B2A46A3
:1030D0004146204611F013FE2C440AF1010AD14565
:1030E00009D9009B002BDED008AB534413F9103CE8
:1030F000002BD8DAF1E7E01B09B0BDE8F08F6FF0E4
:103100000D00F9E76FF01B00F6E76FF01B00F3E727
:103110006FF01500F0E76FF01500EDE76FF01500A8
:10312000EAE76FF01500E7E76FF01B00E4E76FF0E8
:103130001B00E1E708B50B6801330B60014B1B680E
:10314000984708BD10000020014B1860704700BF71
:103150001000002000B583B002460B46002101910B
:1031600001A9034800F02CFA03B05DF804FB00BF8E
:103170003531000810B584B0044601900291002159
:10318000039101A9054800F01BFA039B029A9342A0
:1031900001DA0022E254039804B010BDF1160108D0
:1031A00084460268002005E000EB8000013203EB5A
:1031B0004000303813780449595C11F0040FF3D102
:1031C000CCF80020704700BF497D010870B582B07F
:1031D000044600230360436083604B78252B02D0B4
:1031E0004E1C01251FE0881CE37045E1237843F065
:1031F00004032370B5B1013614E0237843F00803CB
:103200002370F7E7237843F010032370F2E7237865
:1032100043F020032370EDE7237843F0400323704D
:10322000E8E7002545B33378203B102BF9D801A2FD
:1032300052F823F005320008233200082332000838
:103240000F3200082332000823320008233200081E
:1032500023320008233200082332000823320008FA
:10326000FB31000823320008ED310008233200084A
:103270002332000819320008237803F04403442B5A
:103280005FD00196237843F08003237033782A2B94
:103290005CD001A8FFF784FF019B9E420FD02378EA
:1032A00043F0800323706060DBB2C3F34003002867
:1032B00054DB00221343227863F341022270019B06
:1032C00001931B782E2B14BF00230123627863F334
:1032D00041026270002B43D0019B5A1C01925B7823
:1032E0002A2B3FD001A8FFF75BFFA0602378C3F330
:1032F000400300283EDB00221343227863F341029F
:103300002270019803784C3B2E2B00F29D80DFE861
:1033100003F0909B9B9B9B9B9B9B9B9B9B9B9B9B4B
:103320009B9B9B9B9B9B9B9B9B9B9B9B9B9B339B55
:10333000579B459B9B9B9B9B9B9B899B9B9B9B9B89
:10334000820023786FF3861323709AE7637843F043
:1033500001036370334601330193B1E70122A9E70A
:103360000198CFE7637843F004036370104601309F
:103370000190C7E70122BFE7421C4378682B06D0C3
:103380006378022161F3C603637010461EE0637820
:10339000012262F3C6036370023017E0421C4378D7
:1033A0006C2B06D06378032161F3C603637010466B
:1033B0000CE06378042262F3C6036370023005E018
:1033C0006378052262F3C6036370013010F8013B95
:1033D000E370A3F14102372A7DD8DFE802F05E7C7A
:1033E0007C7C5E5E5E7C7C7C7C7C7C7C7C7C7C7C77
:1033F0007C7C7C7C7C4F7C7C7C7C7C7C7C7C5E7C58
:103400004F3A5E5E5E7C3A7C7C7C7C654F717C7C56
:10341000717C4F7C7C4F6378062262F3C603637035
:103420000130D3E76378072262F3C603637001308B
:10343000CCE76378082262F3C60363700130237817
:1034400043F002032370C1E763786FF3C603637030
:10345000BCE7A278012161F30202A270627802F057
:103460007802402A10D0632B13D02378C3F3400294
:10347000154365F34103237002B070BDA2780221A9
:1034800061F30202A270E9E7217841F001012170A5
:10349000E9E7151E18BF0125E7E7A378042262F3C8
:1034A0000203A3700125E0E7A378032262F302037D
:1034B000A370637803F07803402BD6D10125D4E7BD
:1034C000A378032262F30203A370637813F0780FEA
:1034D000CBD00125C9E7237843F001032370C4E76B
:1034E0002DE9F04F83B004460D4601929A460C9E9A
:1034F000D378324A13F802B00BF0030B6F2B0FD0C6
:1035000006D9702B0FD0782B10D14FF0100923E083
:10351000582B02D04FF00A091EE04FF010091BE0B3
:103520004FF0080918E04FF0100915E04FF00A09B4
:1035300012E0D2B23032D2B206F8012D3A464346FA
:1035400020462946FDF71AFBBC4275F1000319D34A
:10355000564517D904460D464FF000084F464A46D7
:10356000434620462946FDF709FB092AE1D9BBF16C
:10357000010F03D0D2B25732D2B2DDE7D2B2373226
:10358000D2B2D9E7019B1B7813F0200F05D0B9F117
:10359000080F06D0B9F1100F09D0304603B0BDE8CE
:1035A000F08F019A937843F008039370F5E7019A3E
:1035B000937843F010039370EFE700BF497D010853
:1035C0002DE9F04F91B006460D4691460393002435
:1035D00099F80000002800F0D582252808D009F1CC
:1035E00001092946B0470028C0F2CD820134EFE737
:1035F0000023049305930693079308930993494680
:1036000006A8FFF7E3FD02909DF8193013F0010FB3
:1036100000F09780039B1A1D03921F68002FC0F2D1
:1036200088809DF8193013F0040F00F09C80039BF4
:103630001A1D0392D3F800A0BAF1000FC0F28A80DD
:103640000023079308939DF81A3003F007039DF8B1
:103650001910C1F3C301012B00F08E80022B00F082
:10366000D380042B00F02481032B00F03B819DF8D4
:10367000188018F0030B40F03B819DF81B30253B70
:10368000532B00F2E681DFE813F04001E401E4018E
:10369000E401E401E401E401E401E401E401E40102
:1036A000E401E401E401E401E401E401E401E401F2
:1036B000E401E401E401E401E401E401E401E401E2
:1036C000E401E401E401E401E401E401E401E401D2
:1036D000E401E401E401E401E401E401E401E401C2
:1036E000E401E401E401E401E401E401E401E401B2
:1036F0008101E401E401E401E401E401E401E40105
:10370000E401E401E4015E016701E401E401E40194
:10371000E4016701E401E401E401E401BE01810187
:10372000A201E401E4014D01E4018101E401E401AD
:1037300081019DF8183043F004038DF818307F4262
:103740006FE79DF91830002B02DB4FF0FF3768E779
:10375000079F66E79DF819306FF341038DF8193024
:103760004FF0FF3A6CE713F0020F02D0DDF820A013
:1037700066E74FF0FF3A63E7CB1E042B04D8DFE87F
:1037800003F00B1D29353500039B1A1D03921B689E
:10379000DA170493059206E0039B1A1D03921B6837
:1037A000DA1704930592012928D002297FF45FAF2C
:1037B000BDF91030DA170493059258E7039B0733DD
:1037C00023F0070303F108020392D3E90023CDE9B4
:1037D0000423E8E7039B073323F0070303F1080200
:1037E0000392D3E90023CDE90423DCE7039B1A1DF0
:1037F00003921B68DA1704930592D4E79DF8103002
:1038000004930023059332E7CB1E042B04D8DFE892
:1038100003F00B1F35414100039B1A1D03921B68E7
:103820000493002305931EE09DF81B30632B07D003
:10383000039B1A1D03921B6804930023059312E057
:10384000039B1A1D03921B680493002305930AE04F
:10385000039B073323F0070303F108020392D3E924
:103860000023CDE9042301291CD002297FF4FFAEF7
:10387000BDF81030049300230593F8E6039B07334B
:1038800023F0070303F108020392D3E90023CDE9F3
:103890000423E8E7039B1A1D03921B68049300238B
:1038A0000593E0E79DF81030049300230593DEE6CE
:1038B00008290BD0039B073323F0070303F1080209
:1038C0000392D3E90023CDE90423D0E6039B073319
:1038D00023F0070303F108020392D3E90023CDE9A3
:1038E0000423C4E6039B1A1D03921B680493BEE6DF
:1038F000029F3B464A46294630460DF0ADFF002860
:10390000C0F241810444B94662E629462520B04709
:103910000028C0F238810134D8460DF13E0A4FF03C
:1039200000099BE0DDF81090BAF1000F07DB51466B
:10393000484611F056FB09EB000AD8468EE048468F
:10394000FDF7E0FAF7E7049B8DF82830D8460DF133
:10395000290A0DF1280981E018F0080F05D118F0A7
:10396000100804D04FF0200801E04FF02B08049A13
:10397000059B002B02DB0492059308E0524263EBA7
:103980004303049205934FF02D0800E0D8460DF153
:103990003E0300930AAB06AADDE90401FFF7A0FD90
:1039A0008146BAF1000FC0F288800DF13E03A3EB0F
:1039B00009039DF818206FF386128DF818209A4598
:1039C0007ED9AAEB030307930DF13E0A46E0049863
:1039D00028B9D846DFF8B4A1AAF105093EE00DF1F7
:1039E0003E0300930AAB06AA0021FFF779FD81464A
:1039F0009DF81A3043F010038DF81A3078238DF8B3
:103A00001B30D846CDE7049A9DF81930C3F3C303A1
:103A1000072B06D8DFE803F0040B0D0F1115191B57
:103A20001460D8460DF13E0A4FF0000916E01470FC
:103A3000F7E71480F5E71460F3E7E31714605360C9
:103A4000EFE7E31714605360EBE71460E9E71460F5
:103A5000E7E7D8460DF13E0A4FF00009B9F1000F33
:103A600000F08D80AAEB0902B8F1000F00D00132FE
:103A70009DF81A1011F0100F25D00232079B134445
:103A800011F0400F01D0089A1344002F31DDFF1AC6
:103A90009DF8183013F0040F2BD113F0400F17D0FE
:103AA000B8F1000F17D029464046B04700286ADB1E
:103AB0000134D8464FF0300B0FE00DF13E0ACDE750
:103AC0000DF13E0ACAE711F0080FD7D00132D5E751
:103AD0004FF0200B01E04FF0300B3B465F1E002BF8
:103AE00007DD29465846B04700284CDB01343B46E9
:103AF000F4E7B8F1000F05D029464046B04700284A
:103B000041DB01349DF81A30C3F30012C3F3C00344
:103B1000134305D029463020B047002833DB013459
:103B20009DF81A3013F0100F06D029469DF81B009F
:103B3000B047002827DB0134079B03F1FF38002B37
:103B400007DD29463020B04700281CDB01344346FE
:103B5000F3E753464A46294630460DF07DFE0028DD
:103B600011DB0444002F07DD29462020B047002840
:103B700009DB0134013FF5E7DDF8089028E5DDF8C1
:103B8000089025E5204611B0BDE8F08F9D5D010845
:103B90004FF01002EFF3118382F31288BFF36F8F9F
:103BA00083F31188BFF36F8F024B034A1A60002022
:103BB000704700BFF402002000093D0008B5064B25
:103BC000186018B1054B1B68092B00DC08BD0448C0
:103BD0000AF068FEFAE700BFC0110020741100204F
:103BE0000809002008B502480AF05CFE08BD00BFC5
:103BF0000809002030B589B000220F490F4810F0A5
:103C0000E6FE0F4D00220023CDE906230024049494
:103C10000E2303930294019400940A4B4FF44072D4
:103C20000949284610F09EFB0849284610F086FBFB
:103C3000204609B030BD00BFE53B0008900E0020D3
:103C4000C80E0020E93F0008402A0020A45D0108BA
:103C5000184BBFF35B8F53E8002F511C43E8001053
:103C60000028F8D1BFF35B8F1ABB70B5002409E0C0
:103C7000114B03EB06135B6804221968284600F019
:103C8000D9F901340D4B0C4A9B1AB4EB231F0FDA00
:103C90002646094D05EB04152B7B002BF1D02301A3
:103CA000054AD3589B69002BE2D028469847DFE7A6
:103CB00070BD70477C11002048590108585901080F
:103CC00038B108B5044A1060084600F0A3FB002094
:103CD00008BD6FF0150070471400002008B5054BB3
:103CE0001B781BB1034B01221A7008BD02480AF071
:103CF000D9FDF7E7E4190020080900200D4BBFF3B8
:103D00005B8F53E8002F013243E800210029F8D1EE
:103D1000BFF35B8F00B97047074BBFF35B8F53E86E
:103D2000002F013A43E800210029F8D1BFF35B8F4F
:103D3000F1E700BF7811002074110020064B00202D
:103D40000246BFF35B8F53E8000F43E800210029D0
:103D5000F9D1BFF35B8F70477811002038B5FFF7BA
:103D6000EDFF0546002400E001340B4B0B4A9B1A83
:103D7000B4EB231F0FDA094800EB041043685B79AA
:103D8000002BF1D02301054AD3581B69002BEBD03F
:103D900029469847E8E738BD5859010848590108AD
:103DA000034B18680028D4BF00200120704700BFD3
:103DB0007811002008B5024902480DF019FE08BD2F
:103DC000B05D01088011002008B50023054A13707A
:103DD000054A13604FF47A710448FFF771FFFFF74B
:103DE000E9FF08BDE519002078110020591D0108E0
:103DF00008B501460022002301480DF01EFE08BD53
:103E00008011002008B502480DF0D4FE08BD00BFA7
:103E10008011002008B5014601480DF03CFF08BDA7
:103E200080110020F8B50646E9B9002400E001340D
:103E30000F4B104A9B1AB4EB231F14DA0D4D05EB00
:103E400004156B685B79002BF1D0314628460DF0E4
:103E500081FF0028EBD02701064BDB591B68314658
:103E600028469847E3E73046FFF7D4FFF8BD00BF88
:103E7000585901084859010808B502480DF048FF93
:103E800008BD00BF8011002010B50446114B1B78FF
:103E900003B9D0B10DF06DFF034680B15CB90E4A95
:103EA000BFF35B8F52E8001F013942E80010002881
:103EB000F8D1BFF35B8F21461846FFF7B3FF14B963
:103EC000FFF76EFF10B90DF058FF10BDFFF746FF6A
:103ED000F9E700BFE41900207411002010B582B08A
:103EE0001D4BBFF35B8F53E8002F511C43E80010BC
:103EF0000028F8D1BFF35B8F184B1B783BB9184BE8
:103F00001B6803B19AB10A2A1CD002B010BD4FF051
:103F10001003EFF3118483F31288BFF36F8F002037
:103F2000FFF7B2FF84F31188BFF36F8FEDE7002234
:103F30000023CDE9002342F21072002309480BF060
:103F40007DFCE2E7002BE0D0064810F04CFD06486F
:103F50000AF0A8FCD9E700BF74110020E519002081
:103F6000C0110020900E00200809002010B5044662
:103F7000054B1B689847A060214604480DF0F4FDEE
:103F8000FFF7ACFF10BD00BF14000020801100201F
:103F9000124B1B7803B1704710B5FFF759FE002490
:103FA00000E001340E4B0F4A9B1AB4EB231F0CDACE
:103FB0000C4800EB041043685B79002BF1D023011F
:103FC000084AD3585B699847EBE70020FFF75CFF8E
:103FD0000028FAD1014B01221A7010BDE51900200A
:103FE000585901084859010808B5FFF731FE0BF090
:103FF000FFF9FFF7E3FD0020FFF746FF0028FAD1A5
:104000004FF0FF324FF0FF3301480AF073FCF2E744
:1040100008090020054B064A9B1AB1EBD30F02D2C8
:1040200052F8310070470020704700BF485901081E
:10403000B058010808B5074BC31A1B110133426879
:10404000137143681960436801225A71FFF746FEF5
:1040500008BD00BF485901080EB400B582B0014642
:1040600003AB53F8042B01930348FFF7A9FA02B0FE
:104070005DF804EB03B07047211E010830B585B030
:1040800011F0440F05D01A4B1C6834B9002005B05C
:1040900030BD1849FFF7E0FFF9E7174B1968B2FB8D
:1040A000F1F1B1FBF4FC154AA2FB0C32D20A4FF439
:1040B000616E0EFB12CE124BA3FB0E535B0904FB89
:1040C0001C114FF47A7C0CFB01F1B1FBF4F505FBFC
:1040D00014110CFB01F1B1FBF4F102910195C3EB5A
:1040E0000311AEEB810100910649FFF7B5FFCEE762
:1040F000C4110020C45D0108C8110020C5B3A291FD
:1041000089888888D05D010861B108B52AB1064A5E
:1041100052F8232012B9054A00E0044A0449FFF787
:104120009BFF08BD704700BF485E0108EC5D0108B9
:10413000F45D010811F0100F0BD108B511F0200F3C
:1041400003D00449FFF788FF08BD0349FFF784FF48
:10415000FAE77047085D0108F85D01082DE9F041B4
:1041600005460F46164698460699FFF7E3FF0024DA
:10417000444505DA24492846FFF76EFF0134F7E786
:10418000002409E020492846FFF766FF0BE01F499D
:104190002846FFF761FF01340F2C0CDC002C02DDF8
:1041A00014F0070FEED0B442F1D23A5D1849284618
:1041B000FFF752FFEFE717492846FFF74DFF0024AE
:1041C00009E011492846FFF747FF0BE0124928464E
:1041D000FFF742FF01340F2C13DC002C02DD14F03A
:1041E000070FEED0B44207D23A5D0C4BD35C13F00C
:1041F000970FEBD12E22E9E703492846FFF72CFF62
:10420000E8E7BDE8F08100BF205E0108045E010818
:10421000FC5D0108085E01080C5E0108497D01088B
:104220002DE9F041804616461D46BDF9187059B972
:104230000024002F1CDB86B10123079A934013F062
:10424000100F18D10D4E09E00D4B079A53F822209C
:104250000C49FFF701FF0446EBE7084E39462846B4
:10426000FFF7D8FE024631464046FFF7F5FE04440C
:104270002046BDE8F081044EF0E700BF105E010863
:10428000845E01081C5E0108185E01082DE9F04FEC
:1042900085B005460C46164603939DF8388001F01C
:1042A000020B01F0010AC1F3C0090DF06AFDE8B18B
:1042B000024613492846FFF7CFFE0746BBF1000F21
:1042C00016D14246514628460DF06AFDCDF80480CD
:1042D000BDF9403000939DF83C30324649462846AF
:1042E000FFF79EFF384405B0BDE8F08F0027E5E7F3
:1042F000039A21462846FFF7C1FE0744E1E700BFC5
:10430000245E01082DE9F04385B006460C461746A9
:104310008B680A88C2F3821812F4E07F35D04A68AD
:104320000978C1F3C2016AB32048121A42F3CF02DE
:1043300002920191CDF80080002239463046FFF705
:10434000A5FF8146254655F80C3BC3F3492343B1ED
:10435000B8F1000F1CD116482B46324615490DF016
:1043600098F96288C2F3CB022168C1F3492129443C
:1043700082B9B8F1000F13D130460DF044FD05B0FD
:10438000BDE8F0834FF0FF32D2E74FF00009D9E7E4
:104390000948E1E700974B4630460DF019FDE8E784
:1043A0004246394630460DF007FDE5E7B0580108B2
:1043B000591E0108C1350008211E010870B582B0E0
:1043C0000446056842F20F738B4228BF0B460E4A23
:1043D000052168460DF0B2F9064663685B680B225A
:1043E0000A4928460DF0CFFC63685B68324669468F
:1043F00028460DF0C8FC63685B681B220449284608
:104400000DF0C1FC02B070BD20640108785E0108A7
:104410005C5E0108074B01221A6004E04008054A6F
:1044200013685B001360044B9842F7D8034B186085
:10443000704700BFC811002040420F00C411002087
:1044400070B506460D46002406E0054B1868315D40
:1044500083685B6898470134AC42F6D3284670BD48
:10446000E0110020014B024A1A607047E011002061
:104470005455010808B5034B01221A7002480DF08B
:10448000C2FC08BDE6190020D45E010808B5024848
:10449000FFF794FF08BD00BFD45E010808B50F22E6
:1044A0000148FFF72FFF08BDD45E010810B5044C8A
:1044B00002E054F8043B9847024B9C42F9D310BDEC
:1044C000AC580108B0580108064B1B684BB110B539
:1044D0005C1E044A52F8233098472346002CF7D13B
:1044E00010BD7047A4580108014910220A607047A6
:1044F00010ED00E072B6404080F31188BFF36F8F7B
:10450000BFF34F8F30BF62B6BFF36F8F704700BFEE
:104510002DE9F04796B000AF054601233B816C467C
:1045200088B06B4613F10C0200F0CA801421012000
:1045300038811AB1042901DD67481861286812B171
:10454000082900DD5861686812B10C2900DD986106
:10455000A86812B1102900DDD861132940F3B38097
:1045600014202AB100217960052139717968D96058
:1045700000216FF300016FF341016FF382016FF3CC
:10458000C501012666F3881100F47D7363F352219F
:104590006FF3DE416FF3DF71002350480DF083FCB1
:1045A000A5463E816C4688B06B4613F10C0200F0C4
:1045B0008D801421012038811AB1042901DD484879
:1045C0001861E86812B1082900DD5861286912B144
:1045D0000C2900DD9861686912B1102900DDD861ED
:1045E000132976DD14202AB1002179600521397163
:1045F0007968D96000216FF300016FF341016FF317
:1046000082016FF3C501012666F3881100F47D7302
:1046100063F352216FF3DE416FF3DF71DFF8BC808B
:10462000002340460DF03FFCA5463E81EB692D4A34
:10463000BA63FB6300247C604FF0030A87F804A090
:104640007B687B63214664F3000164F3410164F3FA
:10465000820164F3C50166F388114FF00C0969F318
:10466000522164F3DE4164F3DF71234607F1340223
:1046700040460DF018FC3E81AB691B4A3A657B65EC
:104680007C6087F804A07B68FB64214664F300012A
:1046900064F3410164F3820164F3C50166F3881198
:1046A00069F3522164F3DE4164F3DF71234607F1BD
:1046B0004C0240460DF0F7FB5837BD46BDE8F08789
:1046C0006FF0004133E76FF01B004AE76FF00041E5
:1046D00070E76FF01B0086E7E45E010808590108E7
:1046E000145F0108445F0108545F010840B20028CC
:1046F00007DB00F01F02400901239340014A42F802
:104700002030704700E100E040B200280CDB00F0F0
:104710001F024009012393402030044A42F8203010
:10472000BFF34F8FBFF36F8F704700BF00E100E012
:104730004209054B53F8222000F01F00012303FA21
:1047400000F01040704700BF00E100E0013140B2CE
:10475000002808DB0901C9B200F1604000F56140A2
:1047600080F80013704700F00F000901C9B2014B37
:104770001954704714ED00E030BFFFF7FDBF00BFD4
:1047800008B50F4B0F4A22F07F029A60BFF34F8F9C
:10479000BFF36F8FD3F8882022F47002C3F888200B
:1047A000EFF3148323F0040383F31488BFF36F8FB4
:1047B00009F00EFE0AF06EFE00F0AEFE09F014FEE7
:1047C00000ED00E000000008094A93689867094975
:1047D0000968D96708494B6843F080534B60002350
:1047E00083F31188BFF36F8F9368D86F704700BF52
:1047F00084190020447B010800ED00E012498A681A
:104800004FF030001044EFF3098C80E8F01F1020C7
:1048100080F31288BFF36F8F0C4F4FF000668A69E8
:104820008A603E60906F0023936780F3118804B51F
:10483000104600F0C5FEBDE8044002F1300090E8EB
:10484000F01F8CF3098870478419002004ED00E004
:104850001EF0040F0CBFEFF30880EFF309808169AD
:1048600011F8021C0229FFD001B50DF097FB01BD24
:1048700010B4A2F120040D4942F8081C21F00101F6
:1048800042F8081C42F8203C019B42F81C3C029B69
:1048900042F8183C039B42F8143C4FF0807342F8F6
:1048A000043C04650023836710BC70475917010856
:1048B000114B9A68EAB110F1160F10D0936EA3F164
:1048C000200C844505D8834205D98B4205D80021A8
:1048D0000AE0002108E0002106E0012104E0936ED7
:1048E0008B4294BF0021012109B900207047906ECE
:1048F00070470020704700BF8419002008B50D469E
:104900001446084B986000F05BFE204685F309884A
:10491000002163B681F31188BFF36F8F002200235B
:104920000CF01AFF8419002001B5EFF30580A0F107
:1049300010004FEAC0000449014409C99847BDE886
:104940000140024908470000FC5501085149000890
:10495000044B99689869884203D003494FF080520C
:104960000A6070478419002004ED00E000B585B0AE
:104970000F290FDC084B103903910293074B019369
:10498000002000900346012205490DF022FB05B0EE
:104990005DF804FB034BEEE7A05F0108B85F010878
:1049A00008590108845F010870B5BAB005460E4683
:1049B00014460122ADF80820A84B0E930023019362
:1049C00002218DF8041001990D91194663F300013D
:1049D00063F3410163F3820163F3C50162F388115C
:1049E000082262F3522163F3DE4163F3DF710DAA03
:1049F0009B480DF058FA9B4B9B6A13F4805F28D1BB
:104A0000984B9B6A13F4006F46D1964B9B6A13F444
:104A1000007F64D1934B9B6A13F4806F40F0B480A5
:104A2000904B9B6A13F4807F40F0D1808D4B9B6A42
:104A300013F4005F40F0EE808A4A936A43F47F43A8
:104A40009362012128460DF0C2FA207000203AB08E
:104A500070BD0122ADF80820834B1493002301930D
:104A600002218DF8041001991391194663F3000196
:104A700063F3410163F3820163F3C50162F38811BB
:104A8000082262F3522163F3DE4163F3DF7113AA5C
:104A900073480DF008FAB3E70122ADF80820734B14
:104AA0001A930023019302218DF8041001991991A2
:104AB000194663F3000163F3410163F3820163F379
:104AC000C50162F38811082262F3522163F3DE41CB
:104AD00063F3DF7119AA62480DF0E5F995E7012249
:104AE000ADF80820624B20930023019302218DF83A
:104AF000041001991F91194663F3000163F341010A
:104B000063F3820163F3C50162F38811082262F343
:104B1000522163F3DE4163F3DF711FAA50480DF0A9
:104B2000C2F9504B9A6B9B6A13F4004F3FF472AF7B
:104B30000120ADF808004F4B2693279200230193E4
:104B400003228DF80420019A2592194663F300018F
:104B500063F3410163F3820163F3C50160F38811DC
:104B60000C2262F3522163F3DE4163F3DF7125AA65
:104B70003B480DF098F9002E3FF44CAF394A936A48
:104B800023F40043936245E70122ADF808203A4B35
:104B90002C930023019302218DF8041001992B918D
:104BA000194663F3000163F3410163F3820163F388
:104BB000C50162F38811082262F3522163F3DE41DA
:104BC00063F3DF712BAA26480DF06DF928E7012267
:104BD000ADF80820294B38930023019302218DF86A
:104BE000041001993791194663F3000163F3410101
:104BF00063F3820163F3C50162F38811082262F353
:104C0000522163F3DE4163F3DF7137AA14480DF0DC
:104C10004AF911E70122ADF80820194B329300231D
:104C2000019302218DF8041001993191194663F323
:104C3000000163F3410163F3820163F3C50162F391
:104C40008811082262F3522163F3DE4163F3DF71BE
:104C500031AA03480DF027F9EEE600BFCC5F01084A
:104C60000859010800ED00E0E45F0108F85F010861
:104C70000C60010828600108406001085C600108C0
:104C80007460010800B5B5B00122ADF808208E4B64
:104C90000E930023019302218DF8041001990D91C8
:104CA000194663F3000163F3410163F3820163F387
:104CB000C50162F38811082262F3522163F3DE41D9
:104CC00063F3DF710DAA81480DF0EDF8804B9B6A0C
:104CD00013F0007F25D17E4B9B6A13F0807F43D178
:104CE0007B4B9B6A13F4002F61D1794B9B6A13F4C1
:104CF000802F7FD1764B9B6A13F4003F40F09D805C
:104D0000734B9B6A13F4803F40F0BA80704A936AF9
:104D10006FEA03436FEA13439362002035B05DF8F6
:104D200004FB0122ADF808206A4B14930023019381
:104D300002218DF8041001991391194663F30001C3
:104D400063F3410163F3820163F3C50162F38811E8
:104D5000082262F3522163F3DE4163F3DF7113AA89
:104D60005A480DF0A0F8B6E70122ADF808205A4BDA
:104D70001A930023019302218DF8041001991991CF
:104D8000194663F3000163F3410163F3820163F3A6
:104D9000C50162F38811082262F3522163F3DE41F8
:104DA00063F3DF7119AA49480DF07DF898E70122F5
:104DB000ADF80820494B20930023019302218DF880
:104DC000041001991F91194663F3000163F3410137
:104DD00063F3820163F3C50162F38811082262F371
:104DE000522163F3DE4163F3DF711FAA37480DF0F0
:104DF0005AF87AE70122ADF80820394B26930023B0
:104E0000019302218DF8041001992591194663F34D
:104E1000000163F3410163F3820163F3C50162F3AF
:104E20008811082262F3522163F3DE4163F3DF71DC
:104E300025AA26480DF037F85CE70122ADF80820D6
:104E4000284B2C930023019302218DF80410019923
:104E50002B91194663F3000163F3410163F382016F
:104E600063F3C50162F38811082262F3522163F3F0
:104E7000DE4163F3DF712BAA14480DF014F83FE70D
:104E80000122ADF80820184B329300230193022130
:104E90008DF8041001993191194663F3000163F311
:104EA000410163F3820163F3C50162F388110822B3
:104EB00062F3522163F3DE4163F3DF7131AA0348E9
:104EC0000CF0F1FF22E700BFA460010808590108B7
:104ED00000ED00E0BC600108D0600108EC60010852
:104EE0000C610108346101085061010800B591B0FE
:104EF00000230B700122ADF8082010490E91019398
:104F000002218DF8041001990D91194663F30001F7
:104F100063F3410163F3820163F3C50162F3881116
:104F2000082262F3522163F3DE4163F3DF710DAABD
:104F300003480CF0B8FF11B05DF804FB7C61010878
:104F400008590108F0B5B5B005460C4616460122D1
:104F5000ADF80820A34B0E930023019302218DF896
:104F6000041001990D91194663F3000163F34101A7
:104F700063F3820163F3C50162F38811082262F3CF
:104F8000522163F3DE4163F3DF710DAA96480CF002
:104F90008AFF964B9B6A13F0100F34D1934B9B6A98
:104FA00013F0080F52D1914B9B6A13F0020F70D18E
:104FB0006FF015078D4B9B6A13F0010F40F0C08016
:104FC0008A4B9B6A13F0200F40F0DD80874B9B6A71
:104FD00013F0100F04D1854B9C6A14F0020405D025
:104FE000824B5C6814F4006440F0F0807F4A936A5E
:104FF00043F0FF039362012128460CF0E8FF307074
:10500000204635B0F0BD0122ADF80820784B14934E
:105010000023019302218DF8041001991391194680
:1050200063F3000163F3410163F3820163F3C5019C
:1050300062F38811082262F3522163F3DE4163F3C5
:10504000DF7113AA68480CF02EFFA7E70122ADF824
:105050000820684B1A930023019302218DF8041055
:1050600001991991194663F3000163F3410163F358
:10507000820163F3C50162F38811082262F35221B1
:1050800063F3DE4163F3DF7119AA57480CF00BFF9D
:1050900089E70122ADF80820574B209300230193A4
:1050A00002218DF8041001991F91194663F3000144
:1050B00063F3410163F3820163F3C50162F3881175
:1050C000082262F3522163F3DE4163F3DF711FAA0A
:1050D00045480CF0E8FE454B5F6B9B6A13F0800F70
:1050E00002D16FF0150765E70122ADF80820434BA8
:1050F000269327970023019303218DF8041001992B
:105100002591194663F3000163F3410163F38201C2
:1051100063F3C50162F388110C2262F3522163F339
:10512000DE4163F3DF7125AA2F480CF0BCFE002C92
:105130003FF440AF2D4A936A23F08003936239E72E
:105140000122ADF808202E4B2C930023019302215D
:105150008DF8041001992B91194663F3000163F354
:10516000410163F3820163F3C50162F388110822F0
:1051700062F3522163F3DE4163F3DF712BAA1A4815
:105180000CF091FE1CE70122ADF808201D4B329374
:105190000023019302218DF80410019931911946E1
:1051A00063F3000163F3410163F3820163F3C5011B
:1051B00062F38811082262F3522163F3DE4163F344
:1051C000DF7131AA08480CF06EFEFFE6294638462A
:1051D000FFF76EFB044600283FF408AF80F3098810
:1051E000022403E7A06101080859010800ED00E06E
:1051F000B8610108F85F0108EC6101080462010868
:105200001C62010874600108F0B5A9B007460E469B
:105210000123ADF80830734A0E9200240194022253
:105220008DF80420019A0D92214664F3000164F385
:10523000410164F3820164F3C50163F3881108231B
:1052400063F3522164F3DE4164F3DF7123460DAA58
:1052500065480CF028FE3470644BDD6A15F00205D9
:105260000AD1624BDB6A002B2ADB604BD86A10F054
:10527000804049D129B0F0BD0123ADF808305C4A27
:105280002692019402228DF80420019A259221464B
:1052900064F3000164F3410164F3820164F3C50126
:1052A00063F38811082363F3522164F3DE4164F34E
:1052B000DF71234625AA4C480CF0F5FD2046D9E7BE
:1052C0000122ADF808204B4B2093002301930221CB
:1052D0008DF8041001991F91194663F3000163F3DF
:1052E000410163F3820163F3C50162F3881108226F
:1052F00062F3522163F3DE4163F3DF711FAA3A4880
:105300000CF0D1FD2846B5E70122ADF808203A4B54
:1053100014930023019302218DF804100199139135
:10532000194663F3000163F3410163F3820163F300
:10533000C50162F38811082262F3522163F3DE4152
:1053400063F3DF7113AA28480CF0ADFDBB6933F895
:10535000022C4DF602739A420DD0244B93F828305C
:105360007BBB224B93F829308BBB204B5B8D9BB2D0
:105370009BBB28467EE70122ADF808201F4B1A93FD
:105380003B681B930023019303218DF804100199BE
:105390001991194663F3000163F3410163F382013C
:1053A00063F3C50162F388110C2262F3522163F3A7
:1053B000DE4163F3DF7119AA0B480CF074FD386805
:1053C00058E7324601213846FFF7BCFD52E7324626
:1053D00001213846FFF7E8FA4CE73846FFF752FC60
:1053E00048E700BF3C6201080859010800ED00E0F1
:1053F000546201087862010888620108A862010805
:1054000070B598B0384B5D68C5F30805002383F389
:105410001188BFF36F8F02F07F43B3F17F4F3CD110
:1054200002F00C03082B10D012F0080F32D00C46FB
:1054300000260DF14702294620460CF0D7FD05460F
:105440009DF8473063B318B070BD0123ADF8043048
:10545000264A16920024009402228DF80020009A19
:105460001592214664F3000164F3410164F3820163
:1054700064F3C50163F38811082363F3522164F3D5
:10548000DE4164F3DF71234615AA19480CF00BFDC9
:105490002646CEE704460126CBE700263446C8E779
:1054A0000DF1240C20686168A268E368ACE80F0085
:1054B00020696169A269E369ACE80F0046B1C3F3F2
:1054C00008025AB96FEA53236FEA4323109305E0A9
:1054D000109B23F4FF7323F00103109309A92846BE
:1054E0000CF050FDAFE700BF00ED00E0C462010822
:1054F00008590108024A536943F010035361704789
:1055000000ED00E0EFF30880EFF3098101B572468A
:10551000FFF776FF01BD00BF002206E002F00F0199
:10552000094B0B44102119760132542A0ADC53B27C
:10553000002BF3DB03F1604303F56143102183F893
:105540000013F1E7704700BFFCEC00E0102080F38F
:10555000118808484FF40261401880F30988EFF37E
:1055600014800221084380F31488BFF36F8FFFF784
:1055700007F90000E03E002008B5084B9B68834215
:1055800002D009F04BFF08BDEFF30583002BF8D0E4
:10559000034A536843F080535360F2E784190020B4
:1055A00000ED00E008B5034B034A012103480CF06D
:1055B00072FD08BD0080022000000020F462010896
:1055C00008B5836E203B0548036020234360044BED
:1055D000836001210CF063FD08BD00BFEC110020C9
:1055E00000000B15084AC2F898000B6823F01F034F
:1055F000034343F01003C2F89C308B6843F001036F
:10560000C2F8A030704700BF00ED00E010B590B0C8
:105610000446072804D8FFF7E5FF204610B010BD68
:105620000122ADF80820114B0E930F900023019337
:1056300003218DF8041001990D91194663F30001BF
:1056400063F3410163F3820163F3C50162F38811DF
:105650000C2262F3522163F3DE4163F3DF710DAA82
:1056600003480CF020FC6FF01500D7E70063010839
:10567000005901082DE9F04391B080460F46994644
:105680001646002509E02146F0B20CF0E5FC06467E
:1056900010F1160F37D001360135BD4233DA05EB74
:1056A000450408EB84046268002AF5D0B9F1000FC4
:1056B000E9D020460CF0BFFC0028E4D10122ADF86F
:1056C0000820134B0E930F950023019303218DF8AF
:1056D000041001990D91194663F3000163F3410130
:1056E00063F3820163F3C50162F388110C2262F354
:1056F000522163F3DE4163F3DF710DAA05480CF01C
:10570000D2FB6FF01506304611B0BDE8F08300BF44
:10571000286301080059010810B5034C01232278C1
:10572000FFF7A8FF207010BDE719002008B500237F
:10573000094A1278FFF79EFF10F1160F0AD00346B0
:1057400006E0064AC2F898300021C2F8A0100133E2
:10575000072BF6DD08BD00BFE719002000ED00E0D3
:10576000044B0522C3F89420BFF34F8FBFF36F8F14
:10577000704700BF00ED00E0BFF35F8F024B0022D7
:10578000C3F89420704700BF00ED00E038B50E4B21
:105790001D68082D15D8FFF7EFFF002409E00A4B1C
:1057A000596804EB4402930019442046FFF71AFF9E
:1057B0000134A542F3D8054B1D70FFF7D1FF00203F
:1057C00038BD4FF0FF30FBE764630108E7190020A4
:1057D000014B1860704700BF1C00002070B50646E2
:1057E0000D46002400E00134AC4208DA054B1B688A
:1057F000984730550A2801D00D28F4D101342046AD
:1058000070BD00BF18000020F8B505460F46002403
:1058100004E0094B1B68307898470134BC4208DA31
:105820002E192B5D0A2BF4D1034B1B680D209847D2
:10583000EFE73846F8BD00BF1C00002008B5052280
:10584000024901200CF03CFCFEE700BF4C6301085C
:105850000246084B1968084BC8180A44C3F10053A4
:1058600003F520339A4202D2024B1A6070474FF080
:10587000FF307047F81100206A4C002070B50446D4
:105880000D46166902E001220CE00134AC4217DA41
:105890001F2CFADC0123A3400A4A526933EA0202B0
:1058A000F1D00022002AF0D0064A536156F8343075
:1058B000002BEAD006EBC402516820469847E4E783
:1058C00070BD00BF0004014008B501238340044AB5
:1058D00011680B431360034B1856FEF707FF08BD12
:1058E00000040140A46301081F2806DC0123834053
:1058F000024A106820EA030010607047000401406B
:10590000032932D8DFE801F0020F1B27012303FA35
:1059100000F0164B9A6822EA00029A60DA6822EADE
:105920000000D8607047012303FA00F00F4B9A681B
:1059300002439A60DA6822EA0000D86070470123C7
:1059400003FA00F0094BDA680243DA609A6822EA47
:10595000000098607047012303FA00F0034B9A6837
:1059600002439A60DA681043D8607047000401402F
:10597000074B53F830303BB9054B43F8301003EB7D
:10598000C0004260002070476FF00F00704700BFFA
:10599000FC110020034B002243F8302003EBC0032E
:1059A0005A607047FC11002086B00B68062B48D85F
:1059B000DFE803F00410263C31471B004B68224A05
:1059C000916C19439164926C13400093009B0020EA
:1059D00006B070474B681C4AD16C1943D164D26C35
:1059E00013400193019B0020F2E74B68164A116DAA
:1059F00019431165126D13400293029B0020E7E7E3
:105A00004B68114A916D19439165926D1340039350
:105A1000039B0020DCE74B680B4AD16D1943D1652D
:105A2000D26D13400493049B0020D1E74B68064AD3
:105A3000116E19431166126E13400593059B0020E9
:105A4000C6E76FF08500C3E7001002400B68062B25
:105A500035D8DFE803F0040C1C2C2434140049680A
:105A6000184A936C23EA0103936400207047496845
:105A7000144AD36C23EA0103D364002070474968B9
:105A8000104A136D23EA010313650020704749682B
:105A90000C4A936D23EA010393650020704749681F
:105AA000084AD36D23EA0103D36500207047496893
:105AB000044A136E23EA01031366002070476FF057
:105AC000850070470010024070B50C4615460D4B1E
