:020000040800F2
:10000000803300208D5D000891E70008455D000801
:10001000455D0008455D0008455D000800000000E2
:1000200000000000000000000000000091500008E7
:10003000455D0008000000003D500008799C000864
:1000400069510008695100086951000869510008A8
:100050006951000869510008695100086951000898
:100060006951000869510008695100086951000888
:100070006951000869510008695100086951000878
:100080006951000869510008695100086951000868
:100090006951000869510008695100086951000858
:1000A0006951000869510008695100086951000848
:1000B0006951000869510008695100086951000838
:1000C0006951000869510008695100086951000828
:1000D0006951000869510008695100086951000818
:1000E0006951000869510008695100086951000808
:1000F00069510008695100086951000869510008F8
:1001000069510008695100086951000869510008E7
:1001100069510008695100086951000869510008D7
:1001200069510008695100086951000869510008C7
:1001300069510008695100086951000869510008B7
:1001400069510008695100086951000869510008A7
:100150006951000869510008695100086951000897
:100160006951000869510008695100086951000887
:100170006951000869510008695100086951000877
:100180006951000869510008695100086951000867
:0401900069510008A9
:0C019400FFFFFFFFFFFFFFFFFFFFFFFF6B
:1001A00001F0FF01102A2BDB10F0070F08D010F828
:1001B000013B013A8B422DD010F0070F42B3F6D12C
:1001C000F0B441EA012141EA014122F007047FF045
:1001D00000070023F0E80256083C85EA010586EA9C
:1001E000010685FA47F5A3FA87F586FA47F6A5FAD8
:1001F00087F68EB9EED1F0BC01F0FF0102F00702E4
:1002000032B110F8013B013A83EA010313B1F8D18E
:100210000020704701387047002D06BF354603386F
:10022000073815F0010F07D1013015F4807F02BFA8
:10023000013015F4C03F0130F0BC0138704700BFF9
:1002400081F0004102E000BF83F0004330B54FEA87
:1002500041044FEA430594EA050F08BF90EA020FF4
:100260001FBF54EA000C55EA020C7FEA645C7FEA87
:10027000655C00F0E2804FEA5454D4EB5555B8BFAA
:100280006D420CDD2C4480EA020281EA030382EA1B
:10029000000083EA010180EA020281EA0303362DAD
:1002A00088BF30BD11F0004F4FEA01314FF4801C80
:1002B0004CEA113102D0404261EB410113F0004F92
:1002C0004FEA03334CEA133302D0524263EB430349
:1002D00094EA050F00F0A780A4F10104D5F1200EE7
:1002E0000DDB02FA0EFC22FA05F2801841F1000142
:1002F00003FA0EF2801843FA05F359410EE0A5F116
:1003000020050EF1200E012A03FA0EFC28BF4CF046
:10031000020C43FA05F3C01851EBE37101F00045FC
:1003200007D54FF0000EDCF1000C7EEB00006EEB09
:100330000101B1F5801F1BD3B1F5001F0CD3490893
:100340005FEA30004FEA3C0C04F101044FEA4452EA
:1003500012F5800F80F09A80BCF1004F08BF5FEA71
:10036000500C50F1000041EB045141EA050130BD51
:100370005FEA4C0C404141EB0101013C28BFB1F563
:10038000801FE9D291F0000F04BF01460020B1FAAE
:1003900081F308BF2033A3F10B03B3F120020CDA81
:1003A0000C3208DD02F1140CC2F10C0201FA0CF05F
:1003B00021FA02F10CE002F11402D8BFC2F1200CC4
:1003C00001FA02F120FA0CFCDCBF41EA0C0190407A
:1003D000E41AA2BF01EB0451294330BD6FEA0404C3
:1003E0001F3C1CDA0C340EDC04F11404C4F12002AE
:1003F00020FA04F001FA02F340EA030021FA04F3C0
:1004000045EA030130BDC4F10C04C4F1200220FA16
:1004100002F001FA04F340EA0300294630BD21FA54
:1004200004F0294630BD94F0000F83F4801306BF1A
:1004300081F480110134013D4EE77FEA645C18BF0E
:100440007FEA655C29D094EA050F08BF90EA020FA5
:1004500005D054EA000C04BF1946104630BD91EA9D
:10046000030F1EBF0021002030BD5FEA545C05D1A0
:100470004000494128BF41F0004130BD14F58004DF
:100480003CBF01F5801130BD01F0004545F0FE4153
:1004900041F470014FF0000030BD7FEA645C1ABF88
:1004A000194610467FEA655C1CBF0B46024650EABF
:1004B000013406BF52EA033591EA030F41F40021EB
:1004C00030BD00BF90F0000F04BF0021704730B571
:1004D0004FF4806404F132044FF000054FF0000146
:1004E00050E700BF90F0000F04BF0021704730B507
:1004F0004FF4806404F1320410F0004548BF4042DC
:100500004FF000013EE700BF42004FEAE2014FEA30
:1005100031014FEA02701FBF12F07F4393F07F4F0B
:1005200081F06051704732F07F4208BF704793F00E
:100530007F4F04BF41F40021704730B54FF4607421
:1005400001F0004521F000411CE700BF50EA010224
:1005500008BF704730B54FF000050AE050EA0102CD
:1005600008BF704730B511F0004502D5404261EB3D
:1005700041014FF4806404F132045FEA915C3FF47E
:10058000D8AE4FF003025FEADC0C18BF03325FEA1B
:10059000DC0C18BF033202EBDC02C2F1200300FACC
:1005A00003FC20FA02F001FA03FE40EA0E0021FAF1
:1005B00002F11444BDE600BF70B54FF0FF0C4CF4DF
:1005C000E06C1CEA11541DBF1CEA135594EA0C0F91
:1005D00095EA0C0F00F0DEF82C4481EA030621EACC
:1005E0004C5123EA4C5350EA013518BF52EA033507
:1005F00041F4801143F4801338D0A0FB02CE4FF0B9
:100600000005E1FB02E506F00042E0FB03E54FF0E8
:100610000006E1FB03569CF0000F18BF4EF0010EE0
:10062000A4F1FF04B6F5007F64F5407404D25FEADC
:100630004E0E6D4146EB060642EAC62141EA55518F
:100640004FEAC52040EA5E504FEACE2EB4F1FD0CD1
:1006500088BFBCF5E06F1ED8BEF1004F08BF5FEA4F
:10066000500E50F1000041EB045170BD06F0004601
:1006700046EA010140EA020081EA0301B4EB5C04AE
:10068000C2BFD4EB0C0541EA045170BD41F48011A6
:100690004FF0000E013C00F3AB8014F1360FDEBFCB
:1006A000002001F0004170BDC4F10004203C35DAA7
:1006B0000C341BDC04F11404C4F1200500FA05F32A
:1006C00020FA04F001FA05F240EA020001F00042CB
:1006D00021F0004110EBD37021FA04F642EB060141
:1006E0005EEA430E08BF20EAD37070BDC4F10C046B
:1006F000C4F1200500FA04F320FA05F001FA04F22F
:1007000040EA020001F0004110EBD37041F100011A
:100710005EEA430E08BF20EAD37070BDC4F1200525
:1007200000FA05F24EEA020E20FA04F301FA05F28D
:1007300043EA020321FA04F001F0004121FA04F235
:1007400020EA020000EBD3705EEA430E08BF20EA05
:10075000D37070BD94F0000F0FD101F0004640003F
:1007600041EB010111F4801F08BF013CF7D041EAC1
:10077000060195F0000F18BF704703F000465200C5
:1007800043EB030313F4801F08BF013DF7D043EA96
:100790000603704794EA0C0F0CEA135518BF95EA4C
:1007A0000C0F0CD050EA410618BF52EA4306D1D1D3
:1007B00081EA030101F000414FF0000070BD50EAF2
:1007C000410606BF1046194652EA430619D094EA7C
:1007D0000C0F02D150EA013613D195EA0C0F05D166
:1007E00052EA03361CBF104619460AD181EA0301BA
:1007F00001F0004141F0FE4141F470014FF0000072
:1008000070BD41F0FE4141F4780170BD70B54FF00C
:10081000FF0C4CF4E06C1CEA11541DBF1CEA13558C
:1008200094EA0C0F95EA0C0F00F0A7F8A4EB05046E
:1008300081EA030E52EA03354FEA013100F0888065
:100840004FEA03334FF0805545EA131343EA12632E
:100850004FEA022245EA111545EA10654FEA0026E3
:100860000EF000419D4208BF964244F1FD0404F59C
:10087000407402D25B084FEA3202B61A65EB0305F8
:100880005B084FEA32024FF480104FF4002CB6EBB5
:10089000020E75EB030E22BFB61A754640EA0C0035
:1008A0005B084FEA3202B6EB020E75EB030E22BF75
:1008B000B61A754640EA5C005B084FEA3202B6EBB6
:1008C000020E75EB030E22BFB61A754640EA9C0075
:1008D0005B084FEA3202B6EB020E75EB030E22BF45
:1008E000B61A754640EADC0055EA060E18D04FEA03
:1008F000051545EA16754FEA06164FEAC30343EAA3
:1009000052734FEAC2025FEA1C1CC0D111F4801F6F
:100910000BD141EA00014FF000004FF0004CB6E768
:1009200011F4801F04BF01430020B4F1FD0C88BF07
:10093000BCF5E06F3FF6AFAEB5EB030C04BFB6EB12
:10094000020C5FEA500C50F1000041EB045170BD05
:100950000EF0004E4EEA113114EB5C04C2BFD4EB32
:100960000C0541EA045170BD41F480114FF0000EB6
:10097000013C90E645EA060E8DE60CEA135594EA32
:100980000C0F08BF95EA0C0F3FF43BAF94EA0C0F35
:100990000AD150EA01347FF434AF95EA0C0F7FF4AA
:1009A00025AF104619462CE795EA0C0F06D152EAFE
:1009B00003353FF4FDAE1046194622E750EA4106E2
:1009C00018BF52EA43067FF4C5AE50EA41047FF4F3
:1009D0000DAF52EA43057FF4EBAE12E753B94AB9C3
:1009E000002908BF00281CBF4FF0FF314FF0FF3037
:1009F00000F00CB8ADF1080C6DE904CE00F0CEF8B3
:100A0000DDF804E0DDE9022304B07047704700BF61
:100A10004FF0FF3C06E000BF4FF0010C02E000BFCA
:100A20004FF0010C4DF804CD4FEA410C7FEA6C5CAD
:100A30004FEA430C18BF7FEA6C5C1BD001B050EA50
:100A4000410C0CBF52EA430C91EA030F02BF90EA3B
:100A5000020F0020704710F1000F91EA030F58BFFA
:100A6000994208BF90422CBFD8176FEAE37040F05C
:100A7000010070474FEA410C7FEA6C5C02D150EAFA
:100A8000013C07D14FEA430C7FEA6C5CD6D152EAB5
:100A9000033CD3D05DF8040B704700BF844610467A
:100AA00062468C461946634600E000BF01B5FFF779
:100AB000B7FF002848BF10F1000F01BD4DF808ED49
:100AC000FFF7F4FF0CBF012000205DF808FB00BF1A
:100AD0004DF808EDFFF7EAFF34BF012000205DF874
:100AE00008FB00BF4DF808EDFFF7E0FF94BF0120C1
:100AF00000205DF808FB00BF4DF808EDFFF7CEFFC2
:100B000094BF012000205DF808FB00BF4DF808ED00
:100B1000FFF7C4FF34BF012000205DF808FB00BFD1
:100B20004FEA410C7FEA6C5C02D150EA013C0AD1E9
:100B30004FEA430C7FEA6C5C02D152EA033C02D1DB
:100B40004FF0000070474FF0010070474FEA41023C
:100B500012F5001215D211D56FF47873B3EB62520F
:100B600012D94FEAC12343F0004343EA505311F036
:100B7000004F23FA02F018BF404270474FF00000C8
:100B8000704750EA013005D111F0004008BF6FF006
:100B9000004070474FF00000704700BF2DE9F04F54
:100BA00007468C460846099E15463C461946002BCA
:100BB00040F0C6808242B2FA82F746D94FB1C7F1FF
:100BC000200E24FA0EFE00FA07F3BD404EEA030C95
:100BD000BC404FEA15481FFA85FEBCFBF8F9220C11
:100BE00008FB19C309FB0EFA42EA03439A4528D9C8
:100BF000EB1809F1FF3004D29A4502D9A9F102009D
:100C00002B44A3EB0A03A4B2B3FBF8F208FB1233A4
:100C100002FB0EFE44EA0344A64514D92C1902F146
:100C2000FF3303D2A64501D9931E2C44A4EB0E0436
:100C300043EA00401EB1FC40002334607360BDE80D
:100C4000F08F4846DDE71346F0E702B9FFDE87BBC9
:100C5000831A01214FEA154EAAB2B3FBFEFC200C09
:100C60000EFB1C330CFB02F840EA0343984563D9A2
:100C7000EB180CF1FF3004D2984502D9ACF1020018
:100C80002B44A3EB0803A4B2B3FBFEFC0EFB1C3306
:100C90000CFB02F244EA0344A2424FD92C190CF196
:100CA000FF3304D2A24202D9ACF102032C44A41AAD
:100CB000BEE7C7F1200C20FA0CF800FA07F324FA7B
:100CC0000CFCBD404CEA03024FEA154EABB2B8FB38
:100CD000FEFC110C0EFB1C800CFB03F941EA0040EA
:100CE000814504FA07F423D928180CF1FF3104D206
:100CF000814502D9ACF102012844A0EB090092B26F
:100D0000B0FBFEFC0EFB1C000CFB03F842EA0043A8
:100D100098450FD9EB180CF1FF3204D2984502D94F
:100D2000ACF102022B44A3EB080342EA014191E734
:100D30006146E2E76246F6E76046A2E76346B6E749
:100D4000834205D90EB1C6E900700021084676E756
:100D5000B3FA83F181B9834201D3BA420AD8BC1AEB
:100D600060EB030301209C46002E68D0C6E9004CCE
:100D7000002164E70846F7E7C1F1200C8B4022FA16
:100D80000CF41C4302FA01F500FA01F327FA0CF205
:100D900020FA0CFB4FEA14491343BBFBF9F81FFA86
:100DA00084FE09FB18BB1A0C08FB0EFA42EA0B4240
:100DB000924507FA01F73ED9A21808F1FF3004D294
:100DC000924502D9A8F102002244A2EB0A029BB28A
:100DD000B2FBF9F809FB182208FB0EFE43EA0242B7
:100DE00096452AD9A21808F1FF3304D2964502D9B4
:100DF000A8F10203224443EA0040A0FB0593A2EBC2
:100E00000E029A42CE46984602D306D14F4504D2EE
:100E1000B9EB050E63EB0408013886B1B7EB0E039E
:100E200062EB080707FA0CFCCB404CEA0303CF4007
:100E3000C6E900379CE74046C7E74346DBE7314653
:100E4000FDE610F8012B11F8013B012A28BF9A4258
:100E5000F7D0D01A7047034613F8012B002AFBD1B4
:100E6000181A01387047000070B586B0054644680E
:100E7000066920680EF0C7FD50B10023227E934220
:100E800022D2E269D25C032A10D80133DBB2F5E743
:100E900023681B680293284B0193009003460122AC
:100EA00026490EF0A3FD6FF012003DE02B6802937F
:100EB000234B019300200090034601221F490EF0AE
:100EC00095FD6FF015002FE02068616883685B680E
:100ED00004AA9847A58C0498A0FB050114A3D3E9A4
:100EE0000023DDF814C005FB0C11FFF777FD30601F
:100EF000258C0498A0FB05010DA3D3E90023DDF8A0
:100F000014C005FB0C11FFF769FD7060648C049838
:100F1000A0FB040106A3D3E90023059D04FB0511F2
:100F2000FFF75CFDB060002006B070BDAFF300803D
:100F300000CA9A3B0000000084210108D00D01087E
:100F4000A0210108000000002DE9F04F446A99B08B
:100F500016461F46CDE90467DDF89480054674B94E
:100F600010200BF033FB0246686220B9A84BEA213F
:100F7000A8480CF05BFAC0E901440460C4606B6AE5
:100F8000196851B15A684A60012393408B60284622
:100F90000BF078FF6B6A00221A603B1EB9BF23F08A
:100FA000004305930023C8F80030DDF814909A4BF5
:100FB000BCBF0122C8F8002033EA090319D1249AE2
:100FC00042F20F731360C9F31303334300F08085BB
:100FD000269B53B9914B22E0914B03930833269AF9
:100FE0001360039819B0BDE8F08F8C4B0393033363
:100FF000F5E7DDE90434CDE90C34DDE90C0100222C
:101000000023FFF75BFD804658B1249A012313604B
:10101000269B002B00F0598582481860431E0393DD
:10102000DFE716AB019317AB00932846DDE90C23ED
:101030000CF0A0F9C9F30A548346002C7ED00D9B16
:10104000CDF84C80C3F31303DDE90C0143F07F516D
:1010500041F44011A4F2FF34734B0022FFF7F4F87F
:1010600065A3D3E90023FFF7A7FA65A3D3E900231B
:10107000FFF7ECF8064620460F46FFF733FA62A367
:10108000D3E90023FFF798FA02460B46304639466B
:10109000FFF7DCF806460F46FFF758FD00228246B0
:1010A000002330463946FFF713FD48B15046FFF79D
:1010B00019FA32463B46FFF701FD08B90AF1FF3A3B
:1010C000BAF1160F57D8594B03EBCA03D3E90023E3
:1010D000DDE90C01FFF7FCFC00284ED00AF1FF3AD5
:1010E00000230F93169B1C1B631E099345BFC4F17D
:1010F00001030693002300234CBF09930693BAF122
:10110000000F3CDB099BCDF838A053440993002322
:101110000A93229B092B00F28D80052BC4BF043B50
:101120002293229BA3F10203CCBF00240124032BB2
:1011300000F28C80DFE803F02D4F4D5BDDE91643B4
:101140001C4404F23243202BC3BFC3F1400304F21A
:10115000124009FA03F3C3F12003C6BF26FA00F0D8
:10116000184306FA03F0FFF7ADF90123A1F1F87176
:10117000013C139370E70123B3E70F90B2E7069B9E
:10118000A3EB0A030693CAF100030A9300230E930C
:10119000BFE700230B93239B002B5ADC4FF0010980
:1011A000CDF820904B46CDF88C90686A00224260C2
:1011B000042202F114069E42416850D928460BF0E1
:1011C00021FE039000284ED1194B02464FF4D571F1
:1011D000CEE60123DEE700230B93239B0AEB0309F2
:1011E00009F10103012B0893B8BF0123DDE70123B7
:1011F000F2E700BFAFF3008061436F63A787D23F80
:10120000B3C8608B288AC63FFB799F501344D33FF5
:10121000CA250108E12501080000F07FC625010864
:10122000BD2501089A2501080000F83FC00E0108FD
:101230003B2601080124002322930B944FF0FF3931
:101240000022CDF8209012232392AEE701230B93C6
:10125000F4E7DDF88C90CDF820904B46A5E70131FE
:1012600041605200A5E76B6A039A1A60089B0E2B37
:1012700000F2A880002C00F0A580BAF1000F34DD48
:101280009A4A0AF00F0302EBC303D3E900341AF4BD
:10129000807FCDE910344FEA2A1416D0944BDDE953
:1012A0000C01D3E90823FFF7B1FACDE9040104F0FA
:1012B0000F0403278E4E54B9DDE91023DDE9040144
:1012C000FFF7A4FACDE9040129E00227F2E7E107DC
:1012D00008D5DDE91001D6E90023FFF76DF9CDE966
:1012E0001001013764100836E5E700F0A580CAF167
:1012F00000047E4B7E4E04F00F0203EBC203D3E9E1
:101300000023DDE90C01FFF757F9CDE904012411B1
:1013100000230227002C40F08480002BD2D10F9BA9
:10132000002B00F08B80DDE90434CDE91034DDE9D9
:101330001001704B0022FFF7CBFB00287ED0089BEA
:10134000002B7BD0B9F1000F38DDDDE910016A4BCD
:101350000022FFF731F9CDE904010AF1FF38013726
:101360004C463846FFF7BEF8DDE90423FFF724F9C1
:10137000624B0022FEF76AFFA1F15076CDE9100121
:101380001196002C5DD1DDE904015D4B0022FEF7D2
:101390005BFF02460B46CDE90423109A3346FFF764
:1013A000B5FB002840F09C82DDE90401109A06F1AB
:1013B0000043FFF78DFB002840F09082DDE90C34FC
:1013C000CDE90434179B002BC0F25281BAF10E0F05
:1013D00000F34E81454B03EBCA03D3E90034CDE95A
:1013E0000634239B002B80F2DB80089B002B00F34C
:1013F000D78040F07282424B0022DDE90601FFF700
:10140000DBF8DDE90423FFF777FB089C264600287C
:1014100040F04882039F312307F8013B0AF1010A9B
:1014200044E2E20705D5D6E90023FFF7C5F8013706
:101430000123641008366DE7022770E7089CD04648
:101440008FE70399294B214412910B9903EBC403B5
:10145000DDE9106753E90223002955D0294900200E
:10146000FFF7D4F93B463246FEF7EEFECDE9100118
:10147000039FDDE90401FFF769FB0446FFF732F83B
:1014800002460B46DDE90401FEF7DEFE303402467B
:101490000B46CDE9042307F8014BDDE91023FFF7E4
:1014A00017FB002874D1DDE9042312490020FEF760
:1014B000CBFEDDE91023FFF70BFB002840F0B780DF
:1014C000129B9F423FF47AAFDDE910010A4B0022E4
:1014D000FFF772F8084BCDE910010022DDE90401A5
:1014E000FFF76AF8CDE90401C3E700BFC00E0108A9
:1014F000980E01080000F03F0000244000001C404E
:10150000000014400000E03F30463946FFF754F831
:10151000CDE91001129B039C1493DDE90401FFF750
:1015200015FB1590FEF7DEFF02460B46DDE90401D0
:10153000FEF78AFE159B303304F8013B129B9C4258
:1015400006460F464FF0000224D1A44BDDE91001FE
:10155000FEF77CFE02460B4630463946FFF7D6FAC8
:10156000002863D1DDE910239C490020FEF76CFEC2
:1015700002460B4630463946FFF7AAFA00283FF4E8
:101580001DAF149F7B1E149317F8013C302BF8D02D
:10159000C2463BE0924BFFF70FF8CDE90401BCE7F0
:1015A000DDE90489039FDDE9062340464946FFF74C
:1015B0002DF9FFF7CBFA0446FEF794FFDDE9062389
:1015C000FEF7FAFF04F1300602460B464046494654
:1015D000FEF73AFE07F8016B039EDDF820C0BE1B44
:1015E000B44502460B4636D1FEF730FEDDE9062350
:1015F00080468946FFF78AFA58BBDDE90623404654
:101600004946FFF75BFA08B1E10722D4284659465C
:101610000BF038FC00233B70249B0AF1010018609A
:10162000269B002B3FF4DDAC1F60DAE427463B46E7
:101630001F4613F8012D392A07D1039A9A42F7D190
:101640000399302208F101080A701A7801321A70E1
:101650009EE7D046EBE7624B0022FEF7ADFF00228B
:10166000002380468946FFF729FA00289BD0CDE762
:101670000B9A002A00F0D080229A012A00F3B2804F
:10168000139A002A00F0A68003F233430A9C069FB7
:10169000069A1A440692099A01211A442846099288
:1016A0000BF058FC0646002F0CDD099B002B09DDD2
:1016B000BB42069AA8BF3B46D21A0692099AFF1A65
:1016C000D31A09930A9BF3B10B9B002B00F0A8805F
:1016D000002C10DD3146224628460BF0F9FC5A4614
:1016E0000146064628460BF04BFC594680462846E4
:1016F0000BF0C8FBC3460A9B1A1B04D05946284668
:101700000BF0E6FC8346012128460BF023FC0E9BE0
:10171000002B044640F386801A46014628460BF00B
:10172000D7FC229B012B04467FDD4FF00008236984
:1017300004EB830318690EF03CFFC0F12000099B05
:10174000184410F01F0000F09280C0F12003042B19
:1017500040F38A80C0F11C00069B03440693099B5A
:10176000034407440993069B002B05DD59461A469E
:1017700028460BF007FD8346099B002B05DD21461B
:101780001A4628460BF0FEFC04460F9B002B70D037
:10179000214658460EF05AFF00286ADA00235946BF
:1017A0000A2228460BF090FB0B9B0AF1FF3A834676
:1017B000002B00F09481314600230A2228460BF0CA
:1017C00083FBB9F1000F064600F39380229B022BA6
:1017D00057DC8EE0169BC3F1360357E70000E03F6D
:1017E00000002440089B5C1E0A9BA342BFBF0A9BCB
:1017F0000A94E21A0E9BB6BF9B181C1B0E93089B03
:10180000B8BF0024002BB9BF069B089A069F089B0F
:10181000BCBF9F1A00233BE70A9C069F0B9E42E732
:101820000A9A6BE7229B012B19DC049BBBB9059B31
:10183000C3F313039BB9059B23F000431B0D1B054A
:1018400083B1069B01330693099B013309934FF043
:1018500001080E9B002B7FF46AAF01206FE74FF069
:101860000008F6E79846F4E73FF47DAF18461C30D1
:1018700072E7089B002B36DC229B022B33DDDDF860
:101880002090B9F1000F0DD121464B460522284684
:101890000BF01AFB0146044658460EF0D7FE00280E
:1018A0003FF7B8AD239B039F6FEA030A4FF0000890
:1018B000214628460BF0E6FA002E3FF4A7AEB8F119
:1018C000000F05D0B04503D0414628460BF0DAFAA8
:1018D000314628460BF0D6FA98E600242646E1E782
:1018E000C246264696E50B9BDDF82090002B00F0C3
:1018F000FD80002F05DD31463A4628460BF042FCBC
:101900000646B8F1000F5CD0716828460BF07AFAF1
:10191000074628B9804B024640F2EA21FFF728BB70
:1019200032690232920006F10C010C300EF08DFC8F
:101930000122394628460BF025FC039B013308930E
:10194000039B4B440A93049B03F00103B0460993A5
:101950000646089B2146013B584604930EF0A2FD23
:10196000034630330690414658460B930EF06EFE08
:1019700032468146214628460BF074FCC2680B9B18
:10198000074602BB014658460EF060FE0B9B02461E
:1019900039462846CDE90B320BF074FA229B0C9A9B
:1019A000089F43EA0201099B0B430B9B0DD1392B86
:1019B00029D0B9F1000F01DD069B3133049A137071
:1019C00076E73046B9E70122E2E7B9F1000F06DB1E
:1019D000229941EA0909099959EA010120D1002A0D
:1019E000ECDD59460122284608930BF0CBFB21463B
:1019F00083460EF02BFE0028089B02DCDED1DA07BE
:101A0000DCD5392BD8D1049A392313703B461F46B5
:101A1000013B17F8012C392A50D001321A7047E7E0
:101A2000002A03DD392BEED00133C7E7089A0A9963
:101A300002F8013C8A422AD0594600230A2228464D
:101A40000BF042FAB04583464FF000034FF00A0214
:101A50004146284607D10BF037FA80460646089BD8
:101A60000133089375E70BF02FFA314680460023C7
:101A70000A2228460BF028FA0646F0E7B9F1000FD3
:101A8000039ACCBF4F46012717444FF00008594630
:101A90000122284608930BF075FB214683460EF081
:101AA000D5FD0028B2DC02D1089BDB07AED43B4653
:101AB0001F4613F8012D302AFAD0F9E6039A9A420C
:101AC000A5D10AF1010A312379E7144BFFF7A7BA30
:101AD000269B002B7FF480AA114BFFF7A0BAB9F127
:101AE000000F03DC229B022B3FF7CBAE039F214666
:101AF00058460EF0D7FC00F1300307F8013B039A7B
:101B0000BA1A9145BADD594600230A2228460BF03D
:101B1000DBF98346EBE700BF3B2601089925010866
:101B2000BD25010870B506460C460D7808E0114940
:101B300001EB8301104808F0BDFD237801332370C9
:101B4000EA1D23789A4213DB72199A4209DD6A1C56
:101B50009A42ECDB074901EB8301084808F0AAFD33
:101B6000EBE7044901EB8301054808F0A3FDE4E736
:101B700070BD00BF600D0020AC0F0108B40F01085C
:101B8000A80F010870B506460C460D7808E00C4910
:101B900001EB82010B4808F08DFD2378013323709F
:101BA0006B1D2278934209DB531BB342EFDA0449E1
:101BB00001EB8201044808F07DFDEEE770BD00BF37
:101BC000600D0020A80F0108A40F010800B59DB00A
:101BD00000248DF86F401A94402221460AA80EF086
:101BE00042FB049405940694079408940994009485
:101BF00001940294039476E09DF80830042B07D8F2
:101C0000DFE803F0030A0E1216004C4B1B681A9310
:101C100000238DF86F3018E0494B1B681A93F7E7E3
:101C2000484B1B681A93F3E7474B1B681A93EFE77F
:101C3000464B1B681A93EBE74B1C8DF86F300AABD1
:101C400003EB81011AA808F035FD9DF86F100F29EC
:101C5000F2D9009A019BB3F1FF3F08BFB2F1FF3FF9
:101C600007D13B4B186883681B6810220AA9984764
:101C700039E000238DF86F3019E0354C2068836817
:101C80001B6810220AA99847DDE9000109F000FF4E
:101C9000206883681B6810222E499847DDE90001FF
:101CA00009F0F6FE9DF86F3001338DF86F309DF826
:101CB00009209DF86F309A42DFD8254B1868836859
:101CC0001B681022244998470DE00DF16F019DF823
:101CD0000000FFF727FF21E01D4B186883681B6891
:101CE00010221D4998471D4B5B6A13B304AC0022B8
:101CF00000232146194809F05FF8EC4694E80F00EC
:101D00008CE80F009DF82030002B7FF475AF002386
:101D10008DF86F309DF80230002BD6D19DF803303E
:101D2000002BD9D00DF16F019DF80100FFF72AFFBC
:101D3000D2E76420002109F0ABFED4E7B40F01081C
:101D4000AC0F0108A40F0108B00F0108BC0F010877
:101D500000000020200D0020600D0020EC0300207A
:101D600008B5054B054A92E8030083E80300044BDD
:101D700018680EF0C0F808BDB00D0020D0120108A0
:101D80000413010810B590B00124ADF808400223F7
:101D9000ADF80A30194B0E93194B0F9300230193A2
:101DA00003228DF80420019A0D92194663F3000175
:101DB00063F3410163F3820163F3C501042262F31B
:101DC00088110C2262F3522163F3DE4163F3DF7169
:101DD0000DAA0C480CF057FC0B4BBFF35B8F53E87C
:101DE000002F002A03D143E800410029F7D1BFF3B7
:101DF0005B8F064809F07EFA10B010BDD00F0108C5
:101E00006C120108700D0108C00D0020400E00206A
:101E100000B587B0002300930193029303930493CA
:101E200005931B480CF002F81A480BF0FFFF1A4804
:101E30000BF0FCFF01238DF810304FF0FF324FF014
:101E4000FF33CDE9002304238DF80830002200235E
:101E50006946124808F054FF114B18680EF04BF811
:101E6000052200230F4809F007F810B107B05DF80C
:101E700004FB0D4B01225A700A4809F087F80B4801
:101E80000DF089FE0028FAD1084809F033FAEDE791
:101E9000C00D0020F00D0020D80D0020EC03002024
:101EA000B80F01080C0E0020040E0020300E002098
:101EB00070B598B0002311931093474B5B6A5BB9E0
:101EC000464B5B6A002B53D0444E0022002344490A
:101ED000304608F071FF06E03F4E002200234049E3
:101EE000304608F069FF01223D4910A801F0A6FA2A
:101EF00000240DE0E300FF209840109A1040D840E5
:101F0000C0B2384D28550BF044FF28550134E4B2D7
:101F1000012CEFD9344B5B7B5BB9334901234B7305
:101F2000324B186883681B6898471190119B002BEF
:101F300020DB2E4B186883685B680222294998478A
:101F40001190119B002B44D101234FF47A70002192
:101F5000CDE90A018DF8303005238DF831300123A9
:101F60008DF83830002200230AA9214808F0C8FE65
:101F700018B070BD0123ADF808300223ADF80A3067
:101F80001C4B16931C4B17930023019303228DF8CF
:101F90000420019A1592194663F3000163F341018D
:101FA00063F3820163F3C501042262F388110C22FA
:101FB00062F3522163F3DE4163F3DF7115AA0F4828
:101FC0000CF061FB002200230549304608F098FE22
:101FD000CEE70023B9E700BFBC040020880400203E
:101FE000280E0020240E002004000020080E0020EF
:101FF000EC030020F40F010898120108700D01088D
:102000002DE9F04F9DB04FF0FF330F9300230E9357
:10201000ADF836308DF83530624B5B7B5BB1614992
:1020200000234B73604B186883681B6898470F90B8
:102030000F9B002B46DB5D480EF00CF85C4BA3FBBE
:102040000030C0080E905B4B1B79002B3AD1564BE9
:1020500018680E9B13B10E99002201E000210A4678
:102060004FEA820C4CEA917C8B005B1842EB0C022D
:10207000DB1852418168CC680DF1350103910DF1F7
:10208000360102910093019202224B49A0470F9022
:102090000F9B002B16DD484B1B780D2B15D0002411
:1020A000002522462B464449444808F029FE224692
:1020B0002B460DF13601424808F022FE414B1868CC
:1020C0000DF019FF1DB0BDE8F08F4FF0010BADF81A
:1020D00014B04FF0020AADF816A03B4B1493DFF892
:1020E000EC90CDF85490002404944FF003088DF840
:1020F0001080049B1393214664F3000164F34101B3
:1021000064F3820164F3C501042767F388110C2688
:1021100066F3522164F3DE4164F3DF712C4D2346F4
:1021200013AA28460CF0AFFAADF814B0ADF816A01B
:10213000284B1A93CDF86C9004948DF81080049B72
:102140001993214664F3000164F3410164F38201B1
:1021500064F3C50167F3881166F3522164F3DE412D
:1021600064F3DF71234619AA28460CF08CFA0F4C51
:1021700020460DF0C7FF0F4B174A92E8030083E893
:1021800003004FF4AA70002109F082FC45F67002AA
:102190000023CDE9002341F21C620023204609F010
:1021A000B5FE7CE704000020080E00208805002012
:1021B000CDCCCCCCB00D0020200E0020540400204B
:1021C0002004002008130108101001088C120108D7
:1021D000700D010820100108C81201082DE9F04710
:1021E00084B04FF0FF324FF0FF33924808F044FEC6
:1021F000914B5B78002B47D18F4B1B78002B40F025
:10220000AF808D4B9B78002B40F0D8818B4B1D68A5
:10221000AB685B6802AA02212846984770BB029C03
:10222000039EB20042EA9472A3001B1946EB02021D
:10223000D20042EA5372DB001B1B62EB0602120162
:1022400042EA13721B011B1946EB0206B60146EA6D
:1022500093669C017A4A002320463146FEF7BEFB76
:1022600002464FF0FF33A342764BB34106D3AB682F
:102270001C680023009302212846A0476D4808F0FF
:1022800085FE04B0BDE8F0876C4BD3F80080D8F829
:1022900008305B6802AA022140469847002856D1C0
:1022A000029E039FBC0044EA9674B3009B1947EB5F
:1022B0000404E40044EA5374DB009B1B64EB070452
:1022C000240144EA13741B019B1947EB0404A40185
:1022D00044EA93649D015A4A002328462146FEF7AA
:1022E0007DFB81464FF0FF33AB42564BA3412ED3CB
:1022F000BA0042EA9672B3009B1947EB0202D20081
:1023000042EA5372DB009B1B62EB0702120142EAB6
:1023100013721B019E1947EB02077F0147EAD6673C
:102320007601474A002330463946FEF757FB0346FD
:102330004FF0FF32B242434ABA4108D3D8F80820DE
:102340001468002200924A4602214046A0474FF4FA
:10235000C870002109F09CFB374B00225A7055E7EA
:10236000364BD3F80080D8F808305B6802AA022107
:1023700040469847002856D1029E039FBC0044EA7D
:102380009674B3009B1947EB0404E40044EA5374C9
:10239000DB009B1B64EB0704240144EA13741B015C
:1023A0009B1947EB0404A40144EA93649D01244A69
:1023B000002328462146FEF711FB81464FF0FF33EC
:1023C000AB42204BA3412ED3BA0042EA9672B3002F
:1023D0009B1947EB0202D20042EA5372DB009B1BBF
:1023E00062EB0702120142EA13721B019E1947EBCE
:1023F00002077F0147EAD6677601114A002330467B
:102400003946FEF7EBFA03464FF0FF32B2420D4A6F
:10241000BA4108D3D8F808201468002200924A462E
:1024200002214046A047044B00221A70014808F0E0
:10243000ADFD26E70C0E0020040E0020000E00204B
:1024400040420F003F420F004FF46170002109F03D
:102450001FFB0135EDB2012D00F2B2805C4B1E680E
:10246000B3685B6802AA022130469847002864D10D
:10247000DDF80890DDF80C804FEA880444EA99748E
:102480004FEA890010EB090048EB0404E40044EA39
:102490005074C000B0EB090064EB0804240144EA66
:1024A0001074000110EB090048EB0404A40144EA95
:1024B00090644FEA801A474A002350462146FEF7AF
:1024C0008DFA07464FF0FF335345434BA34134D3B6
:1024D0004FEA880242EA99724FEA890313EB090333
:1024E00048EB0202D20042EA5372DB00B3EB09036D
:1024F00062EB0802120142EA13721B0113EB09039B
:1025000048EB02084FEA481848EAD3685C01314AB0
:10251000002320464146FEF761FA03464FF0FF32A2
:10252000A2422D4A72EB080207D3B2681468002257
:1025300000923A4602213046A0474FF4C87000216D
:1025400009F0A6FA224B1E68B3685B6802AA022152
:102550003046984700287FF477AF029C039FBA006B
:1025600042EA9472A3001B1947EB0202D20042EA2E
:102570005372DB001B1B62EB0702120142EA13726B
:102580001B011B1947EB0207BF0147EA93679C0138
:10259000104A002320463946FEF720FA02464FF043
:1025A000FF33A3420C4BBB41FFF44EAFB3681C6832
:1025B0000023009302213046A04745E700254AE763
:1025C000064B00229A70064808F0E0FC59E600BF6E
:1025D000000E002040420F003F420F00040E00207A
:1025E0000C0E002070B58CB04FF0FF330B935348A6
:1025F000534B18600DF007FA002800F0878051480F
:1026000008F006F9504C206081680269136823F4D1
:10261000005313600B684FF480720D2198472068B7
:1026200083680269126812F4005F40F084804FF4FE
:10263000B8229C6902F4C02302F4A0320D21A04705
:10264000424B434A5A604FF400529A603E4B18681E
:102650008368DB6913B101223C4998473D4E3E49EE
:1026600030460DF091FA3D493D480DF08DFA0022BB
:102670003C493D480DF03AFD3C480DF06BFA002412
:1026800004940594069407940894099401258DF800
:1026900012508DF813500022002304A9344808F08A
:1026A0002FFB344B344A92E8030083E80300334B9A
:1026B0005C7003221A709D70DD701C715C71304972
:1026C00030488860CB600C604C602F4B5C701A7097
:1026D0009A70DD701C715C712C492D488860CB604C
:1026E0000C604C602B4B5C701A7004229A70DD7089
:1026F0001C715C71284A9060D36014605460274B51
:102700005D70304608F0F6FD0CB070BD0C4B1B68D8
:102710001B680393224B0293224B019300900346C4
:10272000042221490BF0E3FA4FF0FF304FF0FF3164
:1027300009F0AEF963E74FF470327AE7580A0108FE
:10274000000E002060100108AC0D0020A00D00203C
:10275000851D0008300E0020DD210008111E000834
:10276000400E0020611D0008880500200C0E00208E
:10277000EC030020B00D0020C8120108B80D0020A5
:10278000C00D0020BC040020D00D0020D80D00207A
:1027900088040020E80D0020F00D0020040E002029
:1027A000BC12010838100108700D01082DE980489D
:1027B000ADF5217D00AF0023A7F89E30C7F8983013
:1027C000C7F89030A7F89430C7F88830A7F88C3055
:1027D0003B677B67BB67FB67C7F88030C7F884300F
:1027E0004FF0FF304FF0FF3109F052F9C04B7B64DE
:1027F0004346D8469B4600F067BD0123A7F85030FA
:102800000223A7F85230BB4BC7F8B030BA4BC7F819
:10281000B4300023FB64032287F84C20FA6CC7F81D
:10282000AC2063F3000963F3410963F3820963F3A6
:10283000C509042262F388190C2262F3522963F35A
:10284000DE4963F3DF7907F1AC024946AB480BF090
:102850001AFF00F039BD07F19C05285D0BF099FACD
:102860002855E3009840D7F898301843C7F89800E7
:102870000134E4B2012CEED9002207F1880107F1FE
:10288000980000F0DBFD97F88930042B01D0032B72
:102890004CD197F88B30002B00F04082012B40F098
:1028A000C584A7F850300223A7F85230944BC7F8DC
:1028B000E030914BC7F8E4300024FC64032587F82E
:1028C0004C50FB6CC7F8DC3064F3000B64F3410B35
:1028D00064F3820B64F3C50B042363F3881B0C239E
:1028E00063F3522B64F3DE4B64F3DF7B234607F183
:1028F000DC02594681480BF0C6FE87F8905097F8E5
:102900008A3087F8923087F8954087F8934087F8A7
:10291000944087F89140052B00F2CE81DFE813F058
:102920006401860029019A019A01F8040122A7F89E
:1029300050200222A7F85220C7F840D088B069463C
:1029400011F10C026CD014200124A7F850401AB1E8
:10295000042801DD6B4C0C610224A7F852401AB127
:10296000082801DD644C4C6112B10C2800DD8B613C
:102970001AB1102801DD0323CB61132853DD142382
:1029800032B10020F864052087F84C00F86CC8606C
:102990006FF3000A6FF3410A6FF3820A6FF3C50AFF
:1029A000042565F3881A03F47D7363F3522A6FF3E9
:1029B000DE4A6FF3DF7A514C0023514620460BF07C
:1029C00062FED7F840D00123A7F850300223A7F8C1
:1029D00052304D4BC7F8C830474BC7F8CC300023B6
:1029E000FB64032287F84C20FA6CC7F8C42063F319
:1029F000000863F3410863F3820863F3C50865F3D5
:102A000088180C2262F3522863F3DE4863F3DF7800
:102A100007F1C402414620460BF035FE00F054BCDD
:102A20006FF0004090E76FF01B03A9E70123A7F8C0
:102A300050300223A7F85230344BC7F828312E4BC0
:102A4000C7F82C310023FB64032287F84C20FA6C72
:102A5000C7F824217A6B63F3000263F3410263F346
:102A6000820263F3C5021146042262F388110C222C
:102A700062F3522163F3DE4163F3DF71796307F59B
:102A800092721E480BF0FFFD97F88830002B41D161
:102A90000123A7F850300223A7F852301C4BC7F887
:102AA0004031154BC7F844310023FB64032287F8FB
:102AB0004C20FA6CC7F83C213A6963F3000263F3D7
:102AC000410263F3820263F3C5021146042262F3FA
:102AD00088110C2262F3522163F3DE4163F3DF714C
:102AE000396107F59E7205480BF0CDFD71E000BF1E
:102AF0008804002068100108A4120108700D010864
:102B0000101001087C100108A4100108BC10010875
:102B1000DC1001080123A7F850300223A7F8523037
:102B2000CF4BC7F85831CF4BC7F85C310023FB645B
:102B3000032287F84C20FA6CC7F85421FA6863F333
:102B4000000263F3410263F3820263F3C50211469C
:102B5000042262F388110C2262F3522163F3DE41F6
:102B600063F3DF71F96007F5AA72BF480BF08BFDC4
:102B70002FE00123A7F850300223A7F85230BB4BB7
:102B8000C7F81031B74BC7F814310023FB64032298
:102B900087F84C20FA6CC7F80C213A6B63F30002FB
:102BA00063F3410263F3820263F3C5021146042218
:102BB00062F388110C2262F3522163F3DE4163F366
:102BC000DF71396307F58672A7480BF05CFDA84BEF
:102BD0007B64786C002800F05A830022002307F100
:102BE000900108F08DF852E30123A7F8503002233A
:102BF000A7F852309F4BC7F870319A4BC7F8743121
:102C00000023FB64032287F84C20FA6CC7F86C2180
:102C1000FA6A63F3000263F3410263F3820263F32F
:102C2000C5021146042262F388110C2262F352217C
:102C300063F3DE4163F3DF71F96207F5B6728A4828
:102C40000BF021FD97F88830032B00F05E83002302
:102C50007B641CE30123A7F850300223A7F852300D
:102C6000854BC7F8F8307F4BC7F8FC300024FC6474
:102C7000032387F84C30FB6CC7F8F430BB6A64F36D
:102C8000000364F3410364F3820364F3C5031A464B
:102C9000042363F388120C2363F3522264F3DE42AD
:102CA00064F3DF721146BA62234607F1F4026E48FC
:102CB0000BF0E9FC7C64EAE20123A7F85030022320
:102CC000A7F852306D4BC7F88831664BC7F88C3186
:102CD0000024FC64032387F84C30FB6CC7F8843174
:102CE000BB6864F3000364F3410364F3820364F399
:102CF000C5031A46042363F388120C2363F352229C
:102D000064F3DE4264F3DF721146BA60234607F5CE
:102D1000C27255480BF0B7FC7C64B8E24FF0010377
:102D2000A7F850304FF00202A7F85220544BC7F8D2
:102D3000A0314C49C7F8A4110024FC644FF00300F3
:102D400087F84C00FB6CC7F89C3164F3000664F311
:102D5000410664F3820664F3C506042565F388160C
:102D60000C2565F3522664F3DE4664F3DF762346D2
:102D700007F5CE7231463C480BF085FC4FF001035D
:102D8000A7F850304FF00202A7F852203D4BC7F889
:102D9000B8313449C7F8BC11FC644FF0030087F820
:102DA0004C00FB6CC7F8B431FB6B64F3000364F3B5
:102DB000410364F3820364F3C503042262F38813BE
:102DC00065F3522364F3DE4364F3DF731946FB6358
:102DD000234607F5DA7224480BF055FC97F88A3041
:102DE000042B00F2F181DFE813F0DD000500AB00F9
:102DF00072010F010123A7F850300223A7F85230C7
:102E0000214BC7F81832174BC7F81C320023FB645C
:102E1000032287F84C20FA6CC7F814227A6A63F30D
:102E2000000263F3410263F3820263F3C5021146B9
:102E3000042262F388110C2262F3522163F3DE4113
:102E400063F3DF71796207F5057207480BF01BFC2D
:102E500097F88830032B19D000237B6417E200BF5A
:102E6000FC100108A4120108700D010830110108BE
:102E7000880400204C110108641101088411010824
:102E8000A4110108B4110108BC1001080124A7F81D
:102E900050400223A7F85230BE4BC7F83032BE4B29
:102EA000C7F834320023FB64032287F84C20FA6C05
:102EB000C7F82C227A6863F3000263F3410263F3DC
:102EC000820263F3C5021146042262F388110C22C8
:102ED00062F3522163F3DE4163F3DF71796007F53A
:102EE0000B72AE480BF0CFFBAD4BBFF35B8F53E8DB
:102EF000002F224343E800210029F8D1BFF35B8F64
:102F000087F8804087F87840052387F879304FF4B8
:102F10007A720023C7E91C230022002307F1700105
:102F2000A04807F0EDFEA04B9C70A0480CF033FECB
:102F30000028FAD19D4808F0DDF900237B64A6E162
:102F40000123A7F850300223A7F85230984BC7F856
:102F50000032914BC7F804320024FC64032387F845
:102F60004C30FB6CC7F8FC313B6A64F3000364F33C
:102F7000410364F3820364F3C5031A46042363F335
:102F800088120C2363F3522264F3DE4264F3DF728F
:102F900011463A62234607F5FE7280480BF073FB38
:102FA0007C6474E10123A7F850300223A7F8523063
:102FB000804BC7F84832784BC7F84C320024FC6489
:102FC000032387F84C30FB6CC7F84432FB6964F389
:102FD000000364F3410364F3820364F3C5031A46F8
:102FE000042363F388120C2363F3522264F3DE425A
:102FF00064F3DF721146FA61234607F511726748E0
:103000000BF041FB7C6442E10123A7F8503002231E
:10301000A7F85230684BC7F8D0315F4BC7F8D431AE
:103020000023FB64032287F84C20FA6CC7F8CC21FC
:10303000BA6963F3000263F3410263F3820263F34C
:10304000C5021146042262F388110C2262F3522158
:1030500063F3DE4163F3DF71B96107F5E6724F4850
:103060000BF011FB97F88830032B02D000237B6410
:103070000DE1524BBFF35B8F53E8002F42F001028A
:1030800043E800210029F7D1BFF35B8F012487F8C3
:10309000804087F87840052387F879304FF47A72BA
:1030A0000023C7E91C230022002307F170013D48DB
:1030B00007F026FE3C4B9C703C480CF06CFD002851
:1030C000FAD13A4808F016F900237B64DFE00123C7
:1030D000A7F850300223A7F85230394BC7F8E8312F
:1030E0002D4BC7F8EC310023FB64032287F84C20FA
:1030F000FA6CC7F8E4217A6963F3000263F34102D2
:1031000063F3820263F3C5021146042262F388115D
:103110000C2262F3522163F3DE4163F3DF717961C4
:1031200007F5F2721D480BF0AEFA97F88830032BC2
:1031300002D000237B64AAE0224BBFF35B8F53E8ED
:10314000002F42F0010243E800210029F7D1BFF32C
:103150005B8F012487F8804087F87840052387F843
:1031600079304FF47A720023C7E91C230022002330
:1031700007F170010B4807F0C3FD0B4B9C700B4827
:103180000CF009FD0028FAD1084808F0B3F8002334
:103190007B647CE0C8110108A4120108700D0108CD
:1031A000C40D0020EC030020040E0020300E00208F
:1031B000301101084C110108EC110108F40D002038
:1031C00014120108DC0D00200123A7F8503002235F
:1031D000A7F85230504BC7F86032504BC7F86432F2
:1031E0000024FC64032387F84C30FB6CC7F85C3286
:1031F0003B6864F3000364F3410364F3820364F304
:10320000C5031A46042363F388120C2363F3522286
:1032100064F3DE4264F3DF7211463A60234607F539
:1032200017723F480BF02FFA7C6430E00123A7F8B7
:1032300050300223A7F852303A4BC7F87832374B58
:10324000C7F87C320024FC64032387F84C30FB6C05
:10325000C7F87432BB6B64F3000364F3410364F397
:10326000820364F3C5031A46042363F388120C2314
:1032700063F3522264F3DE4264F3DF721146BA63F1
:10328000234607F51D7226480BF0FDF97C64B7F95B
:103290009E000AF08FFD012387F8723087F87330A3
:1032A00087F8700097F88D3087F87130002387F821
:1032B00080300022002307F170011B4807F020FD39
:1032C0000120002108F0E4FB184B5B6A002BF7D0CB
:1032D0000024002522462B4607F19C01134807F0E5
:1032E0006BFD22462B4607F19E01114807F064FD55
:1032F00097F89C3023B997F89D30002B3FF47DAAB6
:103300000024C7F89840FFF7B5BA0A4B7B6460E425
:1033100000237B64BBE700BF84110108A4120108ED
:10332000700D010838120108EC030020540400203D
:1033300020040020BC04002080B586B00023049344
:10334000354A53733548364B18600CF05CFB002847
:103350003FD0334B186883681B682F499847002873
:103360003EDBFFF73FF92E4B18688368DB682D4D75
:103370000DF11702039205AC02944FF0FF364FF0A7
:10338000FF37CDE900670222294698474FF4AA701B
:10339000002108F07DFB45F670020023CDE90023F3
:1033A00041F21C620023204808F0B0FD00260027EF
:1033B00032463B4629461D4807F0A2FC32463B46B2
:1033C00021461B4807F09CFC1A4B18680CF093FD33
:1033D0001BE04FF0FF304FF0FF3108F059FBB8E72A
:1033E0004FF0FF304FF0FF3108F052FBB9E7FEF726
:1033F0005FFD114B1A6892E8030083E80300FEF7B3
:10340000FFFD0120002108F043FB0B4B1B79012B32
:10341000EDD0FEF7F5FDF4E704000020880A01086E
:10342000080E0020200E00208805002054040020F3
:103430002004002008130108B00D0020F0B583B06F
:1034400007460E46154600248DF8074008E0DDB11A
:103450000DF107030222317838460AF055FC013499
:10346000052C6EDC052CFAD801A353F824F000BF1C
:103470004F34000899340008BB340008DD340008DC
:10348000FF340008213500080DF107030222314600
:1034900038460AF05AFCE2E73DB10DF1070303227A
:1034A000717838460AF030FCD9E70DF107030322A2
:1034B000711C38460AF049FCD1E73DB10DF1070314
:1034C0000422B17838460AF01FFCC8E70DF1070363
:1034D0000422B11C38460AF038FCC0E73DB10DF1BA
:1034E00007030122F17838460AF00EFCB7E70DF128
:1034F00007030122F11C38460AF027FCAFE73DB173
:103500000DF107030122317938460AF0FDFBA6E7E9
:103510000DF107030122311D38460AF016FC9EE723
:103520003DB10DF107030322717938460AF0ECFB37
:1035300095E70DF107030322711D38460AF005FCDB
:103540008DE703B0F0BD00BF2DE9F04F89B00292C6
:1035500010F0030A40F0158207468B46041DE0B1C7
:1035600027B1E21B04325A4500F20E825D1ECDF8EF
:1035700000A0CDF80CA0CDF804A000264FF0040860
:10358000C14607B12360C64A9342C0F05A81C54A7A
:103590009342C0F07F81002254E101F0070B5C44AC
:1035A000CBF1080BDCE7252B05D101264FF00408F1
:1035B000C14600E00026654605F1010C6B78002B42
:1035C00000F08481002EEED0A3F120015A29F1D819
:1035D00001A252F821F000BFB7350008B535000848
:1035E000B5350008B7350008B5350008B535000811
:1035F000B5350008B5350008B5350008B535000803
:1036000065370008B7350008B5350008B73500083C
:10361000B7350008B5350008B7350008B7350008DC
:10362000B7350008B7350008B7350008B7350008CA
:10363000B7350008B7350008B7350008B7350008BA
:10364000B5350008B5350008B5350008B5350008B2
:10365000B5350008B5350008B5350008CD37000888
:10366000B5350008B5350008B5350008CD37000878
:10367000CD370008CD370008B5350008B53500084E
:10368000B5350008B5350008B7350008B535000870
:10369000B5350008B5350008B5350008B535000862
:1036A000B5350008B5350008B5350008B535000852
:1036B000B5350008B53500085D370008B535000898
:1036C000B5350008B5350008B5350008B535000832
:1036D000B5350008B5350008B5350008CD37000808
:1036E000B53500085D3700085D370008CD370008A4
:1036F000CD370008CD370008B73500085D37000822
:1037000045370008B5350008B7350008B53500085D
:103710002D3800085D3700082D380008B535000841
:10372000B53500082D380008553700085D3700080A
:10373000B5350008B53500085D370008B535000817
:103740004D3700084FF00808C14634E74FF0040831
:10375000C14630E74FF00408C1462CE72A786C2AAE
:1037600026D0002604EB0802013AC8F100010A4005
:10377000144627B1D11B49448B45C0F00881732BF7
:1037800059D0B9F1040F00F09980B9F1080F40F059
:103790000781129B073323F0070303F108011291FD
:1037A000D3E900010FB1C2E9000102F1080402E708
:1037B0001CF8022C6C2A04D000264FF00408C146E5
:1037C000D0E700264FF00808C146CBE72B784C2BFA
:1037D0001CD0129B073323F0070303F10802129257
:1037E000D3E90001E21D22F0070247B1D31B0833E1
:1037F0005B4515D82B784C2B15D0C2E9000102F19E
:10380000080400264FF00808C146D4E6129B07338F
:1038100023F0070303F108021292D3E90001E1E764
:103820006FF01B00AAE0C2E90001E8E700264FF0B4
:103830000408C14696E7129B1A1D12921B68654642
:103840009FE60022029901F00101104602B1F9B190
:10385000A4EB070C4FEA9C0219B1BCF5007F80F085
:10386000998001990F2900F29880EFB1D2B208AB8C
:103870000B4403F8102C78B162F07F0208AB0B44C4
:1038800003F8102C009B01330093019B013301933B
:10389000043491E60122D5E7039B01330393F4E757
:1038A000D00801080027010810B10BF1010BECE76B
:1038B0001846FDF7D0FA831C9B44E6E7129B191DBE
:1038C00012911B6807B11360141D74E6E31BB3F576
:1038D000806F68D25FB100223A609B083B70039B07
:1038E0007B70009BBB70D3B9DDF8049039E05B447A
:1038F000A3F1080042E00133984213D908AA1A4400
:1039000012F8101C12F9102C002AF4DA01F07F01D1
:10391000E21B0132934549D304F8011BEBE7534600
:103920000198E9E7DDF804901BE008AB534413F875
:10393000106C57F82680002347F826304046FDF7E4
:103940008AFA451CE31B2B4401339B4531D304F811
:10395000016B2A46414620460CF077FC2C440AF1C4
:10396000010AD14509D9009B002BDED008AB534496
:1039700013F9103C002BD8DAF1E7E01B09B0BDE8E1
:10398000F08F6FF00D00F9E76FF01B00F6E76FF0B6
:103990001B00F3E76FF01500F0E76FF01500EDE79F
:1039A0006FF01500EAE76FF01500E7E76FF01B0016
:1039B000E4E76FF01B00E1E708B50B6801330B602B
:1039C000014B1B68984708BD14000020014B18608C
:1039D000704700BF1400002000B583B002460B46BC
:1039E0000021019101A9034800F02CFA03B05DF811
:1039F00004FB00BFB939000810B584B0044601903B
:103A000002910021039101A9054800F01BFA039BD4
:103A1000029A934201DA0022E254039804B010BDE6
:103A2000D1DE000884460268002005E000EB80003B
:103A3000013203EB4000303813780449595C11F02F
:103A4000040FF3D1CCF80020704700BF892401088F
:103A500070B582B0044600230360436083604B78F6
:103A6000252B02D04E1C01251FE0881CE37045E188
:103A7000237843F004032370B5B1013614E02378B2
:103A800043F008032370F7E7237843F01003237013
:103A9000F2E7237843F020032370EDE7237843F027
:103AA00040032370E8E7002545B33378203B102B13
:103AB000F9D801A252F823F0893A0008A73A000881
:103AC000A73A0008933A0008A73A0008A73A000866
:103AD000A73A0008A73A0008A73A0008A73A000842
:103AE000A73A00087F3A0008A73A0008713A000890
:103AF000A73A0008A73A00089D3A0008237803F087
:103B00004403442B5FD00196237843F08003237055
:103B100033782A2B5CD001A8FFF784FF019B9E42DB
:103B20000FD0237843F0800323706060DBB2C3F3CF
:103B30004003002854DB00221343227863F3410240
:103B40002270019B01931B782E2B14BF00230123AD
:103B5000627863F341026270002B43D0019B5A1CD0
:103B600001925B782A2B3FD001A8FFF75BFFA06092
:103B70002378C3F3400300283EDB0022134322785E
:103B800063F341022270019803784C3B2E2B00F224
:103B90009D80DFE803F0909B9B9B9B9B9B9B9B9B4B
:103BA0009B9B9B9B9B9B9B9B9B9B9B9B9B9B9B9B65
:103BB0009B9B339B579B459B9B9B9B9B9B9B899B69
:103BC0009B9B9B9B820023786FF3861323709AE75D
:103BD000637843F001036370334601330193B1E727
:103BE0000122A9E70198CFE7637843F004036370EB
:103BF000104601300190C7E70122BFE7421C43781D
:103C0000682B06D06378022161F3C6036370104607
:103C10001EE06378012262F3C6036370023017E08E
:103C2000421C43786C2B06D06378032161F3C603F2
:103C3000637010460CE06378042262F3C60363707D
:103C4000023005E06378052262F3C6036370013039
:103C500010F8013BE370A3F14102372A7DD8DFE879
:103C600002F05E7C7C7C5E5E5E7C7C7C7C7C7C7C12
:103C70007C7C7C7C7C7C7C7C7C4F7C7C7C7C7C7CB1
:103C80007C7C5E7C4F3A5E5E5E7C3A7C7C7C7C65B4
:103C90004F717C7C717C4F7C7C4F6378062262F391
:103CA000C60363700130D3E76378072262F3C6036B
:103CB00063700130CCE76378082262F3C603637057
:103CC0000130237843F002032370C1E763786FF378
:103CD000C6036370BCE7A278012161F30202A270FF
:103CE000627802F07802402A10D0632B13D0237838
:103CF000C3F34002154365F34103237002B070BD66
:103D0000A278022161F30202A270E9E7217841F072
:103D100001012170E9E7151E18BF0125E7E7A37827
:103D2000042262F30203A3700125E0E7A3780322D3
:103D300062F30203A370637803F07803402BD6D1BB
:103D40000125D4E7A378032262F30203A37063780A
:103D500013F0780FCBD00125C9E7237843F0010396
:103D60002370C4E72DE9F04F83B004460D4601925D
:103D70009A460C9ED378324A13F802B00BF0030B2C
:103D80006F2B0FD006D9702B0FD0782B10D14FF09E
:103D9000100923E0582B02D04FF00A091EE04FF023
:103DA00010091BE04FF0080918E04FF0100915E06A
:103DB0004FF00A0912E0D2B23032D2B206F8012D29
:103DC0003A46434620462946FCF708FEBC4275F1B8
:103DD000000319D3564517D904460D464FF0000885
:103DE0004F464A46434620462946FCF7F7FD092A36
:103DF000E1D9BBF1010F03D0D2B25732D2B2DDE725
:103E0000D2B23732D2B2D9E7019B1B7813F0200F20
:103E100005D0B9F1080F06D0B9F1100F09D030461E
:103E200003B0BDE8F08F019A937843F008039370D4
:103E3000F5E7019A937843F010039370EFE700BF22
:103E4000892401082DE9F04F91B006460D469146B0
:103E50000393002499F80000002800F0D58225285B
:103E600008D009F101092946B0470028C0F2CD82E7
:103E70000134EFE700230493059306930793089317
:103E80000993494606A8FFF7E3FD02909DF8193013
:103E900013F0010F00F09780039B1A1D03921F6817
:103EA000002FC0F288809DF8193013F0040F00F045
:103EB0009C80039B1A1D0392D3F800A0BAF1000F57
:103EC000C0F28A800023079308939DF81A3003F00C
:103ED00007039DF81910C1F3C301012B00F08E8078
:103EE000022B00F0D380042B00F02481032B00F080
:103EF0003B819DF8188018F0030B40F03B819DF842
:103F00001B30253B532B00F2E681DFE813F0400124
:103F1000E401E401E401E401E401E401E401E40179
:103F2000E401E401E401E401E401E401E401E40169
:103F3000E401E401E401E401E401E401E401E40159
:103F4000E401E401E401E401E401E401E401E40149
:103F5000E401E401E401E401E401E401E401E40139
:103F6000E401E401E401E401E401E401E401E40129
:103F7000E401E4018101E401E401E401E401E4017C
:103F8000E401E401E401E401E4015E016701E4010C
:103F9000E401E401E4016701E401E401E401E40176
:103FA000BE018101A201E401E4014D01E4018101AE
:103FB000E401E40181019DF8183043F004038DF819
:103FC00018307F426FE79DF91830002B02DB4FF06D
:103FD000FF3768E7079F66E79DF819306FF34103E5
:103FE0008DF819304FF0FF3A6CE713F0020F02D052
:103FF000DDF820A066E74FF0FF3A63E7CB1E042B05
:1040000004D8DFE803F00B1D29353500039B1A1D8A
:1040100003921B68DA170493059206E0039B1A1DAE
:1040200003921B68DA1704930592012928D002290C
:104030007FF45FAFBDF91030DA170493059258E7AB
:10404000039B073323F0070303F108020392D3E92C
:104050000023CDE90423E8E7039B073323F007039C
:1040600003F108020392D3E90023CDE90423DCE73E
:10407000039B1A1D03921B68DA1704930592D4E779
:104080009DF8103004930023059332E7CB1E042BD8
:1040900004D8DFE803F00B1F35414100039B1A1DD4
:1040A00003921B680493002305931EE09DF81B30C8
:1040B000632B07D0039B1A1D03921B6804930023F4
:1040C000059312E0039B1A1D03921B6804930023BF
:1040D00005930AE0039B073323F0070303F108026B
:1040E0000392D3E90023CDE9042301291CD002293E
:1040F0007FF4FFAEBDF81030049300230593F8E67B
:10410000039B073323F0070303F108020392D3E96B
:104110000023CDE90423E8E7039B1A1D03921B68E3
:10412000049300230593E0E79DF8103004930023E7
:104130000593DEE608290BD0039B073323F0070322
:1041400003F108020392D3E90023CDE90423D0E66A
:10415000039B073323F0070303F108020392D3E91B
:104160000023CDE90423C4E6039B1A1D03921B68B8
:104170000493BEE6029F3B464A462946304609F074
:104180005BFF0028C0F241810444B94662E629463B
:104190002520B0470028C0F238810134D8460DF1FF
:1041A0003E0A4FF000099BE0DDF81090BAF1000FD5
:1041B00007DB514648460CF069F909EB000AD8467E
:1041C0008EE04846FCF747FEF7E7049B8DF8283061
:1041D000D8460DF1290A0DF1280981E018F0080FE1
:1041E00005D118F0100804D04FF0200801E04FF07E
:1041F0002B08049A059B002B02DB0492059308E030
:10420000524263EB4303049205934FF02D0800E004
:10421000D8460DF13E0300930AAB06AADDE904017E
:10422000FFF7A0FD8146BAF1000FC0F288800DF1C2
:104230003E03A3EB09039DF818206FF386128DF857
:1042400018209A457ED9AAEB030307930DF13E0A85
:1042500046E0049828B9D846DFF8B4A1AAF10509C8
:104260003EE00DF13E0300930AAB06AA0021FFF7E2
:1042700079FD81469DF81A3043F010038DF81A300D
:1042800078238DF81B30D846CDE7049A9DF8193075
:10429000C3F3C303072B06D8DFE803F0040B0D0FAD
:1042A0001115191B1460D8460DF13E0A4FF0000994
:1042B00016E01470F7E71480F5E71460F3E7E317EE
:1042C00014605360EFE7E31714605360EBE714608A
:1042D000E9E71460E7E7D8460DF13E0A4FF0000920
:1042E000B9F1000F00F08D80AAEB0902B8F1000FC0
:1042F00000D001329DF81A1011F0100F25D00232B3
:10430000079B134411F0400F01D0089A1344002F6B
:1043100031DDFF1A9DF8183013F0040F2BD113F084
:10432000400F17D0B8F1000F17D029464046B047CC
:1043300000286ADB0134D8464FF0300B0FE00DF156
:104340003E0ACDE70DF13E0ACAE711F0080FD7D0BB
:104350000132D5E74FF0200B01E04FF0300B3B4628
:104360005F1E002B07DD29465846B04700284CDB6E
:1043700001343B46F4E7B8F1000F05D0294640462A
:10438000B047002841DB01349DF81A30C3F3001216
:10439000C3F3C003134305D029463020B04700289B
:1043A00033DB01349DF81A3013F0100F06D0294684
:1043B0009DF81B00B047002827DB0134079B03F161
:1043C000FF38002B07DD29463020B04700281CDBD2
:1043D00001344346F3E753464A462946304609F03E
:1043E0002BFE002811DB0444002F07DD2946202086
:1043F000B047002809DB0134013FF5E7DDF80890FC
:1044000028E5DDF8089025E5204611B0BDE8F08FDD
:10441000111301084FF01002EFF3118382F3128899
:10442000BFF36F8F83F31188BFF36F8F024B034A83
:104430001A600020704700BFD000002000093D0036
:1044400008B5064B186018B1054B1B68092B00DC3A
:1044500008BD044806F0DCFDFAE700BF9C0E002012
:10446000500E0020F004002008B5024806F0D0FDF0
:1044700008BD00BFF004002030B589B000220F490C
:104480000F480BF033FE0F4D00220023CDE9062329
:10449000002404940E2303930294019400940A4B85
:1044A0004FF44072094928460BF010FB0849284692
:1044B0000BF0F8FA204609B030BD00BF694400088F
:1044C000C00A0020F80A00206D4800086020002083
:1044D00018130108184BBFF35B8F53E8002F511CD2
:1044E00043E800100028F8D1BFF35B8F1ABB70B50A
:1044F000002409E0114B03EB06135B6804221968E2
:10450000284600F0D9F901340D4B0C4A9B1AB4EB44
:10451000231F0FDA2646094D05EB04152B7B002BD4
:10452000F1D02301054AD3589B69002BE2D02846DD
:104530009847DFE770BD7047580E0020D80D01087E
:10454000E80D010838B108B5044A1060084600F0CB
:10455000A3FB002008BD6FF0150070471800002075
:1045600008B5054B1B781BB1034B01221A7008BD1F
:10457000024806F04DFDF7E7F0130020F00400209C
:104580000D4BBFF35B8F53E8002F013243E800214E
:104590000029F8D1BFF35B8F00B97047074BBFF319
:1045A0005B8F53E8002F013A43E800210029F8D13E
:1045B000BFF35B8FF1E700BF540E0020500E0020C8
:1045C000064B00200246BFF35B8F53E8000F43E821
:1045D00000210029F9D1BFF35B8F7047540E0020F2
:1045E00038B5FFF7EDFF0546002400E001340B4B22
:1045F0000B4A9B1AB4EB231F0FDA094800EB041097
:1046000043685B79002BF1D02301054AD3581B691D
:10461000002BEBD029469847E8E738BDE80D0108A4
:10462000D80D0108034B18680028D4BF00200120D2
:10463000704700BF540E002008B50249024809F037
:10464000C7FD08BD241301085C0E002008B5002337
:10465000054A1370054A13604FF47A710448FFF756
:1046600071FFFFF7E9FF08BDF1130020540E002091
:1046700039E5000808B5014600220023014809F089
:10468000CCFD08BD5C0E002008B5024809F082FE92
:1046900008BD00BF5C0E002008B50146014809F0C6
:1046A000EAFE08BD5C0E0020F8B50646E9B9002414
:1046B00000E001340F4B104A9B1AB4EB231F14DAAD
:1046C0000D4D05EB04156B685B79002BF1D031467D
:1046D000284609F02FFF0028EBD02701064BDB59B5
:1046E0001B68314628469847E3E73046FFF7D4FF7A
:1046F000F8BD00BFE80D0108D80D010808B5024853
:1047000009F0F6FE08BD00BF5C0E002010B504469F
:10471000114B1B7803B9D0B109F01BFF034680B1E0
:104720005CB90E4ABFF35B8F52E8001F013942E8C3
:1047300000100028F8D1BFF35B8F21461846FFF721
:10474000B3FF14B9FFF76EFF10B909F006FF10BDF3
:10475000FFF746FFF9E700BFF0130020500E0020DE
:1047600010B582B01D4BBFF35B8F53E8002F511C77
:1047700043E800100028F8D1BFF35B8F184B1B787B
:104780003BB9184B1B6803B19AB10A2A1CD002B07E
:1047900010BD4FF01003EFF3118483F31288BFF3C1
:1047A0006F8F0020FFF7B2FF84F31188BFF36F8F84
:1047B000EDE700220023CDE9002342F2107200232E
:1047C000094807F0A3FBE2E7002BE0D006480BF016
:1047D00099FC064806F01CFCD9E700BF500E0020EB
:1047E000F11300209C0E0020C00A0020F0040020DD
:1047F00010B50446054B1B689847A0602146044845
:1048000009F0A2FDFFF7ACFF10BD00BF18000020AB
:104810005C0E0020124B1B7803B1704710B5FFF7F8
:1048200059FE002400E001340E4B0F4A9B1AB4EBF2
:10483000231F0CDA0C4800EB041043685B79002B53
:10484000F1D02301084AD3585B699847EBE7002071
:10485000FFF75CFF0028FAD1014B01221A7010BD4E
:10486000F1130020E80D0108D80D010808B5FFF785
:1048700031FE07F025F9FFF7E3FD0020FFF746FFC3
:104880000028FAD14FF0FF324FF0FF33014806F015
:10489000E7FBF2E7F0040020054B064A9B1AB1EB58
:1048A000D30F02D252F8310070470020704700BF8A
:1048B000D80D0108680D010808B5074BC31A1B1174
:1048C00001334268137143681960436801225A71C9
:1048D000FFF746FE08BD00BFD80D01080EB400B5B5
:1048E00082B0014603AB53F8042B01930348FFF752
:1048F000A9FA02B05DF804EB03B0704701E60008C6
:1049000030B585B011F0440F05D01A4B1C6834B98E
:10491000002005B030BD1849FFF7E0FFF9E7174B5D
:104920001968B2FBF1F1B1FBF4FC154AA2FB0C32A1
:10493000D20A4FF4616E0EFB12CE124BA3FB0E5344
:104940005B0904FB1C114FF47A7C0CFB01F1B1FBF9
:10495000F4F505FB14110CFB01F1B1FBF4F102912C
:104960000195C3EB0311AEEB810100910649FFF7FE
:10497000B5FFCEE7A00E002038130108A40E0020DA
:10498000C5B3A291898888884413010861B108B52C
:104990002AB1064A52F8232012B9054A00E0044A17
:1049A0000449FFF79BFF08BD704700BFBC13010817
:1049B000601301086813010811F0100F0BD108B53E
:1049C00011F0200F03D00449FFF788FF08BD034909
:1049D000FFF784FFFAE77047C41801086C13010859
:1049E0002DE9F04105460F46164698460699FFF711
:1049F000E3FF0024444505DA24492846FFF76EFF0B
:104A00000134F7E7002409E020492846FFF766FF54
:104A10000BE01F492846FFF761FF01340F2C0CDC27
:104A2000002C02DD14F0070FEED0B442F1D23A5D53
:104A300018492846FFF752FFEFE717492846FFF7C6
:104A40004DFF002409E011492846FFF747FF0BE01E
:104A500012492846FFF742FF01340F2C13DC002CCB
:104A600002DD14F0070FEED0B44207D23A5D0C4BD2
:104A7000D35C13F0970FEBD12E22E9E703492846C8
:104A8000FFF72CFFE8E7BDE8F08100BF94130108B1
:104A900078130108701301087C13010880130108C2
:104AA000892401082DE9F041804616461D46BDF9CE
:104AB000187059B90024002F1CDB86B10123079A16
:104AC000934013F0100F18D10D4E09E00D4B079ACB
:104AD00053F822200C49FFF701FF0446EBE7084E8C
:104AE00039462846FFF7D8FE024631464046FFF7D2
:104AF000F5FE04442046BDE8F081044EF0E700BF17
:104B000084130108F8130108901301088C1301089D
:104B10002DE9F04F85B005460C46164603939DF8E7
:104B2000388001F0020B01F0010AC1F3C00909F05D
:104B300018FDE8B1024613492846FFF7CFFE0746A5
:104B4000BBF1000F16D142465146284609F018FD28
:104B5000CDF80480BDF9403000939DF83C303246DA
:104B600049462846FFF79EFF384405B0BDE8F08F60
:104B70000027E5E7039A21462846FFF7C1FE0744D0
:104B8000E1E700BF981301082DE9F04385B0064620
:104B90000C4617468B680A88C2F3821812F4E07F2D
:104BA00035D04A680978C1F3C2016AB32048121AA5
:104BB00042F3CF0202920191CDF8008000223946E3
:104BC0003046FFF7A5FF8146254655F80C3BC3F359
:104BD000492343B1B8F1000F1CD116482B46324689
:104BE000154909F046F96288C2F3CB022168C1F386
:104BF0004921294482B9B8F1000F13D1304609F098
:104C0000F2FC05B0BDE8F0834FF0FF32D2E74FF081
:104C10000009D9E70948E1E700974B46304609F01B
:104C2000C7FCE8E742463946304609F0B5FCE5E7FF
:104C3000680D010839E60008453E000801E6000855
:104C400070B582B00446056842F20F738B4228BFEC
:104C50000B460E4A0521684609F060F9064663686E
:104C60005B680B220A49284609F07DFC63685B6893
:104C700032466946284609F076FC63685B681B2269
:104C80000449284609F06FFC02B070BD9C1B010866
:104C9000EC130108D0130108074B01221A6004E04D
:104CA0004008054A13685B001360044B9842F7D82C
:104CB000034B1860704700BFA40E002040420F0055
:104CC000A00E002070B506460D46002406E0054BF8
:104CD0001868315D83685B6898470134AC42F6D34D
:104CE000284670BDBC0E0020014B024A1A60704776
:104CF000BC0E0020400A010808B5034B01221A70BF
:104D0000024809F070FC08BDF213002048140108A5
:104D100008B50248FFF794FF08BD00BF481401081A
:104D200008B50F220148FFF72FFF08BD48140108FE
:104D300010B5044C02E054F8043B9847024B9C42E7
:104D4000F9D310BD680D0108680D0108064B1B68FA
:104D50004BB110B55C1E044A52F8233098472346E5
:104D6000002CF7D110BD7047600D010801491022D9
:104D70000A60704710ED00E072B6404080F3118881
:104D8000BFF36F8FBFF34F8F30BF62B6BFF36F8F2C
:104D9000704700BF2DE9F04796B000AF05460123EC
:104DA0003B816C4688B06B4613F10C0200F0CA8060
:104DB0001421012038811AB1042901DD67481861E6
:104DC000286812B1082900DD5861686812B10C2901
:104DD00000DD9861A86812B1102900DDD86113299F
:104DE00040F3B38014202AB1002179600521397184
:104DF0007968D96000216FF300016FF341016FF30F
:104E000082016FF3C501012666F3881100F47D73FA
:104E100063F352216FF3DE416FF3DF7100235048DB
:104E200009F031FCA5463E816C4688B06B4613F113
:104E30000C0200F08D801421012038811AB1042960
:104E400001DD48481861E86812B1082900DD5861A1
:104E5000286912B10C2900DD9861686912B1102926
:104E600000DDD861132976DD14202AB10021796094
:104E7000052139717968D96000216FF300016FF362
:104E800041016FF382016FF3C501012666F38811BA
:104E900000F47D7363F352216FF3DE416FF3DF7132
:104EA000DFF8BC800023404609F0EDFBA5463E81BB
:104EB000EB692D4ABA63FB6300247C604FF0030A60
:104EC00087F804A07B687B63214664F3000164F3E8
:104ED000410164F3820164F3C50166F388114FF068
:104EE0000C0969F3522164F3DE4164F3DF71234658
:104EF00007F13402404609F0C6FB3E81AB691B4A0C
:104F00003A657B657C6087F804A07B68FB6421467A
:104F100064F3000164F3410164F3820164F3C501A9
:104F200066F3881169F3522164F3DE4164F3DF71A3
:104F3000234607F14C02404609F0A5FB5837BD4611
:104F4000BDE8F0876FF0004133E76FF01B004AE7E0
:104F50006FF0004170E76FF01B0086E758140108FE
:104F6000900D010888140108B8140108C81401083C
:104F700040B2002807DB00F01F02400901239340E4
:104F8000014A42F82030704700E100E0013140B2B0
:104F9000002808DB0901C9B200F1604000F561405A
:104FA00080F80013704700F00F000901C9B2014BEF
:104FB0001954704714ED00E030BFFFF7FDBF00BF8C
:104FC00008B50F4B0F4A22F07F029A60BFF34F8F54
:104FD000BFF36F8FD3F8882022F47002C3F88820C3
:104FE000EFF3148323F0040383F31488BFF36F8F6C
:104FF00005F0A4FD06F0B6FD00F0AEFE05F0AAFD3A
:1050000000ED00E000000008094A9368986709492C
:105010000968D96708494B6843F080534B60002307
:1050200083F31188BFF36F8F9368D86F704700BF09
:1050300094130020D822010800ED00E012498A688C
:105040004FF030001044EFF3098C80E8F01F10207F
:1050500080F31288BFF36F8F0C4F4FF000668A69A0
:105060008A603E60906F0023936780F3118804B5D7
:10507000104600F0C5FEBDE8044002F1300090E8A3
:10508000F01F8CF3098870479413002004ED00E0B2
:105090001EF0040F0CBFEFF30880EFF30980816965
:1050A00011F8021C0229FFD001B509F065FB01BD12
:1050B00010B4A2F120040D4942F8081C21F00101AE
:1050C00042F8081C42F8203C019B42F81C3C029B21
:1050D00042F8183C039B42F8143C4FF0807342F8AE
:1050E000043C04650023836710BC704739DF000867
:1050F000114B9A68EAB110F1160F10D0936EA3F11C
:10510000200C844505D8834205D98B4205D800215F
:105110000AE0002108E0002106E0012104E0936E8E
:105120008B4294BF0021012109B900207047906E85
:1051300070470020704700BF9413002008B50D464B
:105140001446084B986000F05BFE204685F3098802
:10515000002163B681F31188BFF36F8F0022002313
:1051600008F0EAFE9413002001B5EFF30580A0F1EA
:1051700010004FEAC0000449014409C99847BDE83E
:105180000140024908470000B80A0108915100088F
:10519000044B99689869884203D003494FF08052C4
:1051A0000A6070479413002004ED00E000B585B05C
:1051B0000F290FDC084B103903910293074B019321
:1051C0000020009003460122054909F0E9FA05B0E4
:1051D0005DF804FB034BEEE7141501082C150108DC
:1051E000900D0108F814010870B5BAB005460E46D6
:1051F00014460122ADF80820A84B0E93002301931A
:1052000002218DF8041001990D91194663F30001F4
:1052100063F3410163F3820163F3C50162F3881113
:10522000082262F3522163F3DE4163F3DF710DAABA
:105230009B4809F028FA9B4B9B6A13F4805F28D1A6
:10524000984B9B6A13F4006F46D1964B9B6A13F4FC
:10525000007F64D1934B9B6A13F4806F40F0B4805D
:10526000904B9B6A13F4807F40F0D1808D4B9B6AFA
:1052700013F4005F40F0EE808A4A936A43F47F4360
:1052800093620121284609F089FA207000203AB083
:1052900070BD0122ADF80820834B149300230193C5
:1052A00002218DF8041001991391194663F300014E
:1052B00063F3410163F3820163F3C50162F3881173
:1052C000082262F3522163F3DE4163F3DF7113AA14
:1052D000734809F0D8F9B3E70122ADF80820734B01
:1052E0001A930023019302218DF80410019919915A
:1052F000194663F3000163F3410163F3820163F331
:10530000C50162F38811082262F3522163F3DE4182
:1053100063F3DF7119AA624809F0B5F995E7012234
:10532000ADF80820624B20930023019302218DF8F1
:10533000041001991F91194663F3000163F34101C1
:1053400063F3820163F3C50162F38811082262F3FB
:10535000522163F3DE4163F3DF711FAA504809F065
:1053600092F9504B9A6B9B6A13F4004F3FF472AF63
:105370000120ADF808004F4B26932792002301939C
:1053800003228DF80420019A2592194663F3000147
:1053900063F3410163F3820163F3C50160F3881194
:1053A0000C2262F3522163F3DE4163F3DF7125AA1D
:1053B0003B4809F068F9002E3FF44CAF394A936A34
:1053C00023F40043936245E70122ADF808203A4BED
:1053D0002C930023019302218DF8041001992B9145
:1053E000194663F3000163F3410163F3820163F340
:1053F000C50162F38811082262F3522163F3DE4192
:1054000063F3DF712BAA264809F03DF928E7012252
:10541000ADF80820294B38930023019302218DF821
:10542000041001993791194663F3000163F34101B8
:1054300063F3820163F3C50162F38811082262F30A
:10544000522163F3DE4163F3DF7137AA144809F098
:105450001AF911E70122ADF80820194B3293002305
:10546000019302218DF8041001993191194663F3DB
:10547000000163F3410163F3820163F3C50162F349
:105480008811082262F3522163F3DE4163F3DF7176
:1054900031AA034809F0F7F8EEE600BF401501080D
:1054A000900D010800ED00E0581501086C15010889
:1054B000801501089C150108B4150108D0150108D4
:1054C000E815010800B5B5B00122ADF808208E4BF3
:1054D0000E930023019302218DF8041001990D9180
:1054E000194663F3000163F3410163F3820163F33F
:1054F000C50162F38811082262F3522163F3DE4191
:1055000063F3DF710DAA814809F0BDF8804B9B6AF7
:1055100013F0007F25D17E4B9B6A13F0807F43D12F
:105520007B4B9B6A13F4002F61D1794B9B6A13F478
:10553000802F7FD1764B9B6A13F4003F40F09D8013
:10554000734B9B6A13F4803F40F0BA80704A936AB1
:105550006FEA03436FEA13439362002035B05DF8AE
:1055600004FB0122ADF808206A4B14930023019339
:1055700002218DF8041001991391194663F300017B
:1055800063F3410163F3820163F3C50162F38811A0
:10559000082262F3522163F3DE4163F3DF7113AA41
:1055A0005A4809F070F8B6E70122ADF808205A4BC6
:1055B0001A930023019302218DF804100199199187
:1055C000194663F3000163F3410163F3820163F35E
:1055D000C50162F38811082262F3522163F3DE41B0
:1055E00063F3DF7119AA494809F04DF898E70122E1
:1055F000ADF80820494B20930023019302218DF838
:10560000041001991F91194663F3000163F34101EE
:1056100063F3820163F3C50162F38811082262F328
:10562000522163F3DE4163F3DF711FAA374809F0AB
:105630002AF87AE70122ADF80820394B2693002397
:10564000019302218DF8041001992591194663F305
:10565000000163F3410163F3820163F3C50162F367
:105660008811082262F3522163F3DE4163F3DF7194
:1056700025AA264809F007F85CE70122ADF80820C2
:10568000284B2C930023019302218DF804100199DB
:105690002B91194663F3000163F3410163F3820127
:1056A00063F3C50162F38811082262F3522163F3A8
:1056B000DE4163F3DF712BAA144808F0E4FF3FE7F3
:1056C0000122ADF80820184B3293002301930221E8
:1056D0008DF8041001993191194663F3000163F3C9
:1056E000410163F3820163F3C50162F3881108226B
:1056F00062F3522163F3DE4163F3DF7131AA0348A1
:1057000008F0C1FF22E700BF18160108900D01083C
:1057100000ED00E03016010844160108601601088B
:1057200080160108A8160108C416010800B591B03A
:1057300000230B700122ADF8082010490E9101934F
:1057400002218DF8041001990D91194663F30001AF
:1057500063F3410163F3820163F3C50162F38811CE
:10576000082262F3522163F3DE4163F3DF710DAA75
:10577000034808F088FF11B05DF804FBF01601083B
:10578000900D0108F0B5B5B005460C46164601224D
:10579000ADF80820A34B0E930023019302218DF84E
:1057A000041001990D91194663F3000163F341015F
:1057B00063F3820163F3C50162F38811082262F387
:1057C000522163F3DE4163F3DF710DAA964808F0BE
:1057D0005AFF964B9B6A13F0100F34D1934B9B6A80
:1057E00013F0080F52D1914B9B6A13F0020F70D146
:1057F0006FF015078D4B9B6A13F0010F40F0C080CE
:105800008A4B9B6A13F0200F40F0DD80874B9B6A28
:1058100013F0100F04D1854B9C6A14F0020405D0DC
:10582000824B5C6814F4006440F0F0807F4A936A15
:1058300043F0FF0393620121284608F0AFFF307068
:10584000204635B0F0BD0122ADF80820784B149306
:105850000023019302218DF8041001991391194638
:1058600063F3000163F3410163F3820163F3C50154
:1058700062F38811082262F3522163F3DE4163F37D
:10588000DF7113AA684808F0FEFEA7E70122ADF811
:105890000820684B1A930023019302218DF804100D
:1058A00001991991194663F3000163F3410163F310
:1058B000820163F3C50162F38811082262F3522169
:1058C00063F3DE4163F3DF7119AA574808F0DBFE8A
:1058D00089E70122ADF80820574B2093002301935C
:1058E00002218DF8041001991F91194663F30001FC
:1058F00063F3410163F3820163F3C50162F388112D
:10590000082262F3522163F3DE4163F3DF711FAAC1
:10591000454808F0B8FE454B5F6B9B6A13F0800F5B
:1059200002D16FF0150765E70122ADF80820434B5F
:10593000269327970023019303218DF804100199E2
:105940002591194663F3000163F3410163F382017A
:1059500063F3C50162F388110C2262F3522163F3F1
:10596000DE4163F3DF7125AA2F4808F08CFE002C7E
:105970003FF440AF2D4A936A23F08003936239E7E6
:105980000122ADF808202E4B2C9300230193022115
:105990008DF8041001992B91194663F3000163F30C
:1059A000410163F3820163F3C50162F388110822A8
:1059B00062F3522163F3DE4163F3DF712BAA1A48CD
:1059C00008F061FE1CE70122ADF808201D4B329360
:1059D0000023019302218DF8041001993191194699
:1059E00063F3000163F3410163F3820163F3C501D3
:1059F00062F38811082262F3522163F3DE4163F3FC
:105A0000DF7131AA084808F03EFEFFE62946384615
:105A1000FFF76EFB044600283FF408AF80F30988C7
:105A2000022403E714170108900D010800ED00E0BF
:105A30002C1701086C150108601701087817010878
:105A400090170108E8150108F0B5A9B007460E4601
:105A50000123ADF80830734A0E920024019402220B
:105A60008DF80420019A0D92214664F3000164F33D
:105A7000410164F3820164F3C50163F388110823D3
:105A800063F3522164F3DE4164F3DF7123460DAA10
:105A9000654808F0F8FD3470644BDD6A15F00205C6
:105AA0000AD1624BDB6A002B2ADB604BD86A10F00C
:105AB000804049D129B0F0BD0123ADF808305C4ADF
:105AC0002692019402228DF80420019A2592214603
