:020000040800F2
:10000000402A0020154F00081BD10008CD4E0008E3
:10001000CD4E0008CD4E0008CD4E00080000000077
:100020000000000000000000000000003946000849
:10003000CD4E000800000000E54500084D86000890
:100040001147000811470008114700081147000830
:100050001147000811470008114700081147000820
:100060001147000811470008114700081147000810
:100070001147000811470008114700081147000800
:1000800011470008114700081147000811470008F0
:1000900011470008114700081147000811470008E0
:1000A00011470008114700081147000811470008D0
:1000B00011470008114700081147000811470008C0
:1000C00011470008114700081147000811470008B0
:1000D00011470008114700081147000811470008A0
:1000E0001147000811470008114700081147000890
:1000F0001147000811470008114700081147000880
:10010000114700081147000811470008114700086F
:10011000114700081147000811470008114700085F
:10012000114700081147000811470008114700084F
:10013000114700081147000811470008114700083F
:10014000114700081147000811470008114700082F
:10015000114700081147000811470008114700081F
:10016000114700081147000811470008114700080F
:1001700011470008114700081147000811470008FF
:1001800011470008114700081147000811470008EF
:04019000114700080B
:0C019400FFFFFFFFFFFFFFFFFFFFFFFF6B
:1001A00001F0FF01102A2BDB10F0070F08D010F828
:1001B000013B013A8B422DD010F0070F42B3F6D12C
:1001C000F0B441EA012141EA014122F007047FF045
:1001D00000070023F0E80256083C85EA010586EA9C
:1001E000010685FA47F5A3FA87F586FA47F6A5FAD8
:1001F00087F68EB9EED1F0BC01F0FF0102F00702E4
:1002000032B110F8013B013A83EA010313B1F8D18E
:100210000020704701387047002D06BF354603386F
:10022000073815F0010F07D1013015F4807F02BFA8
:10023000013015F4C03F0130F0BC0138704700BFF9
:1002400081F0004102E000BF83F0004330B54FEA87
:1002500041044FEA430594EA050F08BF90EA020FF4
:100260001FBF54EA000C55EA020C7FEA645C7FEA87
:10027000655C00F0E2804FEA5454D4EB5555B8BFAA
:100280006D420CDD2C4480EA020281EA030382EA1B
:10029000000083EA010180EA020281EA0303362DAD
:1002A00088BF30BD11F0004F4FEA01314FF4801C80
:1002B0004CEA113102D0404261EB410113F0004F92
:1002C0004FEA03334CEA133302D0524263EB430349
:1002D00094EA050F00F0A780A4F10104D5F1200EE7
:1002E0000DDB02FA0EFC22FA05F2801841F1000142
:1002F00003FA0EF2801843FA05F359410EE0A5F116
:1003000020050EF1200E012A03FA0EFC28BF4CF046
:10031000020C43FA05F3C01851EBE37101F00045FC
:1003200007D54FF0000EDCF1000C7EEB00006EEB09
:100330000101B1F5801F1BD3B1F5001F0CD3490893
:100340005FEA30004FEA3C0C04F101044FEA4452EA
:1003500012F5800F80F09A80BCF1004F08BF5FEA71
:10036000500C50F1000041EB045141EA050130BD51
:100370005FEA4C0C404141EB0101013C28BFB1F563
:10038000801FE9D291F0000F04BF01460020B1FAAE
:1003900081F308BF2033A3F10B03B3F120020CDA81
:1003A0000C3208DD02F1140CC2F10C0201FA0CF05F
:1003B00021FA02F10CE002F11402D8BFC2F1200CC4
:1003C00001FA02F120FA0CFCDCBF41EA0C0190407A
:1003D000E41AA2BF01EB0451294330BD6FEA0404C3
:1003E0001F3C1CDA0C340EDC04F11404C4F12002AE
:1003F00020FA04F001FA02F340EA030021FA04F3C0
:1004000045EA030130BDC4F10C04C4F1200220FA16
:1004100002F001FA04F340EA0300294630BD21FA54
:1004200004F0294630BD94F0000F83F4801306BF1A
:1004300081F480110134013D4EE77FEA645C18BF0E
:100440007FEA655C29D094EA050F08BF90EA020FA5
:1004500005D054EA000C04BF1946104630BD91EA9D
:10046000030F1EBF0021002030BD5FEA545C05D1A0
:100470004000494128BF41F0004130BD14F58004DF
:100480003CBF01F5801130BD01F0004545F0FE4153
:1004900041F470014FF0000030BD7FEA645C1ABF88
:1004A000194610467FEA655C1CBF0B46024650EABF
:1004B000013406BF52EA033591EA030F41F40021EB
:1004C00030BD00BF90F0000F04BF0021704730B571
:1004D0004FF4806404F132044FF000054FF0000146
:1004E00050E700BF90F0000F04BF0021704730B507
:1004F0004FF4806404F1320410F0004548BF4042DC
:100500004FF000013EE700BF42004FEAE2014FEA30
:1005100031014FEA02701FBF12F07F4393F07F4F0B
:1005200081F06051704732F07F4208BF704793F00E
:100530007F4F04BF41F40021704730B54FF4607421
:1005400001F0004521F000411CE700BF50EA010224
:1005500008BF704730B54FF000050AE050EA0102CD
:1005600008BF704730B511F0004502D5404261EB3D
:1005700041014FF4806404F132045FEA915C3FF47E
:10058000D8AE4FF003025FEADC0C18BF03325FEA1B
:10059000DC0C18BF033202EBDC02C2F1200300FACC
:1005A00003FC20FA02F001FA03FE40EA0E0021FAF1
:1005B00002F11444BDE600BF70B54FF0FF0C4CF4DF
:1005C000E06C1CEA11541DBF1CEA135594EA0C0F91
:1005D00095EA0C0F00F0DEF82C4481EA030621EACC
:1005E0004C5123EA4C5350EA013518BF52EA033507
:1005F00041F4801143F4801338D0A0FB02CE4FF0B9
:100600000005E1FB02E506F00042E0FB03E54FF0E8
:100610000006E1FB03569CF0000F18BF4EF0010EE0
:10062000A4F1FF04B6F5007F64F5407404D25FEADC
:100630004E0E6D4146EB060642EAC62141EA55518F
:100640004FEAC52040EA5E504FEACE2EB4F1FD0CD1
:1006500088BFBCF5E06F1ED8BEF1004F08BF5FEA4F
:10066000500E50F1000041EB045170BD06F0004601
:1006700046EA010140EA020081EA0301B4EB5C04AE
:10068000C2BFD4EB0C0541EA045170BD41F48011A6
:100690004FF0000E013C00F3AB8014F1360FDEBFCB
:1006A000002001F0004170BDC4F10004203C35DAA7
:1006B0000C341BDC04F11404C4F1200500FA05F32A
:1006C00020FA04F001FA05F240EA020001F00042CB
:1006D00021F0004110EBD37021FA04F642EB060141
:1006E0005EEA430E08BF20EAD37070BDC4F10C046B
:1006F000C4F1200500FA04F320FA05F001FA04F22F
:1007000040EA020001F0004110EBD37041F100011A
:100710005EEA430E08BF20EAD37070BDC4F1200525
:1007200000FA05F24EEA020E20FA04F301FA05F28D
:1007300043EA020321FA04F001F0004121FA04F235
:1007400020EA020000EBD3705EEA430E08BF20EA05
:10075000D37070BD94F0000F0FD101F0004640003F
:1007600041EB010111F4801F08BF013CF7D041EAC1
:10077000060195F0000F18BF704703F000465200C5
:1007800043EB030313F4801F08BF013DF7D043EA96
:100790000603704794EA0C0F0CEA135518BF95EA4C
:1007A0000C0F0CD050EA410618BF52EA4306D1D1D3
:1007B00081EA030101F000414FF0000070BD50EAF2
:1007C000410606BF1046194652EA430619D094EA7C
:1007D0000C0F02D150EA013613D195EA0C0F05D166
:1007E00052EA03361CBF104619460AD181EA0301BA
:1007F00001F0004141F0FE4141F470014FF0000072
:1008000070BD41F0FE4141F4780170BD70B54FF00C
:10081000FF0C4CF4E06C1CEA11541DBF1CEA13558C
:1008200094EA0C0F95EA0C0F00F0A7F8A4EB05046E
:1008300081EA030E52EA03354FEA013100F0888065
:100840004FEA03334FF0805545EA131343EA12632E
:100850004FEA022245EA111545EA10654FEA0026E3
:100860000EF000419D4208BF964244F1FD0404F59C
:10087000407402D25B084FEA3202B61A65EB0305F8
:100880005B084FEA32024FF480104FF4002CB6EBB5
:10089000020E75EB030E22BFB61A754640EA0C0035
:1008A0005B084FEA3202B6EB020E75EB030E22BF75
:1008B000B61A754640EA5C005B084FEA3202B6EBB6
:1008C000020E75EB030E22BFB61A754640EA9C0075
:1008D0005B084FEA3202B6EB020E75EB030E22BF45
:1008E000B61A754640EADC0055EA060E18D04FEA03
:1008F000051545EA16754FEA06164FEAC30343EAA3
:1009000052734FEAC2025FEA1C1CC0D111F4801F6F
:100910000BD141EA00014FF000004FF0004CB6E768
:1009200011F4801F04BF01430020B4F1FD0C88BF07
:10093000BCF5E06F3FF6AFAEB5EB030C04BFB6EB12
:10094000020C5FEA500C50F1000041EB045170BD05
:100950000EF0004E4EEA113114EB5C04C2BFD4EB32
:100960000C0541EA045170BD41F480114FF0000EB6
:10097000013C90E645EA060E8DE60CEA135594EA32
:100980000C0F08BF95EA0C0F3FF43BAF94EA0C0F35
:100990000AD150EA01347FF434AF95EA0C0F7FF4AA
:1009A00025AF104619462CE795EA0C0F06D152EAFE
:1009B00003353FF4FDAE1046194622E750EA4106E2
:1009C00018BF52EA43067FF4C5AE50EA41047FF4F3
:1009D0000DAF52EA43057FF4EBAE12E753B94AB9C3
:1009E000002908BF00281CBF4FF0FF314FF0FF3037
:1009F00000F00CB8ADF1080C6DE904CE00F0CEF8B3
:100A0000DDF804E0DDE9022304B07047704700BF61
:100A10004FF0FF3C06E000BF4FF0010C02E000BFCA
:100A20004FF0010C4DF804CD4FEA410C7FEA6C5CAD
:100A30004FEA430C18BF7FEA6C5C1BD001B050EA50
:100A4000410C0CBF52EA430C91EA030F02BF90EA3B
:100A5000020F0020704710F1000F91EA030F58BFFA
:100A6000994208BF90422CBFD8176FEAE37040F05C
:100A7000010070474FEA410C7FEA6C5C02D150EAFA
:100A8000013C07D14FEA430C7FEA6C5CD6D152EAB5
:100A9000033CD3D05DF8040B704700BF844610467A
:100AA00062468C461946634600E000BF01B5FFF779
:100AB000B7FF002848BF10F1000F01BD4DF808ED49
:100AC000FFF7F4FF0CBF012000205DF808FB00BF1A
:100AD0004DF808EDFFF7EAFF34BF012000205DF874
:100AE00008FB00BF4DF808EDFFF7E0FF94BF0120C1
:100AF00000205DF808FB00BF4DF808EDFFF7CEFFC2
:100B000094BF012000205DF808FB00BF4DF808ED00
:100B1000FFF7C4FF34BF012000205DF808FB00BFD1
:100B20004FEA410C7FEA6C5C02D150EA013C0AD1E9
:100B30004FEA430C7FEA6C5C02D152EA033C02D1DB
:100B40004FF0000070474FF0010070474FEA41023C
:100B500012F5001215D211D56FF47873B3EB62520F
:100B600012D94FEAC12343F0004343EA505311F036
:100B7000004F23FA02F018BF404270474FF00000C8
:100B8000704750EA013005D111F0004008BF6FF006
:100B9000004070474FF00000704700BF2DE9F04F54
:100BA00007468C460846099E15463C461946002BCA
:100BB00040F0C6808242B2FA82F746D94FB1C7F1FF
:100BC000200E24FA0EFE00FA07F3BD404EEA030C95
:100BD000BC404FEA15481FFA85FEBCFBF8F9220C11
:100BE00008FB19C309FB0EFA42EA03439A4528D9C8
:100BF000EB1809F1FF3004D29A4502D9A9F102009D
:100C00002B44A3EB0A03A4B2B3FBF8F208FB1233A4
:100C100002FB0EFE44EA0344A64514D92C1902F146
:100C2000FF3303D2A64501D9931E2C44A4EB0E0436
:100C300043EA00401EB1FC40002334607360BDE80D
:100C4000F08F4846DDE71346F0E702B9FFDE87BBC9
:100C5000831A01214FEA154EAAB2B3FBFEFC200C09
:100C60000EFB1C330CFB02F840EA0343984563D9A2
:100C7000EB180CF1FF3004D2984502D9ACF1020018
:100C80002B44A3EB0803A4B2B3FBFEFC0EFB1C3306
:100C90000CFB02F244EA0344A2424FD92C190CF196
:100CA000FF3304D2A24202D9ACF102032C44A41AAD
:100CB000BEE7C7F1200C20FA0CF800FA07F324FA7B
:100CC0000CFCBD404CEA03024FEA154EABB2B8FB38
:100CD000FEFC110C0EFB1C800CFB03F941EA0040EA
:100CE000814504FA07F423D928180CF1FF3104D206
:100CF000814502D9ACF102012844A0EB090092B26F
:100D0000B0FBFEFC0EFB1C000CFB03F842EA0043A8
:100D100098450FD9EB180CF1FF3204D2984502D94F
:100D2000ACF102022B44A3EB080342EA014191E734
:100D30006146E2E76246F6E76046A2E76346B6E749
:100D4000834205D90EB1C6E900700021084676E756
:100D5000B3FA83F181B9834201D3BA420AD8BC1AEB
:100D600060EB030301209C46002E68D0C6E9004CCE
:100D7000002164E70846F7E7C1F1200C8B4022FA16
:100D80000CF41C4302FA01F500FA01F327FA0CF205
:100D900020FA0CFB4FEA14491343BBFBF9F81FFA86
:100DA00084FE09FB18BB1A0C08FB0EFA42EA0B4240
:100DB000924507FA01F73ED9A21808F1FF3004D294
:100DC000924502D9A8F102002244A2EB0A029BB28A
:100DD000B2FBF9F809FB182208FB0EFE43EA0242B7
:100DE00096452AD9A21808F1FF3304D2964502D9B4
:100DF000A8F10203224443EA0040A0FB0593A2EBC2
:100E00000E029A42CE46984602D306D14F4504D2EE
:100E1000B9EB050E63EB0408013886B1B7EB0E039E
:100E200062EB080707FA0CFCCB404CEA0303CF4007
:100E3000C6E900379CE74046C7E74346DBE7314653
:100E4000FDE610F8012B11F8013B012A28BF9A4258
:100E5000F7D0D01A7047034613F8012B002AFBD1B4
:100E6000181A01387047000070B582B00546446812
:100E7000066920680DF06DF960B100236BB900239D
:100E8000227E934232D2E269D25C032A1AD801331D
:100E9000DBB2F5E76FF01203F0E72F4B2F4A9B1AF6
:100EA000DB084FF00002012161F302026FF3C5027B
:100EB00063F38F1223681968294802F01DFF6FF051
:100EC000120043E0244B254A9B1ADB084FF0000236
:100ED000012161F302026FF3C50263F38F122968E7
:100EE000204802F009FF6FF015002FE020686168CC
:100EF00083685B686A469847A58C0098A0FB05014B
:100F000013A3D3E90023DDF804C005FB0C11FFF7A0
:100F100065FD3060258C0098A0FB05010CA3D3E98A
:100F20000023DDF804C005FB0C11FFF757FD7060CE
:100F3000648C0098A0FB040105A3D3E90023019D64
:100F400004FB0511FFF74AFDB060002002B070BD40
:100F500000CA9A3B000000005CF50008FCF40008A1
:100F60009C080108B80801082DE9F04F446A99B0BF
:100F700016461F46CDE90467DDF89480054674B92E
:100F8000102009F0FDFF0246686220B9A84BEA2153
:100F9000A8480AF025FFC0E901440460C4606B6AF8
:100FA000196851B15A684A60012393408B60284602
:100FB0000AF042FC6B6A00221A603B1EB9BF23F0A4
:100FC000004305930023C8F80030DDF814909A4BD5
:100FD000BCBF0122C8F8002033EA090319D1249AC2
:100FE00042F20F731360C9F31303334300F080859B
:100FF000269B53B9914B22E0914B03930833269AD9
:101000001360039819B0BDE8F08F8C4B0393033342
:10101000F5E7DDE90434CDE90C34DDE90C0100220B
:101020000023FFF74BFD804658B1249A012313603B
:10103000269B002B00F0598582481860431E0393BD
:10104000DFE716AB019317AB00932846DDE90C23CD
:101050000AF06AFEC9F30A548346002C7ED00D9B29
:10106000CDF84C80C3F31303DDE90C0143F07F514D
:1010700041F44011A4F2FF34734B0022FFF7E4F86F
:1010800065A3D3E90023FFF797FA65A3D3E900230B
:10109000FFF7DCF8064620460F46FFF723FA62A367
:1010A000D3E90023FFF788FA02460B46304639465B
:1010B000FFF7CCF806460F46FFF748FD00228246B0
:1010C000002330463946FFF703FD48B15046FFF78D
:1010D00009FA32463B46FFF7F1FC08B90AF1FF3A3C
:1010E000BAF1160F57D8594B03EBCA03D3E90023C3
:1010F000DDE90C01FFF7ECFC00284ED00AF1FF3AC5
:1011000000230F93169B1C1B631E099345BFC4F15C
:1011100001030693002300234CBF09930693BAF101
:10112000000F3CDB099BCDF838A053440993002302
:101130000A93229B092B00F28D80052BC4BF043B30
:101140002293229BA3F10203CCBF00240124032B92
:1011500000F28C80DFE803F02D4F4D5BDDE9164394
:101160001C4404F23243202BC3BFC3F1400304F2FA
:10117000124009FA03F3C3F12003C6BF26FA00F0B8
:10118000184306FA03F0FFF79DF90123A1F1F87166
:10119000013C139370E70123B3E70F90B2E7069B7E
:1011A000A3EB0A030693CAF100030A9300230E93EC
:1011B000BFE700230B93239B002B5ADC4FF0010960
:1011C000CDF820904B46CDF88C90686A00224260A2
:1011D000042202F114069E42416850D928460AF0C2
:1011E000EBFA039000284ED1194B02464FF4D5710B
:1011F000CEE60123DEE700230B93239B0AEB0309D2
:1012000009F10103012B0893B8BF0123DDE7012396
:10121000F2E700BFAFF3008061436F63A787D23F5F
:10122000B3C8608B288AC63FFB799F501344D33FD5
:10123000D20C0108E90C01080000F07FCE0C010877
:10124000C50C0108A20C01080000F83F48F6000890
:10125000430D01080124002322930B944FF0FF3922
:101260000022CDF8209012232392AEE701230B93A6
:10127000F4E7DDF88C90CDF820904B46A5E70131DE
:1012800041605200A5E76B6A039A1A60089B0E2B17
:1012900000F2A880002C00F0A580BAF1000F34DD28
:1012A0009A4A0AF00F0302EBC303D3E900341AF49D
:1012B000807FCDE910344FEA2A1416D0944BDDE933
:1012C0000C01D3E90823FFF7A1FACDE9040104F0EA
:1012D0000F0403278E4E54B9DDE91023DDE9040124
:1012E000FFF794FACDE9040129E00227F2E7E107CC
:1012F00008D5DDE91001D6E90023FFF75DF9CDE956
:101300001001013764100836E5E700F0A580CAF146
:1013100000047E4B7E4E04F00F0203EBC203D3E9C0
:101320000023DDE90C01FFF747F9CDE904012411A1
:1013300000230227002C40F08480002BD2D10F9B89
:10134000002B00F08B80DDE90434CDE91034DDE9B9
:101350001001704B0022FFF7BBFB00287ED0089BDA
:10136000002B7BD0B9F1000F38DDDDE910016A4BAD
:101370000022FFF721F9CDE904010AF1FF38013716
:101380004C463846FFF7AEF8DDE90423FFF714F9C1
:10139000624B0022FEF75AFFA1F15076CDE9100111
:1013A0001196002C5DD1DDE904015D4B0022FEF7B2
:1013B0004BFF02460B46CDE90423109A3346FFF754
:1013C000A5FB002840F09C82DDE90401109A06F19B
:1013D0000043FFF77DFB002840F09082DDE90C34EC
:1013E000CDE90434179B002BC0F25281BAF10E0FE5
:1013F00000F34E81454B03EBCA03D3E90034CDE93A
:101400000634239B002B80F2DB80089B002B00F32B
:10141000D78040F07282424B0022DDE90601FFF7DF
:10142000CBF8DDE90423FFF767FB089C264600287C
:1014300040F04882039F312307F8013B0AF1010A7B
:1014400044E2E20705D5D6E90023FFF7B5F80137F6
:101450000123641008366DE7022770E7089CD04628
:101460008FE70399294B214412910B9903EBC40395
:10147000DDE9106753E90223002955D029490020EE
:10148000FFF7C4F93B463246FEF7DEFECDE9100118
:10149000039FDDE90401FFF759FB0446FFF722F83B
:1014A00002460B46DDE90401FEF7CEFE303402466B
:1014B0000B46CDE9042307F8014BDDE91023FFF7C4
:1014C00007FB002874D1DDE9042312490020FEF750
:1014D000BBFEDDE91023FFF7FBFA002840F0B780E0
:1014E000129B9F423FF47AAFDDE910010A4B0022C4
:1014F000FFF762F8084BCDE910010022DDE9040195
:10150000FFF75AF8CDE90401C3E700BF48F6000829
:1015100020F600080000F03F0000244000001C40BE
:10152000000014400000E03F30463946FFF744F821
:10153000CDE91001129B039C1493DDE90401FFF730
:1015400005FB1590FEF7CEFF02460B46DDE90401D0
:10155000FEF77AFE159B303304F8013B129B9C4248
:1015600006460F464FF0000224D1A44BDDE91001DE
:10157000FEF76CFE02460B4630463946FFF7C6FAC8
:10158000002863D1DDE910239C490020FEF75CFEB2
:1015900002460B4630463946FFF79AFA00283FF4D8
:1015A0001DAF149F7B1E149317F8013C302BF8D00D
:1015B000C2463BE0924BFEF7FFFFCDE90401BCE7DA
:1015C000DDE90489039FDDE9062340464946FFF72C
:1015D0001DF9FFF7BBFA0446FEF784FFDDE9062399
:1015E000FEF7EAFF04F1300602460B464046494644
:1015F000FEF72AFE07F8016B039EDDF820C0BE1B34
:10160000B44502460B4636D1FEF720FEDDE906233F
:1016100080468946FFF77AFA58BBDDE90623404643
:101620004946FFF74BFA08B1E10722D4284659464C
:101630000AF002F900233B70249B0AF101001860B4
:10164000269B002B3FF4DDAC1F60DAE427463B46C7
:101650001F4613F8012D392A07D1039A9A42F7D170
:101660000399302208F101080A701A7801321A70C1
:101670009EE7D046EBE7624B0022FEF79DFF00227B
:10168000002380468946FFF719FA00289BD0CDE752
:101690000B9A002A00F0D080229A012A00F3B2802F
:1016A000139A002A00F0A68003F233430A9C069F97
:1016B000069A1A440692099A01211A442846099268
:1016C0000AF022F90646002F0CDD099B002B09DDEC
:1016D000BB42069AA8BF3B46D21A0692099AFF1A45
:1016E000D31A09930A9BF3B10B9B002B00F0A8803F
:1016F000002C10DD3146224628460AF0C3F95A462E
:101700000146064628460AF015F9594680462846FD
:101710000AF092F8C3460A9B1A1B04D05946284681
:101720000AF0B0F98346012128460AF0EDF80E9B35
:10173000002B044640F386801A46014628460AF0EC
:10174000A1F9229B012B04467FDD4FF0000823699D
:1017500004EB830318690DF0EBFAC0F12000099B3C
:10176000184410F01F0000F09280C0F12003042BF9
:1017700040F38A80C0F11C00069B03440693099B3A
:10178000034407440993069B002B05DD59461A467E
:1017900028460AF0D1F98346099B002B05DD214636
:1017A0001A4628460AF0C8F904460F9B002B70D051
:1017B000214658460DF009FB00286ADA00235946F5
:1017C0000A2228460AF05AF80B9B0AF1FF3A834690
:1017D000002B00F09481314600230A2228460AF0AB
:1017E0004DF8B9F1000F064600F39380229B022BBF
:1017F00057DC8EE0169BC3F1360357E70000E03F4D
:1018000000002440089B5C1E0A9BA342BFBF0A9BAA
:101810000A94E21A0E9BB6BF9B181C1B0E93089BE2
:10182000B8BF0024002BB9BF069B089A069F089BEF
:10183000BCBF9F1A00233BE70A9C069F0B9E42E712
:101840000A9A6BE7229B012B19DC049BBBB9059B11
:10185000C3F313039BB9059B23F000431B0D1B052A
:1018600083B1069B01330693099B013309934FF023
:1018700001080E9B002B7FF46AAF01206FE74FF049
:101880000008F6E79846F4E73FF47DAF18461C30B1
:1018900072E7089B002B36DC229B022B33DDDDF840
:1018A0002090B9F1000F0DD121464B460522284664
:1018B00009F0E4FF0146044658460DF086FA002878
:1018C0003FF7B8AD239B039F6FEA030A4FF0000870
:1018D0002146284609F0B0FF002E3FF4A7AEB8F12C
:1018E000000F05D0B04503D04146284609F0A4FFBB
:1018F0003146284609F0A0FF98E600242646E1E795
:10190000C246264696E50B9BDDF82090002B00F0A2
:10191000FD80002F05DD31463A4628460AF00CF9D5
:101920000646B8F1000F5CD07168284609F044FF04
:10193000074628B9804B024640F2EA21FFF728BB50
:1019400032690232920006F10C010C300DF029F8D8
:101950000122394628460AF0EFF8039B0133089329
:10196000039B4B440A93049B03F00103B046099385
:101970000646089B2146013B584604930DF051F959
:10198000034630330690414658460B930DF01DFA3E
:1019900032468146214628460AF03EF9C2680B9B32
:1019A000074602BB014658460DF00FFA0B9B024654
:1019B00039462846CDE90B3209F03EFF229B0C9AAE
:1019C000089F43EA0201099B0B430B9B0DD1392B66
:1019D00029D0B9F1000F01DD069B3133049A137051
:1019E00076E73046B9E70122E2E7B9F1000F06DBFE
:1019F000229941EA0909099959EA010120D1002AED
:101A0000ECDD59460122284608930AF095F8214654
:101A100083460DF0DAF90028089B02DCDED1DA07F4
:101A2000DCD5392BD8D1049A392313703B461F4695
:101A3000013B17F8012C392A50D001321A7047E7C0
:101A4000002A03DD392BEED00133C7E7089A0A9943
:101A500002F8013C8A422AD0594600230A2228462D
:101A600009F00CFFB04583464FF000034FF00A0227
:101A70004146284607D109F001FF80460646089BEB
:101A80000133089375E709F0F9FE314680460023DB
:101A90000A22284609F0F2FE0646F0E7B9F1000FE7
:101AA000039ACCBF4F46012717444FF00008594610
:101AB0000122284608930AF03FF8214683460DF09C
:101AC00084F90028B2DC02D1089BDB07AED43B4688
:101AD0001F4613F8012D302AFAD0F9E6039A9A42EC
:101AE000A5D10AF1010A312379E7144BFFF7A7BA10
:101AF000269B002B7FF480AA114BFFF7A0BAB9F107
:101B0000000F03DC229B022B3FF7CBAE039F214645
:101B100058460DF086F800F1300307F8013B039AB0
:101B2000BA1A9145BADD594600230A22284609F01F
:101B3000A5FE8346EBE700BF430D0108A10C010899
:101B4000C50C010870B506460C460D7808E0114931
:101B500001EB8301104807F06BFA237801332370FF
:101B60002378EA1D934213DA72199A4209DDAA1CFE
:101B70009A42ECDD074901EB8301084807F058FA67
:101B8000EBE7044901EB8301054807F051FAE4E76C
:101B900070BD00BF2C08002018F7000820F70008CF
:101BA00014F7000870B506460C460D7808E00D499C
:101BB00001EB83010C4807F03BFA237801332370D3
:101BC0002378EA1D93420CDA5A1B26FA02F212F02D
:101BD000010FECD0034901EB8301044807F028FA18
:101BE000EBE770BD2C08002014F7000810F7000880
:101BF000F0B583B004460D469DF82060174612B933
:101C000009B903B91EB300228DF8072043B1237828
:101C1000FBB101238DF807301E491F4807F008FA71
:101C2000FDB966B1637813B39DF807305A1C8DF87F
:101C30000720184901EB8301174807F0F9F917BB92
:101C4000164B186883681B6810221249984703B026
:101C5000F0BD01238DF807300E49114807F0E8F96F
:101C6000DEE70DF10701A078FFF76CFFD9E79DF8DB
:101C700007305A1C8DF80720064901EB83010848FC
:101C800007F0D6F9DBE70DF10701E078FFF78AFFEF
:101C9000D6E700BF2C0800201CF700080000002039
:101CA00014F7000808B5054B054A92E8030083E8DD
:101CB0000300044B18680CF0CAFC08BD7C08002027
:101CC00034FA000868FA000810B50A4C4FF0FF32E9
:101CD0004FF0FF33204607F0B3FD07480AF073FDCD
:101CE00006480AF070FD06480AF06DFD204607F030
:101CF00031FE10BDE40800208C080020BC08002044
:101D0000A408002010B5124B124A9B1ADB084FF0B2
:101D10000002042161F302026FF3C50263F38F1224
:101D20000D490E4801F0E8FF01240D4B5C700D4891
:101D300007F0C4FF0C4BBFF35B8F53E8002F002A62
:101D400003D143E800410029F7D1BFF35B8F10BDF9
:101D500004F50008FCF40008D0F9000834F7000886
:101D6000D0080020080900208C08002070B582B03F
:101D70000023019300930A220023344807F060FDFA
:101D8000002849D1324B5B6A9BB9324B5B6AC3B1C5
:101D9000304E002200233049304607F0F1FC2B483A
:101DA00007F0D8FD01222C49684600F0E1FE00242E
:101DB00019E0274E002200232749304607F0E0FCB7
:101DC000EDE7224807F0C6FD26E0E300FF2098403B
:101DD000009A1040D840C0B2204D28550AF0A6FC09
:101DE00028550134E4B2022CEFD91D4BDB7A5BB9E4
:101DF0001B490123CB721B4B186883681B689847EB
:101E00000190019B002B09DB164B186883685B6807
:101E1000032212499847019002B070BD124B134A39
:101E20009B1ADB084FF00002042161F302026FF3FA
:101E3000C50263F38F120E490E4801F05DFF0022C8
:101E400000230549304607F03FFCE5E7E4080020A1
:101E5000400400200C04002000090020FC080020A1
:101E6000D4080020E008002004F50008FCF4000875
:101E7000FCF9000858F7000870B588B04FF0FF3340
:101E8000079300230693ADF816308DF815304C4BB0
:101E9000DB7A5BB14A490023CB724A4B18688368EE
:101EA0001B6898470790079B002B46DB46480CF0C1
:101EB0007DFC464BA3FB0030C0080690444B1B79C9
:101EC000002B3AD13F4B1868069B13B106990022AC
:101ED00001E000210A464FEA820C4CEA917C8B001B
:101EE0005B1842EB0C02DB1852418168CC680DF1A3
:101EF000150103910DF11601029100930192032245
:101F00003449A0470790079B002B16DD314B1B7807
:101F1000092B14D00024002522462B462D492E489B
:101F200007F0D2FB22462B460DF116012B4807F095
:101F3000CBFB2B4B18680CF08AFB08B070BD254B0F
:101F40005B78402BE6D1234B9B78002BE2D1254CCC
:101F5000254BE41AE40804264FF0000266F302025F
:101F60006FF3C50264F38F12204D2946204801F01B
:101F7000C3FE4FF0000266F302026FF3C50264F382
:101F80008F1229461B4801F0B7FE0F4C20460CF07B
:101F900065FC0F4B184A92E8030083E8030040F207
:101FA000DC50002108F05AFA49F620120023CDE94E
:101FB000002342F248620023204608F081FCA9E792
:101FC000D4080020E008002090040020CDCCCCCC28
:101FD0007C080020F8080020D8030020A40300207B
:101FE0006CFA000804F50008FCF40008F0F9000899
:101FF00074F7000884F700082CFA00082DE9F04374
:1020000085B0A84B5B78002B6BD1A64B1B78002BBF
:1020100000F00D81A44BD3F80080D8F808305B683D
:1020200002AA022140469847002840F0FD80029E07
:10203000039FBC0044EA9674B3009B1947EB040469
:10204000E40044EA5374DB009B1B64EB07042401A7
:1020500044EA13741B019B1947EB0404A40144EAEE
:1020600093649D01914A002328462146FEF7B6FC61
:1020700081464FF0FF33AB428D4BA341C0F0D4807B
:10208000BA0042EA9672B3009B1947EB0202D200F3
:1020900042EA5372DB009B1B62EB0702120142EA29
:1020A00013721B019E1947EB02077F0147EAD667AF
:1020B00076017E4A002330463946FEF78FFC034600
:1020C0004FF0FF32B2427A4ABA41C0F0AD80D8F840
:1020D00008201468002200924A4602214046A04788
:1020E000A2E0714BD3F80080D8F808305B6802AAF0
:1020F000022140469847002856D1029E039FBC000B
:1021000044EA9674B3009B1947EB0404E40044EAE4
:102110005374DB009B1B64EB0704240144EA137433
:102120001B019B1947EB0404A40144EA93649D013D
:102130005E4A002328462146FEF750FC81464FF0B8
:10214000FF33AB425A4BA3412ED3BA0042EA9672F8
:10215000B3009B1947EB0202D20042EA5372DB0044
:102160009B1B62EB0702120142EA13721B019E19CC
:1021700047EB02077F0147EAD66776014B4A002307
:1021800030463946FEF72AFC03464FF0FF32B24292
:10219000474ABA4108D3D8F80820146800220092B0
:1021A0004A4602214046A0474FF4C870002108F07B
:1021B00055F93D4B1D68AB685B6802AA02212846B1
:1021C000984770BB029C039EB20042EA9472A3003F
:1021D0001B1946EB0202D20042EA5372DB001B1BC2
:1021E00062EB0602120142EA13721B011B1946EB55
:1021F0000206B60146EA93669C012C4A002320465B
:102200003146FEF7EBFB02464FF0FF33A342284B6B
:10221000B34106D3AB681C68002300930221284613
:10222000A047204B00225A7005B0BDE8F0831E4B3A
:102230001D68AB685B6802AA0221284698470028FF
:10224000F2D1029C039EB20042EA9472A3001B19D1
:1022500046EB0202D20042EA5372DB001B1B62EB28
:102260000602120142EA13721B011B1946EB020619
:10227000B60146EA93669C010C4A0023204631468B
:10228000FEF7ACFB02464FF0FF33A342084BB341CD
:10229000CAD3AB681C680023009302212846A047DC
:1022A000C2E700BFD0080020CC08002040420F0049
:1022B0003F420F0070B584B04FF0FF330393554891
:1022C000554B18600BF045FF002800F0828000237A
:1022D000002B40F08180514806F058FF504C2060A0
:1022E00081680269136823F4005313600B684FF48C
:1022F00080720D219847206883680269126812F481
:10230000005F40F084804FF4B8229C6902F4C0233F
:1023100002F4A0320D21A047424B434A5A604FF4C9
:1023200000529A603E4B18688368DB6913B1012242
:102330003C4998473D4D3E4928460BF0E5FF3D4955
:102340003D480BF0E1FF00223C493D480CF07AFA91
:102350003C480BF0D2FF012400942346224621463C
:102360003948FFF745FC394B394A92E8030083E8C6
:102370000300384A00235370032111709470D47005
:10238000137153713448354E8660C26003604360F8
:10239000334A537011709170D47013715371314876
:1023A000314E8660C26003604360304A53701170E2
:1023B00004219170D470137153712D498E60CA60DD
:1023C0000B604B602B4B5C70284607F077FC04B029
:1023D00070BD6FF012037BE7274A284BD21AD20850
:1023E0004FF00003042161F302036FF3C50362F3AE
:1023F0008F13094A126812682149224801F0AEFC85
:102400004FF0FF304FF0FF3108F028F863E74FF44A
:1024100070327AE7ECF10008CC080020C4F700081D
:10242000780800206C080020051D0008080900201D
:10243000FD1F0008C91C000818090020A51C000881
:1024400090040020E4080020280800207C080020D8
:102450002CFA0008840800208C080020400400208A
:102460009C080020A40800200C040020B4080020D0
:10247000BC080020D008002004F50008FCF4000887
:1024800020FA00089CF700082DE980489DB0002341
:10249000ADF86E3019931793ADF860301593ADF821
:1024A00058304FF0FF304FF0FF3107F0D7FFB74BF8
:1024B00003936AE2002419940EE01CAB1D1915F871
:1024C000080C0AF033F905F8080CE3009840199B52
:1024D000184319900134E4B2022CEED9002215A958
:1024E00019A800F045FB9DF85520042A01D0032AC5
:1024F00033D19DF85730002B00F0F480012B40F0D1
:102500001E82A34BA34A9B1ADB08042262F3020734
:102510006FF3C50763F38F179F4C3A4621469F48D8
:1025200001F0EAFB03238DF85C309DF856208DF80E
:102530005E2000238DF861308DF85F308DF86030BB
:102540008DF85D30052A00F2B780DFE812F08400D4
:10255000270065009F009F0052028D4C8D4BE41AAE
:10256000E408042565F3020B6FF3C50B64F38F1BBE
:10257000ADF800B003238849894801F059FB049B5A
:1025800065F302036FF3C50364F38F131A46ADF8C6
:1025900010308149834801F0AFFBF6E17C4B7D4A66
:1025A0009B1ADB080422059962F302010A466FF3C5
:1025B000C50263F38F12ADF8142021467A4801F06A
:1025C0009BFB9DF854309BB9714B724A9B1ADB08F8
:1025D00004220F9962F302010A466FF3C50263F306
:1025E0008F12ADF83C202146704801F085FB28E0B1
:1025F000674B684A9B1ADB080422109962F30201B8
:102600000A466FF3C50263F38F12ADF840202146EE
:10261000674801F071FB14E05D4B5E4A9B1ADB08D2
:102620000422069962F302010A466FF3C50263F3BE
:102630008F12ADF8182021465E4801F05DFB534B28
:1026400003930398002800F08C810022002317A92F
:1026500007F03AF885E14E4B4E4A9B1ADB080422FC
:10266000079962F302010A466FF3C50263F38F1202
:10267000ADF81C202146504801F03EFB9DF8543037
:10268000032B00F0B381002303936AE1404B414ADE
:102690009B1ADB080422089962F302010A466FF3D1
:1026A000C50263F38F12ADF820202146434801F0A4
:1026B00023FB0023039354E1354B364A9B1ADB0876
:1026C0000422129962F302010A466FF3C50263F312
:1026D0008F12ADF848202146394801F00DFB002348
:1026E00003933EE12A4C2B4BE41AE408042363F3E2
:1026F00002086FF3C50864F38F18274D4246294638
:10270000304801F0F9FA042363F302096FF3C509B5
:1027100064F38F194A4629462B4801F0EDFA9DF8DB
:102720005630042B00F2F580DFE803F0890373C90B
:102730009F00174B174A9B1ADB080422099962F382
:1027400002010A466FF3C50263F38F12ADF824202D
:102750002946154801F0D0FA9DF85430032B35D0A6
:102760000B4B0C4A9B1ADB0804220E9962F3020100
:102770000A466FF3C50263F38F12ADF8382029467D
:102780000B4801F0B9FA00230393EAE00C0400209F
:1027900004F50008FCF4000808FA000874F70008C3
:1027A000E0F7000808F8000820F8000840F80008E2
:1027B00060F8000894F80008B0F80008C8F80008AD
:1027C000E8F8000808F9000818F900088A4B8B4A55
:1027D0009B1ADB080422119962F302010A466FF387
:1027E000C50263F38F12ADF844202946844801F0F6
:1027F00083FA844BBFF35B8F53E8002F42F0010252
:1028000043E800210029F7D1BFF35B8F0023039336
:10281000A7E0794B794A9B1ADB0804220A9962F3F4
:1028200002010A466FF3C50263F38F12ADF8282048
:102830002946754801F060FA0023039391E06E4B3E
:102840006E4A9B1ADB0804220B9962F302010A46C6
:102850006FF3C50263F38F12ADF82C2029466B4845
:1028600001F04AFA002303937BE0634B634A9B1A0F
:10287000DB0804220C9962F302010A466FF3C502D9
:1028800063F38F12ADF830202946614801F034FA25
:102890009DF85430032B02D00023039361E05D4B7D
:1028A000BFF35B8F53E8002F42F0010243E80021A1
:1028B0000029F7D1BFF35B8F0023039351E04E4B08
:1028C0004E4A9B1ADB0804220D9962F302010A4664
:1028D0006FF3C50263F38F12ADF8342029464E48DA
:1028E00001F00AFA9DF85430032B02D00023039321
:1028F00037E04A4BBFF35B8F53E8002F42F00102F1
:1029000043E800210029F7D1BFF35B8F0023039335
:1029100027E0394B394A9B1ADB080422139962F3EA
:1029200002010A466FF3C50263F38F12ADF84C2023
:1029300029463B4801F0E0F90023039311E02E4BB8
:102940002E4A9B1ADB08042262F3020A6FF3C50ABF
:1029500063F38F1A52463349334801F0CDF900230F
:102960000393BDF96E0009F0F2FE03462F48837011
:102970009DF85930C3700023009301221146FFF7E0
:1029800037F90120002107F069FD294B5B6A002B14
:10299000F7D00024002522462B461AA9244806F029
:1029A000EFFE22462B460DF16E01224806F0E8FEAE
:1029B0009DF868309DF86920934214BF00230123DD
:1029C0009DF86A2093423FF475AD0B4B0B4A9B1A5E
:1029D000DB08042262F302066FF3C50663F38F1669
:1029E00032461049144801F087F9CEE7134B0393A0
:1029F00027E600230393B4E704F50008FCF400087D
:102A00002CF900089008002094F80008B0F800089D
:102A100050F90008C008002078F90008A808002034
:102A2000E8F8000808FA00089CF9000828080020C7
:102A3000D8030020A4030020CCF7000840040020A5
:102A400080B586B0002204923E4B3F4919601A714E
:102A50000C21597108211981012199719A72DA7238
:102A60003A483B4B18600BF074FB002842D000231F
:102A7000002B42D1364B186883681B683149984750
:102A8000002841DBFFF716FC314B18688368DB68D0
:102A9000304D0DF11702039205AC02944FF0FF3652
:102AA0004FF0FF37CDE9006703222946984740F2EF
:102AB000DC50002107F0D2FC49F620120023CDE9BA
:102AC000002342F248620023234807F0F9FE002663
:102AD000002732463B462946204806F0F5FD32469F
:102AE0003B4621461E4806F0EFFD1E4B18680BF0D2
:102AF000AEFD1CE06FF01203BAE74FF0FF304FF06D
:102B0000FF3107F0ABFCB5E74FF0FF304FF0FF317E
:102B100007F0A4FCB6E7FFF729F9134B1A6892E80F
:102B2000030083E803000120002107F097FC0E4B0F
:102B30001B79012BEFD00D4807F0C0F8FFF79CF987
:102B4000F1E700BFD4080020400ECF191CF20008A6
:102B5000E0080020F808002090040020D80300209E
:102B6000A40300206CFA00087C080020180900204B
:102B7000F0B583B007460E46154600248DF8074091
:102B800008E0DDB10DF1070302223178384609F083
:102B900088FD0134052C6EDC052CFAD801A353F80E
:102BA00024F000BF832B0008CD2B0008EF2B00087A
:102BB000112C0008332C0008552C00080DF10703D8
:102BC00002223146384609F08DFDE2E73DB10DF1B4
:102BD000070303227178384609F063FDD9E70DF148
:102BE00007030322711C384609F07CFDD1E73DB193
:102BF0000DF107030422B178384609F052FDC8E709
:102C00000DF107030422B11C384609F06BFDC0E743
:102C10003DB10DF107030122F178384609F041FD7D
:102C2000B7E70DF107030122F11C384609F05AFD00
:102C3000AFE73DB10DF1070301223179384609F0C4
:102C400030FDA6E70DF107030122311D384609F0DA
:102C500049FD9EE73DB10DF1070308227179384621
:102C600009F01FFD95E70DF107030822711D384695
:102C700009F038FD8DE703B0F0BD00BF08B50B6863
:102C800001330B60014B1B68984708BD040000200E
:102C9000014B1860704700BF0400002000B583B0EE
:102CA00002460B460021019101A9034800F02CFACD
:102CB00003B05DF804FB00BF7D2C000810B584B0A4
:102CC0000446019002910021039101A9054800F0FA
:102CD0001BFA039B029A934201DA0022E254039802
:102CE00004B010BD03C8000884460268002005E057
:102CF00000EB8000013203EB4000303813780449C8
:102D0000595C11F0040FF3D1CCF80020704700BFDC
:102D1000910B010870B582B0044600230360436044
:102D200083604B78252B02D04E1C01251FE0881CA8
:102D3000E37045E1237843F004032370B5B1013615
:102D400014E0237843F008032370F7E7237843F077
:102D500010032370F2E7237843F020032370EDE79C
:102D6000237843F040032370E8E7002545B3337828
:102D7000203B102BF9D801A252F823F04D2D00086A
:102D80006B2D00086B2D0008572D00086B2D0008D7
:102D90006B2D00086B2D00086B2D00086B2D0008B3
:102DA0006B2D00086B2D0008432D00086B2D0008CB
:102DB000352D00086B2D00086B2D0008612D0008D3
:102DC000237803F04403442B5FD00196237843F02B
:102DD0008003237033782A2B5CD001A8FFF784FF8F
:102DE000019B9E420FD0237843F0800323706060E4
:102DF000DBB2C3F34003002854DB002213432278E4
:102E000063F341022270019B01931B782E2B14BFA8
:102E100000230123627863F341026270002B43D0E8
:102E2000019B5A1C01925B782A2B3FD001A8FFF727
:102E30005BFFA0602378C3F3400300283EDB002241
:102E40001343227863F341022270019803784C3BCC
:102E50002E2B00F29D80DFE803F0909B9B9B9B9BB9
:102E60009B9B9B9B9B9B9B9B9B9B9B9B9B9B9B9BB2
:102E70009B9B9B9B9B9B339B579B459B9B9B9B9BA4
:102E80009B9B899B9B9B9B9B820023786FF3861364
:102E900023709AE7637843F001036370334601338C
:102EA0000193B1E70122A9E70198CFE7637843F0E6
:102EB00004036370104601300190C7E70122BFE7A9
:102EC000421C4378682B06D06378022161F3C60365
:102ED000637010461EE06378012262F3C6036370DC
:102EE000023017E0421C43786C2B06D06378032134
:102EF00061F3C603637010460CE06378042262F34A
:102F0000C6036370023005E06378052262F3C603EE
:102F10006370013010F8013BE370A3F14102372ADE
:102F20007DD8DFE802F05E7C7C7C5E5E5E7C7C7C33
:102F30007C7C7C7C7C7C7C7C7C7C7C7C7C4F7C7CFE
:102F40007C7C7C7C7C7C5E7C4F3A5E5E5E7C3A7CEA
:102F50007C7C7C654F717C7C717C4F7C7C4F637882
:102F6000062262F3C60363700130D3E76378072259
:102F700062F3C60363700130CCE76378082262F322
:102F8000C60363700130237843F002032370C1E766
:102F900063786FF3C6036370BCE7A278012161F325
:102FA0000202A270627802F07802402A10D0632BED
:102FB00013D02378C3F34002154365F34103237014
:102FC00002B070BDA278022161F30202A270E9E7AB
:102FD000217841F001012170E9E7151E18BF012594
:102FE000E7E7A378042262F30203A3700125E0E778
:102FF000A378032262F30203A370637803F07803DB
:10300000402BD6D10125D4E7A378032262F3020333
:10301000A370637813F0780FCBD00125C9E723782C
:1030200043F001032370C4E72DE9F04F83B0044659
:103030000D4601929A460C9ED378324A13F802B09C
:103040000BF0030B6F2B0FD006D9702B0FD0782B02
:1030500010D14FF0100923E0582B02D04FF00A098D
:103060001EE04FF010091BE04FF0080918E04FF088
:10307000100915E04FF00A0912E0D2B23032D2B294
:1030800006F8012D3A46434620462946FDF7A6FCA0
:10309000BC4275F1000319D3564517D904460D46B5
:1030A0004FF000084F464A46434620462946FDF762
:1030B00095FC092AE1D9BBF1010F03D0D2B25732F6
:1030C000D2B2DDE7D2B23732D2B2D9E7019B1B7858
:1030D00013F0200F05D0B9F1080F06D0B9F1100F89
:1030E00009D0304603B0BDE8F08F019A937843F0E1
:1030F00008039370F5E7019A937843F010039370F7
:10310000EFE700BF910B01082DE9F04F91B00646A3
:103110000D4691460393002499F80000002800F022
:10312000D582252808D009F101092946B047002891
:10313000C0F2CD820134EFE7002304930593069398
:10314000079308930993494606A8FFF7E3FD029009
:103150009DF8193013F0010F00F09780039B1A1DA2
:1031600003921F68002FC0F288809DF8193013F079
:10317000040F00F09C80039B1A1D0392D3F800A05B
:10318000BAF1000FC0F28A800023079308939DF8DC
:103190001A3003F007039DF81910C1F3C301012B86
:1031A00000F08E80022B00F0D380042B00F02481ED
:1031B000032B00F03B819DF8188018F0030B40F0C2
:1031C0003B819DF81B30253B532B00F2E681DFE865
:1031D00013F04001E401E401E401E401E401E4014D
:1031E000E401E401E401E401E401E401E401E401B7
:1031F000E401E401E401E401E401E401E401E401A7
:10320000E401E401E401E401E401E401E401E40196
:10321000E401E401E401E401E401E401E401E40186
:10322000E401E401E401E401E401E401E401E40176
:10323000E401E401E401E4018101E401E401E401C9
:10324000E401E401E401E401E401E401E4015E01DC
:103250006701E401E401E401E4016701E401E40140
:10326000E401E401BE018101A201E401E4014D0198
:10327000E4018101E401E40181019DF8183043F08B
:1032800004038DF818307F426FE79DF91830002B4A
:1032900002DB4FF0FF3768E7079F66E79DF81930BC
:1032A0006FF341038DF819304FF0FF3A6CE713F0DC
:1032B000020F02D0DDF820A066E74FF0FF3A63E787
:1032C000CB1E042B04D8DFE803F00B1D2935350095
:1032D000039B1A1D03921B68DA170493059206E0FC
:1032E000039B1A1D03921B68DA17049305920129A8
:1032F00028D002297FF45FAFBDF91030DA170493AC
:10330000059258E7039B073323F0070303F10802F4
:103310000392D3E90023CDE90423E8E7039B0733B5
:1033200023F0070303F108020392D3E90023CDE958
:103330000423DCE7039B1A1D03921B68DA1704932E
:103340000592D4E79DF8103004930023059332E7EB
:10335000CB1E042B04D8DFE803F00B1F35414100DE
:10336000039B1A1D03921B680493002305931EE020
:103370009DF81B30632B07D0039B1A1D03921B681B
:1033800004930023059312E0039B1A1D03921B680C
:103390000493002305930AE0039B073323F00703FC
:1033A00003F108020392D3E90023CDE904230129A4
:1033B0001CD002297FF4FFAEBDF810300493002327
:1033C0000593F8E6039B073323F0070303F1080294
:1033D0000392D3E90023CDE90423E8E7039B1A1DF8
:1033E00003921B68049300230593E0E79DF81030D7
:1033F000049300230593DEE608290BD0039B0733D3
:1034000023F0070303F108020392D3E90023CDE977
:103410000423D0E6039B073323F0070303F10802DC
:103420000392D3E90023CDE90423C4E6039B1A1DCC
:1034300003921B680493BEE6029F3B464A46294618
:10344000304609F020FB0028C0F241810444B9460F
:1034500062E629462520B0470028C0F238810134B1
:10346000D8460DF13E0A4FF000099BE0DDF81090C0
:10347000BAF1000F07DB514648460BF0C6FB09EBDB
:10348000000AD8468EE04846FDF7E5FCF7E7049BC6
:103490008DF82830D8460DF1290A0DF1280981E070
:1034A00018F0080F05D118F0100804D04FF02008CC
:1034B00001E04FF02B08049A059B002B02DB0492DD
:1034C000059308E0524263EB4303049205934FF0E7
:1034D0002D0800E0D8460DF13E0300930AAB06AA82
:1034E000DDE90401FFF7A0FD8146BAF1000FC0F24B
:1034F00088800DF13E03A3EB09039DF818206FF3BC
:1035000086128DF818209A457ED9AAEB03030793FB
:103510000DF13E0A46E0049828B9D846DFF8B4A178
:10352000AAF105093EE00DF13E0300930AAB06AA9D
:103530000021FFF779FD81469DF81A3043F0100312
:103540008DF81A3078238DF81B30D846CDE7049AD1
:103550009DF81930C3F3C303072B06D8DFE803F047
:10356000040B0D0F1115191B1460D8460DF13E0AFE
:103570004FF0000916E01470F7E71480F5E71460C7
:10358000F3E7E31714605360EFE7E3171460536049
:10359000EBE71460E9E71460E7E7D8460DF13E0A6F
:1035A0004FF00009B9F1000F00F08D80AAEB09027D
:1035B000B8F1000F00D001329DF81A1011F0100F71
:1035C00025D00232079B134411F0400F01D0089A16
:1035D0001344002F31DDFF1A9DF8183013F0040F4B
:1035E0002BD113F0400F17D0B8F1000F17D0294698
:1035F0004046B04700286ADB0134D8464FF0300B14
:103600000FE00DF13E0ACDE70DF13E0ACAE711F0D9
:10361000080FD7D00132D5E74FF0200B01E04FF073
:10362000300B3B465F1E002B07DD29465846B0474E
:1036300000284CDB01343B46F4E7B8F1000F05D01D
:1036400029464046B047002841DB01349DF81A3036
:10365000C3F30012C3F3C003134305D0294630203F
:10366000B047002833DB01349DF81A3013F0100FF7
:1036700006D029469DF81B00B047002827DB0134FF
:10368000079B03F1FF38002B07DD29463020B047A8
:1036900000281CDB01344346F3E753464A462946DB
:1036A000304609F0F0F9002811DB0444002F07DD53
:1036B00029462020B047002809DB0134013FF5E707
:1036C000DDF8089028E5DDF8089025E5204611B0E2
:1036D000BDE8F08F75FA00084FF01002EFF3118388
:1036E00082F31288BFF36F8F83F31188BFF36F8F5C
:1036F000024B034A1A600020704700BFB40000204C
:1037000000093D00054B984204D3054B984203D372
:103710000020704700207047012070474CF00008DF
:10372000080E010808B5064B186018B1054B1B6858
:10373000092B00DC08BD044806F04EF9FAE700BF8B
:103740005C090020280900207404002008B5024804
:1037500006F042F908BD00BF7404002008B5034814
:1037600009F0BCF9003818BF012008BD3409002059
:1037700030B589B000220F490F480BF063F80F4DA8
:1037800000220023CDE90623002404940E23039392
:103790000294019400940A4B4FF440720949284660
:1037A0000AF067FD084928460AF04FFD204609B097
:1037B00030BD00BF4D370008C805002000060020BE
:1037C000213E0008201700207CFA000830B503468F
:1037D00000208446044601E084F0010413F8012B24
:1037E000B2B18C4514D2252AF6D0002CF6D0094D62
:1037F00012F805E01EF0030FF0D0732A03D00CF18D
:10380000010C0024EAE7012202FA0CF21043F6E769
:1038100030BD00BF910B010808B500230B4A13709F
:103820000B4A13600B4B0C4A1A604FF47A7000F08D
:103830007DFD00F05BFB094809F042F904232822D2
:10384000074908480AF0B2FC08BD00BFC10E0020BD
:103850002C09002008000020F5CA000834090020C7
:10386000003800203C090020184BBFF35B8F53E861
:10387000002F511C43E800100028F8D1BFF35B8FE4
:103880001ABB70B5002409E0114B03EB06135B680B
:1038900004221968284600F005FB01340D4B0C4A40
:1038A0009B1AB4EB231F0FDA2646094D05EB0415CE
:1038B0002B7B002BF1D02301054AD3589B69002BA9
:1038C000E2D028469847DFE770BD704730090020F6
:1038D00064F5000874F5000810B54FF01003EFF31D
:1038E000118483F31288BFF36F8F044809F0F8F84E
:1038F00084F31188BFF36F8F10BD00BF340900201F
:1039000008B5054B1B781BB1034B01221A7008BD8B
:10391000024806F061F8F7E7C00E002074040020AA
:10392000064BBFF35B8F53E8002F013243E80021C1
:103930000029F8D1BFF35B8F704700BF2C0900202E
:10394000064B00200246BFF35B8F53E8000F43E8AD
:1039500000210029F9D1BFF35B8F70472C090020AB
:1039600038B5FFF7EDFF0546002400E001340B4BAE
:103970000B4A9B1AB4EB231F0FDA094800EB041023
:1039800043685B79002BF1D02301054AD3581B69AA
:10399000002BEBD029469847E8E738BD74F50008BE
:1039A00064F50008034B18680028D4BF00200120EC
:1039B000704700BF2C09002070B582B00446FFF7A5
:1039C000A1FE10BB0022002301A9114805F0C8FD8B
:1039D00008B1104C19E0019B0122BFF35B8F53E843
:1039E000001F43E800200028F9D1BFF35B8F019D41
:1039F0002E1D1F22214630460BF0F4F87E2385F859
:103A00002330002385F824303446204602B070BDB0
:103A10003C09002084FA000838B1074A904206D3D6
:103A2000A032904205D3002070470020704700204C
:103A300070470120704700BF00380020037A13F060
:103A4000010F00D070472DE9F04383B0064609F01E
:103A5000EEF80746304609F0D5F801463846FFF73C
:103A6000B5FE054604E0012202FA04F425EA040545
:103A70006DB3B5FA85F4C4F11F042146304609F050
:103A8000C4F88146FFF73EFE0028ECD14846FFF718
:103A9000C3FF0028E7D10F4B9945E4D07189C1F3EA
:103AA000891100F0EFF902460B4B0C495B1ADB0859
:103AB000012161F302086FF3C50863F38F18ADF8B5
:103AC00000803B462146064800F0B2F8CBE703B041
:103AD000BDE8F08384FA00080CF50008FCF4000847
:103AE000A0FA0008F8B5064619BB144B1B780BB1B9
:103AF000002403E0FFF7A2FFFAE70134104B114A5C
:103B00009B1AB4EB231F14DA0E4D05EB04156B68FA
:103B10005B79002BF1D03146284608F0E9FF0028F8
:103B2000EBD02701074BDB595B68314628469847A5
:103B3000E3E7304609F07DF8F8BD00BFC10E002074
:103B400074F5000864F5000810B50446104B1B78A6
:103B500003B9C8B1FFF7C0FE024678B10D4BBFF301
:103B60005B8F53E8001F013943E800100028F8D1AB
:103B7000BFF35B8F21461046FFF7B4FF14B9FFF780
:103B800011FF10B9FFF7EAFD10BDFFF7E9FEF9E7F5
:103B9000C00E00202809002010B582B01F4BBFF3D3
:103BA0005B8F53E8002F013243E800210029F8D150
:103BB000BFF35B8F1A4B1B7863B91A4B1B681BB1A1
:103BC000164A1268012A15D0144A12680A2A1CD013
:103BD00002B010BD4FF01003EFF3118483F312888D
:103BE000BFF36F8F0020FFF7AFFF84F31188BFF39F
:103BF0006F8FEDE700220023CDE9002342F210721F
:103C00000023094806F05CFEE2E7002BE0D00648FE
:103C10000AF024FE054805F0DFFED9E72809002058
:103C2000C10E00205C090020C8050020740400209B
:103C30002DE9F04180460F4616461D4600F07AF900
:103C4000044618B101234360002303814CB1C4F83A
:103C50001080607A032363F3071060726761A661C6
:103C6000E561C4B1BDF8183063810C4B1B689847FF
:103C7000E0604FF01003EFF3118583F31288BFF378
:103C80006F8F2146064808F01FFF85F31188BFF3A8
:103C90006F8FFFF781FFBDE8F08100BF08000020B3
:103CA0003409002070B505460E4600F043F904467D
:103CB00018B1012343600023038104B12561B4B12D
:103CC00066810B4B1B689847E0604FF01003EFF3E1
:103CD000118583F31288BFF36F8F2146054808F0E2
:103CE000F3FE85F31188BFF36F8FFFF755FF70BDAB
:103CF0000800002034090020F8B507460E46154696
:103D000000F018F9044618B1012343600023038131
:103D100034B12761637A012262F30713637266612B
:103D2000B4B165810B4B1B689847E0604FF01003FE
:103D3000EFF3118583F31288BFF36F8F2146064896
:103D400008F0C2FE85F31188BFF36F8FFFF724FFE1
:103D5000F8BD00BF08000020340900202DE9F04123
:103D600080460F4616461D4600F0E4F8044618B19A
:103D7000012343600023038144B1C4F81080607ABA
:103D8000022363F3071060726761A661B4B16581B5
:103D90000B4B1B689847E0604FF01003EFF3118561
:103DA00083F31288BFF36F8F2146064808F08CFE1C
:103DB00085F31188BFF36F8FFFF7EEFEBDE8F0814A
:103DC0000800002034090020124B1B7803B1704713
:103DD00010B5FFF749FD002400E001340E4B0F4AF7
:103DE0009B1AB4EB231F0CDA0C4800EB0410436859
:103DF0005B79002BF1D02301084AD3585B699847BF
:103E0000EBE70020FFF7A0FE0028FAD1014B0122CA
:103E10001A7010BDC10E002074F5000864F500088A
:103E200008B5FFF721FD06F031FBFFF77BFC002012
:103E3000FFF78AFE0028FAD14FF0FF324FF0FF3330
:103E4000014805F0F1FDF2E77404002000B583B0ED
:103E500004380190BFF35B8F50E8003F5A1E40E8E2
:103E600000210029F8D1BFF35B8F012B02D003B0F2
:103E70005DF804FB01A902480AF0A7F9F7E700BFC3
:103E80003C090020054B064A9B1AB1EBD30F02D226
:103E900052F8310070470020704700BF64F50008F9
:103EA000FCF4000808B5074BC31A1B110133426824
:103EB000137143681960436801225A71FFF720FDAE
:103EC00008BD00BF64F5000810B582B0019005E0A0
:103ED0001C6801A904480AF078F90194019B002BA1
:103EE000F6D102B010BD00BF6009002008B5202344
:103EF0001A46024902480AF059F908BDA0380020C4
:103F00006009002010B582B0002301930120FFF763
:103F10001BFE0446FFF704FD0022002301A904480C
:103F200005F01EFB08B1002CF0D1019802B010BDC5
:103F30006009002000B583B00023019308F0E2FD82
:103F400050B10022002301A9074805F009FB30B950
:103F5000019803B05DF804FB00220023F3E7FFF7AC
:103F6000D1FF0190F4E700BF60090020F0B583B0F5
:103F70000190044608F046FE237A13F0010F01D1A8
:103F8000064650BB019B1A7A12F0020F28D101A9F4
:103F900015480AF01AF903B0F0BD019808F047FE81
:103FA0003146FFF713FC074670B9EBE70134B44222
:103FB000E8D22146019808F028FE0546FFF72CFDBF
:103FC0000028F3D0002FE8D027FA04F313F0010FF4
:103FD000ECD02846FFF73AFFE8E700273C46E6E743
:103FE0005869FFF771FFD2E7600900200EB400B5F1
:103FF00082B0014603AB53F8042B01930348FFF74B
:1040000083F802B05DF804EB03B07047D1CF00082D
:1040100030B585B011F0440F05D01A4B1C6834B987
:10402000002005B030BD1849FFF7E0FFF9E7174B56
:104030001968B2FBF1F1B1FBF4FC154AA2FB0C329A
:10404000D20A4FF4616E0EFB12CE124BA3FB0E533D
:104050005B0904FB1C114FF47A7C0CFB01F1B1FBF2
:10406000F4F505FB14110CFB01F1B1FBF4F1029125
:104070000195C3EB0311AEEB810100910649FFF7F7
:10408000B5FFCEE780090020E4FA0008840900208B
:10409000C5B3A29189888888F0FA000861B108B593
:1040A0002AB1064A52F8232012B9054A00E0044A10
:1040B0000449FFF79BFF08BD704700BF68FB00087D
:1040C0000CFB000814FB000811F0100F0BD108B511
:1040D00011F0200F03D00449FFF788FF08BD034902
:1040E000FFF784FFFAE770479000010818FB00080B
:1040F0002DE9F04105460F46164698460699FFF70A
:10410000E3FF0024444505DA24492846FFF76EFF03
:104110000134F7E7002409E020492846FFF766FF4D
:104120000BE01F492846FFF761FF01340F2C0CDC20
:10413000002C02DD14F0070FEED0B442F1D23A5D4C
:1041400018492846FFF752FFEFE717492846FFF7BF
:104150004DFF002409E011492846FFF747FF0BE017
:1041600012492846FFF742FF01340F2C13DC002CC4
:1041700002DD14F0070FEED0B44207D23A5D0C4BCB
:10418000D35C13F0970FEBD12E22E9E703492846C1
:10419000FFF72CFFE8E7BDE8F08100BF40FB000817
:1041A00024FB00081CFB000828FB00082CFB00086F
:1041B000910B01082DE9F041804616461D46BDF9D8
:1041C000187059B90024002F1CDB86B10123079A0F
:1041D000934013F0100F18D10D4E09E00D4B079AC4
:1041E00053F822200C49FFF701FF0446EBE7084E85
:1041F00039462846FFF746FE024631464046FFF75D
:10420000F5FE04442046BDE8F081044EF0E700BF0F
:1042100030FB0008A4FB00083CFB000838FB00084A
:104220002DE9F04389B007460E469146984608F0BE
:10423000FEFC02460F493046FFF7D8FE002409E095
:10424000CDF800804B460DEB05013046FFF750FFDF
:10425000039D2C4410250395234603AA0DEB05016D
:10426000384608F0F9FC039A002AE9D109B0BDE804
:10427000F08300BF14FB0008F0B583B006460C467F
:1042800000273D460DE0A268134413F8017C0A2F75
:1042900014BF00270127204608F08DFE019B1D4416
:1042A00073B1E36801932B4601AAA168304608F078
:1042B000D3FC6368019A1A60019B002BEBD0E2E704
:1042C0000FB903B0F0BD02492046FFF78FFEF8E7B3
:1042D00044FB000870B582B00446056842F20F73D3
:1042E0008B4228BF0B460E4A0521684608F0AFFAFC
:1042F000064663685B680B220A49284608F0B4FC4E
:1043000063685B6832466946284608F0ADFC63681E
:104310005B681B220449284608F0A6FC02B070BD69
:10432000D803010898FB00087CFB0008074B01221A
:104330001A6004E04008054A13685B001360044BF0
:104340009842F7D8034B1860704700BF84090020DB
:1043500040420F008009002070B506460D4600243B
:1043600006E0054B1868315D83685B689847013447
:10437000AC42F6D3284670BD9C090020014B024A8E
:104380001A6070479C090020BCF1000808B502487B
:1043900008F011FE08BD00BFE8FB000808B50248A0
:1043A000FFF798FF08BD00BFE8FB000810B50C46FA
:1043B000084608F01AFC0F222146034808F024FEA4
:1043C000204608F036FC10BDE8FB000810B5044C90
:1043D00002E054F8043B9847024B9C42F9D310BDCD
:1043E000FCF40008FCF40008064B1B684BB110B548
:1043F0005C1E044A52F8233098472346002CF7D11C
:1044000010BD7047F4F40008AF281DD8F8B5044675
:104410000F46154603090E4A52F823608EB1304606
:1044200009F097FE50B100235BB92B463A4604F0E1
:104430000F01304609F02DF80020F8BD6FF012038F
:10444000F2E76FF01200F8E76FF01500704700BF59
:10445000F8FB0008014910220A60704710ED00E0E7
:1044600072B6404080F31188BFF36F8FBFF34F8F58
:1044700030BF62B6BFF36F8F704700BF70B582B0B8
:1044800004461F4D1F4BED1AED0801264FF00003A7
:1044900066F302036FF3C50365F38F13ADF80030C5
:1044A0008368426801681848FFF7C2FB4FF00003B9
:1044B00066F302036FF3C50365F38F13ADF80030A5
:1044C00063692269E1681148FFF7B2FB4FF000020F
:1044D00066F302026FF3C50265F38F12E1690C48BF
:1044E000FFF70AFC4FF0000266F302026FF3C50209
:1044F00065F38F12A1690748FFF7FEFB02B070BD9C
:104500001CF50008FCF4000824FC000854FC00081A
:1045100084FC000894FC000840B2002807DB00F08F
:104520001F02400901239340014A42F8203070479E
:1045300000E100E0013140B2002808DB0901C9B206
:1045400000F1604000F5614080F80013704700F012
:104550000F000901C9B2014B1954704714ED00E076
:1045600030BFFFF7FDBF00BF08B50F4B0F4A22F069
:104570007F029A60BFF34F8FBFF36F8FD3F888200D
:1045800022F47002C3F88820EFF3148323F00403AD
:1045900083F31488BFF36F8F04F082FF05F0C8FF28
:1045A00000F09EFC04F088FF00ED00E00000000831
:1045B000094A9368986709490968D96708494B68A7
:1045C00043F080534B60002383F31188BFF36F8F58
:1045D0009368D86F704700BF640E0020F00901088F
:1045E00000ED00E012498A684FF030001044EFF30C
:1045F000098C80E8F01F102080F31288BFF36F8FC2
:104600000C4F4FF000668A698A603E60906F00230D
:10461000936780F3118804B5104600F0B5FCBDE83F
:10462000044002F1300090E8F01F8CF309887047D5
:10463000640E002004ED00E01EF0040F0CBFEFF349
:104640000880EFF30980816911F8021C0229FFD06C
:1046500001B508F056FD01BD10B4A2F120040D49CA
:1046600042F8081C21F0010142F8081C42F8203CE5
:10467000019B42F81C3C029B42F8183C039B42F809
:10468000143C4FF0807342F8043C046500238367B8
:1046900010BC70476BC80008114B9A68EAB110F162
:1046A000160F10D0936EA3F1200C844505D88342D9
:1046B00005D98B4205D800210AE0002108E000213D
:1046C00006E0012104E0936E8B4294BF002101219A
:1046D00009B900207047906E70470020704700BFF6
:1046E000640E002008B50D461446084B986000F093
:1046F0004BFC204685F30988002163B681F31188BD
:10470000BFF36F8F0022002308F0AFF8640E002083
:1047100001B5EFF30580A0F110004FEAC000044995
:10472000014409C99847BDE8014002490847000013
:104730004CF2000839470008044B99689869884290
:1047400003D003494FF080520A607047640E002086
:1047500004ED00E008B54E4B4E4A9B1ADB084FF0C3
:104760000001012262F302016FF3C50163F38F11AF
:104770004948FFF797FA494B9B6A13F0007F21D114
:10478000464B9B6A13F0807F2DD1444B9B6A13F4F8
:10479000002F39D1414B9B6A13F4802F45D13F4BF9
:1047A0009B6A13F4003F51D13C4B9B6A13F4803F4A
:1047B0005DD13A4A936A6FEA03436FEA1343936207
:1047C000002008BD324B334A9B1ADB084FF0000132
:1047D000012262F302016FF3C50163F38F113048C8
:1047E000FFF760FACCE72A4B2A4A9B1ADB084FF006
:1047F0000001012262F302016FF3C50163F38F111F
:104800002848FFF74FFAC0E7214B224A9B1ADB08E2
:104810004FF00001012262F302016FF3C50163F35F
:104820008F112148FFF73EFAB4E7194B194A9B1A3A
:10483000DB084FF00001012262F302016FF3C501B2
:1048400063F38F111948FFF72DFAA8E7104B114AAF
:104850009B1ADB084FF00001012262F302016FF3A3
:10486000C50163F38F111248FFF71CFA9CE7084B50
:10487000084A9B1ADB084FF00001012262F3020193
:104880006FF3C50163F38F110A48FFF70BFA90E746
:104890001CF50008FCF40008C4FC000800ED00E072
:1048A000DCFC0008F0FC00080CFD00082CFD0008F2
:1048B00054FD000870FD000808B500220A70084B7E
:1048C00008495B1ADB084FF00001012060F3020188
:1048D00062F3C50163F38F110348FFF7E3F908BDE5
:1048E0001CF50008FCF400089CFD000870B50546A6
:1048F0000E4614465E4B5F4A9B1ADB084FF00001E0
:10490000012262F302016FF3C50163F38F115A486C
:10491000FFF7C8F9594B9B6A13F4805F24D1574BBA
:104920009B6A13F4006F30D1544B9B6A13F4007FE1
:104930003CD1524B9B6A13F4806F65D14F4B9B6AFD
:1049400013F4807F71D14D4B9B6A13F4005F7DD1CE
:104950004A4A936A43F47F4393620121284608F050
:10496000E2FB2070002070BD414B424A9B1ADB08DD
:104970004FF00001012262F302016FF3C50163F3FE
:104980008F113F48FFF78EF9C9E7394B394A9B1A17
:10499000DB084FF00001012262F302016FF3C50151
:1049A00063F38F113748FFF77DF9BDE7304B314A8C
:1049B0009B1ADB084FF00001012262F302016FF342
:1049C000C50163F38F113048FFF76CF92B4B996BDE
:1049D0009B6A13F4004FACD0254B264A9B1ADB0888
:1049E0004FF00002012060F302026FF3C50263F38F
:1049F0008F122648FFF780F9002E9AD01F4A936A3B
:104A000023F40043936294E7194B1A4A9B1ADB087C
:104A10004FF00001012262F302016FF3C50163F35D
:104A20008F111B48FFF73EF988E7114B114A9B1A7B
:104A3000DB084FF00001012262F302016FF3C501B0
:104A400063F38F111348FFF72DF981E7084B094AEB
:104A50009B1ADB084FF00001012262F302016FF3A1
:104A6000C50163F38F110C48FFF71CF970E700BF15
:104A70001CF50008FCF40008C0FD000800ED00E093
:104A8000D8FD0008ECFD000800FE00081CFE000830
:104A900034FE000850FE000868FE0008F8B5054620
:104AA0000C461646644B654A9B1ADB084FF0000122
:104AB000012262F302016FF3C50163F38F116048B5
:104AC000FFF7F0F85F4B9B6A13F0100F32D15D4B8C
:104AD0009B6A13F0080F3ED15A4B9B6A13F0020FEA
:104AE0004AD16FF01507574B9B6A13F0010F75D130
:104AF000544B9B6A13F0200F40F08180514B9B6A0E
:104B000013F0100F04D14F4B9C6A14F0020405D02F
:104B10004C4B5C6814F4006440F08280494A936A0C
:104B200043F0FF0393620121284608F0FCFA30703D
:104B30002046F8BD404B414A9B1ADB084FF000016C
:104B4000012262F302016FF3C50163F38F113E4846
:104B5000FFF7A8F8BBE7384B384A9B1ADB084FF041
:104B60000001012262F302016FF3C50163F38F11AB
:104B70003648FFF797F8AFE72F4B304A9B1ADB0810
:104B80004FF00001012262F302016FF3C50163F3EC
:104B90008F112F48FFF786F82A4B5F6B9B6A13F043
:104BA000800F02D16FF015079DE7234B234A9B1A14
:104BB000DB084FF00002012161F302026FF3C5022E
:104BC00063F38F1239462348FFF796F8002C8AD0FA
:104BD0001C4A936A23F08003936284E7164B174ABA
:104BE0009B1ADB084FF00001012262F302016FF310
:104BF000C50163F38F111848FFF754F878E70E4B9F
:104C00000E4A9B1ADB084FF00001012262F30201F9
:104C10006FF3C50163F38F111048FFF743F86DE799
:104C200029463846FFF738FD044600283FF476AFA2
:104C300080F30988022471E71CF50008FCF40008E1
:104C400098FE000800ED00E0B0FE0008ECFD000852
:104C5000E4FE0008FCFE000814FF000868FE0008DF
:104C600070B505460C46464B464A9B1ADB084FF08A
:104C70000001012262F302016FF3C50163F38F119A
:104C80004148FFF70FF800232370404BDE6A16F00F
:104C9000020609D13D4BDB6A002B17DB3B4BD86A80
:104CA00010F0804024D170BD354B364A9B1ADB088A
:104CB0004FF00001012262F302016FF3C50163F3BB
:104CC0008F113348FEF7EEFF0020ECE72C4B2D4A06
:104CD0009B1ADB084FF00001012262F302016FF31F
:104CE000C50163F38F112B48FEF7DCFF3046DAE78E
:104CF000234B244A9B1ADB084FF00001012262F388
:104D000002016FF3C50163F38F112348FEF7CAFF59
:104D1000AB6933F8022C4DF602739A420DD01B4B4F
:104D200093F82830E3B9194B93F82930F3B9174BAE
:104D30005B8D9BB203BB3046B5E7114B114A9B1A02
:104D4000DB084FF00002012161F302026FF3C5029C
:104D500063F38F1229681148FEF7CEFF2868A2E797
:104D6000224601212846FFF799FE9CE722460121B1
:104D70002846FFF7BBFD96E72846FFF7EBFC92E7D6
:104D80001CF50008FCF4000834FF000800ED00E00A
:104D90004CFF000870FF000880FF0008A0FF00081B
:104DA00008B50A460B480C4BC01AC0084FF0000368
:104DB000012161F302036FF3C50360F38F130F2A20
:104DC00005DC0649103A0648FEF7C8FF08BD05494C
:104DD000F8E700BF1CF50008FCF40008BCFF000861
:104DE000F0FF0008D4FF000870B58AB02F4B5D6853
:104DF000C5F30805002383F31188BFF36F8F02F01A
:104E00007F43B3F17F4F2AD102F00C03082B10D05F
:104E100012F0080F20D00C4600260DF1270229467B
:104E2000204608F082F905469DF82730D3B10AB034
:104E300070BD1F4B1F4A9B1ADB084FF00001012277
:104E400062F302016FF3C50163F38F111A48FEF795
:104E500029FF00263446E0E704460126DDE7002668
:104E60003446DAE70DF1040C20686168A268E36853
:104E7000ACE80F0020696169A269E369ACE80F0042
:104E800046B1C3F308025AB96FEA53236FEA4323CA
:104E9000089305E0089B23F4FF7323F001030893B4
:104EA00001A9284608F021F9C1E700BF00ED00E0A4
:104EB0001CF50008FCF4000804000108024A5369CC
:104EC00043F010035361704700ED00E0EFF30880FA
:104ED000EFF3098101B57246FFF786FF01BD00BF00
:104EE000002206E002F00F01094B0B441021197655
:104EF0000132542A0ADC53B2002BF3DB03F1604386
:104F000003F56143102183F80013F1E7704700BFF8
:104F1000FCEC00E0102080F3118808484FF4026197
:104F2000401880F30988EFF314800221084380F3CE
:104F30001488BFF36F8FFFF717FB0000C02B002012
:104F400008B5084B9B68834202D005F0B5FA08BD4E
:104F5000EFF30583002BF8D0034A536843F08053E6
:104F60005360F2E7640E002000ED00E008B5034B4B
:104F7000034A0121034808F02DF908BD00800220F2
:104F8000000000203400010808B5836E203B05486E
:104F9000036020234360044B8360012108F01EF965
:104FA00008BD00BFA009002000000B15084AC2F888
:104FB00098000B6823F01F03034343F01003C2F86B
:104FC0009C308B6843F00103C2F8A030704700BFEB
:104FD00000ED00E010B50446072803D8FFF7E6FF10
:104FE000204610BD094B0A4A9B1ADB084FF000020D
:104FF000012161F302026FF3C50263F38F120146D0
:105000000448FEF779FE6FF01500EAE714F5000892
:10501000FCF40008400001082DE9F04780460F46E7
:105020009A461646002409E02946F0B208F0B3F883
:10503000064610F1160F25D001360134BC4221DAA4
:1050400004EB440508EB85056A68002AF5D0BAF13F
:10505000000FE9D0284608F08DF80028E4D10B4B6A
:105060000B4A9B1ADB084FF00002012161F3020298
:105070006FF3C50263F38F1221460648FEF73CFE2C
:105080006FF015063046BDE8F08700BF14F5000844
:10509000FCF400086800010810B5034C01232278D5
:1050A000FFF7BAFF207010BDC30E002008B5002323
:1050B000094A1278FFF7B0FF10F1160F0AD0034625
:1050C00006E0064AC2F898300021C2F8A010013369
:1050D000072BF6DD08BD00BFC30E002000ED00E089
:1050E000044B0522C3F89420BFF34F8FBFF36F8F9B
:1050F000704700BF00ED00E0BFF35F8F024B00225E
:10510000C3F89420704700BF00ED00E038B50E4BA7
:105110001D68082D15D8FFF7EFFF002409E00A4BA2
:10512000596804EB4402930019442046FFF73EFF00
:105130000134A542F3D8054B1D70FFF7D1FF0020C5
:1051400038BD4FF0FF30FBE7A4000108C30E00207C
:10515000014B1860704700BF1000002070B5064674
:105160000D46002400E00134AC4208DA054B1B6810
:10517000984730550A2801D00D28F4D10134204633
:1051800070BD00BF0C000020F8B505460F46002496
:1051900004E0094B1B68307898470134BC4208DAB8
:1051A0002E192B5D0A2BF4D1034B1B680D20984759
:1051B000EFE73846F8BD00BF1000002008B5052213
:1051C0000249012008F01BF8FEE700BF8C0001082F
:1051D0000246084B1968084BC8180A44C3F100532B
:1051E00003F520339A4202D2024B1A6070474FF007
:1051F000FF307047AC0900204A3D002070B50446DE
:105200000D46166902E001220CE00134AC4217DAC7
:105210001F2CFADC0123A3400A4A526933EA020236
:10522000F1D00022002AF0D0064A536156F83430FB
:10523000002BEAD006EBC402516820469847E4E709
:1052400070BD00BF0004014008B501238340044A3B
:1052500011680B431360034B1856FFF75DF908BD47
:1052600000040140E40001081F2806DC01238340FC
:10527000024A106820EA03001060704700040140F1
:10528000032932D8DFE801F0020F1B27012303FABC
:1052900000F0164B9A6822EA00029A60DA6822EA65
:1052A0000000D8607047012303FA00F00F4B9A68A2
:1052B00002439A60DA6822EA0000D860704701234E
:1052C00003FA00F0094BDA680243DA609A6822EACE
:1052D000000098607047012303FA00F0034B9A68BE
:1052E00002439A60DA681043D860704700040140B6
:1052F000074B53F830303BB9054B43F8301003EB04
:10530000C0004260002070476FF00F00704700BF80
:10531000B0090020034B002243F8302003EBC00308
:105320005A607047B009002086B00B68062B48D839
:10533000DFE803F00410263C31471B004B68224A8B
:10534000916C19439164926C13400093009B002070
:1053500006B070474B681C4AD16C1943D164D26CBB
:1053600013400193019B0020F2E74B68164A116D30
:1053700019431165126D13400293029B0020E7E769
:105380004B68114A916D19439165926D13400393D7
:10539000039B0020DCE74B680B4AD16D1943D165B4
:1053A000D26D13400493049B0020D1E74B68064A5A
:1053B000116E19431166126E13400593059B002070
:1053C000C6E76FF08500C3E7001002400B68062BAC
:1053D0003AD8DFE803F0040C213129391400496878
:1053E0001B4A936C23EA01039364002070474968C9
:1053F000174AD36C23EA0103D3640020704782B0BC
:105400004B68134A116D19431165126D13400193D6
:10541000019B002002B0704749680D4A936D23EA52
:1054200001039365002070474968094AD36D23EA58
:105430000103D365002070474968054A136E23EACB
:1054400001031366002070476FF08500704700BFAE
:105450000010024070B50C4615460D4B1E68012128
:10546000304607F05AFF2368062B0ED8DFE803F01A
:105470000404070A070D04002E60002070BD286098
:105480000020FBE728600020F8E76FF08500F5E7D3
:10549000B4000020104B1B6813F4806F09D10E4A32
:1054A000136843F4807313600B4B1B6813F4806F15
:1054B000FAD0094A936823F0030343F00103936091
:1054C000936823F0F00318439060034B9B6803F04C
:1054D0000C03042BF9D170470010024010B586B0C0
:1054E00003A807F015FF00F023F8684607F018FF3F
:1054F0000020FFF7CFFF0D4C236823F0807323605B
:10550000E36823F4C00343F48003E36003A968461F
:1055100003F008FC236823F480332360236823F01E
:1055200001032360002006B010BD00BF0010024040
:1055300082B0064B9A6D42F080529A659B6D03F0E3
:1055400080530193019B02B0704700BF00100240DE
:1055500010B504460A2807D0074B1868E1B28368E3
:105560005B689847204610BD034B186883685B68EA
:105570000D219847F0E700BF300A002010B5044C19
:105580002046FFF7E5FD2046FDF782FB10BD00BF7A
:105590005155000808B50948094B186008F0D9FDB5
:1055A00028B1002333B9FFF7E9FF002008BD6FF0F1
:1055B0001203F7E76FF01200F8E700BFBCF1000834
:1055C000300A00204A4201F0030302F0030258BFF0
:1055D000534204339A000F2393400A46002919DBF3
:1055E00043EAA2035FFA83FC0CF102010B4A52F872
:1055F00021101A0C21EA134392FAA2F262B1B2FA14
:1056000082F200FA02F21A430CF1020C034B43F847
:105610002C207047CA1CE3E72022F2E7000001407B
:10562000424200F0030302F0030258BF5342043326
:105630009A000F2393400246002810DB43EAA200A1
:10564000C3B20233084A52F82320030C02EA104086
:1056500093FAA3F32BB1B3FA83F3D8407047C21C7B
:10566000ECE72023F9E700BF0000014070B582B0ED
:1056700006460D460D4B93E8030002AB03E9030019
:105680000B4808F066FD48B1094883681B68694605
:10569000984704462CB1204602B070BD6FF012044A
:1056A000F8E729463046FFF78DFFF4E7F8F50008E4
:1056B000FCF00008F8B50C46114647680269B1F5E0
:1056C000005F1FD01D46B1F5804F34D01D492046E4
:1056D000FFF70EFE064688BB2146B868FFF7C6FFF7
:1056E000B5F5802F23D0B5F5C02F22D0B5F5003FFA
:1056F0001BD031462046FFF7C3FD2046FFF7A4FD2F
:105700003046F8BD2046FFF78BFFBB68984201D0BA
:105710000026F5E72046FFF7A7FD2046FFF7FAFD34
:1057200000212046FFF7ACFDF2E70221E2E701216C
:10573000E0E70321DEE76FF08506E1E76FF00F0693
:10574000DEE700BF31D3000810B5446869B10C34FE
:105750000D4808F0FEFC28B10B4883681B68214601
:10576000984710BD6FF01200FBE70C34064808F0B4
:10577000F0FC28B1044883685B6821469847F0E74D
:105780006FF01200EDE700BFFCF000082DE9F047D4
:1057900088B09DF84090476801F1FF3ABAF1050FD3
:1057A0004FD814461D4693425ED8D7F80080B8F112
:1057B000804F03D0B2F5803F00F2E680744B53F87F
:1057C0002A60002C63D0D8F8203036EA030366D074
:1057D000684608F02AFC6023009301230193039597
:1057E000484607F037FF04906A463146386808F0AB
:1057F00026FC0146002840F091803A68136843F087
:10580000800313603B68012E00F09E80042E00F0A0
:105810009A80102E00F0AE80402E00F0AD80B6F5DC
:10582000807F00F0AB80B6F5806F00F0A980B6F500
:10583000805F00F0A780B6F5803F00F082800821ED
:1058400082E0544B544A9B1ADB084FF000020120BF
:1058500060F302026FF3C50263F38F124F48FEF745
:105860004BFA6FF0150082E04A4B4B4A9B1ADB085B
:105870004FF00001012262F302016FF3C50163F3EF
:105880008F114748FEF70EFA6FF015006FE0D8F859
:10589000203023EA0606C8F82060002067E048466A
:1058A00007F0D8FE012E15D0042E2BD0102E2BD0B1
:1058B000402E2BD0B6F5807F2AD0B6F5806F29D048
:1058C000B6F5805F28D0B6F5803F01D0082102E010
:1058D000072100E00021D8F82030324A515C022232
:1058E0008A4023EA020388400343C8F820302E4B45
:1058F00053F82A302946386898473B68013CDC62F7
:10590000002034E00121E6E70221E4E70321E2E799
:105910000421E0E70521DEE70621DCE71D4B1E4AF6
:105920009B1ADB084FF00001012262F302016FF3C2
:10593000C50163F38F111D48FEF7B4F96FF0040041
:1059400015E0072100E001211833194A505C1A586C
:10595000184D6D5C0821A9400A431A503B68013C70
:10596000DC623A68536943F001035361002008B0D8
:10597000BDE8F0870221E7E70321E5E70421E3E73B
:105980000521E1E70621DFE76FF08500EFE700BFC3
:10599000F402010824F50008FCF40008C80101081D
:1059A000E0010108DC0201083C03010810020108C3
:1059B000D0020108E802010830B583B004460D4664
:1059C0000C4808F0C6FB70B10A4B9B68DB686BB1F2
:1059D00001AA214607489847002802DB019B2B605B
:1059E000002003B030BD6FF01200F5E76FF05700F4
:1059F000F2E700BFFCF00008F0B587B00769456822
:105A000005F10806474808F0A4FB00283DD04548AA
:105A100083681B68314698470446002C38DB3946BA
:105A20003046FFF7C9FF041E44DB2A68696928690C
:105A300007F030FB041E4FDB01A808F0EDFA6B689D
:105A4000ADF80430002302930393049301A928685E
:105A500003F050F8002851D12B68334A934207D005
:105A600002F5A052934203D002F58062934203D123
:105A70005A6C42F400425A642A68136843F00103E6
:105A800013600024204607B0F0BD6FF01204C4E795
:105A9000264B274A9B1ADB084FF00002012161F3D5
:105AA00002026FF3C50263F38F1221462148FEF70D
:105AB00023F9E7E71D4B1E4A9B1ADB084FF0000253
:105AC000012161F302026FF3C50263F38F122146D5
