:020000040800F2
:10000000002E0020394700082BBE0008F1460008EA
:10001000F1460008F1460008F14600080000000023
:100020000000000000000000000000005D3E00082D
:10003000F146000800000000093E0008B97A0008F7
:10004000353F0008353F0008353F0008353F0008C0
:10005000353F0008353F0008353F0008353F0008B0
:10006000353F0008353F0008353F0008353F0008A0
:10007000353F0008353F0008353F0008353F000890
:10008000353F0008353F0008353F0008353F000880
:10009000353F0008353F0008353F0008353F000870
:1000A000353F0008353F0008353F0008353F000860
:1000B000353F0008353F0008353F0008353F000850
:1000C000353F0008353F0008353F0008353F000840
:1000D000353F0008353F0008353F0008353F000830
:1000E000353F0008353F0008353F0008353F000820
:1000F000353F0008353F0008353F0008353F000810
:10010000353F0008353F0008353F0008353F0008FF
:10011000353F0008353F0008353F0008353F0008EF
:10012000353F0008353F0008353F0008353F0008DF
:10013000353F0008353F0008353F0008353F0008CF
:10014000353F0008353F0008353F0008353F0008BF
:10015000353F0008353F0008353F0008353F0008AF
:10016000353F0008353F0008353F0008353F00089F
:10017000353F0008353F0008353F0008353F00088F
:10018000353F0008353F0008353F0008353F00087F
:04019000353F0008EF
:0C019400FFFFFFFFFFFFFFFFFFFFFFFF6B
:1001A00001F0FF01102A2BDB10F0070F08D010F828
:1001B000013B013A8B422DD010F0070F42B3F6D12C
:1001C000F0B441EA012141EA014122F007047FF045
:1001D00000070023F0E80256083C85EA010586EA9C
:1001E000010685FA47F5A3FA87F586FA47F6A5FAD8
:1001F00087F68EB9EED1F0BC01F0FF0102F00702E4
:1002000032B110F8013B013A83EA010313B1F8D18E
:100210000020704701387047002D06BF354603386F
:10022000073815F0010F07D1013015F4807F02BFA8
:10023000013015F4C03F0130F0BC0138704700BFF9
:1002400081F0004102E000BF83F0004330B54FEA87
:1002500041044FEA430594EA050F08BF90EA020FF4
:100260001FBF54EA000C55EA020C7FEA645C7FEA87
:10027000655C00F0E2804FEA5454D4EB5555B8BFAA
:100280006D420CDD2C4480EA020281EA030382EA1B
:10029000000083EA010180EA020281EA0303362DAD
:1002A00088BF30BD11F0004F4FEA01314FF4801C80
:1002B0004CEA113102D0404261EB410113F0004F92
:1002C0004FEA03334CEA133302D0524263EB430349
:1002D00094EA050F00F0A780A4F10104D5F1200EE7
:1002E0000DDB02FA0EFC22FA05F2801841F1000142
:1002F00003FA0EF2801843FA05F359410EE0A5F116
:1003000020050EF1200E012A03FA0EFC28BF4CF046
:10031000020C43FA05F3C01851EBE37101F00045FC
:1003200007D54FF0000EDCF1000C7EEB00006EEB09
:100330000101B1F5801F1BD3B1F5001F0CD3490893
:100340005FEA30004FEA3C0C04F101044FEA4452EA
:1003500012F5800F80F09A80BCF1004F08BF5FEA71
:10036000500C50F1000041EB045141EA050130BD51
:100370005FEA4C0C404141EB0101013C28BFB1F563
:10038000801FE9D291F0000F04BF01460020B1FAAE
:1003900081F308BF2033A3F10B03B3F120020CDA81
:1003A0000C3208DD02F1140CC2F10C0201FA0CF05F
:1003B00021FA02F10CE002F11402D8BFC2F1200CC4
:1003C00001FA02F120FA0CFCDCBF41EA0C0190407A
:1003D000E41AA2BF01EB0451294330BD6FEA0404C3
:1003E0001F3C1CDA0C340EDC04F11404C4F12002AE
:1003F00020FA04F001FA02F340EA030021FA04F3C0
:1004000045EA030130BDC4F10C04C4F1200220FA16
:1004100002F001FA04F340EA0300294630BD21FA54
:1004200004F0294630BD94F0000F83F4801306BF1A
:1004300081F480110134013D4EE77FEA645C18BF0E
:100440007FEA655C29D094EA050F08BF90EA020FA5
:1004500005D054EA000C04BF1946104630BD91EA9D
:10046000030F1EBF0021002030BD5FEA545C05D1A0
:100470004000494128BF41F0004130BD14F58004DF
:100480003CBF01F5801130BD01F0004545F0FE4153
:1004900041F470014FF0000030BD7FEA645C1ABF88
:1004A000194610467FEA655C1CBF0B46024650EABF
:1004B000013406BF52EA033591EA030F41F40021EB
:1004C00030BD00BF90F0000F04BF0021704730B571
:1004D0004FF4806404F132044FF000054FF0000146
:1004E00050E700BF90F0000F04BF0021704730B507
:1004F0004FF4806404F1320410F0004548BF4042DC
:100500004FF000013EE700BF42004FEAE2014FEA30
:1005100031014FEA02701FBF12F07F4393F07F4F0B
:1005200081F06051704732F07F4208BF704793F00E
:100530007F4F04BF41F40021704730B54FF4607421
:1005400001F0004521F000411CE700BF50EA010224
:1005500008BF704730B54FF000050AE050EA0102CD
:1005600008BF704730B511F0004502D5404261EB3D
:1005700041014FF4806404F132045FEA915C3FF47E
:10058000D8AE4FF003025FEADC0C18BF03325FEA1B
:10059000DC0C18BF033202EBDC02C2F1200300FACC
:1005A00003FC20FA02F001FA03FE40EA0E0021FAF1
:1005B00002F11444BDE600BF70B54FF0FF0C4CF4DF
:1005C000E06C1CEA11541DBF1CEA135594EA0C0F91
:1005D00095EA0C0F00F0DEF82C4481EA030621EACC
:1005E0004C5123EA4C5350EA013518BF52EA033507
:1005F00041F4801143F4801338D0A0FB02CE4FF0B9
:100600000005E1FB02E506F00042E0FB03E54FF0E8
:100610000006E1FB03569CF0000F18BF4EF0010EE0
:10062000A4F1FF04B6F5007F64F5407404D25FEADC
:100630004E0E6D4146EB060642EAC62141EA55518F
:100640004FEAC52040EA5E504FEACE2EB4F1FD0CD1
:1006500088BFBCF5E06F1ED8BEF1004F08BF5FEA4F
:10066000500E50F1000041EB045170BD06F0004601
:1006700046EA010140EA020081EA0301B4EB5C04AE
:10068000C2BFD4EB0C0541EA045170BD41F48011A6
:100690004FF0000E013C00F3AB8014F1360FDEBFCB
:1006A000002001F0004170BDC4F10004203C35DAA7
:1006B0000C341BDC04F11404C4F1200500FA05F32A
:1006C00020FA04F001FA05F240EA020001F00042CB
:1006D00021F0004110EBD37021FA04F642EB060141
:1006E0005EEA430E08BF20EAD37070BDC4F10C046B
:1006F000C4F1200500FA04F320FA05F001FA04F22F
:1007000040EA020001F0004110EBD37041F100011A
:100710005EEA430E08BF20EAD37070BDC4F1200525
:1007200000FA05F24EEA020E20FA04F301FA05F28D
:1007300043EA020321FA04F001F0004121FA04F235
:1007400020EA020000EBD3705EEA430E08BF20EA05
:10075000D37070BD94F0000F0FD101F0004640003F
:1007600041EB010111F4801F08BF013CF7D041EAC1
:10077000060195F0000F18BF704703F000465200C5
:1007800043EB030313F4801F08BF013DF7D043EA96
:100790000603704794EA0C0F0CEA135518BF95EA4C
:1007A0000C0F0CD050EA410618BF52EA4306D1D1D3
:1007B00081EA030101F000414FF0000070BD50EAF2
:1007C000410606BF1046194652EA430619D094EA7C
:1007D0000C0F02D150EA013613D195EA0C0F05D166
:1007E00052EA03361CBF104619460AD181EA0301BA
:1007F00001F0004141F0FE4141F470014FF0000072
:1008000070BD41F0FE4141F4780170BD70B54FF00C
:10081000FF0C4CF4E06C1CEA11541DBF1CEA13558C
:1008200094EA0C0F95EA0C0F00F0A7F8A4EB05046E
:1008300081EA030E52EA03354FEA013100F0888065
:100840004FEA03334FF0805545EA131343EA12632E
:100850004FEA022245EA111545EA10654FEA0026E3
:100860000EF000419D4208BF964244F1FD0404F59C
:10087000407402D25B084FEA3202B61A65EB0305F8
:100880005B084FEA32024FF480104FF4002CB6EBB5
:10089000020E75EB030E22BFB61A754640EA0C0035
:1008A0005B084FEA3202B6EB020E75EB030E22BF75
:1008B000B61A754640EA5C005B084FEA3202B6EBB6
:1008C000020E75EB030E22BFB61A754640EA9C0075
:1008D0005B084FEA3202B6EB020E75EB030E22BF45
:1008E000B61A754640EADC0055EA060E18D04FEA03
:1008F000051545EA16754FEA06164FEAC30343EAA3
:1009000052734FEAC2025FEA1C1CC0D111F4801F6F
:100910000BD141EA00014FF000004FF0004CB6E768
:1009200011F4801F04BF01430020B4F1FD0C88BF07
:10093000BCF5E06F3FF6AFAEB5EB030C04BFB6EB12
:10094000020C5FEA500C50F1000041EB045170BD05
:100950000EF0004E4EEA113114EB5C04C2BFD4EB32
:100960000C0541EA045170BD41F480114FF0000EB6
:10097000013C90E645EA060E8DE60CEA135594EA32
:100980000C0F08BF95EA0C0F3FF43BAF94EA0C0F35
:100990000AD150EA01347FF434AF95EA0C0F7FF4AA
:1009A00025AF104619462CE795EA0C0F06D152EAFE
:1009B00003353FF4FDAE1046194622E750EA4106E2
:1009C00018BF52EA43067FF4C5AE50EA41047FF4F3
:1009D0000DAF52EA43057FF4EBAE12E753B94AB9C3
:1009E000002908BF00281CBF4FF0FF314FF0FF3037
:1009F00000F00CB8ADF1080C6DE904CE00F0CEF8B3
:100A0000DDF804E0DDE9022304B07047704700BF61
:100A10004FF0FF3C06E000BF4FF0010C02E000BFCA
:100A20004FF0010C4DF804CD4FEA410C7FEA6C5CAD
:100A30004FEA430C18BF7FEA6C5C1BD001B050EA50
:100A4000410C0CBF52EA430C91EA030F02BF90EA3B
:100A5000020F0020704710F1000F91EA030F58BFFA
:100A6000994208BF90422CBFD8176FEAE37040F05C
:100A7000010070474FEA410C7FEA6C5C02D150EAFA
:100A8000013C07D14FEA430C7FEA6C5CD6D152EAB5
:100A9000033CD3D05DF8040B704700BF844610467A
:100AA00062468C461946634600E000BF01B5FFF779
:100AB000B7FF002848BF10F1000F01BD4DF808ED49
:100AC000FFF7F4FF0CBF012000205DF808FB00BF1A
:100AD0004DF808EDFFF7EAFF34BF012000205DF874
:100AE00008FB00BF4DF808EDFFF7E0FF94BF0120C1
:100AF00000205DF808FB00BF4DF808EDFFF7CEFFC2
:100B000094BF012000205DF808FB00BF4DF808ED00
:100B1000FFF7C4FF34BF012000205DF808FB00BFD1
:100B20004FEA410C7FEA6C5C02D150EA013C0AD1E9
:100B30004FEA430C7FEA6C5C02D152EA033C02D1DB
:100B40004FF0000070474FF0010070474FEA41023C
:100B500012F5001215D211D56FF47873B3EB62520F
:100B600012D94FEAC12343F0004343EA505311F036
:100B7000004F23FA02F018BF404270474FF00000C8
:100B8000704750EA013005D111F0004008BF6FF006
:100B9000004070474FF00000704700BF2DE9F04F54
:100BA00007468C460846099E15463C461946002BCA
:100BB00040F0C6808242B2FA82F746D94FB1C7F1FF
:100BC000200E24FA0EFE00FA07F3BD404EEA030C95
:100BD000BC404FEA15481FFA85FEBCFBF8F9220C11
:100BE00008FB19C309FB0EFA42EA03439A4528D9C8
:100BF000EB1809F1FF3004D29A4502D9A9F102009D
:100C00002B44A3EB0A03A4B2B3FBF8F208FB1233A4
:100C100002FB0EFE44EA0344A64514D92C1902F146
:100C2000FF3303D2A64501D9931E2C44A4EB0E0436
:100C300043EA00401EB1FC40002334607360BDE80D
:100C4000F08F4846DDE71346F0E702B9FFDE87BBC9
:100C5000831A01214FEA154EAAB2B3FBFEFC200C09
:100C60000EFB1C330CFB02F840EA0343984563D9A2
:100C7000EB180CF1FF3004D2984502D9ACF1020018
:100C80002B44A3EB0803A4B2B3FBFEFC0EFB1C3306
:100C90000CFB02F244EA0344A2424FD92C190CF196
:100CA000FF3304D2A24202D9ACF102032C44A41AAD
:100CB000BEE7C7F1200C20FA0CF800FA07F324FA7B
:100CC0000CFCBD404CEA03024FEA154EABB2B8FB38
:100CD000FEFC110C0EFB1C800CFB03F941EA0040EA
:100CE000814504FA07F423D928180CF1FF3104D206
:100CF000814502D9ACF102012844A0EB090092B26F
:100D0000B0FBFEFC0EFB1C000CFB03F842EA0043A8
:100D100098450FD9EB180CF1FF3204D2984502D94F
:100D2000ACF102022B44A3EB080342EA014191E734
:100D30006146E2E76246F6E76046A2E76346B6E749
:100D4000834205D90EB1C6E900700021084676E756
:100D5000B3FA83F181B9834201D3BA420AD8BC1AEB
:100D600060EB030301209C46002E68D0C6E9004CCE
:100D7000002164E70846F7E7C1F1200C8B4022FA16
:100D80000CF41C4302FA01F500FA01F327FA0CF205
:100D900020FA0CFB4FEA14491343BBFBF9F81FFA86
:100DA00084FE09FB18BB1A0C08FB0EFA42EA0B4240
:100DB000924507FA01F73ED9A21808F1FF3004D294
:100DC000924502D9A8F102002244A2EB0A029BB28A
:100DD000B2FBF9F809FB182208FB0EFE43EA0242B7
:100DE00096452AD9A21808F1FF3304D2964502D9B4
:100DF000A8F10203224443EA0040A0FB0593A2EBC2
:100E00000E029A42CE46984602D306D14F4504D2EE
:100E1000B9EB050E63EB0408013886B1B7EB0E039E
:100E200062EB080707FA0CFCCB404CEA0303CF4007
:100E3000C6E900379CE74046C7E74346DBE7314653
:100E4000FDE610F8012B11F8013B012A28BF9A4258
:100E5000F7D0D01A7047034613F8012B002AFBD1B4
:100E6000181A0138704700002DE9F04F446A99B014
:100E700016461F46CDE90467DDF89480054674B92F
:100E8000102008F065FF0246686220B9A84BEA21ED
:100E9000A84809F08DFEC0E901440460C4606B6A93
:100EA000196851B15A684A60012393408B60284603
:100EB00009F0AAFB6B6A00221A603B1EB9BF23F03F
:100EC000004305930023C8F80030DDF814909A4BD6
:100ED000BCBF0122C8F8002033EA090319D1249AC3
:100EE00042F20F731360C9F31303334300F080859C
:100EF000269B53B9914B22E0914B03930833269ADA
:100F00001360039819B0BDE8F08F8C4B0393033343
:100F1000F5E7DDE90434CDE90C34DDE90C0100220C
:100F20000023FFF7CBFD804658B1249A01231360BC
:100F3000269B002B00F0598582481860431E0393BE
:100F4000DFE716AB019317AB00932846DDE90C23CE
:100F500009F0D2FDC9F30A548346002C7ED00D9BC4
:100F6000CDF84C80C3F31303DDE90C0143F07F514E
:100F700041F44011A4F2FF34734B0022FFF764F9EF
:100F800065A3D3E90023FFF717FB65A3D3E900238B
:100F9000FFF75CF9064620460F46FFF7A3FA62A367
:100FA000D3E90023FFF708FB02460B4630463946DB
:100FB000FFF74CF906460F46FFF7C8FD00228246B0
:100FC000002330463946FFF783FD48B15046FFF70E
:100FD00089FA32463B46FFF771FD08B90AF1FF3A3C
:100FE000BAF1160F57D8594B03EBCA03D3E90023C4
:100FF000DDE90C01FFF76CFD00284ED00AF1FF3A45
:1010000000230F93169B1C1B631E099345BFC4F15D
:1010100001030693002300234CBF09930693BAF102
:10102000000F3CDB099BCDF838A053440993002303
:101030000A93229B092B00F28D80052BC4BF043B31
:101040002293229BA3F10203CCBF00240124032B93
:1010500000F28C80DFE803F02D4F4D5BDDE9164395
:101060001C4404F23243202BC3BFC3F1400304F2FB
:10107000124009FA03F3C3F12003C6BF26FA00F0B9
:10108000184306FA03F0FFF71DFA0123A1F1F871E6
:10109000013C139370E70123B3E70F90B2E7069B7F
:1010A000A3EB0A030693CAF100030A9300230E93ED
:1010B000BFE700230B93239B002B5ADC4FF0010961
:1010C000CDF820904B46CDF88C90686A00224260A3
:1010D000042202F114069E42416850D9284609F0C4
:1010E00053FA039000284ED1194B02464FF4D571A4
:1010F000CEE60123DEE700230B93239B0AEB0309D3
:1011000009F10103012B0893B8BF0123DDE7012397
:10111000F2E700BFAFF3008061436F63A787D23F60
:10112000B3C8608B288AC63FFB799F501344D33FD6
:10113000BAF40008D1F400080000F07FB6F400080B
:10114000ADF400088AF400080000F83F98E10008B8
:101150002BF500080124002322930B944FF0FF3954
:101160000022CDF8209012232392AEE701230B93A7
:10117000F4E7DDF88C90CDF820904B46A5E70131DF
:1011800041605200A5E76B6A039A1A60089B0E2B18
:1011900000F2A880002C00F0A580BAF1000F34DD29
:1011A0009A4A0AF00F0302EBC303D3E900341AF49E
:1011B000807FCDE910344FEA2A1416D0944BDDE934
:1011C0000C01D3E90823FFF721FBCDE9040104F06A
:1011D0000F0403278E4E54B9DDE91023DDE9040125
:1011E000FFF714FBCDE9040129E00227F2E7E1074C
:1011F00008D5DDE91001D6E90023FFF7DDF9CDE9D7
:101200001001013764100836E5E700F0A580CAF147
:1012100000047E4B7E4E04F00F0203EBC203D3E9C1
:101220000023DDE90C01FFF7C7F9CDE90401241122
:1012300000230227002C40F08480002BD2D10F9B8A
:10124000002B00F08B80DDE90434CDE91034DDE9BA
:101250001001704B0022FFF73BFC00287ED0089B5A
:10126000002B7BD0B9F1000F38DDDDE910016A4BAE
:101270000022FFF7A1F9CDE904010AF1FF38013797
:101280004C463846FFF72EF9DDE90423FFF794F9C1
:10129000624B0022FEF7DAFFA1F15076CDE9100192
:1012A0001196002C5DD1DDE904015D4B0022FEF7B3
:1012B000CBFF02460B46CDE90423109A3346FFF7D5
:1012C00025FC002840F09C82DDE90401109A06F11B
:1012D0000043FFF7FDFB002840F09082DDE90C346D
:1012E000CDE90434179B002BC0F25281BAF10E0FE6
:1012F00000F34E81454B03EBCA03D3E90034CDE93B
:101300000634239B002B80F2DB80089B002B00F32C
:10131000D78040F07282424B0022DDE90601FFF7E0
:101320004BF9DDE90423FFF7E7FB089C264600287C
:1013300040F04882039F312307F8013B0AF1010A7C
:1013400044E2E20705D5D6E90023FFF735F9013776
:101350000123641008366DE7022770E7089CD04629
:101360008FE70399294B214412910B9903EBC40396
:10137000DDE9106753E90223002955D029490020EF
:10138000FFF744FA3B463246FEF75EFFCDE9100117
:10139000039FDDE90401FFF7D9FB0446FFF7A2F83C
:1013A00002460B46DDE90401FEF74EFF30340246EB
:1013B0000B46CDE9042307F8014BDDE91023FFF7C5
:1013C00087FB002874D1DDE9042312490020FEF7D1
:1013D0003BFFDDE91023FFF77BFB002840F0B780DF
:1013E000129B9F423FF47AAFDDE910010A4B0022C5
:1013F000FFF7E2F8084BCDE910010022DDE9040116
:10140000FFF7DAF8CDE90401C3E700BF98E100086F
:1014100070E100080000F03F0000244000001C4084
:10142000000014400000E03F30463946FFF7C4F8A2
:10143000CDE91001129B039C1493DDE90401FFF731
:1014400085FB1590FFF74EF802460B46DDE90401D7
:10145000FEF7FAFE159B303304F8013B129B9C42C9
:1014600006460F464FF0000224D1A44BDDE91001DF
:10147000FEF7ECFE02460B4630463946FFF746FBC8
:10148000002863D1DDE910239C490020FEF7DCFE33
:1014900002460B4630463946FFF71AFB00283FF458
:1014A0001DAF149F7B1E149317F8013C302BF8D00E
:1014B000C2463BE0924BFFF77FF8CDE90401BCE761
:1014C000DDE90489039FDDE9062340464946FFF72D
:1014D0009DF9FFF73BFB0446FFF704F8DDE906231F
:1014E000FFF76AF804F1300602460B4640464946CB
:1014F000FEF7AAFE07F8016B039EDDF820C0BE1BB5
:10150000B44502460B4636D1FEF7A0FEDDE90623C0
:1015100080468946FFF7FAFA58BBDDE906234046C4
:101520004946FFF7CBFA08B1E10722D428465946CD
:1015300009F06AF800233B70249B0AF1010018604F
:10154000269B002B3FF4DDAC1F60DAE427463B46C8
:101550001F4613F8012D392A07D1039A9A42F7D171
:101560000399302208F101080A701A7801321A70C2
:101570009EE7D046EBE7624B0022FFF71DF8002202
:10158000002380468946FFF799FA00289BD0CDE7D3
:101590000B9A002A00F0D080229A012A00F3B28030
:1015A000139A002A00F0A68003F233430A9C069F98
:1015B000069A1A440692099A01211A442846099269
:1015C00009F08AF80646002F0CDD099B002B09DD87
:1015D000BB42069AA8BF3B46D21A0692099AFF1A46
:1015E000D31A09930A9BF3B10B9B002B00F0A88040
:1015F000002C10DD31462246284609F02BF95A46C8
:1016000001460646284609F07DF859468046284698
:1016100008F0FAFFC3460A9B1A1B04D05946284615
:1016200009F018F983460121284609F055F80E9B68
:10163000002B044640F386801A460146284609F0EE
:1016400009F9229B012B04467FDD4FF00008236936
:1016500004EB830318690CF047F9C0F12000099BE3
:10166000184410F01F0000F09280C0F12003042BFA
:1016700040F38A80C0F11C00069B03440693099B3B
:10168000034407440993069B002B05DD59461A467F
:10169000284609F039F98346099B002B05DD2146D0
:1016A0001A46284609F030F904460F9B002B70D0EB
:1016B000214658460CF065F900286ADA002359469D
:1016C0000A22284608F0C2FF0B9B0AF1FF3A834624
:1016D000002B00F09481314600230A22284608F0AE
:1016E000B5FFB9F1000F064600F39380229B022B51
:1016F00057DC8EE0169BC3F1360357E70000E03F4E
:1017000000002440089B5C1E0A9BA342BFBF0A9BAB
:101710000A94E21A0E9BB6BF9B181C1B0E93089BE3
:10172000B8BF0024002BB9BF069B089A069F089BF0
:10173000BCBF9F1A00233BE70A9C069F0B9E42E713
:101740000A9A6BE7229B012B19DC049BBBB9059B12
:10175000C3F313039BB9059B23F000431B0D1B052B
:1017600083B1069B01330693099B013309934FF024
:1017700001080E9B002B7FF46AAF01206FE74FF04A
:101780000008F6E79846F4E73FF47DAF18461C30B2
:1017900072E7089B002B36DC229B022B33DDDDF841
:1017A0002090B9F1000F0DD121464B460522284665
:1017B00008F04CFF0146044658460CF0E2F80028B9
:1017C0003FF7B8AD239B039F6FEA030A4FF0000871
:1017D0002146284608F018FF002E3FF4A7AEB8F1C6
:1017E000000F05D0B04503D04146284608F00CFF55
:1017F0003146284608F008FF98E600242646E1E72F
:10180000C246264696E50B9BDDF82090002B00F0A3
:10181000FD80002F05DD31463A46284609F074F870
:101820000646B8F1000F5CD07168284608F0ACFE9F
:10183000074628B9804B024640F2EA21FFF728BB51
:1018400032690232920006F10C010C300BF085FE79
:1018500001223946284609F057F8039B01330893C3
:10186000039B4B440A93049B03F00103B046099386
:101870000646089B2146013B584604930BF0ADFFFA
:10188000034630330690414658460B930CF079F8E6
:10189000324681462146284609F0A6F8C2680B9BCD
:1018A000074602BB014658460CF06BF80B9B0246FC
:1018B00039462846CDE90B3208F0A6FE229B0C9A49
:1018C000089F43EA0201099B0B430B9B0DD1392B67
:1018D00029D0B9F1000F01DD069B3133049A137052
:1018E00076E73046B9E70122E2E7B9F1000F06DBFF
:1018F000229941EA0909099959EA010120D1002AEE
:10190000ECDD594601222846089308F0FDFF2146E8
:1019100083460CF036F80028089B02DCDED1DA079B
:10192000DCD5392BD8D1049A392313703B461F4696
:10193000013B17F8012C392A50D001321A7047E7C1
:10194000002A03DD392BEED00133C7E7089A0A9944
:1019500002F8013C8A422AD0594600230A2228462E
:1019600008F074FEB04583464FF000034FF00A02C2
:101970004146284607D108F069FE80460646089B86
:101980000133089375E708F061FE31468046002375
:101990000A22284608F05AFE0646F0E7B9F1000F81
:1019A000039ACCBF4F46012717444FF00008594611
:1019B00001222846089308F0A7FF214683460BF032
:1019C000E0FF0028B2DC02D1089BDB07AED43B4627
:1019D0001F4613F8012D302AFAD0F9E6039A9A42ED
:1019E000A5D10AF1010A312379E7144BFFF7A7BA11
:1019F000269B002B7FF480AA114BFFF7A0BAB9F108
:101A0000000F03DC229B022B3FF7CBAE039F214646
:101A100058460BF0E2FE00F1300307F8013B039A51
:101A2000BA1A9145BADD594600230A22284608F021
:101A30000DFE8346EBE700BF2BF5000889F4000894
:101A4000ADF40008F0B583B007460E4615460024F5
:101A50008DF8074008E0DDB10DF10703022231786F
:101A6000384609F006FD0134052C6EDC052CFAD849
:101A700001A353F824F000BF571A0008A11A000868
:101A8000C31A0008E51A0008071B0008291B0008F4
:101A90000DF1070302223146384609F007FDE2E75F
:101AA0003DB10DF1070303227178384609F0E1FCDE
:101AB000D9E70DF107030322711C384609F0F6FC43
:101AC000D1E73DB10DF107030422B178384609F0A2
:101AD000D0FCC8E70DF107030422B11C384609F019
:101AE000E5FCC0E73DB10DF107030122F17838466E
:101AF00009F0BFFCB7E70DF107030122F11C3846DE
:101B000009F0D4FCAFE73DB10DF1070301223179B3
:101B1000384609F0AEFCA6E70DF107030122311D9E
:101B2000384609F0C3FC9EE73DB10DF107030822DA
:101B30007179384609F09DFC95E70DF107030822FD
:101B4000711D384609F0B2FC8DE703B0F0BD00BF4F
:101B500070B52B4C2B4BE41AE40804264FF000021E
:101B600066F302026FF3C50264F38F12264D294615
:101B7000264801F0D3FC4FF0000266F302026FF337
:101B8000C50264F38F122946214801F0C7FC4FF0CB
:101B9000FF324FF0FF331F4806F010FE00B3184B22
:101BA000184A9B1ADB084FF00002042161F302027D
:101BB0006FF3C50263F38F122946174801F0AEFC9C
:101BC000144806F0D3FD154B1B780A2B0DD0134A91
:101BD000137801331370124B18680BF014FB70BDAF
:101BE000104B186807F0D0F9D9E7002200230E49FE
:101BF0000E4806F033FC094B00221A70E7E700BFDD
:101C00007CE0000874E00008D0E4000860E200080E
:101C10007CE20008E8080020A0E20008600E002036
:101C200040E500083CE500080009002034040020DD
:101C300010B584B000220292ADF80C20264B274943
:101C400019601A710A225A7108221A8101229A71A6
:101C500005219972DA722248224B18600BF056F86F
:101C6000002836D00023002B31D11E4B1868836822
:101C70001B6819499847002829DB1B4C00221B4987
:101C800020460BF0BBFB0122114619480BF019F955
:101C900000238DF80930174A12788DF808200422A5
:101CA0008DF80A2001228DF80B208DF80D308DF86B
:101CB0000C300022002302A90F4806F0CFFB44F6A7
:101CC00020620023CDE90023204607F0E1FC04B0A8
:101CD00010BD6FF01203C6E7D0080020400ECF19E8
:101CE000ACDD0008DC080020B8040020511B00080F
:101CF000E808002094020020340400202DE98048E8
:101D000087B05C4B1B88ADF8143000238DF816307B
:101D10000393ADF810300293019382E00022002378
:101D200003A9554806F0F6FB9CE0544B186807F0F1
:101D30007DF84FF0FF304FF0FF3107F077FA70E099
:101D4000E300FF209840019A1040D840C0B206AB93
:101D50001D1905F8040C09F0C9FB05F8040C013441
:101D6000E4B2022CECD9464B464A9B1ADB0804220B
:101D700062F302086FF3C50863F38F1842463146D9
:101D8000414801F0CBFB4FF0FF324FF0FF333F48AB
:101D900006F014FD3E4BDB7A43B93D490123CB727B
:101DA0003C4B186883681B6898470290344C354B4D
:101DB000E41AE408042565F302096FF3C50964F326
:101DC0008F194A463146344801F0A8FB314B186858
:101DD00083685B68032205A99847029065F3020AAD
:101DE0006FF3C50A64F38F1A524631462B4801F04F
:101DF00095FB65F3020B6FF3C50B64F38F1B5A461B
:101E00003146274801F08AFB204806F0AFFC1B4B07
:101E100018680BF0F8F94FF0FF304FF0FF3107F082
:101E200005FA174B174A9B1ADB08042262F30207D4
:101E30006FF3C50763F38F171A4E3A4631461A48B7
:101E400001F06CFB0C4B5B6A002B7FF467AF174B08
:101E50005B6A002B3FF469AF0022002303A91348FB
:101E600006F058FB012203A901A8FFF7EBFD0024AF
:101E700077E700BF40E10008680400203CE5000867
:101E80007CE0000874E000087CE20008E80800201C
:101E9000D0080020DC080020D8E20008ECE20008AE
:101EA000A0E2000800E50008C4E2000834040020B5
:101EB00080B588B0FFF7BCFE002307930693484A1D
:101EC0001288ADF814208DF81630ADF812308DF868
:101ED000113041E000210A464FEA820C4CEA917C25
:101EE0008B005B1842EB0C02DB1852418168D1F881
:101EF0000C800DF1110103910DF11201029100937B
:101F00000192032205A9C0470790079B002B10DD13
:101F10004FF000084FF0000942464B4605A93148F2
:101F200006F09CFA42464B460DF112012E4806F08F
:101F300095FA2E4B2E4A9B1ADB08042262F3020606
:101F40006FF3C50663F38F1632463946294801F010
:101F5000E5FA294806F00AFC244B254A9B1ADB08BF
:101F6000042262F302046FF3C50463F38F14234F5A
:101F700022463946224801F0D1FA4FF0FF324FF0A5
:101F8000FF331D4806F01AFC1E4BDB7A3BB11D499E
:101F90000023CB721C4B186883681B6898471B484A
:101FA0000BF0E0F91A4BA3FB0030C00806900F4B72
:101FB0000F4A9B1ADB08042262F302056FF3C50582
:101FC00063F38F152A463946124801F0A7FA0E4BE3
:101FD0001868069B002B3FF47DAF069900227BE733
:101FE00040E1000800040020CC0300207CE0000851
:101FF00074E00008A0E20008E8080020F4E400080B
:102000007CE20008D0080020DC080020B804002092
:10201000CDCCCCCC00E300082DE9804899B0B84B7A
:102020001B88ADF85C3000238DF85E30ADF85A3077
:1020300015931393ADF8503006E218AB1E1916F83D
:10204000040C09F053FA06F8040CE3009840159BC1
:10205000184315900134E4B2022CEED9A94BAA4AD8
:102060009B1ADB08042262F302056FF3C50563F3D4
:102070008F15A64C2A462146A54801F04FFAA54ED9
:102080000022314615A8FFF7DDFC727802B3A24B9F
:102090001B789A421CD09B4E9B49761AF60804275F
:1020A00067F302096FF3C50966F38F19ADF8009065
:1020B00021469A4801F0CEF967F3020A6FF3C50A88
:1020C00066F38F1A52462146954801F027FABBE184
:1020D0008C4B8D4A9B1ADB08042262F302086FF3D3
:1020E000C50863F38F18424621468E4801F016FA60
:1020F000884BDB78002B00F0D980012B40F09081D9
:10210000804E814BF61AF6080427029B67F3020300
:102110006FF3C50366F38F131A46ADF808302146F6
:10212000814801F0FBF9039B67F302036FF3C503DA
:1021300066F38F131A46ADF80C3021467B4801F048
:10214000EDF9744B1A788DF84C209A788DF84E2062
:1021500000238DF851308DF850308DF84D308DF8CA
:102160004F30032A00F28E80DFE802F046027863E7
:10217000644B654A9B1ADB080422069962F302014C
:102180000A466FF3C50263F38F12ADF8182021469B
:10219000674801F0C3F901238DF84F305D4B1B7880
:1021A000042B14D0574B584A9B1ADB0804220E9973
:1021B00062F302010A466FF3C50263F38F12ADF8B2
:1021C000382021465B4801F0A9F95B4828E04D4BD7
:1021D0004D4A9B1ADB0804220F9962F302010A465A
:1021E0006FF3C50263F38F12ADF83C2021465348CC
:1021F00001F094F9504813E0424B434A9B1ADB0824
:102200000422079962F302010A466FF3C50263F3E1
:102210008F12ADF81C202146494801F07FF949484A
:10222000002800F00D810022002313A906F016F902
:1022300006E1344B344A9B1ADB080422089962F306
:1022400002010A466FF3C50263F38F12ADF8202036
:1022500021463D4801F062F93748E1E7294B2A4A17
:102260009B1ADB080422099962F302010A466FF304
:10227000C50263F38F12ADF824202146334801F0E4
:102280004DF9DDE01F4B204A9B1ADB080422109910
:1022900062F302010A466FF3C50263F38F12ADF8D1
:1022A000402021462A4801F039F9C9E0154E164B65
:1022B000F61AF6080427049B67F302036FF3C503BD
:1022C00066F38F131A46ADF810302146214801F00D
:1022D00025F9059B67F302036FF3C50366F38F13BC
:1022E0001A46ADF814302146104801F017F9094B91
:1022F0009B78032B00F28080DFE803F0422E6A56C1
:1023000040E100087CE0000874E00008E8E4000810
:1023100014E30008E0080020940200202CE30008E9
:1023200054E300086CE3000884E3000894E3000829
:10233000A8E30008ECE3000834040020C8E3000828
:1023400020E400086804002038E4000858E400088D
:1023500074E4000894E40008474B484A9B1ADB08E1
:1023600004220A9962F302010A466FF3C50263F37D
:102370008F12ADF828202146414801F0CFF85FE0E8
:102380003D4B3E4A9B1ADB0804220B9962F3020183
:102390000A466FF3C50263F38F12ADF82C20214675
:1023A000384801F0BBF84BE0334B344A9B1ADB084A
:1023B00004220C9962F302010A466FF3C50263F32B
:1023C0008F12ADF8302021462F4801F0A7F837E0F2
:1023D000294B2A4A9B1ADB0804220D9962F3020159
:1023E0000A466FF3C50263F38F12ADF8342021461D
:1023F000264801F093F823E01F4B204A9B1ADB0884
:102400000422119962F302010A466FF3C50263F3D5
:102410008F12ADF8442021461D4801F07FF80FE0EF
:10242000154B164A9B1ADB08042262F3020B6FF36A
:10243000C50B63F38F1B5A462146164801F06EF810
:102440000A20002106F0F2FE134A1369526A9B1A11
:102450000A2BF5D00026002732463B4617A90E4826
:1024600006F058F832463B460DF15A010B4806F08B
:1024700051F80024F0E500BF7CE0000874E000089B
:10248000A8E3000820E4000838E4000858E4000845
:1024900074E40008A4E4000800040020CC03002039
:1024A00008B50B6801330B60014B1B68984708BDEA
:1024B00000000020014B1860704700BF00000020A2
:1024C00000B583B002460B460021019101A90348E3
:1024D00000F02CFA03B05DF804FB00BFA124000853
:1024E00010B584B00446019002910021039101A926
:1024F000054800F01BFA039B029A934201DA00227E
:10250000E254039804B010BD13B500088446026875
:10251000002005E000EB8000013203EB4000303882
:1025200013780449595C11F0040FF3D1CCF8002062
:10253000704700BF79F3000870B582B004460023ED
:102540000360436083604B78252B02D04E1C01252D
:102550001FE0881CE37045E1237843F004032370F7
:10256000B5B1013614E0237843F008032370F7E790
:10257000237843F010032370F2E7237843F020031D
:102580002370EDE7237843F040032370E8E700254C
:1025900045B33378203B102BF9D801A252F823F031
:1025A000712500088F2500088F2500087B2500086D
:1025B0008F2500088F2500088F2500088F2500082B
:1025C0008F2500088F2500088F2500086725000843
:1025D0008F250008592500088F2500088F25000841
:1025E00085250008237803F04403442B5FD001962F
:1025F000237843F08003237033782A2B5CD001A822
:10260000FFF784FF019B9E420FD0237843F08003A5
:1026100023706060DBB2C3F34003002854DB002268
:102620001343227863F341022270019B01931B78CC
:102630002E2B14BF00230123627863F341026270E2
:10264000002B43D0019B5A1C01925B782A2B3FD070
:1026500001A8FFF75BFFA0602378C3F340030028C5
:102660003EDB00221343227863F34102227001987B
:1026700003784C3B2E2B00F29D80DFE803F0909B0B
:102680009B9B9B9B9B9B9B9B9B9B9B9B9B9B9B9B9A
:102690009B9B9B9B9B9B9B9B9B9B339B579B459B8C
:1026A0009B9B9B9B9B9B899B9B9B9B9B82002378DB
:1026B0006FF3861323709AE7637843F00103637026
:1026C000334601330193B1E70122A9E70198CFE72F
:1026D000637843F004036370104601300190C7E74C
:1026E0000122BFE7421C4378682B06D063780221A1
:1026F00061F3C603637010461EE06378012262F343
:10270000C6036370023017E0421C43786C2B06D07E
:102710006378032161F3C603637010460CE06378AD
:10272000042262F3C6036370023005E06378052279
:1027300062F3C6036370013010F8013BE370A3F14C
:102740004102372A7DD8DFE802F05E7C7C7C5E5E49
:102750005E7C7C7C7C7C7C7C7C7C7C7C7C7C7C7CD7
:102760007C4F7C7C7C7C7C7C7C7C5E7C4F3A5E5E9F
:102770005E7C3A7C7C7C7C654F717C7C717C4F7C80
:102780007C4F6378062262F3C60363700130D3E79F
:102790006378072262F3C60363700130CCE7637885
:1027A000082262F3C60363700130237843F002030A
:1027B0002370C1E763786FF3C6036370BCE7A27848
:1027C000012161F30202A270627802F07802402ACD
:1027D00010D0632B13D02378C3F34002154365F365
:1027E0004103237002B070BDA278022161F302029E
:1027F000A270E9E7217841F001012170E9E7151E97
:1028000018BF0125E7E7A378042262F30203A3704F
:102810000125E0E7A378032262F30203A370637843
:1028200003F07803402BD6D10125D4E7A378032207
:1028300062F30203A370637813F0780FCBD0012505
:10284000C9E7237843F001032370C4E72DE9F04F73
:1028500083B004460D4601929A460C9ED378324AC4
:1028600013F802B00BF0030B6F2B0FD006D9702BAF
:102870000FD0782B10D14FF0100923E0582B02D045
:102880004FF00A091EE04FF010091BE04FF0080955
:1028900018E04FF0100915E04FF00A0912E0D2B22B
:1028A0003032D2B206F8012D3A4643462046294638
:1028B000FEF794F8BC4275F1000319D3564517D9B9
:1028C00004460D464FF000084F464A464346204610
:1028D0002946FEF783F8092AE1D9BBF1010F03D09D
:1028E000D2B25732D2B2DDE7D2B23732D2B2D9E762
:1028F000019B1B7813F0200F05D0B9F1080F06D00B
:10290000B9F1100F09D0304603B0BDE8F08F019A3D
:10291000937843F008039370F5E7019A937843F0B6
:1029200010039370EFE700BF79F300082DE9F04F33
:1029300091B006460D4691460393002499F8000095
:10294000002800F0D582252808D009F10109294680
:10295000B0470028C0F2CD820134EFE70023049392
:1029600005930693079308930993494606A8FFF732
:10297000E3FD02909DF8193013F0010F00F09780ED
:10298000039B1A1D03921F68002FC0F288809DF8D8
:10299000193013F0040F00F09C80039B1A1D039262
:1029A000D3F800A0BAF1000FC0F28A800023079389
:1029B00008939DF81A3003F007039DF81910C1F32E
:1029C000C301012B00F08E80022B00F0D380042B7A
:1029D00000F02481032B00F03B819DF8188018F053
:1029E000030B40F03B819DF81B30253B532B00F23D
:1029F000E681DFE813F04001E401E401E401E401D1
:102A0000E401E401E401E401E401E401E401E4019E
:102A1000E401E401E401E401E401E401E401E4018E
:102A2000E401E401E401E401E401E401E401E4017E
:102A3000E401E401E401E401E401E401E401E4016E
:102A4000E401E401E401E401E401E401E401E4015E
:102A5000E401E401E401E401E401E4018101E401B1
:102A6000E401E401E401E401E401E401E401E4013E
:102A7000E4015E016701E401E401E401E4016701AE
:102A8000E401E401E401E401BE018101A201E401E9
:102A9000E4014D01E4018101E401E40181019DF8BB
:102AA000183043F004038DF818307F426FE79DF92A
:102AB0001830002B02DB4FF0FF3768E7079F66E70F
:102AC0009DF819306FF341038DF819304FF0FF3A3C
:102AD0006CE713F0020F02D0DDF820A066E74FF09C
:102AE000FF3A63E7CB1E042B04D8DFE803F00B1D8D
:102AF00029353500039B1A1D03921B68DA170493CE
:102B0000059206E0039B1A1D03921B68DA170493D3
:102B10000592012928D002297FF45FAFBDF910305A
:102B2000DA170493059258E7039B073323F0070352
:102B300003F108020392D3E90023CDE90423E8E777
:102B4000039B073323F0070303F108020392D3E941
:102B50000023CDE90423DCE7039B1A1D03921B68C5
:102B6000DA1704930592D4E79DF8103004930023FC
:102B7000059332E7CB1E042B04D8DFE803F00B1FCC
:102B800035414100039B1A1D03921B6804930023E7
:102B900005931EE09DF81B30632B07D0039B1A1D85
:102BA00003921B6804930023059312E0039B1A1DF4
:102BB00003921B680493002305930AE0039B0733E9
:102BC00023F0070303F108020392D3E90023CDE9C0
:102BD000042301291CD002297FF4FFAEBDF8103078
:102BE000049300230593F8E6039B073323F00703C0
:102BF00003F108020392D3E90023CDE90423E8E7B7
:102C0000039B1A1D03921B68049300230593E0E7BE
:102C10009DF81030049300230593DEE608290BD0BD
:102C2000039B073323F0070303F108020392D3E960
:102C30000023CDE90423D0E6039B073323F00703E9
:102C400003F108020392D3E90023CDE90423C4E68B
:102C5000039B1A1D03921B680493BEE6029F3B462A
:102C60004A462946304608F096FD0028C0F24181C8
:102C70000444B94662E629462520B0470028C0F240
:102C800038810134D8460DF13E0A4FF000099BE02F
:102C9000DDF81090BAF1000F07DB514648460AF004
:102CA00090FD09EB000AD8468EE04846FEF7D3F8BF
:102CB000F7E7049B8DF82830D8460DF1290A0DF16D
:102CC000280981E018F0080F05D118F0100804D089
:102CD0004FF0200801E04FF02B08049A059B002BD1
:102CE00002DB0492059308E0524263EB4303049233
:102CF00005934FF02D0800E0D8460DF13E030093F8
:102D00000AAB06AADDE90401FFF7A0FD8146BAF18E
:102D1000000FC0F288800DF13E03A3EB09039DF87C
:102D200018206FF386128DF818209A457ED9AAEBE9
:102D3000030307930DF13E0A46E0049828B9D846EC
:102D4000DFF8B4A1AAF105093EE00DF13E030093BE
:102D50000AAB06AA0021FFF779FD81469DF81A30DB
:102D600043F010038DF81A3078238DF81B30D846C5
:102D7000CDE7049A9DF81930C3F3C303072B06D897
:102D8000DFE803F0040B0D0F1115191B1460D84672
:102D90000DF13E0A4FF0000916E01470F7E71480B9
:102DA000F5E71460F3E7E31714605360EFE7E31708
:102DB00014605360EBE71460E9E71460E7E7D84676
:102DC0000DF13E0A4FF00009B9F1000F00F08D80BF
:102DD000AAEB0902B8F1000F00D001329DF81A10D9
:102DE00011F0100F25D00232079B134411F0400F51
:102DF00001D0089A1344002F31DDFF1A9DF81830D6
:102E000013F0040F2BD113F0400F17D0B8F1000FBF
:102E100017D029464046B04700286ADB0134D8461F
:102E20004FF0300B0FE00DF13E0ACDE70DF13E0AF9
:102E3000CAE711F0080FD7D00132D5E74FF0200BC9
:102E400001E04FF0300B3B465F1E002B07DD2946AB
:102E50005846B04700284CDB01343B46F4E7B8F154
:102E6000000F05D029464046B047002841DB013419
:102E70009DF81A30C3F30012C3F3C003134305D007
:102E800029463020B047002833DB01349DF81A3042
:102E900013F0100F06D029469DF81B00B0470028FC
:102EA00027DB0134079B03F1FF38002B07DD2946A0
:102EB0003020B04700281CDB01344346F3E753467B
:102EC0004A462946304608F066FC002811DB0444D7
:102ED000002F07DD29462020B047002809DB0134F8
:102EE000013FF5E7DDF8089028E5DDF8089025E5D5
:102EF000204611B0BDE8F08F49E500084FF0100200
:102F0000EFF3118382F31288BFF36F8F83F311887D
:102F1000BFF36F8F024B034A1A600020704700BF57
:102F2000B000002000093D00054B984204D3054B3A
:102F3000984203D30020704700207047012070475B
:102F400004DC0008F0F5000808B5064B186018B15D
:102F5000054B1B68092B00DC08BD044805F006FC86
:102F6000FAE700BF3C090020080900209C0400206B
:102F700008B5024805F0FAFB08BD00BF9C0400201C
:102F800008B5034808F032FC003818BF012008BD1E
:102F90001409002030B589B000220F490F480AF00B
:102FA0002DFA0F4D00220023CDE9062300240494BE
:102FB0000E2303930294019400940A4B4FF4407241
:102FC0000949284609F032FF0849284609F01AFF46
:102FD000204609B030BD00BF712F000870060020E8
:102FE000A806002045360008E01A002050E5000839
:102FF00030B5034600208446044601E084F0010415
:1030000013F8012BB2B18C4514D2252AF6D0002C2E
:10301000F6D0094D12F805E01EF0030FF0D0732A28
:1030200003D00CF1010C0024EAE7012202FA0CF2B1
:103030001043F6E730BD00BF79F3000808B5002360
:103040000B4A13700B4A13600B4B0C4A1A604FF477
:103050007A7000F07DFD00F05BFB094808F0B8FBDA
:10306000042328220749084809F07DFE08BD00BF57
:10307000620E00200C0900200400002005B80008A2
:1030800014090020C03B00201C090020184BBFF38E
:103090005B8F53E8002F511C43E800100028F8D143
:1030A000BFF35B8F1ABB70B5002409E0114B03EB33
:1030B00006135B6804221968284600F005FB0134FA
:1030C0000D4B0C4A9B1AB4EB231F0FDA2646094D11
:1030D00005EB04152B7B002BF1D02301054AD358B7
:1030E0009B69002BE2D028469847DFE770BD704708
:1030F00010090020BCE00008CCE0000810B54FF03B
:103100001003EFF3118483F31288BFF36F8F044829
:1031100008F06EFB84F31188BFF36F8F10BD00BF02
:103120001409002008B5054B1B781BB1034B012285
:103130001A7008BD024805F019FBF7E7610E002080
:103140009C040020064BBFF35B8F53E8002F013235
:1031500043E800210029F8D1BFF35B8F704700BF1F
:103160000C090020064B00200246BFF35B8F53E89A
:10317000000F43E800210029F9D1BFF35B8F7047AE
:103180000C09002038B5FFF7EDFF0546002400E0EC
:1031900001340B4B0B4A9B1AB4EB231F0FDA09487F
:1031A00000EB041043685B79002BF1D02301054A42
:1031B000D3581B69002BEBD029469847E8E738BD68
:1031C000CCE00008BCE00008034B18680028D4BF1E
:1031D00000200120704700BF0C09002070B582B0AC
:1031E0000446FFF7A1FE10BB0022002301A91148ED
:1031F00005F080F808B1104C19E0019B0122BFF3E3
:103200005B8F53E8001F43E800200028F9D1BFF38B
:103210005B8F019D2E1D1F22214630460AF0BEFA0B
:103220007E2385F82330002385F824303446204659
:1032300002B070BD1C09002058E5000838B1074AEB
:10324000904206D3A032904205D300207047002060
:103250007047002070470120704700BFC03B00202E
:10326000037A13F0010F00D070472DE9F04383B0CB
:10327000064608F064FB0746304608F04BFB014663
:103280003846FFF7B5FE054604E0012202FA04F4D1
:1032900025EA04056DB3B5FA85F4C4F11F0421468F
:1032A000304608F03AFB8146FFF73EFE0028ECD19D
:1032B0004846FFF7C3FF0028E7D10F4B9945E4D0FC
:1032C0007189C1F3891100F0EFF902460B4B0C49EB
:1032D0005B1ADB08012161F302086FF3C50863F391
:1032E0008F18ADF800803B462146064800F0B2F842
:1032F000CBE703B0BDE8F08358E5000874E00008B0
:1033000074E0000874E50008F8B5064619BB144BD4
:103310001B780BB1002403E0FFF7A2FFFAE70134AA
:10332000104B114A9B1AB4EB231F14DA0E4D05EB18
:1033300004156B685B79002BF1D03146284608F004
:103340005FFA0028EBD02701074BDB595B68314659
:1033500028469847E3E7304608F0F3FAF8BD00BF87
:10336000620E0020CCE00008BCE0000810B5044666
:10337000104B1B7803B9C8B1FFF7C0FE024678B105
:103380000D4BBFF35B8F53E8001F013943E800107A
:103390000028F8D1BFF35B8F21461046FFF7B4FF3A
:1033A00014B9FFF711FF10B9FFF7EAFD10BDFFF7E1
:1033B000E9FEF9E7610E00200809002010B582B08F
:1033C0001F4BBFF35B8F53E8002F013243E800210E
:1033D0000029F8D1BFF35B8F1A4B1B7863B91A4BE6
:1033E0001B681BB1164A1268012A15D0144A1268CC
:1033F0000A2A1CD002B010BD4FF01003EFF3118465
:1034000083F31288BFF36F8F0020FFF7AFFF84F3C1
:103410001188BFF36F8FEDE700220023CDE9002371
:1034200042F210720023094806F032F9E2E7002B5D
:10343000E0D0064809F0EEFF054805F097F9D9E716
:1034400008090020620E00203C09002070060020C0
:103450009C0400202DE9F04180460F4616461D468B
:1034600000F07AF9044618B1012343600023038178
:103470004CB1C4F81080607A032363F307106072C4
:103480006761A661E561C4B1BDF8183063810C4B7A
:103490001B689847E0604FF01003EFF3118583F34A
:1034A0001288BFF36F8F2146064808F095F985F31F
:1034B0001188BFF36F8FFFF781FFBDE8F08100BF78
:1034C000040000201409002070B505460E4600F0E7
:1034D00043F9044618B1012343600023038104B17A
:1034E0002561B4B166810B4B1B689847E0604FF0D3
:1034F0001003EFF3118583F31288BFF36F8F21461A
:10350000054808F069F985F31188BFF36F8FFFF75D
:1035100055FF70BD0400002014090020F8B50746CF
:103520000E46154600F018F9044618B10123436011
:103530000023038134B12761637A012262F3071308
:1035400063726661B4B165810B4B1B689847E0609C
:103550004FF01003EFF3118583F31288BFF36F8FE1
:103560002146064808F038F985F31188BFF36F8FBC
:10357000FFF724FFF8BD00BF04000020140900205D
:103580002DE9F04180460F4616461D4600F0E4F84E
:10359000044618B1012343600023038144B1C4F8F9
:1035A0001080607A022363F3071060726761A6617E
:1035B000B4B165810B4B1B689847E0604FF0100376
:1035C000EFF3118583F31288BFF36F8F214606480E
:1035D00008F002F985F31188BFF36F8FFFF7EEFE55
:1035E000BDE8F0810400002014090020124B1B7874
:1035F00003B1704710B5FFF749FD002400E0013426
:103600000E4B0F4A9B1AB4EB231F0CDA0C4800EB4D
:10361000041043685B79002BF1D02301084AD3588A
:103620005B699847EBE70020FFF7A0FE0028FAD17E
:10363000014B01221A7010BD620E0020CCE0000880
:10364000BCE0000808B5FFF721FD05F007FEFFF715
:103650007BFC0020FFF78AFE0028FAD14FF0FF32F2
:103660004FF0FF33014805F0A9F8F2E79C04002071
:1036700000B583B004380190BFF35B8F50E8003F82
:103680005A1E40E800210029F8D1BFF35B8F012BBF
:1036900002D003B05DF804FB01A9024809F072FBF7
:1036A000F7E700BF1C090020054B064A9B1AB1EB47
:1036B000D30F02D252F8310070470020704700BF8C
:1036C000BCE0000874E0000808B5074BC31A1B11E2
:1036D00001334268137143681960436801225A71CB
:1036E000FFF720FD08BD00BFBCE0000810B582B0A8
:1036F000019005E01C6801A9044809F043FB01940E
:10370000019B002BF6D102B010BD00BF4009002084
:1037100008B520231A460249024809F024FB08BDD7
:10372000603C00204009002010B582B000230193C6
:103730000120FFF71BFE0446FFF704FD00220023D3
:1037400001A9044804F0D6FD08B1002CF0D101987D
:1037500002B010BD4009002000B583B000230193E2
:1037600008F058F850B10022002301A9074804F0DE
:10377000C1FD30B9019803B05DF804FB00220023BD
:10378000F3E7FFF7D1FF0190F4E700BF4009002005
:10379000F0B583B00190044608F0BCF8237A13F02A
:1037A000010F01D1064650BB019B1A7A12F0020F9D
:1037B00028D101A9154809F0E5FA03B0F0BD019838
:1037C00008F0BDF83146FFF713FC074670B9EBE788
:1037D0000134B442E8D22146019808F09EF805462B
:1037E000FFF72CFD0028F3D0002FE8D027FA04F3D0
:1037F00013F0010FECD02846FFF73AFFE8E7002767
:103800003C46E6E75869FFF771FFD2E74009002020
:103810000EB400B582B0014603AB53F8042B0193FC
:103820000348FFF783F802B05DF804EB03B070477C
:10383000E1BC000830B585B011F0440F05D01A4B3B
:103840001C6834B9002005B030BD1849FFF7E0FF0F
:10385000F9E7174B1968B2FBF1F1B1FBF4FC154A1B
:10386000A2FB0C32D20A4FF4616E0EFB12CE124B49
:10387000A3FB0E535B0904FB1C114FF47A7C0CFB79
:1038800001F1B1FBF4F505FB14110CFB01F1B1FBE7
:10389000F4F102910195C3EB0311AEEB81010091AC
:1038A0000649FFF7B5FFCEE760090020B8E500083C
:1038B00064090020C5B3A29189888888C4E50008FE
:1038C00061B108B52AB1064A52F8232012B9054A57
:1038D00000E0044A0449FFF79BFF08BD704700BFA2
:1038E0003CE60008E0E50008E8E5000811F0100FEC
:1038F0000BD108B511F0200F03D00449FFF788FF62
:1039000008BD0349FFF784FFFAE7704764EB00083E
:10391000ECE500082DE9F04105460F4616469846AD
:103920000699FFF7E3FF0024444505DA24492846B9
:10393000FFF76EFF0134F7E7002409E0204928462D
:10394000FFF766FF0BE01F492846FFF761FF0134D0
:103950000F2C0CDC002C02DD14F0070FEED0B4426B
:10396000F1D23A5D18492846FFF752FFEFE71749B1
:103970002846FFF74DFF002409E011492846FFF7CC
:1039800047FF0BE012492846FFF742FF01340F2C96
:1039900013DC002C02DD14F0070FEED0B44207D286
:1039A0003A5D0C4BD35C13F0970FEBD12E22E9E775
:1039B00003492846FFF72CFFE8E7BDE8F08100BF88
:1039C00014E60008F8E50008F0E50008FCE500084A
:1039D00000E6000879F300082DE9F041804616461C
:1039E0001D46BDF9187059B90024002F1CDB86B1A3
:1039F0000123079A934013F0100F18D10D4E09E0E0
:103A00000D4B079A53F822200C49FFF701FF04469B
:103A1000EBE7084E39462846FFF746FE0246314698
:103A20004046FFF7F5FE04442046BDE8F081044E11
:103A3000F0E700BF04E6000878E6000810E600089A
:103A40000CE600082DE9F04389B007460E46914682
:103A5000984607F074FF02460F493046FFF7D8FE3C
:103A6000002409E0CDF800804B460DEB05013046FF
:103A7000FFF750FF039D2C4410250395234603AA0E
:103A80000DEB0501384607F06FFF039A002AE9D1D4
:103A900009B0BDE8F08300BFE8E50008F0B583B0E9
:103AA00006460C4600273D460DE0A268134413F875
:103AB000017C0A2F14BF00270127204608F003F9D4
:103AC000019B1D4473B1E36801932B4601AAA168D1
:103AD000304607F049FF6368019A1A60019B002B8A
:103AE000EBD0E2E70FB903B0F0BD02492046FFF783
:103AF0008FFEF8E718E6000870B582B00446056846
:103B000042F20F738B4228BF0B460E4A05216846CE
:103B100007F025FD064663685B680B220A492846C4
:103B200007F02AFF63685B6832466946284607F05B
:103B300023FF63685B681B220449284607F01CFFCB
:103B400002B070BD28ED00086CE6000850E60008E1
:103B5000074B01221A6004E04008054A13685B0025
:103B60001360044B9842F7D8034B1860704700BFAE
:103B70006409002040420F006009002070B506462D
:103B80000D46002406E0054B1868315D83685B68CC
:103B900098470134AC42F6D3284670BD7C0900201A
:103BA000014B024A1A6070477C09002064DD00085E
:103BB00008B5024808F087F808BD00BFBCE6000859
:103BC00008B50248FFF798FF08BD00BFBCE6000833
:103BD00010B50C46084607F090FE0F222146034818
:103BE00008F09AF8204607F0ACFE10BDBCE60008CD
:103BF00010B5044C02E054F8043B9847024B9C4239
:103C0000F9D310BD74E0000874E00008064B1B688F
:103C10004BB110B55C1E044A52F823309847234636
:103C2000002CF7D110BD70476CE00008AF281DD8FC
:103C3000F8B504460F46154603090E4A52F82360AC
:103C40008EB1304609F062F850B100235BB92B46C3
:103C50003A4604F00F01304608F0A3FA0020F8BD00
:103C60006FF01203F2E76FF01200F8E76FF0150043
:103C7000704700BFCCE60008014910220A60704777
:103C800010ED00E072B6404080F31188BFF36F8FF3
:103C9000BFF34F8F30BF62B6BFF36F8F704700BF67
:103CA00070B582B004461F4D1F4BED1AED0801267A
:103CB0004FF0000366F302036FF3C50365F38F1340
:103CC000ADF800308368426801681848FFF7C2FB0E
:103CD0004FF0000366F302036FF3C50365F38F1320
:103CE000ADF8003063692269E1681148FFF7B2FB63
:103CF0004FF0000266F302026FF3C50265F38F1204
:103D0000E1690C48FFF70AFC4FF0000266F302027B
:103D10006FF3C50265F38F12A1690748FFF7FEFB39
:103D200002B070BD8CE0000874E00008F8E60008FE
:103D300028E7000858E7000868E7000840B20028B4
:103D400007DB00F01F02400901239340014A42F8BB
:103D50002030704700E100E0013140B2002808DB6C
:103D60000901C9B200F1604000F5614080F800131C
:103D7000704700F00F000901C9B2014B1954704798
:103D800014ED00E030BFFFF7FDBF00BF08B50F4BDB
:103D90000F4A22F07F029A60BFF34F8FBFF36F8FFD
:103DA000D3F8882022F47002C3F88820EFF314833C
:103DB00023F0040383F31488BFF36F8F04F03AFAFF
:103DC00005F09EFA00F09EFC04F040FA00ED00E0E1
:103DD00000000008094A9368986709490968D9678B
:103DE00008494B6843F080534B60002383F31188EC
:103DF000BFF36F8F9368D86F704700BF040E002029
:103E0000E0F1000800ED00E012498A684FF0300050
:103E10001044EFF3098C80E8F01F102080F3128823
:103E2000BFF36F8F0C4F4FF000668A698A603E6067
:103E3000906F0023936780F3118804B5104600F05B
:103E4000B5FCBDE8044002F1300090E8F01F8CF3AF
:103E500009887047040E002004ED00E01EF0040FF6
:103E60000CBFEFF30880EFF30980816911F8021CA1
:103E70000229FFD001B507F0CCFF01BD10B4A2F1BB
:103E800020040D4942F8081C21F0010142F8081CE9
:103E900042F8203C019B42F81C3C029B42F8183C33
:103EA000039B42F8143C4FF0807342F8043C0465D5
:103EB0000023836710BC70477BB50008114B9A68DC
:103EC000EAB110F1160F10D0936EA3F1200C8445C7
:103ED00005D8834205D98B4205D800210AE000218C
:103EE00008E0002106E0012104E0936E8B4294BFBC
:103EF0000021012109B900207047906E7047002011
:103F0000704700BF040E002008B50D461446084B4C
:103F1000986000F04BFC204685F30988002163B6C9
:103F200081F31188BFF36F8F0022002307F025FB78
:103F3000040E002001B5EFF30580A0F110004FEA58
:103F4000C0000449014409C99847BDE8014002493D
:103F500008470000C4DD00085D3F0008044B996875
:103F60009869884203D003494FF080520A60704735
:103F7000040E002004ED00E008B54E4B4E4A9B1A9B
:103F8000DB084FF00001012262F302016FF3C5016B
:103F900063F38F114948FFF797FA494B9B6A13F077
:103FA000007F21D1464B9B6A13F0807F2DD1444B7B
:103FB0009B6A13F4002F39D1414B9B6A13F4802F75
:103FC00045D13F4B9B6A13F4003F51D13C4B9B6A58
:103FD00013F4803F5DD13A4A936A6FEA03436FEA74
:103FE00013439362002008BD324B334A9B1ADB080F
:103FF0004FF00001012262F302016FF3C50163F388
:104000008F113048FFF760FACCE72A4B2A4A9B1AF7
:10401000DB084FF00001012262F302016FF3C501DA
:1040200063F38F112848FFF74FFAC0E7214B224A6C
:104030009B1ADB084FF00001012262F302016FF3CB
:10404000C50163F38F112148FFF73EFAB4E7194B1E
:10405000194A9B1ADB084FF00001012262F30201AA
:104060006FF3C50163F38F111948FFF72DFAA8E725
:10407000104B114A9B1ADB084FF00001012262F33A
:1040800002016FF3C50163F38F111248FFF71CFAA9
:104090009CE7084B084A9B1ADB084FF000010122FD
:1040A00062F302016FF3C50163F38F110A48FFF752
:1040B0000BFA90E78CE0000874E0000898E700082D
:1040C00000ED00E0B0E70008C4E70008E0E7000802
:1040D00000E8000828E8000844E8000808B50022C5
:1040E0000A70084B08495B1ADB084FF000010120F9
:1040F00060F3020162F3C50163F38F110348FFF718
:10410000E3F908BD8CE0000874E0000870E80008DE
:1041100070B505460E4614465E4B5F4A9B1ADB0897
:104120004FF00001012262F302016FF3C50163F356
:104130008F115A48FFF7C8F9594B9B6A13F4805FF7
:1041400024D1574B9B6A13F4006F30D1544B9B6AB8
:1041500013F4007F3CD1524B9B6A13F4806F65D1FE
:104160004F4B9B6A13F4807F71D14D4B9B6A13F4C4
:10417000005F7DD14A4A936A43F47F4393620121F1
:10418000284607F058FE2070002070BD414B424A7F
:104190009B1ADB084FF00001012262F302016FF36A
:1041A000C50163F38F113F48FFF78EF9C9E7394B1B
:1041B000394A9B1ADB084FF00001012262F3020129
:1041C0006FF3C50163F38F113748FFF77DF9BDE742
:1041D000304B314A9B1ADB084FF00001012262F399
:1041E00002016FF3C50163F38F113048FFF76CF9DB
:1041F0002B4B996B9B6A13F4004FACD0254B264A8E
:104200009B1ADB084FF00002012060F302026FF3FB
:10421000C50263F38F122648FFF780F9002E9AD06B
:104220001F4A936A23F40043936294E7194B1A4A96
:104230009B1ADB084FF00001012262F302016FF3C9
:10424000C50163F38F111B48FFF73EF988E7114B57
:10425000114A9B1ADB084FF00001012262F30201B0
:104260006FF3C50163F38F111348FFF72DF981E751
:10427000084B094A9B1ADB084FF00001012262F348
:1042800002016FF3C50163F38F110C48FFF71CF9AE
:1042900070E700BF8CE0000874E0000894E80008B4
:1042A00000ED00E0ACE80008C0E80008D4E8000831
:1042B000F0E8000808E9000824E900083CE90008E3
:1042C000F8B505460C461646644B654A9B1ADB0852
:1042D0004FF00001012262F302016FF3C50163F3A5
:1042E0008F116048FFF7F0F85F4B9B6A13F0100FD7
:1042F00032D15D4B9B6A13F0080F3ED15A4B9B6A3B
:1043000013F0020F4AD16FF01507574B9B6A13F059
:10431000010F75D1544B9B6A13F0200F40F0818040
:10432000514B9B6A13F0100F04D14F4B9C6A14F051
:10433000020405D04C4B5C6814F4006440F08280A9
:10434000494A936A43F0FF0393620121284607F02C
:1043500072FD30702046F8BD404B414A9B1ADB0885
:104360004FF00001012262F302016FF3C50163F314
:104370008F113E48FFF7A8F8BBE7384B384A9B1A25
:10438000DB084FF00001012262F302016FF3C50167
:1043900063F38F113648FFF797F8AFE72F4B304A9A
:1043A0009B1ADB084FF00001012262F302016FF358
:1043B000C50163F38F112F48FFF786F82A4B5F6B17
:1043C0009B6A13F0800F02D16FF015079DE7234B16
:1043D000234A9B1ADB084FF00002012161F302021D
:1043E0006FF3C50263F38F1239462348FFF796F83F
:1043F000002C8AD01C4A936A23F08003936284E7DE
:10440000164B174A9B1ADB084FF00001012262F39A
:1044100002016FF3C50163F38F111848FFF754F8D9
:1044200078E70E4B0E4A9B1ADB084FF00001012281
:1044300062F302016FF3C50163F38F111048FFF7B8
:1044400043F86DE729463846FFF738FD0446002853
:104450003FF476AF80F30988022471E78CE000080E
:1044600074E000086CE9000800ED00E084E9000851
:10447000C0E80008B8E90008D0E90008E8E9000849
:104480003CE9000870B505460C46464B464A9B1A67
:10449000DB084FF00001012262F302016FF3C50156
:1044A00063F38F114148FFF70FF800232370404B4F
:1044B000DE6A16F0020609D13D4BDB6A002B17DBE2
:1044C0003B4BD86A10F0804024D170BD354B364A42
:1044D0009B1ADB084FF00001012262F302016FF327
:1044E000C50163F38F113348FEF7EEFF0020ECE7C0
:1044F0002C4B2D4A9B1ADB084FF00001012262F37E
:1045000002016FF3C50163F38F112B48FEF7DCFF47
:104510003046DAE7234B244A9B1ADB084FF00001B0
:10452000012262F302016FF3C50163F38F11234887
:10453000FEF7CAFFAB6933F8022C4DF602739A42BC
:104540000DD01B4B93F82830E3B9194B93F8293061
:10455000F3B9174B5B8D9BB203BB3046B5E7114BEC
:10456000114A9B1ADB084FF00002012161F302029D
:104570006FF3C50263F38F1229681148FEF7CEFF6F
:104580002868A2E7224601212846FFF799FE9CE70A
:10459000224601212846FFF7BBFD96E72846FFF794
:1045A000EBFC92E78CE0000874E0000808EA0008E1
:1045B00000ED00E020EA000844EA000854EA0008A0
:1045C00074EA000808B50A460B480C4BC01AC0082C
:1045D0004FF00003012161F302036FF3C50360F3A1
:1045E0008F130F2A05DC0649103A0648FEF7C8FF6C
:1045F00008BD0549F8E700BF8CE0000874E000083A
:1046000090EA0008C4EA0008A8EA000870B58AB079
:104610002F4B5D68C5F30805002383F31188BFF3B2
:104620006F8F02F07F43B3F17F4F2AD102F00C036A
:10463000082B10D012F0080F20D00C4600260DF1E8
:1046400027022946204607F0F8FB05469DF827304B
:10465000D3B10AB070BD1F4B1F4A9B1ADB084FF045
:104660000001012262F302016FF3C50163F38F11B0
:104670001A48FEF729FF00263446E0E704460126E3
:10468000DDE700263446DAE70DF1040C20686168A6
:10469000A268E368ACE80F0020696169A269E36978
:1046A000ACE80F0046B1C3F308025AB96FEA5323CE
:1046B0006FEA4323089305E0089B23F4FF7323F07C
:1046C0000103089301A9284607F097FBC1E700BF43
:1046D00000ED00E08CE0000874E00008D8EA000873
:1046E000024A536943F010035361704700ED00E044
:1046F000EFF30880EFF3098101B57246FFF786FFFB
:1047000001BD00BF002206E002F00F01094B0B447F
:10471000102119760132542A0ADC53B2002BF3DB44
:1047200003F1604303F56143102183F80013F1E7BF
:10473000704700BFFCEC00E0102080F311880848AF
:104740004FF40261401880F30988EFF314800221CE
:10475000084380F31488BFF36F8FFFF717FB000047
:10476000802F002008B5084B9B68834202D004F0DC
:104770008BFD08BDEFF30583002BF8D0034A536887
:1047800043F080535360F2E7040E002000ED00E098
:1047900008B5034B034A0121034807F0A3FB08BDFA
:1047A000008002200000002008EB000808B5836E9E
:1047B000203B0548036020234360044B83600121B4
:1047C00007F094FB08BD00BF8009002000000B1516
:1047D000084AC2F898000B6823F01F03034343F014
:1047E0001003C2F89C308B6843F00103C2F8A0307C
:1047F000704700BF00ED00E010B50446072803D85D
:10480000FFF7E6FF204610BD094B0A4A9B1ADB085A
:104810004FF00002012161F302026FF3C50263F35E
:104820008F1201460448FEF779FE6FF01500EAE7A3
:1048300084E0000874E0000814EB00082DE9F0475C
:1048400080460F469A461646002409E02946F0B2F3
:1048500007F029FB064610F1160F25D0013601346A
:10486000BC4221DA04EB440508EB85056A68002A9E
:10487000F5D0BAF1000FE9D0284607F003FB002875
:10488000E4D10B4B0B4A9B1ADB084FF000020121CD
:1048900061F302026FF3C50263F38F1221460648EB
:1048A000FEF73CFE6FF015063046BDE8F08700BF0E
:1048B00084E0000874E000083CEB000810B5034CED
:1048C00001232278FFF7BAFF207010BD640E00208C
:1048D00008B50023094A1278FFF7B0FF10F1160F50
:1048E0000AD0034606E0064AC2F898300021C2F812
:1048F000A0100133072BF6DD08BD00BF640E0020B9
:1049000000ED00E0044B0522C3F89420BFF34F8F65
:10491000BFF36F8F704700BF00ED00E0BFF35F8F04
:10492000024B0022C3F89420704700BF00ED00E066
:1049300038B50E4B1D68082D15D8FFF7EFFF002482
:1049400009E00A4B596804EB4402930019442046DD
:10495000FFF73EFF0134A542F3D8054B1D70FFF76A
:10496000D1FF002038BD4FF0FF30FBE778EB0008A7
:10497000640E0020014B1860704700BF0C0000203F
:1049800070B506460D46002400E00134AC4208DA5A
:10499000054B1B68984730550A2801D00D28F4D1E3
:1049A0000134204670BD00BF08000020F8B5054660
:1049B0000F46002404E0094B1B6830789847013407
:1049C000BC4208DA2E192B5D0A2BF4D1034B1B686D
:1049D0000D209847EFE73846F8BD00BF0C000020D7
:1049E00008B505220249012007F091FAFEE700BF51
:1049F00060EB00080246084B1968084BC8180A44C7
:104A0000C3F1005303F520339A4202D2024B1A60DD
:104A100070474FF0FF3070478C0900200A4100209A
:104A200070B504460D46166902E001220CE001341F
:104A3000AC4217DA1F2CFADC0123A3400A4A526960
:104A400033EA0202F1D00022002AF0D0064A536174
:104A500056F83430002BEAD006EBC40251682046E9
:104A60009847E4E770BD00BF0004014008B501238A
:104A70008340044A11680B431360034B1856FFF739
:104A80005DF908BD00040140B8EB00081F2806DCF2
:104A900001238340024A106820EA03001060704737
:104AA00000040140032932D8DFE801F0020F1B2780
:104AB000012303FA00F0164B9A6822EA00029A607A
:104AC000DA6822EA0000D8607047012303FA00F098
:104AD0000F4B9A6802439A60DA6822EA0000D860B5
:104AE0007047012303FA00F0094BDA680243DA60E9
:104AF0009A6822EA000098607047012303FA00F0E8
:104B0000034B9A6802439A60DA681043D860704792
:104B100000040140074B53F830303BB9054B43F8D4
:104B2000301003EBC0004260002070476FF00F00B0
:104B3000704700BF90090020034B002243F830204B
:104B400003EBC0035A6070479009002086B00B68E1
:104B5000062B48D8DFE803F00410263C31471B0041
:104B60004B68224A916C19439164926C13400093F4
:104B7000009B002006B070474B681C4AD16C19435B
:104B8000D164D26C13400193019B0020F2E74B6883
:104B9000164A116D19431165126D13400293029B61
:104BA0000020E7E74B68114A916D19439165926DBA
:104BB00013400393039B0020DCE74B680B4AD16D45
:104BC0001943D165D26D13400493049B0020D1E7B3
:104BD0004B68064A116E19431166126E1340059315
:104BE000059B0020C6E76FF08500C3E70010024078
:104BF0000B68062B3AD8DFE803F0040C2131293981
:104C0000140049681B4A936C23EA01039364002053
:104C100070474968174AD36C23EA0103D364002024
:104C2000704782B04B68134A116D19431165126DBC
:104C300013400193019B002002B0704749680D4A60
:104C4000936D23EA01039365002070474968094A80
:104C5000D36D23EA0103D365002070474968054AF4
:104C6000136E23EA01031366002070476FF085007E
:104C7000704700BF0010024070B50C4615460D4B42
:104C80001E680121304607F0D0F92368062B0ED8A4
:104C9000DFE803F00404070A070D04002E6000207B
:104CA00070BD28600020FBE728600020F8E76FF067
:104CB0008500F5E7B0000020104B1B6813F4806FEF
:104CC00009D10E4A136843F4807313600B4B1B68C1
:104CD00013F4806FFAD0094A936823F0030343F07A
:104CE00001039360936823F0F00318439060034B33
:104CF0009B6803F00C03042BF9D1704700100240AD
:104D000010B586B003A807F08BF900F023F86846C9
:104D100007F08EF90020FFF7CFFF0D4C236823F03A
:104D200080732360E36823F4C00343F48003E360EB
:104D300003A9684603F08CF8236823F480332360CA
:104D4000236823F001032360002006B010BD00BFDC
:104D50000010024082B0064B9A6D42F080529A6574
:104D60009B6D03F080530193019B02B0704700BF1D
:104D70000010024010B504460A2807D0074B1868F7
:104D8000E1B283685B689847204610BD034B186802
:104D900083685B680D219847F0E700BF100A002088
:104DA00010B5044C2046FFF7E5FD2046FDF782FBD9
:104DB00010BD00BF754D000808B50948094B1860C3
:104DC00007F0A4FF28B1002333B9FFF7E9FF002063
:104DD00008BD6FF01203F7E76FF01200F8E700BFAD
:104DE00064DD0008100A00204A4201F0030302F0CB
:104DF000030258BF534204339A000F2393400A46DC
:104E0000002919DB43EAA2035FFA83FC0CF10201DB
:104E10000B4A52F821101A0C21EA134392FAA2F21B
:104E200062B1B2FA82F200FA02F21A430CF1020CF9
:104E3000034B43F82C207047CA1CE3E72022F2E71B
:104E400000000140424200F0030302F0030258BF99
:104E5000534204339A000F2393400246002810DB8C
:104E600043EAA200C3B20233084A52F82320030CDB
:104E700002EA104093FAA3F32BB1B3FA83F3D840BC
:104E80007047C21CECE72023F9E700BF0000014097
:104E900070B582B006460D460D4B93E8030002AB99
:104EA00003E903000B4807F031FF48B10948836864
:104EB0001B686946984704462CB1204602B070BD75
:104EC0006FF01204F8E729463046FFF78DFFF4E74C
:104ED00044E10008A4DC0008F8B50C461146476818
:104EE0000269B1F5005F1FD01D46B1F5804F34D087
:104EF0001D492046FFF70EFE064688BB2146B868CE
:104F0000FFF7C6FFB5F5802F23D0B5F5C02F22D00F
:104F1000B5F5003F1BD031462046FFF7C3FD2046C4
:104F2000FFF7A4FD3046F8BD2046FFF78BFFBB68B6
:104F3000984201D00026F5E72046FFF7A7FD20465E
:104F4000FFF7FAFD00212046FFF7ACFDF2E7022152
:104F5000E2E70121E0E70321DEE76FF08506E1E704
:104F60006FF00F06DEE700BF41C0000810B54468CF
:104F700069B10C340D4807F0C9FE28B10B488368AD
:104F80001B682146984710BD6FF01200FBE70C34F8
:104F9000064807F0BBFE28B1044883685B682146D9
:104FA0009847F0E76FF01200EDE700BFA4DC0008BF
:104FB0002DE9F0418CB00D46D0F80480066904ACB0
:104FC000954F0FCF0FC497E80F0084E80F00D8F873
:104FD00008403368AB4200F01981AB88C3F3451336
:104FE000082B02D0102B40F013818C4807F08EFE66
:104FF00098B18A4B9B68DB6893B103AA4146874806
:10500000984700280FDB0123082B1FDC039ADA40A6
:10501000296891421AD20133F6E76FF01200F0E7E7
:105020006FF05700EDE77E4B7E4A9B1ADB084FF08E
:105030000001012262F302016FF3C50163F38F11D6
:105040007948FEF741FA6FF00400DCE0082B75DCCC
:10505000226822F040022260013B0CAA02EB83038B
:1050600053F8203C226822F0380213432360AB88B7
:1050700013F0020F7BD0236843F002032360AB8858
:1050800013F0040F78D0236843F0010323602368F2
:1050900023F444432360AB8813F0100F71D02368CE
:1050A00043F080032360236823F400532360AB683C
:1050B000002B6BD0236843F400732360636823F0F4
:1050C00004036360AB8813F0010F77D0236823F4E7
:1050D00082732360AB88C3F34513082B73D06368D6
:1050E00043F470636360636843F480536360636890
:1050F00023F0100363603560AB68002B72D0186832
:1051000000286FD0197A5B7A43F4B053856804693C
:1051100013F4406F04D013F0010F01D083F4406307
:1051200023F4805213F0010F54D0012303FA01F647
:105130002368334323602B68984763E0384B394A30
:105140009B1ADB084FF00001012262F302016FF3AA
:10515000C50163F38F11039AADF80010130A5208CA
:1051600029683248FEF776F96FF015004BE02368A6
:1051700023F00203236082E7236823F00103236006
:1051800085E7236823F0800323608CE7AB8813F066
:10519000010F08D0236823F400732360636823F0B1
:1051A000040363608EE7236823F4007343F48023D1
:1051B0002360636843F00403636083E7236843F478
:1051C0008273236086E7636823F4706343F4E063CB
:1051D000636088E7012303FA01F6236823EA0603E4
:1051E0002360A8E70E4B0F4A9B1ADB084FF0000123
:1051F000032262F302016FF3C50163F38F110C48C0
:10520000FEF762F900200CB0BDE8F0810020FAE75B
:105210006FF08500F7E700BF4CE10008A4DC000850
:105220009CE0000874E00008A4EC0008C8EC00084A
:10523000F8EC0008826812F4B87201D100207047BF
:1052400010B582B004460F490F4BC91AC9084FF078
:105250000003012060F302036FF3C50361F38F13B2
:105260000A490B48FEF78CF9A36813F0400F05D0EC
:10527000E3680193019BA3680193019B6FF0040015
:1052800002B010BD9CE0000874E00008A8ED000822
:1052900020ED00082DE9F84305460E469846436880
:1052A00004699F689146FAB1B38813F4804F04D023
:1052B000236913B963689E4208D004F108004FF0D7
:1052C000FF324FF0FF3303F079FA6660314628462B
:1052D000FFF76EFE064660B123689B8813F4804F8B
:1052E0007BD03046BDE8F883B8F1000FDCD1002652
:1052F000F7E7B9F1000F1ED0D9F80030E363D9F811
:10530000042022641A68E2645B682365B8F1000F28
:1053100017D0D8F800306364D8F80420A2641A6863
:1053200062655B68A3650023A363BB6813F0010F8C
:105330000DD0FB68F9E70023E3632364E36423658E
:10534000E4E700236364A3646365A365EBE73B685C
:1053500043F040033B600121284607F073F97B6866
:1053600043F020037B60B8F1000F03D07B6843F06B
:1053700040037B607B6843F080037B60A26D236DFC
:105380009A4238BF1A464FF4FA5303FB02F2204602
:1053900050F8203B1B68B2FBF3F2C832910F930028
:1053A0009A1841F1000392185B4103F007FA08B91B
:1053B000A66B91E70C4B0D4A9B1ADB084FF00001DE
:1053C000012262F302016FF3C50163F38F110848F4
:1053D000FEF77AF86FF073067EE70023636004F14E
:1053E000080003F0C3F97CE79CE0000874E00008C3
:1053F0002CED00082DE9F04104460769D0F804803F
:10540000394807F083FC002835D0374883681B688B
:10541000414698470546002D30D1D8F80820D8F8E5
:105420001010D8F80C0006F0BDFC061E39DBD8F8C9
:105430001430204698473B68C3B19B68B3B11A68E3
:10544000A2B1586804F0CEF83B689B681868197AD6
:1054500003691A6801238B401A4235D12B46ABB33E
:10546000012303FA01F18368DB6898473B69A3B322
:105470002846BDE8F0816FF01205CCE71B4B1C4AB3
:105480009B1ADB084FF00001012262F302016FF367
:10549000C50163F38F111748FEF716F86FF0040586
:1054A000E6E7124B124A9B1ADB084FF0000201217B
:1054B00061F302026FF3C50263F38F1231460E48A7
:1054C000FEF72CF83546D3E70123C8E7012303FA9A
:1054D00001F183681B699847C8E77B6007F1080002
:1054E00003F044F9C4E700BFA4DC00089CE0000816
:1054F00074E0000854ED000870ED000808B502489B
:1055000003F0A6FA08BD00BF8000002008B507F030
:1055100071FF0A220023FBF761FA024B1B68C01AD5
:1055200008BD00BF740A002008B5024807F072FFEA
:1055300008BD00BF5803002000B583B0830F820070
:10554000121843F1000392185B4100200021CDE9BD
:105550000001034804F09CF803B05DF804FB00BFB1
:105560005803002008B507F045FF0A220023FBF787
:1055700035FA014B186008BD740A0020014B186809
:10558000704700BF740A002070B5044600F134056E
:105590000223BFF35B8F55E8002F012A03D145E8B2
:1055A00000310029F7D1BFF35B8F0CBF0126002625
:1055B0000ED1084BDB6A984700232360BFF35B8F53
:1055C00055E8002F45E800310029F9D1BFF35B8F82
:1055D000304670BDA4EF0008F8B517461D461D4CB7
:1055E00054F8346B0223BFF35B8F54E8002F012A79
:1055F00004D144E8003CBCF1000FF6D1BFF35B8F4F
:1056000027D1144BDB6B1A788A4200D91970114CE0
:10561000E36B1A780146A06B07F09FFF236C03B180
:105620001F800C4B5B6C03B11D700B4BDB6A984702
:105630000021084B43F8341BBFF35B8F53E8002F66
:1056400043E800100028F9D1BFF35B8F304604F027
:105650001BFBF8BD780A0020A4EF000810B5054830
:105660000468FFF791FF20B11CB10021204604F02F
:105670000BFB10BD780A0020F0B583B004460F463E
:1056800016461D46084602F04BFC2060F8B18368C0
:10569000046915F4805F07D015F4406F04D015F04D
:1056A000010F01D085F4406525F4805215F0010FFB
:1056B00021D0012101FA06F52168294321601B68E8
:1056C000314698470446F0B9204603B0F0BD194B67
:1056D000194A9B1ADB084FF00002012161F3020214
:1056E0006FF3C50263F38F1239461448FDF716FFB6
:1056F0006FF00404E8E7012101FA06F5216821EAC8
:1057000005012160DBE70B4B0B4A9B1ADB084FF0CE
:105710000002012161F302026FF3C50263F38F12ED
:10572000ADF800200346324639460548FDF792FEA3
:10573000CAE700BFACE0000874E00008F4ED000820
:1057400014EE000870B50D460F490120BFF35B8FC2
:1057500051E8004F002C03D141E80006002EF7D19C
:10576000BFF35B8F0CD134390B60084E736DD4B22C
:1057700021469847B36A214628469847002070BDC5
:105780006FF00F00FBE700BFAC0A0020A4EF000899
:1057900070B58EB014460AAA0A920B9200230C939D
:1057A0000D93059306930793089309939DF8213071
:1057B000012565F304038DF821300992284B9B6A7B
:1057C000002B49D013462246FFF7BCFF002822DBFE
:1057D000244B5E6A22490395E4B2029400230193AC
:1057E0000B8E009391F82E3091F82D2091F82C100B
:1057F0002846B04700FA05F1C0F34173C2005218C1
:1058000043F1000392185B41294605A804F090F982
:10581000002802DB00200EB070BD134B134A9B1A08
:10582000DB084FF0000165F302016FF3C50163F37C
:105830008F110F48FDF748FE0948FFF7A5FE08B194
:105840000020E8E74FF0FF324FF0FF33294605A86C
:1058500004F06EF90020DEE76FF01500DBE700BF13
:10586000780A0020A4EF0008ACE0000874E000080B
:1058700034EE000810B58CB08DF8072008AA089205
:10588000099200230A930B930393049305930693C1
:1058900007939DF81930012060F304038DF8193047
:1058A0000792284BBFF35B8F53E8002F002A03D1E8
:1058B00043E80004002CF7D1BFF35B8F3ED1343BAB
:1058C00008AA1A6099630DF10702DA63109A1A6444
:1058D000119A5A641C4C636DFF219847636B00203A
:1058E0009847DDE90E23012103A804F021F9041EE5
:1058F00004DB9DF8074020460CB010BD1348FFF7AD
:1059000043FE50B94FF0FF324FF0FF33012103A89F
:1059100004F00EF99DF80740EDE70D4B0D4A9B1A78
:10592000DB084FF00001032262F302016FF3C501AF
:1059300063F38F110848FDF7C7FDDCE76FF00F0434
:10594000D9E700BFAC0A0020A4EF0008780A0020C5
:10595000ACE0000874E0000850EE000870B58AB0B2
:105960000C46274B0122BFF35B8F53E8001F002931
:1059700003D143E800200028F7D1BFF35B8F3BD170
:10598000204BDB6820689847E37ACBB91D4B9D69B3
:10599000012009900023089307930693059304932D
:1059A00003930A220292228901920093A3796279D9
:1059B0002179A8471448FFF7E7FD00200AB070BD21
:1059C000124B20686168A26807C30E4BDD696379DA
:1059D000A1794FF47A62089200220792069205920A
:1059E0000120049003922689029601910093237965
:1059F00094F90A10A847DDE76FF00F00DEE700BF5B
:105A0000AC0A0020A4EF0008780A0020A00A0020B9
:105A100010B5084611461A460C4B4FF0010CBFF367
:105A20005B8F53E800EFBEF1000F03D143E800C4E1
:105A3000002CF6D1BFF35B8F04D1054BDB6B98478D
:105A4000002010BD6FF00F00FBE700BFAC0A002084
:105A5000A4EF000838B50D4800F134030024BFF36B
:105A60005B8F53E8002F43E800410029F9D1BFF3D1
:105A70005B8F074B4360074BC360074D2B680430B7
:105A80009847EB6A9847204638BD00BF780A002047
:105A90005D560008D9550008A4EF000808B5044B6E
:105AA000C01A0011034B53F820300020984708BD5E
:105AB000140B00209000002010B58AB08DF807006C
:105AC0000DF107000690012007900892099306AB9C
