:020000040800F2
:1000000040240020DD2D0008CD980008952D000823
:10001000952D0008952D0008952D00080000000082
:10002000000000000000000000000000452A000859
:10003000952D000800000000F129000879590008FA
:100040001D2B00081D2B00081D2B00081D2B000870
:100050001D2B00081D2B00081D2B00081D2B000860
:100060001D2B00081D2B00081D2B00081D2B000850
:100070001D2B00081D2B00081D2B00081D2B000840
:100080001D2B00081D2B00081D2B00081D2B000830
:100090001D2B00081D2B00081D2B00081D2B000820
:1000A0001D2B00081D2B00081D2B00081D2B000810
:1000B0001D2B00081D2B00081D2B00081D2B000800
:1000C0001D2B00081D2B00081D2B00081D2B0008F0
:1000D0001D2B00081D2B00081D2B00081D2B0008E0
:1000E0001D2B00081D2B00081D2B00081D2B0008D0
:1000F0001D2B00081D2B00081D2B00081D2B0008C0
:100100001D2B00081D2B00081D2B00081D2B0008AF
:100110001D2B00081D2B00081D2B00081D2B00089F
:100120001D2B00081D2B00081D2B00081D2B00088F
:100130001D2B00081D2B00081D2B00081D2B00087F
:100140001D2B00081D2B00081D2B00081D2B00086F
:100150001D2B00081D2B00081D2B00081D2B00085F
:100160001D2B00081D2B00081D2B00081D2B00084F
:100170001D2B00081D2B00081D2B00081D2B00083F
:100180001D2B00081D2B00081D2B00081D2B00082F
:040190001D2B00081B
:0C019400FFFFFFFFFFFFFFFFFFFFFFFF6B
:1001A00001F0FF01102A2BDB10F0070F08D010F828
:1001B000013B013A8B422DD010F0070F42B3F6D12C
:1001C000F0B441EA012141EA014122F007047FF045
:1001D00000070023F0E80256083C85EA010586EA9C
:1001E000010685FA47F5A3FA87F586FA47F6A5FAD8
:1001F00087F68EB9EED1F0BC01F0FF0102F00702E4
:1002000032B110F8013B013A83EA010313B1F8D18E
:100210000020704701387047002D06BF354603386F
:10022000073815F0010F07D1013015F4807F02BFA8
:10023000013015F4C03F0130F0BC0138704700BFF9
:1002400081F0004102E000BF83F0004330B54FEA87
:1002500041044FEA430594EA050F08BF90EA020FF4
:100260001FBF54EA000C55EA020C7FEA645C7FEA87
:10027000655C00F0E2804FEA5454D4EB5555B8BFAA
:100280006D420CDD2C4480EA020281EA030382EA1B
:10029000000083EA010180EA020281EA0303362DAD
:1002A00088BF30BD11F0004F4FEA01314FF4801C80
:1002B0004CEA113102D0404261EB410113F0004F92
:1002C0004FEA03334CEA133302D0524263EB430349
:1002D00094EA050F00F0A780A4F10104D5F1200EE7
:1002E0000DDB02FA0EFC22FA05F2801841F1000142
:1002F00003FA0EF2801843FA05F359410EE0A5F116
:1003000020050EF1200E012A03FA0EFC28BF4CF046
:10031000020C43FA05F3C01851EBE37101F00045FC
:1003200007D54FF0000EDCF1000C7EEB00006EEB09
:100330000101B1F5801F1BD3B1F5001F0CD3490893
:100340005FEA30004FEA3C0C04F101044FEA4452EA
:1003500012F5800F80F09A80BCF1004F08BF5FEA71
:10036000500C50F1000041EB045141EA050130BD51
:100370005FEA4C0C404141EB0101013C28BFB1F563
:10038000801FE9D291F0000F04BF01460020B1FAAE
:1003900081F308BF2033A3F10B03B3F120020CDA81
:1003A0000C3208DD02F1140CC2F10C0201FA0CF05F
:1003B00021FA02F10CE002F11402D8BFC2F1200CC4
:1003C00001FA02F120FA0CFCDCBF41EA0C0190407A
:1003D000E41AA2BF01EB0451294330BD6FEA0404C3
:1003E0001F3C1CDA0C340EDC04F11404C4F12002AE
:1003F00020FA04F001FA02F340EA030021FA04F3C0
:1004000045EA030130BDC4F10C04C4F1200220FA16
:1004100002F001FA04F340EA0300294630BD21FA54
:1004200004F0294630BD94F0000F83F4801306BF1A
:1004300081F480110134013D4EE77FEA645C18BF0E
:100440007FEA655C29D094EA050F08BF90EA020FA5
:1004500005D054EA000C04BF1946104630BD91EA9D
:10046000030F1EBF0021002030BD5FEA545C05D1A0
:100470004000494128BF41F0004130BD14F58004DF
:100480003CBF01F5801130BD01F0004545F0FE4153
:1004900041F470014FF0000030BD7FEA645C1ABF88
:1004A000194610467FEA655C1CBF0B46024650EABF
:1004B000013406BF52EA033591EA030F41F40021EB
:1004C00030BD00BF90F0000F04BF0021704730B571
:1004D0004FF4806404F132044FF000054FF0000146
:1004E00050E700BF90F0000F04BF0021704730B507
:1004F0004FF4806404F1320410F0004548BF4042DC
:100500004FF000013EE700BF42004FEAE2014FEA30
:1005100031014FEA02701FBF12F07F4393F07F4F0B
:1005200081F06051704732F07F4208BF704793F00E
:100530007F4F04BF41F40021704730B54FF4607421
:1005400001F0004521F000411CE700BF50EA010224
:1005500008BF704730B54FF000050AE050EA0102CD
:1005600008BF704730B511F0004502D5404261EB3D
:1005700041014FF4806404F132045FEA915C3FF47E
:10058000D8AE4FF003025FEADC0C18BF03325FEA1B
:10059000DC0C18BF033202EBDC02C2F1200300FACC
:1005A00003FC20FA02F001FA03FE40EA0E0021FAF1
:1005B00002F11444BDE600BF70B54FF0FF0C4CF4DF
:1005C000E06C1CEA11541DBF1CEA135594EA0C0F91
:1005D00095EA0C0F00F0DEF82C4481EA030621EACC
:1005E0004C5123EA4C5350EA013518BF52EA033507
:1005F00041F4801143F4801338D0A0FB02CE4FF0B9
:100600000005E1FB02E506F00042E0FB03E54FF0E8
:100610000006E1FB03569CF0000F18BF4EF0010EE0
:10062000A4F1FF04B6F5007F64F5407404D25FEADC
:100630004E0E6D4146EB060642EAC62141EA55518F
:100640004FEAC52040EA5E504FEACE2EB4F1FD0CD1
:1006500088BFBCF5E06F1ED8BEF1004F08BF5FEA4F
:10066000500E50F1000041EB045170BD06F0004601
:1006700046EA010140EA020081EA0301B4EB5C04AE
:10068000C2BFD4EB0C0541EA045170BD41F48011A6
:100690004FF0000E013C00F3AB8014F1360FDEBFCB
:1006A000002001F0004170BDC4F10004203C35DAA7
:1006B0000C341BDC04F11404C4F1200500FA05F32A
:1006C00020FA04F001FA05F240EA020001F00042CB
:1006D00021F0004110EBD37021FA04F642EB060141
:1006E0005EEA430E08BF20EAD37070BDC4F10C046B
:1006F000C4F1200500FA04F320FA05F001FA04F22F
:1007000040EA020001F0004110EBD37041F100011A
:100710005EEA430E08BF20EAD37070BDC4F1200525
:1007200000FA05F24EEA020E20FA04F301FA05F28D
:1007300043EA020321FA04F001F0004121FA04F235
:1007400020EA020000EBD3705EEA430E08BF20EA05
:10075000D37070BD94F0000F0FD101F0004640003F
:1007600041EB010111F4801F08BF013CF7D041EAC1
:10077000060195F0000F18BF704703F000465200C5
:1007800043EB030313F4801F08BF013DF7D043EA96
:100790000603704794EA0C0F0CEA135518BF95EA4C
:1007A0000C0F0CD050EA410618BF52EA4306D1D1D3
:1007B00081EA030101F000414FF0000070BD50EAF2
:1007C000410606BF1046194652EA430619D094EA7C
:1007D0000C0F02D150EA013613D195EA0C0F05D166
:1007E00052EA03361CBF104619460AD181EA0301BA
:1007F00001F0004141F0FE4141F470014FF0000072
:1008000070BD41F0FE4141F4780170BD70B54FF00C
:10081000FF0C4CF4E06C1CEA11541DBF1CEA13558C
:1008200094EA0C0F95EA0C0F00F0A7F8A4EB05046E
:1008300081EA030E52EA03354FEA013100F0888065
:100840004FEA03334FF0805545EA131343EA12632E
:100850004FEA022245EA111545EA10654FEA0026E3
:100860000EF000419D4208BF964244F1FD0404F59C
:10087000407402D25B084FEA3202B61A65EB0305F8
:100880005B084FEA32024FF480104FF4002CB6EBB5
:10089000020E75EB030E22BFB61A754640EA0C0035
:1008A0005B084FEA3202B6EB020E75EB030E22BF75
:1008B000B61A754640EA5C005B084FEA3202B6EBB6
:1008C000020E75EB030E22BFB61A754640EA9C0075
:1008D0005B084FEA3202B6EB020E75EB030E22BF45
:1008E000B61A754640EADC0055EA060E18D04FEA03
:1008F000051545EA16754FEA06164FEAC30343EAA3
:1009000052734FEAC2025FEA1C1CC0D111F4801F6F
:100910000BD141EA00014FF000004FF0004CB6E768
:1009200011F4801F04BF01430020B4F1FD0C88BF07
:10093000BCF5E06F3FF6AFAEB5EB030C04BFB6EB12
:10094000020C5FEA500C50F1000041EB045170BD05
:100950000EF0004E4EEA113114EB5C04C2BFD4EB32
:100960000C0541EA045170BD41F480114FF0000EB6
:10097000013C90E645EA060E8DE60CEA135594EA32
:100980000C0F08BF95EA0C0F3FF43BAF94EA0C0F35
:100990000AD150EA01347FF434AF95EA0C0F7FF4AA
:1009A00025AF104619462CE795EA0C0F06D152EAFE
:1009B00003353FF4FDAE1046194622E750EA4106E2
:1009C00018BF52EA43067FF4C5AE50EA41047FF4F3
:1009D0000DAF52EA43057FF4EBAE12E753B94AB9C3
:1009E000002908BF00281CBF4FF0FF314FF0FF3037
:1009F00000F00CB8ADF1080C6DE904CE00F0CEF8B3
:100A0000DDF804E0DDE9022304B07047704700BF61
:100A10004FF0FF3C06E000BF4FF0010C02E000BFCA
:100A20004FF0010C4DF804CD4FEA410C7FEA6C5CAD
:100A30004FEA430C18BF7FEA6C5C1BD001B050EA50
:100A4000410C0CBF52EA430C91EA030F02BF90EA3B
:100A5000020F0020704710F1000F91EA030F58BFFA
:100A6000994208BF90422CBFD8176FEAE37040F05C
:100A7000010070474FEA410C7FEA6C5C02D150EAFA
:100A8000013C07D14FEA430C7FEA6C5CD6D152EAB5
:100A9000033CD3D05DF8040B704700BF844610467A
:100AA00062468C461946634600E000BF01B5FFF779
:100AB000B7FF002848BF10F1000F01BD4DF808ED49
:100AC000FFF7F4FF0CBF012000205DF808FB00BF1A
:100AD0004DF808EDFFF7EAFF34BF012000205DF874
:100AE00008FB00BF4DF808EDFFF7E0FF94BF0120C1
:100AF00000205DF808FB00BF4DF808EDFFF7CEFFC2
:100B000094BF012000205DF808FB00BF4DF808ED00
:100B1000FFF7C4FF34BF012000205DF808FB00BFD1
:100B20004FEA410C7FEA6C5C02D150EA013C0AD1E9
:100B30004FEA430C7FEA6C5C02D152EA033C02D1DB
:100B40004FF0000070474FF0010070474FEA41023C
:100B500012F5001215D211D56FF47873B3EB62520F
:100B600012D94FEAC12343F0004343EA505311F036
:100B7000004F23FA02F018BF404270474FF00000C8
:100B8000704750EA013005D111F0004008BF6FF006
:100B9000004070474FF00000704700BF2DE9F04F54
:100BA00007468C460846099E15463C461946002BCA
:100BB00040F0C6808242B2FA82F746D94FB1C7F1FF
:100BC000200E24FA0EFE00FA07F3BD404EEA030C95
:100BD000BC404FEA15481FFA85FEBCFBF8F9220C11
:100BE00008FB19C309FB0EFA42EA03439A4528D9C8
:100BF000EB1809F1FF3004D29A4502D9A9F102009D
:100C00002B44A3EB0A03A4B2B3FBF8F208FB1233A4
:100C100002FB0EFE44EA0344A64514D92C1902F146
:100C2000FF3303D2A64501D9931E2C44A4EB0E0436
:100C300043EA00401EB1FC40002334607360BDE80D
:100C4000F08F4846DDE71346F0E702B9FFDE87BBC9
:100C5000831A01214FEA154EAAB2B3FBFEFC200C09
:100C60000EFB1C330CFB02F840EA0343984563D9A2
:100C7000EB180CF1FF3004D2984502D9ACF1020018
:100C80002B44A3EB0803A4B2B3FBFEFC0EFB1C3306
:100C90000CFB02F244EA0344A2424FD92C190CF196
:100CA000FF3304D2A24202D9ACF102032C44A41AAD
:100CB000BEE7C7F1200C20FA0CF800FA07F324FA7B
:100CC0000CFCBD404CEA03024FEA154EABB2B8FB38
:100CD000FEFC110C0EFB1C800CFB03F941EA0040EA
:100CE000814504FA07F423D928180CF1FF3104D206
:100CF000814502D9ACF102012844A0EB090092B26F
:100D0000B0FBFEFC0EFB1C000CFB03F842EA0043A8
:100D100098450FD9EB180CF1FF3204D2984502D94F
:100D2000ACF102022B44A3EB080342EA014191E734
:100D30006146E2E76246F6E76046A2E76346B6E749
:100D4000834205D90EB1C6E900700021084676E756
:100D5000B3FA83F181B9834201D3BA420AD8BC1AEB
:100D600060EB030301209C46002E68D0C6E9004CCE
:100D7000002164E70846F7E7C1F1200C8B4022FA16
:100D80000CF41C4302FA01F500FA01F327FA0CF205
:100D900020FA0CFB4FEA14491343BBFBF9F81FFA86
:100DA00084FE09FB18BB1A0C08FB0EFA42EA0B4240
:100DB000924507FA01F73ED9A21808F1FF3004D294
:100DC000924502D9A8F102002244A2EB0A029BB28A
:100DD000B2FBF9F809FB182208FB0EFE43EA0242B7
:100DE00096452AD9A21808F1FF3304D2964502D9B4
:100DF000A8F10203224443EA0040A0FB0593A2EBC2
:100E00000E029A42CE46984602D306D14F4504D2EE
:100E1000B9EB050E63EB0408013886B1B7EB0E039E
:100E200062EB080707FA0CFCCB404CEA0303CF4007
:100E3000C6E900379CE74046C7E74346DBE7314653
:100E4000FDE610F8012B11F8013B012A28BF9A4258
:100E5000F7D0D01A7047034613F8012B002AFBD1B4
:100E6000181A0138704700002DE9F04F446A99B014
:100E700016461F46CDE90467DDF89480054674B92F
:100E8000102006F037FD0246686220B9A84BEA211F
:100E9000A84807F05FFCC0E901440460C4606B6AC5
:100EA000196851B15A684A60012393408B60284603
:100EB00007F07CF96B6A00221A603B1EB9BF23F071
:100EC000004305930023C8F80030DDF814909A4BD6
:100ED000BCBF0122C8F8002033EA090319D1249AC3
:100EE00042F20F731360C9F31303334300F080859C
:100EF000269B53B9914B22E0914B03930833269ADA
:100F00001360039819B0BDE8F08F8C4B0393033343
:100F1000F5E7DDE90434CDE90C34DDE90C0100220C
:100F20000023FFF7CBFD804658B1249A01231360BC
:100F3000269B002B00F0598582481860431E0393BE
:100F4000DFE716AB019317AB00932846DDE90C23CE
:100F500007F0A4FBC9F30A548346002C7ED00D9BF6
:100F6000CDF84C80C3F31303DDE90C0143F07F514E
:100F700041F44011A4F2FF34734B0022FFF764F9EF
:100F800065A3D3E90023FFF717FB65A3D3E900238B
:100F9000FFF75CF9064620460F46FFF7A3FA62A367
:100FA000D3E90023FFF708FB02460B4630463946DB
:100FB000FFF74CF906460F46FFF7C8FD00228246B0
:100FC000002330463946FFF783FD48B15046FFF70E
:100FD00089FA32463B46FFF771FD08B90AF1FF3A3C
:100FE000BAF1160F57D8594B03EBCA03D3E90023C4
:100FF000DDE90C01FFF76CFD00284ED00AF1FF3A45
:1010000000230F93169B1C1B631E099345BFC4F15D
:1010100001030693002300234CBF09930693BAF102
:10102000000F3CDB099BCDF838A053440993002303
:101030000A93229B092B00F28D80052BC4BF043B31
:101040002293229BA3F10203CCBF00240124032B93
:1010500000F28C80DFE803F02D4F4D5BDDE9164395
:101060001C4404F23243202BC3BFC3F1400304F2FB
:10107000124009FA03F3C3F12003C6BF26FA00F0B9
:10108000184306FA03F0FFF71DFA0123A1F1F871E6
:10109000013C139370E70123B3E70F90B2E7069B7F
:1010A000A3EB0A030693CAF100030A9300230E93ED
:1010B000BFE700230B93239B002B5ADC4FF0010961
:1010C000CDF820904B46CDF88C90686A00224260A3
:1010D000042202F114069E42416850D9284607F0C6
:1010E00025F8039000284ED1194B02464FF4D571D4
:1010F000CEE60123DEE700230B93239B0AEB0309D3
:1011000009F10103012B0893B8BF0123DDE7012397
:10111000F2E700BFAFF3008061436F63A787D23F60
:10112000B3C8608B288AC63FFB799F501344D33FD6
:10113000EAC6000801C700080000F07FE6C6000804
:10114000DDC60008BAC600080000F83F10C000085D
:101150005BC700080124002322930B944FF0FF3952
:101160000022CDF8209012232392AEE701230B93A7
:10117000F4E7DDF88C90CDF820904B46A5E70131DF
:1011800041605200A5E76B6A039A1A60089B0E2B18
:1011900000F2A880002C00F0A580BAF1000F34DD29
:1011A0009A4A0AF00F0302EBC303D3E900341AF49E
:1011B000807FCDE910344FEA2A1416D0944BDDE934
:1011C0000C01D3E90823FFF721FBCDE9040104F06A
:1011D0000F0403278E4E54B9DDE91023DDE9040125
:1011E000FFF714FBCDE9040129E00227F2E7E1074C
:1011F00008D5DDE91001D6E90023FFF7DDF9CDE9D7
:101200001001013764100836E5E700F0A580CAF147
:1012100000047E4B7E4E04F00F0203EBC203D3E9C1
:101220000023DDE90C01FFF7C7F9CDE90401241122
:1012300000230227002C40F08480002BD2D10F9B8A
:10124000002B00F08B80DDE90434CDE91034DDE9BA
:101250001001704B0022FFF73BFC00287ED0089B5A
:10126000002B7BD0B9F1000F38DDDDE910016A4BAE
:101270000022FFF7A1F9CDE904010AF1FF38013797
:101280004C463846FFF72EF9DDE90423FFF794F9C1
:10129000624B0022FEF7DAFFA1F15076CDE9100192
:1012A0001196002C5DD1DDE904015D4B0022FEF7B3
:1012B000CBFF02460B46CDE90423109A3346FFF7D5
:1012C00025FC002840F09C82DDE90401109A06F11B
:1012D0000043FFF7FDFB002840F09082DDE90C346D
:1012E000CDE90434179B002BC0F25281BAF10E0FE6
:1012F00000F34E81454B03EBCA03D3E90034CDE93B
:101300000634239B002B80F2DB80089B002B00F32C
:10131000D78040F07282424B0022DDE90601FFF7E0
:101320004BF9DDE90423FFF7E7FB089C264600287C
:1013300040F04882039F312307F8013B0AF1010A7C
:1013400044E2E20705D5D6E90023FFF735F9013776
:101350000123641008366DE7022770E7089CD04629
:101360008FE70399294B214412910B9903EBC40396
:10137000DDE9106753E90223002955D029490020EF
:10138000FFF744FA3B463246FEF75EFFCDE9100117
:10139000039FDDE90401FFF7D9FB0446FFF7A2F83C
:1013A00002460B46DDE90401FEF74EFF30340246EB
:1013B0000B46CDE9042307F8014BDDE91023FFF7C5
:1013C00087FB002874D1DDE9042312490020FEF7D1
:1013D0003BFFDDE91023FFF77BFB002840F0B780DF
:1013E000129B9F423FF47AAFDDE910010A4B0022C5
:1013F000FFF7E2F8084BCDE910010022DDE9040116
:10140000FFF7DAF8CDE90401C3E700BF10C0000818
:10141000E8BF00080000F03F0000244000001C402E
:10142000000014400000E03F30463946FFF7C4F8A2
:10143000CDE91001129B039C1493DDE90401FFF731
:1014400085FB1590FFF74EF802460B46DDE90401D7
:10145000FEF7FAFE159B303304F8013B129B9C42C9
:1014600006460F464FF0000224D1A44BDDE91001DF
:10147000FEF7ECFE02460B4630463946FFF746FBC8
:10148000002863D1DDE910239C490020FEF7DCFE33
:1014900002460B4630463946FFF71AFB00283FF458
:1014A0001DAF149F7B1E149317F8013C302BF8D00E
:1014B000C2463BE0924BFFF77FF8CDE90401BCE761
:1014C000DDE90489039FDDE9062340464946FFF72D
:1014D0009DF9FFF73BFB0446FFF704F8DDE906231F
:1014E000FFF76AF804F1300602460B4640464946CB
:1014F000FEF7AAFE07F8016B039EDDF820C0BE1BB5
:10150000B44502460B4636D1FEF7A0FEDDE90623C0
:1015100080468946FFF7FAFA58BBDDE906234046C4
:101520004946FFF7CBFA08B1E10722D428465946CD
:1015300006F03CFE00233B70249B0AF1010018607A
:10154000269B002B3FF4DDAC1F60DAE427463B46C8
:101550001F4613F8012D392A07D1039A9A42F7D171
:101560000399302208F101080A701A7801321A70C2
:101570009EE7D046EBE7624B0022FFF71DF8002202
:10158000002380468946FFF799FA00289BD0CDE7D3
:101590000B9A002A00F0D080229A012A00F3B28030
:1015A000139A002A00F0A68003F233430A9C069F98
:1015B000069A1A440692099A01211A442846099269
:1015C00006F05CFE0646002F0CDD099B002B09DDB2
:1015D000BB42069AA8BF3B46D21A0692099AFF1A46
:1015E000D31A09930A9BF3B10B9B002B00F0A88040
:1015F000002C10DD31462246284606F0FDFE5A46F4
:1016000001460646284606F04FFE594680462846C3
:1016100006F0CCFDC3460A9B1A1B04D05946284647
:1016200006F0EAFE83460121284606F027FE0E9BBF
:10163000002B044640F386801A460146284606F0F1
:10164000DBFE229B012B04467FDD4FF0000823695F
:1016500004EB830318690AF0BDF8C0F12000099B70
:10166000184410F01F0000F09280C0F12003042BFA
:1016700040F38A80C0F11C00069B03440693099B3B
:10168000034407440993069B002B05DD59461A467F
:10169000284606F00BFF8346099B002B05DD2146FB
:1016A0001A46284606F002FF04460F9B002B70D016
:1016B000214658460AF0DBF800286ADA002359462A
:1016C0000A22284606F094FD0B9B0AF1FF3A834656
:1016D000002B00F09481314600230A22284606F0B0
:1016E00087FDB9F1000F064600F39380229B022B81
:1016F00057DC8EE0169BC3F1360357E70000E03F4E
:1017000000002440089B5C1E0A9BA342BFBF0A9BAB
:101710000A94E21A0E9BB6BF9B181C1B0E93089BE3
:10172000B8BF0024002BB9BF069B089A069F089BF0
:10173000BCBF9F1A00233BE70A9C069F0B9E42E713
:101740000A9A6BE7229B012B19DC049BBBB9059B12
:10175000C3F313039BB9059B23F000431B0D1B052B
:1017600083B1069B01330693099B013309934FF024
:1017700001080E9B002B7FF46AAF01206FE74FF04A
:101780000008F6E79846F4E73FF47DAF18461C30B2
:1017900072E7089B002B36DC229B022B33DDDDF841
:1017A0002090B9F1000F0DD121464B460522284665
:1017B00006F01EFD0146044658460AF058F8002877
:1017C0003FF7B8AD239B039F6FEA030A4FF0000871
:1017D0002146284606F0EAFC002E3FF4A7AEB8F1F9
:1017E000000F05D0B04503D04146284606F0DEFC88
:1017F0003146284606F0DAFC98E600242646E1E762
:10180000C246264696E50B9BDDF82090002B00F0A3
:10181000FD80002F05DD31463A46284606F046FE9B
:101820000646B8F1000F5CD07168284606F07EFCD1
:10183000074628B9804B024640F2EA21FFF728BB51
:1018400032690232920006F10C010C3009F00EFEF2
:1018500001223946284606F029FE039B01330893EE
:10186000039B4B440A93049B03F00103B046099386
:101870000646089B2146013B5846049309F023FF86
:10188000034630330690414658460B9309F0EFFF6C
:10189000324681462146284606F078FEC2680B9BF8
:1018A000074602BB0146584609F0E1FF0B9B024682
:1018B00039462846CDE90B3206F078FC229B0C9A7B
:1018C000089F43EA0201099B0B430B9B0DD1392B67
:1018D00029D0B9F1000F01DD069B3133049A137052
:1018E00076E73046B9E70122E2E7B9F1000F06DBFF
:1018F000229941EA0909099959EA010120D1002AEE
:10190000ECDD594601222846089306F0CFFD21461A
:10191000834609F0ACFF0028089B02DCDED1DA0721
:10192000DCD5392BD8D1049A392313703B461F4696
:10193000013B17F8012C392A50D001321A7047E7C1
:10194000002A03DD392BEED00133C7E7089A0A9944
:1019500002F8013C8A422AD0594600230A2228462E
:1019600006F046FCB04583464FF000034FF00A02F4
:101970004146284607D106F03BFC80460646089BB8
:101980000133089375E706F033FC314680460023A7
:101990000A22284606F02CFC0646F0E7B9F1000FB3
:1019A000039ACCBF4F46012717444FF00008594611
:1019B00001222846089306F079FD2146834609F066
:1019C00056FF0028B2DC02D1089BDB07AED43B46B1
:1019D0001F4613F8012D302AFAD0F9E6039A9A42ED
:1019E000A5D10AF1010A312379E7144BFFF7A7BA11
:1019F000269B002B7FF480AA114BFFF7A0BAB9F108
:101A0000000F03DC229B022B3FF7CBAE039F214646
:101A1000584609F058FE00F1300307F8013B039ADD
:101A2000BA1A9145BADD594600230A22284606F023
:101A3000DFFB8346EBE700BF5BC70008B9C60008C1
:101A4000DDC60008F0B583B007460E4615460024F3
:101A50008DF8074008E0DDB10DF10703022231786F
:101A6000384607F0D8FA0134052C6EDC052CFAD87C
:101A700001A353F824F000BF571A0008A11A000868
:101A8000C31A0008E51A0008071B0008291B0008F4
:101A90000DF1070302223146384607F0D9FAE2E792
:101AA0003DB10DF1070303227178384607F0B3FA10
:101AB000D9E70DF107030322711C384607F0C8FA75
:101AC000D1E73DB10DF107030422B178384607F0A4
:101AD000A2FAC8E70DF107030422B11C384607F04B
:101AE000B7FAC0E73DB10DF107030122F17838469E
:101AF00007F091FAB7E70DF107030122F11C384610
:101B000007F0A6FAAFE73DB10DF1070301223179E5
:101B1000384607F080FAA6E70DF107030122311DD0
:101B2000384607F095FA9EE73DB10DF1070308220C
:101B30007179384607F06FFA95E70DF1070308222F
:101B4000711D384607F084FA8DE703B0F0BD00BF81
:101B500030B583B0002401940122144901A8FFF795
:101B600071FF0DE0E300FF209840019A1040D8403B
:101B7000C0B20F4D285507F08BFA28550134E4B256
:101B8000022CEFD90B4BDB7A3BB90A490123CB720C
:101B9000094B186883681B689847074B1868836867
:101BA0005B6803220249984703B030BDFC06002061
:101BB000F8060020800600208C06002000B583B0C7
:101BC00000230193044807F076FA044804F0AAFBC6
:101BD00003B05DF804FB00BFD8C00008B8060020C1
:101BE0002DE9F04383B081460E4617461D462A4C28
:101BF0002A4B2360002323710A226271082222816A
:101C00000122A2710522A272E3722548254B1860B9
:101C100008F035FF002836D00023002B36D1214BA9
:101C2000186883681B681C499847002831DBDFF877
:101C3000788000221D49404609F0E1FA4EF6602006
:101C400000FB09F4A00000192CBF01230023021897
:101C50005B4100920193404605F0D8FA3A4631467E
:101C6000134809F04FF80A9A2946124809F04AF831
:101C7000114809F02EF81149114809F056F80020D2
:101C800003B0BDE8F0836FF01203C6E74FF0FF30FA
:101C9000F6E74FF0FF30F3E780060020400ECF1943
:101CA00088BC00088C060020A0030020BD1B000893
:101CB000B8060020D006002090060020511B000826
:101CC000E806002030B587B00120009000230246CE
:101CD0001946FFF785FF0023ADF816308DF8153053
:101CE000244807F0E8F9244B18680028F8D0234B63
:101CF000DB7A2BB121490023CB7283681B6898479C
:101D00001D4B18688368DB680DF1150203920DF115
:101D1000160202924FF0FF344FF0FF35CDE9004537
:101D200003221749984700281ADC0022002315488F
:101D300004F020FB0028D3D1134C01236370134A15
:101D400012782270124A12786271E3700225A5702F
:101D50002046FFF7FDFE65702046FFF7F9FEBFE75E
:101D60000C4804F0DFFA0DF116010B4808F0BEFF35
:101D7000DBE700BFE8C000088C06002080060020DA
:101D8000AC060020B8060020FC06002090020020CF
:101D900091020020D00600209006002030B583B0CC
:101DA0001CE0174D285D07F073F92855E3009840B3
:101DB000019B184301900134E4B2022CF1D9114C7B
:101DC0000022214601A8FFF73DFE62780E4B1B78EA
:101DD0009A4203D10A20002104F0E6FF0B4807F0E5
:101DE0006AF9002200230A4804F0C4FA0028F1D15D
:101DF0000024019400220023064804F057FADCE78F
:101E0000AC060020B006002090020020F4C00008BC
:101E1000D00600209006002008B50B6801330B6047
:101E2000014B1B68984708BD00000020014B18605B
:101E3000704700BF0000002000B583B002460B468B
:101E40000021019101A9034800F016FA03B05DF8E2
:101E500004FB00BF191E000884460268002005E04C
:101E600000EB8000013203EB400030381378044966
:101E7000595C11F0040FF3D1CCF80020704700BF7B
:101E8000A9C5000870B582B0044600230360436012
:101E900083604B78252B02D04E1C01251FE0881C47
:101EA000E37045E1237843F004032370B5B10136B4
:101EB00014E0237843F008032370F7E7237843F016
:101EC00010032370F2E7237843F020032370EDE73B
:101ED000237843F040032370E8E7002545B33378C7
:101EE000203B102BF9D801A252F823F0BD1E0008A8
:101EF000DB1E0008DB1E0008C71E0008DB1E0008F2
:101F0000DB1E0008DB1E0008DB1E0008DB1E0008CD
:101F1000DB1E0008DB1E0008B31E0008DB1E0008E5
:101F2000A51E0008DB1E0008DB1E0008D11E0008ED
:101F3000237803F04403442B5FD00196237843F0C9
:101F40008003237033782A2B5CD001A8FFF784FF2D
:101F5000019B9E420FD0237843F080032370606082
:101F6000DBB2C3F34003002854DB00221343227882
:101F700063F341022270019B01931B782E2B14BF47
:101F800000230123627863F341026270002B43D087
:101F9000019B5A1C01925B782A2B3FD001A8FFF7C6
:101FA0005BFFA0602378C3F3400300283EDB0022E0
:101FB0001343227863F341022270019803784C3B6B
:101FC0002E2B00F29D80DFE803F0909B9B9B9B9B58
:101FD0009B9B9B9B9B9B9B9B9B9B9B9B9B9B9B9B51
:101FE0009B9B9B9B9B9B339B579B459B9B9B9B9B43
:101FF0009B9B899B9B9B9B9B820023786FF3861303
:1020000023709AE7637843F001036370334601332A
:102010000193B1E70122A9E70198CFE7637843F084
:1020200004036370104601300190C7E70122BFE747
:10203000421C4378682B06D06378022161F3C60303
:10204000637010461EE06378012262F3C60363707A
:10205000023017E0421C43786C2B06D063780321D2
:1020600061F3C603637010460CE06378042262F3E8
:10207000C6036370023005E06378052262F3C6038D
:102080006370013010F8013BE370A3F14102372A7D
:102090007DD8DFE802F05E7C7C7C5E5E5E7C7C7CD2
:1020A0007C7C7C7C7C7C7C7C7C7C7C7C7C4F7C7C9D
:1020B0007C7C7C7C7C7C5E7C4F3A5E5E5E7C3A7C89
:1020C0007C7C7C654F717C7C717C4F7C7C4F637821
:1020D000062262F3C60363700130D3E763780722F8
:1020E00062F3C60363700130CCE76378082262F3C1
:1020F000C60363700130237843F002032370C1E705
:1021000063786FF3C6036370BCE7A278012161F3C3
:102110000202A270627802F07802402A10D0632B8B
:1021200013D02378C3F34002154365F341032370B2
:1021300002B070BDA278022161F30202A270E9E749
:10214000217841F001012170E9E7151E18BF012532
:10215000E7E7A378042262F30203A3700125E0E716
:10216000A378032262F30203A370637803F0780379
:10217000402BD6D10125D4E7A378032262F30203D2
:10218000A370637813F0780FCBD00125C9E72378CB
:1021900043F001032370C4E72DE9F04F83B00446F8
:1021A0000D4601929A460C9ED378324A13F802B03B
:1021B0000BF0030B6F2B0FD006D9702B0FD0782BA1
:1021C00010D14FF0100923E0582B02D04FF00A092C
:1021D0001EE04FF010091BE04FF0080918E04FF027
:1021E000100915E04FF00A0912E0D2B23032D2B233
:1021F00006F8012D3A46434620462946FEF7EEFBF7
:10220000BC4275F1000319D3564517D904460D4653
:102210004FF000084F464A46434620462946FEF7FF
:10222000DDFB092AE1D9BBF1010F03D0D2B257324D
:10223000D2B2DDE7D2B23732D2B2D9E7019B1B78F6
:1022400013F0200F05D0B9F1080F06D0B9F1100F27
:1022500009D0304603B0BDE8F08F019A937843F07F
:1022600008039370F5E7019A937843F01003937095
:10227000EFE700BFA9C500082DE9F04F91B0064671
:102280000D4691460393002499F80000002800F0C1
:10229000D582252808D009F101092946B047002830
:1022A000C0F2CD820134EFE7002304930593069337
:1022B000079308930993494606A8FFF7E3FD0290A8
:1022C0009DF8193013F0010F00F09780039B1A1D41
:1022D00003921F68002FC0F288809DF8193013F018
:1022E000040F00F09C80039B1A1D0392D3F800A0FA
:1022F000BAF1000FC0F28A800023079308939DF87B
:102300001A3003F007039DF81910C1F3C301012B24
:1023100000F08E80022B00F0D380042B00F024818B
:10232000032B00F03B819DF8188018F0030B40F060
:102330003B819DF81B30253B532B00F2E681DFE803
:1023400013F04001E401E401E401E401E401E401EB
:10235000E401E401E401E401E401E401E401E40155
:10236000E401E401E401E401E401E401E401E40145
:10237000E401E401E401E401E401E401E401E40135
:10238000E401E401E401E401E401E401E401E40125
:10239000E401E401E401E401E401E401E401E40115
:1023A000E401E401E401E4018101E401E401E40168
:1023B000E401E401E401E401E401E401E4015E017B
:1023C0006701E401E401E401E4016701E401E401DF
:1023D000E401E401BE018101A201E401E4014D0137
:1023E000E4018101E401E40181019DF8183043F02A
:1023F00004038DF818307F426FE79DF91830002BE9
:1024000002DB4FF0FF3768E7079F66E79DF819305A
:102410006FF341038DF819304FF0FF3A6CE713F07A
:10242000020F02D0DDF820A066E74FF0FF3A63E725
:10243000CB1E042B04D8DFE803F00B1D2935350033
:10244000039B1A1D03921B68DA170493059206E09A
:10245000039B1A1D03921B68DA1704930592012946
:1024600028D002297FF45FAFBDF91030DA1704934A
:10247000059258E7039B073323F0070303F1080293
:102480000392D3E90023CDE90423E8E7039B073354
:1024900023F0070303F108020392D3E90023CDE9F7
:1024A0000423DCE7039B1A1D03921B68DA170493CD
:1024B0000592D4E79DF8103004930023059332E78A
:1024C000CB1E042B04D8DFE803F00B1F354141007D
:1024D000039B1A1D03921B680493002305931EE0BF
:1024E0009DF81B30632B07D0039B1A1D03921B68BA
:1024F00004930023059312E0039B1A1D03921B68AB
:102500000493002305930AE0039B073323F007039A
:1025100003F108020392D3E90023CDE90423012942
:102520001CD002297FF4FFAEBDF8103004930023C5
:102530000593F8E6039B073323F0070303F1080232
:102540000392D3E90023CDE90423E8E7039B1A1D96
:1025500003921B68049300230593E0E79DF8103075
:10256000049300230593DEE608290BD0039B073371
:1025700023F0070303F108020392D3E90023CDE916
:102580000423D0E6039B073323F0070303F108027B
:102590000392D3E90023CDE90423C4E6039B1A1D6B
:1025A00003921B680493BEE6029F3B464A462946B7
:1025B000304607F02DF90028C0F241810444B946A5
:1025C00062E629462520B0470028C0F23881013450
:1025D000D8460DF13E0A4FF000099BE0DDF810905F
:1025E000BAF1000F07DB5146484609F060F809EBE5
:1025F000000AD8468EE04846FEF72DFCF7E7049B1C
:102600008DF82830D8460DF1290A0DF1280981E00E
:1026100018F0080F05D118F0100804D04FF020086A
:1026200001E04FF02B08049A059B002B02DB04927B
:10263000059308E0524263EB4303049205934FF085
:102640002D0800E0D8460DF13E0300930AAB06AA20
:10265000DDE90401FFF7A0FD8146BAF1000FC0F2E9
:1026600088800DF13E03A3EB09039DF818206FF35A
:1026700086128DF818209A457ED9AAEB030307939A
:102680000DF13E0A46E0049828B9D846DFF8B4A117
:10269000AAF105093EE00DF13E0300930AAB06AA3C
:1026A0000021FFF779FD81469DF81A3043F01003B1
:1026B0008DF81A3078238DF81B30D846CDE7049A70
:1026C0009DF81930C3F3C303072B06D8DFE803F0E6
:1026D000040B0D0F1115191B1460D8460DF13E0A9D
:1026E0004FF0000916E01470F7E71480F5E7146066
:1026F000F3E7E31714605360EFE7E31714605360E8
:10270000EBE71460E9E71460E7E7D8460DF13E0A0D
:102710004FF00009B9F1000F00F08D80AAEB09021B
:10272000B8F1000F00D001329DF81A1011F0100F0F
:1027300025D00232079B134411F0400F01D0089AB4
:102740001344002F31DDFF1A9DF8183013F0040FE9
:102750002BD113F0400F17D0B8F1000F17D0294636
:102760004046B04700286ADB0134D8464FF0300BB2
:102770000FE00DF13E0ACDE70DF13E0ACAE711F078
:10278000080FD7D00132D5E74FF0200B01E04FF012
:10279000300B3B465F1E002B07DD29465846B047ED
:1027A00000284CDB01343B46F4E7B8F1000F05D0BC
:1027B00029464046B047002841DB01349DF81A30D5
:1027C000C3F30012C3F3C003134305D029463020DE
:1027D000B047002833DB01349DF81A3013F0100F96
:1027E00006D029469DF81B00B047002827DB01349E
:1027F000079B03F1FF38002B07DD29463020B04747
:1028000000281CDB01344346F3E753464A46294679
:10281000304606F0FDFF002811DB0444002F07DDE1
:1028200029462020B047002809DB0134013FF5E7A5
:10283000DDF8089028E5DDF8089025E5204611B080
:10284000BDE8F08F25C100084FF01002EFF31183AF
:1028500082F31288BFF36F8F83F31188BFF36F8FFA
:10286000024B034A1A600020704700BFAC000020F2
:1028700000093D0010B5044C02E054F8043B9847B1
:10288000024B9C42F9D310BD50BF000850BF000856
:10289000064B1B684BB110B55C1E044A52F823303E
:1028A00098472346002CF7D110BD704748BF000859
:1028B000AF281DD8F8B504460F46154603090E4A41
:1028C00052F823608EB1304608F0D9F850B1002399
:1028D0005BB92B463A4604F00F01304607F0E6F9A3
:1028E0000020F8BD6FF01203F2E76FF01200F8E776
:1028F0006FF01500704700BF28C100080149102281
:102900000A60704710ED00E072B6404080F3118815
:10291000BFF36F8FBFF34F8F30BF62B6BFF36F8FC0
:10292000704700BF40B2002807DB00F01F024009DB
:1029300001239340014A42F82030704700E100E053
:10294000013140B2002808DB0901C9B200F1604042
:1029500000F5614080F80013704700F00F00090196
:10296000C9B2014B1954704714ED00E030BFFFF7B6
:10297000FDBF00BF08B50F4B0F4A22F07F029A60DF
:10298000BFF34F8FBFF36F8FD3F8882022F470020C
:10299000C3F88820EFF3148323F0040383F314882F
:1029A000BFF36F8F03F0EAFA04F068FA00F0FCF965
:1029B00003F0F0FA00ED00E000000008094A936817
:1029C000986709490968D96708494B6843F08053FB
:1029D0004B60002383F31188BFF36F8F9368D86F28
:1029E000704700BF880B0020E8C4000800ED00E03D
:1029F00012498A684FF030001044EFF3098C80E8E8
:102A0000F01F102080F31288BFF36F8F0C4F4FF030
:102A100000668A698A603E60906F0023936780F346
:102A2000118804B5104600F013FABDE8044002F125
:102A3000300090E8F01F8CF309887047880B002065
:102A400004ED00E01EF0040F0CBFEFF30880EFF37D
:102A50000980816911F8021C0229FFD001B506F036
:102A600029FF01BD10B4A2F120040D4942F8081C51
:102A700021F0010142F8081C42F8203C019B42F879
:102A80001C3C029B42F8183C039B42F8143C4FF05C
:102A9000807342F8043C04650023836710BC7047D0
:102AA000D3900008114B9A68EAB110F1160F10D0BC
:102AB000936EA3F1200C844505D8834205D98B423F
:102AC00005D800210AE0002108E0002106E00121EC
:102AD00004E0936E8B4294BF0021012109B90020CC
:102AE0007047906E70470020704700BF880B002031
:102AF00008B50D461446084B986000F0A9F9204629
:102B000085F30988002163B681F31188BFF36F8FC5
:102B10000022002306F0DDFA880B002001B5EFF358
:102B20000580A0F110004FEAC0000449014409C922
:102B30009847BDE80140024908470000A0BC0008D2
:102B4000452B0008044B99689869884203D00349D3
:102B50004FF080520A607047880B002004ED00E0BF
:102B600010B51446124B9A6A9A6A9B6A13F4007F56
:102B70000BD00F4B9A6B9B6A13F4004F05D021B119
:102B80000B4A936A23F400439362094B9A6A9B6A47
:102B900013F4807F01D1064B9B6A054A936A43F484
:102BA0007F439362012106F097FE2070002010BD44
:102BB00000ED00E0074B9A6A9A6A9A6A9A6A9A6AE2
:102BC0009A6A9A6A6FEA02426FEA12429A62002097
:102BD000704700BF00ED00E070B505461646204B7B
:102BE0009A6A9A6A9B6A13F0020F0CD01C4B586BBE
:102BF0009B6A13F0800F25D039B1194A936A23F0EC
:102C00008003936201E06FF01500154B9A6A9A6A8F
:102C10009B6A13F0100F04D1114B9C6A14F002044C
:102C200004D00F4B5C6814F400640ED10C4A936A14
:102C300043F0FF0393620121284606F04DFE3070F9
:102C4000204670BD6FF01500DFE72946FFF72AFF29
:102C500004460028EAD080F309880224E6E700BF92
:102C600000ED00E008B5844600230B701B4BD86ACA
:102C700010F002002ED1DB6A002B2CDB174BDB6A35
:102C800013F0804328D0DCF8183033F8022C4DF6CE
:102C900002739A420FD0114B93F8283073B90F4B3F
:102CA00093F8293083B90D4B5B8D9BB29BB1604685
:102CB000FFF780FF0FE0DCF800000CE00A4601217E
:102CC0006046FFF789FF06E00A4601216046FFF7EC
:102CD00047FF00E0002008BD1846FCE700ED00E0DB
:102CE00030B58BB00C46264B5968C1F30801002360
:102CF00083F31188BFF36F8F02F07F43B3F17F4FEF
:102D000015D102F00C03082B14D012F0080F0BD0D1
:102D100000250DF12702204606F0E3FD86469DF8CA
:102D2000273053B10BB030BD04460125F1E7002533
:102D30002C46EEE700252C46EBE70DF1040C20684D
:102D40006168A268E368ACE80F0020696169A26964
:102D5000E369ACE80F0045B1C3F308025AB96FEA62
:102D600053236FEA4323089305E0089B23F4FF7382
:102D700023F00103089301A9704606F097FDD1E7FF
:102D800000ED00E0024A536943F0100353617047BD
:102D900000ED00E0EFF30880EFF3098101B5724622
:102DA000FFF79EFF01BD00BF002206E002F00F0109
:102DB000094B0B44102119760132542A0ADC53B214
:102DC000002BF3DB03F1604303F56143102183F82B
:102DD0000013F1E7704700BFFCEC00E0102080F327
:102DE000118808484FF40261401880F30988EFF316
:102DF00014800221084380F31488BFF36F8FFFF71C
:102E0000B9FD0000C025002008B5084B9B6883422F
:102E100002D003F0F7FF08BDEFF30583002BF8D0D5
:102E2000034A536843F080535360F2E7880B002055
:102E300000ED00E008B5034B034A0121034806F00A
:102E4000D6FD08BD008002200000002054C100080B
:102E500008B5836E203B0548036020234360044B84
:102E60008360012106F0C7FD08BD00BF04070020F4
:102E700000000B15084AC2F898000B6823F01F03E6
:102E8000034343F01003C2F89C308B6843F0010306
:102E9000C2F8A030704700BF00ED00E010B5034C51
:102EA0000123227806F07BFD207010BDE40B00208A
:102EB00008B50023094A127806F071FD10F1160FCB
:102EC0000AD0034606E0064AC2F898300021C2F84C
:102ED000A0100133072BF6DD08BD00BFE40B002076
:102EE00000ED00E0044B0522C3F89420BFF34F8FA0
:102EF000BFF36F8F704700BF00ED00E0BFF35F8F3F
:102F0000024B0022C3F89420704700BF00ED00E0A0
:102F100038B50E4B1D68082D15D8FFF7EFFF0024BC
:102F200009E00A4B596804EB440293001944204617
:102F3000FFF7A0FF0134A542F3D8054B1D70FFF742
:102F4000D1FF002038BD4FF0FF30FBE778C100080B
:102F5000E40B0020014B1860704700BF0800002000
:102F600070B506460D46002400E00134AC4208DA94
:102F7000054B1B68984730550A2801D00D28F4D11D
:102F80000134204670BD00BF04000020F8B505469E
:102F90000F46002404E0094B1B6830789847013441
:102FA000BC4208DA2E192B5D0A2BF4D1034B1B68A7
:102FB0000D209847EFE73846F8BD00BF0800002015
:102FC00008B505220249012006F026FDFEE700BFF4
:102FD00060C100080246084B1968084BC8180A442B
:102FE000C3F1005303F520339A4202D2024B1A6018
:102FF00070474FF0FF30704710070020003200206C
:1030000070B504460D46166902E001220CE0013459
:10301000AC4217DA1F2CFADC0123A3400A4A52699A
:1030200033EA0202F1D00022002AF0D0064A5361AE
:1030300056F83430002BEAD006EBC4025168204623
:103040009847E4E770BD00BF0004014008B50123C4
:103050008340044A11680B431360034B1856FFF773
:1030600061FC08BD00040140B8C100081F2806DC4F
:1030700001238340024A106820EA03001060704771
:1030800000040140032932D8DFE801F0020F1B27BA
:10309000012303FA00F0164B9A6822EA00029A60B4
:1030A000DA6822EA0000D8607047012303FA00F0D2
:1030B0000F4B9A6802439A60DA6822EA0000D860EF
:1030C0007047012303FA00F0094BDA680243DA6023
:1030D0009A6822EA000098607047012303FA00F022
:1030E000034B9A6802439A60DA681043D8607047CD
:1030F00000040140074B53F830303BB9054B43F80F
:10310000301003EBC0004260002070476FF00F00EA
:10311000704700BF14070020034B002243F8302003
:1031200003EBC0035A6070471407002086B00B6899
:10313000062B48D8DFE803F00410263C31471B007B
:103140004B68224A916C19439164926C134000932E
:10315000009B002006B070474B681C4AD16C194395
:10316000D164D26C13400193019B0020F2E74B68BD
:10317000164A116D19431165126D13400293029B9B
:103180000020E7E74B68114A916D19439165926DF4
:1031900013400393039B0020DCE74B680B4AD16D7F
:1031A0001943D165D26D13400493049B0020D1E7ED
:1031B0004B68064A116E19431166126E134005934F
:1031C000059B0020C6E76FF08500C3E700100240B2
:1031D0000B68062B3AD8DFE803F0040C21312939BB
:1031E000140049681B4A936C23EA0103936400208E
:1031F00070474968174AD36C23EA0103D36400205F
:10320000704782B04B68134A116D19431165126DF6
:1032100013400193019B002002B0704749680D4A9A
:10322000936D23EA01039365002070474968094ABA
:10323000D36D23EA0103D365002070474968054A2E
:10324000136E23EA01031366002070476FF08500B8
:10325000704700BF0010024070B50C4615460D4B7C
:103260001E680121304606F065FC2368062B0ED847
:10327000DFE803F00404070A070D04002E600020B5
:1032800070BD28600020FBE728600020F8E76FF0A1
:103290008500F5E7AC000020104B1B6813F4806F2D
:1032A00009D10E4A136843F4807313600B4B1B68FB
:1032B00013F4806FFAD0094A936823F0030343F0B4
:1032C00001039360936823F0F00318439060034B6D
:1032D0009B6803F00C03042BF9D1704700100240E7
:1032E00010B586B003A806F020FC00F023F868466D
:1032F00006F023FC0020FFF7CFFF0D4C236823F0DE
:1033000080732360E36823F4C00343F48003E36025
:1033100003A9684602F0FCFC236823F48033236091
:10332000236823F001032360002006B010BD00BF16
:103330000010024082B0064B9A6D42F080529A65AE
:103340009B6D03F080530193019B02B0704700BF57
:103350000010024010B504460A2807D0074B186831
:10336000E1B283685B689847204610BD034B18683C
:1033700083685B680D219847F0E700BF9407002041
:1033800010B5044C2046FFF7E5FD2046FEF74EFD44
:1033900010BD00BF5533000808B50948094B186037
:1033A00007F06DFB28B1002333B9FFF7E9FF0020D8
:1033B00008BD6FF01203F7E76FF01200F8E700BFE7
:1033C00040BC0008940700204A4201F0030302F0C9
:1033D000030258BF534204339A000F2393400A4616
:1033E000002919DB43EAA2035FFA83FC0CF1020116
:1033F0000B4A52F821101A0C21EA134392FAA2F256
:1034000062B1B2FA82F200FA02F21A430CF1020C33
:10341000034B43F82C207047CA1CE3E72022F2E755
:1034200000000140424200F0030302F0030258BFD3
:10343000534204339A000F2393400246002810DBC6
:1034400043EAA200C3B20233084A52F82320030C15
:1034500002EA104093FAA3F32BB1B3FA83F3D840F6
:103460007047C21CECE72023F9E700BF00000140D1
:1034700070B582B006460D460D4B93E8030002ABD3
:1034800003E903000B4807F0FAFA48B109488368DA
:103490001B686946984704462CB1204602B070BDAF
:1034A0006FF01204F8E729463046FFF78DFFF4E786
:1034B000C0BF000880BB0008F8B50C46114647683D
:1034C0000269B1F5005F1FD01D46B1F5804F34D0C1
:1034D0001D492046FFF70EFE064688BB2146B86808
:1034E000FFF7C6FFB5F5802F23D0B5F5C02F22D04A
:1034F000B5F5003F1BD031462046FFF7C3FD2046FF
:10350000FFF7A4FD3046F8BD2046FFF78BFFBB68F0
:10351000984201D00026F5E72046FFF7A7FD204698
:10352000FFF7FAFD00212046FFF7ACFDF2E702218C
:10353000E2E70121E0E70321DEE76FF08506E1E73E
:103540006FF00F06DEE700BF4B9B000810B5446824
:1035500069B10C340D4807F092FA28B10B48836822
:103560001B682146984710BD6FF01200FBE70C3432
:10357000064807F084FA28B1044883685B6821464E
:103580009847F0E76FF01200EDE700BF80BB00083E
:103590002DE9F0418AB00D46D0F80480066902ACEE
:1035A000794F0FCF0FC497E80F0084E80F00D8F8C9
:1035B000084033689D4200F0DC80AB88C3F34513BC
:1035C000082B02D0102B40F0D680704807F057FA35
:1035D000A0B16E4B9B68DB689BB101AA41466B486A
:1035E00098470028C0F2CA800123082B0CDC019AFE
:1035F000DA402968914207D20133F6E76FF01200F2
:10360000EFE76FF05700ECE7082B00F3BA80226871
:1036100022F040022260013B0AAA02EB830353F826
:10362000203C226822F0380213432360AB8813F059
:10363000020F63D0236843F002032360AB8813F0CA
:10364000040F60D0236843F001032360236823F450
:1036500044432360AB8813F0100F59D0236843F024
:1036600080032360236823F400532360AB68002B9E
:1036700053D0236843F400732360636823F004038A
:103680006360AB8813F0010F5FD0236823F482736B
:103690002360AB88C3F34513082B5BD0636843F406
:1036A00070636360636843F480536360636823F00E
:1036B000100363603560AB68E3B11868D0B1197A64
:1036C0005B7A43F4B0538568046913F4406F04D007
:1036D00013F0010F01D083F4406323F4805213F000
:1036E000010F3ED0012303FA01F623683343236020
:1036F0002B68984700200AB0BDE8F081236823F0CA
:10370000020323609AE7236823F0010323609DE707
:10371000236823F080032360A4E7AB8813F0010F34
:1037200008D0236823F400732360636823F0040344
:103730006360A6E7236823F4007343F480232360C7
:10374000636843F0040363609BE7236843F4827378
:1037500023609EE7636823F4706343F4E06363606F
:10376000A0E7012303FA01F6236823EA0603236096
:10377000BEE70020BFE76FF08500BCE76FF00400F4
:10378000B9E76FF01500B6E7C8BF000880BB0008B6
:10379000F8B5044606694768264807F070F900281E
:1037A00030D0244883681B68394698470546002D69
:1037B0003AD1BA683969F86806F04DF8002836DB66
:1037C0007B69204698473368C3B19B68B3B11A68D8
:1037D000A2B1586803F0C4FC33689B681868197A72
:1037E00003691A6801238B401A420ED12B4673B12C
:1037F000012303FA01F18368DB68984733696BB1F1
:103800002846F8BD6FF01205D1E70123EFE7012349
:1038100003FA01F183681B699847EFE7736006F1CB
:10382000080002F07FFDEBE76FF00405E8E70546CE
:10383000E6E700BF80BB000808B5024802F0E4FEDE
:1038400008BD00BF7C00002008B507F0A8FC0A22D4
:103850000023FDF7C3F8024B1B68C01A08BD00BF68
:10386000F807002008B5024807F0D5FC08BD00BFE6
:103870002803002000B583B0830F8200121843F1A3
:10388000000392185B4100200021CDE900010348AC
:1038900003F0BCFC03B05DF804FB00BF280300206C
:1038A00008B507F07CFC0A220023FDF797F8014BCE
:1038B000186008BDF8070020014B1868704700BF6A
:1038C000F807002070B5044600F134050223BFF369
:1038D0005B8F55E8002F012A03D145E8003100290C
:1038E000F7D1BFF35B8F0CBF012600260ED1084B2A
:1038F000DB6A984700232360BFF35B8F55E8002FF6
:1039000045E800310029F9D1BFF35B8F304670BD27
:10391000ECC20008F8B517461D461D4C54F8346B30
:103920000223BFF35B8F54E8002F012A04D144E83F
:10393000003CBCF1000FF6D1BFF35B8F27D1144BD5
:10394000DB6B1A788A4200D91970114CE36B1A7834
:103950000146A06B07F08AFD236C03B11F800C4B5E
:103960005B6C03B11D700B4BDB6A98470021084B61
:1039700043F8341BBFF35B8F53E8002F43E800107C
:103980000028F9D1BFF35B8F304603F03BFFF8BD51
:10399000FC070020ECC2000810B505480468FFF7DA
:1039A00091FF20B11CB10021204603F02BFF10BD78
:1039B000FC07002070B50D460F490120BFF35B8F57
:1039C00051E8004F002C03D141E80006002EF7D14A
:1039D000BFF35B8F0CD134390B60084E736DD4B2DA
:1039E00021469847B36A214628469847002070BD73
:1039F0006FF00F00FBE700BF30080020ECC20008AA
:103A000070B58EB014460AAA0A920B9200230C934A
:103A10000D93059306930793089309939DF821301E
:103A2000012565F304038DF821300992204B9B6A30
:103A3000002B3AD013462246FFF7BCFF002822DBBA
:103A40001C4B5E6A1A490395E4B202940023019369
:103A50000B8E009391F82E3091F82D2091F82C10B8
:103A60002846B04700FA05F1C0F34173C20052186E
:103A700043F1000392185B41294605A803F016FEA6
:103A8000002802DB00200EB070BD0948FFF71AFFC6
:103A900008B10020F7E74FF0FF324FF0FF3329461F
:103AA00005A803F003FE0020EDE76FF01500EAE73C
:103AB000FC070020ECC2000810B58CB08DF8072080
:103AC00008AA0892099200230A930B930393049384
:103AD0000593069307939DF81930012060F30403C2
:103AE0008DF819300792204BBFF35B8F53E8002FFE
:103AF000002A03D143E80004002CF7D1BFF35B8F09
:103B00002ED1343B08AA1A6099630DF10702DA63DB
:103B1000109A1A64119A5A64144C636DFF219847E5
:103B2000636B00209847DDE90E23012103A803F011
:103B3000BDFD041E04DB9DF8074020460CB010BDFF
:103B40000B48FFF7BFFE0028F7D14FF0FF324FF0D0
:103B5000FF33012103A803F0A9FD9DF80740ECE71E
:103B60006FF00F04E9E700BF30080020ECC2000846
:103B7000FC07002070B58AB00C46274B0122BFF32A
:103B80005B8F53E8001F002903D143E80020002881
:103B9000F7D1BFF35B8F3BD1204BDB6820689847A0
:103BA000E37ACBB91D4B9D6901200990002308934E
:103BB000079306930593049303930A2202922289A2
:103BC00001920093A37962792179A8471448FFF7FD
:103BD00079FE00200AB070BD124B20686168A268AF
:103BE00007C30E4BDD696379A1794FF47A620892BD
:103BF00000220792069205920120049003922689E2
:103C0000029601910093237994F90A10A847DDE701
:103C10006FF00F00DEE700BF30080020ECC20008A4
:103C2000FC0700202408002010B5084611461A465B
:103C30000C4B4FF0010CBFF35B8F53E800EFBEF16C
:103C4000000F03D143E800C4002CF6D1BFF35B8F13
:103C500004D1054BDB6B9847002010BD6FF00F00BF
:103C6000FBE700BF30080020ECC2000838B50D4863
:103C700000F134030024BFF35B8F53E8002F43E8C7
:103C800000410029F9D1BFF35B8F074B4360074B1D
:103C9000C360074D2B6804309847EB6A984720466D
:103CA00038BD00BFFC07002099390008153900080D
:103CB000ECC2000808B5044BC01A0011034B53F8BE
:103CC00020300020984708BD980800208C00002074
:103CD00010B58AB08DF807000DF10700069001209D
:103CE00007900892099306AB04930223059349B108
:103CF0000B49486883681C68002304AA0831A04760
:103D00000AB010BD06AB029302230393044948682E
:103D100083681C6802AB04AA0831A047F0E700BF23
:103D20007408002070B5054692FAA2F6B6FA86F637
:103D30000AB94FF0FF36002400E00134032C13D8F9
:103D4000231D0A4A02EB83035B68AB42F5D1084BA3
:103D500003EBC4031B79B342EFD1A01C02EB0010AC
:103D6000043002F051FCE8E770BD00BF7408002089
:103D700058C3000808B5184B186803691B6813F08E
:103D8000010F1BD10123DBB18368DB680121984758
:103D90000A20002103F008F80F4B186803691B681C
:103DA00013F0010F11D100238BB18368DB6801216F
:103DB00098473C20002102F0F7FF08BD0023E2E70E
:103DC00083681B6901219847E2E70123ECE78368D8
:103DD0001B6901219847ECE774080020F8B50546F7
:103DE00000243EE023F4805213F0010F6ED0012333
:103DF00003FA01FC336843EA0C0333603B689847DD
:103E000004EB4401394B03EB8101394B03EBC40351
:103E10001E790123B340374A4A608B60231D364A1E
:103E200002EB830358688368DB69002B56D00122BC
:103E30009847002858DB231D2F4A02EB830358685C
:103E4000816803691A680123B3401A4249D14FF4CB
:103E5000B8228F6902F4C02302F4A0323146B84779
:103E60000134032C40D855F82430002BF8D0204BD7
:103E700053F8340001F0B4FF231D1F4A02EB830303
:103E8000586088B31646A01C02EB00101B49043092
:103E900006F04BFF231D06EB83067068144B03EB03
:103EA000C40319795B7943F4002343F48073876872
:103EB000066903F48052002A94D013F4406F91D025
:103EC00013F0010F8ED083F440638BE7012303FAD4
:103ED00001FC336823EA0C0333608FE76FF0850041
:103EE000A7E74FF47032B4E7F8BD00BF44080020E4
:103EF00058C30008253D000874080020B53C0008A0
:103F000030B583B00446324801F06AFF314B586047
:103F1000002850D04FF480729A812F4A9A60002274
:103F2000DA812E4801F05CFF2D4B1860002845D047
:103F300006221A7201225A7200225A602548036131
:103F400041F60723254906F0C4FA054610B1284674
:103F500003B030BD4FF47A70002102F025FF1D4BF5
:103F6000186803691B6813F0010F1DD12B46EBB1D4
:103F70008368DB68012198474FF47A70002102F0D2
:103F800013FF01220DF10701422006F0E3FA002899
:103F900017DB06F0D8FA002816DB2046FFF766FE8E
:103FA0000028D4DA0546D2E70123E0E783681B69DD
:103FB00001219847E0E76FF01505C8E76FF00405A9
:103FC000C5E76FF00405C2E76FF00405BFE700BF67
:103FD000A4C200087408002020A10700F8C100084E
:103FE000D808002010B582B00B4B9869046983682B
:103FF0005B6801A99847034618B92168019A4A40AD
:10400000019213B9019BC3F34003002B02DC002093
:1040100002B010BD0120FBE774080020094B1A68AC
:10402000536901E01A465B69516939B11968D0F8E2
:1040300000C08C45F6D85061436170475061002341
:1040400043617047E4080020054B1B6800E05B6992
:104050001BB18342FBD1012070470020704700BF95
:10406000E408002008B5054B1B680BB100225A720A
:104070004361024B186006F0DAFA08BDE40800203C
:1040800010B582B0044601A806F013FAF4B1204638
:10409000FFF7DAFFD0B9636823600123237200239E
:1040A0006372114B1B68ABB1FFF7CEFB236818445A
:1040B00020600D4B1B681B68984211D22046FFF709
:1040C000D1FF01A806F0FFF902B010BD01A806F06B
:1040D000FAF9F9E7FFF7E4FB2046FFF7C3FFF0E743
:1040E0002046FFF79BFFECE7E408002070B5FFF7E0
:1040F000E3FB0546FFF7D4FBA0EB050C1C4B1E6849
:104100006EB1324602E0002119605269536933B141
:1041100019686145F7D92C1A21441960F5E746B1B1
:104120007269134B1A6000233372F368A3B13069CC
:1041300098470F4B1B688BB11C68FFF785FB8442C7
:104140000CD20B4A13685969116000221A72DA689E
:104150001AB118699047ECE7FEE7FEE7044B1868D0
:1041600008B1437A03B170BD06F061FAFBE700BF06
:10417000E408002010B582B0044601A806F099F9C1
:104180001B4B1A685AB154B100232372A2420AD0C1
:1041900013462BB3A34220D01A465B69F9E701A866
:1041A00006F091F91FE0537A73B1002353725069FE
:1041B00020B10F4B186006F03AFA11E0FFF752FBFE
:1041C0000B4B00221A600BE0536913B1084A1360CD
:1041D00006E0074B00221A6002E05B692BB15361D5
:1041E00001A806F070F902B010BD00235361F7E793
:1041F000E40800200849A1FB0032120B43F60953E2
:1042000003FB120041F6846303EB0023A1FB0313BD
:104210001B0B03EB0220704783DE1B43002308E0E7
:10422000FEE7114B03EBC101087910BC7047013365
:10423000DBB2142B17D819460B4A52F833208242AE
:10424000F5D810B45A1C084C54F832208242E8D8F1
:104250000133DBB2142BE3D81946034A52F833205A
:104260008242F5D8EEE7FEE78CC30008012806D0AD
:10427000022806D008B10020704703487047034861
:1042800070470348704700BF48E8010090D0030022
:1042900020A10700064B93F8E1303BB9044B93F89B
:1042A0000C311BB9024B012283F80C21704700BF6F
:1042B0001C0A0020014B93F8E00070471C0A002004
:1042C00038B50546FFF796FF0446094BC3F8E4509E
:1042D000C0F30741062006F0A1FAC4F30721072026
:1042E00006F09CFAE1B2082006F098FA38BD00BF4B
:1042F0001C0A002008B5144B93F8E130012B00D0C4
:1043000008BD122006F096FA10F0010F0DD005211D
:10431000122006F083FA0D4B1B68002BF0D09B692E
:10432000002BEDD001209847EAE70421122006F087
:1043300075FA064B1B68002BE2D09B69002BDFD07F
:1043400000209847DCE700BF1C0A0020E808002096
:1043500038B53A4B93F8E030012B02D0022B51D004
:1043600038BD364B93F8E130C3B1012BF8D1334B54
:1043700093F82F31002BF3D00221122006F04EFAD1
:104380002F4B1B68002BEBD05C69002CE8D01C2065
:1043900006F050FA00F03F00A047E1E7274B9B6E84
:1043A0005BB3264B93F80C31002BD9D0234B93F8F9
:1043B0000D31002BD4D12348FFF7DCFE1F4C012325
:1043C00084F80D31112006F035FA43085B4284F879
:1043D0000E311B2006F02EFA05021C2006F02AFAE8
:1043E000284306F06EF9C4F810010C2006F022FAFA
:1043F000C0F3471084F81401B2E7104B012283F890
:104400000C21CEE70D4B93F8E130012BA8D10B4BDB
:1044100093F82F31002BA3D00221122006F0FEF9D1
:10442000074B1B68002B9BD05C69002C98D01C208C
:1044300006F000FA00F03F00A04791E71C0A0020B8
:10444000E8080020EC08002008B54C4B93F8E03059
:10445000012B02D0022B63D008BD484B93F8E1300A
:10446000CBB1012BF8D1FFF7BDFD0028F4D04448B3
:10447000FFF780FE8021122006F0D0F93F4B00228A
:1044800083F8E0203F4B1B68002BE5D0DB68002B56
:10449000E2D09847E0E7FFF7A5FD0028DCD03A48D6
:1044A000FFF768FE354BB3F816315BB9334BB3F801
:1044B00018313BB9314B93F8FE30F3B90121334841
:1044C00006F06CF92D4BB3F81611B3F81821881AC1
:1044D00093F81A31984217DB5BB2591EC9B22C48C7
:1044E000104406F05BF9254A92F81A31B2F8181117
:1044F0000B44013BA2F81831AEE7322006F09AF9DE
:104500001E4BA3F81601DDE7891AC9B220481044F2
:1045100006F044F9194BB3F81621A3F818219BE7CC
:10452000164B93F8E130002B96D1FFF75BFD012885
:1045300092D0124BB3F81601B3F81821A0EB020C7D
:1045400093F81B118C450CDD1148104406F02DF931
:104550000A4B93F81B21B3F818110A44A3F8182149
:104560007AE7811AC9B20A48104406F01EF9034BD3
:10457000B3F81621A3F818216EE700BF1C0A00202B
:1045800004090020E8080020EC080020320B00207D
:104590001C09002010B582B000238DF80730B04B05
:1045A00093F8E030012B04D0022B00F03C8102B0E4
:1045B00010BDAB4B93F8E13043B3012BF7D1402151
:1045C000122006F02BF9122006F034F98DF80700BE
:1045D0009DF8073013F0200F00F0BD80202112203D
:1045E00006F01CF99E4B93F832311BB99C4B00220C
:1045F00083F8E0209B48FFF7BDFD9B4B1B68002B19
:10460000D5D01B69002BD2D09847D0E7944B93F8B4
:1046100000310BBB924BB3F8161100295ED1B3F8F1
:104620001831002B5AD18E4B93F8FE30002B4ED10F
:1046300001218E4806F0B2F8894CB4F81831B4F86C
:104640001611C91AC9B28A48184406F0A7F8B4F876
:104650001631A4F818314EE03F2006F0EBF88DF843
:1046600007009DF8073013F0020FD3D10B213E2035
:1046700006F0D4F810213F2006F0D0F87948FFF773
:1046800079FD774B93F80231BBB97A48FFF772FD99
:10469000734B002283F8E020734B1B6813B11B6936
:1046A00003B198476E4B002283F80C2183F80D214B
:1046B000A3F81821A3F8162179E70D2006F0BAF81F
:1046C00040F04001C9B20D2006F0A8F8E4E732201E
:1046D00006F0B0F8624BA3F81601ADE7604CB4F8F1
:1046E0001831C91AC9B26248184406F057F8B4F82C
:1046F0001631A4F818315B48FFF73CFD584B93F88E
:104700000231F3B9564B002283F8E0205948FFF7F5
:1047100031FD554B1B684BB19C683CB1504900239F
:1047200091F90E21B1F816115148A0474C4B0022C7
:1047300083F80C2183F80D21A3F81821A3F8162182
:1047400035E70D2006F076F840F04001C9B20D20A3
:1047500006F064F8DDE7192006F06CF843B2023386
:104760009B103F4C84F83C311A2006F063F800B2ED
:1047700094F93C31002B39DB394BD3F8E4203E4B24
:104780009A4249D900EB20109D38354BA3F83E01E1
:10479000132006F04FF8324C84F84001102006F048
:1047A00049F801460D2006F039F894F840113048D8
:1047B00005F0F4FF94F8323113B9002284F8E020B8
:1047C0002848FFF7D7FC284B1B68002B3FF4EFAEBF
:1047D0009C68002C3FF4EBAE214991F93C31B1F9D2
:1047E0003E2191F840112248A047E0E6D4F8E410B9
:1047F000214A914207D900EB201003FA80F39D3B38
:10480000A4F83E31C4E700EB201003FA80F3A43B88
:10481000134AA2F83E31BBE700EB2010A438104B3E
:10482000A3F83E01B4E71548FFF7A4FC0C4B93F83E
:10483000E130012B0ED00A4B002283F8E0200A4B16
:104840001B68002B3FF4B3AE1B68002B3FF4AFAEE8
:104850009847ACE60821122005F0E0FFEBE700BF27
:104860001C0A002004090020E8080020320B002068
:104870001C090020EC08002040DD4A1F600B0020CE
:1048800038B5092005F0D6FF0546062005F0D2FF11
:104890000404072005F0CEFF44EA0024082005F0B8
:1048A000C9FF204305F00DFF04460021092005F053
:1048B000B5FF3B2005F0BEFF40F04001C9B23B20F0
:1048C00005F0ACFF3B2005F0B5FF10F0200FF9D14B
:1048D0000C48FFF7F5FC3B2005F0ACFF40F0400131
:1048E000C9B23B2005F09AFF3B2005F0A3FF10F072
:1048F000200FF9D12946092005F090FF2046FFF747
:10490000DFFC38BD00A1BC3308B50A48FFF732FC14
:104910000948FFF72FFC0948FFF72CFC002005F0A1
:1049200095FF002005F014FE054B002283F8E020DF
:1049300008BD00BF04090020600B0020EC08002027
:104940001C0A002008B50848FFF714FC0748FFF7C9
:1049500011FC0748FFF70EFC012005F077FF054B1F
:10496000002283F8E02008BD04090020600B00202D
:10497000EC0800201C0A002010B504462948FFF767
:10498000F9FB2146284805F071FE284B93F8E130E9
:1049900063B1012B23D0254B022283F8E02022486B
:1049A000FFF76EFB032005F051FF10BD402005F01E
:1049B00041FF00F00301402005F030FF412005F0E9
:1049C00039FF00F03E01412005F028FF352005F0B9
:1049D00031FF00F03F00154B83F81A01DBE7134B62
:1049E00093F82F3173B1F521112005F017FF402006
:1049F00005F020FF00F0330141F04001402005F0B8
:104A00000DFFC8E7F721112005F008FF402005F051
:104A100011FF00F03F0141F04001402005F0FEFE93
:104A2000B9E700BF04090020600B00201C0A002029
:104A300030B583B004468DF80710444B93F8E1304D
:104A400033B1012B3AD00020FFF796FF03B030BD01
:104A50003E4B0022A3F818219DF80710A3F8161169
:104A600093F8FE30EBB901210DF1070005F09DFE32
:104A70009DF80720531EDBB23F2B16D8334B83F82B
:104A80001B21324D95F81B11204605F08EFE95F83E
:104A90001B31B5F818211344A5F81831D5F80401D5
:104AA000D2E7322005F0BAFEE2E72146284805F0B9
:104AB000B3FD264B202283F81B21E2E7234B93F81A
:104AC000313153B3332005F0B5FE00F0BE01332081
:104AD00005F0A4FE19213B2005F0A0FE9DF807106B
:104AE0001A4B83F84011222005F098FE00210E2079
:104AF00005F094FE00210D2005F090FE012005F048
:104B000099FE30F0F8031AD09DF80710204605F002
:104B10004CFE0E4BD3F8340196E7332005F08AFEA5
:104B200041B221F0410141F0010101F0BF01332008
:104B300005F074FE1D213B2005F070FECEE7FFF767
:104B400001FF012005F0B9FDDEE700BF1C0A0020CF
:104B50001C09002070B504469D48FFF70BFB9D4BD8
:104B600093F8E130E3B1012B45D000264FF4807279
:104B70000021994806F088FC964B012283F8E0203A
:104B8000002C40F00781934B93F8E130002B00F0AC
:104B90000A81002E00F01881052005F057FE70BD37
:104BA0008C4D95F80261402005F044FE00F00301B1
:104BB00041F00C01402005F031FE412005F03AFEA5
:104BC00060F03E01C9B2412005F028FE352005F015
:104BD00031FE00F03F0085F81A011E210D2005F07E
:104BE0001DFE002385F80C3185F80D31A5F818312C
:104BF000A5F81631BAE7774B93F8313153B3332028
:104C000005F018FE40F04101C9B2332005F006FE60
:104C100019213B2005F002FE6E4BD3F82031082B02
:104C200000F28780312005F005FE00F07F01312081
:104C300005F0F4FD0021302005F0F0FD654BD3F8C0
:104C40002031082B7ED8DFE803F01724313E4B5883
:104C5000656A6F00332005F0EDFD41B221F041019E
:104C600041F0010101F0BF01332005F0D7FD1D2106
:104C70003B2005F0D3FDCFE748212F2005F0CEFDE6
:104C8000544BD3F8E40000F5F4500230FFF718FB62
:104C900058E044212F2005F0C1FD4E4BD3F8E4002D
:104CA00000F522503430FFF70BFB4BE044212F205E
:104CB00005F0B4FD474BD3F8E40000F57450043020
:104CC000FFF7FEFA3EE044212F2005F0A7FD414BFF
:104CD000D3F8E40000F5A2405E30FFF7F1FA31E0CE
:104CE00044212F2005F09AFD3A4BD3F8E40000F55B
:104CF000F4401230FFF7E4FA24E044212F2005F0BD
:104D00008DFD344BD3F8E40000F52240C630FFF7A8
:104D1000D7FA17E040212F2005F080FD12E0402156
:104D20002F2005F07BFD0DE040212F2005F076FDC2
:104D300008E0312005F07EFD60F07F01C9B231202E
:104D400005F06CFD234B93F8326193F82F31A3B13A
:104D50001D21112005F062FD402005F06BFD00F0E3
:104D60003301402005F05AFD00210F2005F056FDCB
:104D700000210D2005F052FDF8E61F21112005F05D
:104D80004DFD402005F056FD00F03F01402005F0AC
:104D900045FDE9E7114D2146284605F067FC284608
:104DA000FFF76EF9EFE6052005F050FD002E7FF4C9
:104DB000F6AE0B4C074BD3F80811204605F056FC15
:104DC0002046FFF75DF9EAE6062005F03FFDE6E63E
:104DD000600B00201C0A00201C0900200409002090
:104DE000EC08002008B520B101280AD04FF0FF30B0
:104DF00008BD112005F01EFDC0F34700404200B27F
:104E0000F6E70A4BD3F8E420094B9A4206D91B2057
:104E100005F010FD00B29D3800B2E9E71B2005F057
:104E200009FD00B2A43800B2E2E700BF1C0A00206E
:104E300040DD4A1F10B50446012005F0FBFC10F0D0
:104E4000800F21D11D4B002283F8E1201B4B93F8EA
:104E5000E130A34217D0194B83F8E140012C18D060
:104E6000002005F0F3FC012005F0E4FC00F07F01D8
:104E7000012005F0D3FC0021402005F0CFFC3021BB
:104E8000412005F0CBFC10BD0C4B012283F8E12042
:104E9000DCE7002005F0DAFC012005F0CBFC60F037
:104EA0007F01C9B2012005F0B9FC0021402005F0C6
:104EB000B5FC0021412005F0B1FCE4E71C0A00200C
:104EC00038B5194B1860194C2146194805F0C5FB37
:104ED0002146184805F0C1FB2146174805F0BDFBE7
:104EE000FEF748FFFFF7CCFC002005F0AFFC1348AD
:104EF000FEF774FF00240CE0114A04EB4403D518BC
:104F0000D05CFFF797FFA978687805F087FC01343B
:104F1000E4B20F2CF0D90020FFF78CFF094B0022E0
:104F200083F8E02038BD00BFE808002041550008A4
:104F3000600B002004090020EC0800208C000020F9
:104F40003CC400081C0A00202DE9F04F85B004463F
:104F5000019115460393BDF83C80BDF840A09DF833
:104F600044709DF848909DF84C609DF858B09DF8AD
:104F70005C300293FFF75EFF24B1012C69D005B0CD
:104F8000BDE8F08FA04B019CC3F8F040C3F8F85087
:104F90000E9AC3F8F42083F8FE7083F8FF9083F82C
:104FA000006183F801B1029A83F80221A3F8FC8022
:104FB0004FF4FA5202FB0AFABAFBF5F2C3F80821E1
:104FC000924BB3FBF5F5C5F30721022005F026FC53
:104FD000E9B2032005F022FC2046FFF71FF9014645
:104FE000122005F01BFC0E98FFF718F9014613205C
:104FF00005F014FC4FEA1821252005F00FFC5FFA9C
:1050000088F1262005F00AFCDFB14946322005F080
:1050100005FC302005F00EFC00F06F01B7B1002355
:10502000194341EA0611C9B2302005F0F7FB3120DF
:1050300005F000FC40F04001C9B2312005F0EEFB64
:105040009DE7FF21322005F0E9FBE2E76FF07F03E7
:10505000E6E7019B022B00D9FEE7019C07346A4B6F
:10506000C3F82041C3F82451039A83F82921A3F8F7
:105070002A8183F82C7183F82D9183F82E619DF895
:10508000502083F82F219DF8542083F8302183F895
:1050900031B1029A83F832210C2D03D8052D02D8A4
:1050A000062500E00C25072C63D0082C6AD0564B4F
:1050B000002283F828211D2005F0BCFB2301DAB271
:1050C000039B5B00DBB2134343EA07011D2005F09D
:1050D000A5FB1E2005F0AEFB00F008032A01D2B2AA
:1050E0001A43B300DBB21343CAF3012119431E2054
:1050F00005F094FB262005F09DFB41B221F008014C
:10510000414B93F8283141EAC301C9B2262005F08A
:1051100085FB5FFA8AF11F2005F080FB4FEA18211A
:10512000202005F07BFB5FFA88F1212005F076FB5B
:105130005FBB354B93F82F3163BB092C3AD0092C58
:1051400047D00321362005F069FB062D4AD03120D7
:1051500005F070FB41B221F0070141F0030101F0BD
:10516000FB01312005F05AFB0A21372005F056FBE0
:1051700005E7A5F10B03012B97D8234B012283F8F8
:10518000282198E70C2D92D1F7E74946222005F017
:1051900045FBCEE7442005F04DFB60F07F01C9B22E
:1051A000442005F03BFB184B93F83011242005F008
:1051B00035FBC2E7144BD3F8E420154B9A42BED915
:1051C0000221362005F02AFB64213A2005F026FB57
:1051D000BBE70221362005F021FB7F213A2005F0B4
:1051E0001DFBB2E7312005F025FB41B221F007019C
:1051F00041F0050101F0FD01312005F00FFB0C210C
:10520000372005F00BFBBAE61C0A00200048E80135
:1052100040DD4A1F2DE9F04F83B004460D46019250
:1052200000939DF83490BDF838709DF83C809DF84F
:1052300040609DF844B09DF84CA0FFF7FBFD284668
:1052400005F0A2F924B1012C57D003B0BDE8F08FCE
:10525000814B83F8E8500198C3F8EC00009AC3F83A
:10526000F0200C9AC3F8F820A3F8FC7083F8FE80B5
:1052700083F8006183F801A1149AC3F80421FEF7B2
:10528000B9FF0446C0F30721042005F0C7FAE1B2D4
:10529000052005F0C3FA714C0C9BB4FBF3F4C4F386
:1052A0000721022005F0BAFAE1B2032005F0B6FAB0
:1052B000390A252005F0B2FAF9B2262005F0AEFA37
:1052C000302005F0B7FA00F06F01B8F1000F11D0EF
:1052D0000023194341EA0611C9B2302005F09EFAB5
:1052E000312005F0A7FA40F04001C9B2312005F0A5
:1052F00095FAAAE76FF07F03EBE7574B83F81C5151
:10530000009B022B00D9FEE7009C0734524BC3F8E8
:1053100020410C9AC3F8242183F82991A3F82A711B
:1053200083F82C8183F82FB19DF8482083F8302131
:1053300083F82E6183F831A1149AC3F834210C9BB1
:105340000C2B04D8052B04D806230C9301E00C2366
:105350000C93072C51D0082C58D03F4B002283F8D7
:105360002821BBF1000F55D11D2005F063FA230160
:10537000DAB24FEA4903DBB2134343EA08011D20C6
:1053800005F04CFA1E2005F055FA00F00B010C9BBD
:105390001B01DBB21943B300DBB219431E2005F039
:1053A0003DFA262005F046FA41B221F008012A4BC9
:1053B00093F8283141EAC301C9B2262005F02EFA3C
:1053C000390A202005F02AFAF9B2212005F026FA40
:1053D0000C9B062B2ED0312005F02CFA41B221F087
:1053E000070141F0030101F0FB01312005F016FA3D
:1053F0000A21372005F012FA27E70C9B0B3B012B03
:10540000A9D8154B012283F82821AAE70C9B0C2B65
:10541000A3D1F6E7442005F00DFA60F07F01C9B290
:10542000442005F0FBF90C4B93F83011242005F0D3
:10543000F5F999E7312005F0FDF941B221F00701B6
:1054400041F0050101F0FD01312005F0E7F90C21E3
:10545000372005F0E3F9F8E61C0A00200048E801CF
:1054600030B58BB00D464FF47A7402FB04F4FEF7AE
:1054700027FF089400200790069005900490039061
:105480000523029301904FF496530093034602467E
:105490002946FFF7BFFE312005F0CCF900F0BF012F
:1054A000312005F0BBF9F021402005F0B7F9A0212B
:1054B000412005F0B3F9084D2146284605F0D6F8FD
:1054C000064B022283F8E0202846FEF7D9FD032090
:1054D00005F0BCF90BB030BD600B00201C0A0020A9
:1054E00038B504460D46FFF7A5FC14B1012C0AD0CF
:1054F00038BD074B93F8FE30002BF9D129463220F6
:1055000005F08CF9F4E72946232005F087F9EFE749
:105510001C0A002010B504460120FFF78BFC074B46
:1055200083F8384124B13421392005F077F910BDD2
:105530001221392005F072F9F9E700BF1C0A00209A
:1055400038B5334B93F8E030012B02D0022B33D027
:1055500038BD2F4B93F8E13043B12E4B1B68002B25
:10556000F6D0DB68002BF3D09847F1E7284C84F89D
:105570000C3184F80D31A4F81831A4F816310B2140
:105580003E2005F04BF910213F2005F047F994F833
:1055900002314BB10D2005F04DF940F04001C9B288
:1055A0000D2005F03BF9D8E7194B002283F8E020E5
:1055B0001948FEF7DFFDD0E7FEF7DCFBFFF760F9E7
:1055C000002005F043F900240CE0144A04EB4403E6
:1055D000D518D05CFFF72EFCA978687805F01EF985
:1055E0000134E4B20F2CF0D90020FFF723FC084C63
:1055F00094F83801FFF78EFF002384F8E030054B64
:105600001B68002BA4D05B68002BA1D098479FE7B4
:105610001C0A0020E8080020EC0800203CC4000818
:105620002DE9F04782B00C46066943681D680A7987
:10563000012A15D0022A16D14FF4806E6379012B0E
:1056400017D0022B18D08BB14FF4005CA17902293E
:1056500015D0042919D0002A40F09780002716E0C1
:105660004FF4C06EEAE74FF0000EE7E74FF4805CBE
:10567000ECE74FF0000CE9E74FF4405CE6E70AB1D5
:10568000002704E04FF0805701E04FF4805794F872
:1056900007A0BAF1010F7BD04FF00008A2F1030977
:1056A0005FFA89F9B9F1010F40F29E8012B1042925
:1056B00000F09D80002B00F09D80022B00F09D806B
:1056C000012940F29D80042900F09D80BAF1000F6D
:1056D00017D0514B9D4210D0A3F574439D420CD07E
:1056E00003F580639D4208D003F580639D4204D09A
:1056F00003F550539D4240F08980BAF1010F40F00C
:1057000088802B6823F001032B6043681A681368B4
:1057100003F4C0639E4505D0136823F4C0634EEACA
:105720000303136043681A68536803F440539C45AD
:1057300005D0536823F440534CEA03035360436895
:105740001A68136803F010239F4204D0136823F0F3
:1057500010231F43176043681A68936803F440736B
:10576000984505D0936823F4407348EA0303936097
:10577000D4F80080336898450DD12B6843F00103BD
:105780002B60002002B0BDE8F0874FF480577EE721
:105790004FF4407882E70369D0F8049059F8087B09
:1057A000D3F804A0504605F06AF9B8B1DAF8083029
:1057B000DB68B3B101AA49465046984700280ADB86
:1057C0003B6823F400433B60019B03EB5803B3FBAE
:1057D000F8F39BB2FB6023683360CEE76FF01200F2
:1057E000ECE76FF05700E9E76FF08500CAE76FF06C
:1057F0008500C7E76FF08500C4E76FF08500C1E75B
:105800006FF08500BEE76FF08500BBE76FF08500A5
:10581000B8E76FF08500B5E7003801402DE9F043A7
:1058200083B005464668D0F81080374657F8084BD5
:105830004148C8F8040005F022F9002863D03E482A
:1058400083681B68394698470746002F6ED16B68FE
:105850001A68F169B06903F0FEFF002869DB23686C
:1058600023F001032360236843F00C032360736972
:10587000022B50D0012B49D000231946226822F078
:10588000805222F4B0520B4313432360636823F425
:1058900040536360337C2BB16B681A68936843F4A0
:1058A00040739360D8F800802B696D6855F8086BD9
:1058B000D3F80490484605F0E2F888B3D9F80830E8
:1058C000DB6883B301AA29464846984700280ADBCB
:1058D000336823F400433360019B03EB5803B3FBAD
:1058E000F8F39BB2F360236843F001032360E3699C
:1058F00013F4001FFBD0E36913F4800FFBD038468C
:1059000003B0BDE8F0836FF012079EE74FF48053B9
:105910004FF4C061B2E74FF480534FF48061ADE7BC
:105920006FF01200D2E76FF05700CFE76FF0040777
:10593000E5E70746E3E700BF80BB00084FF0E02340
:1059400099691A69986912F4803F01D1814208D29D
:10595000074B1A68074909680A441A604FF0E023A8
:105960001B69044B1B681B1A014A106818447047D6
:10597000840B0020800B002008B5FFF7DFFF0C4BE5
:1059800018680C4A11680844106000221A600A4A1C
:105990001368C01A0949A1FB0010400A4FF4FA51DC
:1059A00001FB0033136001F059FBFDF7CBF808BD94
:1059B000840B00207C0B0020780B0020D34D62105C
:1059C000094B102283F8232041F63F72074B1A60DF
:1059D0000020074B18604FF0E0235A6198611A6964
:1059E00042F007021A61704700ED00E0800B0020D2
:1059F000840B002011B1B0F1FF3F0ED070B5374BD2
:105A00001C68B0F1FF3F13D0461E002E13DDB6F523
:105A1000036F11DB4FF403660EE04FF0E0221369D1
:105A200023F0010313612D4B4FF07F421A60704742
:105A30004FF40360E8E700264FF01003EFF3118501
:105A400083F31288BFF36F8FFFF778FF4FF0E023E7
:105A50009969234B1A6810441860224B00221A607F
:105A6000214B1A68831A16D44FF4FA5C0CFB0633E8
:105A700003F5F9531F331D4EA6FB03635B0A121A8D
:105A80000CFB0323B3F5806F0AD9194A934209D955
:105A9000124B1A6008E0114B4FF480621A6003E069
:105AA0004FF480630D4A13604FF0E0239E690B4A68
:105AB0001268013A5A6100229A61B14209D2A41BCC
:105AC0000C442044064B186085F31188BFF36F8F98
