:020000040800F2
:1000000060240020312D0008F5960008E92C000836
:10001000E92C0008E92C0008E92C00080000000089
:10002000000000000000000000000000A9290008F6
:10003000E92C000800000000552900086958000854
:10004000812A0008812A0008812A0008812A0008E4
:10005000812A0008812A0008812A0008812A0008D4
:10006000812A0008812A0008812A0008812A0008C4
:10007000812A0008812A0008812A0008812A0008B4
:10008000812A0008812A0008812A0008812A0008A4
:10009000812A0008812A0008812A0008812A000894
:1000A000812A0008812A0008812A0008812A000884
:1000B000812A0008812A0008812A0008812A000874
:1000C000812A0008812A0008812A0008812A000864
:1000D000812A0008812A0008812A0008812A000854
:1000E000812A0008812A0008812A0008812A000844
:1000F000812A0008812A0008812A0008812A000834
:10010000812A0008812A0008812A0008812A000823
:10011000812A0008812A0008812A0008812A000813
:04012000812A000828
:04012400FFFFFFFFDB
:1001280081F0004102E000BF83F0004330B54FEAA0
:1001380041044FEA430594EA050F08BF90EA020F0D
:100148001FBF54EA000C55EA020C7FEA645C7FEAA0
:10015800655C00F0E2804FEA5454D4EB5555B8BFC3
:100168006D420CDD2C4480EA020281EA030382EA34
:10017800000083EA010180EA020281EA0303362DC6
:1001880088BF30BD11F0004F4FEA01314FF4801C99
:100198004CEA113102D0404261EB410113F0004FAB
:1001A8004FEA03334CEA133302D0524263EB430362
:1001B80094EA050F00F0A780A4F10104D5F1200E00
:1001C8000DDB02FA0EFC22FA05F2801841F100015B
:1001D80003FA0EF2801843FA05F359410EE0A5F12F
:1001E80020050EF1200E012A03FA0EFC28BF4CF060
:1001F800020C43FA05F3C01851EBE37101F0004516
:1002080007D54FF0000EDCF1000C7EEB00006EEB22
:100218000101B1F5801F1BD3B1F5001F0CD34908AC
:100228005FEA30004FEA3C0C04F101044FEA445203
:1002380012F5800F80F09A80BCF1004F08BF5FEA8A
:10024800500C50F1000041EB045141EA050130BD6A
:100258005FEA4C0C404141EB0101013C28BFB1F57C
:10026800801FE9D291F0000F04BF01460020B1FAC7
:1002780081F308BF2033A3F10B03B3F120020CDA9A
:100288000C3208DD02F1140CC2F10C0201FA0CF078
:1002980021FA02F10CE002F11402D8BFC2F1200CDD
:1002A80001FA02F120FA0CFCDCBF41EA0C01904093
:1002B800E41AA2BF01EB0451294330BD6FEA0404DC
:1002C8001F3C1CDA0C340EDC04F11404C4F12002C7
:1002D80020FA04F001FA02F340EA030021FA04F3D9
:1002E80045EA030130BDC4F10C04C4F1200220FA30
:1002F80002F001FA04F340EA0300294630BD21FA6E
:1003080004F0294630BD94F0000F83F4801306BF33
:1003180081F480110134013D4EE77FEA645C18BF27
:100328007FEA655C29D094EA050F08BF90EA020FBE
:1003380005D054EA000C04BF1946104630BD91EAB6
:10034800030F1EBF0021002030BD5FEA545C05D1B9
:100358004000494128BF41F0004130BD14F58004F8
:100368003CBF01F5801130BD01F0004545F0FE416C
:1003780041F470014FF0000030BD7FEA645C1ABFA1
:10038800194610467FEA655C1CBF0B46024650EAD8
:10039800013406BF52EA033591EA030F41F4002104
:1003A80030BD00BF90F0000F04BF0021704730B58A
:1003B8004FF4806404F132044FF000054FF000015F
:1003C80050E700BF90F0000F04BF0021704730B520
:1003D8004FF4806404F1320410F0004548BF4042F5
:1003E8004FF000013EE700BF42004FEAE2014FEA4A
:1003F80031014FEA02701FBF12F07F4393F07F4F25
:1004080081F06051704732F07F4208BF704793F027
:100418007F4F04BF41F40021704730B54FF460743A
:1004280001F0004521F000411CE700BF50EA01023D
:1004380008BF704730B54FF000050AE050EA0102E6
:1004480008BF704730B511F0004502D5404261EB56
:1004580041014FF4806404F132045FEA915C3FF497
:10046800D8AE4FF003025FEADC0C18BF03325FEA34
:10047800DC0C18BF033202EBDC02C2F1200300FAE5
:1004880003FC20FA02F001FA03FE40EA0E0021FA0A
:1004980002F11444BDE600BF70B54FF0FF0C4CF4F8
:1004A800E06C1CEA11541DBF1CEA135594EA0C0FAA
:1004B80095EA0C0F00F0DEF82C4481EA030621EAE5
:1004C8004C5123EA4C5350EA013518BF52EA033520
:1004D80041F4801143F4801338D0A0FB02CE4FF0D2
:1004E8000005E1FB02E506F00042E0FB03E54FF002
:1004F8000006E1FB03569CF0000F18BF4EF0010EFA
:10050800A4F1FF04B6F5007F64F5407404D25FEAF5
:100518004E0E6D4146EB060642EAC62141EA5551A8
:100528004FEAC52040EA5E504FEACE2EB4F1FD0CEA
:1005380088BFBCF5E06F1ED8BEF1004F08BF5FEA68
:10054800500E50F1000041EB045170BD06F000461A
:1005580046EA010140EA020081EA0301B4EB5C04C7
:10056800C2BFD4EB0C0541EA045170BD41F48011BF
:100578004FF0000E013C00F3AB8014F1360FDEBFE4
:10058800002001F0004170BDC4F10004203C35DAC0
:100598000C341BDC04F11404C4F1200500FA05F343
:1005A80020FA04F001FA05F240EA020001F00042E4
:1005B80021F0004110EBD37021FA04F642EB06015A
:1005C8005EEA430E08BF20EAD37070BDC4F10C0484
:1005D800C4F1200500FA04F320FA05F001FA04F248
:1005E80040EA020001F0004110EBD37041F1000134
:1005F8005EEA430E08BF20EAD37070BDC4F120053F
:1006080000FA05F24EEA020E20FA04F301FA05F2A6
:1006180043EA020321FA04F001F0004121FA04F24E
:1006280020EA020000EBD3705EEA430E08BF20EA1E
:10063800D37070BD94F0000F0FD101F00046400058
:1006480041EB010111F4801F08BF013CF7D041EADA
:10065800060195F0000F18BF704703F000465200DE
:1006680043EB030313F4801F08BF013DF7D043EAAF
:100678000603704794EA0C0F0CEA135518BF95EA65
:100688000C0F0CD050EA410618BF52EA4306D1D1EC
:1006980081EA030101F000414FF0000070BD50EA0B
:1006A800410606BF1046194652EA430619D094EA95
:1006B8000C0F02D150EA013613D195EA0C0F05D17F
:1006C80052EA03361CBF104619460AD181EA0301D3
:1006D80001F0004141F0FE4141F470014FF000008B
:1006E80070BD41F0FE4141F4780170BD70B54FF026
:1006F800FF0C4CF4E06C1CEA11541DBF1CEA1355A6
:1007080094EA0C0F95EA0C0F00F0A7F8A4EB050487
:1007180081EA030E52EA03354FEA013100F088807E
:100728004FEA03334FF0805545EA131343EA126347
:100738004FEA022245EA111545EA10654FEA0026FC
:100748000EF000419D4208BF964244F1FD0404F5B5
:10075800407402D25B084FEA3202B61A65EB030511
:100768005B084FEA32024FF480104FF4002CB6EBCE
:10077800020E75EB030E22BFB61A754640EA0C004E
:100788005B084FEA3202B6EB020E75EB030E22BF8E
:10079800B61A754640EA5C005B084FEA3202B6EBCF
:1007A800020E75EB030E22BFB61A754640EA9C008E
:1007B8005B084FEA3202B6EB020E75EB030E22BF5E
:1007C800B61A754640EADC0055EA060E18D04FEA1C
:1007D800051545EA16754FEA06164FEAC30343EABC
:1007E80052734FEAC2025FEA1C1CC0D111F4801F89
:1007F8000BD141EA00014FF000004FF0004CB6E782
:1008080011F4801F04BF01430020B4F1FD0C88BF20
:10081800BCF5E06F3FF6AFAEB5EB030C04BFB6EB2B
:10082800020C5FEA500C50F1000041EB045170BD1E
:100838000EF0004E4EEA113114EB5C04C2BFD4EB4B
:100848000C0541EA045170BD41F480114FF0000ECF
:10085800013C90E645EA060E8DE60CEA135594EA4B
:100868000C0F08BF95EA0C0F3FF43BAF94EA0C0F4E
:100878000AD150EA01347FF434AF95EA0C0F7FF4C3
:1008880025AF104619462CE795EA0C0F06D152EA17
:1008980003353FF4FDAE1046194622E750EA4106FB
:1008A80018BF52EA43067FF4C5AE50EA41047FF40C
:1008B8000DAF52EA43057FF4EBAE12E753B94AB9DC
:1008C800002908BF00281CBF4FF0FF314FF0FF3050
:1008D80000F00CB8ADF1080C6DE904CE00F0CEF8CC
:1008E800DDF804E0DDE9022304B07047704700BF7B
:1008F8004FF0FF3C06E000BF4FF0010C02E000BFE4
:100908004FF0010C4DF804CD4FEA410C7FEA6C5CC6
:100918004FEA430C18BF7FEA6C5C1BD001B050EA69
:10092800410C0CBF52EA430C91EA030F02BF90EA54
:10093800020F0020704710F1000F91EA030F58BF13
:10094800994208BF90422CBFD8176FEAE37040F075
:10095800010070474FEA410C7FEA6C5C02D150EA13
:10096800013C07D14FEA430C7FEA6C5CD6D152EACE
:10097800033CD3D05DF8040B704700BF8446104693
:1009880062468C461946634600E000BF01B5FFF792
:10099800B7FF002848BF10F1000F01BD4DF808ED62
:1009A800FFF7F4FF0CBF012000205DF808FB00BF33
:1009B8004DF808EDFFF7EAFF34BF012000205DF88D
:1009C80008FB00BF4DF808EDFFF7E0FF94BF0120DA
:1009D80000205DF808FB00BF4DF808EDFFF7CEFFDB
:1009E80094BF012000205DF808FB00BF4DF808ED1A
:1009F800FFF7C4FF34BF012000205DF808FB00BFEB
:100A08004FEA410C7FEA6C5C02D150EA013C0AD102
:100A18004FEA430C7FEA6C5C02D152EA033C02D1F4
:100A28004FF0000070474FF0010070474FEA410255
:100A380012F5001215D211D56FF47873B3EB625228
:100A480012D94FEAC12343F0004343EA505311F04F
:100A5800004F23FA02F018BF404270474FF00000E1
:100A6800704750EA013005D111F0004008BF6FF01F
:100A7800004070474FF00000704700BF2DE9F04F6D
:100A880007468C46084615463C461946099E002BE3
:100A980040F0C6808242B2FA82F746D94FB1C7F118
:100AA800200E24FA0EFE00FA07F3BD404EEA030CAE
:100AB800BC404FEA1548BCFBF8F91FFA85FE08FB55
:100AC80019C309FB0EFA220C42EA03439A4528D9B6
:100AD800EB1809F1FF3004D29A4502D9A9F10200B6
:100AE8002B44A3EB0A03B3FBF8F208FB123302FB17
:100AF8000EFEA4B244EA0344A64514D92C1902F107
:100B0800FF3303D2A64501D9931E2C44A4EB0E044F
:100B180043EA00401EB10023FC4034607360BDE826
:100B2800F08F4846DDE71346F0E702B9FFDE87BBE2
:100B38000121831A4FEA154EB3FBFEFCAAB20EFB45
:100B48001C330CFB02F8200C40EA0343984563D998
:100B5800EB180CF1FF3004D2984502D9ACF1020031
:100B68002B44A3EB0803B3FBFEFC0EFB1C330CFB6E
:100B780002F2A4B244EA0344A2424FD92C190CF160
:100B8800FF3304D2A24202D9ACF102032C44A41AC6
:100B9800BEE7C7F1200CBD4020FA0CF800FA07F3B5
:100BA80024FA0CFC4FEA154E4CEA0302B8FBFEFC93
:100BB800ABB20EFB1C800CFB03F9110C41EA0040A0
:100BC800814504FA07F423D928180CF1FF3104D21F
:100BD800814502D9ACF102012844A0EB0900B0FB21
:100BE800FEFC0EFB1C000CFB03F892B242EA004329
:100BF80098450FD9EB180CF1FF3204D2984502D969
:100C0800ACF102022B44A3EB080342EA014191E74D
:100C18006146E2E76246F6E76046A2E76346B6E762
:100C2800834205D90EB1C6E900700021084676E76F
:100C3800B3FA83F181B9834201D3BA420AD8BC1A04
:100C480060EB030301209C46002E68D0C6E9004CE7
:100C5800002164E70846F7E7C1F1200C8B4022FA2F
:100C68000CF41C4320FA0CFB4FEA1449BBFBF9F8BF
:100C78001FFA84FE09FB18BB08FB0EFA02FA01F5FD
:100C880000FA01F327FA0CF213431A0C42EA0B425A
:100C9800924507FA01F73ED9A21808F1FF3004D2AD
:100CA800924502D9A8F102002244A2EB0A02B2FB43
:100CB800F9F809FB182208FB0EFE9BB243EA024230
:100CC80096452AD9A21808F1FF3304D2964502D9CD
:100CD800A8F10203224443EA0040A0FB0593A2EBDB
:100CE8000E029A42CE46984602D306D14F4504D208
:100CF800B9EB050E63EB0408013886B1B7EB0E03B8
:100D080062EB080707FA0CFCCB404CEA0303CF4020
:100D1800C6E900379CE74046C7E74346DBE731466C
:100D2800FDE610F8012B11F8013B012A28BF9A4271
:100D3800F7D0D01A7047034613F8012B002AFBD1CD
:100D4800181A0138704700002DE9F04F16461F4663
:100D5800446A99B00546CDE90467DDF8948074B912
:100D6800102006F0A5FD0246686220B9EA21A84BCA
:100D7800A84807F0D1FCC0E901440460C4606B6A6C
:100D8800196851B15A68012393404A608B6028461C
:100D980007F0EAF900226B6A1A603B1EAFBF002316
:100DA800012223F000430593A8BFC8F80030DDF8FE
:100DB8001490994BB8BFC8F8002033EA090319D139
:100DC80042F20F73249A1360C9F31303334300F0FC
:100DD8007F85269B53B9914B22E0914B03930833AF
:100DE800269A1360039819B0BDE8F08F8B4B0393D4
:100DF8000333F5E7DDE90434CDE90C34DDE90C0112
:100E080000220023FFF7CAFD804658B10123249A27
:100E18001360269B002B00F0588582481860431EFB
:100E28000393DFE716AB019317AB00932846DDE980
:100E38000C2307F015FCC9F30A548346002C7FD015
:100E4800DDE90C010D9BA4F2FF34C3F3130343F057
:100E58007F5141F44011CDF84C800022724BFFF7CE
:100E680063F965A3D3E90023FFF716FB64A3D3E96D
:100E78000023FFF75BF9064620460F46FFF7A2FA64
:100E880061A3D3E90023FFF707FB02460B46304670
:100E98003946FFF74BF906460F46FFF7C7FD002214
:100EA8008246002330463946FFF782FD48B1504656
:100EB800FFF788FA32463B46FFF770FD08B90AF19A
:100EC800FF3ABAF1160F58D8DDE90C01574B03EB7E
:100ED800CA03D3E90023FFF76BFD00284FD0002396
:100EE8000AF1FF3A0F93169B1C1B631E099349BF17
:100EF800C4F1010300230693002354BF069309930A
:100F0800BAF1000F3DDB099BCDF838A05344099393
:100F180000230A93229B092B00F28C80052BC4BF67
:100F2800043B2293229BC8BF0024A3F10203D8BF2D
:100F38000124032B00F28A80DFE803F02D4F4D5B7C
:100F4800DDE916431C4404F23243202BC3BFC3F12E
:100F5800400304F2124009FA03F3C3F12003C6BFA9
:100F680026FA00F0184306FA03F0FFF71BFA0123EC
:100F7800A1F1F871013C13936FE70123B2E70F90D9
:100F8800B1E7069BA3EB0A030693CAF100030A9391
:100F980000230E93BEE700230B93239B002B58DC02
:100FA8004FF001094B46CDF82090CDF88C900022E7
:100FB800686A4260042202F114069E4241684ED9D2
:100FC800284607F091F8039000284CD102464FF4C8
:100FD800D571174BCCE60123DEE700230B93239B47
:100FE8000AEB030909F10103012B0893B8BF012398
:100FF800DDE70123F2E700BF61436F63A787D23FB4
:10100800B3C8608B288AC63FFB799F501344D33FEF
:101018001AC3000831C300080000F07F16C3000897
:101028000DC30008EAC200080000F83F30BC000801
:101038008BC30008012400230B9422934FF0FF393F
:1010480000221223CDF820902392B0E701230B93BE
:10105800F4E7DDF88C904B46CDF82090A7E70131F6
:1010680041605200A7E76B6A039A1A60089B0E2B2F
:1010780000F2A880002C00F0A580BAF1000F34DD42
:101088009A4A0AF00F0302EBC3031AF4807FD3E9EC
:101098000034CDE910344FEA2A1416D0DDE90C01EA
:1010A800934B0327D3E90823FFF720FBCDE904017D
:1010B80004F00F048E4E54B9DDE91023DDE9040174
:1010C800FFF714FBCDE9040129E00227F2E7E10765
:1010D80008D5DDE91001D6E90023FFF7DDF9CDE9F0
:1010E8001001013764100836E5E700F0A580DDE956
:1010F8000C01CAF100047D4B04F00F0203EBC2039C
:10110800D3E90023FFF7C8F902270023CDE904013A
:10111800774E2411002C40F08480002BD2D10F9BF5
:10112800002B00F08B80DDE90434CDE91034DDE9D3
:10113800100100226F4BFFF73BFC00287ED0089B74
:10114800002B7BD0B9F1000F38DDDDE9100100225A
:10115800694BFFF7A1F94C46CDE904010AF1FF38C4
:1011680001373846FFF72EF9DDE90423FFF794F934
:101178000022624BFEF7DAFFA1F15076CDE91001AB
:101188001196002C5DD1DDE9040100225C4BFEF7CD
:10119800CBFF02460B46CDE904233346109AFFF7EE
:1011A80025FC002840F09C82DDE90401109A06F134
:1011B8000043FFF7FDFB002840F09082DDE90C3486
:1011C800CDE90434179B002BC0F25281BAF10E0FFF
:1011D80000F34E81454B03EBCA03D3E90034CDE954
:1011E8000634239B002B80F2DB80089B002B00F346
:1011F800D78040F07282DDE906010022404BFFF7FC
:101208004BF9DDE90423FFF7E7FB089C2646002895
:1012180040F048823123039F0AF1010A07F8013B95
:1012280044E2E20705D5D6E90023FFF735F90123A3
:101238000137641008366DE7022770E7D046089C2E
:101248008FE70399294B214412910B9903EBC403AF
:10125800DDE9106753E90223002955D00020294908
:10126800FFF744FA3B463246FEF75EFFCDE9100130
:10127800039FDDE90401FFF7D9FB0446FFF7A2F855
:1012880002460B46DDE90401FEF74EFF02460B4617
:101298003034CDE90423DDE9102307F8014BFFF7CB
:1012A80087FB002874D1DDE9042300201149FEF7EB
:1012B8003BFFDDE91023FFF77BFB002840F0B780F8
:1012C800129B9F423FF47AAFDDE9100100220A4BDE
:1012D800FFF7E2F80022CDE91001DDE90401064B31
:1012E800FFF7DAF8CDE90401C3E700BF30BC000816
:1012F80008BC00080000F03F0000244000001C402B
:10130800000014400000E03F30463946FFF7C4F8BB
:10131800129BCDE91001039C1493DDE90401FFF74A
:1013280085FB1590FFF74EF802460B46DDE90401F0
:10133800FEF7FAFE159B0646303304F8013B129B74
:101348000F469C424FF0000224D1DDE91001B04B5A
:10135800FEF7ECFE02460B4630463946FFF746FBE1
:10136800002863D1DDE910230020A949FEF7DCFE3F
:1013780002460B4630463946FFF71AFB00283FF471
:101388001DAF149F7B1E149317F8013C302BF8D027
:10139800C2463BE09F4BFFF77FF8CDE90401BCE76D
:1013A800039FDDE90489DDE9062340464946FFF746
:1013B8009DF9FFF73BFB0446FFF704F8DDE9062338
:1013C800FFF76AF802460B4640464946FEF7ACFE70
:1013D80004F1300607F8016B039EDDF820C0BE1B40
:1013E800B44502460B4636D1FEF7A0FEDDE90623DA
:1013F80080468946FFF7FAFA58BBDDE906234046DE
:101408004946FFF7CBFA08B1E10722D428465946E6
:1014180006F0AAFE00233B70249B0AF10100186025
:10142800269B002B3FF4DEAC1F60DBE427463B46DF
:101438001F4613F8012D392A07D1039A9A42F7D18A
:101448003022039908F101080A701A7801321A70DB
:101458009EE7D046EBE700226E4BFFF71DF800220F
:10146800002380468946FFF799FA00289BD0CDE7EC
:101478000B9A002A00F0D080229A012A00F3AE804D
:10148800139A002A00F0A68003F233430A9C069FB1
:10149800069A01211A440692099A28461A44099282
:1014A80006F0CAFE0646002F0CDD099B002B09DD5D
:1014B800BB42A8BF3B46069AFF1AD21A0692099A5F
:1014C800D31A09930A9BF3B10B9B002B00F0A88059
:1014D800002C10DD31462246284606F06BFF5A469E
:1014E80001460646284606F0BDFE8046594628466F
:1014F80006F03AFEC3460A9B1A1B04D059462846F2
:1015080006F058FF83460121284606F095FE0E9BFB
:101518000446002B40F386801A460146284606F00A
:1015280049FF229B0446012B7FDD4FF00008236909
:1015380004EB8303186909F0C3FFC0F12000099B7D
:10154800184410F01F0000F09280C0F12003042B13
:1015580040F38A80C0F11C00069B074403440693AD
:10156800099B03440993069B002B05DD59461A463F
:10157800284606F079FF8346099B002B05DD2146A6
:101588001A46284606F070FF04460F9B002B70D0C1
:101598002146584609F0E1FF00286ADA0023594637
:1015A8000A22284606F002FE0B9B83460AF1FF3A00
:1015B800002B00F09481314600230A22284606F0C9
:1015C800F5FDB9F1000F064600F39380229B022B2C
:1015D80057DC8EE0169BC3F1360357E7089B5C1E69
:1015E8000A9BA342B7BF0A9B1C1BE21A0E9BBEBFF5
:1015F8000A949B180E93089BB8BF0024002BBBBF0E
:10160800069B089A069F9F1AACBF089B00233FE7DA
:101618000000E03F000024400A9C069F0B9E42E722
:101628000A9A6BE7229B012B19DC049BBBB9059B2B
:10163800C3F313039BB9059B23F000431B0D1B0544
:1016480083B14FF00108069B01330693099B0133D0
:1016580009930E9B002B7FF46AAF01206FE74FF0D0
:101668000008F6E79846F4E73FF47DAF18461C30CB
:1016780072E7089B002B36DC229B022B33DDDDF85A
:101688002090B9F1000F0DD121464B46052228467E
:1016980006F08CFD01460446584609F05EFF002816
:1016A8003FF7B8AD239B039F6FEA030A4FF000088A
:1016B8002146284606F058FD002E3FF4A7AEB8F1A3
:1016C800000F05D0B04503D04146284606F04CFD32
:1016D8003146284606F048FD98E600242646E1E70C
:1016E800C246264696E50B9BDDF82090002B00F0BD
:1016F800FD80002F05DD31463A46284606F0B4FE47
:101708000646B8F1000F5CD02846716806F0ECFC7C
:10171800074628B9024640F2EA217F4BFFF728BB6B
:10172800326906F10C01023292000C3009F000FD1A
:1017380001223946284606F097FEB0460646039B26
:1017480001330893039B4B440A93049B03F0010362
:101758000993089B2146013B5846049309F016FE5D
:10176800034641463033069058460B9309F0F5FE80
:10177800324681462146284606F0E6FEC2680746FC
:101788000B9B02BB0146584609F0E7FE02460B9B3D
:1017980039462846CDE90B3206F0E6FC229B0C9A26
:1017A800089F43EA0201099B0B430B9B0DD1392B80
:1017B80029D0B9F1000F01DD069B3133049A13706B
:1017C80076E73046B9E70122E2E7B9F1000F06DB18
:1017D800229941EA0909099959EA010120D1002A07
:1017E800ECDD594601222846089306F03DFE2146C5
:1017F800834609F0B2FE0028089B02DCDED1DA0736
:10180800DCD5392BD8D13923049A13703B461F46AF
:1018180017F8012C013B392A50D001321A7047E7DA
:10182800002A03DD392BEED00133C7E7089A0A995D
:1018380002F8013C8A422AD0594600230A22284647
:1018480006F0B4FCB04583464FF000034FF00A029F
:101858004146284607D106F0A9FC80460646089B63
:101868000133089375E706F0A1FC31468046002352
:101878000A22284606F09AFC0646F0E7B9F1000F5E
:10188800CCBF4F4601274FF00008039A174459462A
:1018980001222846089306F0E7FD2146834609F011
:1018A8005CFE0028B2DC02D1089BDB07AED43B46C5
:1018B8001F4613F8012D302AFAD0F9E6039A9A4206
:1018C800A5D131230AF1010A79E7144BFFF7A8BA29
:1018D800269B002B7FF481AA114BFFF7A1BAB9F11F
:1018E800000F03DC229B022B3FF7CBAE039F214660
:1018F800584609F04BFD039A00F1300307F8013B05
:10190800BA1A9145BADD594600230A22284606F03C
:101918004DFC8346EBE700BF8BC30008E9C2000813
:101928000DC30008F0B583B007460E4615460024DF
:101938008DF8074008E0DDB10DF107030222317888
:10194800384607F04AFB0134052C6EDC052CFAD822
:1019580001A353F824F000BF3F19000889190008B3
:10196800AB190008CD190008EF190008111A000872
:101978000DF1070302223146384607F04BFBE2E738
:101988003DB10DF1070303227178384607F025FBB6
:10199800D9E70DF107030322711C384607F03AFB1B
:1019A800D1E73DB10DF107030422B178384607F0BD
:1019B80014FBC8E70DF107030422B11C384607F0F1
:1019C80029FBC0E73DB10DF107030122F178384644
:1019D80007F003FBB7E70DF107030122F11C3846B6
:1019E80007F018FBAFE73DB10DF10703012231798C
:1019F800384607F0F2FAA6E70DF107030122311D78
:101A0800384607F007FB9EE73DB10DF107030822B2
:101A18007179384607F0E1FA95E70DF107030822D6
:101A2800711D384607F0F6FA8DE703B0F0BD00BF28
:101A380030B583B00024009401221B496846FFF7A3
:101A480071FF0DE0E300FF209840009A1040D84055
:101A5800C0B2164D285507F0FDFA28550134E4B2F6
:101A6800022CEFD942F210720023114804F04EFC08
:101A78000028F7DB0F4BDB7A43B90E490123CB7201
:101A88000D4B186883681B68984701900A4B1868C3
:101A980083685B680322054998470190044804F06D
:101AA8000DFC019803B030BD200700201C07002062
:101AB800F4060020C0060020CC06002008B509481E
:101AC80007F0DBFA084B03225A70084A12781A709A
:101AD80000229A700121D9705A71054804F060FDFE
:101AE80008BD00BFF8BC00082007002090020020B5
:101AF8000C07002010B5344B344A1A6000221A71C2
:101B08000A215971082119810121997105219972B8
:101B1800DA722F482F4B186008F064FE002846D070
:101B28000023002B49D12B4B186883681B68264972
:101B38009847002844DB284804F09EF8274C20608A
:101B480081680269136843F4005313600B6840F21C
:101B580001120D219847206883680269126812F4FF
:101B6800005F27D14FF4B8229C6902F4C02302F425
:101B7800A0320D21A0471A4B1A4A5A604FF400525E
:101B88009A60164B18688368DB6913B101221449FF
:101B9800984701221146144808F058FF134808F0E6
:101BA8003CFF1349134808F064FF002010BD6FF094
:101BB8001203B6E74FF47032D6E74FF0FF30F5E77F
:101BC8004FF0FF30F2E700BFC0060020400ECF19EB
:101BD8007CB90008CC06002010BD0008BC06002017
:101BE800B0060020C51A0008F4060020D006002020
:101BF800391A00080C07002030B587B001210020F1
:101C0800FFF778FF254B1B88ADF8143000238DF8BB
:101C18001630ADF812308DF8113022E0204B1868DC
:101C28008368DB680DF1110203920DF11202029232
:101C38004FF0FF344FF0FF35CDE90045032205A9E9
:101C4800984700280ADD0022002305A9154804F05A
:101C5800ADF90DF11201144808F0ECFE134804F038
:101C68002DFB134807F009FA0D4B1B68002BF8D021
:101C780042F2107200230D4804F048FB0028F7DBFD
:101C88000C4BDB7A002BC9D00A490023CB72044BDA
:101C9800186883681B689847C0E700BFD8BB00086E
:101CA800CC060020D0030020D0060020F406002037
:101CB80018BD0008C006002030B585B0224B1B882F
:101CC800ADF80C3000238DF80E30ADF80A300193D2
:101CD8001BE004AB1D1915F8040C07F0BBF905F857
:101CE800040CE3009840019B184301900134E4B2CE
:101CF800022CEED9154C0022214601A8FFF712FE4E
:101D08006278134B1B789A4218D0124807F0B5F93D
:101D1800114A1369526A9B1A0A2B0FD00024002516
:101D280022462B4603A90C4804F09CF922462B4670
:101D38000DF10A01094804F095F9D9E70A200021B4
:101D480004F0FEFFE1E700BFD8BB0008EC06002066
:101D58009002002024BD0008D00300209C0300202E
:101D680008B50B6801330B60014B1B68984708BD29
:101D780000000020014B1860704700BF00000020E1
:101D880000B583B002460B460021019101A9034822
:101D980000F016FA03B05DF804FB00BF691D0008E7
:101DA80084460268002005E000EB8000013203EB66
:101DB8004000303813780449595C11F0040FF3D10E
:101DC800CCF80020704700BFD9C1000870B582B0B8
:101DD800044600230360436083604B78252B02D0C0
:101DE8004E1C01251FE0881CE37045E1237843F071
:101DF80004032370B5B1013614E0237843F00803D7
:101E08002370F7E7237843F010032370F2E7237871
:101E180043F020032370EDE7237843F04003237059
:101E2800E8E7002545B33378203B102BF9D801A209
:101E380052F823F00D1E00082B1E00082B1E000868
:101E4800171E00082B1E00082B1E00082B1E00085A
:101E58002B1E00082B1E00082B1E00082B1E000836
:101E6800031E00082B1E0008F51D00082B1E000885
:101E78002B1E0008211E0008237803F04403442B7E
:101E88005FD00196237843F08003237033782A2BA0
:101E98005CD001A8FFF784FF019B9E420FD02378F6
:101EA80043F0800323706060DBB2C3F34003002873
:101EB80054DB00221343227863F341022270019B12
:101EC80001931B782E2B14BF00230123627863F340
:101ED80041026270002B43D0019B5A1C01925B782F
:101EE8002A2B3FD001A8FFF75BFFA0602378C3F33C
:101EF800400300283EDB00221343227863F34102AB
:101F08002270019803784C3B2E2B00F29D80DFE86D
:101F180003F0909B9B9B9B9B9B9B9B9B9B9B9B9B57
:101F28009B9B9B9B9B9B9B9B9B9B9B9B9B9B339B61
:101F3800579B459B9B9B9B9B9B9B899B9B9B9B9B95
:101F4800820023786FF3861323709AE7637843F04F
:101F580001036370334601330193B1E70122A9E716
:101F68000198CFE7637843F00403637010460130AB
:101F78000190C7E70122BFE7421C4378682B06D0CF
:101F88006378022161F3C603637010461EE063782C
:101F9800012262F3C6036370023017E0421C4378E3
:101FA8006C2B06D06378032161F3C6036370104677
:101FB8000CE06378042262F3C6036370023005E024
:101FC8006378052262F3C6036370013010F8013BA1
:101FD800E370A3F14102372A7DD8DFE802F05E7C86
:101FE8007C7C5E5E5E7C7C7C7C7C7C7C7C7C7C7C83
:101FF8007C7C7C7C7C4F7C7C7C7C7C7C7C7C5E7C64
:102008004F3A5E5E5E7C3A7C7C7C7C654F717C7C62
:10201800717C4F7C7C4F6378062262F3C603637041
:102028000130D3E76378072262F3C6036370013097
:10203800CCE76378082262F3C60363700130237823
:1020480043F002032370C1E763786FF3C60363703C
:10205800BCE7A278012161F30202A270627802F063
:102068007802402A10D0632B13D02378C3F34002A0
:10207800154365F34103237002B070BDA2780221B5
:1020880061F30202A270E9E7217841F001012170B1
:10209800E9E7151E18BF0125E7E7A378042262F3D4
:1020A8000203A3700125E0E7A378032262F3020389
:1020B800A370637803F07803402BD6D10125D4E7C9
:1020C800A378032262F30203A370637813F0780FF6
:1020D800CBD00125C9E7237843F001032370C4E777
:1020E8002DE9F04F83B004460D4601929A460C9EA6
:1020F800D378324A13F802B00BF0030B6F2B0FD0D2
:1021080006D9702B0FD0782B10D14FF0100923E08F
:10211800582B02D04FF00A091EE04FF010091BE0BF
:102128004FF0080918E04FF0100915E04FF00A09C0
:1021380012E0D2B23032D2B206F8012D3A46434606
:1021480020462946FEF7BAFBBC4275F1000319D3B5
:10215800564517D904460D464FF000084F464A46E3
:10216800434620462946FEF7A9FB092AE1D9BBF1D7
:10217800010F03D0D2B25732D2B2DDE7D2B2373232
:10218800D2B2D9E7019B1B7813F0200F05D0B9F123
:10219800080F06D0B9F1100F09D0304603B0BDE8DA
:1021A800F08F019A937843F008039370F5E7019A4A
:1021B800937843F010039370EFE700BFD9C100088C
:1021C8002DE9F04F91B006460D4691460393002441
:1021D80099F80000002800F0D582252808D009F1D8
:1021E80001092946B0470028C0F2CD820134EFE743
:1021F800002304930593069307930893099349468C
:1022080006A8FFF7E3FD02909DF8193013F0010FBF
:1022180000F09780039B1A1D03921F68002FC0F2DD
:1022280088809DF8193013F0040F00F09C80039B00
:102238001A1D0392D3F800A0BAF1000FC0F28A80E9
:102248000023079308939DF81A3003F007039DF8BD
:102258001910C1F3C301012B00F08E80022B00F08E
:10226800D380042B00F02481032B00F03B819DF8E0
:10227800188018F0030B40F03B819DF81B30253B7C
:10228800532B00F2E681DFE813F04001E401E4019A
:10229800E401E401E401E401E401E401E401E4010E
:1022A800E401E401E401E401E401E401E401E401FE
:1022B800E401E401E401E401E401E401E401E401EE
:1022C800E401E401E401E401E401E401E401E401DE
:1022D800E401E401E401E401E401E401E401E401CE
:1022E800E401E401E401E401E401E401E401E401BE
:1022F8008101E401E401E401E401E401E401E40111
:10230800E401E401E4015E016701E401E401E401A0
:10231800E4016701E401E401E401E401BE01810193
:10232800A201E401E4014D01E4018101E401E401B9
:1023380081019DF8183043F004038DF818307F426E
:102348006FE79DF91830002B02DB4FF0FF3768E785
:10235800079F66E79DF819306FF341038DF8193030
:102368004FF0FF3A6CE713F0020F02D0DDF820A01F
:1023780066E74FF0FF3A63E7CB1E042B04D8DFE88B
:1023880003F00B1D29353500039B1A1D03921B68AA
:10239800DA170493059206E0039B1A1D03921B6843
:1023A800DA1704930592012928D002297FF45FAF38
:1023B800BDF91030DA170493059258E7039B0733E9
:1023C80023F0070303F108020392D3E90023CDE9C0
:1023D8000423E8E7039B073323F0070303F108020C
:1023E8000392D3E90023CDE90423DCE7039B1A1DFC
:1023F80003921B68DA1704930592D4E79DF810300E
:1024080004930023059332E7CB1E042B04D8DFE89E
:1024180003F00B1F35414100039B1A1D03921B68F3
:102428000493002305931EE09DF81B30632B07D00F
:10243800039B1A1D03921B6804930023059312E063
:10244800039B1A1D03921B680493002305930AE05B
:10245800039B073323F0070303F108020392D3E930
:102468000023CDE9042301291CD002297FF4FFAE03
:10247800BDF81030049300230593F8E6039B073357
:1024880023F0070303F108020392D3E90023CDE9FF
:102498000423E8E7039B1A1D03921B680493002397
:1024A8000593E0E79DF81030049300230593DEE6DA
:1024B80008290BD0039B073323F0070303F1080215
:1024C8000392D3E90023CDE90423D0E6039B073325
:1024D80023F0070303F108020392D3E90023CDE9AF
:1024E8000423C4E6039B1A1D03921B680493BEE6EB
:1024F800029F3B464A462946304607F099F800288D
:10250800C0F241810444B94662E629462520B04715
:102518000028C0F238810134D8460DF13E0A4FF048
:1025280000099BE0DDF81090BAF1000F07DB514677
:10253800484608F01FFF09EB000AD8468EE04846D7
:10254800FEF7F9FBF7E7049B8DF82830D8460DF124
:10255800290A0DF1280981E018F0080F05D118F0B3
:10256800100804D04FF0200801E04FF02B08049A1F
:10257800059B002B02DB0492059308E0524263EBB3
:102588004303049205934FF02D0800E0D8460DF15F
:102598003E0300930AAB06AADDE90401FFF7A0FD9C
:1025A8008146BAF1000FC0F288800DF13E03A3EB1B
:1025B80009039DF818206FF386128DF818209A45A4
:1025C8007ED9AAEB030307930DF13E0A46E004986F
:1025D80028B9D846DFF8B4A1AAF105093EE00DF103
:1025E8003E0300930AAB06AA0021FFF779FD814656
:1025F8009DF81A3043F010038DF81A3078238DF8BF
:102608001B30D846CDE7049A9DF81930C3F3C303AD
:10261800072B06D8DFE803F0040B0D0F1115191B63
:102628001460D8460DF13E0A4FF0000916E0147008
:10263800F7E71480F5E71460F3E7E31714605360D5
:10264800EFE7E31714605360EBE71460E9E7146001
:10265800E7E7D8460DF13E0A4FF00009B9F1000F3F
:1026680000F08D80AAEB0902B8F1000F00D001320A
:102678009DF81A1011F0100F25D00232079B134451
:1026880011F0400F01D0089A1344002F31DDFF1AD2
:102698009DF8183013F0040F2BD113F0400F17D00A
:1026A800B8F1000F17D029464046B04700286ADB2A
:1026B8000134D8464FF0300B0FE00DF13E0ACDE75C
:1026C8000DF13E0ACAE711F0080FD7D00132D5E75D
:1026D8004FF0200B01E04FF0300B3B465F1E002B04
:1026E80007DD29465846B04700284CDB01343B46F5
:1026F800F4E7B8F1000F05D029464046B047002856
:1027080041DB01349DF81A30C3F30012C3F3C00350
:10271800134305D029463020B047002833DB013465
:102728009DF81A3013F0100F06D029469DF81B00AB
:10273800B047002827DB0134079B03F1FF38002B43
:1027480007DD29463020B04700281CDB013443460A
:10275800F3E753464A462946304606F069FF002803
:1027680011DB0444002F07DD29462020B04700284C
:1027780009DB0134013FF5E7DDF8089028E5DDF8CD
:10278800089025E5204611B0BDE8F08F55BD00083A
:1027980082B04FF01002EFF3118382F31288BFF377
:1027A8006F8F83F31188BFF36F8F0B4B0B4A1A603F
:1027B8000B4B5A6A42F080525A625B6A03F08053AC
:1027C8000193019B074A136823F4C05343F4006341
:1027D8001360002002B07047AC00002068FF1F00A3
:1027E800003802400070004010B5044C02E054F874
:1027F800043B9847024B9C42F9D310BD64BB0008C8
:1028080064BB0008064B1B684BB110B55C1E044A3C
:1028180052F8233098472346002CF7D110BD704753
:102828005CBB0008AF281DD8F8B504460F4615460E
:1028380003090E4A52F823608EB1304607F0D2FFE2
:1028480050B100235BB92B463A4604F00F013046DD
:1028580007F03BF90020F8BD6FF01203F2E76FF0C4
:102868001200F8E76FF01500704700BF58BD000868
:10287800014910220A60704710ED00E072B640402E
:1028880080F31188BFF36F8FBFF34F8F30BF62B6ED
:10289800BFF36F8F704700BF40B2002807DB00F01E
:1028A8001F02400901239340014A42F82030704733
:1028B80000E100E0013140B2002808DB0901C9B29B
:1028C80000F1604000F5614080F80013704700F0A7
:1028D8000F000901C9B2014B1954704714ED00E00B
:1028E80030BFFFF7FDBF00BF08B5094B23F06043B9
:1028F80023F07F03074A9360BFF34F8FBFF36F8FB7
:1029080003F088FA04F086FA00F0F4F903F08EFA7E
:102918000000000800ED00E0094A9368986709493B
:102928000968D96708494B6843F080534B60002316
:1029380083F31188BFF36F8F9368D86F704700BF18
:10294800AC0B002018C1000800ED00E012498A68AD
:102958004FF030001044EFF3098C80E8F01F10208E
:1029680080F31288BFF36F8F0C4F4FF000668A69AF
:102978008A603E60906F0023936780F3118804B5E6
:10298800104600F00BFABDE8044002F1300090E870
:10299800F01F8CF309887047AC0B002004ED00E0B1
:1029A8001EF0040F0CBFEFF30880EFF30980816974
:1029B80011F8021C0229FFD001B506F08BFE01BDFB
:1029C80010B4A2F120040D4942F8081C21F00101BD
:1029D80042F8081C42F8203C019B42F81C3C029B30
:1029E80042F8183C039B42F8143C4FF0807342F8BD
:1029F800043C04650023836710BC70479F9000085F
:102A0800114B9A68EAB110F1160F10D0936EA3F12A
:102A1800200C844505D8834205D98B4205D800216E
:102A28000AE0002108E0002106E0012104E0936E9D
:102A38008B4294BF0021012109B900207047906E94
:102A480070470020704700BFAC0B002008B50D464A
:102A58001446084B986000F0A1F9204685F30988D0
:102A6800002163B681F31188BFF36F8F0022002322
:102A780006F011FBAC0B002001B5EFF30580A0F1C7
:102A880010004FEAC0000449014409C99847BDE84D
:102A9800014002490847000094B90008A92A000823
:102AA800044B99689869884203D003494FF08052D3
:102AB8000A607047AC0B002004ED00E010B5144626
:102AC8000F4B9A6A9A6A9B6A13F4007F0BD00C4BDF
:102AD8009A6B9B6A13F4004F05D021B1084A936A98
:102AE80023F400439362064B9A6A9A6A9A6A42F4FC
:102AF8007F429A62012106F0FFFD2070002010BD80
:102B080000ED00E0074B9A6A9A6A9A6A9A6A9A6A8A
:102B18009A6A9A6A6FEA02426FEA12429A6200203F
:102B2800704700BF00ED00E070B5054616461F4B24
:102B38009A6A9A6A9B6A13F0020F0CD01B4B586B67
:102B48009B6A13F0800F24D039B1184A936A23F096
:102B58008003936201E06FF01500144B9A6A9B6A38
:102B680013F0100F04D1114B9C6A14F0020404D026
:102B78000E4B5C6814F400640ED10C4A936A43F05F
:102B8800FF0393620121284606F0B6FD3070204607
:102B980070BD6FF01500E0E72946FFF731FF0446E6
:102BA8000028EAD080F309880224E6E700ED00E077
:102BB80008B5844600230B701B4BD86A10F002003E
:102BC8002ED1DB6A002B2CDB174BDB6A13F080431A
:102BD80028D0DCF8183033F8022C4DF602739A42EC
:102BE8000FD0114B93F8283073B90F4B93F8293055
:102BF80083B90D4B5B8D9BB29BB16046FFF782FF9B
:102C08000FE0DCF800000CE00A4601216046FFF7FF
:102C18008BFF06E00A4601216046FFF74FFF00E000
:102C2800002008BD1846FCE700ED00E030B58BB089
:102C38000C46264B5968C1F30801002383F3118819
:102C4800BFF36F8F02F07F43B3F17F4F15D102F0CE
:102C58000C03082B14D012F0080F0BD000250DF12F
:102C68002702204606F04DFD86469DF8273053B1D1
:102C78000BB030BD04460125F1E700252C46EEE7F0
:102C880000252C46EBE70DF1040C20686168A2686A
:102C9800E368ACE80F0020696169A269E369ACE800
:102CA8000F0045B1C3F308025AB96FEA53236FEA1C
:102CB8004323089305E0089B23F4FF7323F00103E3
:102CC800089301A9704606F001FDD1E700ED00E088
:102CD800024A536943F010035361704700ED00E066
:102CE800EFF30880EFF3098101B57246FFF79EFF05
:102CF80001BD00BF002206E002F00F01094B0B44A2
:102D0800102119760132382A0ADC53B2002BF3DB82
:102D180003F1604303F56143102183F80013F1E7E1
:102D2800704700BFFCEC00E0102080F311880848D1
:102D38004FF40261401880F30988EFF314800221F0
:102D4800084380F31488BFF36F8FFFF7CDFD0000B1
:102D5800A025002008B5084B9B68834202D004F0E8
:102D68001DF808BDEFF30583002BF8D0034A53681C
:102D780043F080535360F2E7AC0B002000ED00E015
:102D880008B5034B034A0121034806F040FD08BD7E
:102D9800004001200000002084BD000808B5836EB3
:102DA800203B0548036020234360044B83600121D6
:102DB80006F031FD08BD00BF2807002000000B15F4
:102DC800084AC2F898000B6823F01F03034343F036
:102DD8001003C2F89C308B6843F00103C2F8A0309E
:102DE800704700BF00ED00E010B5034C01232278C6
:102DF80006F0E5FC207010BD080C002008B5002383
:102E0800094A127806F0DBFC10F1160F0AD00346C7
:102E180006E0064AC2F898300021C2F8A010013333
:102E2800072BF6DD08BD00BF080C002000ED00E010
:102E3800044B0522C3F89420BFF34F8FBFF36F8F65
:102E4800704700BF00ED00E0BFF35F8F024B002228
:102E5800C3F89420704700BF00ED00E038B50E4B72
:102E68001D68082D15D8FFF7EFFF002409E00A4B6D
:102E7800596804EB4402930019442046FFF7A0FF69
:102E88000134A542F3D8054B1D70FFF7D1FF002090
:102E980038BD4FF0FF30FBE7A8BD0008080C002044
:102EA800014B1860704700BF0800002070B5064647
:102EB8000D46002400E00134AC4208DA054B1B68DB
:102EC800984730550A2801D00D28F4D101342046FE
:102ED80070BD00BF04000020F8B505460F46002469
:102EE80004E0094B1B68307898470134BC4208DA83
:102EF8002E192B5D0A2BF4D1034B1B680D20984724
:102F0800EFE73846F8BD00BF0800002008B50522E5
:102F18000249012006F090FCFEE700BF90BD0008C2
:102F28000246084B1968084BC8180A44C3F10053F5
:102F380003F5A0339A4202D2024B1A6070474FF051
:102F4800FF307047340700201232002070B5044665
:102F58000D46166900E00134AC4214DA1F2CFADC85
:102F68000123A340084A526933EA0202F3D1064A10
:102F7800536156F83430002BEDD006EBC40251688B
:102F880020469847E7E770BD0004014008B50123D3
:102F98008340044A11680B431360034B1856FFF72C
:102FA8007BFC08BD00040140E8BD00081F2806DCC2
:102FB80001238340024A106820EA0300106070472A
:102FC80000040140032932D8DFE801F0020F1B2773
:102FD800012303FA00F0164B9A6822EA00029A606D
:102FE800DA6822EA0000D8607047012303FA00F08B
:102FF8000F4B9A6802439A60DA6822EA0000D860A8
:103008007047012303FA00F0094BDA680243DA60DB
:103018009A6822EA000098607047012303FA00F0DA
:10302800034B9A6802439A60DA681043D860704785
:1030380000040140074B53F830303BB9054B43F8C7
:10304800301003EBC0004260002070476FF00F00A3
:10305800704700BF38070020034B002243F8302098
:1030680003EBC0035A6070473807002084B00B6830
:10307800022B11D0032B1AD01BB16FF0850004B0BE
:1030880070474B680F4AD1691943D161D26913401F
:103098000193019B0020F2E74B680A4A516A1943E1
:1030A8005162526A13400293029B0020E7E74B6883
:1030B800044A116A19431162126A13400393039B6D
:1030C8000020DCE7003802400B68022B0DD0032BF0
:1030D80013D013B16FF08500704749680B4AD36964
:1030E80023EA0103D361002070474968074A536AFD
:1030F80023EA01035362002070474968034A136AB0
:1031080023EA010313620020704700BF0038024021
:1031180070B50C4615460D4B1E680121304606F069
:1031280019FC2368062B0ED8DFE803F00404070A0D
:103138000D0D04002E60002070BD28600020FBE704
:1031480028600020F8E76FF08500F5E7AC00002064
:10315800104B1B6813F0020F09D10E4A136843F095
:10316800010313600B4B1B6813F0020FFAD0094AD6
:10317800936823F0030343F001039360936823F0FB
:10318800F00318439060034B9B6803F00C03042B77
:10319800F9D170470038024010B586B003A806F090
:1031A800D4FB00F01DF801A806F0D7FB0020FFF7BC
:1031B800CFFF0A4C236823F08073236003A901A87A
:1031C80002F0FAFC236823F480332360236823F495
:1031D80080732360002006B010BD00BF0038024095
:1031E80082B0064B1A6A42F001021A621B6A03F0A7
:1031F80001030193019B02B0704700BF00380240F1
:1032080010B504460A2807D0074B1868E1B283684E
:103218005B689847204610BD034B186883685B6855
:103228000D219847F0E700BFB807002010B5044CFF
:103238002046FFF735FE2046FEF79CFD10BD00BF77
:103248000932000808B50948094B186007F0CAFA9E
:1032580028B1002333B9FFF7E9FF002008BD6FF05C
:103268001203F7E76FF01200F8E700BF34B900085F
:10327800B80700204A4201F0030302F0030258BFD6
:10328800534204339A000F2393400A46002919DB5E
:1032980043EAA20303F0030C0CF102010B4A52F8B3
:1032A80021101A0C21EA134392FAA2F262B1B2FA7F
:1032B80082F200FA02F21A430CF1020C034B43F8B3
:1032C8002C207047CA1CE3E72022F2E700000140E7
:1032D800424200F0030302F0030258BF5342043392
:1032E8009A000F2393400246002811DB43EAA2000C
:1032F80000F003030233084A52F82320030C02EAC1
:10330800104093FAA3F32BB1B3FA83F3D840704774
:10331800C21CEBE72023F9E70000014070B582B03A
:1033280006460D460D4B93E8030002AB03E9030084
:103338000B4807F057FA48B1094883681B68694683
:10334800984704462CB1204602B070BD6FF01204B5
:10335800F8E729463046FFF78DFFF4E7DCBB0008A5
:1033680074B80008F8B50C46114647680269B1F50B
:10337800005F1FD01D46B1F5804F34D01D4920464F
:10338800FFF758FE064688BB2146B868FFF7C6FF18
:10339800B5F5802F23D0B5F5C02F22D0B5F5003F65
:1033A8001BD031462046FFF70DFE2046FFF7EEFD05
:1033B8003046F8BD2046FFF78BFFBB68984201D026
:1033C8000026F5E72046FFF7F1FD2046FFF744FE0B
:1033D80000212046FFF7F6FDF2E70221E2E701218E
:1033E800E0E70321DEE76FF08506E1E76FF00F06FF
:1033F800DEE700BF7199000810B5446869B10C3464
:103408000D4807F0EFF928B10B4883681B6821467F
:10341800984710BD6FF01200FBE70C34064807F020
:10342800E1F928B1044883685B6821469847F0E7CA
:103438006FF01200EDE700BF74B800082DE9F04105
:103448008AB00D46D0F80480066902AC764F0FCFDB
:103458000FC497E80F0084E80F00D8F808403368D5
:103468009D4200F0D680AB88C3F34513082B02D0E9
:10347800102B40F0D0806D4807F0B4F9A0B16B4B29
:103488009B68DB689BB101AA4146684898470028B9
:10349800C0F2C4800123082B0CDC019ADA402968A9
:1034A800914207D20133F6E76FF01200EFE76FF0B1
:1034B8005700ECE7082B00F3B480226822F04002A2
:1034C8002260013B0AAA02EB830353F8203C2268DE
:1034D80022F0380213432360AB8813F0020F5FD049
:1034E800236843F002032360AB8813F0040F5CD019
:1034F800236843F001032360236823F444432360D3
:10350800AB8813F0100F55D0236843F08003236075
:10351800236823F400532360AB68002B4FD0236843
:1035280043F400732360636823F004036360AB888B
:1035380013F0010F5BD0236823F482732360AB88F8
:10354800C3F34513082B57D0236843F40063236063
:10355800636823F0100363603560AB68E3B11868F3
:10356800D0B1197A5B7A43F4B0538568046913F4CF
:10357800406F04D013F0010F01D083F4406323F4AB
:10358800805213F0010F3CD0012303FA01F623689F
:10359800334323602B68984700200AB0BDE8F081C8
:1035A800236823F0020323609EE7236823F00103C6
:1035B8002360A1E7236823F080032360A8E7AB8892
:1035C80013F0010F08D0236823F4007323606368A5
:1035D80023F004036360AAE7236823F4007343F429
:1035E80080232360636843F0040363609FE72368D4
:1035F80043F482732360A2E7236823F40063236003
:10360800A6E7012303FA01F6236823EA06032360E9
:10361800C0E70020C1E76FF08500BEE76FF0040047
:10362800BBE76FF01500B8E7E4BB000874B8000802
:1036380070B506694468244807F0D4F800282DD0EE
:10364800214883681B68214698470546002D37D1D5
:10365800A2682169E06806F00EF800281DDB3368CF
:10366800C3B19B68B3B11A68A2B1586803F044FDAE
:1036780033689B681868197A03691A6801238B40B4
:103688001A420ED12B4673B1012303FA01F1836864
:10369800DB68984733696BB1284670BD6FF0120537
:1036A800D4E70123EFE7012303FA01F183681B69DB
:1036B8009847EFE7736006F1080002F0FFFDEBE7BB
:1036C8006FF00400E9E700BF74B8000808B50248C5
:1036D80002F066FF08BD00BF7C00002008B507F0B7
:1036E800F2FB0A220023FDF7E9F8024B1B68C01A17
:1036F80008BD00BF1C08002008B5024807F013FCED
:1037080008BD00BF2803002000B583B0830F8200E6
:10371800121843F1000392185B4100200021CDE903
:103728000001034803F050FD03B05DF804FB00BF3F
:103738002803002008B507F0C6FB0A220023FDF77E
:10374800BDF8014B186008BD1C080020014B186823
:10375800704700BF1C08002070B5044600F134050E
:103768000223BFF35B8F55E8002F012A03D145E8F8
:1037780000310029F7D1BFF35B8F0CBF012600266B
:103788000ED1084BDB6A984700232360BFF35B8F99
:1037980055E8002F45E800310029F9D1BFF35B8FC8
:1037A800304670BD10BF0008F8B517461D461D4CC1
:1037B80054F8346B0223BFF35B8F54E8002F012ABF
:1037C80004D144E8003CBCF1000FF6D1BFF35B8F95
:1037D80027D1144BDB6B1A788A4200D91970114C27
:1037E800E36B1A780146A06B07F0A2FC236C03B1C7
:1037F8001F800C4B5B6C03B11D700B4BDB6A984749
:103808000021084B43F8341BBFF35B8F53E8002FAC
:1038180043E800100028F9D1BFF35B8F304603F06E
:10382800CFFFF8BD2008002010BF000810B50548DC
:103838000468FFF791FF20B11CB10021204603F076
:10384800BFFF10BD2008002070B50D460F490120AC
:10385800BFF35B8F51E8004F002C03D141E800060D
:10386800002EF7D1BFF35B8F0CD134390B60084EB3
:10387800736DD4B221469847B36A214628469847C3
:10388800002070BD6FF00F00FBE700BF5408002058
:1038980010BF000870B58EB014460AAA0A920B929F
:1038A80000230C930D9305930693079308930993AC
:1038B8009DF82130012565F304038DF82130099224
:1038C800204B9B6A002B3AD013462246FFF7BCFFD9
:1038D800002822DB1C4B5E6A1A490395E4B2029465
:1038E800002301930B8E009391F82E3091F82D2030
:1038F80091F82C102846B04700FA05F1C0F341733F
:10390800C200521843F1000392185B41294605A8EA
:1039180003F0AAFE002802DB00200EB070BD0948A3
:10392800FFF71AFF08B10020F7E74FF0FF324FF01A
:10393800FF33294605A803F097FE0020EDE76FF056
:103948001500EAE72008002010BF000810B58CB069
:103958008DF8072008AA0892099200230A930B936E
:10396800039304930593069307939DF81930012058
:1039780060F304038DF819300792204BBFF35B8F77
:1039880053E8002F002A03D143E80004002CF7D1A4
:10399800BFF35B8F2ED1343B08AA1A6099630DF1EF
:1039A8000702DA63109A1A64119A5A64144C636D08
:1039B800FF219847636B00209847DDE90E2301211A
:1039C80003A803F051FE041E04DB9DF807402046BF
:1039D8000CB010BD0B48FFF7BFFE0028F7D14FF021
:1039E800FF324FF0FF33012103A803F03DFE9DF89D
:1039F8000740ECE76FF00F04E9E700BF5408002028
:103A080010BF00082008002070B58AB00C46274B6C
:103A18000122BFF35B8F53E8001F002903D143E85D
:103A280000200028F7D1BFF35B8F3BD1204BDB6828
:103A380020689847E37ACBB91D4B9D69012009900E
:103A480000230893079306930593049303930A228C
:103A58000292228901920093A37962792179A84779
:103A68001448FFF779FE00200AB070BD124B206899
:103A78006168A26807C30E4BDD696379A1794FF4C9
:103A88007A62089200220792069205920120049019
:103A980003922689029601910093237994F90A10DA
:103AA800A847DDE76FF00F00DEE700BF54080020ED
:103AB80010BF0008200800204808002010B508465C
:103AC80011461A460C4B4FF0010CBFF35B8F53E8BD
:103AD80000EFBEF1000F03D143E800C4002CF6D17B
:103AE800BFF35B8F04D1054BDB6B9847002010BDFB
:103AF8006FF00F00FBE700BF5408002010BF00085C
:103B080038B50D4800F134030024BFF35B8F53E848
:103B1800002F43E800410029F9D1BFF35B8F074B21
:103B28004360074BC360074D2B6804309847EB6A26
:103B38009847204638BD00BF2008002035380008C7
:103B4800B137000810BF000808B5044BC01A0011AF
:103B5800034B53F820300020984708BDBC080020CC
:103B68008C00002010B58AB08DF807000DF1070011
:103B78000690012007900892099306AB049302234C
:103B8800059349B10B49486883681C68002304AA57
:103B98000831A0470AB010BD06AB02930223039375
:103BA8000449486883681C6802AB04AA0831A04726
:103BB800F0E700BF9808002070B5054692FAA2F613
:103BC800B6FA86F60AB94FF0FF36002400E0013451
:103BD800032C13D8231D0A4A02EB83035B68AB420C
:103BE800F5D1084B03EBC4031B79B342EFD1A01CFA
:103BF80002EB0010043002F0D3FCE8E770BD00BF10
:103C0800980800207CBF000808B5184B186803699D
:103C18001B6813F0010F1BD10123DBB18368DB683C
:103C2800012198470A20002103F08AF80F4B1868F1
:103C380003691B6813F0010F11D100238BB183684E
:103C4800DB68012198473C20002103F079F808BD82
:103C58000023E2E783681B6901219847E2E7012313
:103C6800ECE783681B6901219847ECE79808002076
:103C7800F8B5054600243EE023F4805213F0010F06
:103C88006ED0012303FA01FC336843EA0C03336066
:103C98003B68984704EB4401394B03EB8101394BEE
:103CA80003EBC4031E790123B340374A4A608B6093
:103CB800231D364A02EB830358688368DB69002BAF
:103CC80056D001229847002858DB231D2F4A02EBC3
:103CD80083035868816803691A680123B3401A424C
:103CE80049D14FF4B8228F6902F4C02302F4A032FC
:103CF8003146B8470134032C40D855F82430002BFE
:103D0800F8D0204B53F8340001F0B6FF231D1F4AAA
:103D180002EB8303586088B31646A01C02EB001020
:103D28001B49043006F0A5FE231D06EB83067068C8
:103D3800144B03EBC40319795B7943F4002343F470
:103D480080738768066903F48052002A94D013F4BC
:103D5800406F91D013F0010F8ED083F440638BE74E
:103D6800012303FA01FC336823EA0C0333608FE76D
:103D78006FF08500A7E74FF47032B4E7F8BD00BFD5
:103D8800680800207CBF0008C13B00089808002094
:103D9800513B000830B583B00446324801F06CFF4F
:103DA800314B5860002850D04FF480729A812F4AC6
:103DB8009A600022DA812E4801F05EFF2D4B1860D0
:103DC800002845D006221A7201225A7200225A602F
:103DD8002548036141F60723254906F026FA0546DA
:103DE80010B1284603B030BD4FF47A70002102F0BC
:103DF800A7FF1D4B186803691B6813F0010F1DD13D
:103E08002B46EBB18368DB68012198474FF47A7041
:103E1800002102F095FF01220DF10701422006F072
:103E280045FA002817DB06F03AFA002816DB204688
:103E3800FFF766FE0028D4DA0546D2E70123E0E75B
:103E480083681B6901219847E0E76FF01505C8E70B
:103E58006FF00405C5E76FF00405C2E76FF00405CD
:103E6800BFE700BFCCBE00089808002020A10700CB
:103E780020BE0008FC08002010B582B00B4B9869E2
:103E8800046983685B6801A99847034618B92168E3
:103E9800019A4A40019213B9019BC3F34003002BD6
:103EA80002DC002002B010BD0120FBE798080020CA
:103EB800094B1A68536901E01A465B69516939B1BF
:103EC8001968D0F800C08C45F6D850614361704736
:103ED800506100234361704708090020054B1B68A7
:103EE80000E05B691BB18342FBD1012070470020D1
:103EF800704700BF0809002008B5054B1B680BB1C7
:103F080000225A724361024B186006F03CFA08BD61
:103F18000809002010B582B0044601A806F075F91A
:103F2800F4B12046FFF7DAFFD0B9636823600123B4
:103F3800237200236372114B1B68ABB1FFF7CEFBF2
:103F48002368184420600D4B1B681B68984211D2E7
:103F58002046FFF7D1FF01A806F061F902B010BDB5
:103F680001A806F05CF9F9E7FFF7E4FB2046FFF744
:103F7800C3FFF0E72046FFF79BFFECE708090020A6
:103F880070B5FFF7E3FB0546FFF7D4FBA0EB050C84
:103F98001C4B1E686EB1324602E00021196052695E
:103FA800536933B119686145F7D92C1A214419604E
:103FB800F5E746B17269134B1A6000233372F36850
:103FC800A3B1306998470F4B1B688BB11C68FFF78A
:103FD80085FB84420CD20B4A136859691160002290
:103FE8001A72DA681AB118699047ECE7FEE7FEE73B
:103FF800044B186808B1437A03B170BD06F0C3F9E1
:10400800FBE700BF0809002010B582B0044601A8EC
:1040180006F0FBF81B4B1A685AB154B100232372FF
:10402800A2420AD013462BB3A34220D01A465B699A
:10403800F9E701A806F0F3F81FE0537A73B10023FB
:104048005372506920B10F4B186006F09CF911E0CB
:10405800FFF752FB0B4B00221A600BE0536913B1B8
:10406800084A136006E0074B00221A6002E05B6909
:104078002BB1536101A806F0D2F802B010BD00239D
:104088005361F7E7080900200849A1FB0032120B29
:1040980043F6095303FB120041F6846303EB002344
:1040A800A1FB03131B0B03EB0220704783DE1B43AA
:1040B800002308E0FEE7114B03EBC101087910BCAF
:1040C80070470133DBB2142B17D819460B4A52F844
:1040D80033208242F5D810B45A1C084C54F83220C8
:1040E8008242E8D80133DBB2142BE3D81946034ADD
:1040F80052F833208242F5D8EEE7FEE7B0BF000859
:10410800012806D0022806D008B1002070470348CD
:104118007047034870470348704700BF48E80100EC
:1041280090D0030020A10700064B93F8E1303BB97B
:10413800044B93F80C311BB9024B012283F80C2174
:10414800704700BF400A0020014B93F8E000704719
:10415800400A002038B50546FFF796FF0446094B8C
:10416800C3F8E450C0F30741062006F003FAC4F38D
:104178000721072006F0FEF9E1B2082006F0FAF957
:1041880038BD00BF400A002008B5144B93F8E13051
:10419800012B00D008BD122006F0F8F910F0010F2D
:1041A8000DD00521122006F0E5F90D4B1B68002BF8
:1041B800F0D09B69002BEDD001209847EAE7042155
:1041C800122006F0D7F9064B1B68002BE2D09B693A
:1041D800002BDFD000209847DCE700BF400A002012
:1041E8000C09002038B53A4B93F8E030012B02D087
:1041F800022B51D038BD364B93F8E130C3B1012BB7
:10420800F8D1334B93F82F31002BF3D00221122031
:1042180006F0B0F92F4B1B68002BEBD05C69002C23
:10422800E8D01C2006F0B2F900F03F00A047E1E713
:10423800274B9B6E5BB3264B93F80C31002BD9D0E0
:10424800234B93F80D31002BD4D12348FFF7DCFE24
:104258001F4C012384F80D31112006F097F943080B
:104268005B4284F80E311B2006F090F905021C20F1
:1042780006F08CF9284306F0D0F8C4F810010C2099
:1042880006F084F9C0F3471084F81401B2E7104B24
:10429800012283F80C21CEE70D4B93F8E130012B76
:1042A800A8D10B4B93F82F31002BA3D00221122059
:1042B80006F060F9074B1B68002B9BD05C69002C4B
:1042C80098D01C2006F062F900F03F00A04791E763
:1042D800400A00200C0900201009002008B54C4BAA
:1042E80093F8E030012B02D0022B63D008BD484B75
:1042F80093F8E130CBB1012BF8D1FFF7BDFD0028D1
:10430800F4D04448FFF780FE8021122006F032F9ED
:104318003F4B002283F8E0203F4B1B68002BE5D081
:10432800DB68002BE2D09847E0E7FFF7A5FD0028FF
:10433800DCD03A48FFF768FE354BB3F816315BB965
:10434800334BB3F818313BB9314B93F8FE30F3B91E
:104358000121334806F0CEF82D4BB3F81611B3F807
:104368001821881A93F81A31984217DB5BB2591E44
:10437800C9B22C48104406F0BDF8254A92F81A3103
:10438800B2F818110B44013BA2F81831AEE73220FD
:1043980006F0FCF81E4BA3F81601DDE7891AC9B22E
:1043A8002048104406F0A6F8194BB3F81621A3F8D4
:1043B80018219BE7164B93F8E130002B96D1FFF7B5
:1043C8005BFD012892D0124BB3F81601B3F81821FF
:1043D800A0EB020C93F81B118C450CDD114810441E
:1043E80006F08FF80A4B93F81B21B3F818110A440A
:1043F800A3F818217AE7811AC9B20A48104406F0CE
:1044080080F8034BB3F81621A3F818216EE700BF14
:10441800400A0020280900200C090020100900206B
:10442800560B00204009002010B582B000238DF8FB
:104438000730B04B93F8E030012B04D0022B00F08A
:104448003C8102B010BDAB4B93F8E13043B3012B74
:10445800F7D14021122006F08DF8122006F096F8C8
:104468008DF807009DF8073013F0200F00F0BD808D
:104478002021122006F07EF89E4B93F832311BB9AA
:104488009C4B002283F8E0209B48FFF7BDFD9B4B27
:104498001B68002BD5D01B69002BD2D09847D0E7DA
:1044A800944B93F800310BBB924BB3F816110029CB
:1044B8005ED1B3F81831002B5AD18E4B93F8FE30E9
:1044C800002B4ED101218E4806F014F8894CB4F81F
:1044D8001831B4F81611C91AC9B28A48184406F036
:1044E80009F8B4F81631A4F818314EE03F2006F068
:1044F8004DF88DF807009DF8073013F0020FD3D15F
:104508000B213E2006F036F810213F2006F032F845
:104518007948FFF779FD774B93F80231BBB97A48B0
:10452800FFF772FD734B002283F8E020734B1B6882
:1045380013B11B6903B198476E4B002283F80C2115
:1045480083F80D21A3F81821A3F8162179E70D2087
:1045580006F01CF840F04001C9B20D2006F00AF838
:10456800E4E7322006F012F8624BA3F81601ADE733
:10457800604CB4F81831C91AC9B26248184405F039
:10458800B9FFB4F81631A4F818315B48FFF73CFDC1
:10459800584B93F80231F3B9564B002283F8E020C8
:1045A8005948FFF731FD554B1B684BB19C683CB12E
:1045B8005049002391F90E21B1F816115148A0472E
:1045C8004C4B002283F80C2183F80D21A3F8182105
:1045D800A3F8162135E70D2005F0D8FF40F040017B
:1045E800C9B20D2005F0C6FFDDE7192005F0CEFFA2
:1045F80043B202339B103F4C84F83C311A2005F03B
:10460800C5FF00B294F93C21002A39DB394BD3F8B5
:10461800E4203E4B9A4249D900EB20109D38354B97
:10462800A3F83E01132005F0B1FF324C84F8400195
:10463800102005F0ABFF01460D2005F09BFF94F814
:104648004011304805F056FF94F8323113B9002272
:1046580084F8E0202848FFF7D7FC284B1B68002B7C
:104668003FF4EFAE9C68002C3FF4EBAE214991F982
:104678003C31B1F93E2191F840112248A047E0E6CB
:10468800D4F8E410214B994207D900EB201003B26B
:1046980013449D3BA4F83E31C4E700EB201003B25D
:1046A8001344A43B134AA2F83E31BBE700EB2010A9
:1046B800A438104BA3F83E01B4E71548FFF7A4FC53
:1046C8000C4B93F8E130012B0ED00A4B002283F8F3
:1046D800E0200A4B1B68002B3FF4B3AE1B68002B8D
:1046E8003FF4AFAE9847ACE60821122005F042FF30
:1046F800EBE700BF400A0020280900200C09002031
:10470800560B0020400900201009002040DD4A1FF8
:10471800840B002038B5092005F038FF054606202F
:1047280005F034FF0404072005F030FF44EA0024B4
:10473800082005F02BFF204305F06FFE04460021FA
:10474800092005F017FF3B2005F020FF40F040014D
:10475800C9B23B2005F00EFF3B2005F017FF10F013
:10476800200FF9D10C48FFF7F5FC3B2005F00EFFB0
:1047780040F04001C9B23B2005F0FCFE3B2005F0AB
:1047880005FF10F0200FF9D12946092005F0F2FEA7
:104798002046FFF7DFFC38BD00A1BC3308B50A4846
:1047A800FFF732FC0948FFF72FFC0948FFF72CFCFC
:1047B800002005F0F7FE002005F076FD054B0022ED
:1047C80083F8E02008BD00BF28090020840B0020E2
:1047D80010090020400A002008B50848FFF714FC1B
:1047E8000748FFF711FC0748FFF70EFC012005F00A
:1047F800D9FE054B002283F8E02008BD28090020D7
:10480800840B002010090020400A002010B504463F
:104818002948FFF7F9FB2146284805F0D3FD284B26
:1048280093F8E13063B1012B23D0254B022283F8A2
:10483800E0202248FFF76EFB032005F0B3FE10BD11
:10484800402005F0A3FE00F00301402005F092FE91
:10485800412005F09BFE00F03E01412005F08AFE54
:10486800352005F093FE00F03F00154B83F81A0140
:10487800DBE7134B93F82F3173B1F521112005F0C5
:1048880079FE402005F082FE00F0330141F040013E
:10489800402005F06FFEC8E7F721112005F06AFEF9
:1048A800402005F073FE00F03F0141F04001402038
:1048B80005F060FEB9E700BF28090020840B00203E
:1048C800400A002030B583B004468DF80710444BE9
:1048D80093F8E13033B1012B3AD00020FFF796FF6F
:1048E80003B030BD3E4B0022A3F818219DF80710F5
:1048F800A3F8161193F8FE30EBB901210DF107006A
:1049080005F0FFFD9DF80720531EDBB23F2B16D89C
:10491800334B83F81B21324D95F81B11204605F0C7
:10492800F0FD95F81B31B5F818211344A5F8183196
:10493800D5F80401D2E7322005F01CFEE2E7214653
:10494800284805F015FD264B202283F81B21E2E7B5
:10495800234B93F8313153B3332005F017FE00F0A1
:10496800BE01332005F006FE19213B2005F002FEAA
:104978009DF807101A4B83F84011222005F0FAFD24
:1049880000210E2005F0F6FD00210D2005F0F2FDB6
:10499800012005F0FBFD30F0F8031AD09DF8071050
:1049A800204605F0AEFD0E4BD3F8340196E73320D0
:1049B80005F0ECFD41B221F0410141F0010101F0A7
:1049C800BF01332005F0D6FD1D213B2005F0D2FDA7
:1049D800CEE7FFF701FF012005F01BFDDEE700BF72
:1049E800400A00204009002070B504469D48FFF7A2
:1049F8000BFB9D4B93F8E130E3B1012B45D000262A
:104A08004FF480720021994806F0A0FB964B0122D2
:104A180083F8E020002C40F00781934B93F8E130B5
:104A2800002B00F00A81002E00F01881052005F007
:104A3800B9FD70BD8C4D95F80261402005F0A6FDCA
:104A480000F0030141F00C01402005F093FD4120E6
:104A580005F09CFD60F03E01C9B2412005F08AFDD9
:104A6800352005F093FD00F03F0085F81A011E215E
:104A78000D2005F07FFD002385F80C3185F80D31F8
:104A8800A5F81831A5F81631BAE7774B93F8313104
:104A980053B3332005F07AFD40F04101C9B2332009
:104AA80005F068FD19213B2005F064FD6E4BD3F835
:104AB8002031082B00F28780312005F067FD00F0D7
:104AC8007F01312005F056FD0021302005F052FD10
:104AD800654BD3F82031082B7ED8DFE803F0172484
:104AE800313E4B58656A6F00332005F04FFD41B2E7
:104AF80021F0410141F0010101F0BF01332005F02F
:104B080039FD1D213B2005F035FDCFE748212F2039
:104B180005F030FD544BD3F8E40000F5F4500230B2
:104B2800FFF718FB58E044212F2005F023FD4E4BDA
:104B3800D3F8E40000F522503430FFF70BFB4BE0CC
:104B480044212F2005F016FD474BD3F8E40000F56B
:104B580074500430FFF7FEFA3EE044212F2005F0A0
:104B680009FD414BD3F8E40000F5A2405E30FFF7A1
:104B7800F1FA31E044212F2005F0FCFC3A4BD3F840
:104B8800E40000F5F4401230FFF7E4FA24E0442191
:104B98002F2005F0EFFC344BD3F8E40000F5224059
:104BA800C630FFF7D7FA17E040212F2005F0E2FCC6
:104BB80012E040212F2005F0DDFC0DE040212F20E0
:104BC80005F0D8FC08E0312005F0E0FC60F07F013A
:104BD800C9B2312005F0CEFC234B93F8326193F82B
:104BE8002F31A3B11D21112005F0C4FC402005F090
:104BF800CDFC00F03301402005F0BCFC00210F2063
:104C080005F0B8FC00210D2005F0B4FCF8E61F21E2
:104C1800112005F0AFFC402005F0B8FC00F03F0182
:104C2800402005F0A7FCE9E7114D2146284605F08C
:104C3800C9FB2846FFF76EF9EFE6052005F0B2FC40
:104C4800002E7FF4F6AE0B4C074BD3F80811204624
:104C580005F0B8FB2046FFF75DF9EAE6062005F007
:104C6800A1FCE6E6840B0020400A00204009002051
:104C7800280900201009002008B520B101280AD011
:104C88004FF0FF3008BD112005F080FCC0F347004D
:104C9800404200B2F6E70A4BD3F8E420094B9A42A7
:104CA80006D91B2005F072FC00B29D3800B2E9E776
:104CB8001B2005F06BFC00B2A43800B2E2E700BF8D
:104CC800400A002040DD4A1F10B50446012005F0C7
:104CD8005DFC10F0800F21D11D4B002283F8E120EC
:104CE8001B4B93F8E130A34217D0194B83F8E140EE
:104CF800012C18D0002005F055FC012005F046FCD9
:104D080000F07F01012005F035FC0021402005F06E
:104D180031FC3021412005F02DFC10BD0C4B012247
:104D280083F8E120DCE7002005F03CFC012005F0D9
:104D38002DFC60F07F01C9B2012005F01BFC0021A9
:104D4800402005F017FC0021412005F013FCE4E7A2
:104D5800400A002038B5194B1860194C21461948EB
:104D680005F027FB2146184805F023FB2146174884
:104D780005F01FFBFEF748FFFFF7CCFC002005F00D
:104D880011FC1348FEF774FF00240CE0114A04EBF1
:104D98004403D518D05CFFF797FFA978687805F029
:104DA800E9FB0134E4B20F2CF0D90020FFF78CFFA7
:104DB800094B002283F8E02038BD00BF0C09002011
:104DC800DD530008840B002028090020100900206A
:104DD8008C00002060C00008400A00202DE9F04F38
:104DE80085B00446019115460393BDF83C80BDF893
:104DF80040A09DF844709DF848909DF84C609DF83F
:104E080058B09DF85C300293FFF75EFF24B1012C87
:104E180069D005B0BDE8F08FA04B019CC3F8F04005
:104E2800C3F8F8500E9AC3F8F42083F8FE7083F89C
:104E3800FF9083F8006183F801B1029A83F8022198
:104E4800A3F8FC804FF4FA5202FB0AFABAFBF5F217
:104E5800C3F80821924BB3FBF5F5C5F307210220EF
:104E680005F088FBE9B2032005F084FB2046FFF734
:104E78001FF90146122005F07DFB0E98FFF718F97F
:104E88000146132005F076FB4FEA1821252005F08E
:104E980071FB5FFA88F1262005F06CFBDFB149460B
:104EA800322005F067FB302005F070FB00F06F0141
:104EB800B7B10023194341EA0611C9B2302005F001
:104EC80059FB312005F062FB40F04001C9B23120A6
:104ED80005F050FB9DE7FF21322005F04BFBE2E790
:104EE8006FF07F03E6E7019B022B00D9FEE7019CE8
:104EF80007346A4BC3F82041C3F82451039A83F856
:104F08002921A3F82A8183F82C7183F82D9183F83D
:104F18002E619DF8502083F82F219DF8542083F8A6
:104F2800302183F831B1029A83F832210C2D03D84D
:104F3800052D02D8062500E00C25072C63D0082C87
:104F48006AD0564B002283F828211D2005F01EFB4D
:104F58002301DAB2039B5B00DBB2134343EA070188
:104F68001D2005F007FB1E2005F010FB00F00803CC
:104F78002A01D2B21A43B300DBB21343CAF30121A8
:104F880019431E2005F0F6FA262005F0FFFA41B273
:104F980021F00801414B93F8283141EAC301C9B215
:104FA800262005F0E7FA5FFA8AF11F2005F0E2FAF9
:104FB8004FEA1821202005F0DDFA5FFA88F1212058
:104FC80005F0D8FA5FBB354B93F82F3163BB092C3A
:104FD8003AD0092C47D00321362005F0CBFA062D0C
:104FE8004AD0312005F0D2FA41B221F0070141F050
:104FF800030101F0FB01312005F0BCFA0A2137203A
:1050080005F0B8FA05E7A5F10B03012B97D8234B58
:10501800012283F8282198E70C2D92D1F7E7494619
:10502800222005F0A7FACEE7442005F0AFFA60F099
:105038007F01C9B2442005F09DFA184B93F830114E
:10504800242005F097FAC2E7144BD3F8E420154B57
:105058009A42BED90221362005F08CFA64213A2002
:1050680005F088FABBE70221362005F083FA7F2194
:105078003A2005F07FFAB2E7312005F087FA41B20D
:1050880021F0070141F0050101F0FD01312005F093
:1050980071FA0C21372005F06DFABAE6400A0020B3
:1050A8000048E80140DD4A1F2DE9F04F83B004466F
:1050B8000D46019200939DF83490BDF838709DF824
:1050C8003C809DF840609DF844B09DF84CA0FFF7E7
:1050D800FBFD284605F004F924B1012C57D003B094
:1050E800BDE8F08F814B83F8E8500198C3F8EC00D5
:1050F800009AC3F8F0200C9AC3F8F820A3F8FC70C3
:1051080083F8FE8083F8006183F801A1149AC3F83C
:105118000421FEF7B9FF0446C0F30721042005F077
:1051280029FAE1B2052005F025FA714C0C9BB4FB75
:10513800F3F4C4F30721022005F01CFAE1B20320BE
:1051480005F018FA390A252005F014FAF9B22620D4
:1051580005F010FA302005F019FA00F06F01B8F1E7
:10516800000F11D00023194341EA0611C9B23020BB
:1051780005F000FA312005F009FA40F04001C9B203
:10518800312005F0F7F9AAE76FF07F03EBE7574BFB
:1051980083F81C51009B022B00D9FEE7009C0734C2
:1051A800524BC3F820410C9AC3F8242183F8299163
:1051B800A3F82A7183F82C8183F82FB19DF8482031
:1051C80083F8302183F82E6183F831A1149AC3F84B
:1051D80034210C9B0C2B04D8052B04D806230C93E4
:1051E80001E00C230C93072C51D0082C58D03F4BCE
:1051F800002283F82821BBF1000F55D11D2005F0AE
:10520800C5F92301DAB24FEA4903DBB2134343EA93
:1052180008011D2005F0AEF91E2005F0B7F900F0D1
:105228000B010C9B1B01DBB21943B300DBB2194322
:105238001E2005F09FF9262005F0A8F941B221F0BB
:1052480008012A4B93F8283141EAC301C9B2262044
:1052580005F090F9390A202005F08CF9F9B22120DF
:1052680005F088F90C9B062B2ED0312005F08EF91D
:1052780041B221F0070141F0030101F0FB013120A7
:1052880005F078F90A21372005F074F927E70C9B17
:105298000B3B012BA9D8154B012283F82821AAE73B
:1052A8000C9B0C2BA3D1F6E7442005F06FF960F0B6
:1052B8007F01C9B2442005F05DF90C4B93F8301119
:1052C800242005F057F999E7312005F05FF941B23C
:1052D80021F0070141F0050101F0FD01312005F041
:1052E80049F90C21372005F045F9F8E6400A002075
:1052F8000048E80130B58BB00D464FF47A7402FBD4
:1053080004F4FEF727FF0894002007900690059004
:10531800049003900523029301904FF49653009351
:10532800034602462946FFF7BFFE312005F02EF955
:1053380000F0BF01312005F01DF9F021402005F0F3
:1053480019F9A021412005F015F9084D21462846F4
:1053580005F038F8064B022283F8E0202846FEF7CD
:10536800D9FD032005F01EF90BB030BD840B0020D9
:10537800400A002038B504460D46FFF7A5FC14B1D5
:10538800012C0AD038BD074B93F8FE30002BF9D119
:105398002946322005F0EEF8F4E72946232005F0E7
:1053A800E9F8EFE7400A002010B504460120FFF7AE
:1053B8008BFC074B83F8384124B13421392005F0A0
:1053C800D9F810BD1221392005F0D4F8F9E700BF4B
:1053D800400A002038B5334B93F8E030012B02D057
:1053E800022B33D038BD2F4B93F8E13043B12E4B0D
:1053F8001B68002BF6D0DB68002BF3D09847F1E749
:10540800284C84F80C3184F80D31A4F81831A4F82C
:1054180016310B213E2005F0ADF810213F2005F094
:10542800A9F894F802314BB10D2005F0AFF840F01F
:105438004001C9B20D2005F09DF8D8E7194B0022AC
:1054480083F8E0201948FEF7DFFDD0E7FEF7DCFB24
:10545800FFF760F9002005F0A5F800240CE0144AD5
:1054680004EB4403D518D05CFFF72EFCA9786878C4
:1054780005F080F80134E4B20F2CF0D90020FFF7D2
:1054880023FC084C94F83801FFF78EFF002384F8BA
:10549800E030054B1B68002BA4D05B68002BA1D023
:1054A80098479FE7400A00200C09002010090020B7
:1054B80060C000082DE9F04782B00C4606694368D1
:1054C8001D680A79012A00F09180022A40F0918033
:1054D8004FF4806C6379012B00F09180022B00F06F
:1054E8009080002B00F088804FF40057A1790429A0
:1054F80000F08A80002A40F08A804FF0000894F873
:1055080007A0BAF1010F00F085804FF0000EA2F15C
:1055180003095FFA89F9B9F1010F40F2C28012B1AB
:10552800042900F0C180002B00F0C180022B00F09C
:10553800C180022940F2C180042900F0C180BAF17B
:10554800000F0FD0634B9D4208D0A3F574439D42D2
:1055580004D003F580639D4240F0B580BAF1010F95
:1055680040F0B480EB6823F40053EB6043681A689A
:10557800D36803F4C0639C4505D0D36823F4C063A3
:105588004CEA0303D36043681A68136903F4405371
:105598009F4204D0136923F440531F4317614368A3
:1055A8001A68D36803F48053984505D0D36823F468
:1055B800805348EA0303D36043681A68536903F4C5
:1055C80040739E4505D0536923F440734EEA0303A4
:1055D8005361D4F80080336898451ED1EB6843F4D2
:1055E8000053EB60002002B0BDE8F0874FF4C06CB8
:1055F80070E74FF0000C6DE74FF4805776E700270F
:1056080074E74FF4405771E74FF4805877E74FF449
:10561800805874E74FF4407E79E70369D0F8049026
:1056280059F8087BD3F804A0504605F0DBF890B38E
:10563800DAF80830DB688BB301AA49465046984728
:10564800002825DBFB6823F40043FB60019A02EB8A
:10565800820202EB82024FEA8808B2FBF8F21E4887
:10566800A0FB02135B09190189B24FF0640C0CFB13
:1056780013231B013233A0FB0323C3F34F1303F09F
:10568800F0020A4492B203F00F0313449BB2BB60CA
:1056980023683360A2E76FF01200D1E76FF057007C
:1056A800CEE76FF085009EE76FF085009BE76FF00F
:1056B800850098E76FF0850095E76FF0850092E721
:1056C8006FF085008FE76FF085008CE76FF085003D
:1056D80089E700BF003801401F85EB512DE9F043F1
:1056E80083B006464768D0F810803D4655F8084B09
:1056F8004A48C8F8040005F075F8002876D04748ED
:1057080083681B68294698470546002D40F081802C
:1057180073681A68F969B86903F0ADFF00287BDB84
:10572800E36823F40053E360E36843F00C03E360A9
:105738007B69022B62D0012B5BD000231946E268FB
:1057480022F4B0520B431343E360236923F440531C
:1057580023613B7C2BB173681A68536943F4407327
:105768005361D8F800703369D6F8048058F8086B8C
:10577800D3F80490484605F035F8002843D0D9F806
:105788000830DB68002B41D001AA414648469847BB
:10579800002823DBF36823F40043F360019A02EB4B
:1057A800820202EB8202BF00B2FBF7F21C48A0FBA8
:1057B80002135B09190189B2642707FB13231B0134
:1057C8003233A0FB0323C3F34F1303F0F0020A4460
:1057D80092B203F00F0313449BB2B360E36843F43F
:1057E8000053E360284603B0BDE8F0836FF012056C
:1057F8008BE74FF480534FF4C061A0E74FF4805318
:105808004FF480619BE76FF01200C1E76FF057001B
:10581800BEE76FF00405E5E70546E3E774B800085E
:105828001F85EB514FF0E02399691A69986912F4C2
:10583800803F01D1814208D2074B1A68074909689D
:105848000A441A604FF0E0231B69044B1B681B1ABB
:10585800014A106818447047A80B0020A40B0020C8
:1058680008B5FFF7DFFF0C4B18680C4A11680844AD
:10587800106000221A600A4A1368C01A0949A1FB7D
:105888000010800A4FF4486101FB0033136001F0F7
:10589800B1FBFDF705F908BDA80B0020A00B0020FF
:1058A8009C0B00201F85EB51094B102283F8232005
:1058B80040F67F42074B1A600020074B18604FF0F4
:1058C800E0235A6198611A6942F007021A61704729
:1058D80000ED00E0A40B0020A80B002011B1B0F1EE
:1058E800FF3F0FD070B5374B1D68B0F1FF3F14D0A4
:1058F800461E002E14DD41F278439E4211DD41F22E
:1059080079460EE04FF0E022136923F0010313619A
:105918002C4B4FF07F421A60704741F27940E7E71D
:1059280000264FF01003EFF3118483F31288BFF3BE
:105938006F8FFFF777FF4FF0E0239969224B1A68C2
:1059480010441860214B00221A60214B1B68C21AB0
:1059580015D44FF4486C0CFB062202F67F421D4E0C
:10596800A6FB0262920A1B1A0CFB0233B3F5806F86
:105978000AD9194A934209D9124B1A6008E0114B07
:105988004FF480621A6003E04FF480630D4A13609D
:105998004FF0E0239E690B4A1268013A5A610022CF
:1059A8009A61B14209D2AD1B0D442844064B1860D8
:1059B80084F31188BFF36F8F70BD8D1B2844024B91
:1059C8001860F5E7A40B0020A00B0020A80B00200E
:1059D8009C0B00201F85EB5180E8FF0010B54FF0AD
:1059E8001003EFF3118483F31288BFF36F8FFFF76F
:1059F80019FF074B1B681844064B1B68C01A84F331
:105A08001188BFF36F8F044BA3FB0030800A10BDD1
:105A1800A00B00209C0B00201F85EB5110B54FF008
:105A28001003EFF3118483F31288BFF36F8FFFF72E
:105A3800F9FE044B1B68184484F31188BFF36F8F79
:105A480010BD00BFA00B00200A68920C044B9B5CA1
:105A580003FB00F04B689B0D0133B0FBF3F070477C
:105A6800F8C00008044B1B6813F0007F01D0012028
:105A780070470020704700BF00380240014B186093
:105A8800704700BFAC000020421E1B4B9A4231D227
:105A98001A4B1B6803F4C053B3F5006F1CD0174BA7
:105AA8001B6803F4C053B3F5805F1AD0144B9842B7
:105AB8001CD9144A136843F0040313600121114AE6
:105AC800136823F001030B431360136803F0010309
