:020000040800F2
:10000000402E002005420008FFB60008BD41000850
:10001000BD410008BD410008BD41000800000000CE
:100020000000000000000000000000008D39000802
:10003000BD4100080000000039390008B173000814
:10004000653A0008653A0008653A0008653A000814
:10005000653A0008653A0008653A0008653A000804
:10006000653A0008653A0008653A0008653A0008F4
:10007000653A0008653A0008653A0008653A0008E4
:10008000653A0008653A0008653A0008653A0008D4
:10009000653A0008653A0008653A0008653A0008C4
:1000A000653A0008653A0008653A0008653A0008B4
:1000B000653A0008653A0008653A0008653A0008A4
:1000C000653A0008653A0008653A0008653A000894
:1000D000653A0008653A0008653A0008653A000884
:1000E000653A0008653A0008653A0008653A000874
:1000F000653A0008653A0008653A0008653A000864
:10010000653A0008653A0008653A0008653A000853
:10011000653A0008653A0008653A0008653A000843
:04012000653A000834
:04012400FFFFFFFFDB
:1001280081F0004102E000BF83F0004330B54FEAA0
:1001380041044FEA430594EA050F08BF90EA020F0D
:100148001FBF54EA000C55EA020C7FEA645C7FEAA0
:10015800655C00F0E2804FEA5454D4EB5555B8BFC3
:100168006D420CDD2C4480EA020281EA030382EA34
:10017800000083EA010180EA020281EA0303362DC6
:1001880088BF30BD11F0004F4FEA01314FF4801C99
:100198004CEA113102D0404261EB410113F0004FAB
:1001A8004FEA03334CEA133302D0524263EB430362
:1001B80094EA050F00F0A780A4F10104D5F1200E00
:1001C8000DDB02FA0EFC22FA05F2801841F100015B
:1001D80003FA0EF2801843FA05F359410EE0A5F12F
:1001E80020050EF1200E012A03FA0EFC28BF4CF060
:1001F800020C43FA05F3C01851EBE37101F0004516
:1002080007D54FF0000EDCF1000C7EEB00006EEB22
:100218000101B1F5801F1BD3B1F5001F0CD34908AC
:100228005FEA30004FEA3C0C04F101044FEA445203
:1002380012F5800F80F09A80BCF1004F08BF5FEA8A
:10024800500C50F1000041EB045141EA050130BD6A
:100258005FEA4C0C404141EB0101013C28BFB1F57C
:10026800801FE9D291F0000F04BF01460020B1FAC7
:1002780081F308BF2033A3F10B03B3F120020CDA9A
:100288000C3208DD02F1140CC2F10C0201FA0CF078
:1002980021FA02F10CE002F11402D8BFC2F1200CDD
:1002A80001FA02F120FA0CFCDCBF41EA0C01904093
:1002B800E41AA2BF01EB0451294330BD6FEA0404DC
:1002C8001F3C1CDA0C340EDC04F11404C4F12002C7
:1002D80020FA04F001FA02F340EA030021FA04F3D9
:1002E80045EA030130BDC4F10C04C4F1200220FA30
:1002F80002F001FA04F340EA0300294630BD21FA6E
:1003080004F0294630BD94F0000F83F4801306BF33
:1003180081F480110134013D4EE77FEA645C18BF27
:100328007FEA655C29D094EA050F08BF90EA020FBE
:1003380005D054EA000C04BF1946104630BD91EAB6
:10034800030F1EBF0021002030BD5FEA545C05D1B9
:100358004000494128BF41F0004130BD14F58004F8
:100368003CBF01F5801130BD01F0004545F0FE416C
:1003780041F470014FF0000030BD7FEA645C1ABFA1
:10038800194610467FEA655C1CBF0B46024650EAD8
:10039800013406BF52EA033591EA030F41F4002104
:1003A80030BD00BF90F0000F04BF0021704730B58A
:1003B8004FF4806404F132044FF000054FF000015F
:1003C80050E700BF90F0000F04BF0021704730B520
:1003D8004FF4806404F1320410F0004548BF4042F5
:1003E8004FF000013EE700BF42004FEAE2014FEA4A
:1003F80031014FEA02701FBF12F07F4393F07F4F25
:1004080081F06051704732F07F4208BF704793F027
:100418007F4F04BF41F40021704730B54FF460743A
:1004280001F0004521F000411CE700BF50EA01023D
:1004380008BF704730B54FF000050AE050EA0102E6
:1004480008BF704730B511F0004502D5404261EB56
:1004580041014FF4806404F132045FEA915C3FF497
:10046800D8AE4FF003025FEADC0C18BF03325FEA34
:10047800DC0C18BF033202EBDC02C2F1200300FAE5
:1004880003FC20FA02F001FA03FE40EA0E0021FA0A
:1004980002F11444BDE600BF70B54FF0FF0C4CF4F8
:1004A800E06C1CEA11541DBF1CEA135594EA0C0FAA
:1004B80095EA0C0F00F0DEF82C4481EA030621EAE5
:1004C8004C5123EA4C5350EA013518BF52EA033520
:1004D80041F4801143F4801338D0A0FB02CE4FF0D2
:1004E8000005E1FB02E506F00042E0FB03E54FF002
:1004F8000006E1FB03569CF0000F18BF4EF0010EFA
:10050800A4F1FF04B6F5007F64F5407404D25FEAF5
:100518004E0E6D4146EB060642EAC62141EA5551A8
:100528004FEAC52040EA5E504FEACE2EB4F1FD0CEA
:1005380088BFBCF5E06F1ED8BEF1004F08BF5FEA68
:10054800500E50F1000041EB045170BD06F000461A
:1005580046EA010140EA020081EA0301B4EB5C04C7
:10056800C2BFD4EB0C0541EA045170BD41F48011BF
:100578004FF0000E013C00F3AB8014F1360FDEBFE4
:10058800002001F0004170BDC4F10004203C35DAC0
:100598000C341BDC04F11404C4F1200500FA05F343
:1005A80020FA04F001FA05F240EA020001F00042E4
:1005B80021F0004110EBD37021FA04F642EB06015A
:1005C8005EEA430E08BF20EAD37070BDC4F10C0484
:1005D800C4F1200500FA04F320FA05F001FA04F248
:1005E80040EA020001F0004110EBD37041F1000134
:1005F8005EEA430E08BF20EAD37070BDC4F120053F
:1006080000FA05F24EEA020E20FA04F301FA05F2A6
:1006180043EA020321FA04F001F0004121FA04F24E
:1006280020EA020000EBD3705EEA430E08BF20EA1E
:10063800D37070BD94F0000F0FD101F00046400058
:1006480041EB010111F4801F08BF013CF7D041EADA
:10065800060195F0000F18BF704703F000465200DE
:1006680043EB030313F4801F08BF013DF7D043EAAF
:100678000603704794EA0C0F0CEA135518BF95EA65
:100688000C0F0CD050EA410618BF52EA4306D1D1EC
:1006980081EA030101F000414FF0000070BD50EA0B
:1006A800410606BF1046194652EA430619D094EA95
:1006B8000C0F02D150EA013613D195EA0C0F05D17F
:1006C80052EA03361CBF104619460AD181EA0301D3
:1006D80001F0004141F0FE4141F470014FF000008B
:1006E80070BD41F0FE4141F4780170BD70B54FF026
:1006F800FF0C4CF4E06C1CEA11541DBF1CEA1355A6
:1007080094EA0C0F95EA0C0F00F0A7F8A4EB050487
:1007180081EA030E52EA03354FEA013100F088807E
:100728004FEA03334FF0805545EA131343EA126347
:100738004FEA022245EA111545EA10654FEA0026FC
:100748000EF000419D4208BF964244F1FD0404F5B5
:10075800407402D25B084FEA3202B61A65EB030511
:100768005B084FEA32024FF480104FF4002CB6EBCE
:10077800020E75EB030E22BFB61A754640EA0C004E
:100788005B084FEA3202B6EB020E75EB030E22BF8E
:10079800B61A754640EA5C005B084FEA3202B6EBCF
:1007A800020E75EB030E22BFB61A754640EA9C008E
:1007B8005B084FEA3202B6EB020E75EB030E22BF5E
:1007C800B61A754640EADC0055EA060E18D04FEA1C
:1007D800051545EA16754FEA06164FEAC30343EABC
:1007E80052734FEAC2025FEA1C1CC0D111F4801F89
:1007F8000BD141EA00014FF000004FF0004CB6E782
:1008080011F4801F04BF01430020B4F1FD0C88BF20
:10081800BCF5E06F3FF6AFAEB5EB030C04BFB6EB2B
:10082800020C5FEA500C50F1000041EB045170BD1E
:100838000EF0004E4EEA113114EB5C04C2BFD4EB4B
:100848000C0541EA045170BD41F480114FF0000ECF
:10085800013C90E645EA060E8DE60CEA135594EA4B
:100868000C0F08BF95EA0C0F3FF43BAF94EA0C0F4E
:100878000AD150EA01347FF434AF95EA0C0F7FF4C3
:1008880025AF104619462CE795EA0C0F06D152EA17
:1008980003353FF4FDAE1046194622E750EA4106FB
:1008A80018BF52EA43067FF4C5AE50EA41047FF40C
:1008B8000DAF52EA43057FF4EBAE12E753B94AB9DC
:1008C800002908BF00281CBF4FF0FF314FF0FF3050
:1008D80000F00CB8ADF1080C6DE904CE00F0CEF8CC
:1008E800DDF804E0DDE9022304B07047704700BF7B
:1008F8004FF0FF3C06E000BF4FF0010C02E000BFE4
:100908004FF0010C4DF804CD4FEA410C7FEA6C5CC6
:100918004FEA430C18BF7FEA6C5C1BD001B050EA69
:10092800410C0CBF52EA430C91EA030F02BF90EA54
:10093800020F0020704710F1000F91EA030F58BF13
:10094800994208BF90422CBFD8176FEAE37040F075
:10095800010070474FEA410C7FEA6C5C02D150EA13
:10096800013C07D14FEA430C7FEA6C5CD6D152EACE
:10097800033CD3D05DF8040B704700BF8446104693
:1009880062468C461946634600E000BF01B5FFF792
:10099800B7FF002848BF10F1000F01BD4DF808ED62
:1009A800FFF7F4FF0CBF012000205DF808FB00BF33
:1009B8004DF808EDFFF7EAFF34BF012000205DF88D
:1009C80008FB00BF4DF808EDFFF7E0FF94BF0120DA
:1009D80000205DF808FB00BF4DF808EDFFF7CEFFDB
:1009E80094BF012000205DF808FB00BF4DF808ED1A
:1009F800FFF7C4FF34BF012000205DF808FB00BFEB
:100A08004FEA410C7FEA6C5C02D150EA013C0AD102
:100A18004FEA430C7FEA6C5C02D152EA033C02D1F4
:100A28004FF0000070474FF0010070474FEA410255
:100A380012F5001215D211D56FF47873B3EB625228
:100A480012D94FEAC12343F0004343EA505311F04F
:100A5800004F23FA02F018BF404270474FF00000E1
:100A6800704750EA013005D111F0004008BF6FF01F
:100A7800004070474FF00000704700BF2DE9F04F6D
:100A880007468C46084615463C461946099E002BE3
:100A980040F0C6808242B2FA82F746D94FB1C7F118
:100AA800200E24FA0EFE00FA07F3BD404EEA030CAE
:100AB800BC404FEA1548BCFBF8F91FFA85FE08FB55
:100AC80019C309FB0EFA220C42EA03439A4528D9B6
:100AD800EB1809F1FF3004D29A4502D9A9F10200B6
:100AE8002B44A3EB0A03B3FBF8F208FB123302FB17
:100AF8000EFEA4B244EA0344A64514D92C1902F107
:100B0800FF3303D2A64501D9931E2C44A4EB0E044F
:100B180043EA00401EB10023FC4034607360BDE826
:100B2800F08F4846DDE71346F0E702B9FFDE87BBE2
:100B38000121831A4FEA154EB3FBFEFCAAB20EFB45
:100B48001C330CFB02F8200C40EA0343984563D998
:100B5800EB180CF1FF3004D2984502D9ACF1020031
:100B68002B44A3EB0803B3FBFEFC0EFB1C330CFB6E
:100B780002F2A4B244EA0344A2424FD92C190CF160
:100B8800FF3304D2A24202D9ACF102032C44A41AC6
:100B9800BEE7C7F1200CBD4020FA0CF800FA07F3B5
:100BA80024FA0CFC4FEA154E4CEA0302B8FBFEFC93
:100BB800ABB20EFB1C800CFB03F9110C41EA0040A0
:100BC800814504FA07F423D928180CF1FF3104D21F
:100BD800814502D9ACF102012844A0EB0900B0FB21
:100BE800FEFC0EFB1C000CFB03F892B242EA004329
:100BF80098450FD9EB180CF1FF3204D2984502D969
:100C0800ACF102022B44A3EB080342EA014191E74D
:100C18006146E2E76246F6E76046A2E76346B6E762
:100C2800834205D90EB1C6E900700021084676E76F
:100C3800B3FA83F181B9834201D3BA420AD8BC1A04
:100C480060EB030301209C46002E68D0C6E9004CE7
:100C5800002164E70846F7E7C1F1200C8B4022FA2F
:100C68000CF41C4320FA0CFB4FEA1449BBFBF9F8BF
:100C78001FFA84FE09FB18BB08FB0EFA02FA01F5FD
:100C880000FA01F327FA0CF213431A0C42EA0B425A
:100C9800924507FA01F73ED9A21808F1FF3004D2AD
:100CA800924502D9A8F102002244A2EB0A02B2FB43
:100CB800F9F809FB182208FB0EFE9BB243EA024230
:100CC80096452AD9A21808F1FF3304D2964502D9CD
:100CD800A8F10203224443EA0040A0FB0593A2EBDB
:100CE8000E029A42CE46984602D306D14F4504D208
:100CF800B9EB050E63EB0408013886B1B7EB0E03B8
:100D080062EB080707FA0CFCCB404CEA0303CF4020
:100D1800C6E900379CE74046C7E74346DBE731466C
:100D2800FDE610F8012B11F8013B012A28BF9A4271
:100D3800F7D0D01A7047034613F8012B002AFBD1CD
:100D4800181A0138704700002DE9F04F16461F4663
:100D5800446A99B00546CDE90467DDF8948074B912
:100D6800102008F057FC0246686220B9EA21A84B17
:100D7800A84809F083FBC0E901440460C4606B6AB9
:100D8800196851B15A68012393404A608B6028461C
:100D980009F09CF800226B6A1A603B1EAFBF002363
:100DA800012223F000430593A8BFC8F80030DDF8FE
:100DB8001490994BB8BFC8F8002033EA090319D139
:100DC80042F20F73249A1360C9F31303334300F0FC
:100DD8007F85269B53B9914B22E0914B03930833AF
:100DE800269A1360039819B0BDE8F08F8B4B0393D4
:100DF8000333F5E7DDE90434CDE90C34DDE90C0112
:100E080000220023FFF7CAFD804658B10123249A27
:100E18001360269B002B00F0588582481860431EFB
:100E28000393DFE716AB019317AB00932846DDE980
:100E38000C2309F0C7FAC9F30A548346002C7FD063
:100E4800DDE90C010D9BA4F2FF34C3F3130343F057
:100E58007F5141F44011CDF84C800022724BFFF7CE
:100E680063F965A3D3E90023FFF716FB64A3D3E96D
:100E78000023FFF75BF9064620460F46FFF7A2FA64
:100E880061A3D3E90023FFF707FB02460B46304670
:100E98003946FFF74BF906460F46FFF7C7FD002214
:100EA8008246002330463946FFF782FD48B1504656
:100EB800FFF788FA32463B46FFF770FD08B90AF19A
:100EC800FF3ABAF1160F58D8DDE90C01574B03EB7E
:100ED800CA03D3E90023FFF76BFD00284FD0002396
:100EE8000AF1FF3A0F93169B1C1B631E099349BF17
:100EF800C4F1010300230693002354BF069309930A
:100F0800BAF1000F3DDB099BCDF838A05344099393
:100F180000230A93229B092B00F28C80052BC4BF67
:100F2800043B2293229BC8BF0024A3F10203D8BF2D
:100F38000124032B00F28A80DFE803F02D4F4D5B7C
:100F4800DDE916431C4404F23243202BC3BFC3F12E
:100F5800400304F2124009FA03F3C3F12003C6BFA9
:100F680026FA00F0184306FA03F0FFF71BFA0123EC
:100F7800A1F1F871013C13936FE70123B2E70F90D9
:100F8800B1E7069BA3EB0A030693CAF100030A9391
:100F980000230E93BEE700230B93239B002B58DC02
:100FA8004FF001094B46CDF82090CDF88C900022E7
:100FB800686A4260042202F114069E4241684ED9D2
:100FC800284608F043FF039000284CD102464FF40E
:100FD800D571174BCCE60123DEE700230B93239B47
:100FE8000AEB030909F10103012B0893B8BF012398
:100FF800DDE70123F2E700BF61436F63A787D23FB4
:10100800B3C8608B288AC63FFB799F501344D33FEF
:10101800FAEA000811EB00080000F07FF6EA000881
:10102800EDEA0008CAEA00080000F83F28DA0008DC
:101038006BEB0008012400230B9422934FF0FF3937
:1010480000221223CDF820902392B0E701230B93BE
:10105800F4E7DDF88C904B46CDF82090A7E70131F6
:1010680041605200A7E76B6A039A1A60089B0E2B2F
:1010780000F2A880002C00F0A580BAF1000F34DD42
:101088009A4A0AF00F0302EBC3031AF4807FD3E9EC
:101098000034CDE910344FEA2A1416D0DDE90C01EA
:1010A800934B0327D3E90823FFF720FBCDE904017D
:1010B80004F00F048E4E54B9DDE91023DDE9040174
:1010C800FFF714FBCDE9040129E00227F2E7E10765
:1010D80008D5DDE91001D6E90023FFF7DDF9CDE9F0
:1010E8001001013764100836E5E700F0A580DDE956
:1010F8000C01CAF100047D4B04F00F0203EBC2039C
:10110800D3E90023FFF7C8F902270023CDE904013A
:10111800774E2411002C40F08480002BD2D10F9BF5
:10112800002B00F08B80DDE90434CDE91034DDE9D3
:10113800100100226F4BFFF73BFC00287ED0089B74
:10114800002B7BD0B9F1000F38DDDDE9100100225A
:10115800694BFFF7A1F94C46CDE904010AF1FF38C4
:1011680001373846FFF72EF9DDE90423FFF794F934
:101178000022624BFEF7DAFFA1F15076CDE91001AB
:101188001196002C5DD1DDE9040100225C4BFEF7CD
:10119800CBFF02460B46CDE904233346109AFFF7EE
:1011A80025FC002840F09C82DDE90401109A06F134
:1011B8000043FFF7FDFB002840F09082DDE90C3486
:1011C800CDE90434179B002BC0F25281BAF10E0FFF
:1011D80000F34E81454B03EBCA03D3E90034CDE954
:1011E8000634239B002B80F2DB80089B002B00F346
:1011F800D78040F07282DDE906010022404BFFF7FC
:101208004BF9DDE90423FFF7E7FB089C2646002895
:1012180040F048823123039F0AF1010A07F8013B95
:1012280044E2E20705D5D6E90023FFF735F90123A3
:101238000137641008366DE7022770E7D046089C2E
:101248008FE70399294B214412910B9903EBC403AF
:10125800DDE9106753E90223002955D00020294908
:10126800FFF744FA3B463246FEF75EFFCDE9100130
:10127800039FDDE90401FFF7D9FB0446FFF7A2F855
:1012880002460B46DDE90401FEF74EFF02460B4617
:101298003034CDE90423DDE9102307F8014BFFF7CB
:1012A80087FB002874D1DDE9042300201149FEF7EB
:1012B8003BFFDDE91023FFF77BFB002840F0B780F8
:1012C800129B9F423FF47AAFDDE9100100220A4BDE
:1012D800FFF7E2F80022CDE91001DDE90401064B31
:1012E800FFF7DAF8CDE90401C3E700BF28DA000800
:1012F80000DA00080000F03F0000244000001C4015
:10130800000014400000E03F30463946FFF7C4F8BB
:10131800129BCDE91001039C1493DDE90401FFF74A
:1013280085FB1590FFF74EF802460B46DDE90401F0
:10133800FEF7FAFE159B0646303304F8013B129B74
:101348000F469C424FF0000224D1DDE91001B04B5A
:10135800FEF7ECFE02460B4630463946FFF746FBE1
:10136800002863D1DDE910230020A949FEF7DCFE3F
:1013780002460B4630463946FFF71AFB00283FF471
:101388001DAF149F7B1E149317F8013C302BF8D027
:10139800C2463BE09F4BFFF77FF8CDE90401BCE76D
:1013A800039FDDE90489DDE9062340464946FFF746
:1013B8009DF9FFF73BFB0446FFF704F8DDE9062338
:1013C800FFF76AF802460B4640464946FEF7ACFE70
:1013D80004F1300607F8016B039EDDF820C0BE1B40
:1013E800B44502460B4636D1FEF7A0FEDDE90623DA
:1013F80080468946FFF7FAFA58BBDDE906234046DE
:101408004946FFF7CBFA08B1E10722D428465946E6
:1014180008F05CFD00233B70249B0AF10100186072
:10142800269B002B3FF4DEAC1F60DBE427463B46DF
:101438001F4613F8012D392A07D1039A9A42F7D18A
:101448003022039908F101080A701A7801321A70DB
:101458009EE7D046EBE700226E4BFFF71DF800220F
:10146800002380468946FFF799FA00289BD0CDE7EC
:101478000B9A002A00F0D080229A012A00F3AE804D
:10148800139A002A00F0A68003F233430A9C069FB1
:10149800069A01211A440692099A28461A44099282
:1014A80008F07CFD0646002F0CDD099B002B09DDAA
:1014B800BB42A8BF3B46069AFF1AD21A0692099A5F
:1014C800D31A09930A9BF3B10B9B002B00F0A88059
:1014D800002C10DD31462246284608F01DFE5A46EB
:1014E80001460646284608F06FFD804659462846BC
:1014F80008F0ECFCC3460A9B1A1B04D05946284640
:1015080008F00AFE83460121284608F047FD0E9B95
:101518000446002B40F386801A460146284608F008
:10152800FBFD229B0446012B7FDD4FF00008236959
:1015380004EB830318690BF08EFEC0F12000099BB1
:10154800184410F01F0000F09280C0F12003042B13
:1015580040F38A80C0F11C00069B074403440693AD
:10156800099B03440993069B002B05DD59461A463F
:10157800284608F02BFE8346099B002B05DD2146F3
:101588001A46284608F022FE04460F9B002B70D00E
:10159800214658460BF0ACFE00286ADA002359466B
:1015A8000A22284608F0B4FC0B9B83460AF1FF3A4E
:1015B800002B00F09481314600230A22284608F0C7
:1015C800A7FCB9F1000F064600F39380229B022B7B
:1015D80057DC8EE0169BC3F1360357E7089B5C1E69
:1015E8000A9BA342B7BF0A9B1C1BE21A0E9BBEBFF5
:1015F8000A949B180E93089BB8BF0024002BBBBF0E
:10160800069B089A069F9F1AACBF089B00233FE7DA
:101618000000E03F000024400A9C069F0B9E42E722
:101628000A9A6BE7229B012B19DC049BBBB9059B2B
:10163800C3F313039BB9059B23F000431B0D1B0544
:1016480083B14FF00108069B01330693099B0133D0
:1016580009930E9B002B7FF46AAF01206FE74FF0D0
:101668000008F6E79846F4E73FF47DAF18461C30CB
:1016780072E7089B002B36DC229B022B33DDDDF85A
:101688002090B9F1000F0DD121464B46052228467E
:1016980008F03EFC0146044658460BF029FE002897
:1016A8003FF7B8AD239B039F6FEA030A4FF000088A
:1016B8002146284608F00AFC002E3FF4A7AEB8F1F0
:1016C800000F05D0B04503D04146284608F0FEFB80
:1016D8003146284608F0FAFB98E600242646E1E75A
:1016E800C246264696E50B9BDDF82090002B00F0BD
:1016F800FD80002F05DD31463A46284608F066FD94
:101708000646B8F1000F5CD02846716808F09EFBC9
:10171800074628B9024640F2EA217F4BFFF728BB6B
:10172800326906F10C01023292000C300BF0B8FB62
:1017380001223946284608F049FDB0460646039B73
:1017480001330893039B4B440A93049B03F0010362
:101758000993089B2146013B584604930BF0E1FC92
:10176800034641463033069058460B930BF0C0FDB4
:10177800324681462146284608F098FDC268074649
:101788000B9B02BB014658460BF0B2FD02460B9B71
:1017980039462846CDE90B3208F098FB229B0C9A73
:1017A800089F43EA0201099B0B430B9B0DD1392B80
:1017B80029D0B9F1000F01DD069B3133049A13706B
:1017C80076E73046B9E70122E2E7B9F1000F06DB18
:1017D800229941EA0909099959EA010120D1002A07
:1017E800ECDD594601222846089308F0EFFC214613
:1017F80083460BF07DFD0028089B02DCDED1DA076A
:10180800DCD5392BD8D13923049A13703B461F46AF
:1018180017F8012C013B392A50D001321A7047E7DA
:10182800002A03DD392BEED00133C7E7089A0A995D
:1018380002F8013C8A422AD0594600230A22284647
:1018480008F066FBB04583464FF000034FF00A02EC
:101858004146284607D108F05BFB80460646089BB0
:101868000133089375E708F053FB3146804600239F
:101878000A22284608F04CFB0646F0E7B9F1000FAB
:10188800CCBF4F4601274FF00008039A174459462A
:1018980001222846089308F099FC214683460BF05C
:1018A80027FD0028B2DC02D1089BDB07AED43B46FB
:1018B8001F4613F8012D302AFAD0F9E6039A9A4206
:1018C800A5D131230AF1010A79E7144BFFF7A8BA29
:1018D800269B002B7FF481AA114BFFF7A1BAB9F11F
:1018E800000F03DC229B022B3FF7CBAE039F214660
:1018F80058460BF016FC039A00F1300307F8013B39
:10190800BA1A9145BADD594600230A22284608F03A
:10191800FFFA8346EBE700BF6BEB0008C9EA000853
:10192800EDEA0008F0B583B007460E4615460024D8
:101938008DF8074008E0DDB10DF107030222317888
:10194800384609F0FCF90134052C6EDC052CFAD870
:1019580001A353F824F000BF3F19000889190008B3
:10196800AB190008CD190008EF190008111A000872
:101978000DF1070302223146384609F0FDF9E2E786
:101988003DB10DF1070303227178384609F0D7F904
:10199800D9E70DF107030322711C384609F0ECF969
:1019A800D1E73DB10DF107030422B178384609F0BB
:1019B800C6F9C8E70DF107030422B11C384609F03F
:1019C800DBF9C0E73DB10DF107030122F178384694
:1019D80009F0B5F9B7E70DF107030122F11C384604
:1019E80009F0CAF9AFE73DB10DF1070301223179DA
:1019F800384609F0A4F9A6E70DF107030122311DC5
:101A0800384609F0B9F99EE73DB10DF10703082200
:101A18007179384609F093F995E70DF10703082223
:101A2800711D384609F0A8F98DE703B0F0BD00BF75
:101A380000B583B0074B18680BF088F844F62062AD
:101A48000023CDE90023044807F084FA03B05DF8C9
:101A580004FB00BFDCDB0008B804002008B54FF029
:101A6800FF324FF0FF33124806F0F8FAD8B10022DF
:101A780000231049104806F041F9104B104A9B1AF0
:101A8800DB084FF00002042161F302026FF3C50284
:101A980063F38F120B490C4801F0E0FA0B4B1868FE
:101AA8000BF054F808BD0A4B186806F0BDFEDEE7D7
:101AB80030090020480900203404002014D9000807
:101AC8000CD9000884DB0008F0DA0008DCDB000829
:101AD800D8DB000810B582B000240094ADF80440AB
:101AE8000C4809F094F903238DF801300A4B1B7850
:101AF8008DF800308DF8024001238DF803308DF801
:101B08000540002200236946044806F0F7F802B0B1
:101B180010BD00BF04DB0008940200206804002008
:101B280010B5394B394A1A6000221A710A215971C5
:101B3800082119810121997105219972DA723448B5
:101B4800344B18600AF085FD002848D00023002B8C
:101B580048D1304B186883681B682B499847002880
:101B680047DB2D4805F02CFE2C4C2060816802696B
:101B7800136843F4005313600B6840F201120D21FF
:101B88009847206883680269126812F4005F37D1A9
:101B98004FF4B8229C6902F4C02302F4A0320D214C
:101BA800A0471F4B1F4A5A604FF400529A601B4BC4
:101BB80018688368DB6913B1012219499847012223
:101BC800114619480AF020FE0022184918480BF05F
:101BD800B8F80022174918480BF0B3F810BD6FF099
:101BE8001203B4E74FF0FF304FF0FF3106F06EFFFD
:101BF800AFE74FF0FF304FF0FF3106F067FFB0E777
:101C08004FF47032C6E700BF18090020400ECF1904
:101C180024D70008240900201CDB00081409002030
:101C280008090020DD1A000830090020651A00089C
:101C3800B8040020391A0008F004002000B587B065
:101C4800344B1B88ADF8143000238DF816300393FD
:101C5800ADF810300293019309E02F4B186806F095
:101C680035FD4FF0FF304FF0FF3106F02FFF002217
:101C7800002303A9294806F09DF80028EDD1002289
:101C8800002303A9264806F095F80028E5D101228B
:101C980003A901A8FFF746FE002410E0E300FF2097
:101CA8009840019A1040D840C0B206AB1D1905F8FB
:101CB800040C09F081F805F8040C0134E4B2022C94
:101CC800ECD94FF0FF324FF0FF33164806F0C6F953
:101CD800154BDB7A43B914490123CB72134B1868AF
:101CE80083681B6898470290104B186883685B6884
:101CF800032205A9984702900A4806F087F9064B7F
:101D080018680AF023FF4FF0FF304FF0FF3106F05C
:101D1800DDFEACE7D0D90008D8DB00086804002055
:101D2800340400203009002018090020240900206C
:101D380000B589B0FFF7F4FE002307930693444AE1
:101D48001288ADF814208DF81630ADF812308DF8E1
:101D58001130404B18688368DB680DF1110203925B
:101D68000DF1120202924FF0FF344FF0FF35CDE92A
:101D78000045032205A998470790079B002B44DDDF
:101D88000024002522462B4605A9334805F0B6FF56
:101D980022462B460DF11201304805F0AFFF4FF0F7
:101DA800FF304FF0FF3106F091FE2EE000210A4689
:101DB8004FEA820C4CEA917C8B005B1842EB0C02D8
:101DC800DB1852418168CC680DF1110103910DF1C6
:101DD8001201029100930192032205A9A0470790DE
:101DE800079B002B0EDD0024002522462B4605A963
:101DF800194805F083FF22462B460DF112011748BA
:101E080005F07CFF164806F001F94FF0FF324FF05D
:101E1800FF33134806F022F9124BDB7A3BB1114924
:101E28000023CB720B4B186883681B6898470E48D1
:101E38000AF03BFF0D4BA3FB0030C0080690054B92
:101E48001868069B002BB1D006990022B0E700BFA6
:101E5800D0D900082409002000040020CC03002069
:101E68003009002018090020B8040020CDCCCCCCC3
:101E780080B586B0424B1B88ADF8143000238DF82E
:101E88001630ADF81230039355E006AB03EB0408A7
:101E980018F8040C08F090FF08F8040CE3009840C8
:101EA800039B184303900134E4B2022CEDD9354B5F
:101EB800354A9B1ADB08042262F302056FF3C50555
:101EC80063F38F15DFF8C4802A464146304801F095
:101ED800C5F8304C0022214603A8FFF723FD62789D
:101EE8000AB32D4B1B789A421DD0264C2649641AFA
:101EF800E4084FF0040969F302066FF3C50664F3BA
:101F08008F16ADF800604146244801F043F869F3A4
:101F180002076FF3C50764F38F173A464146204816
:101F280001F09CF807E01B4B9B78092B1CD00A207A
:101F3800002106F0CBFD1B4A1369526A9B1A0A2B33
:101F4800F5D04FF000084FF0000942464B4605A96E
:101F5800144805F02FFF42464B460DF11201124876
:101F680005F028FF0024A0E710480AF0F6FE00223A
:101F78000023CDE900230E4806F0ECFFD7E700BFA9
:101F8800D0D9000814D900080CD900089CDB000837
:101F980024DB000828090020940200203CDB00080C
:101FA80064DB000800040020CC030020B8040020F3
:101FB800F004002008B50B6801330B60014B1B6867
:101FC800984708BD00000020014B1860704700BF0B
:101FD8000000002000B583B002460B4600210191A5
:101FE80001A9034800F02CFA03B05DF804FB00BF18
:101FF800BD1F000810B584B004460190029100216D
:10200800039101A9054800F01BFA039B029A934229
:1020180001DA0022E254039804B010BDE7AD0008CD
:1020280084460268002005E000EB8000013203EBE3
:102038004000303813780449595C11F0040FF3D18B
:10204800CCF80020704700BFB9E9000870B582B02D
:10205800044600230360436083604B78252B02D03D
:102068004E1C01251FE0881CE37045E1237843F0EE
:1020780004032370B5B1013614E0237843F0080354
:102088002370F7E7237843F010032370F2E72378EF
:1020980043F020032370EDE7237843F040032370D7
:1020A800E8E7002545B33378203B102BF9D801A287
:1020B80052F823F08D200008AB200008AB20000860
:1020C80097200008AB200008AB200008AB200008D0
:1020D800AB200008AB200008AB200008AB200008AC
:1020E80083200008AB20000875200008AB200008FA
:1020F800AB200008A1200008237803F04403442BF8
:102108005FD00196237843F08003237033782A2B1D
:102118005CD001A8FFF784FF019B9E420FD0237873
:1021280043F0800323706060DBB2C3F340030028F0
:1021380054DB00221343227863F341022270019B8F
:1021480001931B782E2B14BF00230123627863F3BD
:1021580041026270002B43D0019B5A1C01925B78AC
:102168002A2B3FD001A8FFF75BFFA0602378C3F3B9
:10217800400300283EDB00221343227863F3410228
:102188002270019803784C3B2E2B00F29D80DFE8EB
:1021980003F0909B9B9B9B9B9B9B9B9B9B9B9B9BD5
:1021A8009B9B9B9B9B9B9B9B9B9B9B9B9B9B339BDF
:1021B800579B459B9B9B9B9B9B9B899B9B9B9B9B13
:1021C800820023786FF3861323709AE7637843F0CD
:1021D80001036370334601330193B1E70122A9E794
:1021E8000198CFE7637843F0040363701046013029
:1021F8000190C7E70122BFE7421C4378682B06D04D
:102208006378022161F3C603637010461EE06378A9
:10221800012262F3C6036370023017E0421C437860
:102228006C2B06D06378032161F3C60363701046F4
:102238000CE06378042262F3C6036370023005E0A1
:102248006378052262F3C6036370013010F8013B1E
:10225800E370A3F14102372A7DD8DFE802F05E7C03
:102268007C7C5E5E5E7C7C7C7C7C7C7C7C7C7C7C00
:102278007C7C7C7C7C4F7C7C7C7C7C7C7C7C5E7CE1
:102288004F3A5E5E5E7C3A7C7C7C7C654F717C7CE0
:10229800717C4F7C7C4F6378062262F3C6036370BF
:1022A8000130D3E76378072262F3C6036370013015
:1022B800CCE76378082262F3C603637001302378A1
:1022C80043F002032370C1E763786FF3C6036370BA
:1022D800BCE7A278012161F30202A270627802F0E1
:1022E8007802402A10D0632B13D02378C3F340021E
:1022F800154365F34103237002B070BDA278022133
:1023080061F30202A270E9E7217841F0010121702E
:10231800E9E7151E18BF0125E7E7A378042262F351
:102328000203A3700125E0E7A378032262F3020306
:10233800A370637803F07803402BD6D10125D4E746
:10234800A378032262F30203A370637813F0780F73
:10235800CBD00125C9E7237843F001032370C4E7F4
:102368002DE9F04F83B004460D4601929A460C9E23
:10237800D378324A13F802B00BF0030B6F2B0FD04F
:1023880006D9702B0FD0782B10D14FF0100923E00D
:10239800582B02D04FF00A091EE04FF010091BE03D
:1023A8004FF0080918E04FF0100915E04FF00A093E
:1023B80012E0D2B23032D2B206F8012D3A46434684
:1023C80020462946FEF77AFABC4275F1000319D374
:1023D800564517D904460D464FF000084F464A4661
:1023E800434620462946FEF769FA092AE1D9BBF196
:1023F800010F03D0D2B25732D2B2DDE7D2B23732B0
:10240800D2B2D9E7019B1B7813F0200F05D0B9F1A0
:10241800080F06D0B9F1100F09D0304603B0BDE857
:10242800F08F019A937843F008039370F5E7019AC7
:10243800937843F010039370EFE700BFB9E9000801
:102448002DE9F04F91B006460D46914603930024BE
:1024580099F80000002800F0D582252808D009F155
:1024680001092946B0470028C0F2CD820134EFE7C0
:102478000023049305930693079308930993494609
:1024880006A8FFF7E3FD02909DF8193013F0010F3D
:1024980000F09780039B1A1D03921F68002FC0F25B
:1024A80088809DF8193013F0040F00F09C80039B7E
:1024B8001A1D0392D3F800A0BAF1000FC0F28A8067
:1024C8000023079308939DF81A3003F007039DF83B
:1024D8001910C1F3C301012B00F08E80022B00F00C
:1024E800D380042B00F02481032B00F03B819DF85E
:1024F800188018F0030B40F03B819DF81B30253BFA
:10250800532B00F2E681DFE813F04001E401E40117
:10251800E401E401E401E401E401E401E401E4018B
:10252800E401E401E401E401E401E401E401E4017B
:10253800E401E401E401E401E401E401E401E4016B
:10254800E401E401E401E401E401E401E401E4015B
:10255800E401E401E401E401E401E401E401E4014B
:10256800E401E401E401E401E401E401E401E4013B
:102578008101E401E401E401E401E401E401E4018E
:10258800E401E401E4015E016701E401E401E4011E
:10259800E4016701E401E401E401E401BE01810111
:1025A800A201E401E4014D01E4018101E401E40137
:1025B80081019DF8183043F004038DF818307F42EC
:1025C8006FE79DF91830002B02DB4FF0FF3768E703
:1025D800079F66E79DF819306FF341038DF81930AE
:1025E8004FF0FF3A6CE713F0020F02D0DDF820A09D
:1025F80066E74FF0FF3A63E7CB1E042B04D8DFE809
:1026080003F00B1D29353500039B1A1D03921B6827
:10261800DA170493059206E0039B1A1D03921B68C0
:10262800DA1704930592012928D002297FF45FAFB5
:10263800BDF91030DA170493059258E7039B073366
:1026480023F0070303F108020392D3E90023CDE93D
:102658000423E8E7039B073323F0070303F1080289
:102668000392D3E90023CDE90423DCE7039B1A1D79
:1026780003921B68DA1704930592D4E79DF810308B
:1026880004930023059332E7CB1E042B04D8DFE81C
:1026980003F00B1F35414100039B1A1D03921B6871
:1026A8000493002305931EE09DF81B30632B07D08D
:1026B800039B1A1D03921B6804930023059312E0E1
:1026C800039B1A1D03921B680493002305930AE0D9
:1026D800039B073323F0070303F108020392D3E9AE
:1026E8000023CDE9042301291CD002297FF4FFAE81
:1026F800BDF81030049300230593F8E6039B0733D5
:1027080023F0070303F108020392D3E90023CDE97C
:102718000423E8E7039B1A1D03921B680493002314
:102728000593E0E79DF81030049300230593DEE657
:1027380008290BD0039B073323F0070303F1080292
:102748000392D3E90023CDE90423D0E6039B0733A2
:1027580023F0070303F108020392D3E90023CDE92C
:102768000423C4E6039B1A1D03921B680493BEE668
:10277800029F3B464A462946304608F072FC00282C
:10278800C0F241810444B94662E629462520B04793
:102798000028C0F238810134D8460DF13E0A4FF0C6
:1027A80000099BE0DDF81090BAF1000F07DB5146F5
:1027B80048460AF0AAFC09EB000AD8468EE04846CB
:1027C800FEF7B9FAF7E7049B8DF82830D8460DF1E3
:1027D800290A0DF1280981E018F0080F05D118F031
:1027E800100804D04FF0200801E04FF02B08049A9D
:1027F800059B002B02DB0492059308E0524263EB31
:102808004303049205934FF02D0800E0D8460DF1DC
:102818003E0300930AAB06AADDE90401FFF7A0FD19
:102828008146BAF1000FC0F288800DF13E03A3EB98
:1028380009039DF818206FF386128DF818209A4521
:102848007ED9AAEB030307930DF13E0A46E00498EC
:1028580028B9D846DFF8B4A1AAF105093EE00DF180
:102868003E0300930AAB06AA0021FFF779FD8146D3
:102878009DF81A3043F010038DF81A3078238DF83C
:102888001B30D846CDE7049A9DF81930C3F3C3032B
:10289800072B06D8DFE803F0040B0D0F1115191BE1
:1028A8001460D8460DF13E0A4FF0000916E0147086
:1028B800F7E71480F5E71460F3E7E3171460536053
:1028C800EFE7E31714605360EBE71460E9E714607F
:1028D800E7E7D8460DF13E0A4FF00009B9F1000FBD
:1028E80000F08D80AAEB0902B8F1000F00D0013288
:1028F8009DF81A1011F0100F25D00232079B1344CF
:1029080011F0400F01D0089A1344002F31DDFF1A4F
:102918009DF8183013F0040F2BD113F0400F17D087
:10292800B8F1000F17D029464046B04700286ADBA7
:102938000134D8464FF0300B0FE00DF13E0ACDE7D9
:102948000DF13E0ACAE711F0080FD7D00132D5E7DA
:102958004FF0200B01E04FF0300B3B465F1E002B81
:1029680007DD29465846B04700284CDB01343B4672
:10297800F4E7B8F1000F05D029464046B0470028D3
:1029880041DB01349DF81A30C3F30012C3F3C003CE
:10299800134305D029463020B047002833DB0134E3
:1029A8009DF81A3013F0100F06D029469DF81B0029
:1029B800B047002827DB0134079B03F1FF38002BC1
:1029C80007DD29463020B04700281CDB0134434688
:1029D800F3E753464A462946304608F042FB0028AA
:1029E80011DB0444002F07DD29462020B0470028CA
:1029F80009DB0134013FF5E7DDF8089028E5DDF84B
:102A0800089025E5204611B0BDE8F08FE5DB000809
:102A180082B04FF01002EFF3118382F31288BFF3F4
:102A28006F8F83F31188BFF36F8F0B4B0B4A1A60BC
:102A38000B4B5A6A42F080525A625B6A03F0805329
:102A48000193019B074A136823F4C05343F40063BE
:102A58001360002002B07047B000002068FF1F001C
:102A68000038024000700040054B984204D3054BE3
:102A7800984203D300207047002070470120704718
:102A88007CD5000830EC000808B5064B186018B172
:102A9800054B1B68092B00DC08BD044805F0B6FA95
:102AA800FAE700BF84090020500900209C04002098
:102AB80008B5024805F0AAFA08BD00BF9C0400202A
:102AC80008B5034808F0F8FA003818BF012008BD17
:102AD8005C09002030B589B000220F490F480AF080
:102AE80030F90F4D00220023CDE906230024049479
:102AF8000E2303930294019400940A4B4FF44072FE
:102B08000949284609F035FE0849284609F01DFEFE
:102B1800204609B030BD00BFB92A0008A806002029
:102B2800E00600208D310008201B0020E8DB0008AB
:102B380030B5034600208446044601E084F00104D1
:102B480013F8012BB2B18C4514D2252AF6D0002CEB
:102B5800F6D0094D12F805E01EF0030FF0D0732AE5
:102B680003D00CF1010C0024EAE7012202FA0CF26E
:102B78001043F6E730BD00BFB9E9000808B50023E7
:102B88000B4A13700B4A13600B4B0C4A1A604FF434
:102B98007A7000F07DFD00F05BFB094808F07EFAD2
:102BA800042328220749084809F080FD08BD00BF12
:102BB800A90E00205409002004000020D9B0000804
:102BC8005C090020C03B002064090020184BBFF3BB
:102BD8005B8F53E8002F511C43E800100028F8D100
:102BE800BFF35B8F1ABB70B5002409E0114B03EBF0
:102BF80006135B6804221968284600F005FB0134B7
:102C08000D4B0C4A9B1AB4EB231F0FDA2646094DCD
:102C180005EB04152B7B002BF1D02301054AD35873
:102C28009B69002BE2D028469847DFE770BD7047C4
:102C3800580900204CD900085CD9000810B54FF09D
:102C48001003EFF3118483F31288BFF36F8F0448E6
:102C580008F034FA84F31188BFF36F8F10BD00BFFA
:102C68005C09002008B5054B1B781BB1034B0122FA
:102C78001A7008BD024805F0C9F9F7E7A80E002048
:102C88009C040020064BBFF35B8F53E8002F0132F2
:102C980043E800210029F8D1BFF35B8F704700BFDC
:102CA80054090020064B00200246BFF35B8F53E80F
:102CB800000F43E800210029F9D1BFF35B8F70476B
:102CC8005409002038B5FFF7EDFF0546002400E061
:102CD80001340B4B0B4A9B1AB4EB231F0FDA09483C
:102CE80000EB041043685B79002BF1D02301054AFF
:102CF800D3581B69002BEBD029469847E8E738BD25
:102D08005CD900084CD90008034B18680028D4BFC8
:102D180000200120704700BF5409002070B582B020
:102D28000446FFF7A1FE10BB0022002301A91148A9
:102D380004F030FF08B1104C19E0019B0122BFF3E9
:102D48005B8F53E8001F43E800200028F9D1BFF348
:102D58005B8F019D2E1D1F22214630460AF0C2F9C5
:102D68007E2385F82330002385F824303446204616
:102D780002B070BD64090020F0DB000838B1074AD2
:102D8800904206D3A032904205D30020704700201D
:102D98007047002070470120704700BFC03B0020EB
:102DA800037A13F0010F00D070472DE9F04383B088
:102DB800064608F02AFA0746304608F011FA014696
:102DC8003846FFF7B5FE054604E0012202FA04F48E
:102DD80025EA04056DB3B5FA85F4C4F11F0421464C
:102DE800304608F000FA8146FFF73EFE0028ECD195
:102DF8004846FFF7C3FF0028E7D10F4B9945E4D0B9
:102E08007189C1F3891100F0EFF902460B4B0C49A7
:102E18005B1ADB08012161F302086FF3C50863F34D
:102E28008F18ADF800803B462146064800F0B2F8FE
:102E3800CBE703B0BDE8F083F0DB00080CD900084D
:102E48000CD900080CDC0008F8B5064619BB144B71
:102E58001B780BB1002403E0FFF7A2FFFAE7013467
:102E6800104B114A9B1AB4EB231F14DA0E4D05EBD5
:102E780004156B685B79002BF1D03146284608F0C1
:102E880025F90028EBD02701074BDB595B68314651
:102E980028469847E3E7304608F0B9F9F8BD00BF7F
:102EA800A90E00205CD900084CD9000810B50446CA
:102EB800104B1B7803B9C8B1FFF7C0FE024678B1C2
:102EC8000D4BBFF35B8F53E8001F013943E8001037
:102ED8000028F8D1BFF35B8F21461046FFF7B4FFF7
:102EE80014B9FFF711FF10B9FFF7EAFD10BDFFF79E
:102EF800E9FEF9E7A80E00205009002010B582B0BD
:102F08001F4BBFF35B8F53E8002F013243E80021CA
:102F18000029F8D1BFF35B8F1A4B1B7863B91A4BA2
:102F28001B681BB1164A1268012A15D0144A126888
:102F38000A2A1CD002B010BD4FF01003EFF3118421
:102F480083F31288BFF36F8F0020FFF7AFFF84F37E
:102F58001188BFF36F8FEDE700220023CDE900232E
:102F680042F210720023094805F0F4FFE2E7002B53
:102F7800E0D0064809F0F1FE054805F047F8D9E722
:102F880050090020A90E002084090020A80600206E
:102F98009C0400202DE9F04180460F4616461D4648
:102FA80000F07AF9044618B1012343600023038135
:102FB8004CB1C4F81080607A032363F30710607281
:102FC8006761A661E561C4B1BDF8183063810C4B37
:102FD8001B689847E0604FF01003EFF3118583F307
:102FE8001288BFF36F8F2146064808F05BF885F317
:102FF8001188BFF36F8FFFF781FFBDE8F08100BF35
:10300800040000205C09002070B505460E4600F05B
:1030180043F9044618B1012343600023038104B136
:103028002561B4B166810B4B1B689847E0604FF08F
:103038001003EFF3118583F31288BFF36F8F2146D6
:10304800054808F02FF885F31188BFF36F8FFFF755
:1030580055FF70BD040000205C090020F8B5074644
:103068000E46154600F018F9044618B101234360CE
:103078000023038134B12761637A012262F30713C5
:1030880063726661B4B165810B4B1B689847E06059
:103098004FF01003EFF3118583F31288BFF36F8F9E
:1030A8002146064807F0FEFF85F31188BFF36F8FAE
:1030B800FFF724FFF8BD00BF040000205C090020D2
:1030C8002DE9F04180460F4616461D4600F0E4F80B
:1030D800044618B1012343600023038144B1C4F8B6
:1030E8001080607A022363F3071060726761A6613B
:1030F800B4B165810B4B1B689847E0604FF0100333
:10310800EFF3118583F31288BFF36F8F21460648CA
:1031180007F0C8FF85F31188BFF36F8FFFF7EEFE46
:10312800BDE8F081040000205C090020124B1B78E8
:1031380003B1704710B5FFF749FD002400E00134E2
:103148000E4B0F4A9B1AB4EB231F0CDA0C4800EB0A
:10315800041043685B79002BF1D02301084AD35847
:103168005B699847EBE70020FFF7A0FE0028FAD13B
:10317800014B01221A7010BDA90E00205CD900086D
:103188004CD9000808B5FFF721FD05F0B7FCFFF79B
:103198007BFC0020FFF78AFE0028FAD14FF0FF32AF
:1031A8004FF0FF33014804F059FFF2E79C04002078
:1031B80000B583B004380190BFF35B8F50E8003F3F
:1031C8005A1E40E800210029F8D1BFF35B8F012B7C
:1031D80002D003B05DF804FB01A9024809F075FAB2
:1031E800F7E700BF64090020054B064A9B1AB1EBBC
:1031F800D30F02D252F8310070470020704700BF49
:103208004CD900080CD9000808B5074BC31A1B1184
:1032180001334268137143681960436801225A7187
:10322800FFF720FD08BD00BF4CD9000810B582B0DB
:10323800019005E01C6801A9044809F046FA0194C8
:10324800019B002BF6D102B010BD00BF88090020F9
:1032580008B520231A460249024809F027FA08BD92
:10326800603C00208809002010B582B0002301933B
:103278000120FFF71BFE0446FFF704FD0022002390
:1032880001A9044804F086FC08B1002CF0D101988B
:1032980002B010BD8809002000B583B00023019357
:1032A80007F01EFF50B10022002301A9074804F0CF
:1032B80071FC30B9019803B05DF804FB00220023CB
:1032C800F3E7FFF7D1FF0190F4E700BF880900207A
:1032D800F0B583B00190044607F082FF237A13F01B
:1032E800010F01D1064650BB019B1A7A12F0020F5A
:1032F80028D101A9154809F0E8F903B0F0BD0198F3
:1033080007F083FF3146FFF713FC074670B9EBE778
:103318000134B442E8D22146019807F064FF05461B
:10332800FFF72CFD0028F3D0002FE8D027FA04F38C
:1033380013F0010FECD02846FFF73AFFE8E7002723
:103348003C46E6E75869FFF771FFD2E78809002095
:103358000EB400B582B0014603AB53F8042B0193B9
:103368000348FFF76DF802B05DF804EB03B070474F
:10337800B5B5000830B585B011F0440F05D01A4B2B
:103388001C6834B9002005B030BD1849FFF7E0FFCC
:10339800F9E7174B1968B2FBF1F1B1FBF4FC154AD8
:1033A800A2FB0C32D20A4FF4616E0EFB12CE124B06
:1033B800A3FB0E535B0904FB1C114FF47A7C0CFB36
:1033C80001F1B1FBF4F505FB14110CFB01F1B1FBA4
:1033D800F4F102910195C3EB0311AEEB8101009169
:1033E8000649FFF7B5FFCEE7A809002050DC000822
:1033F800AC090020C5B3A291898888885CDC0008E4
:1034080061B108B52AB1064A52F8232012B9054A13
:1034180000E0044A0449FFF79BFF08BD704700BF5E
:10342800D4DC000878DC000880DC000811F0100FFC
:103438000BD108B511F0200F03D00449FFF788FF1E
:1034480008BD0349FFF784FFFAE77047CCE100089D
:1034580084DC00082DE9F04105460F4616469846DB
:103468000699FFF7E3FF0024444505DA2449284676
:10347800FFF76EFF0134F7E7002409E020492846EA
:10348800FFF766FF0BE01F492846FFF761FF01348D
:103498000F2C0CDC002C02DD14F0070FEED0B44228
:1034A800F1D23A5D18492846FFF752FFEFE717496E
:1034B8002846FFF74DFF002409E011492846FFF789
:1034C80047FF0BE012492846FFF742FF01340F2C53
:1034D80013DC002C02DD14F0070FEED0B44207D243
:1034E8003A5D0C4BD35C13F0970FEBD12E22E9E732
:1034F80003492846FFF72CFFE8E7BDE8F08100BF45
:10350800ACDC000890DC000888DC000894DC0008CB
:1035180098DC0008B9E900082DE9F0418046164614
:103528001D46BDF9187059B90024002F1CDB86B15F
:103538000123079A934013F0100F18D10D4E09E09C
:103548000D4B079A53F822200C49FFF701FF044658
:10355800EBE7084E39462846FFF746FE0246314655
:103568004046FFF7F5FE04442046BDE8F081044ECE
:10357800F0E700BF9CDC000810DD0008A8DC0008AC
:10358800A4DC00082DE9F04389B007460E469146B1
:10359800984607F03AFE02460F493046FFF7D8FE34
:1035A800002409E0CDF800804B460DEB05013046BC
:1035B800FFF750FF039D2C4410250395234603AACB
:1035C8000DEB0501384607F035FE039A002AE9D1CC
:1035D80009B0BDE8F08300BF80DC0008F0B583B017
:1035E80006460C4600273D460DE0A268134413F832
:1035F800017C0A2F14BF00270127204607F0C9FFC6
:10360800019B1D4473B1E36801932B4601AAA1688D
:10361800304607F00FFE6368019A1A60019B002B81
:10362800EBD0E2E70FB903B0F0BD02492046FFF73F
:103638008FFEF8E7B0DC000870B582B00446056874
:1036480042F20F738B4228BF0B460E4A052168468B
:1036580007F0EBFB064663685B680B220A492846BD
:1036680007F0F0FD63685B6832466946284607F054
:10367800E9FD63685B681B220449284607F0E2FD00
:1036880002B070BD88E3000804DD0008E8DC00082B
:10369800074B01221A6004E04008054A13685B00E2
:1036A8001360044B9842F7D8034B1860704700BF6B
:1036B800AC09002040420F00A809002070B506465A
:1036C8000D46002406E0054B1868315D83685B6889
:1036D80098470134AC42F6D3284670BDC40900208F
:1036E800014B024A1A607047C4090020DCD6000862
:1036F80008B5024807F04DFF08BD00BF54DD0008BB
:1037080008B50248FFF798FF08BD00BF54DD000860
:1037180010B50C46084607F056FD0F22214603480F
:1037280007F060FF204607F072FD10BD54DD000869
:1037380010B5044C02E054F8043B9847024B9C42F5
:10374800F9D310BD0CD900080CD90008064B1B682A
:103758004BB110B55C1E044A52F8233098472346F3
:10376800002CF7D110BD704704D90008AF281DD828
:10377800F8B504460F46154603090E4A52F8236069
:103788008EB1304608F065FF50B100235BB92B4677
:103798003A4604F00F01304608F068F90020F8BDF9
:1037A8006FF01203F2E76FF01200F8E76FF0150000
:1037B800704700BF64DD0008014910220A607047A5
:1037C80010ED00E072B6404080F31188BFF36F8FB0
:1037D800BFF34F8F30BF62B6BFF36F8F704700BF24
:1037E80070B582B004461F4D1F4BED1AED08012637
:1037F8004FF0000366F302036FF3C50365F38F13FD
:10380800ADF800308368426801681848FFF7C2FBCA
:103818004FF0000366F302036FF3C50365F38F13DC
:10382800ADF8003063692269E1681148FFF7B2FB1F
:103838004FF0000266F302026FF3C50265F38F12C0
:10384800E1690C48FFF70AFC4FF0000266F3020238
:103858006FF3C50265F38F12A1690748FFF7FEFBF6
:1038680002B070BD24D900080CD9000890DD00080A
:10387800C0DD0008F0DD000800DE000840B20028C6
:1038880007DB00F01F02400901239340014A42F878
:103898002030704700E100E0013140B2002808DB29
:1038A8000901C9B200F1604000F5614080F80013D9
:1038B800704700F00F000901C9B2014B1954704755
:1038C80014ED00E030BFFFF7FDBF00BF08B5094B9E
:1038D80023F0604323F07F03074A9360BFF34F8FC1
:1038E800BFF36F8F04F0F6F805F05AF900F06CFC9E
:1038F80004F0FCF80000000800ED00E0094A9368B5
:10390800986709490968D96708494B6843F08053A3
:103918004B60002383F31188BFF36F8F9368D86FD0
:10392800704700BF4C0E002020E8000800ED00E0C2
:1039380012498A684FF030001044EFF3098C80E890
:10394800F01F102080F31288BFF36F8F0C4F4FF0D9
:1039580000668A698A603E60906F0023936780F3EF
:10396800118804B5104600F083FCBDE8044002F15C
:10397800300090E8F01F8CF3098870474C0E002047
:1039880004ED00E01EF0040F0CBFEFF30880EFF326
:103998000980816911F8021C0229FFD001B507F0DE
:1039A8009EFE01BD10B4A2F120040D4942F8081C86
:1039B80021F0010142F8081C42F8203C019B42F822
:1039C8001C3C029B42F8183C039B42F8143C4FF005
:1039D800807342F8043C04650023836710BC704779
:1039E8004FAE0008114B9A68EAB110F1160F10D0CB
:1039F800936EA3F1200C844505D8834205D98B42E8
:103A080005D800210AE0002108E0002106E0012194
:103A180004E0936E8B4294BF0021012109B9002074
:103A28007047906E70470020704700BF4C0E002012
:103A380008B50D461446084B986000F019FC20465E
:103A480085F30988002163B681F31188BFF36F8F6E
:103A58000022002307F0F7F94C0E002001B5EFF320
:103A68000580A0F110004FEAC0000449014409C9CB
:103A78009847BDE801400249084700003CD70008C4
:103A88008D3A0008044B99689869884203D0034925
:103A98004FF080520A6070474C0E002004ED00E0A1
:103AA80008B54E4B4E4A9B1ADB084FF00001012225
:103AB80062F302016FF3C50163F38F114948FFF701
:103AC800A3FA494B9B6A13F0007F21D1464B9B6AAE
:103AD80013F0807F2DD1444B9B6A13F4002F39D10A
:103AE800414B9B6A13F4802F45D13F4B9B6A13F4DB
:103AF800003F51D13C4B9B6A13F4803F5DD13A4A59
:103B0800936A6FEA03436FEA13439362002008BD88
:103B1800324B334A9B1ADB084FF00001012262F353
:103B280002016FF3C50163F38F113048FFF76CFA98
:103B3800CCE72A4B2A4A9B1ADB084FF000010122E6
:103B480062F302016FF3C50163F38F112848FFF791
:103B58005BFAC0E7214B224A9B1ADB084FF00001B1
:103B6800012262F302016FF3C50163F38F1121484B
:103B7800FFF74AFAB4E7194B194A9B1ADB084FF0CA
:103B88000001012262F302016FF3C50163F38F1193
:103B98001948FFF739FAA8E7104B114A9B1ADB08B6
:103BA8004FF00001012262F302016FF3C50163F3D4
:103BB8008F111248FFF728FA9CE7084B084A9B1A0E
:103BC800DB084FF00001012262F302016FF3C50127
:103BD80063F38F110A48FFF717FA90E724D9000812
:103BE8000CD9000830DE000800ED00E048DE0008CF
:103BF8005CDE000878DE000898DE0008C0DE0008F9
:103C0800DCDE000808B500220A70084B08495B1A78
:103C1800DB084FF00001012060F3020162F3C501E7
:103C280063F38F110348FFF7EFF908BD24D90008A3
:103C38000CD9000808DF000870B505460E46144682
:103C4800534B544A9B1ADB084FF00001012262F3E0
:103C580002016FF3C50163F38F114F48FFF7D4F9E1
:103C68004E4B9B6A13F4805F1FD14C4B9B6A13F435
:103C7800006F2BD1494B9B6A13F4007F37D1474B18
:103C88009B6A13F4806F60D1444B9B6A13F4807F66
:103C98006CD1424A936A43F47F43936201212846D8
:103CA80007F02FFD2070002070BD394B394A9B1A50
:103CB800DB084FF00001012262F302016FF3C50136
:103CC80063F38F113648FFF79FF9CEE7304B314A3F
:103CD8009B1ADB084FF00001012262F302016FF327
:103CE800C50163F38F112F48FFF78EF9C2E7284B00
:103CF800284A9B1ADB084FF00001012262F30201F7
:103D08006FF3C50163F38F112748FFF77DF9234B44
:103D1800996B9B6A13F4004FB1D01D4B1D4A9B1A37
:103D2800DB084FF00002012060F302026FF3C502C6
:103D380063F38F121D48FFF791F9002E9FD0174AA1
:103D4800936A23F40043936299E7114B114A9B1A33
:103D5800DB084FF00001012262F302016FF3C50195
:103D680063F38F111248FFF74FF98DE7084B094AA3
:103D78009B1ADB084FF00001012262F302016FF386
:103D8800C50163F38F110B48FFF73EF981E700BFC8
:103D980024D900080CD900082CDF000800ED00E049
:103DA80044DF000858DF00086CDF000888DF0008DF
:103DB800A0DF0008BCDF0008F8B505460C4616462B
:103DC800584B594A9B1ADB084FF00001012262F355
:103DD80002016FF3C50163F38F115448FFF714F91B
:103DE800534B9B6A13F0100F2BD1514B9B6A13F066
:103DF800080F37D14E4B9B6A13F0020F43D16FF077
:103E080015074B4B9B6A13F0010F6ED1484B9B6A09
:103E180013F0100F04D1464B9C6A14F0020404D02E
:103E2800434B5C6814F4006470D1414A936A43F0D0
:103E3800FF0393620121284607F063FC3070204697
:103E4800F8BD384B384A9B1ADB084FF000010122B5
:103E580062F302016FF3C50163F38F113548FFF771
:103E6800D3F8C2E72F4B304A9B1ADB084FF000010A
:103E7800012262F302016FF3C50163F38F112E482B
:103E8800FFF7C2F8B6E7274B274A9B1ADB084FF023
:103E98000001012262F302016FF3C50163F38F1180
:103EA8002648FFF7B1F8224B5F6B9B6A13F0800F2F
:103EB80002D16FF01507A4E71A4B1B4A9B1ADB08BF
:103EC8004FF00002012161F302026FF3C50263F3B0
:103ED8008F1239461A48FFF7C1F8002C91D0144ABE
:103EE800936A23F0800393628BE70E4B0E4A9B1A6A
:103EF800DB084FF00001012262F302016FF3C501F4
:103F080063F38F110F48FFF77FF87FE7294638469C
:103F1800FFF768FD0446002887D080F3098802244B
:103F280083E700BF24D900080CD90008D4DF0008B3
:103F380000ED00E0ECDF000858DF000820E0000892
:103F480038E0000850E0000870B505460C46464BBE
:103F5800464A9B1ADB084FF00001012262F3020176
:103F68006FF3C50163F38F114148FFF74DF8002344
:103F78002370404BDE6A16F0020609D13D4BDB6A1E
:103F8800002B17DB3B4BD86A10F0804024D170BD62
:103F9800354B364A9B1ADB084FF00001012262F3C9
:103FA80002016FF3C50163F38F113348FFF72CF853
:103FB8000020ECE72C4B2D4A9B1ADB084FF0000140
:103FC800012262F302016FF3C50163F38F112B48DD
:103FD800FFF71AF83046DAE7234B244A9B1ADB0826
:103FE8004FF00001012262F302016FF3C50163F390
:103FF8008F112348FFF708F8AB6933F8022C4DF608
:1040080002739A420DD01B4B93F82830E3B9194B31
:1040180093F82930F3B9174B5B8D9BB203BB30463D
:10402800B5E7114B114A9B1ADB084FF0000201213A
:1040380061F302026FF3C50263F38F122968114816
:10404800FFF70CF82868A2E7224601212846FFF767
:10405800B3FE9CE7224601212846FFF7EDFD96E7CF
:104068002846FFF71DFD92E724D900080CD900085F
:1040780070E0000800ED00E088E00008ACE000080F
:10408800BCE00008DCE0000808B50A460B480C4B09
:10409800C01AC0084FF00003012161F302036FF357
:1040A800C50360F38F130F2A05DC0649103A06484A
:1040B800FFF706F808BD0549F8E700BF24D900084E
:1040C8000CD90008F8E000082CE1000810E100080D
:1040D80070B58AB02F4B5D68C5F30805002383F3DC
:1040E8001188BFF36F8F02F07F43B3F17F4F2AD15E
:1040F80002F00C03082B10D012F0080F20D00C4649
:1041080000260DF127022946204607F0FCFA05464D
:104118009DF82730D3B10AB070BD1F4B1F4A9B1AB8
:10412800DB084FF00001012262F302016FF3C501C1
:1041380063F38F111A48FEF767FF00263446E0E75D
:1041480004460126DDE700263446DAE70DF1040CC3
:1041580020686168A268E368ACE80F0020696169BB
:10416800A269E369ACE80F0046B1C3F308025AB983
:104178006FEA53236FEA4323089305E0089B23F46F
:10418800FF7323F00103089301A9284607F09BFA5F
:10419800C1E700BF00ED00E024D900080CD90008F1
:1041A80040E10008024A536943F010035361704725
:1041B80000ED00E0EFF30880EFF3098101B57246E6
:1041C800FFF786FF01BD00BF002206E002F00F01E5
:1041D800094B0B44102119760132382A0ADC53B2F4
:1041E800002BF3DB03F1604303F56143102183F8EF
:1041F8000013F1E7704700BFFCEC00E0102080F3EB
:10420800118808484FF40261401880F30988EFF3D9
:1042180014800221084380F31488BFF36F8FFFF7DF
:1042280055FB0000802F002008B5084B9B6883428F
:1042380002D004F079FC08BDEFF30583002BF8D019
:10424800034A536843F080535360F2E74C0E002052
:1042580000ED00E008B5034B034A0121034807F0CD
:10426800A7FA08BD004001200000002070E1000806
:1042780008B5836E203B0548036020234360044B48
:104288008360012107F098FA08BD00BFC809002023
:1042980000000B15084AC2F898000B6823F01F03AA
:1042A800034343F01003C2F89C308B6843F00103CA
:1042B800C2F8A030704700BF00ED00E010B504461A
:1042C800072803D8FFF7E6FF204610BD094B0A4A26
:1042D8009B1ADB084FF00002012161F302026FF321
:1042E800C50263F38F1201460448FEF7B7FE6FF06C
:1042F8001500EAE71CD900080CD900087CE1000881
:104308002DE9F04780460F469A461646002409E0F4
:104318002946F0B207F02DFA064610F1160F25D0FF
:1043280001360134BC4221DA04EB440508EB85056B
:104338006A68002AF5D0BAF1000FE9D0284607F0DC
:1043480007FA0028E4D10B4B0B4A9B1ADB084FF005
:104358000002012161F302026FF3C50263F38F12B9
:1043680021460648FEF77AFE6FF015063046BDE88E
:10437800F08700BF1CD900080CD90008A4E1000888
:1043880010B5034C01232278FFF7BAFF207010BD47
:10439800AB0E002008B50023094A1278FFF7B0FFDA
:1043A80010F1160F0AD0034606E0064AC2F8983004
:1043B8000021C2F8A0100133072BF6DD08BD00BFAD
:1043C800AB0E002000ED00E0044B0522C3F894205A
:1043D800BFF34F8FBFF36F8F704700BF00ED00E052
:1043E800BFF35F8F024B0022C3F89420704700BFD1
:1043F80000ED00E038B50E4B1D68082D15D8FFF705
:10440800EFFF002409E00A4B596804EB44029300CB
:1044180019442046FFF73EFF0134A542F3D8054B67
:104428001D70FFF7D1FF002038BD4FF0FF30FBE7CC
:10443800E0E10008AB0E0020014B1860704700BF98
:104448000C00002070B506460D46002400E001343B
:10445800AC4208DA054B1B68984730550A2801D04A
:104468000D28F4D10134204670BD00BF080000209B
:10447800F8B505460F46002404E0094B1B68307860
:1044880098470134BC4208DA2E192B5D0A2BF4D167
:10449800034B1B680D209847EFE73846F8BD00BF6F
:1044A8000C00002008B505220249012007F095F903
:1044B800FEE700BFC8E100080246084B1968084B30
:1044C800C8180A44C3F1005303F5A0339A4202D234
:1044D800024B1A6070474FF0FF307047D409002034
:1044E8000A41002070B504460D46166900E0013403
:1044F800AC4214DA1F2CFADC0123A340084A5269A3
:1045080033EA0202F3D1064A536156F83430002BDD
:10451800EDD006EBC402516820469847E7E770BD26
:104528000004014008B501238340044A11680B4385
:104538001360034B1856FFF7A1F908BD00040140AA
:1045480020E200081F2806DC01238340024A106885
:1045580020EA03001060704700040140032932D8A4
:10456800DFE801F0020F1B27012303FA00F0164BC6
:104578009A6822EA00029A60DA6822EA0000D860A3
:104588007047012303FA00F00F4B9A6802439A60C0
:10459800DA6822EA0000D8607047012303FA00F0C5
:1045A800094BDA680243DA609A6822EA00009860E8
:1045B8007047012303FA00F0034B9A6802439A609C
:1045C800DA681043D860704700040140074B53F87D
:1045D80030303BB9054B43F8301003EBC000426064
:1045E800002070476FF00F00704700BFD809002007
:1045F800034B002243F8302003EBC0035A60704796
:10460800D809002084B00B68022B11D0032B1AD0D4
:104618001BB16FF0850004B070474B680F4AD16931
:104628001943D161D26913400193019B0020F2E73D
:104638004B680A4A516A19435162526A13400293FD
:10464800029B0020E7E74B68044A116A194311628C
:10465800126A13400393039B0020DCE700380240F2
:104668000B68022B0DD0032B13D013B16FF085000C
:10467800704749680B4AD36923EA0103D3610020D4
:1046880070474968074A536A23EA010353620020C6
:1046980070474968034A136A23EA0103136200203A
:1046A800704700BF0038024070B50C4615460D4BE8
:1046B8001E680121304607F01EF92368062B0ED824
:1046C800DFE803F00404070A0D0D04002E60002043
:1046D80070BD28600020FBE728600020F8E76FF035
:1046E8008500F5E7B0000020104B1B6813F0020F9F
:1046F80009D10E4A136843F0010313600B4B1B6882
:1047080013F0020FFAD0094A936823F0030343F029
:1047180001039360936823F0F00318439060034B00
:104728009B6803F00C03042BF9D170470038024052
:1047380010B586B003A807F0D9F800F01DF801A855
:1047480007F0DCF80020FFF7CFFF0A4C236823F0BE
:104758008073236003A901A802F0D2FF236823F421
:1047680080332360236823F480732360002006B01D
:1047780010BD00BF0038024082B0064B1A6A42F0F2
:1047880001021A621B6A03F001030193019B02B044
:10479800704700BF0038024010B504460A2807D009
:1047A800074B1868E1B283685B689847204610BDDC
:1047B800034B186883685B680D219847F0E700BFD2
:1047C800580A002010B5044C2046FFF735FE204655
:1047D800FDF7FAFB10BD00BFA147000808B509485E
:1047E800094B186007F035FF28B1002333B9FFF7EC
:1047F800E9FF002008BD6FF01203F7E76FF0120021
:10480800F8E700BFDCD60008580A00204A4201F049
:10481800030302F0030258BF534204339A000F23E4
:1048280093400A46002919DB43EAA20303F0030C6C
:104838000CF102010B4A52F821101A0C21EA134319
:1048480092FAA2F262B1B2FA82F200FA02F21A43C2
:104858000CF1020C034B43F82C207047CA1CE3E709
:104868002022F2E700000140424200F0030302F078
:10487800030258BF534204339A000F239340024661
:10488800002811DB43EAA20000F003030233084AC0
:1048980052F82320030C02EA104093FAA3F32BB139
:1048A800B3FA83F3D8407047C21CEBE72023F9E73B
:1048B8000000014070B582B006460D460D4B93E8E6
:1048C800030002AB03E903000B4807F0C2FE48B13E
:1048D800094883681B686946984704462CB12046F6
:1048E80002B070BD6FF01204F8E729463046FFF7B2
:1048F8008DFFF4E7D4D900081CD60008F8B50C469B
:10490800114647680269B1F5005F1FD01D46B1F531
:10491800804F34D01D492046FFF758FE064688BB15
:104928002146B868FFF7C6FFB5F5802F23D0B5F547
:10493800C02F22D0B5F5003F1BD031462046FFF7E7
:104948000DFE2046FFF7EEFD3046F8BD2046FFF786
:104958008BFFBB68984201D00026F5E72046FFF799
:10496800F1FD2046FFF744FE00212046FFF7F6FD43
:10497800F2E70221E2E70121E0E70321DEE76FF039
:104988008506E1E76FF00F06DEE700BF13B9000800
:1049980010B5446869B10C340D4807F05AFE28B1C7
:1049A8000B4883681B682146984710BD6FF01200BA
:1049B800FBE70C34064807F04CFE28B1044883682E
:1049C8005B6821469847F0E76FF01200EDE700BFFB
:1049D8001CD600082DE9F0418CB00D46D0F80480B3
:1049E800066904AC924F0FCF0FC497E80F0084E814
:1049F8000F00D8F808403368AB4200F01381AB8849
:104A0800C3F34513082B02D0102B40F00D818948C1
:104A180007F01FFE98B1874B9B68DB6893B103AA28
:104A280041468448984700280FDB0123082B1FDCE8
:104A3800039ADA40296891421AD20133F6E76FF0F7
:104A48001200F0E76FF05700EDE77B4B7B4A9B1AAB
:104A5800DB084FF00001012262F302016FF3C50188
:104A680063F38F117648FEF7CFFA6FF00400D6E0B3
:104A7800082B71DC226822F040022260013B0CAA5C
:104A880002EB830353F8203C226822F038021343D8
:104A98002360AB8813F0020F77D0236843F002033A
:104AA8002360AB8813F0040F74D0236843F001032C
:104AB8002360236823F444432360AB8813F0100F6A
:104AC8006DD0236843F080032360236823F40053E8
:104AD8002360AB68002B67D0236843F4007323601E
:104AE800636823F004036360AB8813F0010F73D08D
:104AF800236823F482732360AB88C3F34513082B20
:104B08006FD0236843F400632360636823F01003C5
:104B180063603560AB68002B70D0186800286DD0D2
:104B2800197A5B7A43F4B0538568046913F4406FCB
:104B380004D013F0010F01D083F4406323F48052B2
:104B480013F0010F52D0012303FA01F6236833430F
:104B580023602B68984761E0374B384A9B1ADB087B
:104B68004FF00001012262F302016FF3C50163F304
:104B78008F11039AADF80010130A520829683148BA
:104B8800FEF708FA6FF0150049E0236823F00203E6
:104B9800236086E7236823F00103236089E72368FD
:104BA80023F08003236090E7AB8813F0010F08D04F
:104BB800236823F400732360636823F004036360AD
:104BC80092E7236823F4007343F480232360636827
:104BD80043F00403636087E7236843F48273236028
:104BE8008AE7236823F4006323608EE7012303FA2E
:104BF80001F6236823EA06032360AAE70E4B0F4A4F
:104C08009B1ADB084FF00001032262F302016FF3E5
:104C1800C50163F38F110C48FEF7F6F900200CB0BC
:104C2800BDE8F0810020FAE76FF08500F7E700BFE4
:104C3800DCD900081CD600082CD900080CD90008BB
:104C480004E3000828E3000858E30008826812F427
:104C5800B87201D10020704710B582B004460F49E0
:104C68000F4BC91AC9084FF00003012060F3020373
:104C78006FF3C50361F38F130A490B48FEF720FA57
:104C8800A36813F0400F05D0E3680193019BA36864
:104C98000193019B6FF0040002B010BD2CD90008ED
:104CA8000CD90008E0E3000880E3000870B5066945
:104CB8004568354807F0CDFC00282CD03248836879
:104CC8001B6829469847044644BBAA682969E868CE
:104CD80006F0CEFC051E34DB3368C3B19B68B3B164
:104CE8001A68A2B1586804F0CDF833689B68186850
:104CF800197A03691A6801238B401A4234D1234672
:104D0800A3B3012303FA01F18368DB689847336989
:104D18009BB3204670BD6FF01204D5E71B4B1C4AAD
:104D28009B1ADB084FF00001012262F302016FF3C6
:104D3800C50163F38F111748FEF766F96FF0040495
:104D4800E7E7124B124A9B1ADB084FF000020121D9
:104D580061F302026FF3C50263F38F1229460E480E
:104D6800FEF77CF92C46D4E70123C9E7012303FAAF
:104D780001F183681B699847C9E7736006F1080069
:104D880003F044F9C5E700BF1CD600082CD9000879
:104D98000CD900088CE30008A8E3000808B502480D
:104DA80003F0A6FA08BD00BF8000002008B507F090
:104DB800C4FF0A220023FBF781FD024B1B68C01ABF
:104DC80008BD00BFBC0A002008B5024807F0C5FFAF
:104DD80008BD00BF5803002000B583B0830F8200D0
:104DE800121843F1000392185B4100200021CDE91D
:104DF8000001034804F0AEF803B05DF804FB00BFFF
:104E08005803002008B507F098FF0A220023FBF793
:104E180055FD014B186008BDBC0A0020014B1868FD
:104E2800704700BFBC0A002070B5044600F1340585
:104E38000223BFF35B8F55E8002F012A03D145E811
:104E480000310029F7D1BFF35B8F0CBF0126002684
:104E58000ED1084BDB6A984700232360BFF35B8FB2
:104E680055E8002F45E800310029F9D1BFF35B8FE1
:104E7800304670BDD8E50008F8B517461D461D4CEC
:104E880054F8346B0223BFF35B8F54E8002F012AD8
:104E980004D144E8003CBCF1000FF6D1BFF35B8FAE
:104EA80027D1144BDB6B1A788A4200D91970114C40
:104EB800E36B1A780146A06B07F0F2FF236C03B18D
:104EC8001F800C4B5B6C03B11D700B4BDB6A984762
:104ED8000021084B43F8341BBFF35B8F53E8002FC6
:104EE80043E800100028F9D1BFF35B8F304604F087
:104EF8002DFBF8BDC00A0020D8E5000810B505480C
:104F08000468FFF791FF20B11CB10021204604F08E
:104F18001DFB10BDC00A0020F0B583B004460F4643
:104F280016461D46084602F04BFC2060F8B183681F
:104F3800046915F4805F07D015F4406F04D015F0AC
:104F4800010F01D085F4406525F4805215F0010F5A
:104F580021D0012101FA06F52168294321601B6847
:104F6800314698470446F0B9204603B0F0BD194BC6
:104F7800194A9B1ADB084FF00002012161F3020273
:104F88006FF3C50263F38F1239461448FEF766F8CB
:104F98006FF00404E8E7012101FA06F5216821EA27
:104FA80005012160DBE70B4B0B4A9B1ADB084FF02E
:104FB8000002012161F302026FF3C50263F38F124D
:104FC800ADF800200346324639460548FDF7E2FFB2
:104FD800CAE700BF3CD900080CD9000828E400083B
:104FE80048E4000870B50D460F490120BFF35B8FF8
:104FF80051E8004F002C03D141E80006002EF7D1FC
:10500800BFF35B8F0CD134390B60084E736DD4B28B
:1050180021469847B36A214628469847002070BD24
:105028006FF00F00FBE700BFF40A0020D8E5000886
:1050380070B58EB014460AAA0A920B9200230C93FC
:105048000D93059306930793089309939DF82130D0
:10505800012565F304038DF821300992284B9B6ADA
:10506800002B49D013462246FFF7BCFF002822DB5D
:10507800244B5E6A22490395E4B20294002301930B
:105088000B8E009391F82E3091F82D2091F82C106A
:105098002846B04700FA05F1C0F34173C200521820
:1050A80043F1000392185B41294605A804F0A2F9D0
:1050B800002802DB00200EB070BD134B134A9B1A68
:1050C800DB084FF0000165F302016FF3C50163F3DC
:1050D8008F110F48FDF798FF0948FFF7A5FE08B1A3
:1050E8000020E8E74FF0FF324FF0FF33294605A8CC
:1050F80004F080F90020DEE76FF01500DBE700BF61
:10510800C00A0020D8E500083CD900080CD90008DE
:1051180068E4000810B58CB08DF8072008AA08923A
:10512800099200230A930B93039304930593069320
:1051380007939DF81930012060F304038DF81930A6
:105148000792284BBFF35B8F53E8002F002A03D147
:1051580043E80004002CF7D1BFF35B8F3ED1343B0A
:1051680008AA1A6099630DF10702DA63109A1A64A3
:10517800119A5A641C4C636DFF219847636B002099
:105188009847DDE90E23012103A804F033F9041E32
:1051980004DB9DF8074020460CB010BD1348FFF70C
:1051A80043FE50B94FF0FF324FF0FF33012103A8FF
:1051B80004F020F99DF80740EDE70D4B0D4A9B1AC6
:1051C800DB084FF00001032262F302016FF3C5010F
:1051D80063F38F110848FDF717FFDCE76FF00F0442
:1051E800D9E700BFF40A0020D8E50008C00A00206B
:1051F8003CD900080CD9000884E4000870B58AB0CE
:105208000C46274B0122BFF35B8F53E8001F002990
:1052180003D143E800200028F7D1BFF35B8F3BD1CF
:10522800204BDB6820689847E37ACBB91D4B9D6912
:10523800012009900023089307930693059304938C
:1052480003930A220292228901920093A379627938
:105258002179A8471448FFF7E7FD00200AB070BD80
:10526800124B20686168A26807C30E4BDD69637939
:10527800A1794FF47A620892002207920692059269
:1052880001200490039226890296019100932379C4
:1052980094F90A10A847DDE76FF00F00DEE700BFBA
:1052A800F40A0020D8E50008C00A0020E80A002017
:1052B80010B5084611461A460C4B4FF0010CBFF3C7
:1052C8005B8F53E800EFBEF1000F03D143E800C441
:1052D800002CF6D1BFF35B8F04D1054BDB6B9847ED
:1052E800002010BD6FF00F00FBE700BFF40A00209C
:1052F800D8E5000838B50D4800F134030024BFF3A1
:105308005B8F53E8002F43E800410029F9D1BFF330
:105318005B8F074B4360074BC360074D2B68043016
:105328009847EB6A9847204638BD00BFC00A00205E
:10533800054F0008814E0008D8E5000808B5044B61
:10534800C01A0011034B53F820300020984708BDBD
:105358005C0B00209000002010B58AB08DF8070083
:105368000DF107000690012007900892099306ABFB
:1053780004930223059349B10B49486883681C6864
:10538800002304AA0831A0470AB010BD06AB029357
:10539800022303930449486883681C6802AB04AA83
:1053A8000831A047F0E700BF380B002070B505466C
:1053B80092FAA2F6B6FA86F60AB94FF0FF3600243A
:1053C80000E00134032C13D8231D0A4A02EB83039F
:1053D8005B68AB42F5D1084B03EBC4031B79B342BE
:1053E800EFD1A01C02EB0010043002F081FFE8E7C7
:1053F80070BD00BF380B002044E6000808B5184B04
:10540800186803691B6813F0010F1BD10123DBB176
:105418008368DB68012198470A20002103F056FBC6
:105428000F4B186803691B6813F0010F11D1002393
:105438008BB18368DB68012198473C20002103F089
:1054480045FB08BD0023E2E783681B6901219847F3
:10545800E2E70123ECE783681B6901219847ECE741
:10546800380B0020F8B50546002452E0534B544A47
:105478009B1ADB084FF00002012161F302026FF36F
:10548800C50263F38F124F4B53F834104E48FDF7A3
:10549800E5FDF8BD23F4805213F0010F6FD001230E
:1054A80003FA01FC336843EA0C0333603B6898470E
:1054B80004EB4401454B03EB8101424B03EBC4036E
:1054C8001E790123B340424A4A608B60231D414A3A
:1054D80002EB830358688368DB69002B57D00122ED
:1054E8009847002856DB231D3A4A02EB8303586885
:1054F800816803691A680123B3401A425BD14FF4EB
:10550800B8228F6902F4C02302F4A0323146B847AA
:105518000134032CBDD855F82430002BF8D0294B82
:1055280053F8340002F04CF9231D2A4A02EB830396
:10553800586000289AD0274EA01C06EB0010264978
:10554800043007F074F9231D06EB830670681D4BC1
:1055580003EBC40319795B7943F4002343F48073A4
:105568008768066903F48052002A93D013F4406FC9
:1055780090D013F0010F8DD083F440638AE70123A4
:1055880003FA01FC336823EA0C0333608EE76FF0FB
:105598008500A6E7094B0A4A9B1ADB084FF0000171
:1055A800012262F302016FF3C50163F38F110B4807
:1055B800FDF72AFD6DE74FF47032A2E734D90008F1
:1055C8000CD9000844E6000828E40008080B00206D
:1055D800B5530008380B002045530008A4E4000820
:1055E80010B50446C0B206F0EAFD002800DB10BD85
:1055F800084B094A9B1ADB084FF00002012161F3AE
:1056080002026FF3C50263F38F1221460348FDF7C8
:1056180025FDECE734D900080CD90008C4E40008DB
:1056280030B583B00446644802F0CAF8634B58604A
:1056380000B3624B4FF480729A81614A9A600022EB
:10564800DA81604802F0BCF85F4B186030B35E4BFB
:1056580006221A7201225A7200225A6057480361C0
:1056680041F607235749FFF757FC054650B328462C
:1056780003B030BD554B564A9B1ADB084FF0000269
:10568800012161F302026FF3C50263F38F124A49E5
:105698005048FDF7E3FC6FF01505E8E74B4B4C4A23
:1056A8009B1ADB084FF00002012161F302026FF33D
:1056B800C50263F38F1243494648FDF7CFFC6FF0EC
:1056C8000405D4E74FF47A70002103F0FFF93B4B4F
:1056D800186803691B6813F0010F40D12B46002B93
:1056E8003FD08368DB68012198474FF47A70002126
:1056F80003F0ECF901220DF10701422006F05FFDED
:10570800002833DB314B324A9B1ADB084FF000028A
:10571800032161F302026FF3C50263F38F129DF850
:1057280007102D48FDF79AFC06F042FD002830DBF3
:105738002046FFF7DFFD041E99DA244B244A9B1A02
:10574800DB084FF00001012262F302016FF3C5018B
:1057580063F38F112148FDF757FC254687E701239E
:10576800BDE783681B6901219847BEE7174B184AB4
:105778009B1ADB084FF00001012262F302016FF36C
:10578800C50163F38F111648FDF73EFC6FF0040561
:105798006DE70E4B0E4A9B1ADB084FF00001012201
:1057A80062F302016FF3C50163F38F110D48FDF732
:1057B8002BFC6FF004055AE7C8E30008380B0020FB
:1057C80020A1070058E200089C0B002034D90008EB
:1057D8000CD9000828E4000800E5000838E50008AE
:1057E800E4E400081CE5000810B50446C0B206F061
:1057F800EDFC002800DB10BD084B094A9B1ADB08AA
:105808004FF00002012161F302026FF3C50263F356
:105818008F1221460348FDF721FCECE734D9000834
:105828000CD900085CE5000830B583B005460023B4
:105838008DF807308DF8063001220DF106014D2054
:1058480006F0BDFC00282EDB9DF8064004F0F804A5
:105858008DF8064014220221284606F09FFC9DF888
:10586800073043F080038DF8073011282CDD44F011
:1058780007048DF80640053800F00F0018438DF82E
:10588800070001220DF10701092006F09FFC0028FE
:1058980025DB01220DF106014D2006F097FC0028BA
:1058A8002EDB03B030BD1F4B1F4A9B1ADB084FF09D
:1058B8000001012262F302016FF3C50163F38F1146
:1058C8001A48FDF7A1FBECE744F004048DF8064004
:1058D800023800F00F0018438DF80700D1E7114B8C
:1058E800114A9B1ADB084FF00001012262F3020102
:1058F8006FF3C50163F38F110D48FDF785FBD0E702
:10590800084B094A9B1ADB084FF00001012262F399
:1059180002016FF3C50163F38F110648FDF774FBAD
:10592800BFE700BF34D900080CD900087CE500089F
:1059380094E50008B0E5000810B582B00B4B9869F3
:10594800046983685B6801A99847034618B9216808
:10595800019A4A40019213B9019BC3F34003002BFB
:1059680002DC002002B010BD0120FBE7380B00204C
:10597800094B1A68536901E01A465B69516939B1E4
:105988001968D0F800C08C45F6D85061436170475B
:105998005061002343617047A80B0020054B1B682A
:1059A80000E05B691BB18342FBD1012070470020F6
:1059B800704700BFA80B002008B5054B1B680BB14A
:1059C80000225A724361024B186006F013FC08BDAE
:1059D800A80B002010B582B0044601A806F0CEFB43
:1059E800F4B12046FFF7DAFFD0B9636823600123DA
:1059F800237200236372114B1B68ABB1FFF7D6F912
:105A08002368184420600D4B1B681B68984211D20C
:105A18002046FFF7D1FF01A806F0BAFB02B010BD7F
:105A280001A806F0B5FBF9E7FFF7ECF92046FFF708
:105A3800C3FFF0E72046FFF79BFFECE7A80B002029
:105A480070B5FFF7EBF90546FFF7DCF9A0EB050C9D
:105A58001C4B1E686EB1324602E000211960526983
:105A6800536933B119686145F7D92C1A2144196073
:105A7800F5E746B17269134B1A6000233372F36875
:105A8800A3B1306998470F4B1B688BB11C68FFF7AF
:105A98008DF984420CD20B4A1368596911600022AF
:105AA8001A72DA681AB118699047ECE7FEE7FEE760
:105AB800044B186808B1437A03B170BD06F09AFB2D
:105AC800FBE700BFA80B002010B582B0044601A870
