:020000040800F2
:1000000040350020515C000841FB0008095C0008F5
:10001000095C0008095C0008095C00080000000099
:10002000000000000000000000000000554F000824
:10003000095C000800000000014F0008319C000826
:100040002D5000082D5000082D5000082D5000089C
:100050002D5000082D5000082D5000082D5000088C
:100060002D5000082D5000082D5000082D5000087C
:100070002D5000082D5000082D5000082D5000086C
:100080002D5000082D5000082D5000082D5000085C
:100090002D5000082D5000082D5000082D5000084C
:1000A0002D5000082D5000082D5000082D5000083C
:1000B0002D5000082D5000082D5000082D5000082C
:1000C0002D5000082D5000082D5000082D5000081C
:1000D0002D5000082D5000082D5000082D5000080C
:1000E0002D5000082D5000082D5000082D500008FC
:1000F0002D5000082D5000082D5000082D500008EC
:100100002D5000082D5000082D5000082D500008DB
:100110002D5000082D5000082D5000082D500008CB
:100120002D5000082D5000082D5000082D500008BB
:100130002D5000082D5000082D5000082D500008AB
:100140002D5000082D5000082D5000082D5000089B
:100150002D5000082D5000082D5000082D5000088B
:100160002D5000082D5000082D5000082D5000087B
:100170002D5000082D5000082D5000082D5000086B
:100180002D5000082D5000082D5000082D5000085B
:040190002D500008E6
:0C019400FFFFFFFFFFFFFFFFFFFFFFFF6B
:1001A00001F0FF01102A2BDB10F0070F08D010F828
:1001B000013B013A8B422DD010F0070F42B3F6D12C
:1001C000F0B441EA012141EA014122F007047FF045
:1001D00000070023F0E80256083C85EA010586EA9C
:1001E000010685FA47F5A3FA87F586FA47F6A5FAD8
:1001F00087F68EB9EED1F0BC01F0FF0102F00702E4
:1002000032B110F8013B013A83EA010313B1F8D18E
:100210000020704701387047002D06BF354603386F
:10022000073815F0010F07D1013015F4807F02BFA8
:10023000013015F4C03F0130F0BC0138704700BFF9
:1002400081F0004102E000BF83F0004330B54FEA87
:1002500041044FEA430594EA050F08BF90EA020FF4
:100260001FBF54EA000C55EA020C7FEA645C7FEA87
:10027000655C00F0E2804FEA5454D4EB5555B8BFAA
:100280006D420CDD2C4480EA020281EA030382EA1B
:10029000000083EA010180EA020281EA0303362DAD
:1002A00088BF30BD11F0004F4FEA01314FF4801C80
:1002B0004CEA113102D0404261EB410113F0004F92
:1002C0004FEA03334CEA133302D0524263EB430349
:1002D00094EA050F00F0A780A4F10104D5F1200EE7
:1002E0000DDB02FA0EFC22FA05F2801841F1000142
:1002F00003FA0EF2801843FA05F359410EE0A5F116
:1003000020050EF1200E012A03FA0EFC28BF4CF046
:10031000020C43FA05F3C01851EBE37101F00045FC
:1003200007D54FF0000EDCF1000C7EEB00006EEB09
:100330000101B1F5801F1BD3B1F5001F0CD3490893
:100340005FEA30004FEA3C0C04F101044FEA4452EA
:1003500012F5800F80F09A80BCF1004F08BF5FEA71
:10036000500C50F1000041EB045141EA050130BD51
:100370005FEA4C0C404141EB0101013C28BFB1F563
:10038000801FE9D291F0000F04BF01460020B1FAAE
:1003900081F308BF2033A3F10B03B3F120020CDA81
:1003A0000C3208DD02F1140CC2F10C0201FA0CF05F
:1003B00021FA02F10CE002F11402D8BFC2F1200CC4
:1003C00001FA02F120FA0CFCDCBF41EA0C0190407A
:1003D000E41AA2BF01EB0451294330BD6FEA0404C3
:1003E0001F3C1CDA0C340EDC04F11404C4F12002AE
:1003F00020FA04F001FA02F340EA030021FA04F3C0
:1004000045EA030130BDC4F10C04C4F1200220FA16
:1004100002F001FA04F340EA0300294630BD21FA54
:1004200004F0294630BD94F0000F83F4801306BF1A
:1004300081F480110134013D4EE77FEA645C18BF0E
:100440007FEA655C29D094EA050F08BF90EA020FA5
:1004500005D054EA000C04BF1946104630BD91EA9D
:10046000030F1EBF0021002030BD5FEA545C05D1A0
:100470004000494128BF41F0004130BD14F58004DF
:100480003CBF01F5801130BD01F0004545F0FE4153
:1004900041F470014FF0000030BD7FEA645C1ABF88
:1004A000194610467FEA655C1CBF0B46024650EABF
:1004B000013406BF52EA033591EA030F41F40021EB
:1004C00030BD00BF90F0000F04BF0021704730B571
:1004D0004FF4806404F132044FF000054FF0000146
:1004E00050E700BF90F0000F04BF0021704730B507
:1004F0004FF4806404F1320410F0004548BF4042DC
:100500004FF000013EE700BF42004FEAE2014FEA30
:1005100031014FEA02701FBF12F07F4393F07F4F0B
:1005200081F06051704732F07F4208BF704793F00E
:100530007F4F04BF41F40021704730B54FF4607421
:1005400001F0004521F000411CE700BF50EA010224
:1005500008BF704730B54FF000050AE050EA0102CD
:1005600008BF704730B511F0004502D5404261EB3D
:1005700041014FF4806404F132045FEA915C3FF47E
:10058000D8AE4FF003025FEADC0C18BF03325FEA1B
:10059000DC0C18BF033202EBDC02C2F1200300FACC
:1005A00003FC20FA02F001FA03FE40EA0E0021FAF1
:1005B00002F11444BDE600BF70B54FF0FF0C4CF4DF
:1005C000E06C1CEA11541DBF1CEA135594EA0C0F91
:1005D00095EA0C0F00F0DEF82C4481EA030621EACC
:1005E0004C5123EA4C5350EA013518BF52EA033507
:1005F00041F4801143F4801338D0A0FB02CE4FF0B9
:100600000005E1FB02E506F00042E0FB03E54FF0E8
:100610000006E1FB03569CF0000F18BF4EF0010EE0
:10062000A4F1FF04B6F5007F64F5407404D25FEADC
:100630004E0E6D4146EB060642EAC62141EA55518F
:100640004FEAC52040EA5E504FEACE2EB4F1FD0CD1
:1006500088BFBCF5E06F1ED8BEF1004F08BF5FEA4F
:10066000500E50F1000041EB045170BD06F0004601
:1006700046EA010140EA020081EA0301B4EB5C04AE
:10068000C2BFD4EB0C0541EA045170BD41F48011A6
:100690004FF0000E013C00F3AB8014F1360FDEBFCB
:1006A000002001F0004170BDC4F10004203C35DAA7
:1006B0000C341BDC04F11404C4F1200500FA05F32A
:1006C00020FA04F001FA05F240EA020001F00042CB
:1006D00021F0004110EBD37021FA04F642EB060141
:1006E0005EEA430E08BF20EAD37070BDC4F10C046B
:1006F000C4F1200500FA04F320FA05F001FA04F22F
:1007000040EA020001F0004110EBD37041F100011A
:100710005EEA430E08BF20EAD37070BDC4F1200525
:1007200000FA05F24EEA020E20FA04F301FA05F28D
:1007300043EA020321FA04F001F0004121FA04F235
:1007400020EA020000EBD3705EEA430E08BF20EA05
:10075000D37070BD94F0000F0FD101F0004640003F
:1007600041EB010111F4801F08BF013CF7D041EAC1
:10077000060195F0000F18BF704703F000465200C5
:1007800043EB030313F4801F08BF013DF7D043EA96
:100790000603704794EA0C0F0CEA135518BF95EA4C
:1007A0000C0F0CD050EA410618BF52EA4306D1D1D3
:1007B00081EA030101F000414FF0000070BD50EAF2
:1007C000410606BF1046194652EA430619D094EA7C
:1007D0000C0F02D150EA013613D195EA0C0F05D166
:1007E00052EA03361CBF104619460AD181EA0301BA
:1007F00001F0004141F0FE4141F470014FF0000072
:1008000070BD41F0FE4141F4780170BD70B54FF00C
:10081000FF0C4CF4E06C1CEA11541DBF1CEA13558C
:1008200094EA0C0F95EA0C0F00F0A7F8A4EB05046E
:1008300081EA030E52EA03354FEA013100F0888065
:100840004FEA03334FF0805545EA131343EA12632E
:100850004FEA022245EA111545EA10654FEA0026E3
:100860000EF000419D4208BF964244F1FD0404F59C
:10087000407402D25B084FEA3202B61A65EB0305F8
:100880005B084FEA32024FF480104FF4002CB6EBB5
:10089000020E75EB030E22BFB61A754640EA0C0035
:1008A0005B084FEA3202B6EB020E75EB030E22BF75
:1008B000B61A754640EA5C005B084FEA3202B6EBB6
:1008C000020E75EB030E22BFB61A754640EA9C0075
:1008D0005B084FEA3202B6EB020E75EB030E22BF45
:1008E000B61A754640EADC0055EA060E18D04FEA03
:1008F000051545EA16754FEA06164FEAC30343EAA3
:1009000052734FEAC2025FEA1C1CC0D111F4801F6F
:100910000BD141EA00014FF000004FF0004CB6E768
:1009200011F4801F04BF01430020B4F1FD0C88BF07
:10093000BCF5E06F3FF6AFAEB5EB030C04BFB6EB12
:10094000020C5FEA500C50F1000041EB045170BD05
:100950000EF0004E4EEA113114EB5C04C2BFD4EB32
:100960000C0541EA045170BD41F480114FF0000EB6
:10097000013C90E645EA060E8DE60CEA135594EA32
:100980000C0F08BF95EA0C0F3FF43BAF94EA0C0F35
:100990000AD150EA01347FF434AF95EA0C0F7FF4AA
:1009A00025AF104619462CE795EA0C0F06D152EAFE
:1009B00003353FF4FDAE1046194622E750EA4106E2
:1009C00018BF52EA43067FF4C5AE50EA41047FF4F3
:1009D0000DAF52EA43057FF4EBAE12E74FF0FF3C58
:1009E00006E000BF4FF0010C02E000BF4FF0010C29
:1009F0004DF804CD4FEA410C7FEA6C5C4FEA430CA2
:100A000018BF7FEA6C5C1BD001B050EA410C0CBFF0
:100A100052EA430C91EA030F02BF90EA020F002052
:100A2000704710F1000F91EA030F58BF994208BFB9
:100A300090422CBFD8176FEAE37040F00100704776
:100A40004FEA410C7FEA6C5C02D150EA013C07D1CD
:100A50004FEA430C7FEA6C5CD6D152EA033CD3D018
:100A60005DF8040B704700BF8446104662468C4612
:100A70001946634600E000BF01B5FFF7B7FF002845
:100A800048BF10F1000F01BD4DF808EDFFF7F4FF6E
:100A90000CBF012000205DF808FB00BF4DF808EDF9
:100AA000FFF7EAFF34BF012000205DF808FB00BF1C
:100AB0004DF808EDFFF7E0FF94BF012000205DF83E
:100AC00008FB00BF4DF808EDFFF7CEFF94BF0120F3
:100AD00000205DF808FB00BF4DF808EDFFF7C4FFEC
:100AE00034BF012000205DF808FB00BF4FEA41023F
:100AF00012F5001215D211D56FF47873B3EB625270
:100B000012D94FEAC12343F0004343EA505311F096
:100B1000004F23FA02F018BF404270474FF0000028
:100B2000704750EA013005D111F0004008BF6FF066
:100B3000004070474FF00000704700BF53B94AB9FA
:100B4000002908BF00281CBF4FF0FF314FF0FF30D5
:100B500000F00CB8ADF1080C6DE904CE00F01EF801
:100B6000DDF804E0DDE9022304B07047704700BF00
:100B70004FEA410C7FEA6C5C02D150EA013C0AD199
:100B80004FEA430C7FEA6C5C02D152EA033C02D18B
:100B90004FF0000070474FF0010070472DE9F04F13
:100BA00007468C460846099E15463C461946002BCA
:100BB00040F0C6808242B2FA82F746D94FB1C7F1FF
:100BC000200E24FA0EFE00FA07F3BD404EEA030C95
:100BD000BC404FEA15481FFA85FEBCFBF8F9220C11
:100BE00008FB19C309FB0EFA42EA03439A4528D9C8
:100BF000EB1809F1FF3004D29A4502D9A9F102009D
:100C00002B44A3EB0A03A4B2B3FBF8F208FB1233A4
:100C100002FB0EFE44EA0344A64514D92C1902F146
:100C2000FF3303D2A64501D9931E2C44A4EB0E0436
:100C300043EA00401EB1FC40002334607360BDE80D
:100C4000F08F4846DDE71346F0E702B9FFDE87BBC9
:100C5000831A01214FEA154EAAB2B3FBFEFC200C09
:100C60000EFB1C330CFB02F840EA0343984563D9A2
:100C7000EB180CF1FF3004D2984502D9ACF1020018
:100C80002B44A3EB0803A4B2B3FBFEFC0EFB1C3306
:100C90000CFB02F244EA0344A2424FD92C190CF196
:100CA000FF3304D2A24202D9ACF102032C44A41AAD
:100CB000BEE7C7F1200C20FA0CF800FA07F324FA7B
:100CC0000CFCBD404CEA03024FEA154EABB2B8FB38
:100CD000FEFC110C0EFB1C800CFB03F941EA0040EA
:100CE000814504FA07F423D928180CF1FF3104D206
:100CF000814502D9ACF102012844A0EB090092B26F
:100D0000B0FBFEFC0EFB1C000CFB03F842EA0043A8
:100D100098450FD9EB180CF1FF3204D2984502D94F
:100D2000ACF102022B44A3EB080342EA014191E734
:100D30006146E2E76246F6E76046A2E76346B6E749
:100D4000834205D90EB1C6E900700021084676E756
:100D5000B3FA83F181B9834201D3BA420AD8BC1AEB
:100D600060EB030301209C46002E68D0C6E9004CCE
:100D7000002164E70846F7E7C1F1200C8B4022FA16
:100D80000CF41C4302FA01F500FA01F327FA0CF205
:100D900020FA0CFB4FEA14491343BBFBF9F81FFA86
:100DA00084FE09FB18BB1A0C08FB0EFA42EA0B4240
:100DB000924507FA01F73ED9A21808F1FF3004D294
:100DC000924502D9A8F102002244A2EB0A029BB28A
:100DD000B2FBF9F809FB182208FB0EFE43EA0242B7
:100DE00096452AD9A21808F1FF3304D2964502D9B4
:100DF000A8F10203224443EA0040A0FB0593A2EBC2
:100E00000E029A42CE46984602D306D14F4504D2EE
:100E1000B9EB050E63EB0408013886B1B7EB0E039E
:100E200062EB080707FA0CFCCB404CEA0303CF4007
:100E3000C6E900379CE74046C7E74346DBE7314653
:100E4000FDE610F8012B11F8013B012A28BF9A4258
:100E5000F7D0D01A7047034613F8012B002AFBD1B4
:100E6000181A01387047000070B586B0054644680E
:100E70000669206810F0DAFB50B10023227E93420D
:100E800022D2E269D25C032A10D80133DBB2F5E743
:100E900023681B680293284B0193009003460122AC
:100EA000264910F078F96FF012003DE02B680293AC
:100EB000234B019300200090034601221F4910F0AC
:100EC0006AF96FF015002FE02068616883685B683D
:100ED00004AA9847A58C0498A0FB050114A3D3E9A4
:100EE0000023DDF814C005FB0C11FFF727FE30606E
:100EF000258C0498A0FB05010DA3D3E90023DDF8A0
:100F000014C005FB0C11FFF719FE7060648C049887
:100F1000A0FB040106A3D3E90023059D04FB0511F2
:100F2000FFF70CFEB060002006B070BDAFF300808C
:100F300000CA9A3B00000000F8410108B02B0108EC
:100F400014420108000000002DE9F04F446A99B0F6
:100F500016461F46CDE90467DDF89480054674B94E
:100F600010200CF0DFFD0246686220B9A84BEA2190
:100F7000A8480CF0A7FDC0E901440460C4606B6A96
:100F8000196851B15A684A60012393408B60284622
:100F90000DF0F4FD6B6A00221A603B1EB9BF23F00E
:100FA000004305930023C8F80030DDF814909A4BF5
:100FB000BCBF0122C8F8002033EA090319D1249AE2
:100FC00042F20F731360C9F31303334300F08085BB
:100FD000269B53B9914B22E0914B03930833269AF9
:100FE0001360039819B0BDE8F08F8C4B0393033363
:100FF000F5E7DDE90434CDE90C34DDE90C0100222C
:101000000023FFF741FD804658B1249A0123136065
:10101000269B002B00F0598582481860431E0393DD
:10102000DFE716AB019317AB00932846DDE90C23ED
:101030000EF01CF8C9F30A548346002C7ED00D9B99
:10104000CDF84C80C3F31303DDE90C0143F07F516D
:1010500041F44011A4F2FF34734B0022FFF7F4F87F
:1010600065A3D3E90023FFF7A7FA65A3D3E900231B
:10107000FFF7ECF8064620460F46FFF733FA62A367
:10108000D3E90023FFF798FA02460B46304639466B
:10109000FFF7DCF806460F46FFF728FD00228246E0
:1010A000002330463946FFF7F9FC48B15046FFF7B8
:1010B00019FA32463B46FFF7E7FC08B90AF1FF3A56
:1010C000BAF1160F57D8594B03EBCA03D3E90023E3
:1010D000DDE90C01FFF7E2FC00284ED00AF1FF3AEF
:1010E00000230F93169B1C1B631E099345BFC4F17D
:1010F00001030693002300234CBF09930693BAF122
:10110000000F3CDB099BCDF838A053440993002322
:101110000A93229B092B00F28D80052BC4BF043B50
:101120002293229BA3F10203CCBF00240124032BB2
:1011300000F28C80DFE803F02D4F4D5BDDE91643B4
:101140001C4404F23243202BC3BFC3F1400304F21A
:10115000124009FA03F3C3F12003C6BF26FA00F0D8
:10116000184306FA03F0FFF7ADF90123A1F1F87176
:10117000013C139370E70123B3E70F90B2E7069B9E
:10118000A3EB0A030693CAF100030A9300230E930C
:10119000BFE700230B93239B002B5ADC4FF0010980
:1011A000CDF820904B46CDF88C90686A00224260C2
:1011B000042202F114069E42416850D928460DF0DF
:1011C0009DFC039000284ED1194B02464FF4D57177
:1011D000CEE60123DEE700230B93239B0AEB0309F2
:1011E00009F10103012B0893B8BF0123DDE70123B7
:1011F000F2E700BFAFF3008061436F63A787D23F80
:10120000B3C8608B288AC63FFB799F501344D33FF5
:101210000F4C0108264C01080000F07F0B4C010820
:10122000024C0108DF4B01080000F83FC02C010808
:10123000804C01080124002322930B944FF0FF39C6
:101240000022CDF8209012232392AEE701230B93C6
:10125000F4E7DDF88C90CDF820904B46A5E70131FE
:1012600041605200A5E76B6A039A1A60089B0E2B37
:1012700000F2A880002C00F0A580BAF1000F34DD48
:101280009A4A0AF00F0302EBC303D3E900341AF4BD
:10129000807FCDE910344FEA2A1416D0944BDDE953
:1012A0000C01D3E90823FFF7B1FACDE9040104F0FA
:1012B0000F0403278E4E54B9DDE91023DDE9040144
:1012C000FFF7A4FACDE9040129E00227F2E7E107DC
:1012D00008D5DDE91001D6E90023FFF76DF9CDE966
:1012E0001001013764100836E5E700F0A580CAF167
:1012F00000047E4B7E4E04F00F0203EBC203D3E9E1
:101300000023DDE90C01FFF757F9CDE904012411B1
:1013100000230227002C40F08480002BD2D10F9BA9
:10132000002B00F08B80DDE90434CDE91034DDE9D9
:101330001001704B0022FFF7B1FB00287ED0089B04
:10134000002B7BD0B9F1000F38DDDDE910016A4BCD
:101350000022FFF731F9CDE904010AF1FF38013726
:101360004C463846FFF7BEF8DDE90423FFF724F9C1
:10137000624B0022FEF76AFFA1F15076CDE9100121
:101380001196002C5DD1DDE904015D4B0022FEF7D2
:101390005BFF02460B46CDE90423109A3346FFF764
:1013A0009BFB002840F09C82DDE90401109A06F1C5
:1013B0000043FFF773FB002840F09082DDE90C3416
:1013C000CDE90434179B002BC0F25281BAF10E0F05
:1013D00000F34E81454B03EBCA03D3E90034CDE95A
:1013E0000634239B002B80F2DB80089B002B00F34C
:1013F000D78040F07282424B0022DDE90601FFF700
:10140000DBF8DDE90423FFF75DFB089C2646002896
:1014100040F04882039F312307F8013B0AF1010A9B
:1014200044E2E20705D5D6E90023FFF7C5F8013706
:101430000123641008366DE7022770E7089CD04648
:101440008FE70399294B214412910B9903EBC403B5
:10145000DDE9106753E90223002955D0294900200E
:10146000FFF7D4F93B463246FEF7EEFECDE9100118
:10147000039FDDE90401FFF739FB0446FFF732F86B
:1014800002460B46DDE90401FEF7DEFE303402467B
:101490000B46CDE9042307F8014BDDE91023FFF7E4
:1014A000FDFA002874D1DDE9042312490020FEF77B
:1014B000CBFEDDE91023FFF7F1FA002840F0B780FA
:1014C000129B9F423FF47AAFDDE910010A4B0022E4
:1014D000FFF772F8084BCDE910010022DDE90401A5
:1014E000FFF76AF8CDE90401C3E700BFC02C01088B
:1014F000982C01080000F03F0000244000001C4030
:10150000000014400000E03F30463946FFF754F831
:10151000CDE91001129B039C1493DDE90401FFF750
:10152000E5FA1590FEF7DEFF02460B46DDE9040101
:10153000FEF78AFE159B303304F8013B129B9C4258
:1015400006460F464FF0000224D1A44BDDE91001FE
:10155000FEF77CFE02460B4630463946FFF7BCFAE2
:10156000002863D1DDE910239C490020FEF76CFEC2
:1015700002460B4630463946FFF790FA00283FF402
:101580001DAF149F7B1E149317F8013C302BF8D02D
:10159000C2463BE0924BFFF70FF8CDE90401BCE7F0
:1015A000DDE90489039FDDE9062340464946FFF74C
:1015B0002DF9FFF79BFA0446FEF794FFDDE90623B9
:1015C000FEF7FAFF04F1300602460B464046494654
:1015D000FEF73AFE07F8016B039EDDF820C0BE1B44
:1015E000B44502460B4636D1FEF730FEDDE9062350
:1015F00080468946FFF770FA58BBDDE9062340466E
:101600004946FFF741FA08B1E10722D42846594676
:101610000DF0B4FA00233B70249B0AF1010018601E
:10162000269B002B3FF4DDAC1F60DAE427463B46E7
:101630001F4613F8012D392A07D1039A9A42F7D190
:101640000399302208F101080A701A7801321A70E1
:101650009EE7D046EBE7624B0022FEF7ADFF00228B
:10166000002380468946FFF70FFA00289BD0CDE77C
:101670000B9A002A00F0D080229A012A00F3B2804F
:10168000139A002A00F0A68003F233430A9C069FB7
:10169000069A1A440692099A01211A442846099288
:1016A0000DF0D4FA0646002F0CDD099B002B09DD56
:1016B000BB42069AA8BF3B46D21A0692099AFF1A65
:1016C000D31A09930A9BF3B10B9B002B00F0A8805F
:1016D000002C10DD3146224628460DF075FB5A4697
:1016E0000146064628460DF0C7FA59468046284668
:1016F0000DF044FAC3460A9B1A1B04D059462846EB
:101700000DF062FB8346012128460DF09FFA0E9BE7
:10171000002B044640F386801A46014628460DF009
:1017200053FB229B012B04467FDD4FF00008236909
:1017300004EB8303186910F0B1FEC0F12000099B8F
:10174000184410F01F0000F09280C0F12003042B19
:1017500040F38A80C0F11C00069B03440693099B5A
:10176000034407440993069B002B05DD59461A469E
:1017700028460DF083FB8346099B002B05DD21469F
:101780001A4628460DF07AFB04460F9B002B70D0BA
:101790002146584610F0CFFE00286ADA0023594649
:1017A0000A2228460DF00CFA0B9B0AF1FF3A8346F9
:1017B000002B00F09481314600230A2228460DF0C8
:1017C000FFF9B9F1000F064600F39380229B022B2C
:1017D00057DC8EE0169BC3F1360357E70000E03F6D
:1017E00000002440089B5C1E0A9BA342BFBF0A9BCB
:1017F0000A94E21A0E9BB6BF9B181C1B0E93089B03
:10180000B8BF0024002BB9BF069B089A069F089B0F
:10181000BCBF9F1A00233BE70A9C069F0B9E42E732
:101820000A9A6BE7229B012B19DC049BBBB9059B31
:10183000C3F313039BB9059B23F000431B0D1B054A
:1018400083B1069B01330693099B013309934FF043
:1018500001080E9B002B7FF46AAF01206FE74FF069
:101860000008F6E79846F4E73FF47DAF18461C30D1
:1018700072E7089B002B36DC229B022B33DDDDF860
:101880002090B9F1000F0DD121464B460522284684
:101890000DF096F901460446584610F04CFE00281B
:1018A0003FF7B8AD239B039F6FEA030A4FF0000890
:1018B000214628460DF062F9002E3FF4A7AEB8F19C
:1018C000000F05D0B04503D0414628460DF056F92B
:1018D000314628460DF052F998E600242646E1E705
:1018E000C246264696E50B9BDDF82090002B00F0C3
:1018F000FD80002F05DD31463A4628460DF0BEFA40
:101900000646B8F1000F5CD0716828460DF0F6F875
:10191000074628B9804B024640F2EA21FFF728BB70
:1019200032690232920006F10C010C3010F057FBC4
:101930000122394628460DF0A1FA039B0133089392
:10194000039B4B440A93049B03F00103B0460993A5
:101950000646089B2146013B5846049310F0BDFC07
:10196000034630330690414658460B9310F0E3FD92
:1019700032468146214628460DF0F0FAC2680B9B9C
:10198000074602BB0146584610F0D5FD0B9B0246A8
:1019900039462846CDE90B320DF0F0F8229B0C9A1F
:1019A000089F43EA0201099B0B430B9B0DD1392B86
:1019B00029D0B9F1000F01DD069B3133049A137071
:1019C00076E73046B9E70122E2E7B9F1000F06DB1E
:1019D000229941EA0909099959EA010120D1002A0D
:1019E000ECDD59460122284608930DF047FA2146BE
:1019F000834610F0A0FD0028089B02DCDED1DA0748
:101A0000DCD5392BD8D1049A392313703B461F46B5
:101A1000013B17F8012C392A50D001321A7047E7E0
:101A2000002A03DD392BEED00133C7E7089A0A9963
:101A300002F8013C8A422AD0594600230A2228464D
:101A40000DF0BEF8B04583464FF000034FF00A0298
:101A50004146284607D10DF0B3F880460646089B5C
:101A60000133089375E70DF0ABF83146804600234B
:101A70000A2228460DF0A4F80646F0E7B9F1000F57
:101A8000039ACCBF4F46012717444FF00008594630
:101A90000122284608930DF0F1F92146834610F003
:101AA0004AFD0028B2DC02D1089BDB07AED43B46DE
:101AB0001F4613F8012D302AFAD0F9E6039A9A420C
:101AC000A5D10AF1010A312379E7144BFFF7A7BA30
:101AD000269B002B7FF480AA114BFFF7A0BAB9F127
:101AE000000F03DC229B022B3FF7CBAE039F214666
:101AF000584610F0F2FB00F1300307F8013B039A5F
:101B0000BA1A9145BADD594600230A2228460DF03B
:101B100057F88346EBE700BF804C0108DE4B010815
:101B2000024C010880B594B0002413944022214651
:101B300003A810F062FA0294009401947E4D2846A6
:101B400010F05DF92B46224601217C4810F02FF958
:101B5000012128460BF028FFC1E09DF800602546D2
:101B600007E0774B03EB8101764809F0F5FF01357B
:101B7000EDB22246E31D29469D4213DC3319AB42E8
:101B800009DD01329142ECDC6D4B03EB81016E48C3
:101B900009F0E2FFEBE76A4B03EB81016B4809F0C8
:101BA000DBFFE4E79DF804602C4607E0644901EBA5
:101BB0008201664809F0D0FF0134E4B26B1D224671
:101BC0009C4209DC631BB342F0DA5D4901EB820100
:101BD0005F4809F0C1FFEFE75E4B186883681B6838
:101BE0001022574998477AE09DF80030042B21D8FD
:101BF000DFE803F003070B0F1300534B1B6813932D
:101C000018E0504B1B68139314E0514B1B6813935F
:101C100010E0514B1B6813930CE0504B1B6813935F
:101C200008E0651CEDB203AB03EB840113A809F0D7
:101C300093FF2C46A642F4D8002419E0454D2868AD
:101C400083681B68102203A998474FF47A7600270F
:101C5000304639460BF06EF9286883681B681022FD
:101C60003F499847304639460BF064F90134E4B2F5
:101C70009DF80130A342E1D8364B186883681B6891
:101C800010222F4998472AE02F4B1B68139318E026
:101C90002C4B1B68139314E02D4B1B68139310E01F
:101CA0002D4B1B6813930CE02C4B1B68139308E01F
:101CB000651CEDB203AB03EB840113A809F04CFFE4
:101CC0002C46A642F4D8234B186883681B68102260
:101CD00003A9984703E0642000210BF02BF9214B66
:101CE0005B6A002BF7D00022002302A91D480AF0EE
:101CF000B5FA029B6A46191D03C982E803005C78A5
:101D00009E781B78012B3FF428AF022B3FF46CAF79
:101D1000002BE4D19DF80030042BD2D801A252F858
:101D200023F000BF891C0008911C0008991C0008C2
:101D3000A11C0008A91C0008B40E0020600E0020A1
:101D4000740E0020AC2D0108B42D0108A82D010847
:101D5000A42D010800000020B02D0108B82D0108B5
:101D6000200E0020EC04002000B591B00123ADF856
:101D700008300223ADF80A30204B0E93204B0F930E
:101D80000023019303228DF80420019A0D92194635
:101D900063F3000163F3410163F3820163F3C5015F
:101DA000042262F388110C2262F3522163F3DE41B4
:101DB00063F3DF710DAA13480DF03BFE124B134A7B
:101DC00092E8030083E80300114B1B780A2B0AD02A
:101DD0000F4A1378013313700E4B18680FF08EFE04
:101DE00011B05DF804FB002200230B490B480AF0F8
:101DF000D9F9074B00221A70EAE700BFBC2D010891
:101E0000942F0108302B0108DC0E0020143001084B
:101E1000A80300203C300108D00E002088050020D7
:101E2000F0B587B0304B05933048314B18600FF058
:101E3000FDFB002843D02F4F2F4938460FF0B7FC49
:101E40002E4E00222E4930460FF01CFF00240025A4
:101E500022462B4605A92B480AF0A4F92A4B2B4A07
:101E600092E8030083E80300294B4FF0040C83F849
:101E700001C00021197005229A700120D870032238
:101E80005A711971234B83F801C019704FF0020C7D
:101E900083F802C0D8705A7119711F480BF084FD85
:101EA00038460AF079FC47F288720023CDE9002316
:101EB00022462B4630460BF07BFA07B0F0BD0C4BA8
:101EC0001B681B680393154B0293154B01930090FD
:101ED0000346042213490DF08EF94FF0FF304FF006
:101EE000FF310BF027F8A6E738000020EC270108A7
:101EF000D80E0020000F00202130000888060020A6
:101F0000691D0008EC040020DC0E00200C300108E4
:101F1000D00E0020C40E002028000020AC2F0108A5
:101F2000D82D0108302B010870B5B44B1B79012B5B
:101F300002D00125284670BD0025B14B5B6A3BBB32
:101F4000B04B5B6A002B3FD1AF4B0022BFF35B8FDE
:101F500053E8001F012903D143E800200028F7D1EE
:101F6000BFF35B8F12D1A94C206883681B691146AF
:101F70009847A74900234B73206883681B689847DC
:101F8000206883681B69A34AA34998470125D1E7C4
:101F90009B4C00220023A14920460AF05FF94FF034
:101FA0001003EFF3118283F31288BFF36F8F9C4B02
:101FB0001A60964B186883681B690022114698477F
:101FC00000231A46184620E08E4C00220023934935
:101FD00020460AF043F9E2E790490E789C460FE06C
:101FE000012101FA0CFE22EA0E0EACEB030201FA0B
:101FF00002F232409A404EEA02028C445FFA8CFCB4
:10200000991C8C45ECDB63460130052800F38F807A
:102010000528F9D801A151F820F000BFD91F000808
:10202000352000086720000899200008CB20000810
:10203000FD20000879494E789C460FE0012101FA05
:102040000CFE22EA0E0EACEB030201FA02F2324061
:102050009A404EEA02028C445FFA8CFCD91C8C45F3
:10206000ECDB6346D0E76D498E789C460FE001219A
:1020700001FA0CFE22EA0E0EACEB030201FA02F2A8
:1020800032409A404EEA02028C445FFA8CFC191DE1
:102090008C45ECDB6346B7E76049CE789C460FE0A1
:1020A000012101FA0CFE22EA0E0EACEB030201FA4A
:1020B00002F232409A404EEA02028C445FFA8CFCF3
:1020C000591C8C45ECDB63469EE754490E799C46CF
:1020D0000FE0012101FA0CFE22EA0E0EACEB030226
:1020E00001FA02F232409A404EEA02028C445FFA50
:1020F0008CFC591C8C45ECDB634685E747494E79DF
:102100009C460FE0012101FA0CFE22EA0E0EACEB18
:10211000030201FA02F232409A404EEA02028C4473
:102120005FFA8CFCD91C8C45ECDB63466CE74FF006
:10213000000C13E000F001032B435B00DDB240080C
:102140000131C9B20629F5D900F001002843354B09
:1021500003F80E000CF1010C5FFA8CFCBCF1010FCE
:102160000CD8E6464FEACC03FF2098401040D840F8
:10217000C0B22C4B03F80C000021E3E724490123F3
:102180004B73224B186883681B689847051E25DB34
:102190001E4B186883685B680222224998470546EF
:1021A00018BB1B4900234B73184B186883681B68C6
:1021B0009847051EFFF6BEAE144B186883681B696E
:1021C000144A15499847154B9B78052B14D0144B8E
:1021D0001B6883F31188BFF36F8FABE600220023E7
:1021E0000E49204609F0DEFFA4E6002200230B4939
:1021F000204609F0D7FFE6E70125E8E7DC0E0020DE
:10220000BC05002088050020F00E0020EC0E002008
:1022100018000020F12D00083D2E0008F80E0020C7
:10222000CC0E0020F40E00202DE98048ADF50F7D86
:1022300000AF4FF00009C7F83090A7F88690C7F8B4
:102240007C90A7F88090C7F87490A7F87890C7F8AA
:102250007090AD4B7B644346D046DA469B4600F017
:1022600071BD04F0010349EA03094FEA49095FFA25
:1022700089F964080132D2B2062AF2D904F00104C5
:1022800044EA090407F184035C55ED00AC402143A6
:102290000130C0B2012805D8054607F184031C5C53
:1022A0000022E9E70023184616E0E51A012202FAA7
:1022B00005F697F8745025EA060587F87450A24091
:1022C0000A40DA402A4387F874200134E4B29A1CA9
:1022D0009442EADB23460130052800F38680052876
:1022E000F9D8DFE800F0031C354E67801C46EEE7A6
:1022F000E51A012202FA05F697F8755025EA060557
:1023000087F87550A2400A40DA402A4387F87520C2
:102310000134E4B2DA1C9442EADB2346DBE71C46D4
:10232000F8E7E51A012202FA05F697F8765025EA51
:10233000060587F87650A2400A40DA402A4387F81B
:1023400076200134E4B21A1D9442EADB2346C2E748
:102350001C46F8E7E51A012202FA05F697F87750CD
:1023600025EA060587F87750A2400A40DA402A435A
:1023700087F877200134E4B25A1C9442EADB234602
:10238000A9E71C46F8E7E51A012202FA05F697F8D4
:10239000785025EA060587F87850A2400A40DA40CE
:1023A0002A4387F878200134E4B25A1C9442EADBCD
:1023B000234690E71C46F8E7E51A012202FA05F6E3
:1023C00097F8795025EA060587F87950A2400A4027
:1023D000DA402A4387F879200134E4B2DA1C9442C7
:1023E000EADB234677E71C46F8E797F87530042BBD
:1023F00002D0002B40F0928097F87760002E00F01A
:10240000CE82012E40F044844FF00103A7F85030F3
:102410004FF00201A7F852103C4BC7F8B0303C48CF
:10242000C7F8B4000024FC644FF0030387F84C3075
:10243000FB6CC7F8AC3064F3000B64F3410B64F33E
:10244000820B64F3C50B042565F3881B4FF00C0C5D
:102450006CF3522B64F3DE4B64F3DF7B234607F10E
:10246000AC0259462B480DF0E4FA4FF00102A7F8F0
:1024700050204FF00201A7F85210274BC7F8C83080
:102480002348C7F8CC00FC644FF0030387F84C30B6
:10249000FB6CC7F8C4303B6C64F3000364F3410386
:1024A00064F3820364F3C50365F388134FF00C0CE7
:1024B0006CF3522364F3DE4364F3DF7319463B6429
:1024C000234607F1C40213480DF0B3FA97F87430AD
:1024D00087F87C3087F87D5097F8763087F87E3023
:1024E0004FF0030287F8812087F8804087F87F400B
:1024F000052B00F22282DFE813F029018E00F201A1
:10250000C101C101600100BF88050020402E010803
:10251000B82F0108302B0108502E01080122A7F81E
:1025200050200222A7F852206E4688B0694611F169
:102530000C026AD014200124A7F850401AB10428D4
:1025400001DDC14C0C610224A7F852401AB10828E1
:1025500001DDBE4C4C6112B10C2800DD8B611AB15B
:10256000102801DD0023CB61132851DD142332B183
:102570000020F864052087F84C00F86CC8606FF301
:1025800000086FF341086FF382086FF3C508042554
:1025900065F3881803F47D7363F352286FF3DE4804
:1025A0006FF3DF78AA4C0023414620460DF041FA34
:1025B000B5460123A7F850300223A7F85230A54BA7
:1025C000C7F89830A14BC7F89C300023FB64032266
:1025D00087F84C20FA6CC7F8942063F3000A63F381
:1025E000410A63F3820A63F3C50A65F3881A0C2271
:1025F00062F3522A63F3DE4A63F3DF7A07F194024F
:10260000514620460DF015FA9CE36FF0004092E72A
:102610006FF01B03ABE70123A7F850300223A7F8A4
:1026200052308D4BC7F81031884BC7F81431002356
:10263000FB64032287F84C20FA6CC7F80C21BA6AB5
:1026400063F3000263F3410263F3820263F3C502A2
:102650001146042262F388110C2262F3522163F3C3
:10266000DE4163F3DF71B96207F5867278480DF0D9
:10267000E0F997F87430032B30D00123A7F85030DD
:102680000223A7F85230754BC7F840316F4BC7F89B
:1026900044310023FB64032287F84C20FA6CC7F80E
:1026A0003C217A6863F3000263F3410263F3820220
:1026B00063F3C5021146042262F388110C2262F30F
:1026C000522163F3DE4163F3DF71796007F59E7297
:1026D0005F480DF0AEF9624B7B646EE00123A7F812
:1026E00050300223A7F852305E4BC7F82831574BC1
:1026F000C7F82C310023FB64032487F84C40FA6CA4
:10270000C7F82421BA6863F3000263F3410263F35C
:10271000820263F3C5021146042262F388110C227F
:1027200062F3522163F3DE4163F3DF71B96007F5B1
:10273000927247480DF07DF94B480AF02DF821467A
:102740004A480BF031F9464B7B6436E00124A7F888
:1027500050400223A7F85230454BC7F858313B4B45
:10276000C7F85C310023FB64032287F84C20FA6C25
:10277000C7F854217A6A63F3000263F3410263F3FA
:10278000820263F3C5021146042262F388110C220F
:1027900062F3522163F3DE4163F3DF71796207F57F
:1027A000AA722B480DF045F92F4809F0F5FF214694
:1027B0002E480BF0F9F82F4B7B64786C28B100227F
:1027C000002307F17C0109F0EDFC0A22002307F148
:1027D0008601294809F042FDB7F9862012F1460F1B
:1027E00080F2888293B203F1500189B2092940F244
:1027F000B88203F15A0189B2092940F2B58203F186
:10280000640189B2092940F2B28203F1690189B2F7
:10281000042940F2AF8203F17D0189B2132940F20D
:10282000AC8203F17F0189B2012940F2A98282338F
:102830009BB2022B40F2A78212F1820F80F25C82DF
:1028400000233B6358E200BF002E0108B82F0108A7
:10285000302B0108282E0108642E0108A82E01083B
:1028600088050020842E0108000F00202800002089
:10287000DC2E0108BC050020200500200123A7F85C
:1028800050300223A7F85230C54BC7F8E030C54B93
:10289000C7F8E4300023FB64032287F84C20FA6C6D
:1028A000C7F8DC203A6A63F3000263F3410263F382
:1028B000820263F3C5021146042262F388110C22DE
:1028C00062F3522163F3DE4163F3DF71396207F192
:1028D000DC02B5480DF0ADF8B44B7B646DE7012325
:1028E000A7F850300223A7F85230B14BC7F8F830A0
:1028F000AC4BC7F8FC300023FB64032287F84C2064
:10290000FA6CC7F8F420FA6963F3000263F341023A
:1029100063F3820263F3C5021146042262F3881155
:102920000C2262F3522163F3DE4163F3DF71F9613C
:1029300007F1F4029C480DF07CF80123A7F8503011
:102940000223A7F852309B4BC7F87031954BC7F85C
:1029500074310024FC64032387F84C30FB6CC7F807
:102960006C31FB6A64F3000364F3410364F3820394
:1029700064F3C5031A46042363F388120C2363F33C
:10298000522264F3DE4264F3DF721146FA62234698
:1029900007F5B67284480DF04CF87C64D2E14FF034
:1029A0000103A7F850304FF00202A7F85220824BE3
:1029B000C7F888317B49C7F88C110024FC644FF0BC
:1029C000030087F84C00FB6CC7F88431FB6B64F3A1
:1029D000000364F3410364F3820364F3C503042634
:1029E00066F388130C2565F3522364F3DE4364F326
:1029F000DF731946FB63234607F5C2726A480DF080
:102A000018F84FF00103A7F850304FF00202A7F872
:102A100052206A4BC7F8A0316249C7F8A411FC6480
:102A20004FF0030087F84C00FB6CC7F89C31BB6B80
:102A300064F3000364F3410364F3820364F3C503A6
:102A400066F3881365F3522364F3DE4364F3DF73A4
:102A50001946BB63234607F5CE7253480CF0E9FFD5
:102A600097F87630B34200F2E180DFE803F03503F7
:102A7000AD6767000123A7F850300223A7F8523052
:102A80004F4BC7F8E831474BC7F8EC310024FC64E2
:102A9000032387F84C30FB6CC7F8E431BB6964F35F
:102AA000000364F3410364F3820364F3C5031A462D
:102AB000042363F388120C2363F3522264F3DE428F
:102AC00064F3DF721146BA61234607F5F2723648A5
:102AD0000CF0AFFF7C6435E10123A7F850300223EE
:102AE000A7F85230374BC7F800322E4BC7F80432E4
:102AF0000024FC64032387F84C30FB6CC7F8FC31DE
:102B00007B6964F3000364F3410364F3820364F3B9
:102B1000C5031A46042363F388120C2363F352227D
:102B200064F3DE4264F3DF7211467A61234607F5EF
:102B3000FE721D480CF07DFF7C6403E10123A7F8C1
:102B400050300223A7F85230154BC7F8B831154B57
:102B5000C7F8BC310024FC64032387F84C30FB6CBD
:102B6000C7F8B4313B6964F3000364F3410364F3D1
:102B7000820364F3C5031A46042363F388120C230B
:102B800063F3522264F3DE4264F3DF7211463A616A
:102B9000234607F5DA7204480CF04BFF7C64D1E061
:102BA000F42E0108B82F0108302B010888050020F9
:102BB000142F0108302F0108502F0108502E010852
:102BC000642E0108DC2E01080123A7F850300223EF
:102BD000A7F852306D4BC7F8D0316D4BC7F8D431E0
:102BE0000024FC64032387F84C30FB6CC7F8CC311D
:102BF000FB6864F3000364F3410364F3820364F34A
:102C0000C5031A46042363F388120C2363F352228C
:102C100064F3DE4264F3DF721146FA60234607F57F
:102C2000E6725C480CF005FF7C648BE00123A7F89A
:102C300050300223A7F85230574BC7F81832544B84
:102C4000C7F81C320024FC64032387F84C30FB6C6B
:102C5000C7F814323B6864F3000364F3410364F380
:102C6000820364F3C5031A46042363F388120C231A
:102C700063F3522264F3DE4264F3DF7211463A607A
:102C8000234607F5057243480CF0D3FE7C6459E0F7
:102C90000123A7F850300223A7F852303F4BC7F862
:102CA00030323B4BC7F834320024FC64032387F8EE
:102CB0004C30FB6CC7F82C327B6B64F3000364F37D
:102CC000410364F3820364F3C5031A46042363F3E8
:102CD00088120C2363F3522264F3DE4264F3DF7242
:102CE00011467A63234607F50B722A480CF0A1FEC1
:102CF0007C6427E008233B63294B396BBFF35B8F70
:102D000053E8002F43E800100028F9D1BFF35B8F90
:102D100097F879101A1DBFF35B8F52E8000F42E855
:102D20000014002CF9D1BFF35B8F043B3B670022FA
:102D3000002307F170011B4809F034FA012000213B
:102D40000AF0F8F8184B5B6A002BF7D0002200233A
:102D500007F18401144809F081FA00210846FFF7C1
:102D600099BA07233B63C7E706233B63C4E7052300
:102D70003B63C1E704233B63BEE703233B63BBE73D
:102D800002233B63B8E73E63B6E700BF142F010898
:102D9000B82F0108302B0108302F0108602F0108DF
:102DA0003C000020EC0400205405002008B50E482B
:102DB0000E4B18600EF03AFC70B1FFF731F84FF08F
:102DC000FF304FF0FF310AF0B5F8FFF7ADF8012002
:102DD00000210AF0AFF8F8E74FF0FF304FF0FF3175
:102DE0000AF0A8F8E9E700BF4C280108EC0E002023
:102DF00038B54FF01002EFF3118382F31288BFF35E
:102E00006F8F0A4C23600A4D286883681B69002273
:102E100011469847286883681B69064A06499847FF
:102E2000236883F31188BFF36F8F38BDE40E002051
:102E3000EC0E0020F12D00083D2E00082DE9F04F8A
:102E4000A1B00D461446ADF80E30ADF836204FF067
:102E50001003EFF3118283F31288BFF36F8F654B7A
:102E60001A600B780D2B02D00022134665E04FF05C
:102E7000010BADF814B04FF0020AADF816A05E4B8E
:102E800012935E4B1393002604964FF003088DF8BF
:102E90001080049B1193314666F3000166F34101F3
:102EA00066F3820166F3C501042767F388114FF0CA
:102EB0000C0969F3522166F3DE4166F3DF71334694
:102EC00011AA4F480CF0B5FDADF814B0ADF816A03E
:102ED0004C4B1893494B199304968DF81080049B22
:102EE0001793314666F3000166F3410166F38201F0
:102EF00066F3C50167F3881169F3522166F3DE4179
:102F000066F3DF71334617AA3D480CF092FD3E4E42
:102F100030460EF0C3FE4FF47A7000210AF00AF832
:102F200047F288720023CDE90023384A092330464E
:102F30000AF03EFA98E70133DBB29C4205D9E95C1E
:102F40000029F8D10132D2B2F5E7944217D0002619
:102F5000002732463B4629462D4809F023F93246E0
:102F60003B460DF10E012B4809F01CF9214B1B6863
:102F700083F31188BFF36F8F21B0BDE8F08F012478
:102F8000ADF814400223ADF81630234B1E931B4BB3
:102F90001F930023049303228DF81020049A1D929E
:102FA000194663F3000163F3410163F3820163F3A4
:102FB000C501042262F388110C2262F3522163F3EB
:102FC000DE4163F3DF711DAA0D480CF032FD134B97
:102FD000BFF35B8F53E8002F43E800410029F9D18C
:102FE000BFF35B8F034B1B6883F31188BFF36F8FB5
:102FF000C2E700BFE80E0020402E0108FC2F0108A8
:10300000382B0108D02F0108880600201EE2FFFFA0
:103010005405002020050020E82F0108F00E0020B4
:103020002DE9F04784B003E03220002109F082FF4F
:103030000A2200230121B9480AF00AFC0028F3D132
:10304000B64B1B69DB68012B48D0022B00F0638173
:10305000002B00F06B81B24B1D68AB685B6802AA65
:1030600002212846984770BB029C039EB20042EAA8
:103070009472A3001B1946EB0202D20042EA53727B
:10308000DB001B1B62EB0602120142EA13721B01FA
:103090001B1946EB0206B60146EA93669C01A14A5B
:1030A000002320463146FDF749FD02464FF0FF332D
:1030B000A3429D4BB34106D3AB681C680023009329
:1030C00002212846A047954B1A6900219160DA68D1
:1030D00061F35232DA6004B0BDE8F087904BD3F868
:1030E0000080D8F808305B6802AA02214046984761
:1030F0000028E8D1029E039FBC0044EA9674B30006
:103100009B1947EB0404E40044EA5374DB009B1B67
:1031100064EB0704240144EA13741B019B1947EB79
:103120000404A40144EA93649D017E4A00232846D6
:103130002146FDF703FD81464FF0FF33AB427A4B4A
:10314000A341C0D3BA0042EA9672B3009B1947EB81
:103150000202D20042EA5372DB009B1B62EB0702C1
:10316000120142EA13721B019E1947EB02077F010D
:1031700047EAD66776016B4A002330463946FDF7A9
:10318000DDFC03464FF0FF32B242674ABA419AD3A0
:10319000D8F808201468002200924A4602214046CE
:1031A000A04790E74FF44870002109F0C3FE0135B5
:1031B000EDB2012D87D85A4B1E68B3685B6802AA2E
:1031C000022130469847002864D1DDF80890DDF8E8
:1031D0000C804FEA880444EA99744FEA890313EBA0
:1031E000090348EB0404E40044EA5374DB00B3EB46
:1031F000090364EB0804240144EA13741B0113EB74
:10320000090348EB0404A40144EA93644FEA831AD7
:10321000444A002350462146FDF790FC07464FF0F4
:10322000FF335345404BA34134D34FEA880242EA6F
:1032300099724FEA890313EB090348EB0202D200AB
:1032400042EA5372DB00B3EB090362EB080212019E
:1032500042EA13721B0113EB090348EB02084FEA21
:10326000481848EAD3685C012E4A002320464146AC
:10327000FDF764FC03464FF0FF32A2422A4A72EB8C
:10328000080207D3B2681468002200923A4602216D
:103290003046A0474FF44870002109F04BFE204B08
:1032A0001E68B3685B6802AA02213046984700286E
:1032B0007FF478AF029C039FBA0042EA9472A300A5
:1032C0001B1947EB0202D20042EA5372DB001B1BC0
:1032D00062EB0702120142EA13721B011B1947EB52
:1032E0000207BF0147EA93679C010E4A002320466C
:1032F0003946FDF723FC02464FF0FF33A3420A4B49
:10330000BB41FFF44FAFB3681C6800230093022158
:103310003046A04746E700254BE700BF04000020E9
:10332000D80E002040420F003F420F00344BD3F82C
:103330000080D8F808305B6802AA0221404698470E
:10334000002856D1029E039FBC0044EA9674B30045
:103350009B1947EB0404E40044EA5374DB009B1B15
:1033600064EB0704240144EA13741B019B1947EB27
:103370000404A40144EA93649D01224A00232846E0
:103380002146FDF7DBFB81464FF0FF33AB421E4B7E
:10339000A3412ED3BA0042EA9672B3009B1947EBC1
:1033A0000202D20042EA5372DB009B1B62EB07026F
:1033B000120142EA13721B019E1947EB02077F01BB
:1033C00047EAD66776010F4A002330463946FDF7B3
:1033D000B5FB03464FF0FF32B2420B4ABA4108D365
:1033E000D8F808201468002200924A46022140467C
:1033F000A0474FF4C870002109F09CFD2BE600BFE8
:10340000D80E002040420F003F420F002DE9F04F40
:1034100089B0029210F0030A40F0158207468B46ED
:10342000041DE0B127B1E21B04325A4500F20E82BE
:103430005D1ECDF800A0CDF80CA0CDF804A00026AC
:103440004FF00408C14607B12360C64A9342C0F05A
:103450005A81C54A9342C0F07F81002254E101F0B5
:10346000070B5C44CBF1080BDCE7252B05D10126CB
:103470004FF00408C14600E00026654605F1010C46
:103480006B78002B00F08481002EEED0A3F1200198
:103490005A29F1D801A252F821F000BF7B3400086C
:1034A00079340008793400087B3400087934000846
:1034B0007934000879340008793400087934000838
:1034C00079340008293600087B3400087934000874
:1034D0007B3400087B340008793400087B34000812
:1034E0007B3400087B3400087B3400087B34000800
:1034F0007B3400087B3400087B3400087B340008F0
:103500007B340008793400087934000879340008E5
:1035100079340008793400087934000879340008D7
:1035200091360008793400087934000879340008AD
:103530009136000891360008913600087934000869
:103540007934000879340008793400087B340008A5
:103550007934000879340008793400087934000897
:103560007934000879340008793400087934000887
:1035700079340008793400087934000821360008CD
:103580007934000879340008793400087934000867
:103590007934000879340008793400087934000857
:1035A00091360008793400082136000821360008D9
:1035B0009136000891360008913600087B340008E7
:1035C0002136000809360008793400087B340008E9
:1035D00079340008F136000821360008F136000879
:1035E0007934000879340008F136000819360008EB
:1035F00021360008793400087934000821360008A3
:1036000079340008113600084FF00808C14634E745
:103610004FF00408C14630E74FF00408C1462CE7DC
:103620002A786C2A26D0002604EB0802013AC8F159
:1036300000010A40144627B1D11B49448B45C0F014
:103640000881732B59D0B9F1040F00F09980B9F1BA
:10365000080F40F00781129B073323F0070303F1A3
:1036600008011291D3E900010FB1C2E9000102F192
:10367000080402E71CF8022C6C2A04D000264FF044
:103680000408C146D0E700264FF00808C146CBE742
:103690002B784C2B1CD0129B073323F0070303F12C
:1036A00008021292D3E90001E21D22F0070247B19D
:1036B000D31B08335B4515D82B784C2B15D0C2E9AA
:1036C000000102F1080400264FF00808C146D4E6C4
:1036D000129B073323F0070303F108021292D3E988
:1036E0000001E1E76FF01B00AAE0C2E90001E8E792
:1036F00000264FF00408C14696E7129B1A1D12924D
:103700001B6865469FE60022029901F00101104600
:1037100002B1F9B1A4EB070C4FEA9C0219B1BCF558
:10372000007F80F0998001990F2900F29880EFB115
:10373000D2B208AB0B4403F8102C78B162F07F02D0
:1037400008AB0B4403F8102C009B01330093019B42
:1037500001330193043491E60122D5E7039B013341
:103760000393F4E754260108F84C010810B10BF15B
:10377000010BECE71846FDF76EFB831C9B44E6E764
:10378000129B191D12911B6807B11360141D74E67A
:10379000E31BB3F5806F68D25FB100223A609B08EB
:1037A0003B70039B7B70009BBB70D3B9DDF804902A
:1037B00039E05B44A3F1080042E00133984213D999
:1037C00008AA1A4412F8101C12F9102C002AF4DA74
:1037D00001F07F01E21B0132934549D304F8011B3C
:1037E000EBE753460198E9E7DDF804901BE008ABEE
:1037F000534413F8106C57F82680002347F82630FE
:103800004046FDF728FB451CE31B2B4401339B4539
:1038100031D304F8016B2A46414620460EF0DFFB07
:103820002C440AF1010AD14509D9009B002BDED0B6
:1038300008AB534413F9103C002BD8DAF1E7E01B36
:1038400009B0BDE8F08F6FF00D00F9E76FF01B00D5
:10385000F6E76FF01B00F3E76FF01500F0E76FF08D
:103860001500EDE76FF01500EAE76FF01500E7E7E8
:103870006FF01B00E4E76FF01B00E1E708B50B6891
:1038800001330B60014B1B68984708BD44000020C2
:10389000014B1860704700BF4400002000B583B0A2
:1038A00002460B460021019101A9034800F02CFAC1
:1038B00003B05DF804FB00BF7D38000810B584B08C
:1038C0000446019002910021039101A9054800F0EE
:1038D0001BFA039B029A934201DA0022E2540398F6
:1038E00004B010BD7DF2000884460268002005E0A7
:1038F00000EB8000013203EB4000303813780449BC
:10390000595C11F0040FF3D1CCF80020704700BFD0
:10391000BD4A010870B582B00446002303604360CD
:1039200083604B78252B02D04E1C01251FE0881C9C
:10393000E37045E1237843F004032370B5B1013609
:1039400014E0237843F008032370F7E7237843F06B
:1039500010032370F2E7237843F020032370EDE790
:10396000237843F040032370E8E7002545B333781C
:10397000203B102BF9D801A252F823F04D39000852
:103980006B3900086B390008573900086B3900089B
:103990006B3900086B3900086B3900086B39000877
:1039A0006B3900086B390008433900086B3900088F
:1039B000353900086B3900086B3900086139000897
:1039C000237803F04403442B5FD00196237843F01F
:1039D0008003237033782A2B5CD001A8FFF784FF83
:1039E000019B9E420FD0237843F0800323706060D8
:1039F000DBB2C3F34003002854DB002213432278D8
:103A000063F341022270019B01931B782E2B14BF9C
:103A100000230123627863F341026270002B43D0DC
:103A2000019B5A1C01925B782A2B3FD001A8FFF71B
:103A30005BFFA0602378C3F3400300283EDB002235
:103A40001343227863F341022270019803784C3BC0
:103A50002E2B00F29D80DFE803F0909B9B9B9B9BAD
:103A60009B9B9B9B9B9B9B9B9B9B9B9B9B9B9B9BA6
:103A70009B9B9B9B9B9B339B579B459B9B9B9B9B98
:103A80009B9B899B9B9B9B9B820023786FF3861358
:103A900023709AE7637843F0010363703346013380
:103AA0000193B1E70122A9E70198CFE7637843F0DA
:103AB00004036370104601300190C7E70122BFE79D
:103AC000421C4378682B06D06378022161F3C60359
:103AD000637010461EE06378012262F3C6036370D0
:103AE000023017E0421C43786C2B06D06378032128
:103AF00061F3C603637010460CE06378042262F33E
:103B0000C6036370023005E06378052262F3C603E2
:103B10006370013010F8013BE370A3F14102372AD2
:103B20007DD8DFE802F05E7C7C7C5E5E5E7C7C7C27
:103B30007C7C7C7C7C7C7C7C7C7C7C7C7C4F7C7CF2
:103B40007C7C7C7C7C7C5E7C4F3A5E5E5E7C3A7CDE
:103B50007C7C7C654F717C7C717C4F7C7C4F637876
:103B6000062262F3C60363700130D3E7637807224D
:103B700062F3C60363700130CCE76378082262F316
:103B8000C60363700130237843F002032370C1E75A
:103B900063786FF3C6036370BCE7A278012161F319
:103BA0000202A270627802F07802402A10D0632BE1
:103BB00013D02378C3F34002154365F34103237008
:103BC00002B070BDA278022161F30202A270E9E79F
:103BD000217841F001012170E9E7151E18BF012588
:103BE000E7E7A378042262F30203A3700125E0E76C
:103BF000A378032262F30203A370637803F07803CF
:103C0000402BD6D10125D4E7A378032262F3020327
:103C1000A370637813F0780FCBD00125C9E7237820
:103C200043F001032370C4E72DE9F04F83B004464D
:103C30000D4601929A460C9ED378324A13F802B090
:103C40000BF0030B6F2B0FD006D9702B0FD0782BF6
:103C500010D14FF0100923E0582B02D04FF00A0981
:103C60001EE04FF010091BE04FF0080918E04FF07C
:103C7000100915E04FF00A0912E0D2B23032D2B288
:103C800006F8012D3A46434620462946FCF756FFE2
:103C9000BC4275F1000319D3564517D904460D46A9
:103CA0004FF000084F464A46434620462946FCF757
:103CB00045FF092AE1D9BBF1010F03D0D2B2573237
:103CC000D2B2DDE7D2B23732D2B2D9E7019B1B784C
:103CD00013F0200F05D0B9F1080F06D0B9F1100F7D
:103CE00009D0304603B0BDE8F08F019A937843F0D5
:103CF00008039370F5E7019A937843F010039370EB
:103D0000EFE700BFBD4A01082DE9F04F91B006462C
:103D10000D4691460393002499F80000002800F016
:103D2000D582252808D009F101092946B047002885
:103D3000C0F2CD820134EFE700230493059306938C
:103D4000079308930993494606A8FFF7E3FD0290FD
:103D50009DF8193013F0010F00F09780039B1A1D96
:103D600003921F68002FC0F288809DF8193013F06D
:103D7000040F00F09C80039B1A1D0392D3F800A04F
:103D8000BAF1000FC0F28A800023079308939DF8D0
:103D90001A3003F007039DF81910C1F3C301012B7A
:103DA00000F08E80022B00F0D380042B00F02481E1
:103DB000032B00F03B819DF8188018F0030B40F0B6
:103DC0003B819DF81B30253B532B00F2E681DFE859
:103DD00013F04001E401E401E401E401E401E40141
:103DE000E401E401E401E401E401E401E401E401AB
:103DF000E401E401E401E401E401E401E401E4019B
:103E0000E401E401E401E401E401E401E401E4018A
:103E1000E401E401E401E401E401E401E401E4017A
:103E2000E401E401E401E401E401E401E401E4016A
:103E3000E401E401E401E4018101E401E401E401BD
:103E4000E401E401E401E401E401E401E4015E01D0
:103E50006701E401E401E401E4016701E401E40134
:103E6000E401E401BE018101A201E401E4014D018C
:103E7000E4018101E401E40181019DF8183043F07F
:103E800004038DF818307F426FE79DF91830002B3E
:103E900002DB4FF0FF3768E7079F66E79DF81930B0
:103EA0006FF341038DF819304FF0FF3A6CE713F0D0
:103EB000020F02D0DDF820A066E74FF0FF3A63E77B
:103EC000CB1E042B04D8DFE803F00B1D2935350089
:103ED000039B1A1D03921B68DA170493059206E0F0
:103EE000039B1A1D03921B68DA170493059201299C
:103EF00028D002297FF45FAFBDF91030DA170493A0
:103F0000059258E7039B073323F0070303F10802E8
:103F10000392D3E90023CDE90423E8E7039B0733A9
:103F200023F0070303F108020392D3E90023CDE94C
:103F30000423DCE7039B1A1D03921B68DA17049322
:103F40000592D4E79DF8103004930023059332E7DF
:103F5000CB1E042B04D8DFE803F00B1F35414100D2
:103F6000039B1A1D03921B680493002305931EE014
:103F70009DF81B30632B07D0039B1A1D03921B680F
:103F800004930023059312E0039B1A1D03921B6800
:103F90000493002305930AE0039B073323F00703F0
:103FA00003F108020392D3E90023CDE90423012998
:103FB0001CD002297FF4FFAEBDF81030049300231B
:103FC0000593F8E6039B073323F0070303F1080288
:103FD0000392D3E90023CDE90423E8E7039B1A1DEC
:103FE00003921B68049300230593E0E79DF81030CB
:103FF000049300230593DEE608290BD0039B0733C7
:1040000023F0070303F108020392D3E90023CDE96B
:104010000423D0E6039B073323F0070303F10802D0
:104020000392D3E90023CDE90423C4E6039B1A1DC0
:1040300003921B680493BEE6029F3B464A4629460C
:1040400030460BF0CFF90028C0F241810444B94654
:1040500062E629462520B0470028C0F238810134A5
:10406000D8460DF13E0A4FF000099BE0DDF81090B4
:10407000BAF1000F07DB514648460EF022F909EB72
:10408000000AD8468EE04846FCF7E5FEF7E7049BB9
:104090008DF82830D8460DF1290A0DF1280981E064
:1040A00018F0080F05D118F0100804D04FF02008C0
:1040B00001E04FF02B08049A059B002B02DB0492D1
:1040C000059308E0524263EB4303049205934FF0DB
:1040D0002D0800E0D8460DF13E0300930AAB06AA76
:1040E000DDE90401FFF7A0FD8146BAF1000FC0F23F
:1040F00088800DF13E03A3EB09039DF818206FF3B0
:1041000086128DF818209A457ED9AAEB03030793EF
:104110000DF13E0A46E0049828B9D846DFF8B4A16C
:10412000AAF105093EE00DF13E0300930AAB06AA91
:104130000021FFF779FD81469DF81A3043F0100306
:104140008DF81A3078238DF81B30D846CDE7049AC5
:104150009DF81930C3F3C303072B06D8DFE803F03B
:10416000040B0D0F1115191B1460D8460DF13E0AF2
:104170004FF0000916E01470F7E71480F5E71460BB
:10418000F3E7E31714605360EFE7E317146053603D
:10419000EBE71460E9E71460E7E7D8460DF13E0A63
:1041A0004FF00009B9F1000F00F08D80AAEB090271
:1041B000B8F1000F00D001329DF81A1011F0100F65
:1041C00025D00232079B134411F0400F01D0089A0A
:1041D0001344002F31DDFF1A9DF8183013F0040F3F
:1041E0002BD113F0400F17D0B8F1000F17D029468C
:1041F0004046B04700286ADB0134D8464FF0300B08
:104200000FE00DF13E0ACDE70DF13E0ACAE711F0CD
:10421000080FD7D00132D5E74FF0200B01E04FF067
:10422000300B3B465F1E002B07DD29465846B04742
:1042300000284CDB01343B46F4E7B8F1000F05D011
:1042400029464046B047002841DB01349DF81A302A
:10425000C3F30012C3F3C003134305D02946302033
:10426000B047002833DB01349DF81A3013F0100FEB
:1042700006D029469DF81B00B047002827DB0134F3
:10428000079B03F1FF38002B07DD29463020B0479C
:1042900000281CDB01344346F3E753464A462946CF
:1042A00030460BF09FF8002811DB0444002F07DD97
:1042B00029462020B047002809DB0134013FF5E7FB
:1042C000DDF8089028E5DDF8089025E5204611B0D6
:1042D000BDE8F08F453001084FF01002EFF3118375
:1042E00082F31288BFF36F8F83F31188BFF36F8F50
:1042F000024B034A1A600020704700BF640100208F
:1043000000093D0008B5064B186018B1054B1B6845
:10431000092B00DC08BD044808F0CCF8FAE700BF20
:104320005C0F0020100F0020F005002008B50248A7
:1043300008F0C0F808BD00BFF005002030B589B016
:1043400000220F490F480DF09DFC0F4D0022002365
:10435000CDE90623002404940E23039302940194D0
:1043600000940A4B4FF44072094928460DF0C1F9F8
:10437000084928460DF0A9F9204609B030BD00BF14
:104380002D430008C00B0020F80B00203147000827
:10439000202200204C300108184BBFF35B8F53E8FC
:1043A000002F511C43E800100028F8D1BFF35B8FA9
:1043B0001ABB70B5002409E0114B03EB06135B68D0
:1043C00004221968284600F0D9F901340D4B0C4A33
:1043D0009B1AB4EB231F0FDA2646094D05EB041593
:1043E0002B7B002BF1D02301054AD3589B69002B6E
:1043F000E2D028469847DFE770BD7047180F0020CD
:10440000B82B0108C82B010838B108B5044A106060
:10441000084600F0A3FB002008BD6FF015007047B0
:104420004800002008B5054B1B781BB1034B012247
:104430001A7008BD024808F03DF8F7E79C15002007
:10444000F00500200D4BBFF35B8F53E8002F0132C6
:1044500043E800210029F8D1BFF35B8F00B9704712
:10446000074BBFF35B8F53E8002F013A43E800216D
:104470000029F8D1BFF35B8FF1E700BF140F0020D4
:10448000100F0020064B00200246BFF35B8F53E85D
:10449000000F43E800210029F9D1BFF35B8F70477B
:1044A000140F002038B5FFF7EDFF0546002400E0AB
:1044B00001340B4B0B4A9B1AB4EB231F0FDA09484C
:1044C00000EB041043685B79002BF1D02301054A0F
:1044D000D3581B69002BEBD029469847E8E738BD35
:1044E000C82B0108B82B0108034B18680028D4BF5B
:1044F00000200120704700BF140F002008B50249BA
:1045000002480BF03BF808BD583001081C0F002092
:1045100008B50023054A1370054A13604FF47A71F9
:104520000448FFF771FFFFF7E9FF08BD9D15002064
:10453000140F0020E5F8000808B50146002200230A
:1045400001480BF040F808BD1C0F002008B50248D8
:104550000BF0F6F808BD00BF1C0F002008B501469F
:1045600001480BF05EF908BD1C0F0020F8B50646A7
:10457000E9B9002400E001340F4B104A9B1AB4EB58
:10458000231F14DA0D4D05EB04156B685B79002BC6
:10459000F1D0314628460BF0A3F90028EBD02701D3
:1045A000064BDB591B68314628469847E3E73046FF
:1045B000FFF7D4FFF8BD00BFC82B0108B82B0108D6
:1045C00008B502480BF06AF908BD00BF1C0F0020B7
:1045D00010B50446114B1B7803B9D0B10BF08FF91D
:1045E000034680B15CB90E4ABFF35B8F52E8001FEF
:1045F000013942E800100028F8D1BFF35B8F214653
:104600001846FFF7B3FF14B9FFF76EFF10B90BF0B0
:104610007AF910BDFFF746FFF9E700BF9C150020AF
:10462000100F002010B582B01D4BBFF35B8F53E815
:10463000002F511C43E800100028F8D1BFF35B8F16
:10464000184B1B783BB9184B1B6803B19AB10A2A67
:104650001CD002B010BD4FF01003EFF3118483F3B0
:104660001288BFF36F8F0020FFF7B2FF84F3118829
:10467000BFF36F8FEDE700220023CDE9002342F264
:1046800010720023094808F093FEE2E7002BE0D007
:1046900006480DF003FB064807F00CFFD9E700BF02
:1046A000100F00209D1500205C0F0020C00B002083
:1046B000F005002010B50446054B1B689847A06024
:1046C000214604480BF016F8FFF7ACFF10BD00BF01
:1046D000480000201C0F0020124B1B7803B17047CC
:1046E00010B5FFF759FE002400E001340E4B0F4ACD
:1046F0009B1AB4EB231F0CDA0C4800EB0410436840
:104700005B79002BF1D02301084AD3585B699847A5
:10471000EBE70020FFF75CFF0028FAD1014B0122F4
:104720001A7010BD9D150020C82B0108B82B010878
:1047300008B5FFF731FE08F015FCFFF7E3FD002098
:10474000FFF746FF0028FAD14FF0FF324FF0FF335A
:10475000014807F0D7FEF2E7F0050020054B064AB6
:104760009B1AB1EBD30F02D252F8310070470020F0
:10477000704700BFB82B0108302B010808B5074B64
:10478000C31A1B11013342681371436819604368EF
:1047900001225A71FFF746FE08BD00BFB82B010881
:1047A0000EB400B582B0014603AB53F8042B01935D
:1047B0000348FFF7A9FA02B05DF804EB03B07047B5
:1047C000ADF9000830B585B011F0440F05D01A4B93
:1047D0001C6834B9002005B030BD1849FFF7E0FF70
:1047E000F9E7174B1968B2FBF1F1B1FBF4FC154A7C
:1047F000A2FB0C32D20A4FF4616E0EFB12CE124BAA
:10480000A3FB0E535B0904FB1C114FF47A7C0CFBD9
:1048100001F1B1FBF4F505FB14110CFB01F1B1FB47
:10482000F4F102910195C3EB0311AEEB810100910C
:104830000649FFF7B5FFCEE7600F00206C30010896
:10484000640F0020C5B3A291898888887830010858
:1048500061B108B52AB1064A52F8232012B9054AB7
:1048600000E0044A0449FFF79BFF08BD704700BF02
:10487000F0300108943001089C30010811F0100F4D
:104880000BD108B511F0200F03D00449FFF788FFC2
:1048900008BD0349FFF784FFFAE77047F8350108C0
:1048A000A03001082DE9F04105460F46164698460E
:1048B0000699FFF7E3FF0024444505DA244928461A
:1048C000FFF76EFF0134F7E7002409E0204928468E
:1048D000FFF766FF0BE01F492846FFF761FF013431
:1048E0000F2C0CDC002C02DD14F0070FEED0B442CC
:1048F000F1D23A5D18492846FFF752FFEFE7174912
:104900002846FFF74DFF002409E011492846FFF72C
:1049100047FF0BE012492846FFF742FF01340F2CF6
:1049200013DC002C02DD14F0070FEED0B44207D2E6
:104930003A5D0C4BD35C13F0970FEBD12E22E9E7D5
:1049400003492846FFF72CFFE8E7BDE8F08100BFE8
:10495000C8300108AC300108A4300108B0300108AB
:10496000B4300108BD4A01082DE9F04180461646E1
:104970001D46BDF9187059B90024002F1CDB86B103
:104980000123079A934013F0100F18D10D4E09E040
:104990000D4B079A53F822200C49FFF701FF0446FC
:1049A000EBE7084E39462846FFF7D8FE0246314667
:1049B0004046FFF7F5FE04442046BDE8F081044E72
:1049C000F0E700BFB83001082C310108C4300108FD
:1049D000C03001082DE9F04F85B005460C4616465B
:1049E00003939DF8388001F0020B01F0010AC1F336
:1049F000C0090AF08CFFE8B1024613492846FFF7C8
:104A0000CFFE0746BBF1000F16D14246514628465D
:104A10000AF08CFFCDF80480BDF9403000939DF87A
:104A20003C30324649462846FFF79EFF384405B0E1
:104A3000BDE8F08F0027E5E7039A21462846FFF7F7
:104A4000C1FE0744E1E700BFCC3001082DE9F04387
:104A500085B006460C4617468B680A88C2F3821852
:104A600012F4E07F35D04A680978C1F3C2016AB315
:104A70002048121A42F3CF0202920191CDF8008031
:104A8000002239463046FFF7A5FF8146254655F8F6
:104A90000C3BC3F3492343B1B8F1000F1CD11648B6
:104AA0002B46324615490AF0BAFB6288C2F3CB02A4
:104AB0002168C1F34921294482B9B8F1000F13D10B
:104AC00030460AF066FF05B0BDE8F0834FF0FF32D4
:104AD000D2E74FF00009D9E70948E1E700974B46D4
:104AE00030460AF03BFFE8E74246394630460AF0D6
:104AF00029FFE5E7302B0108E5F90008093D00082A
:104B0000ADF9000870B582B00446056842F20F7333
:104B10008B4228BF0B460E4A052168460AF0D4FB9B
:104B2000064663685B680B220A4928460AF0F1FED4
:104B300063685B683246694628460AF0EAFE6368A5
:104B40005B681B22044928460AF0E3FE02B070BDF0
:104B5000D83801082031010804310108074B01222F
:104B60001A6004E04008054A13685B001360044BB8
:104B70009842F7D8034B1860704700BF640F0020BD
:104B800040420F00600F002070B506460D4600241D
:104B900006E0054B1868315D83685B68984701340F
:104BA000AC42F6D3284670BD7C0F0020014B024A70
:104BB0001A6070477C0F0020D427010808B5034B0A
:104BC00001221A7002480AF0E4FE08BD9E1500207A
:104BD0007C31010808B50248FFF794FF08BD00BF0B
:104BE0007C31010808B50F220148FFF72FFF08BDEF
:104BF0007C31010810B5044C02E054F8043B98479E
:104C0000024B9C42F9D310BD2C2B0108302B01081C
:104C1000064B1B684BB110B55C1E044A52F823309A
:104C200098472346002CF7D110BD7047242B01086C
:104C3000014910220A60704710ED00E072B6404052
:104C400080F31188BFF36F8FBFF34F8F30BF62B611
:104C5000BFF36F8F704700BF2DE9F04796B000AFEC
:104C6000054601233B816C4688B06B4613F10C026C
:104C700000F0CA801421012038811AB1042901DD15
:104C800067481861286812B1082900DD5861686812
:104C900012B10C2900DD9861A86812B1102900DD5D
:104CA000D861132940F3B38014202AB10021796020
:104CB000052139717968D96000216FF300016FF324
:104CC00041016FF382016FF3C501012666F388117C
:104CD00000F47D7363F352216FF3DE416FF3DF71F4
:104CE000002350480AF0A5FEA5463E816C4688B0D8
:104CF0006B4613F10C0200F08D80142101203881E5
:104D00001AB1042901DD48481861E86812B1082980
:104D100000DD5861286912B10C2900DD98616869CD
:104D200012B1102900DDD861132976DD14202AB1D3
:104D300000217960052139717968D96000216FF30C
:104D400000016FF341016FF382016FF3C50101268A
:104D500066F3881100F47D7363F352216FF3DE4133
:104D60006FF3DF71DFF8BC80002340460AF061FE7C
:104D7000A5463E81EB692D4ABA63FB6300247C6043
:104D80004FF0030A87F804A07B687B63214664F335
:104D9000000164F3410164F3820164F3C50166F329
:104DA00088114FF00C0969F3522164F3DE4164F37A
:104DB000DF71234607F1340240460AF03AFE3E8195
:104DC000AB691B4A3A657B657C6087F804A07B6809
:104DD000FB64214664F3000164F3410164F3820142
:104DE00064F3C50166F3881169F3522164F3DE416F
:104DF00064F3DF71234607F14C0240460AF019FEC6
:104E00005837BD46BDE8F0876FF0004133E76FF0DB
:104E10001B004AE76FF0004170E76FF01B0086E768
:104E20008C310108782B0108BC310108EC310108F4
:104E3000FC31010840B2002807DB00F01F024009E6
:104E400001239340014A42F82030704700E100E01E
:104E5000013140B2002808DB0901C9B200F160400D
:104E600000F5614080F80013704700F00F00090161
:104E7000C9B2014B1954704714ED00E030BFFFF781
:104E8000FDBF00BF08B50F4B0F4A22F07F029A60AA
:104E9000BFF34F8FBFF36F8FD3F8882022F47002D7
:104EA000C3F88820EFF3148323F0040383F31488FA
:104EB000BFF36F8F07F094F808F0A6F800F0AEFE8D
:104EC00007F09AF800ED00E000000008094A936836
:104ED000986709490968D96708494B6843F08053C6
:104EE0004B60002383F31188BFF36F8F9368D86FF3
:104EF000704700BF3C150020B848010800ED00E0F5
:104F000012498A684FF030001044EFF3098C80E8B2
:104F1000F01F102080F31288BFF36F8F0C4F4FF0FB
:104F200000668A698A603E60906F0023936780F311
:104F3000118804B5104600F0C5FEBDE8044002F13A
:104F4000300090E8F01F8CF3098870473C15002072
:104F500004ED00E01EF0040F0CBFEFF30880EFF348
:104F60000980816911F8021C0229FFD001B50AF0FD
:104F7000DBFD01BD10B4A2F120040D4942F8081C6C
:104F800021F0010142F8081C42F8203C019B42F844
:104F90001C3C029B42F8183C039B42F8143C4FF027
:104FA000807342F8043C04650023836710BC70479B
:104FB000E5F20008114B9A68EAB110F1160F10D013
:104FC000936EA3F1200C844505D8834205D98B420A
:104FD00005D800210AE0002108E0002106E00121B7
:104FE00004E0936E8B4294BF0021012109B9002097
:104FF0007047906E70470020704700BF3C1500203E
:1050000008B50D461446084B986000F05BFE20463C
:1050100085F30988002163B681F31188BFF36F8F90
:10502000002200230AF05EF93C15002001B5EFF3E1
:105030000580A0F110004FEAC0000449014409C9ED
:105040009847BDE801400249084700007C28010854
:1050500055500008044B99689869884203D0034969
:105060004FF080520A6070473C15002004ED00E0CC
:1050700000B585B00F290FDC084B1039039102935E
:10508000074B0193002000900346012205490AF0D6
:1050900066FD05B05DF804FB034BEEE748320108FE
:1050A00060320108782B01082C32010870B5BAB0C3
:1050B00005460E4614460122ADF80820A84B0E9373
:1050C0000023019302218DF8041001990D911946D6
:1050D00063F3000163F3410163F3820163F3C501EC
:1050E00062F38811082262F3522163F3DE4163F315
:1050F000DF710DAA9B480AF09CFC9B4B9B6A13F442
:10510000805F28D1984B9B6A13F4006F46D1964B71
:105110009B6A13F4007F64D1934B9B6A13F4806FF6
:1051200040F0B480904B9B6A13F4807F40F0D180B4
:105130008D4B9B6A13F4005F40F0EE808A4A936ABD
:1051400043F47F439362012128460AF006FD207054
:1051500000203AB070BD0122ADF80820834B1493B3
:105160000023019302218DF804100199139119462F
:1051700063F3000163F3410163F3820163F3C5014B
:1051800062F38811082262F3522163F3DE4163F374
:10519000DF7113AA73480AF04CFCB3E70122ADF8A3
:1051A0000820734B1A930023019302218DF80410F9
:1051B00001991991194663F3000163F3410163F307
:1051C000820163F3C50162F38811082262F3522160
:1051D00063F3DE4163F3DF7119AA62480AF029FC28
:1051E00095E70122ADF80820624B2093002301933C
:1051F00002218DF8041001991F91194663F30001F3
:1052000063F3410163F3820163F3C50162F3881123
:10521000082262F3522163F3DE4163F3DF711FAAB8
:1052200050480AF006FC504B9A6B9B6A13F4004FEF
:105230003FF472AF0120ADF808004F4B2693279240
:105240000023019303228DF80420019A2592194628
:1052500063F3000163F3410163F3820163F3C5016A
:1052600060F388110C2262F3522163F3DE4163F391
:10527000DF7125AA3B480AF0DCFB002E3FF44CAF5F
:10528000394A936A23F40043936245E70122ADF85B
:1052900008203A4B2C930023019302218DF804102F
:1052A00001992B91194663F3000163F3410163F304
:1052B000820163F3C50162F38811082262F352216F
:1052C00063F3DE4163F3DF712BAA26480AF0B1FBDA
:1052D00028E70122ADF80820294B389300230193D9
:1052E00002218DF8041001993791194663F30001EA
:1052F00063F3410163F3820163F3C50162F3881133
:10530000082262F3522163F3DE4163F3DF7137AAAF
:1053100014480AF08EFB11E70122ADF80820194B62
:1053200032930023019302218DF8041001993191E9
:10533000194663F3000163F3410163F3820163F3F0
:10534000C50162F38811082262F3522163F3DE4142
:1053500063F3DF7131AA03480AF06BFBEEE600BF8E
:1053600074320108782B010800ED00E08C3201084E
:10537000A0320108B4320108D0320108E832010835
:10538000043301081C33010800B5B5B00122ADF8A3
:1053900008208E4B0E930023019302218DF80410F8
:1053A00001990D91194663F3000163F3410163F321
:1053B000820163F3C50162F38811082262F352216E
:1053C00063F3DE4163F3DF710DAA81480AF031FB1C
:1053D000804B9B6A13F0007F25D17E4B9B6A13F0B4
:1053E000807F43D17B4B9B6A13F4002F61D1794BB3
:1053F0009B6A13F4802F7FD1764B9B6A13F4003F96
:1054000040F09D80734B9B6A13F4803F40F0BA805C
:10541000704A936A6FEA03436FEA13439362002072
:1054200035B05DF804FB0122ADF808206A4B1493F7
:105430000023019302218DF804100199139119465C
:1054400063F3000163F3410163F3820163F3C50178
:1054500062F38811082262F3522163F3DE4163F3A1
:10546000DF7113AA5A480AF0E4FAB6E70122ADF850
:1054700008205A4B1A930023019302218DF804103F
:1054800001991991194663F3000163F3410163F334
:10549000820163F3C50162F38811082262F352218D
:1054A00063F3DE4163F3DF7119AA49480AF0C1FAD8
:1054B00098E70122ADF80820494B2093002301937F
:1054C00002218DF8041001991F91194663F3000120
:1054D00063F3410163F3820163F3C50162F3881151
:1054E000082262F3522163F3DE4163F3DF711FAAE6
:1054F00037480AF09EFA7AE70122ADF80820394BC6
:1055000026930023019302218DF80410019925911F
:10551000194663F3000163F3410163F3820163F30E
:10552000C50162F38811082262F3522163F3DE4160
:1055300063F3DF7125AA26480AF07BFA5CE70122B3
:10554000ADF80820284B2C930023019302218DF8FD
:10555000041001992B91194663F3000163F3410193
:1055600063F3820163F3C50162F38811082262F3D9
:10557000522163F3DE4163F3DF712BAA14480AF072
:1055800058FA3FE70122ADF80820184B3293002368
:10559000019302218DF8041001993191194663F3AA
:1055A000000163F3410163F3820163F3C50162F318
:1055B0008811082262F3522163F3DE4163F3DF7145
:1055C00031AA03480AF035FA22E700BF4C3301083C
:1055D000782B010800ED00E06433010878330108FE
:1055E00094330108B4330108DC330108F8330108AF
:1055F00000B591B000230B700122ADF808201049CE
:105600000E91019302218DF8041001990D91194614
:1056100063F3000163F3410163F3820163F3C501A6
:1056200062F38811082262F3522163F3DE4163F3CF
:10563000DF710DAA03480AF0FCF911B05DF804FB14
:1056400024340108782B0108F0B5B5B005460C46A6
:1056500016460122ADF80820A34B0E9300230193B8
:1056600002218DF8041001990D91194663F3000190
:1056700063F3410163F3820163F3C50162F38811AF
:10568000082262F3522163F3DE4163F3DF710DAA56
:1056900096480AF0CEF9964B9B6A13F0100F34D15E
:1056A000934B9B6A13F0080F52D1914B9B6A13F0F6
:1056B000020F70D16FF015078D4B9B6A13F0010F2D
:1056C00040F0C0808A4B9B6A13F0200F40F0DD80D1
:1056D000874B9B6A13F0100F04D1854B9C6A14F022
:1056E000020405D0824B5C6814F4006440F0F08042
:1056F0007F4A936A43F0FF039362012128460AF030
:105700002CFA3070204635B0F0BD0122ADF80820EB
:10571000784B14930023019302218DF80410019912
:105720001391194663F3000163F3410163F38201AE
:1057300063F3C50162F38811082262F3522163F317
:10574000DE4163F3DF7113AA68480AF072F9A7E734
:105750000122ADF80820684B1A930023019302211F
:105760008DF8041001991991194663F3000163F350
:10577000410163F3820163F3C50162F388110822DA
:1057800062F3522163F3DE4163F3DF7119AA5748D4
:105790000AF04FF989E70122ADF80820574B209312
:1057A0000023019302218DF8041001991F911946DD
:1057B00063F3000163F3410163F3820163F3C50105
:1057C00062F38811082262F3522163F3DE4163F32E
:1057D000DF711FAA45480AF02CF9454B5F6B9B6AA5
:1057E00013F0800F02D16FF0150765E70122ADF8C5
:1057F0000820434B269327970023019303218DF81C
:10580000041001992591194663F3000163F34101E6
:1058100063F3820163F3C50162F388110C2262F322
:10582000522163F3DE4163F3DF7125AA2F480AF0AA
:1058300000F9002C3FF440AF2D4A936A23F0800317
:10584000936239E70122ADF808202E4B2C930023F8
:10585000019302218DF8041001992B91194663F3ED
:10586000000163F3410163F3820163F3C50162F355
:105870008811082262F3522163F3DE4163F3DF7182
:105880002BAA1A480AF0D5F81CE70122ADF8082027
:105890001D4B32930023019302218DF804100199CE
:1058A0003191194663F3000163F3410163F382010F
:1058B00063F3C50162F38811082262F3522163F396
:1058C000DE4163F3DF7131AA08480AF0B2F8FFE65F
:1058D00029463846FFF76EFB044600283FF408AF20
:1058E00080F30988022403E748340108782B010873
:1058F00000ED00E060340108A03201089434010892
:10590000AC340108C43401081C330108F0B5A9B057
:1059100007460E460123ADF80830734A0E92002464
:10592000019402228DF80420019A0D92214664F31D
:10593000000164F3410164F3820164F3C50163F380
:105940008811082363F3522164F3DE4164F3DF71AD
:1059500023460DAA65480AF06CF83470644BDD6A82
:1059600015F002050AD1624BDB6A002B2ADB604B83
:10597000D86A10F0804049D129B0F0BD0123ADF8BC
:1059800008305C4A2692019402228DF80420019A84
:105990002592214664F3000164F3410164F382011E
:1059A00064F3C50163F38811082363F3522164F3A0
:1059B000DE4164F3DF71234625AA4C480AF039F82A
:1059C0002046D9E70122ADF808204B4B2093002355
:1059D000019302218DF8041001991F91194663F378
:1059E000000163F3410163F3820163F3C50162F3D4
:1059F0008811082262F3522163F3DE4163F3DF7101
:105A00001FAA3A480AF015F82846B5E70122ADF872
:105A100008203A4B14930023019302218DF80410BF
:105A200001991391194663F3000163F3410163F394
:105A3000820163F3C50162F38811082262F35221E7
:105A400063F3DE4163F3DF7113AA284809F0F1FF25
:105A5000BB6933F8022C4DF602739A420DD0244BE9
:105A600093F828307BBB224B93F829308BBB204B1B
:105A70005B8D9BB29BBB28467EE70122ADF80820D8
:105A80001F4B1A933B681B930023019303218DF84E
:105A9000041001991991194663F3000163F3410160
:105AA00063F3820163F3C50162F388110C2262F390
:105AB000522163F3DE4163F3DF7119AA0B4809F049
:105AC000B8FF386858E7324601213846FFF7BCFD79
