:020000040800F2
:1000000020340020E16100085BEB000899610008E2
:1000100099610008996100089961000800000000DA
:10002000000000000000000000000000E55400088F
:10003000996100080000000091540008CDA000085C
:10004000BD550008BD550008BD550008BD55000848
:10005000BD550008BD550008BD550008BD55000838
:10006000BD550008BD550008BD550008BD55000828
:10007000BD550008BD550008BD550008BD55000818
:10008000BD550008BD550008BD550008BD55000808
:10009000BD550008BD550008BD550008BD550008F8
:1000A000BD550008BD550008BD550008BD550008E8
:1000B000BD550008BD550008BD550008BD550008D8
:1000C000BD550008BD550008BD550008BD550008C8
:1000D000BD550008BD550008BD550008BD550008B8
:1000E000BD550008BD550008BD550008BD550008A8
:1000F000BD550008BD550008BD550008BD55000898
:10010000BD550008BD550008BD550008BD55000887
:10011000BD550008BD550008BD550008BD55000877
:10012000BD550008BD550008BD550008BD55000867
:10013000BD550008BD550008BD550008BD55000857
:10014000BD550008BD550008BD550008BD55000847
:10015000BD550008BD550008BD550008BD55000837
:10016000BD550008BD550008BD550008BD55000827
:10017000BD550008BD550008BD550008BD55000817
:10018000BD550008BD550008BD550008BD55000807
:04019000BD55000851
:0C019400FFFFFFFFFFFFFFFFFFFFFFFF6B
:1001A00001F0FF01102A2BDB10F0070F08D010F828
:1001B000013B013A8B422DD010F0070F42B3F6D12C
:1001C000F0B441EA012141EA014122F007047FF045
:1001D00000070023F0E80256083C85EA010586EA9C
:1001E000010685FA47F5A3FA87F586FA47F6A5FAD8
:1001F00087F68EB9EED1F0BC01F0FF0102F00702E4
:1002000032B110F8013B013A83EA010313B1F8D18E
:100210000020704701387047002D06BF354603386F
:10022000073815F0010F07D1013015F4807F02BFA8
:10023000013015F4C03F0130F0BC0138704700BFF9
:1002400081F0004102E000BF83F0004330B54FEA87
:1002500041044FEA430594EA050F08BF90EA020FF4
:100260001FBF54EA000C55EA020C7FEA645C7FEA87
:10027000655C00F0E2804FEA5454D4EB5555B8BFAA
:100280006D420CDD2C4480EA020281EA030382EA1B
:10029000000083EA010180EA020281EA0303362DAD
:1002A00088BF30BD11F0004F4FEA01314FF4801C80
:1002B0004CEA113102D0404261EB410113F0004F92
:1002C0004FEA03334CEA133302D0524263EB430349
:1002D00094EA050F00F0A780A4F10104D5F1200EE7
:1002E0000DDB02FA0EFC22FA05F2801841F1000142
:1002F00003FA0EF2801843FA05F359410EE0A5F116
:1003000020050EF1200E012A03FA0EFC28BF4CF046
:10031000020C43FA05F3C01851EBE37101F00045FC
:1003200007D54FF0000EDCF1000C7EEB00006EEB09
:100330000101B1F5801F1BD3B1F5001F0CD3490893
:100340005FEA30004FEA3C0C04F101044FEA4452EA
:1003500012F5800F80F09A80BCF1004F08BF5FEA71
:10036000500C50F1000041EB045141EA050130BD51
:100370005FEA4C0C404141EB0101013C28BFB1F563
:10038000801FE9D291F0000F04BF01460020B1FAAE
:1003900081F308BF2033A3F10B03B3F120020CDA81
:1003A0000C3208DD02F1140CC2F10C0201FA0CF05F
:1003B00021FA02F10CE002F11402D8BFC2F1200CC4
:1003C00001FA02F120FA0CFCDCBF41EA0C0190407A
:1003D000E41AA2BF01EB0451294330BD6FEA0404C3
:1003E0001F3C1CDA0C340EDC04F11404C4F12002AE
:1003F00020FA04F001FA02F340EA030021FA04F3C0
:1004000045EA030130BDC4F10C04C4F1200220FA16
:1004100002F001FA04F340EA0300294630BD21FA54
:1004200004F0294630BD94F0000F83F4801306BF1A
:1004300081F480110134013D4EE77FEA645C18BF0E
:100440007FEA655C29D094EA050F08BF90EA020FA5
:1004500005D054EA000C04BF1946104630BD91EA9D
:10046000030F1EBF0021002030BD5FEA545C05D1A0
:100470004000494128BF41F0004130BD14F58004DF
:100480003CBF01F5801130BD01F0004545F0FE4153
:1004900041F470014FF0000030BD7FEA645C1ABF88
:1004A000194610467FEA655C1CBF0B46024650EABF
:1004B000013406BF52EA033591EA030F41F40021EB
:1004C00030BD00BF90F0000F04BF0021704730B571
:1004D0004FF4806404F132044FF000054FF0000146
:1004E00050E700BF90F0000F04BF0021704730B507
:1004F0004FF4806404F1320410F0004548BF4042DC
:100500004FF000013EE700BF42004FEAE2014FEA30
:1005100031014FEA02701FBF12F07F4393F07F4F0B
:1005200081F06051704732F07F4208BF704793F00E
:100530007F4F04BF41F40021704730B54FF4607421
:1005400001F0004521F000411CE700BF50EA010224
:1005500008BF704730B54FF000050AE050EA0102CD
:1005600008BF704730B511F0004502D5404261EB3D
:1005700041014FF4806404F132045FEA915C3FF47E
:10058000D8AE4FF003025FEADC0C18BF03325FEA1B
:10059000DC0C18BF033202EBDC02C2F1200300FACC
:1005A00003FC20FA02F001FA03FE40EA0E0021FAF1
:1005B00002F11444BDE600BF70B54FF0FF0C4CF4DF
:1005C000E06C1CEA11541DBF1CEA135594EA0C0F91
:1005D00095EA0C0F00F0DEF82C4481EA030621EACC
:1005E0004C5123EA4C5350EA013518BF52EA033507
:1005F00041F4801143F4801338D0A0FB02CE4FF0B9
:100600000005E1FB02E506F00042E0FB03E54FF0E8
:100610000006E1FB03569CF0000F18BF4EF0010EE0
:10062000A4F1FF04B6F5007F64F5407404D25FEADC
:100630004E0E6D4146EB060642EAC62141EA55518F
:100640004FEAC52040EA5E504FEACE2EB4F1FD0CD1
:1006500088BFBCF5E06F1ED8BEF1004F08BF5FEA4F
:10066000500E50F1000041EB045170BD06F0004601
:1006700046EA010140EA020081EA0301B4EB5C04AE
:10068000C2BFD4EB0C0541EA045170BD41F48011A6
:100690004FF0000E013C00F3AB8014F1360FDEBFCB
:1006A000002001F0004170BDC4F10004203C35DAA7
:1006B0000C341BDC04F11404C4F1200500FA05F32A
:1006C00020FA04F001FA05F240EA020001F00042CB
:1006D00021F0004110EBD37021FA04F642EB060141
:1006E0005EEA430E08BF20EAD37070BDC4F10C046B
:1006F000C4F1200500FA04F320FA05F001FA04F22F
:1007000040EA020001F0004110EBD37041F100011A
:100710005EEA430E08BF20EAD37070BDC4F1200525
:1007200000FA05F24EEA020E20FA04F301FA05F28D
:1007300043EA020321FA04F001F0004121FA04F235
:1007400020EA020000EBD3705EEA430E08BF20EA05
:10075000D37070BD94F0000F0FD101F0004640003F
:1007600041EB010111F4801F08BF013CF7D041EAC1
:10077000060195F0000F18BF704703F000465200C5
:1007800043EB030313F4801F08BF013DF7D043EA96
:100790000603704794EA0C0F0CEA135518BF95EA4C
:1007A0000C0F0CD050EA410618BF52EA4306D1D1D3
:1007B00081EA030101F000414FF0000070BD50EAF2
:1007C000410606BF1046194652EA430619D094EA7C
:1007D0000C0F02D150EA013613D195EA0C0F05D166
:1007E00052EA03361CBF104619460AD181EA0301BA
:1007F00001F0004141F0FE4141F470014FF0000072
:1008000070BD41F0FE4141F4780170BD70B54FF00C
:10081000FF0C4CF4E06C1CEA11541DBF1CEA13558C
:1008200094EA0C0F95EA0C0F00F0A7F8A4EB05046E
:1008300081EA030E52EA03354FEA013100F0888065
:100840004FEA03334FF0805545EA131343EA12632E
:100850004FEA022245EA111545EA10654FEA0026E3
:100860000EF000419D4208BF964244F1FD0404F59C
:10087000407402D25B084FEA3202B61A65EB0305F8
:100880005B084FEA32024FF480104FF4002CB6EBB5
:10089000020E75EB030E22BFB61A754640EA0C0035
:1008A0005B084FEA3202B6EB020E75EB030E22BF75
:1008B000B61A754640EA5C005B084FEA3202B6EBB6
:1008C000020E75EB030E22BFB61A754640EA9C0075
:1008D0005B084FEA3202B6EB020E75EB030E22BF45
:1008E000B61A754640EADC0055EA060E18D04FEA03
:1008F000051545EA16754FEA06164FEAC30343EAA3
:1009000052734FEAC2025FEA1C1CC0D111F4801F6F
:100910000BD141EA00014FF000004FF0004CB6E768
:1009200011F4801F04BF01430020B4F1FD0C88BF07
:10093000BCF5E06F3FF6AFAEB5EB030C04BFB6EB12
:10094000020C5FEA500C50F1000041EB045170BD05
:100950000EF0004E4EEA113114EB5C04C2BFD4EB32
:100960000C0541EA045170BD41F480114FF0000EB6
:10097000013C90E645EA060E8DE60CEA135594EA32
:100980000C0F08BF95EA0C0F3FF43BAF94EA0C0F35
:100990000AD150EA01347FF434AF95EA0C0F7FF4AA
:1009A00025AF104619462CE795EA0C0F06D152EAFE
:1009B00003353FF4FDAE1046194622E750EA4106E2
:1009C00018BF52EA43067FF4C5AE50EA41047FF4F3
:1009D0000DAF52EA43057FF4EBAE12E753B94AB9C3
:1009E000002908BF00281CBF4FF0FF314FF0FF3037
:1009F00000F00CB8ADF1080C6DE904CE00F0CEF8B3
:100A0000DDF804E0DDE9022304B07047704700BF61
:100A10004FF0FF3C06E000BF4FF0010C02E000BFCA
:100A20004FF0010C4DF804CD4FEA410C7FEA6C5CAD
:100A30004FEA430C18BF7FEA6C5C1BD001B050EA50
:100A4000410C0CBF52EA430C91EA030F02BF90EA3B
:100A5000020F0020704710F1000F91EA030F58BFFA
:100A6000994208BF90422CBFD8176FEAE37040F05C
:100A7000010070474FEA410C7FEA6C5C02D150EAFA
:100A8000013C07D14FEA430C7FEA6C5CD6D152EAB5
:100A9000033CD3D05DF8040B704700BF844610467A
:100AA00062468C461946634600E000BF01B5FFF779
:100AB000B7FF002848BF10F1000F01BD4DF808ED49
:100AC000FFF7F4FF0CBF012000205DF808FB00BF1A
:100AD0004DF808EDFFF7EAFF34BF012000205DF874
:100AE00008FB00BF4DF808EDFFF7E0FF94BF0120C1
:100AF00000205DF808FB00BF4DF808EDFFF7CEFFC2
:100B000094BF012000205DF808FB00BF4DF808ED00
:100B1000FFF7C4FF34BF012000205DF808FB00BFD1
:100B20004FEA410C7FEA6C5C02D150EA013C0AD1E9
:100B30004FEA430C7FEA6C5C02D152EA033C02D1DB
:100B40004FF0000070474FF0010070474FEA41023C
:100B500012F5001215D211D56FF47873B3EB62520F
:100B600012D94FEAC12343F0004343EA505311F036
:100B7000004F23FA02F018BF404270474FF00000C8
:100B8000704750EA013005D111F0004008BF6FF006
:100B9000004070474FF00000704700BF2DE9F04F54
:100BA00007468C460846099E15463C461946002BCA
:100BB00040F0C6808242B2FA82F746D94FB1C7F1FF
:100BC000200E24FA0EFE00FA07F3BD404EEA030C95
:100BD000BC404FEA15481FFA85FEBCFBF8F9220C11
:100BE00008FB19C309FB0EFA42EA03439A4528D9C8
:100BF000EB1809F1FF3004D29A4502D9A9F102009D
:100C00002B44A3EB0A03A4B2B3FBF8F208FB1233A4
:100C100002FB0EFE44EA0344A64514D92C1902F146
:100C2000FF3303D2A64501D9931E2C44A4EB0E0436
:100C300043EA00401EB1FC40002334607360BDE80D
:100C4000F08F4846DDE71346F0E702B9FFDE87BBC9
:100C5000831A01214FEA154EAAB2B3FBFEFC200C09
:100C60000EFB1C330CFB02F840EA0343984563D9A2
:100C7000EB180CF1FF3004D2984502D9ACF1020018
:100C80002B44A3EB0803A4B2B3FBFEFC0EFB1C3306
:100C90000CFB02F244EA0344A2424FD92C190CF196
:100CA000FF3304D2A24202D9ACF102032C44A41AAD
:100CB000BEE7C7F1200C20FA0CF800FA07F324FA7B
:100CC0000CFCBD404CEA03024FEA154EABB2B8FB38
:100CD000FEFC110C0EFB1C800CFB03F941EA0040EA
:100CE000814504FA07F423D928180CF1FF3104D206
:100CF000814502D9ACF102012844A0EB090092B26F
:100D0000B0FBFEFC0EFB1C000CFB03F842EA0043A8
:100D100098450FD9EB180CF1FF3204D2984502D94F
:100D2000ACF102022B44A3EB080342EA014191E734
:100D30006146E2E76246F6E76046A2E76346B6E749
:100D4000834205D90EB1C6E900700021084676E756
:100D5000B3FA83F181B9834201D3BA420AD8BC1AEB
:100D600060EB030301209C46002E68D0C6E9004CCE
:100D7000002164E70846F7E7C1F1200C8B4022FA16
:100D80000CF41C4302FA01F500FA01F327FA0CF205
:100D900020FA0CFB4FEA14491343BBFBF9F81FFA86
:100DA00084FE09FB18BB1A0C08FB0EFA42EA0B4240
:100DB000924507FA01F73ED9A21808F1FF3004D294
:100DC000924502D9A8F102002244A2EB0A029BB28A
:100DD000B2FBF9F809FB182208FB0EFE43EA0242B7
:100DE00096452AD9A21808F1FF3304D2964502D9B4
:100DF000A8F10203224443EA0040A0FB0593A2EBC2
:100E00000E029A42CE46984602D306D14F4504D2EE
:100E1000B9EB050E63EB0408013886B1B7EB0E039E
:100E200062EB080707FA0CFCCB404CEA0303CF4007
:100E3000C6E900379CE74046C7E74346DBE7314653
:100E4000FDE610F8012B11F8013B012A28BF9A4258
:100E5000F7D0D01A7047034613F8012B002AFBD1B4
:100E6000181A01387047000070B586B0054644680E
:100E7000066920680EF0ACFF50B10023227E934239
:100E800022D2E269D25C032A10D80133DBB2F5E743
:100E900023681B680293284B0193009003460122AC
:100EA00026490EF088FF6FF012003DE02B68029398
:100EB000234B019300200090034601221F490EF0AE
:100EC0007AFF6FF015002FE02068616883685B6827
:100ED00004AA9847A58C0498A0FB050114A3D3E9A4
:100EE0000023DDF814C005FB0C11FFF777FD30601F
:100EF000258C0498A0FB05010DA3D3E90023DDF8A0
:100F000014C005FB0C11FFF769FD7060648C049838
:100F1000A0FB040106A3D3E90023059D04FB0511F2
:100F2000FFF75CFDB060002006B070BDAFF300803D
:100F300000CA9A3B00000000A8250108D41101084E
:100F4000C4250108000000002DE9F04F446A99B063
:100F500016461F46CDE90467DDF89480054674B94E
:100F600010200BF05DFD0246686220B9A84BEA2113
:100F7000A8480CF085FCC0E901440460C4606B6AB9
:100F8000196851B15A684A60012393408B60284622
:100F90000CF0A2F96B6A00221A603B1EB9BF23F065
:100FA000004305930023C8F80030DDF814909A4BF5
:100FB000BCBF0122C8F8002033EA090319D1249AE2
:100FC00042F20F731360C9F31303334300F08085BB
:100FD000269B53B9914B22E0914B03930833269AF9
:100FE0001360039819B0BDE8F08F8C4B0393033363
:100FF000F5E7DDE90434CDE90C34DDE90C0100222C
:101000000023FFF75BFD804658B1249A012313604B
:10101000269B002B00F0598582481860431E0393DD
:10102000DFE716AB019317AB00932846DDE90C23ED
:101030000CF0CAFBC9F30A548346002C7ED00D9BEA
:10104000CDF84C80C3F31303DDE90C0143F07F516D
:1010500041F44011A4F2FF34734B0022FFF7F4F87F
:1010600065A3D3E90023FFF7A7FA65A3D3E900231B
:10107000FFF7ECF8064620460F46FFF733FA62A367
:10108000D3E90023FFF798FA02460B46304639466B
:10109000FFF7DCF806460F46FFF758FD00228246B0
:1010A000002330463946FFF713FD48B15046FFF79D
:1010B00019FA32463B46FFF701FD08B90AF1FF3A3B
:1010C000BAF1160F57D8594B03EBCA03D3E90023E3
:1010D000DDE90C01FFF7FCFC00284ED00AF1FF3AD5
:1010E00000230F93169B1C1B631E099345BFC4F17D
:1010F00001030693002300234CBF09930693BAF122
:10110000000F3CDB099BCDF838A053440993002322
:101110000A93229B092B00F28D80052BC4BF043B50
:101120002293229BA3F10203CCBF00240124032BB2
:1011300000F28C80DFE803F02D4F4D5BDDE91643B4
:101140001C4404F23243202BC3BFC3F1400304F21A
:10115000124009FA03F3C3F12003C6BF26FA00F0D8
:10116000184306FA03F0FFF7ADF90123A1F1F87176
:10117000013C139370E70123B3E70F90B2E7069B9E
:10118000A3EB0A030693CAF100030A9300230E930C
:10119000BFE700230B93239B002B5ADC4FF0010980
:1011A000CDF820904B46CDF88C90686A00224260C2
:1011B000042202F114069E42416850D928460CF0E0
:1011C0004BF8039000284ED1194B02464FF4D571CD
:1011D000CEE60123DEE700230B93239B0AEB0309F2
:1011E00009F10103012B0893B8BF0123DDE70123B7
:1011F000F2E700BFAFF3008061436F63A787D23F80
:10120000B3C8608B288AC63FFB799F501344D33FF5
:10121000EE290108052A01080000F07FEA290108EB
:10122000E1290108BE2901080000F83FC8120108A1
:101230005F2A01080124002322930B944FF0FF3909
:101240000022CDF8209012232392AEE701230B93C6
:10125000F4E7DDF88C90CDF820904B46A5E70131FE
:1012600041605200A5E76B6A039A1A60089B0E2B37
:1012700000F2A880002C00F0A580BAF1000F34DD48
:101280009A4A0AF00F0302EBC303D3E900341AF4BD
:10129000807FCDE910344FEA2A1416D0944BDDE953
:1012A0000C01D3E90823FFF7B1FACDE9040104F0FA
:1012B0000F0403278E4E54B9DDE91023DDE9040144
:1012C000FFF7A4FACDE9040129E00227F2E7E107DC
:1012D00008D5DDE91001D6E90023FFF76DF9CDE966
:1012E0001001013764100836E5E700F0A580CAF167
:1012F00000047E4B7E4E04F00F0203EBC203D3E9E1
:101300000023DDE90C01FFF757F9CDE904012411B1
:1013100000230227002C40F08480002BD2D10F9BA9
:10132000002B00F08B80DDE90434CDE91034DDE9D9
:101330001001704B0022FFF7CBFB00287ED0089BEA
:10134000002B7BD0B9F1000F38DDDDE910016A4BCD
:101350000022FFF731F9CDE904010AF1FF38013726
:101360004C463846FFF7BEF8DDE90423FFF724F9C1
:10137000624B0022FEF76AFFA1F15076CDE9100121
:101380001196002C5DD1DDE904015D4B0022FEF7D2
:101390005BFF02460B46CDE90423109A3346FFF764
:1013A000B5FB002840F09C82DDE90401109A06F1AB
:1013B0000043FFF78DFB002840F09082DDE90C34FC
:1013C000CDE90434179B002BC0F25281BAF10E0F05
:1013D00000F34E81454B03EBCA03D3E90034CDE95A
:1013E0000634239B002B80F2DB80089B002B00F34C
:1013F000D78040F07282424B0022DDE90601FFF700
:10140000DBF8DDE90423FFF777FB089C264600287C
:1014100040F04882039F312307F8013B0AF1010A9B
:1014200044E2E20705D5D6E90023FFF7C5F8013706
:101430000123641008366DE7022770E7089CD04648
:101440008FE70399294B214412910B9903EBC403B5
:10145000DDE9106753E90223002955D0294900200E
:10146000FFF7D4F93B463246FEF7EEFECDE9100118
:10147000039FDDE90401FFF769FB0446FFF732F83B
:1014800002460B46DDE90401FEF7DEFE303402467B
:101490000B46CDE9042307F8014BDDE91023FFF7E4
:1014A00017FB002874D1DDE9042312490020FEF760
:1014B000CBFEDDE91023FFF70BFB002840F0B780DF
:1014C000129B9F423FF47AAFDDE910010A4B0022E4
:1014D000FFF772F8084BCDE910010022DDE90401A5
:1014E000FFF76AF8CDE90401C3E700BFC81201089D
:1014F000A01201080000F03F0000244000001C4042
:10150000000014400000E03F30463946FFF754F831
:10151000CDE91001129B039C1493DDE90401FFF750
:1015200015FB1590FEF7DEFF02460B46DDE90401D0
:10153000FEF78AFE159B303304F8013B129B9C4258
:1015400006460F464FF0000224D1A44BDDE91001FE
:10155000FEF77CFE02460B4630463946FFF7D6FAC8
:10156000002863D1DDE910239C490020FEF76CFEC2
:1015700002460B4630463946FFF7AAFA00283FF4E8
:101580001DAF149F7B1E149317F8013C302BF8D02D
:10159000C2463BE0924BFFF70FF8CDE90401BCE7F0
:1015A000DDE90489039FDDE9062340464946FFF74C
:1015B0002DF9FFF7CBFA0446FEF794FFDDE9062389
:1015C000FEF7FAFF04F1300602460B464046494654
:1015D000FEF73AFE07F8016B039EDDF820C0BE1B44
:1015E000B44502460B4636D1FEF730FEDDE9062350
:1015F00080468946FFF78AFA58BBDDE90623404654
:101600004946FFF75BFA08B1E10722D4284659465C
:101610000BF062FE00233B70249B0AF1010018606E
:10162000269B002B3FF4DDAC1F60DAE427463B46E7
:101630001F4613F8012D392A07D1039A9A42F7D190
:101640000399302208F101080A701A7801321A70E1
:101650009EE7D046EBE7624B0022FEF7ADFF00228B
:10166000002380468946FFF729FA00289BD0CDE762
:101670000B9A002A00F0D080229A012A00F3B2804F
:10168000139A002A00F0A68003F233430A9C069FB7
:10169000069A1A440692099A01211A442846099288
:1016A0000BF082FE0646002F0CDD099B002B09DDA6
:1016B000BB42069AA8BF3B46D21A0692099AFF1A65
:1016C000D31A09930A9BF3B10B9B002B00F0A8805F
:1016D000002C10DD3146224628460BF023FF5A46E7
:1016E0000146064628460BF075FE594680462846B8
:1016F0000BF0F2FDC3460A9B1A1B04D0594628463C
:101700000BF010FF8346012128460BF04DFE0E9B87
:10171000002B044640F386801A46014628460BF00B
:1017200001FF229B012B04467FDD4FF00008236957
:1017300004EB830318690FF03EF9C0F12000099B08
:10174000184410F01F0000F09280C0F12003042B19
:1017500040F38A80C0F11C00069B03440693099B5A
:10176000034407440993069B002B05DD59461A469E
:1017700028460BF031FF8346099B002B05DD2146EF
:101780001A4628460BF028FF04460F9B002B70D00A
:10179000214658460FF05CF900286ADA00235946C2
:1017A0000A2228460BF0BAFD0B9B0AF1FF3A83464A
:1017B000002B00F09481314600230A2228460BF0CA
:1017C000ADFDB9F1000F064600F39380229B022B7A
:1017D00057DC8EE0169BC3F1360357E70000E03F6D
:1017E00000002440089B5C1E0A9BA342BFBF0A9BCB
:1017F0000A94E21A0E9BB6BF9B181C1B0E93089B03
:10180000B8BF0024002BB9BF069B089A069F089B0F
:10181000BCBF9F1A00233BE70A9C069F0B9E42E732
:101820000A9A6BE7229B012B19DC049BBBB9059B31
:10183000C3F313039BB9059B23F000431B0D1B054A
:1018400083B1069B01330693099B013309934FF043
:1018500001080E9B002B7FF46AAF01206FE74FF069
:101860000008F6E79846F4E73FF47DAF18461C30D1
:1018700072E7089B002B36DC229B022B33DDDDF860
:101880002090B9F1000F0DD121464B460522284684
:101890000BF044FD0146044658460FF0D9F80028E5
:1018A0003FF7B8AD239B039F6FEA030A4FF0000890
:1018B000214628460BF010FD002E3FF4A7AEB8F1EC
:1018C000000F05D0B04503D0414628460BF004FD7B
:1018D000314628460BF000FD98E600242646E1E755
:1018E000C246264696E50B9BDDF82090002B00F0C3
:1018F000FD80002F05DD31463A4628460BF06CFE90
:101900000646B8F1000F5CD0716828460BF0A4FCC5
:10191000074628B9804B024640F2EA21FFF728BB70
:1019200032690232920006F10C010C300EF08FFE8B
:101930000122394628460BF04FFE039B01330893E2
:10194000039B4B440A93049B03F00103B0460993A5
:101950000646089B2146013B584604930EF0A4FF1F
:10196000034630330690414658460B930FF070F80B
:1019700032468146214628460BF09EFEC2680B9BEC
:10198000074602BB014658460FF062F80B9B024621
:1019900039462846CDE90B320BF09EFC229B0C9A6F
:1019A000089F43EA0201099B0B430B9B0DD1392B86
:1019B00029D0B9F1000F01DD069B3133049A137071
:1019C00076E73046B9E70122E2E7B9F1000F06DB1E
:1019D000229941EA0909099959EA010120D1002A0D
:1019E000ECDD59460122284608930BF0F5FD21460F
:1019F00083460FF02DF80028089B02DCDED1DA07C1
:101A0000DCD5392BD8D1049A392313703B461F46B5
:101A1000013B17F8012C392A50D001321A7047E7E0
:101A2000002A03DD392BEED00133C7E7089A0A9963
:101A300002F8013C8A422AD0594600230A2228464D
:101A40000BF06CFCB04583464FF000034FF00A02E8
:101A50004146284607D10BF061FC80460646089BAC
:101A60000133089375E70BF059FC3146804600239B
:101A70000A2228460BF052FC0646F0E7B9F1000FA7
:101A8000039ACCBF4F46012717444FF00008594630
:101A90000122284608930BF09FFD214683460EF055
:101AA000D7FF0028B2DC02D1089BDB07AED43B464F
:101AB0001F4613F8012D302AFAD0F9E6039A9A420C
:101AC000A5D10AF1010A312379E7144BFFF7A7BA30
:101AD000269B002B7FF480AA114BFFF7A0BAB9F127
:101AE000000F03DC229B022B3FF7CBAE039F214666
:101AF00058460EF0D9FE00F1300307F8013B039A77
:101B0000BA1A9145BADD594600230A2228460BF03D
:101B100005FC8346EBE700BF5F2A0108BD290108E9
:101B2000E129010880B594B0002413944022214695
:101B300003A80EF09AFD0294009401947C4D28466F
:101B40000EF076FD2B46224601217A480EF048FD24
:101B5000C1E09DF80060254607E0774B03EB81016B
:101B6000764808F0D1FF0135EDB22246E31D294643
:101B70009D4213DC3319AB4209DD01329142ECDCAA
:101B80006D4B03EB81016E4808F0BEFFEBE76A4B3B
:101B900003EB81016B4808F0B7FFE4E79DF80460B0
:101BA0002C4607E0644901EB8201664808F0ACFF6F
:101BB0000134E4B26B1D22469C4209DC631BB34234
:101BC000F0DA5D4901EB82015F4808F09DFFEFE725
:101BD0005E4B186883681B681022574998477AE063
:101BE0009DF80030042B21D8DFE803F003070B0F2A
:101BF0001300534B1B68139318E0504B1B6813934F
:101C000014E0514B1B68139310E0514B1B68139366
:101C10000CE0504B1B68139308E0651CEDB203AB5E
:101C200003EB840113A808F06FFF2C46A642F4D8FA
:101C3000002419E0454D286883681B68102203A919
:101C400098474FF47A760027304639460AF04AF929
:101C5000286883681B6810223F49984730463946F8
:101C60000AF040F90134E4B29DF80130A342E1D812
:101C7000364B186883681B6810222F4998472AE062
:101C80002F4B1B68139318E02C4B1B68139314E025
:101C90002D4B1B68139310E02D4B1B6813930CE026
:101CA0002C4B1B68139308E0651CEDB203AB03EBF0
:101CB000840113A808F028FF2C46A642F4D8234B31
:101CC000186883681B68102203A9984703E0642002
:101CD00000210AF007F9214B5B6A002BF7D00022A4
:101CE000002302A91D4809F091FA029B6A46191DBA
:101CF00003C982E803005C789E781B78012B3FF4CF
:101D000028AF022B3FF46CAF002BE4D19DF80030DC
:101D1000042BD2D801A252F823F000BF811C000886
:101D2000891C0008911C0008991C0008A11C0008CF
:101D3000FC0D0020A80D0020BC0D0020B4130108EC
:101D4000BC130108B0130108AC1301080000002007
:101D5000B8130108C4130108680D0020FC0300201B
:101D600000239C46052B00F37581F0B521E09AB362
:101D70000E781C469D1CAC4214DA4FF0010E0EFA90
:101D800004F7056825EA07050560E71A0EFA07FE5D
:101D900006EA0E0E0EFA03FE45EA0E050560013452
:101DA000E4B2E7E723460CF1010CBCF1050F00F3A8
:101DB0005081BCF1050FF6D801A454F82CF000BFF7
:101DC0006F1D0008111E0008851E0008F91E00087E
:101DD0006D1F0008E11F00081C469D1CAC4215DA6F
:101DE000E51A4FF0010E0EFA05F60D7825EA060504
:101DF0000D700EFA04FE066806EA0E0E2EFA03FEB9
:101E000045EA0E050D700134E4B2E6E72346CAE761
:101E1000DAB14E781C46DD1CAC4214DA4FF0010EEC
:101E20000EFA04F7056825EA07050560E71A0EFAB9
:101E300007FE06EA0E0E0EFA03FE45EA0E050560E1
:101E40000134E4B2E7E72346ADE74E1C1C46DD1C37
:101E5000AC4215DAE51A4FF0010E0EFA05F73578A7
:101E600025EA070535700EFA04FE076807EA0E0E2C
:101E70002EFA03FE45EA0E0535700134E4B2E6E7BA
:101E8000234690E7DAB18E781C461D1DAC4214DA69
:101E90004FF0010E0EFA04F7056825EA0705056004
:101EA000E71A0EFA07FE06EA0E0E0EFA03FE45EAE0
:101EB0000E0505600134E4B2E7E7234673E78E1CA4
:101EC0001C461D1DAC4215DAE51A4FF0010E0EFA44
:101ED00005F7357825EA070535700EFA04FE076820
:101EE00007EA0E0E2EFA03FE45EA0E0535700134A0
:101EF000E4B2E6E7234656E7DAB1CE781C465D1C2D
:101F0000AC4214DA4FF0010E0EFA04F7056825EA28
:101F100007050560E71A0EFA07FE06EA0E0E0EFA2E
:101F200003FE45EA0E0505600134E4B2E7E7234607
:101F300039E7CE1C1C465D1CAC4215DAE51A4FF0A1
:101F4000010E0EFA05F7357825EA070535700EFA09
:101F500004FE076807EA0E0E2EFA03FE45EA0E0598
:101F600035700134E4B2E6E723461CE7DAB10E79B6
:101F70001C465D1CAC4214DA4FF0010E0EFA04F759
:101F8000056825EA07050560E71A0EFA07FE06EA66
:101F90000E0E0EFA03FE45EA0E0505600134E4B2AA
:101FA000E7E72346FFE60E1D1C465D1CAC4215DA32
:101FB000E51A4FF0010E0EFA05F7357825EA070508
:101FC00035700EFA04FE076807EA0E0E2EFA03FEBD
:101FD00045EA0E0535700134E4B2E6E72346E2E651
:101FE000DAB14E791C46DD1CAC4214DA4FF0010E1A
:101FF0000EFA04F7056825EA07050560E71A0EFAE8
:1020000007FE06EA0E0E0EFA03FE45EA0E0505600F
:102010000134E4B2E7E72346C5E64F1D9E46DC1CCB
:10202000A64514DAAEEB0304012606FA04F53C7863
:1020300024EA05043C70056806FA0EF63540DD40DA
:102040002C433C700EF1010E5FFA8EFEE7E77346FB
:10205000A9E6F0BD704700BF70B592B000230B93A6
:102060000A930993414B5B6A5BB9414B5B6A002B56
:1020700047D03F4E002200233E49304609F0C6F8C3
:1020800006E03A4E002200233A49304609F0BEF8F5
:10209000012238490AA8FFF763FE00240DE0E3009F
:1020A000FF2098400A9A1040D840C0B2324D2855BF
:1020B0000CF047F828550134E4B2012CEFD92F4B2E
:1020C0005B7B5BB92D4901234B732D4B18688368EB
:1020D0001B6898470B900B9B002B14DB284B186850
:1020E00083685B680222244998470B900B9B002B66
:1020F00038D1244B09930022002309A9224809F072
:1021000029F812B070BD0123ADF804300223ADF8F8
:1021100006301E4B10931E4B119300230093032295
:102120008DF80020009A0F92194663F3000163F3C3
:10213000410163F3820163F3C501042262F3881154
:102140000C2262F3522163F3DE4163F3DF710FAAC5
:1021500010480CF07DFC002200230649304608F0B0
:10216000F9FFCEE70C4B0993C5E700BFCC04002074
:1021700098040020400E00203C0E002004000020A7
:10218000200E002018140108FC030020341401085C
:10219000B8160108A41101080C14010808B5084874
:1021A0000123BFF35B8F50E8002F002A03D140E8E2
:1021B00000310029F7D1BFF35B8F0CF00FF808BD99
:1021C0009C0E002010B590B004460123ADF80830F5
:1021D0000223ADF80A30184B0E93184B0F930023CF
:1021E000019303228DF80420019A0D92194663F39E
:1021F000000163F3410163F3820163F3C50104222B
:1022000062F388110C2262F3522163F3DE4163F31F
:10221000DF710DAA0A480CF01BFCBFF35B8F094B62
:102220001B68BFF35B8F084B1C600D221A710748B7
:1022300009F08AFA10B010BD501401089416010874
:10224000A41101080C0E0020180E0020480E0020DA
:10225000F0B583B000240194514BBFF35B8F53E87A
:10226000002F43E800410029F9D1BFF35B8F2546D9
:1022700020E0BFF35B8F4A4B1B68BFF35B8F0B2BD8
:1022800012DDBFF35B8F464B1B68BFF35B8F142BD4
:102290000ADC7DB9434B01930022002301A9424887
:1022A00008F058FF012505E0BFF35B8F3C4B1B682E
:1022B000BFF35B8F3D4B18681E79076983685B68C5
:1022C00069469847034618B93968009A4A4000920F
:1022D00033B90123B340009A134214BF01230023F2
:1022E0007BB34FF47A70002109F0FCFD2C4BBFF357
:1022F0005B8F53E8002F013243E800210029F8D119
:10230000BFF35B8FBFF35B8F1B68BFF35B8F022B49
:10231000AFDDBFF35B8F224B1B68BFF35B8F0A2BD4
:10232000A7DC002CC6D1224B01930022002301A977
:102330001D4808F00FFF01211E480AF00DFB012483
:10234000B8E724B904B105B1BDB903B0F0BD0522A9
:102350000023194808F0BAFF0028F3D1174B0122D7
:102360005A70154809F03CF815480DF0F9FD0028A1
:10237000FAD1134809F0E8F9E4E70C4B1B68196837
:102380001048FEF75EFD0028DFD1084B1B790D2BAE
:10239000DBD1002200230C490C4808F0DBFED4E717
:1023A0000C0E0020F4130108FC030020180E00207E
:1023B00014000020FC0D0020240E0020140E00202C
:1023C000580E00206C140108780E0020CC04002068
:1023D00070B586B04FF0FF330593564B04935648C3
:1023E000564B18600DF0F4FC002800F08A80544829
:1023F00008F038FC534C206081680269136843F48C
:10240000005313600B6840F201120D2198472068B9
:1024100083680269126812F4005F40F087804FF40D
:10242000B8229C6902F4C02302F4A0320D21A04717
:10243000454B464A5A604FF400529A60414B186827
:102440008368DB6913B101223F499847404C4149F9
:1024500020460DF07EFD404940480DF07AFD404990
:1024600040480DF076FD404940480DF072FD0022D5
:102470003F4940480EF01FF800223F493F480EF008
:102480001AF83F480DF04BFD0022002304A93D48F7
:1024900008F060FE3C4B3D4A92E8030083E80300ED
:1024A0003B4900234B7001220A708B70CA700B717C
:1024B0004B713848384D856003604360C1603749CF
:1024C0004B700A70CA700B714B71032088703448CE
:1024D000344E866003604360C16033494B700A70BC
:1024E00006208870CA700B714B713048856003609C
:1024F0004360C1602E4B5A70204609F025F906B0A2
:1025000070BD0E4B1B681B6803932A4B02932A4B2A
:10251000019300900346042228490BF07BFE4FF004
:10252000FF304FF0FF3109F0DDFC60E74FF470320F
:1025300077E700BF140000205C0E0108100E002099
:102540006C140108B80E0020AC0E0020C521000854
:10255000580E00208D29000845270008680E00202D
:1025600051220008480E0020A9260008DC0E002099
:10257000C1250008980500209D210008D0050020F5
:10258000240E0020FC030020BC0E002024140108AF
:10259000780E0020800E0020CC040020C40E002005
:1025A000CC0E002098040020940E00209C0E0020E9
:1025B000140E0020DC16010874140108A41101088F
:1025C00030B591B00125ADF804500223ADF80630C6
:1025D0002A4B0E932A4B0F930024009403238DF86B
:1025E0000030009B0D93214664F3000164F3410128
:1025F00064F3820164F3C501042363F388110C239F
:1026000063F3522164F3DE4164F3DF7123460DAAC4
:102610001C480CF01DFA09940022002329461A4890
:102620000AF0EEF838B9194B1B78052B13D0174A6E
:10263000137801331370164A137801331370154B56
:10264000154A92E8030083E80300144B18680DF064
:1026500037FE11B030BD124B09930022002309A9A7
:10266000104808F077FD084A11698C60D16864F35E
:102670005231D160054A1470D9E700BF9C1401089B
:10268000C4160108A4110108A80D00208D14002013
:102690008C140020BC0E00202C14010828170108FF
:1026A000E8130108FC030020BFF35B8F1C4B1B6881
:1026B000BFF35B8F03B1704730B585B00393194DFD
:1026C0004FF0FF324FF0FF33284608F0FFFD0124A2
:1026D000154B1C70154809F037F8284608F080FEA5
:1026E0000F4BBFF35B8F53E8002F43E800410029F5
:1026F000F9D1BFF35B8F0E4A0023CDE900230D48CB
:1027000009F02EFE0C4B03930022002303A90B4873
:1027100008F020FD0A4B18680DF0D2FD05B030BD61
:10272000900E0020240E0020140E0020580E0020D1
:10273000C0270900D0050020FC160108FC0300207A
:10274000C013010800B583B00023019311480BF0BA
:1027500045FD11480BF042FD0022002301A90F485E
:1027600008F0F8FC0E4B18680DF0AAFD05220023B6
:102770000C4808F0ABFD10B103B05DF804FB0A4B48
:1027800001225A70094808F0DFFF064808F028FEC9
:10279000F2E700BF800E0020CC0E0020FC030020DA
:1027A000C0130108240E0020140E0020580E002033
:1027B0002DE9F04F9DB04FF0FF330F9300230E93A0
:1027C000ADF836308DF83530624B5B7B5BB16149DB
:1027D00000234B73604B186883681B6898470F9001
:1027E0000F9B002B46DB5D480DF019FE5C4BA3FBF5
:1027F0000030C0080E905B4B1B79002B3AD1564B32
:1028000018680E9B13B10E99002201E000210A46C0
:102810004FEA820C4CEA917C8B005B1842EB0C0275
:10282000DB1852418168CC680DF1350103910DF13F
:10283000360102910093019202224B49A0470F906A
:102840000F9B002B16DD484B1B780D2B15D0002459
:10285000002522462B464449444808F07BFC22468A
:102860002B460DF13601424808F074FC414B1868C4
:102870000DF026FD1DB0BDE8F08F4FF0010BADF857
:1028800014B04FF0020AADF816A03B4B1493DFF8DA
:10289000EC90CDF85490002404944FF003088DF888
:1028A0001080049B1393214664F3000164F34101FB
:1028B00064F3820164F3C501042767F388110C26D1
:1028C00066F3522164F3DE4164F3DF712C4D23463D
:1028D00013AA28460CF0BCF8ADF814B0ADF816A059
:1028E000284B1A93CDF86C9004948DF81080049BBB
:1028F0001993214664F3000164F3410164F38201FA
:1029000064F3C50167F3881166F3522164F3DE4175
:1029100064F3DF71234619AA28460CF099F80F4C8E
:1029200020460DF0D4FD0F4B174A92E8030083E8D0
:1029300003004FF47A70002109F0D4FA47F2607274
:102940000023CDE9002300220023204609F008FDE2
:102950007DE700BF04000020200E00209805002025
:10296000CDCCCCCCBC0E0020380E0020640400205E
:10297000300400202C170108B8140108AC16010817
:10298000A4110108C8140108241401082DE9F04716
:1029900084B04FF0FF324FF0FF33924808F096FCBE
:1029A000914B5B78002B47D18F4B1B78002B40F06D
:1029B000AF808D4B9B78002B40F0D8818B4B1D68EE
:1029C000AB685B6802AA02212846984770BB029C4C
:1029D000039EB20042EA9472A3001B1946EB020266
:1029E000D20042EA5372DB001B1B62EB06021201AB
:1029F00042EA13721B011B1946EB0206B60146EAB6
:102A000093669C017A4A002320463146FDF7E6FF93
:102A100002464FF0FF33A342764BB34106D3AB6877
:102A20001C680023009302212846A0476D4808F047
:102A3000D7FC04B0BDE8F0876C4BD3F80080D8F821
:102A400008305B6802AA022140469847002856D108
:102A5000029E039FBC0044EA9674B3009B1947EBA7
:102A60000404E40044EA5374DB009B1B64EB07049A
:102A7000240144EA13741B019B1947EB0404A401CD
:102A800044EA93649D015A4A002328462146FDF7F3
:102A9000A5FF81464FF0FF33AB42564BA3412ED3E7
:102AA000BA0042EA9672B3009B1947EB0202D200C9
:102AB00042EA5372DB009B1B62EB0702120142EAFF
:102AC00013721B019E1947EB02077F0147EAD66785
:102AD0007601474A002330463946FDF77FFF03461B
:102AE0004FF0FF32B242434ABA4108D3D8F8082027
:102AF0001468002200924A4602214046A0474FF443
:102B0000C870002109F0EEF9374B00225A7055E7E2
:102B1000364BD3F80080D8F808305B6802AA02214F
:102B200040469847002856D1029E039FBC0044EAC5
:102B30009674B3009B1947EB0404E40044EA537411
:102B4000DB009B1B64EB0704240144EA13741B01A4
:102B50009B1947EB0404A40144EA93649D01244AB1
:102B6000002328462146FDF739FF81464FF0FF3309
:102B7000AB42204BA3412ED3BA0042EA9672B30077
:102B80009B1947EB0202D20042EA5372DB009B1B07
:102B900062EB0702120142EA13721B019E1947EB16
:102BA00002077F0147EAD6677601114A00233046C3
:102BB0003946FDF713FF03464FF0FF32B2420D4A8C
:102BC000BA4108D3D8F808201468002200924A4677
:102BD00002214046A047044B00221A70014808F029
:102BE000FFFB26E7240E0020140E0020100E00200C
:102BF00040420F003F420F004FF46170002109F086
:102C000071F90135EDB2012D00F2B2805C4B1E6806
:102C1000B3685B6802AA022130469847002864D155
:102C2000DDF80890DDF80C804FEA880444EA9974D6
:102C30004FEA890010EB090048EB0404E40044EA81
:102C40005074C000B0EB090064EB0804240144EAAE
:102C50001074000110EB090048EB0404A40144EADD
:102C600090644FEA801A474A002350462146FDF7F8
:102C7000B5FE07464FF0FF335345434BA34134D3D2
:102C80004FEA880242EA99724FEA890313EB09037B
:102C900048EB0202D20042EA5372DB00B3EB0903B5
:102CA00062EB0802120142EA13721B0113EB0903E3
:102CB00048EB02084FEA481848EAD3685C01314AF9
:102CC000002320464146FDF789FE03464FF0FF32C0
:102CD000A2422D4A72EB080207D3B26814680022A0
:102CE00000923A4602213046A0474FF4C8700021B6
:102CF00009F0F8F8224B1E68B3685B6802AA02214B
:102D00003046984700287FF477AF029C039FBA00B3
:102D100042EA9472A3001B1947EB0202D20042EA76
:102D20005372DB001B1B62EB0702120142EA1372B3
:102D30001B011B1947EB0207BF0147EA93679C0180
:102D4000104A002320463946FDF748FE02464FF060
:102D5000FF33A3420C4BBB41FFF44EAFB3681C687A
:102D60000023009302213046A04745E700254AE7AB
:102D7000064B00229A70064808F032FB59E600BF65
:102D8000100E002040420F003F420F00140E0020A2
:102D9000240E00202DE98048ADF51B7D00AF0023F7
:102DA000A7F88630C7F88030BB67A7F87C303B6750
:102DB000A7F87430BF4BFB665346C246984600F0F6
:102DC0002ABC0123A7F84C300223A7F84E30BA4B97
:102DD000C7F89830B94BC7F89C300023BB64032276
:102DE00087F84820BA6CC7F8942063F3000963F3AE
:102DF000410963F3820963F3C509042262F3881968
:102E00000C2262F3522963F3DE4963F3DF7907F1A1
:102E100094024946AA480BF01BFEFCE307F1840527
:102E2000285D0BF08EF92855E3009840D7F88030E4
:102E30001843C7F880000134E4B2012CEED9002217
:102E400007F1700107F18000FEF78AFF97F87130F3
:102E5000042B01D0012B4DD197F87330002B00F0DB
:102E60003582012B40F0CB840125A7F84C5002237A
:102E7000A7F84E30934BC7F8C830904BC7F8CC300A
:102E80000024BC64032387F84830BB6CC7F8C43007
:102E900064F3000B64F3410B64F3820B64F3C50B22
:102EA000042363F3881B0C2363F3522B64F3DE4B80
:102EB00064F3DF7B234607F1C402594680480BF0D8
:102EC000C7FD87F8785087F8794097F8723087F80F
:102ED0007A3087F87D4087F87B4087F87C40052B67
:102EE00000F2C581DFE813F060018500270195013C
:102EF000950165030122A7F84C200222A7F84E2075
:102F0000C7F844D088B0694611F10C026BD0142088
:102F10000124A7F84C401AB1042801DD6A4C0C6169
:102F20000224A7F84E401AB1082801DD634C4C6119
:102F300012B10C2800DD8B611AB1102801DD0123CC
:102F4000CB61132852DD142332B10020B864052070
:102F500087F84800B86CC8606FF3000A6FF3410A45
:102F60006FF3820A6FF3C50A042565F3881A03F428
:102F70007D7363F3522A6FF3DE4A6FF3DF7A504CAE
:102F80000023514620460BF063FDD7F844D00123BF
:102F9000A7F84C300223A7F84E304C4BC7F8B0309E
:102FA000464BC7F8B4300023BB64032287F848209F
:102FB000BA6CC7F8AC2063F3000863F3410863F30D
:102FC000820863F3C50865F388180C2262F352285F
:102FD00063F3DE4863F3DF7807F1AC024146204635
:102FE0000BF036FD17E36FF0004091E76FF01B0325
:102FF000AAE70123A7F84C300223A7F84E30344B40
:10300000C7F810312D4BC7F814310023BB640322DD
:1030100087F84820BA6CC7F80C217A6A63F300027B
:1030200063F3410263F3820263F3C5021146042293
:1030300062F388110C2262F3522163F3DE4163F3E1
:10304000DF71796207F586721D480BF001FD97F874
:103050007030002B40D10123A7F84C300223A7F891
:103060004E301C4BC7F82831144BC7F82C310023C5
:10307000BB64032287F84820BA6CC7F824213A6958
:1030800063F3000263F3410263F3820263F3C50258
:103090001146042262F388110C2262F3522163F379
:1030A000DE4163F3DF71396107F5927204480BF07A
:1030B000CFFCB0E214000020E0140108E81601087B
:1030C000A4110108B8140108F41401081C15010822
:1030D00034150108541501080123A7F84C300223C8
:1030E000A7F84E30AF4BC7F84031AF4BC7F844316B
:1030F0000023BB64032287F84820BA6CC7F83C2140
:10310000FA6863F3000263F3410263F3820263F33C
:10311000C5021146042262F388110C2262F3522187
:1031200063F3DE4163F3DF71F96007F59E729F4838
:103130000BF08EFC6FE20123A7F84C300223A7F8B6
:103140004E309B4BC7F8F830974BC7F8FC30002344
:10315000BB64032287F84820BA6CC7F8F4203A6AA7
:1031600063F3000263F3410263F3820263F3C50277
:103170001146042262F388110C2262F3522163F398
:10318000DE4163F3DF71396207F1F40287480BF027
:103190005FFC8848002800F00C820022002307F121
:1031A000780107F0D7FF04E20123A7F84C3002238F
:1031B000A7F84E30804BC7F858317B4BC7F85C31CD
:1031C0000023BB64032287F84820BA6CC7F8542157
:1031D000FA6963F3000263F3410263F3820263F36B
:1031E000C5021146042262F388110C2262F35221B7
:1031F00063F3DE4163F3DF71F96107F5AA726B488F
:103200000BF026FC97F87030012B40F004826B48DD
:10321000C0E70123A7F84C300223A7F84E30684BD3
:10322000C7F8E030604BC7F8E4300023BB640322EA
:1032300087F84820BA6CC7F8DC20BA6963F300024B
:1032400063F3410263F3820263F3C5021146042271
:1032500062F388110C2262F3522163F3DE4163F3BF
:10326000DF71B96107F1DC0250480BF0F1FB01237B
:10327000A7F84C300223A7F84E30524BC7F87031F4
:10328000494BC7F874310023BB64032287F84820F8
:10329000BA6CC7F86C21BA6B63F3000263F34102A6
:1032A00063F3820263F3C5021146042262F38811BC
:1032B0000C2262F3522163F3DE4163F3DF71B963E1
:1032C00007F5B67239480BF0C3FBA4E14FF00103D8
:1032D000A7F84C304FF00202A7F84E203A4BC7F83F
:1032E00088313149C7F88C110024BC644FF00300C9
:1032F00087F84800BB6CC7F8843164F3000664F3B8
:10330000410664F3820664F3C506042565F3881656
:103310000C2565F3522664F3DE4664F3DF7623461C
:1033200007F5C272314621480BF092FB4FF00103C2
:10333000A7F84C304FF00202A7F84E20234BC7F8F5
:10334000A0311949C7F8A411BC644FF0030087F8F5
:103350004800BB6CC7F89C313B6C64F3000364F31A
:10336000410364F3820364F3C503042262F3881308
:1033700065F3522364F3DE4364F3DF7319463B6461
:10338000234607F5CE7209480BF062FB97F87230BE
:10339000042B00F20582DFE813F0DA001B00AB001B
:1033A000A901A90174150108E8160108A411010872
:1033B000A815010898040020C4150108CC040020B9
:1033C000DC150108FC1501081C1601082C16010863
:1033D0000123A7F84C300223A7F84E30B24BC7F8B0
:1033E000E831B24BC7F8EC310023BB64032287F805
:1033F0004820BA6CC7F8E4217A6B63F3000263F3E8
:10340000410263F3820263F3C5021146042262F3B0
:1034100088110C2262F3522163F3DE4163F3DF7102
:10342000796307F5F272A2480BF012FB97F870303F
:10343000032B2ED00123A7F84C300223A7F84E30DF
:103440009C4BC7F81832994BC7F81C320023BB6459
:10345000032287F84820BA6CC7F814227A6963F30C
:10346000000263F3410263F3820263F3C502114673
:10347000042262F388110C2262F3522163F3DE41CD
:1034800063F3DF71796107F5057289480BF0E0FAA3
:10349000C1E00123A7F84C300223A7F84E30864B39
:1034A000C7F80032814BC7F804320023BB64032203
:1034B00087F84820BA6CC7F8FC21BA6863F30002A9
:1034C00063F3410263F3820263F3C50211460422EF
:1034D00062F388110C2262F3522163F3DE4163F33D
:1034E000DF71B96007F5FE7271480BF0B1FA92E036
:1034F0000123A7F84C300223A7F84E306F4BC7F8D2
:10350000D0316A4BC7F8D4310023BB64032287F85B
:103510004820BA6CC7F8CC213A6B63F3000263F31E
:10352000410263F3820263F3C5021146042262F38F
:1035300088110C2262F3522163F3DE4163F3DF71E1
:10354000396307F5E6725A480BF082FA63E001230B
:10355000A7F84C300223A7F84E30594BC7F8303249
:10356000524BC7F834320023BB64032287F848204B
:10357000BA6CC7F82C22FA6A63F3000263F34102C3
:1035800063F3820263F3C5021146042262F38811D9
:103590000C2262F3522163F3DE4163F3DF71F962BF
:1035A00007F50B7242480BF053FA97F87030012B75
:1035B00052D0B7F986000AF0D5FD424BBFF35B8FBE
:1035C00053E8002F43E800010029F9D1BFF35B8FD6
:1035D00097F875200433BFF35B8F53E8001F43E86F
:1035E00000200028F9D1BFF35B8F002200230121C6
:1035F000354809F005F9002840F03081334BFB666F
:103600000022002307F16C01314807F0A3FD0120DF
:10361000002108F067FC2F4B5B6A002BF7D00024D9
:10362000002522462B4607F184012A4807F0EEFDCB
:1036300022462B4607F18601274807F0E7FD97F859
:10364000843023B997F88530002B3FF4BAAB0024BF
:10365000C7F88040FFF7F1BB204BBFF35B8F53E807
:10366000002F42F0010243E800210029F7D1BFF307
:103670005B8F1B4BFB660022002307F16C01144893
:1036800007F068FD174B01229A7003E064200021C7
:1036900008F028FC14480CF063FC0028F6D112480E
:1036A00008F052F885E700BF34150108E816010854
:1036B000A41101087415010840160108A815010895
:1036C000C415010818000020A80D002014000020D7
:1036D000FC0300206404002030040020840E00203D
:1036E00000140108140E0020580E00200123A7F832
:1036F0004C300223A7F84E305C4BC7F8B8315C4B16
:10370000C7F8BC310023BB64032287F84820BA6C99
:10371000C7F8B421BA6A63F3000263F3410263F3AA
:10372000820263F3C5021146042262F388110C225F
:1037300062F3522163F3DE4163F3DF71B96207F58F
:10374000DA724C480BF084F997F87030012B7FF453
:1037500030AF494BBFF35B8F53E8002F42F00102BB
:1037600043E800210029F7D1BFF35B8F434BFB6691
:103770000022002307F16C01414807F0EBFC414BAC
:1037800001229A7003E06420002108F0ABFB3E4860
:103790000CF0E6FB0028F6D13B4807F0D5FF08E720
:1037A0000123A7F84C300223A7F84E30374BC7F857
:1037B00048322F4BC7F84C320023BB64032287F8F2
:1037C0004820BA6CC7F844227A6863F3000263F3B6
:1037D000410263F3820263F3C5021146042262F3DD
:1037E00088110C2262F3522163F3DE4163F3DF712F
:1037F000796007F511721F480BF02AF90BE70123D6
:10380000A7F84C300223A7F84E30214BC7F860329E
:10381000174BC7F864320023BB64032287F84820A3
:10382000BA6CC7F85C22FA6B63F3000263F34102DF
:1038300063F3820263F3C5021146042262F3881126
:103840000C2262F3522163F3DE4163F3DF71F9630B
:1038500007F5177207480BF0FBF8DCE610F10B0FC9
:103860007FF4CEAE0B4BFB66CAE600BFDC15010849
:10387000E8160108A4110108D00E00200014010868
:10388000FC030020140E0020580E0020FC15010837
:1038900064160108E813010880B586B0002304937C
:1038A000354A53733548364B18600CF091FA0028AE
:1038B0003ED0334B186883681B682F49984700280F
:1038C0003DDBFEF785FD2E4B18688368DB682D4FC6
:1038D0000DF11702039205AE02964FF0FF344FF040
:1038E000FF35CDE900450222394698474FF47A70FA
:1038F000002108F0F7FA0024002547F26072002347
:10390000CDE9002322462B461F4808F029FD224618
:103910002B4639461D4807F01DFC22462B463146F2
:103920001B4807F017FC1B4B18680CF0C9FC1BE088
:103930004FF0FF304FF0FF3108F0D4FAB9E74FF005
:10394000FF304FF0FF3108F0CDFABAE7FEF784FB05
:10395000114B1A6892E8030083E80300FEF728FF82
:103960000120002108F0BEFA0B4B1B79012BEDD092
:10397000FEF71EFFF4E700BF040000208C0E0108D4
:10398000200E0020380E002098050020640400203E
:10399000300400202C170108BC0E00202DE9F04F48
:1039A00089B0029210F0030A40F0158207468B4658
:1039B000041DE0B127B1E21B04325A4500F20E8229
:1039C0005D1ECDF800A0CDF80CA0CDF804A0002617
:1039D0004FF00408C14607B12360C64A9342C0F0C5
:1039E0005A81C54A9342C0F07F81002254E101F020
:1039F000070B5C44CBF1080BDCE7252B05D1012636
:103A00004FF00408C14600E00026654605F1010CB0
:103A10006B78002B00F08481002EEED0A3F1200102
:103A20005A29F1D801A252F821F000BF0B3A000840
:103A3000093A0008093A00080B3A0008093A000858
:103A4000093A0008093A0008093A0008093A00084A
:103A5000093A0008B93B00080B3A0008093A000887
:103A60000B3A00080B3A0008093A00080B3A000824
:103A70000B3A00080B3A00080B3A00080B3A000812
:103A80000B3A00080B3A00080B3A00080B3A000802
:103A90000B3A0008093A0008093A0008093A0008F8
:103AA000093A0008093A0008093A0008093A0008EA
:103AB000213C0008093A0008093A0008093A0008C0
:103AC000213C0008213C0008213C0008093A00087C
:103AD000093A0008093A0008093A00080B3A0008B8
:103AE000093A0008093A0008093A0008093A0008AA
:103AF000093A0008093A0008093A0008093A00089A
:103B0000093A0008093A0008093A0008B13B0008E0
:103B1000093A0008093A0008093A0008093A000879
:103B2000093A0008093A0008093A0008093A000869
:103B3000213C0008093A0008B13B0008B13B0008ED
:103B4000213C0008213C0008213C00080B3A0008F9
:103B5000B13B0008993B0008093A00080B3A0008FD
:103B6000093A0008813C0008B13B0008813C00088C
:103B7000093A0008093A0008813C0008A93B0008FE
:103B8000B13B0008093A0008093A0008B13B0008B7
:103B9000093A0008A13B00084FF00808C14634E785
:103BA0004FF00408C14630E74FF00408C1462CE747
:103BB0002A786C2A26D0002604EB0802013AC8F1C4
:103BC00000010A40144627B1D11B49448B45C0F07F
:103BD0000881732B59D0B9F1040F00F09980B9F125
:103BE000080F40F00781129B073323F0070303F10E
:103BF00008011291D3E900010FB1C2E9000102F1FD
:103C0000080402E71CF8022C6C2A04D000264FF0AE
:103C10000408C146D0E700264FF00808C146CBE7AC
:103C20002B784C2B1CD0129B073323F0070303F196
:103C300008021292D3E90001E21D22F0070247B107
:103C4000D31B08335B4515D82B784C2B15D0C2E914
:103C5000000102F1080400264FF00808C146D4E62E
:103C6000129B073323F0070303F108021292D3E9F2
:103C70000001E1E76FF01B00AAE0C2E90001E8E7FC
:103C800000264FF00408C14696E7129B1A1D1292B7
:103C90001B6865469FE60022029901F0010110466B
:103CA00002B1F9B1A4EB070C4FEA9C0219B1BCF5C3
:103CB000007F80F0998001990F2900F29880EFB180
:103CC000D2B208AB0B4403F8102C78B162F07F023B
:103CD00008AB0B4403F8102C009B01330093019BAD
:103CE00001330193043491E60122D5E7039B0133AC
:103CF0000393F4E7D40C0108242B010810B10BF155
:103D0000010BECE71846FDF7A6F8831C9B44E6E799
:103D1000129B191D12911B6807B11360141D74E6E4
:103D2000E31BB3F5806F68D25FB100223A609B0855
:103D30003B70039B7B70009BBB70D3B9DDF8049094
:103D400039E05B44A3F1080042E00133984213D903
:103D500008AA1A4412F8101C12F9102C002AF4DADE
:103D600001F07F01E21B0132934549D304F8011BA6
:103D7000EBE753460198E9E7DDF804901BE008AB58
:103D8000534413F8106C57F82680002347F8263068
:103D90004046FDF760F8451CE31B2B4401339B456F
:103DA00031D304F8016B2A46414620460CF04FFC03
:103DB0002C440AF1010AD14509D9009B002BDED021
:103DC00008AB534413F9103C002BD8DAF1E7E01BA1
:103DD00009B0BDE8F08F6FF00D00F9E76FF01B0040
:103DE000F6E76FF01B00F3E76FF01500F0E76FF0F8
:103DF0001500EDE76FF01500EAE76FF01500E7E753
:103E00006FF01B00E4E76FF01B00E1E708B50B68FB
:103E100001330B60014B1B68984708BD2000002050
:103E2000014B1860704700BF2000002000B583B030
:103E300002460B460021019101A9034800F02CFA2B
:103E400003B05DF804FB00BF0D3E000810B584B060
:103E50000446019002910021039101A9054800F058
:103E60001BFA039B029A934201DA0022E254039860
:103E700004B010BD9BE2000884460268002005E003
:103E800000EB8000013203EB400030381378044926
:103E9000595C11F0040FF3D1CCF80020704700BF3B
:103EA000AD28010870B582B004460023036043606A
:103EB00083604B78252B02D04E1C01251FE0881C07
:103EC000E37045E1237843F004032370B5B1013674
:103ED00014E0237843F008032370F7E7237843F0D6
:103EE00010032370F2E7237843F020032370EDE7FB
:103EF000237843F040032370E8E7002545B3337887
:103F0000203B102BF9D801A252F823F0DD3E000827
:103F1000FB3E0008FB3E0008E73E0008FB3E0008B1
:103F2000FB3E0008FB3E0008FB3E0008FB3E00088D
:103F3000FB3E0008FB3E0008D33E0008FB3E0008A5
:103F4000C53E0008FB3E0008FB3E0008F13E0008AD
:103F5000237803F04403442B5FD00196237843F089
:103F60008003237033782A2B5CD001A8FFF784FFED
:103F7000019B9E420FD0237843F080032370606042
:103F8000DBB2C3F34003002854DB00221343227842
:103F900063F341022270019B01931B782E2B14BF07
:103FA00000230123627863F341026270002B43D047
:103FB000019B5A1C01925B782A2B3FD001A8FFF786
:103FC0005BFFA0602378C3F3400300283EDB0022A0
:103FD0001343227863F341022270019803784C3B2B
:103FE0002E2B00F29D80DFE803F0909B9B9B9B9B18
:103FF0009B9B9B9B9B9B9B9B9B9B9B9B9B9B9B9B11
:104000009B9B9B9B9B9B339B579B459B9B9B9B9B02
:104010009B9B899B9B9B9B9B820023786FF38613C2
:1040200023709AE7637843F00103637033460133EA
:104030000193B1E70122A9E70198CFE7637843F044
:1040400004036370104601300190C7E70122BFE707
:10405000421C4378682B06D06378022161F3C603C3
:10406000637010461EE06378012262F3C60363703A
:10407000023017E0421C43786C2B06D06378032192
:1040800061F3C603637010460CE06378042262F3A8
:10409000C6036370023005E06378052262F3C6034D
:1040A0006370013010F8013BE370A3F14102372A3D
:1040B0007DD8DFE802F05E7C7C7C5E5E5E7C7C7C92
:1040C0007C7C7C7C7C7C7C7C7C7C7C7C7C4F7C7C5D
:1040D0007C7C7C7C7C7C5E7C4F3A5E5E5E7C3A7C49
:1040E0007C7C7C654F717C7C717C4F7C7C4F6378E1
:1040F000062262F3C60363700130D3E763780722B8
:1041000062F3C60363700130CCE76378082262F380
:10411000C60363700130237843F002032370C1E7C4
:1041200063786FF3C6036370BCE7A278012161F383
:104130000202A270627802F07802402A10D0632B4B
:1041400013D02378C3F34002154365F34103237072
:1041500002B070BDA278022161F30202A270E9E709
:10416000217841F001012170E9E7151E18BF0125F2
:10417000E7E7A378042262F30203A3700125E0E7D6
:10418000A378032262F30203A370637803F0780339
:10419000402BD6D10125D4E7A378032262F3020392
:1041A000A370637813F0780FCBD00125C9E723788B
:1041B00043F001032370C4E72DE9F04F83B00446B8
:1041C0000D4601929A460C9ED378324A13F802B0FB
:1041D0000BF0030B6F2B0FD006D9702B0FD0782B61
:1041E00010D14FF0100923E0582B02D04FF00A09EC
:1041F0001EE04FF010091BE04FF0080918E04FF0E7
:10420000100915E04FF00A0912E0D2B23032D2B2F2
:1042100006F8012D3A46434620462946FCF7DEFBC8
:10422000BC4275F1000319D3564517D904460D4613
:104230004FF000084F464A46434620462946FCF7C1
:10424000CDFB092AE1D9BBF1010F03D0D2B257321D
:10425000D2B2DDE7D2B23732D2B2D9E7019B1B78B6
:1042600013F0200F05D0B9F1080F06D0B9F1100FE7
:1042700009D0304603B0BDE8F08F019A937843F03F
:1042800008039370F5E7019A937843F01003937055
:10429000EFE700BFAD2801082DE9F04F91B00646C9
:1042A0000D4691460393002499F80000002800F081
:1042B000D582252808D009F101092946B0470028F0
:1042C000C0F2CD820134EFE70023049305930693F7
:1042D000079308930993494606A8FFF7E3FD029068
:1042E0009DF8193013F0010F00F09780039B1A1D01
:1042F00003921F68002FC0F288809DF8193013F0D8
:10430000040F00F09C80039B1A1D0392D3F800A0B9
:10431000BAF1000FC0F28A800023079308939DF83A
:104320001A3003F007039DF81910C1F3C301012BE4
:1043300000F08E80022B00F0D380042B00F024814B
:10434000032B00F03B819DF8188018F0030B40F020
:104350003B819DF81B30253B532B00F2E681DFE8C3
:1043600013F04001E401E401E401E401E401E401AB
:10437000E401E401E401E401E401E401E401E40115
:10438000E401E401E401E401E401E401E401E40105
:10439000E401E401E401E401E401E401E401E401F5
:1043A000E401E401E401E401E401E401E401E401E5
:1043B000E401E401E401E401E401E401E401E401D5
:1043C000E401E401E401E4018101E401E401E40128
:1043D000E401E401E401E401E401E401E4015E013B
:1043E0006701E401E401E401E4016701E401E4019F
:1043F000E401E401BE018101A201E401E4014D01F7
:10440000E4018101E401E40181019DF8183043F0E9
:1044100004038DF818307F426FE79DF91830002BA8
:1044200002DB4FF0FF3768E7079F66E79DF819301A
:104430006FF341038DF819304FF0FF3A6CE713F03A
:10444000020F02D0DDF820A066E74FF0FF3A63E7E5
:10445000CB1E042B04D8DFE803F00B1D29353500F3
:10446000039B1A1D03921B68DA170493059206E05A
:10447000039B1A1D03921B68DA1704930592012906
:1044800028D002297FF45FAFBDF91030DA1704930A
:10449000059258E7039B073323F0070303F1080253
:1044A0000392D3E90023CDE90423E8E7039B073314
:1044B00023F0070303F108020392D3E90023CDE9B7
:1044C0000423DCE7039B1A1D03921B68DA1704938D
:1044D0000592D4E79DF8103004930023059332E74A
:1044E000CB1E042B04D8DFE803F00B1F354141003D
:1044F000039B1A1D03921B680493002305931EE07F
:104500009DF81B30632B07D0039B1A1D03921B6879
:1045100004930023059312E0039B1A1D03921B686A
:104520000493002305930AE0039B073323F007035A
:1045300003F108020392D3E90023CDE90423012902
:104540001CD002297FF4FFAEBDF810300493002385
:104550000593F8E6039B073323F0070303F10802F2
:104560000392D3E90023CDE90423E8E7039B1A1D56
:1045700003921B68049300230593E0E79DF8103035
:10458000049300230593DEE608290BD0039B073331
:1045900023F0070303F108020392D3E90023CDE9D6
:1045A0000423D0E6039B073323F0070303F108023B
:1045B0000392D3E90023CDE90423C4E6039B1A1D2B
:1045C00003921B680493BEE6029F3B464A46294677
:1045D000304609F016FF0028C0F241810444B94674
:1045E00062E629462520B0470028C0F23881013410
:1045F000D8460DF13E0A4FF000099BE0DDF810901F
:10460000BAF1000F07DB514648460CF041F909EBBF
:10461000000AD8468EE04846FCF71DFCF7E7049BED
:104620008DF82830D8460DF1290A0DF1280981E0CE
:1046300018F0080F05D118F0100804D04FF020082A
:1046400001E04FF02B08049A059B002B02DB04923B
:10465000059308E0524263EB4303049205934FF045
:104660002D0800E0D8460DF13E0300930AAB06AAE0
:10467000DDE90401FFF7A0FD8146BAF1000FC0F2A9
:1046800088800DF13E03A3EB09039DF818206FF31A
:1046900086128DF818209A457ED9AAEB030307935A
:1046A0000DF13E0A46E0049828B9D846DFF8B4A1D7
:1046B000AAF105093EE00DF13E0300930AAB06AAFC
:1046C0000021FFF779FD81469DF81A3043F0100371
:1046D0008DF81A3078238DF81B30D846CDE7049A30
:1046E0009DF81930C3F3C303072B06D8DFE803F0A6
:1046F000040B0D0F1115191B1460D8460DF13E0A5D
:104700004FF0000916E01470F7E71480F5E7146025
:10471000F3E7E31714605360EFE7E31714605360A7
:10472000EBE71460E9E71460E7E7D8460DF13E0ACD
:104730004FF00009B9F1000F00F08D80AAEB0902DB
:10474000B8F1000F00D001329DF81A1011F0100FCF
:1047500025D00232079B134411F0400F01D0089A74
:104760001344002F31DDFF1A9DF8183013F0040FA9
:104770002BD113F0400F17D0B8F1000F17D02946F6
:104780004046B04700286ADB0134D8464FF0300B72
:104790000FE00DF13E0ACDE70DF13E0ACAE711F038
:1047A000080FD7D00132D5E74FF0200B01E04FF0D2
:1047B000300B3B465F1E002B07DD29465846B047AD
:1047C00000284CDB01343B46F4E7B8F1000F05D07C
:1047D00029464046B047002841DB01349DF81A3095
:1047E000C3F30012C3F3C003134305D0294630209E
:1047F000B047002833DB01349DF81A3013F0100F56
:1048000006D029469DF81B00B047002827DB01345D
:10481000079B03F1FF38002B07DD29463020B04706
:1048200000281CDB01344346F3E753464A46294639
:10483000304609F0E6FD002811DB0444002F07DDB7
:1048400029462020B047002809DB0134013FF5E765
:10485000DDF8089028E5DDF8089025E5204611B040
:10486000BDE8F08F351701084FF01002EFF3118308
:1048700082F31288BFF36F8F83F31188BFF36F8FBA
:10488000024B034A1A600020704700BFDC00002082
:1048900000093D0008B5064B186018B1054B1B68B0
:1048A000092B00DC08BD044806F0DCFDFAE700BF78
:1048B000380F0020EC0E00200005002008B502484B
:1048C00006F0D0FD08BD00BF0005002030B589B05E
:1048D00000220F490F480BF0EEFD0F4D0022002380
:1048E000CDE90623002404940E230393029401943B
:1048F00000940A4B4FF44072094928460BF0CBFA5A
:10490000084928460BF0B3FA204609B030BD00BF75
:10491000BD480008080B0020400B0020C14C0008D7
:10492000002100203C170108184BBFF35B8F53E8B0
:10493000002F511C43E800100028F8D1BFF35B8F13
:104940001ABB70B5002409E0114B03EB06135B683A
:1049500004221968284600F0D9F901340D4B0C4A9D
:104960009B1AB4EB231F0FDA2646094D05EB0415FD
:104970002B7B002BF1D02301054AD3589B69002BD8
:10498000E2D028469847DFE770BD7047F40E00205C
:10499000DC110108EC11010838B108B5044A1060B7
:1049A000084600F0A3FB002008BD6FF0150070471B
:1049B0002400002008B5054B1B781BB1034B0122D6
:1049C0001A7008BD024806F04DFDF7E78E1400206E
:1049D000000500200D4BBFF35B8F53E8002F013221
:1049E00043E800210029F8D1BFF35B8F00B970477D
:1049F000074BBFF35B8F53E8002F013A43E80021D8
:104A00000029F8D1BFF35B8FF1E700BFF00E002063
:104A1000EC0E0020064B00200246BFF35B8F53E8EC
:104A2000000F43E800210029F9D1BFF35B8F7047E5
:104A3000F00E002038B5FFF7EDFF0546002400E03A
:104A400001340B4B0B4A9B1AB4EB231F0FDA0948B6
:104A500000EB041043685B79002BF1D02301054A79
:104A6000D3581B69002BEBD029469847E8E738BD9F
:104A7000EC110108DC110108034B18680028D4BFB1
:104A800000200120704700BFF00E002008B5024949
:104A9000024809F082FD08BD48170108F80E002001
:104AA00008B50023054A1370054A13604FF47A7164
:104AB0000448FFF771FFFFF7E9FF08BD8F140020DE
:104AC000F00E002003E9000808B50146002200238B
:104AD000014809F087FD08BDF80E002008B502481E
:104AE00009F03DFE08BD00BFF80E002008B50146E4
:104AF000014809F0A5FE08BDF80E0020F8B50646ED
:104B0000E9B9002400E001340F4B104A9B1AB4EBC2
:104B1000231F14DA0D4D05EB04156B685B79002B30
:104B2000F1D03146284609F0EAFE0028EBD02701F3
:104B3000064BDB591B68314628469847E3E7304669
:104B4000FFF7D4FFF8BD00BFEC110108DC1101082C
:104B500008B5024809F0B1FE08BD00BFF80E0020FC
:104B600010B50446114B1B7803B9D0B109F0D6FE3D
:104B7000034680B15CB90E4ABFF35B8F52E8001F59
:104B8000013942E800100028F8D1BFF35B8F2146BD
:104B90001846FFF7B3FF14B9FFF76EFF10B909F01D
:104BA000C1FE10BDFFF746FFF9E700BF8E140020DD
:104BB000EC0E002010B582B01D4BBFF35B8F53E8A5
:104BC000002F511C43E800100028F8D1BFF35B8F81
:104BD000184B1B783BB9184B1B6803B19AB10A2AD2
:104BE0001CD002B010BD4FF01003EFF3118483F31B
:104BF0001288BFF36F8F0020FFF7B2FF84F3118894
:104C0000BFF36F8FEDE700220023CDE9002342F2CE
:104C100010720023094807F0A3FBE2E7002BE0D065
:104C200006480BF054FC064806F01CFCD9E700BF10
:104C3000EC0E00208F140020380F0020080B0020FD
:104C40000005002010B50446054B1B689847A0607E
:104C50002146044809F05DFDFFF7ACFF10BD00BF21
:104C600024000020F80E0020124B1B7803B170477F
:104C700010B5FFF759FE002400E001340E4B0F4A37
:104C80009B1AB4EB231F0CDA0C4800EB04104368AA
:104C90005B79002BF1D02301084AD3585B69984710
:104CA000EBE70020FFF75CFF0028FAD1014B01225F
:104CB0001A7010BD8F140020EC110108DC110108DE
:104CC00008B5FFF731FE07F025F9FFF7E3FD0020F7
:104CD000FFF746FF0028FAD14FF0FF324FF0FF33C5
:104CE000014806F0E7FBF2E700050020054B064A05
:104CF0009B1AB1EBD30F02D252F83100704700205B
:104D0000704700BFDC1101086C11010808B5074BA2
:104D1000C31A1B1101334268137143681960436859
:104D200001225A71FFF746FE08BD00BFDC110108E1
:104D30000EB400B582B0014603AB53F8042B0193C7
:104D40000348FFF7A9FA02B05DF804EB03B070471F
:104D5000CBE9000830B585B011F0440F05D01A4BEF
:104D60001C6834B9002005B030BD1849FFF7E0FFDA
:104D7000F9E7174B1968B2FBF1F1B1FBF4FC154AE6
:104D8000A2FB0C32D20A4FF4616E0EFB12CE124B14
:104D9000A3FB0E535B0904FB1C114FF47A7C0CFB44
:104DA00001F1B1FBF4F505FB14110CFB01F1B1FBB2
:104DB000F4F102910195C3EB0311AEEB8101009177
:104DC0000649FFF7B5FFCEE73C0F00205C1701084E
:104DD000400F0020C5B3A291898888886817010810
:104DE00061B108B52AB1064A52F8232012B9054A22
:104DF00000E0044A0449FFF79BFF08BD704700BF6D
:104E0000E0170108841701088C17010811F0100F32
:104E10000BD108B511F0200F03D00449FFF788FF2C
:104E200008BD0349FFF784FFFAE77047E81C010853
:104E3000901701082DE9F04105460F4616469846A1
:104E40000699FFF7E3FF0024444505DA2449284684
:104E5000FFF76EFF0134F7E7002409E020492846F8
:104E6000FFF766FF0BE01F492846FFF761FF01349B
:104E70000F2C0CDC002C02DD14F0070FEED0B44236
:104E8000F1D23A5D18492846FFF752FFEFE717497C
:104E90002846FFF74DFF002409E011492846FFF797
:104EA00047FF0BE012492846FFF742FF01340F2C61
:104EB00013DC002C02DD14F0070FEED0B44207D251
:104EC0003A5D0C4BD35C13F0970FEBD12E22E9E740
:104ED00003492846FFF72CFFE8E7BDE8F08100BF53
:104EE000B81701089C17010894170108A0170108BA
:104EF000A4170108AD2801082DE9F04180461646A7
:104F00001D46BDF9187059B90024002F1CDB86B16D
:104F10000123079A934013F0100F18D10D4E09E0AA
:104F20000D4B079A53F822200C49FFF701FF044666
:104F3000EBE7084E39462846FFF7D8FE02463146D1
:104F40004046FFF7F5FE04442046BDE8F081044EDC
:104F5000F0E700BFA81701081C180108B4170108E2
:104F6000B01701082DE9F04F85B005460C461646EE
:104F700003939DF8388001F0020B01F0010AC1F3A0
:104F8000C00909F0D3FCE8B1024613492846FFF7EF
:104F9000CFFE0746BBF1000F16D1424651462846C8
:104FA00009F0D3FCCDF80480BDF9403000939DF8A2
:104FB0003C30324649462846FFF79EFF384405B04C
:104FC000BDE8F08F0027E5E7039A21462846FFF762
:104FD000C1FE0744E1E700BFBC1701082DE9F0431B
:104FE00085B006460C4617468B680A88C2F38218BD
:104FF00012F4E07F35D04A680978C1F3C2016AB380
:105000002048121A42F3CF0202920191CDF800809B
:10501000002239463046FFF7A5FF8146254655F860
:105020000C3BC3F3492343B1B8F1000F1CD1164820
:105030002B463246154909F001F96288C2F3CB02CA
:105040002168C1F34921294482B9B8F1000F13D175
:10505000304609F0ADFC05B0BDE8F0834FF0FF32FB
:10506000D2E74FF00009D9E70948E1E700974B463E
:10507000304609F082FCE8E742463946304609F0FE
:1050800070FCE5E76C11010803EA0008994200088A
:10509000CBE9000870B582B00446056842F20F7390
:1050A0008B4228BF0B460E4A0521684609F01BF9C2
:1050B000064663685B680B220A49284609F038FCFB
:1050C00063685B6832466946284609F031FC6368CC
:1050D0005B681B220449284609F02AFC02B070BD17
:1050E000C01F010810180108F4170108074B01221E
:1050F0001A6004E04008054A13685B001360044B23
:105100009842F7D8034B1860704700BF400F00204B
:1051100040420F003C0F002070B506460D460024AB
:1051200006E0054B1868315D83685B689847013479
:10513000AC42F6D3284670BD580F0020014B024AFE
:105140001A607047580F0020440E010808B5034B41
:1051500001221A70024809F02BFC08BD90140020AF
:105160006C18010808B50248FFF794FF08BD00BF9E
:105170006C18010808B50F220148FFF72FFF08BD82
:105180006C18010810B5044C02E054F8043B984731
:10519000024B9C42F9D310BD6C1101086C1101083F
:1051A000064B1B684BB110B55C1E044A52F8233005
:1051B00098472346002CF7D110BD704764110108B1
:1051C000014910220A60704710ED00E072B64040BD
:1051D00080F31188BFF36F8FBFF34F8F30BF62B67C
:1051E000BFF36F8F704700BF2DE9F04796B000AF57
:1051F000054601233B816C4688B06B4613F10C02D7
:1052000000F0CA801421012038811AB1042901DD7F
:1052100067481861286812B1082900DD586168687C
:1052200012B10C2900DD9861A86812B1102900DDC7
:10523000D861132940F3B38014202AB1002179608A
:10524000052139717968D96000216FF300016FF38E
:1052500041016FF382016FF3C501012666F38811E6
:1052600000F47D7363F352216FF3DE416FF3DF715E
:105270000023504809F0ECFBA5463E816C4688B0FF
:105280006B4613F10C0200F08D801421012038814F
:105290001AB1042901DD48481861E86812B10829EB
:1052A00000DD5861286912B10C2900DD9861686938
:1052B00012B1102900DDD861132976DD14202AB13E
:1052C00000217960052139717968D96000216FF377
:1052D00000016FF341016FF382016FF3C5010126F5
:1052E00066F3881100F47D7363F352216FF3DE419E
:1052F0006FF3DF71DFF8BC800023404609F0A8FBA4
:10530000A5463E81EB692D4ABA63FB6300247C60AD
:105310004FF0030A87F804A07B687B63214664F39F
:10532000000164F3410164F3820164F3C50166F393
:1053300088114FF00C0969F3522164F3DE4164F3E4
:10534000DF71234607F13402404609F081FB3E81BC
:10535000AB691B4A3A657B657C6087F804A07B6873
:10536000FB64214664F3000164F3410164F38201AC
:1053700064F3C50166F3881169F3522164F3DE41D9
:1053800064F3DF71234607F14C02404609F060FBED
:105390005837BD46BDE8F0876FF0004133E76FF046
:1053A0001B004AE76FF0004170E76FF01B0086E7D3
:1053B0007C18010894110108AC180108DC180108D8
:1053C000EC18010840B2002807DB00F01F0240097A
:1053D00001239340014A42F82030704700E100E089
:1053E000013140B2002808DB0901C9B200F1604078
:1053F00000F5614080F80013704700F00F000901CC
:10540000C9B2014B1954704714ED00E030BFFFF7EB
:10541000FDBF00BF08B50F4B0F4A22F07F029A6014
:10542000BFF34F8FBFF36F8FD3F8882022F4700241
:10543000C3F88820EFF3148323F0040383F3148864
:10544000BFF36F8F05F0A4FD06F0B6FD00F0AEFED1
:1054500005F0AAFD00ED00E000000008094A93688D
:10546000986709490968D96708494B6843F0805330
:105470004B60002383F31188BFF36F8F9368D86F5D
:10548000704700BF30140020FC26010800ED00E04A
:1054900012498A684FF030001044EFF3098C80E81D
:1054A000F01F102080F31288BFF36F8F0C4F4FF066
:1054B00000668A698A603E60906F0023936780F37C
:1054C000118804B5104600F0C5FEBDE8044002F1A5
:1054D000300090E8F01F8CF30988704730140020EA
:1054E00004ED00E01EF0040F0CBFEFF30880EFF3B3
:1054F0000980816911F8021C0229FFD001B509F069
:1055000020FB01BD10B4A2F120040D4942F8081C93
:1055100021F0010142F8081C42F8203C019B42F8AE
:105520001C3C029B42F8183C039B42F8143C4FF091
:10553000807342F8043C04650023836710BC704705
:1055400003E30008114B9A68EAB110F1160F10D06E
:10555000936EA3F1200C844505D8834205D98B4274
:1055600005D800210AE0002108E0002106E0012121
:1055700004E0936E8B4294BF0021012109B9002001
:105580007047906E70470020704700BF30140020B5
:1055900008B50D461446084B986000F05BFE2046A7
:1055A00085F30988002163B681F31188BFF36F8FFB
:1055B0000022002308F0A5FE3014002001B5EFF30F
:1055C0000580A0F110004FEAC0000449014409C958
:1055D0009847BDE80140024908470000BC0E010899
:1055E000E5550008044B99689869884203D003493F
:1055F0004FF080520A6070473014002004ED00E044
:1056000000B585B00F290FDC084B103903910293C8
:10561000074B01930020009003460122054909F041
:10562000A4FA05B05DF804FB034BEEE73819010856
:1056300050190108941101081C19010870B5BAB07D
:1056400005460E4614460122ADF80820A84B0E93DD
:105650000023019302218DF8041001990D91194640
:1056600063F3000163F3410163F3820163F3C50156
:1056700062F38811082262F3522163F3DE4163F37F
:10568000DF710DAA9B4809F0E3F99B4B9B6A13F469
:10569000805F28D1984B9B6A13F4006F46D1964BDC
:1056A0009B6A13F4007F64D1934B9B6A13F4806F61
:1056B00040F0B480904B9B6A13F4807F40F0D1801F
:1056C0008D4B9B6A13F4005F40F0EE808A4A936A28
:1056D00043F47F4393620121284609F044FA207085
:1056E00000203AB070BD0122ADF80820834B14931E
:1056F0000023019302218DF804100199139119469A
:1057000063F3000163F3410163F3820163F3C501B5
:1057100062F38811082262F3522163F3DE4163F3DE
:10572000DF7113AA734809F093F9B3E70122ADF8CA
:105730000820734B1A930023019302218DF8041063
:1057400001991991194663F3000163F3410163F371
:10575000820163F3C50162F38811082262F35221CA
:1057600063F3DE4163F3DF7119AA624809F070F94F
:1057700095E70122ADF80820624B209300230193A6
:1057800002218DF8041001991F91194663F300015D
:1057900063F3410163F3820163F3C50162F388118E
:1057A000082262F3522163F3DE4163F3DF711FAA23
:1057B000504809F04DF9504B9A6B9B6A13F4004F17
:1057C0003FF472AF0120ADF808004F4B26932792AB
:1057D0000023019303228DF80420019A2592194693
:1057E00063F3000163F3410163F3820163F3C501D5
:1057F00060F388110C2262F3522163F3DE4163F3FC
:10580000DF7125AA3B4809F023F9002E3FF44CAF85
:10581000394A936A23F40043936245E70122ADF8C5
:1058200008203A4B2C930023019302218DF8041099
:1058300001992B91194663F3000163F3410163F36E
:10584000820163F3C50162F38811082262F35221D9
:1058500063F3DE4163F3DF712BAA264809F0F8F801
:1058600028E70122ADF80820294B38930023019343
:1058700002218DF8041001993791194663F3000154
:1058800063F3410163F3820163F3C50162F388119D
:10589000082262F3522163F3DE4163F3DF7137AA1A
:1058A000144809F0D5F811E70122ADF80820194B8A
:1058B00032930023019302218DF804100199319154
:1058C000194663F3000163F3410163F3820163F35B
:1058D000C50162F38811082262F3522163F3DE41AD
:1058E00063F3DF7131AA034809F0B2F8EEE600BFB6
:1058F000641901089411010800ED00E07C19010809
:1059000090190108A4190108C0190108D819010843
:10591000F41901080C1A010800B5B5B00122ADF860
:1059200008208E4B0E930023019302218DF8041062
:1059300001990D91194663F3000163F3410163F38B
:10594000820163F3C50162F38811082262F35221D8
:1059500063F3DE4163F3DF710DAA814809F078F843
:10596000804B9B6A13F0007F25D17E4B9B6A13F01E
:10597000807F43D17B4B9B6A13F4002F61D1794B1D
:105980009B6A13F4802F7FD1764B9B6A13F4003F00
:1059900040F09D80734B9B6A13F4803F40F0BA80C7
:1059A000704A936A6FEA03436FEA134393620020DD
:1059B00035B05DF804FB0122ADF808206A4B149362
:1059C0000023019302218DF80410019913911946C7
:1059D00063F3000163F3410163F3820163F3C501E3
:1059E00062F38811082262F3522163F3DE4163F30C
:1059F000DF7113AA5A4809F02BF8B6E70122ADF877
:105A000008205A4B1A930023019302218DF80410A9
:105A100001991991194663F3000163F3410163F39E
:105A2000820163F3C50162F38811082262F35221F7
:105A300063F3DE4163F3DF7119AA494809F008F8FE
:105A400098E70122ADF80820494B209300230193E9
:105A500002218DF8041001991F91194663F300018A
:105A600063F3410163F3820163F3C50162F38811BB
:105A7000082262F3522163F3DE4163F3DF711FAA50
:105A8000374808F0E5FF7AE70122ADF80820394BE6
:105A900026930023019302218DF80410019925918A
:105AA000194663F3000163F3410163F3820163F379
:105AB000C50162F38811082262F3522163F3DE41CB
:105AC00063F3DF7125AA264808F0C2FF5CE70122D4
