:020000040800F2
:1000000000360020E5630008AF0701089D63000883
:100010009D6300089D6300089D63000800000000C8
:10002000000000000000000000000000E956000889
:100030009D6300080000000095560008C5A6000852
:10004000C1570008C1570008C1570008C157000830
:10005000C1570008C1570008C1570008C157000820
:10006000C1570008C1570008C1570008C157000810
:10007000C1570008C1570008C1570008C157000800
:10008000C1570008C1570008C1570008C1570008F0
:10009000C1570008C1570008C1570008C1570008E0
:1000A000C1570008C1570008C1570008C1570008D0
:1000B000C1570008C1570008C1570008C1570008C0
:1000C000C1570008C1570008C1570008C1570008B0
:1000D000C1570008C1570008C1570008C1570008A0
:1000E000C1570008C1570008C1570008C157000890
:1000F000C1570008C1570008C1570008C157000880
:10010000C1570008C1570008C1570008C15700086F
:10011000C1570008C1570008C1570008C15700085F
:10012000C1570008C1570008C1570008C15700084F
:10013000C1570008C1570008C1570008C15700083F
:10014000C1570008C1570008C1570008C15700082F
:10015000C1570008C1570008C1570008C15700081F
:10016000C1570008C1570008C1570008C15700080F
:10017000C1570008C1570008C1570008C1570008FF
:10018000C1570008C1570008C1570008C1570008EF
:04019000C15700084B
:0C019400FFFFFFFFFFFFFFFFFFFFFFFF6B
:1001A00001F0FF01102A2BDB10F0070F08D010F828
:1001B000013B013A8B422DD010F0070F42B3F6D12C
:1001C000F0B441EA012141EA014122F007047FF045
:1001D00000070023F0E80256083C85EA010586EA9C
:1001E000010685FA47F5A3FA87F586FA47F6A5FAD8
:1001F00087F68EB9EED1F0BC01F0FF0102F00702E4
:1002000032B110F8013B013A83EA010313B1F8D18E
:100210000020704701387047002D06BF354603386F
:10022000073815F0010F07D1013015F4807F02BFA8
:10023000013015F4C03F0130F0BC0138704700BFF9
:1002400081F0004102E000BF83F0004330B54FEA87
:1002500041044FEA430594EA050F08BF90EA020FF4
:100260001FBF54EA000C55EA020C7FEA645C7FEA87
:10027000655C00F0E2804FEA5454D4EB5555B8BFAA
:100280006D420CDD2C4480EA020281EA030382EA1B
:10029000000083EA010180EA020281EA0303362DAD
:1002A00088BF30BD11F0004F4FEA01314FF4801C80
:1002B0004CEA113102D0404261EB410113F0004F92
:1002C0004FEA03334CEA133302D0524263EB430349
:1002D00094EA050F00F0A780A4F10104D5F1200EE7
:1002E0000DDB02FA0EFC22FA05F2801841F1000142
:1002F00003FA0EF2801843FA05F359410EE0A5F116
:1003000020050EF1200E012A03FA0EFC28BF4CF046
:10031000020C43FA05F3C01851EBE37101F00045FC
:1003200007D54FF0000EDCF1000C7EEB00006EEB09
:100330000101B1F5801F1BD3B1F5001F0CD3490893
:100340005FEA30004FEA3C0C04F101044FEA4452EA
:1003500012F5800F80F09A80BCF1004F08BF5FEA71
:10036000500C50F1000041EB045141EA050130BD51
:100370005FEA4C0C404141EB0101013C28BFB1F563
:10038000801FE9D291F0000F04BF01460020B1FAAE
:1003900081F308BF2033A3F10B03B3F120020CDA81
:1003A0000C3208DD02F1140CC2F10C0201FA0CF05F
:1003B00021FA02F10CE002F11402D8BFC2F1200CC4
:1003C00001FA02F120FA0CFCDCBF41EA0C0190407A
:1003D000E41AA2BF01EB0451294330BD6FEA0404C3
:1003E0001F3C1CDA0C340EDC04F11404C4F12002AE
:1003F00020FA04F001FA02F340EA030021FA04F3C0
:1004000045EA030130BDC4F10C04C4F1200220FA16
:1004100002F001FA04F340EA0300294630BD21FA54
:1004200004F0294630BD94F0000F83F4801306BF1A
:1004300081F480110134013D4EE77FEA645C18BF0E
:100440007FEA655C29D094EA050F08BF90EA020FA5
:1004500005D054EA000C04BF1946104630BD91EA9D
:10046000030F1EBF0021002030BD5FEA545C05D1A0
:100470004000494128BF41F0004130BD14F58004DF
:100480003CBF01F5801130BD01F0004545F0FE4153
:1004900041F470014FF0000030BD7FEA645C1ABF88
:1004A000194610467FEA655C1CBF0B46024650EABF
:1004B000013406BF52EA033591EA030F41F40021EB
:1004C00030BD00BF90F0000F04BF0021704730B571
:1004D0004FF4806404F132044FF000054FF0000146
:1004E00050E700BF90F0000F04BF0021704730B507
:1004F0004FF4806404F1320410F0004548BF4042DC
:100500004FF000013EE700BF42004FEAE2014FEA30
:1005100031014FEA02701FBF12F07F4393F07F4F0B
:1005200081F06051704732F07F4208BF704793F00E
:100530007F4F04BF41F40021704730B54FF4607421
:1005400001F0004521F000411CE700BF50EA010224
:1005500008BF704730B54FF000050AE050EA0102CD
:1005600008BF704730B511F0004502D5404261EB3D
:1005700041014FF4806404F132045FEA915C3FF47E
:10058000D8AE4FF003025FEADC0C18BF03325FEA1B
:10059000DC0C18BF033202EBDC02C2F1200300FACC
:1005A00003FC20FA02F001FA03FE40EA0E0021FAF1
:1005B00002F11444BDE600BF70B54FF0FF0C4CF4DF
:1005C000E06C1CEA11541DBF1CEA135594EA0C0F91
:1005D00095EA0C0F00F0DEF82C4481EA030621EACC
:1005E0004C5123EA4C5350EA013518BF52EA033507
:1005F00041F4801143F4801338D0A0FB02CE4FF0B9
:100600000005E1FB02E506F00042E0FB03E54FF0E8
:100610000006E1FB03569CF0000F18BF4EF0010EE0
:10062000A4F1FF04B6F5007F64F5407404D25FEADC
:100630004E0E6D4146EB060642EAC62141EA55518F
:100640004FEAC52040EA5E504FEACE2EB4F1FD0CD1
:1006500088BFBCF5E06F1ED8BEF1004F08BF5FEA4F
:10066000500E50F1000041EB045170BD06F0004601
:1006700046EA010140EA020081EA0301B4EB5C04AE
:10068000C2BFD4EB0C0541EA045170BD41F48011A6
:100690004FF0000E013C00F3AB8014F1360FDEBFCB
:1006A000002001F0004170BDC4F10004203C35DAA7
:1006B0000C341BDC04F11404C4F1200500FA05F32A
:1006C00020FA04F001FA05F240EA020001F00042CB
:1006D00021F0004110EBD37021FA04F642EB060141
:1006E0005EEA430E08BF20EAD37070BDC4F10C046B
:1006F000C4F1200500FA04F320FA05F001FA04F22F
:1007000040EA020001F0004110EBD37041F100011A
:100710005EEA430E08BF20EAD37070BDC4F1200525
:1007200000FA05F24EEA020E20FA04F301FA05F28D
:1007300043EA020321FA04F001F0004121FA04F235
:1007400020EA020000EBD3705EEA430E08BF20EA05
:10075000D37070BD94F0000F0FD101F0004640003F
:1007600041EB010111F4801F08BF013CF7D041EAC1
:10077000060195F0000F18BF704703F000465200C5
:1007800043EB030313F4801F08BF013DF7D043EA96
:100790000603704794EA0C0F0CEA135518BF95EA4C
:1007A0000C0F0CD050EA410618BF52EA4306D1D1D3
:1007B00081EA030101F000414FF0000070BD50EAF2
:1007C000410606BF1046194652EA430619D094EA7C
:1007D0000C0F02D150EA013613D195EA0C0F05D166
:1007E00052EA03361CBF104619460AD181EA0301BA
:1007F00001F0004141F0FE4141F470014FF0000072
:1008000070BD41F0FE4141F4780170BD70B54FF00C
:10081000FF0C4CF4E06C1CEA11541DBF1CEA13558C
:1008200094EA0C0F95EA0C0F00F0A7F8A4EB05046E
:1008300081EA030E52EA03354FEA013100F0888065
:100840004FEA03334FF0805545EA131343EA12632E
:100850004FEA022245EA111545EA10654FEA0026E3
:100860000EF000419D4208BF964244F1FD0404F59C
:10087000407402D25B084FEA3202B61A65EB0305F8
:100880005B084FEA32024FF480104FF4002CB6EBB5
:10089000020E75EB030E22BFB61A754640EA0C0035
:1008A0005B084FEA3202B6EB020E75EB030E22BF75
:1008B000B61A754640EA5C005B084FEA3202B6EBB6
:1008C000020E75EB030E22BFB61A754640EA9C0075
:1008D0005B084FEA3202B6EB020E75EB030E22BF45
:1008E000B61A754640EADC0055EA060E18D04FEA03
:1008F000051545EA16754FEA06164FEAC30343EAA3
:1009000052734FEAC2025FEA1C1CC0D111F4801F6F
:100910000BD141EA00014FF000004FF0004CB6E768
:1009200011F4801F04BF01430020B4F1FD0C88BF07
:10093000BCF5E06F3FF6AFAEB5EB030C04BFB6EB12
:10094000020C5FEA500C50F1000041EB045170BD05
:100950000EF0004E4EEA113114EB5C04C2BFD4EB32
:100960000C0541EA045170BD41F480114FF0000EB6
:10097000013C90E645EA060E8DE60CEA135594EA32
:100980000C0F08BF95EA0C0F3FF43BAF94EA0C0F35
:100990000AD150EA01347FF434AF95EA0C0F7FF4AA
:1009A00025AF104619462CE795EA0C0F06D152EAFE
:1009B00003353FF4FDAE1046194622E750EA4106E2
:1009C00018BF52EA43067FF4C5AE50EA41047FF4F3
:1009D0000DAF52EA43057FF4EBAE12E74FF0FF3C58
:1009E00006E000BF4FF0010C02E000BF4FF0010C29
:1009F0004DF804CD4FEA410C7FEA6C5C4FEA430CA2
:100A000018BF7FEA6C5C1BD001B050EA410C0CBFF0
:100A100052EA430C91EA030F02BF90EA020F002052
:100A2000704710F1000F91EA030F58BF994208BFB9
:100A300090422CBFD8176FEAE37040F00100704776
:100A40004FEA410C7FEA6C5C02D150EA013C07D1CD
:100A50004FEA430C7FEA6C5CD6D152EA033CD3D018
:100A60005DF8040B704700BF8446104662468C4612
:100A70001946634600E000BF01B5FFF7B7FF002845
:100A800048BF10F1000F01BD4DF808EDFFF7F4FF6E
:100A90000CBF012000205DF808FB00BF4DF808EDF9
:100AA000FFF7EAFF34BF012000205DF808FB00BF1C
:100AB0004DF808EDFFF7E0FF94BF012000205DF83E
:100AC00008FB00BF4DF808EDFFF7CEFF94BF0120F3
:100AD00000205DF808FB00BF4DF808EDFFF7C4FFEC
:100AE00034BF012000205DF808FB00BF4FEA41023F
:100AF00012F5001215D211D56FF47873B3EB625270
:100B000012D94FEAC12343F0004343EA505311F096
:100B1000004F23FA02F018BF404270474FF0000028
:100B2000704750EA013005D111F0004008BF6FF066
:100B3000004070474FF00000704700BF53B94AB9FA
:100B4000002908BF00281CBF4FF0FF314FF0FF30D5
:100B500000F00CB8ADF1080C6DE904CE00F01EF801
:100B6000DDF804E0DDE9022304B07047704700BF00
:100B70004FEA410C7FEA6C5C02D150EA013C0AD199
:100B80004FEA430C7FEA6C5C02D152EA033C02D18B
:100B90004FF0000070474FF0010070472DE9F04F13
:100BA00007468C460846099E15463C461946002BCA
:100BB00040F0C6808242B2FA82F746D94FB1C7F1FF
:100BC000200E24FA0EFE00FA07F3BD404EEA030C95
:100BD000BC404FEA15481FFA85FEBCFBF8F9220C11
:100BE00008FB19C309FB0EFA42EA03439A4528D9C8
:100BF000EB1809F1FF3004D29A4502D9A9F102009D
:100C00002B44A3EB0A03A4B2B3FBF8F208FB1233A4
:100C100002FB0EFE44EA0344A64514D92C1902F146
:100C2000FF3303D2A64501D9931E2C44A4EB0E0436
:100C300043EA00401EB1FC40002334607360BDE80D
:100C4000F08F4846DDE71346F0E702B9FFDE87BBC9
:100C5000831A01214FEA154EAAB2B3FBFEFC200C09
:100C60000EFB1C330CFB02F840EA0343984563D9A2
:100C7000EB180CF1FF3004D2984502D9ACF1020018
:100C80002B44A3EB0803A4B2B3FBFEFC0EFB1C3306
:100C90000CFB02F244EA0344A2424FD92C190CF196
:100CA000FF3304D2A24202D9ACF102032C44A41AAD
:100CB000BEE7C7F1200C20FA0CF800FA07F324FA7B
:100CC0000CFCBD404CEA03024FEA154EABB2B8FB38
:100CD000FEFC110C0EFB1C800CFB03F941EA0040EA
:100CE000814504FA07F423D928180CF1FF3104D206
:100CF000814502D9ACF102012844A0EB090092B26F
:100D0000B0FBFEFC0EFB1C000CFB03F842EA0043A8
:100D100098450FD9EB180CF1FF3204D2984502D94F
:100D2000ACF102022B44A3EB080342EA014191E734
:100D30006146E2E76246F6E76046A2E76346B6E749
:100D4000834205D90EB1C6E900700021084676E756
:100D5000B3FA83F181B9834201D3BA420AD8BC1AEB
:100D600060EB030301209C46002E68D0C6E9004CCE
:100D7000002164E70846F7E7C1F1200C8B4022FA16
:100D80000CF41C4302FA01F500FA01F327FA0CF205
:100D900020FA0CFB4FEA14491343BBFBF9F81FFA86
:100DA00084FE09FB18BB1A0C08FB0EFA42EA0B4240
:100DB000924507FA01F73ED9A21808F1FF3004D294
:100DC000924502D9A8F102002244A2EB0A029BB28A
:100DD000B2FBF9F809FB182208FB0EFE43EA0242B7
:100DE00096452AD9A21808F1FF3304D2964502D9B4
:100DF000A8F10203224443EA0040A0FB0593A2EBC2
:100E00000E029A42CE46984602D306D14F4504D2EE
:100E1000B9EB050E63EB0408013886B1B7EB0E039E
:100E200062EB080707FA0CFCCB404CEA0303CF4007
:100E3000C6E900379CE74046C7E74346DBE7314653
:100E4000FDE610F8012B11F8013B012A28BF9A4258
:100E5000F7D0D01A7047034613F8012B002AFBD1B4
:100E6000181A01387047000070B586B0054644680E
:100E70000669206811F04DFA50B10023227E93429A
:100E800022D2E269D25C032A10D80133DBB2F5E743
:100E900023681B680293284B0193009003460122AC
:100EA000264910F0EBFF6FF012003DE02B68029333
:100EB000234B019300200090034601221F4910F0AC
:100EC000DDFF6FF015002FE02068616883685B68C4
:100ED00004AA9847A58C0498A0FB050114A3D3E9A4
:100EE0000023DDF814C005FB0C11FFF727FE30606E
:100EF000258C0498A0FB05010DA3D3E90023DDF8A0
:100F000014C005FB0C11FFF719FE7060648C049887
:100F1000A0FB040106A3D3E90023059D04FB0511F2
:100F2000FFF70CFEB060002006B070BDAFF300808C
:100F300000CA9A3B0000000004500108BC380108B8
:100F400020500108000000002DE9F04F446A99B0DC
:100F500016461F46CDE90467DDF89480054674B94E
:100F600010200DF029FB0246686220B9A84BEA2147
:100F7000A8480DF0F1FAC0E901440460C4606B6A4E
:100F8000196851B15A684A60012393408B60284622
:100F90000EF03EFB6B6A00221A603B1EB9BF23F0C5
:100FA000004305930023C8F80030DDF814909A4BF5
:100FB000BCBF0122C8F8002033EA090319D1249AE2
:100FC00042F20F731360C9F31303334300F08085BB
:100FD000269B53B9914B22E0914B03930833269AF9
:100FE0001360039819B0BDE8F08F8C4B0393033363
:100FF000F5E7DDE90434CDE90C34DDE90C0100222C
:101000000023FFF741FD804658B1249A0123136065
:10101000269B002B00F0598582481860431E0393DD
:10102000DFE716AB019317AB00932846DDE90C23ED
:101030000EF066FDC9F30A548346002C7ED00D9B4A
:10104000CDF84C80C3F31303DDE90C0143F07F516D
:1010500041F44011A4F2FF34734B0022FFF7F4F87F
:1010600065A3D3E90023FFF7A7FA65A3D3E900231B
:10107000FFF7ECF8064620460F46FFF733FA62A367
:10108000D3E90023FFF798FA02460B46304639466B
:10109000FFF7DCF806460F46FFF728FD00228246E0
:1010A000002330463946FFF7F9FC48B15046FFF7B8
:1010B00019FA32463B46FFF7E7FC08B90AF1FF3A56
:1010C000BAF1160F57D8594B03EBCA03D3E90023E3
:1010D000DDE90C01FFF7E2FC00284ED00AF1FF3AEF
:1010E00000230F93169B1C1B631E099345BFC4F17D
:1010F00001030693002300234CBF09930693BAF122
:10110000000F3CDB099BCDF838A053440993002322
:101110000A93229B092B00F28D80052BC4BF043B50
:101120002293229BA3F10203CCBF00240124032BB2
:1011300000F28C80DFE803F02D4F4D5BDDE91643B4
:101140001C4404F23243202BC3BFC3F1400304F21A
:10115000124009FA03F3C3F12003C6BF26FA00F0D8
:10116000184306FA03F0FFF7ADF90123A1F1F87176
:10117000013C139370E70123B3E70F90B2E7069B9E
:10118000A3EB0A030693CAF100030A9300230E930C
:10119000BFE700230B93239B002B5ADC4FF0010980
:1011A000CDF820904B46CDF88C90686A00224260C2
:1011B000042202F114069E42416850D928460EF0DE
:1011C000E7F9039000284ED1194B02464FF4D57130
:1011D000CEE60123DEE700230B93239B0AEB0309F2
:1011E00009F10103012B0893B8BF0123DDE70123B7
:1011F000F2E700BFAFF3008061436F63A787D23F80
:10120000B3C8608B288AC63FFB799F501344D33FF5
:101210001B5A0108325A01080000F07F175A0108D2
:101220000E5A0108EB5901080000F83FD8390108AF
:101230008C5A01080124002322930B944FF0FF39AC
:101240000022CDF8209012232392AEE701230B93C6
:10125000F4E7DDF88C90CDF820904B46A5E70131FE
:1012600041605200A5E76B6A039A1A60089B0E2B37
:1012700000F2A880002C00F0A580BAF1000F34DD48
:101280009A4A0AF00F0302EBC303D3E900341AF4BD
:10129000807FCDE910344FEA2A1416D0944BDDE953
:1012A0000C01D3E90823FFF7B1FACDE9040104F0FA
:1012B0000F0403278E4E54B9DDE91023DDE9040144
:1012C000FFF7A4FACDE9040129E00227F2E7E107DC
:1012D00008D5DDE91001D6E90023FFF76DF9CDE966
:1012E0001001013764100836E5E700F0A580CAF167
:1012F00000047E4B7E4E04F00F0203EBC203D3E9E1
:101300000023DDE90C01FFF757F9CDE904012411B1
:1013100000230227002C40F08480002BD2D10F9BA9
:10132000002B00F08B80DDE90434CDE91034DDE9D9
:101330001001704B0022FFF7B1FB00287ED0089B04
:10134000002B7BD0B9F1000F38DDDDE910016A4BCD
:101350000022FFF731F9CDE904010AF1FF38013726
:101360004C463846FFF7BEF8DDE90423FFF724F9C1
:10137000624B0022FEF76AFFA1F15076CDE9100121
:101380001196002C5DD1DDE904015D4B0022FEF7D2
:101390005BFF02460B46CDE90423109A3346FFF764
:1013A0009BFB002840F09C82DDE90401109A06F1C5
:1013B0000043FFF773FB002840F09082DDE90C3416
:1013C000CDE90434179B002BC0F25281BAF10E0F05
:1013D00000F34E81454B03EBCA03D3E90034CDE95A
:1013E0000634239B002B80F2DB80089B002B00F34C
:1013F000D78040F07282424B0022DDE90601FFF700
:10140000DBF8DDE90423FFF75DFB089C2646002896
:1014100040F04882039F312307F8013B0AF1010A9B
:1014200044E2E20705D5D6E90023FFF7C5F8013706
:101430000123641008366DE7022770E7089CD04648
:101440008FE70399294B214412910B9903EBC403B5
:10145000DDE9106753E90223002955D0294900200E
:10146000FFF7D4F93B463246FEF7EEFECDE9100118
:10147000039FDDE90401FFF739FB0446FFF732F86B
:1014800002460B46DDE90401FEF7DEFE303402467B
:101490000B46CDE9042307F8014BDDE91023FFF7E4
:1014A000FDFA002874D1DDE9042312490020FEF77B
:1014B000CBFEDDE91023FFF7F1FA002840F0B780FA
:1014C000129B9F423FF47AAFDDE910010A4B0022E4
:1014D000FFF772F8084BCDE910010022DDE90401A5
:1014E000FFF76AF8CDE90401C3E700BFD839010866
:1014F000B03901080000F03F0000244000001C400B
:10150000000014400000E03F30463946FFF754F831
:10151000CDE91001129B039C1493DDE90401FFF750
:10152000E5FA1590FEF7DEFF02460B46DDE9040101
:10153000FEF78AFE159B303304F8013B129B9C4258
:1015400006460F464FF0000224D1A44BDDE91001FE
:10155000FEF77CFE02460B4630463946FFF7BCFAE2
:10156000002863D1DDE910239C490020FEF76CFEC2
:1015700002460B4630463946FFF790FA00283FF402
:101580001DAF149F7B1E149317F8013C302BF8D02D
:10159000C2463BE0924BFFF70FF8CDE90401BCE7F0
:1015A000DDE90489039FDDE9062340464946FFF74C
:1015B0002DF9FFF79BFA0446FEF794FFDDE90623B9
:1015C000FEF7FAFF04F1300602460B464046494654
:1015D000FEF73AFE07F8016B039EDDF820C0BE1B44
:1015E000B44502460B4636D1FEF730FEDDE9062350
:1015F00080468946FFF770FA58BBDDE9062340466E
:101600004946FFF741FA08B1E10722D42846594676
:101610000DF0FEFF00233B70249B0AF101001860CF
:10162000269B002B3FF4DDAC1F60DAE427463B46E7
:101630001F4613F8012D392A07D1039A9A42F7D190
:101640000399302208F101080A701A7801321A70E1
:101650009EE7D046EBE7624B0022FEF7ADFF00228B
:10166000002380468946FFF70FFA00289BD0CDE77C
:101670000B9A002A00F0D080229A012A00F3B2804F
:10168000139A002A00F0A68003F233430A9C069FB7
:10169000069A1A440692099A01211A442846099288
:1016A0000EF01EF80646002F0CDD099B002B09DD0D
:1016B000BB42069AA8BF3B46D21A0692099AFF1A65
:1016C000D31A09930A9BF3B10B9B002B00F0A8805F
:1016D000002C10DD3146224628460EF0BFF85A464F
:1016E0000146064628460EF011F85946804628461F
:1016F0000DF08EFFC3460A9B1A1B04D0594628469C
:101700000EF0ACF88346012128460DF0E9FF0E9B50
:10171000002B044640F386801A46014628460EF008
:101720009DF8229B012B04467FDD4FF000082369C2
:1017300004EB8303186911F024FDC0F12000099B1C
:10174000184410F01F0000F09280C0F12003042B19
:1017500040F38A80C0F11C00069B03440693099B5A
:10176000034407440993069B002B05DD59461A469E
:1017700028460EF0CDF88346099B002B05DD214657
:101780001A4628460EF0C4F804460F9B002B70D072
:101790002146584611F042FD00286ADA00235946D6
:1017A0000A2228460DF056FF0B9B0AF1FF3A8346AA
:1017B000002B00F09481314600230A2228460DF0C8
:1017C00049FFB9F1000F064600F39380229B022BDC
:1017D00057DC8EE0169BC3F1360357E70000E03F6D
:1017E00000002440089B5C1E0A9BA342BFBF0A9BCB
:1017F0000A94E21A0E9BB6BF9B181C1B0E93089B03
:10180000B8BF0024002BB9BF069B089A069F089B0F
:10181000BCBF9F1A00233BE70A9C069F0B9E42E732
:101820000A9A6BE7229B012B19DC049BBBB9059B31
:10183000C3F313039BB9059B23F000431B0D1B054A
:1018400083B1069B01330693099B013309934FF043
:1018500001080E9B002B7FF46AAF01206FE74FF069
:101860000008F6E79846F4E73FF47DAF18461C30D1
:1018700072E7089B002B36DC229B022B33DDDDF860
:101880002090B9F1000F0DD121464B460522284684
:101890000DF0E0FE01460446584611F0BFFC00285A
:1018A0003FF7B8AD239B039F6FEA030A4FF0000890
:1018B000214628460DF0ACFE002E3FF4A7AEB8F14D
:1018C000000F05D0B04503D0414628460DF0A0FEDC
:1018D000314628460DF09CFE98E600242646E1E7B6
:1018E000C246264696E50B9BDDF82090002B00F0C3
:1018F000FD80002F05DD31463A4628460EF008F8F7
:101900000646B8F1000F5CD0716828460DF040FE25
:10191000074628B9804B024640F2EA21FFF728BB70
:1019200032690232920006F10C010C3011F0CAF952
:101930000122394628460DF0EBFF039B0133089343
:10194000039B4B440A93049B03F00103B0460993A5
:101950000646089B2146013B5846049311F030FB94
:10196000034630330690414658460B9311F056FC1F
:1019700032468146214628460EF03AF8C2680B9B53
:10198000074602BB0146584611F048FC0B9B024635
:1019900039462846CDE90B320DF03AFE229B0C9ACF
:1019A000089F43EA0201099B0B430B9B0DD1392B86
:1019B00029D0B9F1000F01DD069B3133049A137071
:1019C00076E73046B9E70122E2E7B9F1000F06DB1E
:1019D000229941EA0909099959EA010120D1002A0D
:1019E000ECDD59460122284608930DF091FF21466F
:1019F000834611F013FC0028089B02DCDED1DA07D5
:101A0000DCD5392BD8D1049A392313703B461F46B5
:101A1000013B17F8012C392A50D001321A7047E7E0
:101A2000002A03DD392BEED00133C7E7089A0A9963
:101A300002F8013C8A422AD0594600230A2228464D
:101A40000DF008FEB04583464FF000034FF00A0248
:101A50004146284607D10DF0FDFD80460646089B0D
:101A60000133089375E70DF0F5FD314680460023FC
:101A70000A2228460DF0EEFD0646F0E7B9F1000F08
:101A8000039ACCBF4F46012717444FF00008594630
:101A90000122284608930DF03BFF2146834611F0B2
:101AA000BDFB0028B2DC02D1089BDB07AED43B466D
:101AB0001F4613F8012D302AFAD0F9E6039A9A420C
:101AC000A5D10AF1010A312379E7144BFFF7A7BA30
:101AD000269B002B7FF480AA114BFFF7A0BAB9F127
:101AE000000F03DC229B022B3FF7CBAE039F214666
:101AF000584611F065FA00F1300307F8013B039AEC
:101B0000BA1A9145BADD594600230A2228460DF03B
:101B1000A1FD8346EBE700BF8C5A0108EA59010892
:101B20000E5A0108012800D070474FF6FF73994202
:101B3000FAD110B5A6B004AC80220021204611F0E5
:101B4000CFF801238DF8203002238DF830300323A5
:101B50008DF8403004238DF8503005238DF8603027
:101B600006238DF8703007238DF8803024940823E5
:101B700025936B4426AA12E9030083E803000D4B6A
:101B800000221A719A60191DD96019615A61019376
:101B900024AB9C4207D0074801AB2246011D0EF042
:101BA00043F91034F4E7044A044902480EF005FEF4
:101BB00026B010BDC00E002058100020ADFC00085B
:101BC00080B594B0002413944022214603A811F05C
:101BD00087F80294009401947E4D284610F082FF0D
:101BE0002B46224601217C4810F054FF0121284653
:101BF0000CF024FCC1E09DF80060254607E0774B1F
:101C000003EB810176480AF0F1FC0135EDB2224682
:101C1000E31D29469D4213DC3319AB4209DD013235
:101C20009142ECDC6D4B03EB81016E480AF0DEFC67
:101C3000EBE76A4B03EB81016B480AF0D7FCE4E762
:101C40009DF804602C4607E0644901EB8201664878
:101C50000AF0CCFC0134E4B26B1D22469C4209DC44
:101C6000631BB342F0DA5D4901EB82015F480AF081
:101C7000BDFCEFE75E4B186883681B68102257496C
:101C800098477AE09DF80030042B21D8DFE803F074
:101C900003070B0F1300534B1B68139318E0504BB3
:101CA0001B68139314E0514B1B68139310E0514BC6
:101CB0001B6813930CE0504B1B68139308E0651CE2
:101CC000EDB203AB03EB840113A80AF08FFC2C46A2
:101CD000A642F4D8002419E0454D286883681B68A3
:101CE000102203A998474FF47A76002730463946E8
:101CF0000BF06AFE286883681B6810223F499847EA
:101D0000304639460BF060FE0134E4B29DF80130F4
:101D1000A342E1D8364B186883681B6810222F490C
:101D200098472AE02F4B1B68139318E02C4B1B6835
:101D3000139314E02D4B1B68139310E02D4B1B687D
:101D400013930CE02C4B1B68139308E0651CEDB259
:101D500003AB03EB840113A80AF048FC2C46A6420F
:101D6000F4D8234B186883681B68102203A998478E
:101D700003E0642000210BF027FE214B5B6A002B5F
:101D8000F7D00022002302A91D480AF0B1FF029BF0
:101D90006A46191D03C982E803005C789E781B78A7
:101DA000012B3FF428AF022B3FF46CAF002BE4D1A2
:101DB0009DF80030042BD2D801A252F823F000BFC6
:101DC000251D00082D1D0008351D00083D1D0008BB
:101DD000451D00086C0F0020180F00202C0F00205C
:101DE000C43A0108CC3A0108C03A0108BC3A0108DB
:101DF00000000020C83A0108D03A0108D80E00209F
:101E00008C05002090B591B000AF6C4601233B815A
:101E100002237B811F4B7B6000230AE007F1400215
:101E200002EB830252F83C1C07F1380242F82310FF
:101E30000133002BF2D002237B81174B7B60002300
:101E40000AE007F1400202EB830252F83C1C07F162
:101E50003C0242F823100133002BF2D000237B60B8
:101E600003223A717A687A631946042262F3881170
:101E70000C2262F3522107F1340208480EF010FCE4
:101E8000A546074B074A1A6007480BF0CFF94437BD
:101E9000BD4690BDD43A0108F83A01083C38010823
:101EA000A40F002004000020C40F0020B0B590B0A3
:101EB00000AF6C460123BB800223FB80354B3B60A7
:101EC00000230AE007F1400202EB830252F8401CB3
:101ED00007F1380242F823100133002BF2D002231D
:101EE000FB802D4B3B6000230AE007F1400202EB30
:101EF000830252F8401C07F13C0242F823100133E0
:101F0000002BF2D000253D6003233B703B687B63D0
:101F10002946042363F388110C2363F352212B46D3
:101F200007F134021D480EF0BBFBA5467D621C4B39
:101F30001C4A92E8030083E80300002200230121E9
:101F400019480CF0CFF938B9184B1B78052B0ED077
:101F5000164A137801331370154A1378013313703E
:101F6000144B186810F03DFC4037BD46B0BD124B15
:101F70007B620022002307F1240110480AF05CFE76
:101F8000094A11698D60D16865F35231D160074A01
:101F90001570DDE7183B0108343B01083C380108A7
:101FA000A80F00200C3E0108180F0020701600201A
:101FB00071160020343E01080C0000208C05002022
:101FC00070B5A14B1B79012B37D0A04B0022BFF37A
:101FD0005B8F53E8001F012903D143E8002000284C
:101FE000F7D1BFF35B8F40F09F81994C20688368E5
:101FF0001B6911469847974900234B7320688368F3
:102000001B6898470546002840F080812068836857
:102010001B69914A914998470546002800F0828142
:102020008A4B0122BFF35B8F53E8001F43E8002077
:102030000028F9D1BFF35B8F74E10025884B5B6A00
:1020400053B9884B5B6A1BBB7F4B1A6892E803004D
:1020500083E80300012565E1814C002200238249C9
:1020600020460AF045FE4FF01003EFF3118283F390
:102070001288BFF36F8F7D4B1A60754B18688368A9
:102080001B6900221146984700231A46184695E01E
:10209000744C00220023744920460AF029FEE2E72E
:1020A00071490E789C46991C8C4580F285800121EF
:1020B00001FA0CFE22EA0E0EACEB030201FA02F268
:1020C00032409A404EEA02028C445FFA8CFCEAE706
:1020D00065494E789C46D91C8C4580F2838001214D
:1020E00001FA0CFE22EA0E0EACEB030201FA02F238
:1020F00032409A404EEA02028C445FFA8CFCEAE7D6
:1021000059498E789C46191D8C456DDA012101FADA
:102110000CFE22EA0E0EACEB030201FA02F2324090
:102120009A404EEA02028C445FFA8CFCEBE74E497F
:10213000CE789C46591C8C4558DA012101FA0CFED8
:1021400022EA0E0EACEB030201FA02F232409A4090
:102150004EEA02028C445FFA8CFCEBE742490E79AE
:102160009C46591C8C4543DA012101FA0CFE22EAF7
:102170000E0EACEB030201FA02F232409A404EEA34
:1021800002028C445FFA8CFCEBE737494E799C469F
:10219000D91C8C452EDA012101FA0CFE22EA0E0E22
:1021A000ACEB030201FA02F232409A404EEA02021C
:1021B0008C445FFA8CFCEBE76346013005281BDC9E
:1021C0000528FAD801A151F820F000BFA12000088D
:1021D000D1200008012100082F2100085D210008FE
:1021E0008B2100086346E8E76346E6E76346E4E7D9
:1021F0006346E2E76346E0E74FF0000C13E000F0CF
:1022000001032B435B00DDB240080131C9B206294E
:10221000F5D900F001002843154B03F80E000CF12E
:10222000010C5FFA8CFCBCF1010F23D8E6464FEAA3
:10223000CC03FF2098401040D840C0B20C4B03F8AC
:102240000C000021E3E700BFA80F0020B40F00201E
:10225000B00F00202C0000204933000895330008FF
:102260005C06002028060020BC0F0020840F002000
:10227000B80F00202D4901234B732D4B186883683C
:102280001B689847051E25DB294B186883685B6827
:10229000022228499847051E2FDB274B0122BFF356
:1022A0005B8F53E8001F43E800200028F9D1BFF3FB
:1022B0005B8F224B9B78052B26D0214B1A6892E826
:1022C000030083E803001F4B1B6883F31188BFF3EF
:1022D0006F8F27E000220023184920460AF0ACFC4B
:1022E000174B1A6892E8030083E80300154B1B683C
:1022F00083F31188BFF36F8F14E0002200230F498E
:1023000020460AF099FCC8E71546D6E70A4B012299
:10231000BFF35B8F53E8001F43E800200028F9D18A
:10232000BFF35B8F284670BD0125FBE72C00002022
:10233000B00F0020B80F0020B40F0020BC0F002009
:10234000A80F0020840F002030B587B04FF0FF3376
:102350000593002304935648564B18600FF0D9FF9D
:10236000002877D0544B18680FF0D3FF002800F0F6
:102370008680514B186819795B7943F480738568BE
:10238000046903F480523AB113F4406F04D013F09F
:10239000010F01D083F4406323F4805213F0010F46
:1023A0007AD0012303FA01FC236843EA0C0323607B
:1023B0002B689847404B18681979846803691A6834
:1023C00001238B401A426FD14FF4B822A46902F462
:1023D000C02302F4A032A047374A117901238B4071
:1023E0003649374848608B6010688368DB690BB1F9
:1023F00001229847334D3449284610F04BF83349B1
:10240000334810F047F800223249334810F0ADFA53
:10241000324B03225A701A7005229A700122DA7028
:1024200000245C711C712E4B04930022002304A92C
:102430002C480AF001FC2C4B2C4A92E8030083E85C
:10244000030021462A480BF0F9FF28460AF0EEFE69
:1024500007B030BD174B1B681B680393254B0293D5
:10246000254B019300900346042224490DF0FAFC09
:102470004FF0FF304FF0FF310BF0A6FA72E70E4B32
:102480001B6819681E480DF048FD4FF0FF304FF0F3
:10249000FF310BF099FA6CE7012303FA01FC236882
:1024A00023EA0C03236083E74FF470328EE700BF0A
:1024B000F4340108A00F002004000020880F002041
:1024C000051E0008D40F002071370008ED35000804
:1024D000C40F0020AD1E0008280700207C0F00203C
:1024E0007C0000208C050020A80F0020043E01087D
:1024F0006C0000204C3B0108583B01083C380108A7
:10250000803B010880B5ADF5027D00AF0024FC875B
:102510007C633C87FC623C86C64BBB6200F08ABE93
:1025200000F0010323435B00DCB240080132D2B269
:10253000062AF5D900F00100204307F13C0303F817
:102540000C004FEACC0C00FA0CF001430135EDB25F
:10255000012D05D8AC4607F13C03585D0022E7E7A2
:1025600000231846ACE09C469A1C944580F2A68055
:10257000ACEB030E012202FA0EF597F82CE02EEADE
:10258000050E87F82CE002FA0CF20A40DA404EEA17
:10259000020287F82C200CF1010C5FFA8CFCE3E7B7
:1025A0009C46DA1C944580F29F80ACEB030E01221E
:1025B00002FA0EF597F82DE02EEA050E87F82DE0C9
:1025C00002FA0CF20A40DA404EEA020287F82D20A5
:1025D0000CF1010C5FFA8CFCE3E79C461A1D944554
:1025E00080F28480ACEB030E012202FA0EF597F81C
:1025F0002EE02EEA050E87F82EE002FA0CF20A40D1
:10260000DA404EEA020287F82E200CF1010C5FFA44
:102610008CFCE3E79C465A1C944569DAACEB030E4C
:10262000012202FA0EF597F82FE02EEA050E87F840
:102630002FE002FA0CF20A40DA404EEA020287F872
:102640002F200CF1010C5FFA8CFCE4E79C465A1C2D
:1026500094454FDAACEB030E012202FA0EF597F81F
:1026600030E02EEA050E87F830E002FA0CF20A405C
:10267000DA404EEA020287F830200CF1010C5FFAD2
:102680008CFCE4E79C46DA1C944535DAACEB030E8F
:10269000012202FA0EF597F831E02EEA050E87F8CE
:1026A00031E002FA0CF20A40DA404EEA020287F800
:1026B00031200CF1010C5FFA8CFCE4E76346013039
:1026C00005281BDC0528FAD801A252F820F000BF2B
:1026D00067250008A1250008DB250008152600084D
:1026E0004D260008852600086346E8E76346E6E7CE
:1026F0006346E4E76346E2E76346E0E797F82D3098
:10270000042B00F0B680032B00F0B3806D4601234C
:102710003B8102237B8188B0684610F10C023CD0DB
:10272000142101233B810AB1042939DC02237B8176
:102730000AB1082942DC97F82D300AB10C294BDC8C
:102740000AB1102955DC132961DD14232AB10021B7
:102750007960052139717968C1600021042060F336
:10276000881103F47D7363F35221002332480DF086
:1027700097FFAD466D4601233B8102237B812F4BA2
:102780007B600023002B45D13A1D52F8231007F13E
:10279000500242F823100133F4E76FF00041C0E724
:1027A00000F1100C264B7B600023002BBED13E1D98
:1027B00056F823604CF823600133F6E700F1140C5F
:1027C000204B7B600023002BB5D13E1D56F82360C3
:1027D0004CF823600133F6E700F1180C7B6000230E
:1027E000002BADD13E1D56F823604CF82360013319
:1027F000F6E700F11C0C03233B710023002BA2D150
:102800003E1D56F823604CF823600133F6E76FF065
:102810001B039BE702237B810A4B7B6000239BB950
:102820003A1D52F8231007F1540242F823100133E5
:10283000F5E700BF7C0000203C380108E83B0108B8
:10284000A83B0108D03B010800237B6003223A71BA
:102850007A68FA641946042262F388110C2262F342
:10286000522107F14C02BC480DF01AFFAD4600F0B2
:10287000E1BC97F82F30002B00F02182012B40F0B3
:102880005E846D463B8102237B81B44B7B600023D9
:1028900043B93A1D52F8231007F1680242F8231099
:1028A0000133F5E702237B81AD4B7B60002343B905
:1028B0003A1D52F8231007F16C0242F8231001333D
:1028C000F5E700267E604FF0030887F804807B68F8
:1028D0007B663146042363F388110C2363F3522192
:1028E000334607F164029C480DF0DAFEAD4687F8E6
:1028F000348097F82E3087F8363087F8396087F8BB
:10290000376087F8386087F83560052B00F2A181C1
:10291000DFE813F034010600AC006A016A01E80048
:102920006D4601233B8102237B818E4B7B6000231C
:1029300043B93A1D52F8231007F1B00242F82310B0
:102940000133F5E702237B81854B7B60002343B98C
:102950003A1D52F8231007F1B40242F82310013354
:10296000F5E700237B6003223A717A68C7F8AC2050
:102970001946042262F388110C2262F3522107F1F6
:10298000AC0275480DF08CFEAD4697F82C30002B4C
:1029900036D16D4601233B8102237B81724B7B60E4
:1029A000002343B93A1D52F8231007F1C80242F838
:1029B00023100133F5E702237B81694B7B60002301
:1029C00043B93A1D52F8231007F1CC0242F8231004
:1029D0000133F5E700237B6003223A717A68C7F878
:1029E000C4201946042262F388110C2262F352219A
:1029F00007F1C40258480DF053FEAD4600F01ABC72
:102A00006D4601233B8102237B81584B7B60002371
:102A100043B93A1D52F8231007F1E00242F823109F
:102A20000133F5E702237B814D4B7B60002343B9E3
:102A30003A1D52F8231007F1E40242F82310013343
:102A4000F5E700237B6003223A717A68C7F8DC203F
:102A50001946042262F388110C2262F3522107F115
:102A6000DC023D480DF01CFEAD46E3E36D4601235C
:102A70003B8102237B813E4B7B60002343B93A1D9F
:102A800052F8231007F1980242F823100133F5E7BA
:102A900002237B81324B7B60002343B93A1D52F8FD
:102AA000231007F19C0242F823100133F5E70023BD
:102AB0007B6003223A717A68C7F894201946042291
:102AC00062F388110C2262F3522107F1940222482A
:102AD0000DF0E6FDAD460022002307F13401254844
:102AE0000AF0AAF80A22002307F13E0122480AF060
:102AF000FFF8B7F93E3013F1460F80F26E839BB2B8
:102B000003F1500292B2092A40F2A38303F15A0260
:102B100092B2092A40F29F8303F1640292B2092A19
:102B200040F29B8303F1690292B2042A40F2978338
:102B300003F17D0292B2132A40F2938303F17F02E4
:102B400092B2012A40F28F8382339BB2022B00F2B1
:102B50008C83012242E300BF3C380108003C01089D
:102B6000D03B0108103C0108303C0108503C0108F2
:102B7000843C010828060020C00500206D46012382
:102B80003B8102237B81B64B7B60002343B93A1D16
:102B900052F8231007F1F80242F823100133F5E749
:102BA00002237B81AF4B7B60002343B93A1D52F86F
:102BB000231007F1FC0242F823100133F5E700234C
:102BC0007B6003223A717A68C7F8F4201946042220
:102BD00062F388110C2262F3522107F1F402A24839
:102BE0000DF05EFDAD4625E36D4601233B810223DA
:102BF0007B819E4B7B60002343B93A1D52F8231022
:102C000007F1800242F823100133F5E702237B81AC
:102C1000944B7B60002343B93A1D52F8231007F10F
:102C2000840242F823100133F5E700237B6003227E
:102C30003A717A68FA671946042262F388110C2205
:102C400062F3522107F17C0287480DF029FDAD4661
:102C5000F0E26D4601233B8102237B81844B7B6044
:102C6000002343B93A1D52F8231007F5887242F841
:102C700023100133F5E702237B817A4B7B6000232D
:102C800043B93A1D52F8231007F58A7242F823100F
:102C90000133F5E700237B6003223A717A68C7F8B5
:102CA0000C211946042262F388110C2262F352218E
:102CB00007F586726C480DF0F3FCAD46BAE26E463D
:102CC00001233B8102237B816A4B7B60002343B954
:102CD0003A1D52F8231007F5947242F8231001337D
:102CE000F5E702237B815F4B7B60002343B93A1DEC
:102CF00052F8231007F5967242F823100133F5E7D6
:102D000000257D6003233B717B68C7F82431294689
:102D1000042363F388110C2363F352212B4607F538
:102D2000927251480DF0BCFCB5466E4601233B81C2
:102D300002237B81504B7B6045B93A1D52F8251028
:102D400007F5A07242F825100135F5E702237B81D3
:102D5000444B7B60002343B93A1D52F8231007F51A
:102D6000A27242F823100133F5E700237B600322AF
:102D70003A717A68C7F83C211946042262F3881137
:102D80000C2262F3522107F59E7237480DF088FC41
:102D9000B54697F82E30042B00F29B81DFE813F044
:102DA000CD00050097004E0103016D4601233B81D4
:102DB00002237B81314B7B60002343B93A1D52F8DB
:102DC000231007F5D07242F823100133F5E70223F0
:102DD0007B81244B7B60002343B93A1D52F82310BA
:102DE00007F5D27242F823100133F5E700237B6028
:102DF00003223A717A68C7F89C211946042262F3CB
:102E000088110C2262F3522107F5CE7216480DF09C
:102E100047FCAD4697F82C30032B7FF463AE6D462C
:102E200001233B8102237B81154B7B60002343B947
:102E30003A1D52F8231007F5DC7242F823100133D3
:102E4000F5E702237B81074B7B600023D3B93A1D52
:102E500052F8231007F5DE7242F823100133F5E72C
:102E6000A03C0108D03B01083C380108B83C0108EF
:102E7000D83C0108F83C0108083D0108103C010855
:102E80001C3D010800237B6003223A717A68C7F871
:102E9000B4211946042262F388110C2262F35221F4
:102EA00007F5DA72B6480DF0FBFBAD46B54BBB62D9
:102EB0000022002307F12801B34809F0BDFEB34802
:102EC0000AF0B4F90221B2480BF0B8FA0AE66D46EE
:102ED00001233B8102237B81AE4B7B60002343B9FE
:102EE0003A1D52F8231007F5C47242F8231001333B
:102EF000F5E702237B81A84B7B60002343B93A1D91
:102F000052F8231007F5C67242F823100133F5E793
:102F100000237B6003223A717A68C7F8842119463E
:102F2000042262F388110C2262F3522107F5C27267
:102F300093480DF0B5FBAD467CE16D4601233B8126
:102F400002237B81954B7B60002343B93A1D52F8E5
:102F5000231007F5E87242F823100133F5E7022346
:102F60007B818D4B7B60002343B93A1D52F82310BF
:102F700007F5EA7242F823100133F5E700237B607E
:102F800003223A717A68C7F8CC211946042262F309
:102F900088110C2262F3522107F5E67278480DF091
:102FA0007FFBAD4646E16D4601233B8102237B81D9
:102FB0007B4B7B60002343B93A1D52F8231007F581
:102FC000AC7242F823100133F5E702237B81724B88
:102FD0007B60002343B93A1D52F8231007F5AE7207
:102FE00042F823100133F5E700237B6003223A7196
:102FF0007A68C7F854211946042262F388110C221A
:1030000062F3522107F5AA725D480DF049FBAD4607
:1030100097F82C30032B7FF465AD5A4BBB6200222E
:10302000002307F12801584809F006FE57480AF026
:10303000FDF8022156480BF001FA53E56D460123D5
:103040003B8102237B81574B7B60002343B93A1DB0
:1030500052F8231007F5B87242F823100133F5E750
:1030600002237B814C4B7B60002343B93A1D52F80D
:10307000231007F5BA7242F823100133F5E7002355
:103080007B6003223A717A68C7F86C2119460422E2
:1030900062F388110C2262F3522107F5B6723848A8
:1030A0000DF0FEFAAD4697F82C30032B7FF41AADE5
:1030B000344BBB620022002307F12801324809F09B
:1030C000BBFD32480AF0B2F8022131480BF0B6F9E4
:1030D00008E56D4601233B8102237B81324B7B60F7
:1030E000002343B93A1D52F8231007F5F47242F851
:1030F00023100133F5E702237B81274B7B600023FC
:1031000043B93A1D52F8231007F5F67242F823101E
:103110000133F5E700237B6003223A717A68C7F830
:10312000E4211946042262F388110C2262F3522131
:1031300007F5F27212480DF0B3FAAD467AE06D462B
:1031400001233B8102237B81184B7B60002343B921
:103150003A1D52F8231007F5007242F8231001338C
:10316000F5E702237B810C4B7B60002303BB3A1DF8
:1031700052F8231007F5017242F823100133F5E7E6
:103180003C380108480000208C050020D40F0020A6
:103190006C000020843C0108D03B0108A03C0108E1
:1031A000403D0108683D0108D83C01088C3D0108FC
:1031B00000237B6003223A717A68C7F8FC21194624
:1031C000042262F388110C2262F3522107F5FE7289
:1031D0002A480DF065FAAD462CE00822284BBFF3D3
:1031E0005B8F53E8001F43E800200028F9D1BFF3AC
:1031F0005B8F97F831200433BFF35B8F53E8001FD8
:1032000043E800200028F9D1BFF35B8F00220023A0
:1032100001211C480BF066F848BB1B4BBB62002227
:10322000002307F12801194809F006FD01200021BB
:103230000AF0CAFB164B5B6A002BF7D00022002372
:1032400007F13C01124809F053FD00210D46FFF73C
:103250007FB90722C2E70622C0E70522BEE70422A3
:10326000BCE70322BAE70222B8E70022B6E710F172
:103270000B0FD4D1074BBB62D1E700BF3C3801082C
:1032800080000020180F00207C0000208C0500200A
:10329000F40500200C00002000B583B0002301934A
:1032A000214A53732148224B18600FF032F888B13D
:1032B0001F4B186883681B681B499847002810DB60
:1032C000FFF742F81A4B186883681B69194A1A49B4
:1032D000984715E04FF0FF304FF0FF310AF074FBD4
:1032E000E6E74FF0FF304FF0FF310AF06DFBE7E704
:1032F000124B01930022002301A9114809F09CFC04
:10330000FEF75EFE0028F3D0002804DB0120002138
:103310000AF05AFBF4E70B4B01930022002301A9AA
:10332000074809F089FCEBE72C0000205435010820
:10333000B00F0020493300089533000860000020DA
:103340008C0500205400002038B54FF01002EFF338
:10335000118382F31288BFF36F8F0A4C23600A4DEA
:10336000286883681B69002211469847286883688B
:103370001B69064A06499847236883F31188BFF3FF
:103380006F8F38BD980F0020B00F00204933000820
:10339000953300082DE9F041A0B002AF0E46154666
:1033A000FB80FA854FF01003EFF3118283F312884C
:1033B000BFF36F8F834B1A600B780D2B05D0022D56
:1033C00040F0AD80002213468AE0E8460123BB812D
:1033D0000223FB817C4BBB6000235BB907F17802C1
:1033E00002EB830252F8701C07F1400242F82310EE
:1033F0000133F2E70223FB81744BBB6000235BB90E
:1034000007F1780202EB830252F8701C07F14402C4
:1034100042F823100133F2E70024BC6003233B721F
:10342000BB68FB632146042363F388110C2363F319
:103430005221234607F13C0265480DF031F9C5469B
:10344000E8460123BB810223FB81624BBB605CB970
:1034500007F1780303EB840252F8701C07F158025D
:1034600042F824100134F2E70223FB81574BBB6082
:1034700000235BB907F1780202EB830252F8701C5B
:1034800007F15C0242F823100133F2E70023BB602E
:1034900003223A72BA687A651946042262F38811E7
:1034A0000C2262F3522107F1540249480DF0F8F85A
:1034B000C546494C20460FF064FA4FF47A7000215B
:1034C0000AF082FA47F288720023CDE9002341F620
:1034D000E252002320460AF0B5FC70E70133DBB26C
:1034E0009D4205D9F15C0029F8D10132D2B2F5E74D
:1034F000954214D00024002522462B4631463748F9
:1035000009F09AFB22462B46B91D354809F094FB79
:103510002C4B1B6883F31188BFF36F8F4DE06C4613
:103520000123BB810223FB812E4BBB6000230AE0F9
:1035300007F1780202EB830252F8701C07F1700267
:1035400042F823100133002BF2D00223FB811F4BE2
:10355000BB6000230AE007F1780202EB830252F815
:10356000701C07F1740242F823100133002BF2D0D3
:103570000023BB6003223A72BA68FA661946042235
:1035800062F388110C2262F3522107F16C02104899
:103590000DF086F8A546144B0122BFF35B8F53E86C
:1035A000001F43E800200028F9D1BFF35B8F054BD3
:1035B0001B6883F31188BFF36F8F7837BD46BDE872
:1035C000F08100BF940F0020003C0108C03D0108BD
:1035D00044380108D03D010828070020F4050020E8
:1035E000C0050020E83D0108B40F00202DE9F0419E
:1035F00082B000240194534BBFF35B8F53E8002F3C
:1036000043E800410029F9D1BFF35B8FA04625466E
:103610004D4B1B6818681F79066983685B686946AB
:103620009847034618B93168009A4A4000922BB96E
:103630000122BA4000990A4200D00123002B56D043
:103640004FF47A7000210AF0BFF93E4BBFF35B8F55
:1036500053E8002F013243E800210029F8D1BFF3DD
:103660005B8FBFF35B8F1B68BFF35B8F022B17DD94
:10367000BFF35B8F334B1B68BFF35B8F0A2B0FDCF1
:10368000002CC5D1314B01930022002301A9304801
:1036900009F0D2FA01212F480AF0D0FE0124B7E741
:1036A000BFF35B8F274B1B68BFF35B8F0B2B0ADCD1
:1036B000BFF35B8F234B1B68BFF35B8F152BA7DD1D
:1036C0004FF00108A4E7BFF35B8F1E4B1B68BFF3ED
:1036D0005B8F142BECDC002D9AD11F4B0193002241
:1036E000002301A91A4809F0A7FA012590E744B977
:1036F00004B11DB115B1B8F1000F0AD002B0BDE898
:10370000F081164809F092FD002115480AF096FE56
:10371000EEE7144B1B680C4A1268126811681868AF
:10372000FDF78FFB0028E9D1074B1B681A790D4B79
:103730001B799A42E2D1002200230B490B4809F081
:103740007BFADBE79C0F0020A40F00207C00002008
:103750008C0500206C0F00203C000020D40F0020BE
:103760006C00002004000020FC3D01085C060020E5
:103770002DE9F04784B003E0322000210AF024F95B
:103780000A2200230121B9480AF0ACFD0028F3D138
:10379000B64B1B69DB68012B48D0022B00F0AA80D6
:1037A000002B00F06B81B24B1D68AB685B6802AA0E
:1037B00002212846984770BB029C039EB20042EA51
:1037C0009472A3001B1946EB0202D20042EA537224
:1037D000DB001B1B62EB0602120142EA13721B01A3
:1037E0001B1946EB0206B60146EA93669C01A14A04
:1037F000002320463146FDF7A1F902464FF0FF3382
:10380000A3429D4BB34106D3AB681C6800230093D1
:1038100002212846A047954B1A6900219160DA6879
:1038200061F35232DA6004B0BDE8F087904BD3F810
:103830000080D8F808305B6802AA02214046984709
:103840000028E8D1029E039FBC0044EA9674B300AE
:103850009B1947EB0404E40044EA5374DB009B1B10
:1038600064EB0704240144EA13741B019B1947EB22
:103870000404A40144EA93649D017E4A002328467F
:103880002146FDF75BF981464FF0FF33AB427A4B9F
:10389000A341C0D3BA0042EA9672B3009B1947EB2A
:1038A0000202D20042EA5372DB009B1B62EB07026A
:1038B000120142EA13721B019E1947EB02077F01B6
:1038C00047EAD66776016B4A002330463946FDF752
:1038D00035F903464FF0FF32B242674ABA419AD3F4
:1038E000D8F808201468002200924A460221404677
:1038F000A04790E7002506E04FF4487000210AF049
:1039000063F80135EDB2012D85D8594B1E68B368B7
:103910005B6802AA022130469847002864D1DDF88E
:103920000890DDF80C804FEA880444EA99744FEA65
:10393000890313EB090348EB0404E40044EA5374DD
:10394000DB00B3EB090364EB0804240144EA1374BD
:103950001B0113EB090348EB0404A40144EA93643C
:103960004FEA831A434A002350462146FDF7E6F802
:1039700007464FF0FF3353453F4BA34134D34FEA43
:10398000880242EA99724FEA890313EB090348EB74
:103990000202D20042EA5372DB00B3EB090362EB8E
:1039A0000802120142EA13721B0113EB090348EBF0
:1039B00002084FEA481848EAD3685C012D4A002300
:1039C00020464146FDF7BAF803464FF0FF32A242C7
:1039D000294A72EB080207D3B268146800220092E9
:1039E0003A4602213046A0474FF44870002109F0C2
:1039F000EBFF1F4B1E68B3685B6802AA02213046CA
:103A0000984700287FF478AF029C039FBA0042EAEF
:103A10009472A3001B1947EB0202D20042EA5372D0
:103A2000DB001B1B62EB0702120142EA13721B014F
:103A30001B1947EB0207BF0147EA93679C010D4A38
:103A4000002320463946FDF779F802464FF0FF3350
:103A5000A342094BBB41FFF44FAFB3681C6800237E
:103A6000009302213046A04746E700BF180000201F
:103A7000A00F002040420F003F420F00344BD3F80C
:103A80000080D8F808305B6802AA022140469847B7
:103A9000002856D1029E039FBC0044EA9674B300EE
:103AA0009B1947EB0404E40044EA5374DB009B1BBE
:103AB00064EB0704240144EA13741B019B1947EBD0
:103AC0000404A40144EA93649D01224A0023284689
:103AD0002146FDF733F881464FF0FF33AB421E4BD2
:103AE000A3412ED3BA0042EA9672B3009B1947EB6A
:103AF0000202D20042EA5372DB009B1B62EB070218
:103B0000120142EA13721B019E1947EB02077F0163
:103B100047EAD66776010F4A002330463946FDF75B
:103B20000DF803464FF0FF32B2420B4ABA4108D3B8
:103B3000D8F808201468002200924A460221404624
:103B4000A0474FF4C870002109F03EFF2BE600BFEC
:103B5000A00F002040420F003F420F002DE9F04F20
:103B600089B0029210F0030A40F0158207468B4696
:103B7000041DE0B127B1E21B04325A4500F20E8267
:103B80005D1ECDF800A0CDF80CA0CDF804A0002655
:103B90004FF00408C14607B12360C64A9342C0F003
:103BA0005A81C54A9342C0F07F81002254E101F05E
:103BB000070B5C44CBF1080BDCE7252B05D1012674
:103BC0004FF00408C14600E00026654605F1010CEF
:103BD0006B78002B00F08481002EEED0A3F1200141
:103BE0005A29F1D801A252F821F000BFCB3B0008BE
:103BF000C93B0008C93B0008CB3B0008C93B000893
:103C0000C93B0008C93B0008C93B0008C93B000884
:103C1000C93B0008793D0008CB3B0008C93B0008C0
:103C2000CB3B0008CB3B0008C93B0008CB3B00085E
:103C3000CB3B0008CB3B0008CB3B0008CB3B00084C
:103C4000CB3B0008CB3B0008CB3B0008CB3B00083C
:103C5000CB3B0008C93B0008C93B0008C93B000832
:103C6000C93B0008C93B0008C93B0008C93B000824
:103C7000E13D0008C93B0008C93B0008C93B0008FA
:103C8000E13D0008E13D0008E13D0008C93B0008B6
:103C9000C93B0008C93B0008C93B0008CB3B0008F2
:103CA000C93B0008C93B0008C93B0008C93B0008E4
:103CB000C93B0008C93B0008C93B0008C93B0008D4
:103CC000C93B0008C93B0008C93B0008713D00081A
:103CD000C93B0008C93B0008C93B0008C93B0008B4
:103CE000C93B0008C93B0008C93B0008C93B0008A4
:103CF000E13D0008C93B0008713D0008713D000826
:103D0000E13D0008E13D0008E13D0008CB3B000833
:103D1000713D0008593D0008C93B0008CB3B000835
:103D2000C93B0008413E0008713D0008413E0008C3
:103D3000C93B0008C93B0008413E0008693D000836
:103D4000713D0008C93B0008C93B0008713D0008EF
:103D5000C93B0008613D00084FF00808C14634E740
:103D60004FF00408C14630E74FF00408C1462CE785
:103D70002A786C2A26D0002604EB0802013AC8F102
:103D800000010A40144627B1D11B49448B45C0F0BD
:103D90000881732B59D0B9F1040F00F09980B9F163
:103DA000080F40F00781129B073323F0070303F14C
:103DB00008011291D3E900010FB1C2E9000102F13B
:103DC000080402E71CF8022C6C2A04D000264FF0ED
:103DD0000408C146D0E700264FF00808C146CBE7EB
:103DE0002B784C2B1CD0129B073323F0070303F1D5
:103DF00008021292D3E90001E21D22F0070247B146
:103E0000D31B08335B4515D82B784C2B15D0C2E952
:103E1000000102F1080400264FF00808C146D4E66C
:103E2000129B073323F0070303F108021292D3E930
:103E30000001E1E76FF01B00AAE0C2E90001E8E73A
:103E400000264FF00408C14696E7129B1A1D1292F5
:103E50001B6865469FE60022029901F001011046A9
:103E600002B1F9B1A4EB070C4FEA9C0219B1BCF501
:103E7000007F80F0998001990F2900F29880EFB1BE
:103E8000D2B208AB0B4403F8102C78B162F07F0279
:103E900008AB0B4403F8102C009B01330093019BEB
:103EA00001330193043491E60122D5E7039B0133EA
:103EB0000393F4E73C330108045B010810B10BF1F4
:103EC000010BECE71846FCF7C6FF831C9B44E6E7B2
:103ED000129B191D12911B6807B11360141D74E623
:103EE000E31BB3F5806F68D25FB100223A609B0894
:103EF0003B70039B7B70009BBB70D3B9DDF80490D3
:103F000039E05B44A3F1080042E00133984213D941
:103F100008AA1A4412F8101C12F9102C002AF4DA1C
:103F200001F07F01E21B0132934549D304F8011BE4
:103F3000EBE753460198E9E7DDF804901BE008AB96
:103F4000534413F8106C57F82680002347F82630A6
:103F50004046FCF780FF451CE31B2B4401339B4587
:103F600031D304F8016B2A46414620460EF0AAFEE2
:103F70002C440AF1010AD14509D9009B002BDED05F
:103F800008AB534413F9103C002BD8DAF1E7E01BDF
:103F900009B0BDE8F08F6FF00D00F9E76FF01B007E
:103FA000F6E76FF01B00F3E76FF01500F0E76FF036
:103FB0001500EDE76FF01500EAE76FF01500E7E791
:103FC0006FF01B00E4E76FF01B00E1E708B50B683A
:103FD00001330B60014B1B68984708BD8800002027
:103FE000014B1860704700BF8800002000B583B007
:103FF00002460B460021019101A9034800F02CFA6A
:1040000003B05DF804FB00BFCD3F000810B584B0DD
:104010000446019002910021039101A9054800F096
:104020001BFA039B029A934201DA0022E25403989E
:1040300004B010BDEBFE000884460268002005E0D5
:1040400000EB8000013203EB400030381378044964
:10405000595C11F0040FF3D1CCF80020704700BF79
:10406000C958010870B582B004460023036043605C
:1040700083604B78252B02D04E1C01251FE0881C45
:10408000E37045E1237843F004032370B5B10136B2
:1040900014E0237843F008032370F7E7237843F014
:1040A00010032370F2E7237843F020032370EDE739
:1040B000237843F040032370E8E7002545B33378C5
:1040C000203B102BF9D801A252F823F09D400008A4
:1040D000BB400008BB400008A7400008BB400008E8
:1040E000BB400008BB400008BB400008BB400008C4
:1040F000BB400008BB40000893400008BB400008DC
:1041000085400008BB400008BB400008B1400008E3
:10411000237803F04403442B5FD00196237843F0C7
:104120008003237033782A2B5CD001A8FFF784FF2B
:10413000019B9E420FD0237843F080032370606080
:10414000DBB2C3F34003002854DB00221343227880
:1041500063F341022270019B01931B782E2B14BF45
:1041600000230123627863F341026270002B43D085
:10417000019B5A1C01925B782A2B3FD001A8FFF7C4
:104180005BFFA0602378C3F3400300283EDB0022DE
:104190001343227863F341022270019803784C3B69
:1041A0002E2B00F29D80DFE803F0909B9B9B9B9B56
:1041B0009B9B9B9B9B9B9B9B9B9B9B9B9B9B9B9B4F
:1041C0009B9B9B9B9B9B339B579B459B9B9B9B9B41
:1041D0009B9B899B9B9B9B9B820023786FF3861301
:1041E00023709AE7637843F0010363703346013329
:1041F0000193B1E70122A9E70198CFE7637843F083
:1042000004036370104601300190C7E70122BFE745
:10421000421C4378682B06D06378022161F3C60301
:10422000637010461EE06378012262F3C603637078
:10423000023017E0421C43786C2B06D063780321D0
:1042400061F3C603637010460CE06378042262F3E6
:10425000C6036370023005E06378052262F3C6038B
:104260006370013010F8013BE370A3F14102372A7B
:104270007DD8DFE802F05E7C7C7C5E5E5E7C7C7CD0
:104280007C7C7C7C7C7C7C7C7C7C7C7C7C4F7C7C9B
:104290007C7C7C7C7C7C5E7C4F3A5E5E5E7C3A7C87
:1042A0007C7C7C654F717C7C717C4F7C7C4F63781F
:1042B000062262F3C60363700130D3E763780722F6
:1042C00062F3C60363700130CCE76378082262F3BF
:1042D000C60363700130237843F002032370C1E703
:1042E00063786FF3C6036370BCE7A278012161F3C2
:1042F0000202A270627802F07802402A10D0632B8A
:1043000013D02378C3F34002154365F341032370B0
:1043100002B070BDA278022161F30202A270E9E747
:10432000217841F001012170E9E7151E18BF012530
:10433000E7E7A378042262F30203A3700125E0E714
:10434000A378032262F30203A370637803F0780377
:10435000402BD6D10125D4E7A378032262F30203D0
:10436000A370637813F0780FCBD00125C9E72378C9
:1043700043F001032370C4E72DE9F04F83B00446F6
:104380000D4601929A460C9ED378324A13F802B039
:104390000BF0030B6F2B0FD006D9702B0FD0782B9F
:1043A00010D14FF0100923E0582B02D04FF00A092A
:1043B0001EE04FF010091BE04FF0080918E04FF025
:1043C000100915E04FF00A0912E0D2B23032D2B231
:1043D00006F8012D3A46434620462946FCF7AEFB37
:1043E000BC4275F1000319D3564517D904460D4652
:1043F0004FF000084F464A46434620462946FCF700
:104400009DFB092AE1D9BBF1010F03D0D2B257328B
:10441000D2B2DDE7D2B23732D2B2D9E7019B1B78F4
:1044200013F0200F05D0B9F1080F06D0B9F1100F25
:1044300009D0304603B0BDE8F08F019A937843F07D
:1044400008039370F5E7019A937843F01003937093
:10445000EFE700BFC95801082DE9F04F91B00646BB
:104460000D4691460393002499F80000002800F0BF
:10447000D582252808D009F101092946B04700282E
:10448000C0F2CD820134EFE7002304930593069335
:10449000079308930993494606A8FFF7E3FD0290A6
:1044A0009DF8193013F0010F00F09780039B1A1D3F
:1044B00003921F68002FC0F288809DF8193013F016
:1044C000040F00F09C80039B1A1D0392D3F800A0F8
:1044D000BAF1000FC0F28A800023079308939DF879
:1044E0001A3003F007039DF81910C1F3C301012B23
:1044F00000F08E80022B00F0D380042B00F024818A
:10450000032B00F03B819DF8188018F0030B40F05E
:104510003B819DF81B30253B532B00F2E681DFE801
:1045200013F04001E401E401E401E401E401E401E9
:10453000E401E401E401E401E401E401E401E40153
:10454000E401E401E401E401E401E401E401E40143
:10455000E401E401E401E401E401E401E401E40133
:10456000E401E401E401E401E401E401E401E40123
:10457000E401E401E401E401E401E401E401E40113
:10458000E401E401E401E4018101E401E401E40166
:10459000E401E401E401E401E401E401E4015E0179
:1045A0006701E401E401E401E4016701E401E401DD
:1045B000E401E401BE018101A201E401E4014D0135
:1045C000E4018101E401E40181019DF8183043F028
:1045D00004038DF818307F426FE79DF91830002BE7
:1045E00002DB4FF0FF3768E7079F66E79DF8193059
:1045F0006FF341038DF819304FF0FF3A6CE713F079
:10460000020F02D0DDF820A066E74FF0FF3A63E723
:10461000CB1E042B04D8DFE803F00B1D2935350031
:10462000039B1A1D03921B68DA170493059206E098
:10463000039B1A1D03921B68DA1704930592012944
:1046400028D002297FF45FAFBDF91030DA17049348
:10465000059258E7039B073323F0070303F1080291
:104660000392D3E90023CDE90423E8E7039B073352
:1046700023F0070303F108020392D3E90023CDE9F5
:104680000423DCE7039B1A1D03921B68DA170493CB
:104690000592D4E79DF8103004930023059332E788
:1046A000CB1E042B04D8DFE803F00B1F354141007B
:1046B000039B1A1D03921B680493002305931EE0BD
:1046C0009DF81B30632B07D0039B1A1D03921B68B8
:1046D00004930023059312E0039B1A1D03921B68A9
:1046E0000493002305930AE0039B073323F0070399
:1046F00003F108020392D3E90023CDE90423012941
:104700001CD002297FF4FFAEBDF8103004930023C3
:104710000593F8E6039B073323F0070303F1080230
:104720000392D3E90023CDE90423E8E7039B1A1D94
:1047300003921B68049300230593E0E79DF8103073
:10474000049300230593DEE608290BD0039B07336F
:1047500023F0070303F108020392D3E90023CDE914
:104760000423D0E6039B073323F0070303F1080279
:104770000392D3E90023CDE90423C4E6039B1A1D69
:1047800003921B680493BEE6029F3B464A462946B5
:1047900030460BF05EFC0028C0F241810444B9466B
:1047A00062E629462520B0470028C0F2388101344E
:1047B000D8460DF13E0A4FF000099BE0DDF810905D
:1047C000BAF1000F07DB514648460EF0EDFB09EB4E
:1047D000000AD8468EE04846FCF73DFBF7E7049B0D
:1047E0008DF82830D8460DF1290A0DF1280981E00D
:1047F00018F0080F05D118F0100804D04FF0200869
:1048000001E04FF02B08049A059B002B02DB049279
:10481000059308E0524263EB4303049205934FF083
:104820002D0800E0D8460DF13E0300930AAB06AA1E
:10483000DDE90401FFF7A0FD8146BAF1000FC0F2E7
:1048400088800DF13E03A3EB09039DF818206FF358
:1048500086128DF818209A457ED9AAEB0303079398
:104860000DF13E0A46E0049828B9D846DFF8B4A115
:10487000AAF105093EE00DF13E0300930AAB06AA3A
:104880000021FFF779FD81469DF81A3043F01003AF
:104890008DF81A3078238DF81B30D846CDE7049A6E
:1048A0009DF81930C3F3C303072B06D8DFE803F0E4
:1048B000040B0D0F1115191B1460D8460DF13E0A9B
:1048C0004FF0000916E01470F7E71480F5E7146064
:1048D000F3E7E31714605360EFE7E31714605360E6
:1048E000EBE71460E9E71460E7E7D8460DF13E0A0C
:1048F0004FF00009B9F1000F00F08D80AAEB09021A
:10490000B8F1000F00D001329DF81A1011F0100F0D
:1049100025D00232079B134411F0400F01D0089AB2
:104920001344002F31DDFF1A9DF8183013F0040FE7
:104930002BD113F0400F17D0B8F1000F17D0294634
:104940004046B04700286ADB0134D8464FF0300BB0
:104950000FE00DF13E0ACDE70DF13E0ACAE711F076
:10496000080FD7D00132D5E74FF0200B01E04FF010
:10497000300B3B465F1E002B07DD29465846B047EB
:1049800000284CDB01343B46F4E7B8F1000F05D0BA
:1049900029464046B047002841DB01349DF81A30D3
:1049A000C3F30012C3F3C003134305D029463020DC
:1049B000B047002833DB01349DF81A3013F0100F94
:1049C00006D029469DF81B00B047002827DB01349C
:1049D000079B03F1FF38002B07DD29463020B04745
:1049E00000281CDB01344346F3E753464A46294678
:1049F00030460BF02EFB002811DB0444002F07DDAE
:104A000029462020B047002809DB0134013FF5E7A3
:104A1000DDF8089028E5DDF8089025E5204611B07E
:104A2000BDE8F08F3D3E01084FF01002EFF3118317
:104A300082F31288BFF36F8F83F31188BFF36F8FF8
:104A4000024B034A1A600020704700BF0402002096
:104A500000093D0008B5064B186018B1054B1B68EE
:104A6000092B00DC08BD044808F06EFAFAE700BF25
:104A700030100020E40F00209006002008B5024806
:104A800008F062FA08BD00BF9006002030B589B07A
:104A900000220F490F480DF068FF0F4D0022002340
:104AA000CDE90623002404940E2303930294019479
:104AB00000940A4B4FF44072094928460DF08CFCD3
:104AC000084928460DF074FC204609B030BD00BFEF
:104AD0007D4A0008600C0020980C0020814E0008E0
:104AE000E0220020443E0108184BBFF35B8F53E8DF
:104AF000002F511C43E800100028F8D1BFF35B8F52
:104B00001ABB70B5002409E0114B03EB06135B6878
:104B100004221968284600F0D9F901340D4B0C4ADB
:104B20009B1AB4EB231F0FDA2646094D05EB04153B
:104B30002B7B002BF1D02301054AD3589B69002B16
:104B4000E2D028469847DFE770BD7047EC0F0020A1
:104B5000C4380108D438010838B108B5044A1060D7
:104B6000084600F0A3FB002008BD6FF01500704759
:104B70008C00002008B5054B1B781BB1034B0122AC
:104B80001A7008BD024808F0DFF9F7E77216002036
:104B9000900600200D4BBFF35B8F53E8002F0132CE
:104BA00043E800210029F8D1BFF35B8F00B97047BB
:104BB000074BBFF35B8F53E8002F013A43E8002116
:104BC0000029F8D1BFF35B8FF1E700BFE80F0020A9
:104BD000E40F0020064B00200246BFF35B8F53E832
:104BE000000F43E800210029F9D1BFF35B8F704724
:104BF000E80F002038B5FFF7EDFF0546002400E080
:104C000001340B4B0B4A9B1AB4EB231F0FDA0948F4
:104C100000EB041043685B79002BF1D02301054AB7
:104C2000D3581B69002BEBD029469847E8E738BDDD
:104C3000D4380108C4380108034B18680028D4BFD1
:104C400000200120704700BFE80F002008B502498E
:104C500002480BF0CAFA08BD503E0108F00F0020D0
:104C600008B50023054A1370054A13604FF47A71A2
:104C70000448FFF771FFFFF7E9FF08BD7316002036
:104C8000E80F00205305010808B501460022002363
:104C900001480BF0CFFA08BDF00F002008B502481C
:104CA0000BF085FB08BD00BFF00F002008B50146E2
:104CB00001480BF0EDFB08BDF00F0020F8B50646EB
:104CC000E9B9002400E001340F4B104A9B1AB4EB01
:104CD000231F14DA0D4D05EB04156B685B79002B6F
:104CE000F1D0314628460BF032FC0028EBD02701EA
:104CF000064BDB591B68314628469847E3E73046A8
:104D0000FFF7D4FFF8BD00BFD4380108C43801084C
:104D100008B502480BF0F9FB08BD00BFF00F0020FA
:104D200010B50446114B1B7803B9D0B10BF01EFC33
:104D3000034680B15CB90E4ABFF35B8F52E8001F97
:104D4000013942E800100028F8D1BFF35B8F2146FB
:104D50001846FFF7B3FF14B9FFF76EFF10B90BF059
:104D600009FC10BDFFF746FFF9E700BF72160020EF
:104D7000E40F002010B582B01D4BBFF35B8F53E8EA
:104D8000002F511C43E800100028F8D1BFF35B8FBF
:104D9000184B1B783BB9184B1B6803B19AB10A2A10
:104DA0001CD002B010BD4FF01003EFF3118483F359
:104DB0001288BFF36F8F0020FFF7B2FF84F31188D2
:104DC000BFF36F8FEDE700220023CDE9002342F20D
:104DD00010720023094809F035F8E2E7002BE0D013
:104DE00006480DF0CEFD064808F0AEF8D9E700BF42
:104DF000E40F00207316002030100020600C00200B
:104E00009006002010B50446054B1B689847A0602B
:104E1000214604480BF0A5FAFFF7ACFF10BD00BF18
:104E20008C000020F00F0020124B1B7803B170475C
:104E300010B5FFF759FE002400E001340E4B0F4A75
:104E40009B1AB4EB231F0CDA0C4800EB04104368E8
:104E50005B79002BF1D02301084AD3585B6998474E
:104E6000EBE70020FFF75CFF0028FAD1014B01229D
:104E70001A7010BD73160020D4380108C438010818
:104E800008B5FFF731FE08F0B7FDFFF7E3FD00209E
:104E9000FFF746FF0028FAD14FF0FF324FF0FF3303
:104EA000014808F079F8F2E790060020054B064A21
:104EB0009B1AB1EBD30F02D252F831007047002099
:104EC000704700BFC43801083C38010808B5074BDB
:104ED000C31A1B1101334268137143681960436898
:104EE00001225A71FFF746FE08BD00BFC438010811
:104EF0000EB400B582B0014603AB53F8042B019306
:104F00000348FFF7A9FA02B05DF804EB03B070475D
:104F10001B06010830B585B011F0440F05D01A4BBF
:104F20001C6834B9002005B030BD1849FFF7E0FF18
:104F3000F9E7174B1968B2FBF1F1B1FBF4FC154A24
:104F4000A2FB0C32D20A4FF4616E0EFB12CE124B52
:104F5000A3FB0E535B0904FB1C114FF47A7C0CFB82
:104F600001F1B1FBF4F505FB14110CFB01F1B1FBF0
:104F7000F4F102910195C3EB0311AEEB81010091B5
:104F80000649FFF7B5FFCEE734100020643E010864
:104F900038100020C5B3A29189888888703E010826
:104FA00061B108B52AB1064A52F8232012B9054A60
:104FB00000E0044A0449FFF79BFF08BD704700BFAB
:104FC000E83E01088C3E0108943E010811F0100FE4
:104FD0000BD108B511F0200F03D00449FFF788FF6B
:104FE00008BD0349FFF784FFFAE77047F043010863
:104FF000983E01082DE9F04105460F4616469846B1
:105000000699FFF7E3FF0024444505DA24492846C2
:10501000FFF76EFF0134F7E7002409E02049284636
:10502000FFF766FF0BE01F492846FFF761FF0134D9
:105030000F2C0CDC002C02DD14F0070FEED0B44274
:10504000F1D23A5D18492846FFF752FFEFE71749BA
:105050002846FFF74DFF002409E011492846FFF7D5
:1050600047FF0BE012492846FFF742FF01340F2C9F
:1050700013DC002C02DD14F0070FEED0B44207D28F
:105080003A5D0C4BD35C13F0970FEBD12E22E9E77E
:1050900003492846FFF72CFFE8E7BDE8F08100BF91
:1050A000C03E0108A43E01089C3E0108A83E01083C
:1050B000AC3E0108C95801082DE9F041804616466A
:1050C0001D46BDF9187059B90024002F1CDB86B1AC
:1050D0000123079A934013F0100F18D10D4E09E0E9
:1050E0000D4B079A53F822200C49FFF701FF0446A5
:1050F000EBE7084E39462846FFF7D8FE0246314610
:105100004046FFF7F5FE04442046BDE8F081044E1A
:10511000F0E700BFB03E0108243F0108BC3E010893
:10512000B83E01082DE9F04F85B005460C461646FD
:1051300003939DF8388001F0020B01F0010AC1F3DE
:10514000C0090BF01BFAE8B1024613492846FFF7E5
:10515000CFFE0746BBF1000F16D142465146284606
:105160000BF01BFACDF80480BDF9403000939DF898
:105170003C30324649462846FFF79EFF384405B08A
:10518000BDE8F08F0027E5E7039A21462846FFF7A0
:10519000C1FE0744E1E700BFC43E01082DE9F0432A
:1051A00085B006460C4617468B680A88C2F38218FB
:1051B00012F4E07F35D04A680978C1F3C2016AB3BE
:1051C0002048121A42F3CF0202920191CDF80080DA
:1051D000002239463046FFF7A5FF8146254655F89F
:1051E0000C3BC3F3492343B1B8F1000F1CD116485F
:1051F0002B46324615490AF049FE6288C2F3CB02BB
:105200002168C1F34921294482B9B8F1000F13D1B3
:1052100030460BF0F5F905B0BDE8F0834FF0FF32F2
:10522000D2E74FF00009D9E70948E1E700974B467C
:1052300030460BF0CAF9E8E74246394630460BF0F3
:10524000B8F9E5E73C38010853060108594400085D
:105250001B06010870B582B00446056842F20F7360
:105260008B4228BF0B460E4A052168460AF063FEB2
:10527000064663685B680B220A4928460BF080F9F2
:1052800063685B683246694628460BF079F96368C3
:105290005B681B22044928460BF072F902B070BD0E
:1052A000D0460108183F0108FC3E0108074B0122C7
:1052B0001A6004E04008054A13685B001360044B61
:1052C0009842F7D8034B1860704700BF3810002091
:1052D00040420F003410002070B506460D460024F1
:1052E00006E0054B1868315D83685B6898470134B8
:1052F000AC42F6D3284670BD50100020014B024A44
:105300001A60704750100020DC34010808B5034BC8
:1053100001221A7002480BF073F908BD74160020C0
:10532000743F010808B50248FFF794FF08BD00BFAD
:10533000743F010808B50F220148FFF72FFF08BD91
:10534000743F010810B5044C02E054F8043B984740
:10535000024B9C42F9D310BD343801083C38010897
:10536000064B1B684BB110B55C1E044A52F8233043
:1053700098472346002CF7D110BD70472C38010800
:10538000014910220A60704710ED00E072B64040FB
:1053900080F31188BFF36F8FBFF34F8F30BF62B6BA
:1053A000BFF36F8F704700BF2DE9F04796B000AF95
:1053B000054601233B816C4688B06B4613F10C0215
:1053C00000F0CA801421012038811AB1042901DDBE
:1053D00067481861286812B1082900DD58616868BB
:1053E00012B10C2900DD9861A86812B1102900DD06
:1053F000D861132940F3B38014202AB100217960C9
:10540000052139717968D96000216FF300016FF3CC
:1054100041016FF382016FF3C501012666F3881124
:1054200000F47D7363F352216FF3DE416FF3DF719C
:10543000002350480BF034F9A5463E816C4688B0F5
:105440006B4613F10C0200F08D801421012038818D
:105450001AB1042901DD48481861E86812B1082929
:1054600000DD5861286912B10C2900DD9861686976
:1054700012B1102900DDD861132976DD14202AB17C
:1054800000217960052139717968D96000216FF3B5
:1054900000016FF341016FF382016FF3C501012633
:1054A00066F3881100F47D7363F352216FF3DE41DC
:1054B0006FF3DF71DFF8BC80002340460BF0F0F89B
:1054C000A5463E81EB692D4ABA63FB6300247C60EC
:1054D0004FF0030A87F804A07B687B63214664F3DE
:1054E000000164F3410164F3820164F3C50166F3D2
:1054F00088114FF00C0969F3522164F3DE4164F323
:10550000DF71234607F1340240460BF0C9F83E81B3
:10551000AB691B4A3A657B657C6087F804A07B68B1
:10552000FB64214664F3000164F3410164F38201EA
:1055300064F3C50166F3881169F3522164F3DE4117
:1055400064F3DF71234607F14C0240460BF0A8F8E4
:105550005837BD46BDE8F0876FF0004133E76FF084
:105560001B004AE76FF0004170E76FF01B0086E711
:10557000843F010884380108B43F0108E43F010872
:10558000F43F010840B2002807DB00F01F02400989
:1055900001239340014A42F82030704700E100E0C7
:1055A00040B200280CDB00F01F02400901239340A9
:1055B0002030044A42F82030BFF34F8FBFF36F8F83
:1055C000704700BF00E100E04209054B53F822207C
:1055D00000F01F00012303FA00F01040704700BFE5
:1055E00000E100E0013140B2002808DB0901C9B246
:1055F00000F1604000F5614080F80013704700F052
:105600000F000901C9B2014B1954704714ED00E0B5
:1056100030BFFFF7FDBF00BF08B50F4B0F4A22F0A8
:105620007F029A60BFF34F8FBFF36F8FD3F888204C
:1056300022F47002C3F88820EFF3148323F00403EC
:1056400083F31488BFF36F8F07F014FA08F026FA7B
:1056500000F0AEFE07F01AFA00ED00E000000008CE
:10566000094A9368986709490968D96708494B68E6
:1056700043F080534B60002383F31188BFF36F8F97
:105680009368D86F704700BF10160020C4560108F9
:1056900000ED00E012498A684FF030001044EFF34B
:1056A000098C80E8F01F102080F31288BFF36F8F01
:1056B0000C4F4FF000668A698A603E60906F00234D
:1056C000936780F3118804B5104600F0C5FEBDE86D
:1056D000044002F1300090E8F01F8CF30988704715
:1056E0001016002004ED00E01EF0040F0CBFEFF3D5
:1056F0000880EFF30980816911F8021C0229FFD0AC
:1057000001B50BF048F801BD10B4A2F120040D4919
:1057100042F8081C21F0010142F8081C42F8203C24
:10572000019B42F81C3C029B42F8183C039B42F848
:10573000143C4FF0807342F8043C046500238367F7
:1057400010BC704753FF0008114B9A68EAB110F182
:10575000160F10D0936EA3F1200C844505D8834218
:1057600005D98B4205D800210AE0002108E000217C
:1057700006E0012104E0936E8B4294BF00210121D9
:1057800009B900207047906E70470020704700BF35
:105790001016002008B50D461446084B986000F01E
:1057A0005BFE204685F30988002163B681F31188EA
:1057B000BFF36F8F002200230AF0CBFB10160020EE
:1057C00001B5EFF30580A0F110004FEAC0000449D5
:1057D000014409C99847BDE8014002490847000053
:1057E00084350108E9570008044B99689869884294
:1057F00003D003494FF080520A6070471016002012
:1058000004ED00E000B585B00F290FDC084B10391E
:1058100003910293074B019300200090034601225D
:1058200005490AF0D3FF05B05DF804FB034BEEE732
:10583000404001085840010884380108244001080C
:1058400070B5BAB005460E4614460122ADF80820E0
:10585000A84B0E930023019302218DF804100199A7
:105860000D91194663F3000163F3410163F3820173
:1058700063F3C50162F38811082262F3522163F3D6
:10588000DE4163F3DF710DAA9B480AF009FF9B4BD1
:105890009B6A13F4805F28D1984B9B6A13F4006FC6
:1058A00046D1964B9B6A13F4007F64D1934B9B6A5D
:1058B00013F4806F40F0B480904B9B6A13F4807FA8
:1058C00040F0D1808D4B9B6A13F4005F40F0EE8076
:1058D0008A4A936A43F47F439362012128460AF07F
:1058E00073FF207000203AB070BD0122ADF808208F
:1058F000834B14930023019302218DF80410019926
:105900001391194663F3000163F3410163F38201CC
:1059100063F3C50162F38811082262F3522163F335
:10592000DE4163F3DF7113AA73480AF0B9FEB3E7EF
:105930000122ADF80820734B1A9300230193022132
:105940008DF8041001991991194663F3000163F36E
:10595000410163F3820163F3C50162F388110822F8
:1059600062F3522163F3DE4163F3DF7119AA6248E7
:105970000AF096FE95E70122ADF80820624B2093CD
:105980000023019302218DF8041001991F911946FB
:1059900063F3000163F3410163F3820163F3C50123
:1059A00062F38811082262F3522163F3DE4163F34C
:1059B000DF711FAA50480AF073FE504B9A6B9B6A26
:1059C00013F4004F3FF472AF0120ADF808004F4BC5
:1059D000269327920023019303228DF80420019A35
:1059E0002592194663F3000163F3410163F38201D9
:1059F00063F3C50160F388110C2262F3522163F353
:105A0000DE4163F3DF7125AA3B480AF049FE002E10
:105A10003FF44CAF394A936A23F40043936245E75D
:105A20000122ADF808203A4B2C9300230193022168
:105A30008DF8041001992B91194663F3000163F36B
:105A4000410163F3820163F3C50162F38811082207
:105A500062F3522163F3DE4163F3DF712BAA264820
:105A60000AF01EFE28E70122ADF80820294B3893E2
:105A70000023019302218DF80410019937911946F2
:105A800063F3000163F3410163F3820163F3C50132
:105A900062F38811082262F3522163F3DE4163F35B
:105AA000DF7137AA14480AF0FBFD11E70122ADF8B7
:105AB0000820194B32930023019302218DF8041022
:105AC00001993191194663F3000163F3410163F3D6
