:020000040800F2
:10000000203A00206948000807FB00082148000842
:10001000214800082148000821480008000000008D
:100020000000000000000000000000006D3B000820
:100030002148000800000000193B0008A19C0008AE
:10004000453C0008453C0008453C0008453C00088C
:10005000453C0008453C0008453C0008453C00087C
:10006000453C0008453C0008453C0008453C00086C
:10007000453C0008453C0008453C0008453C00085C
:10008000453C0008453C0008453C0008453C00084C
:10009000453C0008453C0008453C0008453C00083C
:1000A000453C0008453C0008453C0008453C00082C
:1000B000453C0008453C0008453C0008453C00081C
:1000C000453C0008453C0008453C0008453C00080C
:1000D000453C0008453C0008453C0008453C0008FC
:1000E000453C0008453C0008453C0008453C0008EC
:1000F000453C0008453C0008453C0008453C0008DC
:10010000453C0008453C0008453C0008453C0008CB
:10011000453C0008453C0008453C0008453C0008BB
:10012000453C0008453C0008453C0008453C0008AB
:10013000453C0008453C0008453C0008453C00089B
:10014000453C0008453C0008453C0008453C00088B
:10015000453C0008453C0008453C0008453C00087B
:10016000453C0008453C0008453C0008453C00086B
:10017000453C0008453C0008453C0008453C00085B
:10018000453C0008453C0008453C0008453C00084B
:04019000453C0008E2
:0C019400FFFFFFFFFFFFFFFFFFFFFFFF6B
:1001A00001F0FF01102A2BDB10F0070F08D010F828
:1001B000013B013A8B422DD010F0070F42B3F6D12C
:1001C000F0B441EA012141EA014122F007047FF045
:1001D00000070023F0E80256083C85EA010586EA9C
:1001E000010685FA47F5A3FA87F586FA47F6A5FAD8
:1001F00087F68EB9EED1F0BC01F0FF0102F00702E4
:1002000032B110F8013B013A83EA010313B1F8D18E
:100210000020704701387047002D06BF354603386F
:10022000073815F0010F07D1013015F4807F02BFA8
:10023000013015F4C03F0130F0BC0138704700BFF9
:1002400081F0004102E000BF83F0004330B54FEA87
:1002500041044FEA430594EA050F08BF90EA020FF4
:100260001FBF54EA000C55EA020C7FEA645C7FEA87
:10027000655C00F0E2804FEA5454D4EB5555B8BFAA
:100280006D420CDD2C4480EA020281EA030382EA1B
:10029000000083EA010180EA020281EA0303362DAD
:1002A00088BF30BD11F0004F4FEA01314FF4801C80
:1002B0004CEA113102D0404261EB410113F0004F92
:1002C0004FEA03334CEA133302D0524263EB430349
:1002D00094EA050F00F0A780A4F10104D5F1200EE7
:1002E0000DDB02FA0EFC22FA05F2801841F1000142
:1002F00003FA0EF2801843FA05F359410EE0A5F116
:1003000020050EF1200E012A03FA0EFC28BF4CF046
:10031000020C43FA05F3C01851EBE37101F00045FC
:1003200007D54FF0000EDCF1000C7EEB00006EEB09
:100330000101B1F5801F1BD3B1F5001F0CD3490893
:100340005FEA30004FEA3C0C04F101044FEA4452EA
:1003500012F5800F80F09A80BCF1004F08BF5FEA71
:10036000500C50F1000041EB045141EA050130BD51
:100370005FEA4C0C404141EB0101013C28BFB1F563
:10038000801FE9D291F0000F04BF01460020B1FAAE
:1003900081F308BF2033A3F10B03B3F120020CDA81
:1003A0000C3208DD02F1140CC2F10C0201FA0CF05F
:1003B00021FA02F10CE002F11402D8BFC2F1200CC4
:1003C00001FA02F120FA0CFCDCBF41EA0C0190407A
:1003D000E41AA2BF01EB0451294330BD6FEA0404C3
:1003E0001F3C1CDA0C340EDC04F11404C4F12002AE
:1003F00020FA04F001FA02F340EA030021FA04F3C0
:1004000045EA030130BDC4F10C04C4F1200220FA16
:1004100002F001FA04F340EA0300294630BD21FA54
:1004200004F0294630BD94F0000F83F4801306BF1A
:1004300081F480110134013D4EE77FEA645C18BF0E
:100440007FEA655C29D094EA050F08BF90EA020FA5
:1004500005D054EA000C04BF1946104630BD91EA9D
:10046000030F1EBF0021002030BD5FEA545C05D1A0
:100470004000494128BF41F0004130BD14F58004DF
:100480003CBF01F5801130BD01F0004545F0FE4153
:1004900041F470014FF0000030BD7FEA645C1ABF88
:1004A000194610467FEA655C1CBF0B46024650EABF
:1004B000013406BF52EA033591EA030F41F40021EB
:1004C00030BD00BF90F0000F04BF0021704730B571
:1004D0004FF4806404F132044FF000054FF0000146
:1004E00050E700BF90F0000F04BF0021704730B507
:1004F0004FF4806404F1320410F0004548BF4042DC
:100500004FF000013EE700BF42004FEAE2014FEA30
:1005100031014FEA02701FBF12F07F4393F07F4F0B
:1005200081F06051704732F07F4208BF704793F00E
:100530007F4F04BF41F40021704730B54FF4607421
:1005400001F0004521F000411CE700BF50EA010224
:1005500008BF704730B54FF000050AE050EA0102CD
:1005600008BF704730B511F0004502D5404261EB3D
:1005700041014FF4806404F132045FEA915C3FF47E
:10058000D8AE4FF003025FEADC0C18BF03325FEA1B
:10059000DC0C18BF033202EBDC02C2F1200300FACC
:1005A00003FC20FA02F001FA03FE40EA0E0021FAF1
:1005B00002F11444BDE600BF70B54FF0FF0C4CF4DF
:1005C000E06C1CEA11541DBF1CEA135594EA0C0F91
:1005D00095EA0C0F00F0DEF82C4481EA030621EACC
:1005E0004C5123EA4C5350EA013518BF52EA033507
:1005F00041F4801143F4801338D0A0FB02CE4FF0B9
:100600000005E1FB02E506F00042E0FB03E54FF0E8
:100610000006E1FB03569CF0000F18BF4EF0010EE0
:10062000A4F1FF04B6F5007F64F5407404D25FEADC
:100630004E0E6D4146EB060642EAC62141EA55518F
:100640004FEAC52040EA5E504FEACE2EB4F1FD0CD1
:1006500088BFBCF5E06F1ED8BEF1004F08BF5FEA4F
:10066000500E50F1000041EB045170BD06F0004601
:1006700046EA010140EA020081EA0301B4EB5C04AE
:10068000C2BFD4EB0C0541EA045170BD41F48011A6
:100690004FF0000E013C00F3AB8014F1360FDEBFCB
:1006A000002001F0004170BDC4F10004203C35DAA7
:1006B0000C341BDC04F11404C4F1200500FA05F32A
:1006C00020FA04F001FA05F240EA020001F00042CB
:1006D00021F0004110EBD37021FA04F642EB060141
:1006E0005EEA430E08BF20EAD37070BDC4F10C046B
:1006F000C4F1200500FA04F320FA05F001FA04F22F
:1007000040EA020001F0004110EBD37041F100011A
:100710005EEA430E08BF20EAD37070BDC4F1200525
:1007200000FA05F24EEA020E20FA04F301FA05F28D
:1007300043EA020321FA04F001F0004121FA04F235
:1007400020EA020000EBD3705EEA430E08BF20EA05
:10075000D37070BD94F0000F0FD101F0004640003F
:1007600041EB010111F4801F08BF013CF7D041EAC1
:10077000060195F0000F18BF704703F000465200C5
:1007800043EB030313F4801F08BF013DF7D043EA96
:100790000603704794EA0C0F0CEA135518BF95EA4C
:1007A0000C0F0CD050EA410618BF52EA4306D1D1D3
:1007B00081EA030101F000414FF0000070BD50EAF2
:1007C000410606BF1046194652EA430619D094EA7C
:1007D0000C0F02D150EA013613D195EA0C0F05D166
:1007E00052EA03361CBF104619460AD181EA0301BA
:1007F00001F0004141F0FE4141F470014FF0000072
:1008000070BD41F0FE4141F4780170BD70B54FF00C
:10081000FF0C4CF4E06C1CEA11541DBF1CEA13558C
:1008200094EA0C0F95EA0C0F00F0A7F8A4EB05046E
:1008300081EA030E52EA03354FEA013100F0888065
:100840004FEA03334FF0805545EA131343EA12632E
:100850004FEA022245EA111545EA10654FEA0026E3
:100860000EF000419D4208BF964244F1FD0404F59C
:10087000407402D25B084FEA3202B61A65EB0305F8
:100880005B084FEA32024FF480104FF4002CB6EBB5
:10089000020E75EB030E22BFB61A754640EA0C0035
:1008A0005B084FEA3202B6EB020E75EB030E22BF75
:1008B000B61A754640EA5C005B084FEA3202B6EBB6
:1008C000020E75EB030E22BFB61A754640EA9C0075
:1008D0005B084FEA3202B6EB020E75EB030E22BF45
:1008E000B61A754640EADC0055EA060E18D04FEA03
:1008F000051545EA16754FEA06164FEAC30343EAA3
:1009000052734FEAC2025FEA1C1CC0D111F4801F6F
:100910000BD141EA00014FF000004FF0004CB6E768
:1009200011F4801F04BF01430020B4F1FD0C88BF07
:10093000BCF5E06F3FF6AFAEB5EB030C04BFB6EB12
:10094000020C5FEA500C50F1000041EB045170BD05
:100950000EF0004E4EEA113114EB5C04C2BFD4EB32
:100960000C0541EA045170BD41F480114FF0000EB6
:10097000013C90E645EA060E8DE60CEA135594EA32
:100980000C0F08BF95EA0C0F3FF43BAF94EA0C0F35
:100990000AD150EA01347FF434AF95EA0C0F7FF4AA
:1009A00025AF104619462CE795EA0C0F06D152EAFE
:1009B00003353FF4FDAE1046194622E750EA4106E2
:1009C00018BF52EA43067FF4C5AE50EA41047FF4F3
:1009D0000DAF52EA43057FF4EBAE12E753B94AB9C3
:1009E000002908BF00281CBF4FF0FF314FF0FF3037
:1009F00000F00CB8ADF1080C6DE904CE00F0CEF8B3
:100A0000DDF804E0DDE9022304B07047704700BF61
:100A10004FF0FF3C06E000BF4FF0010C02E000BFCA
:100A20004FF0010C4DF804CD4FEA410C7FEA6C5CAD
:100A30004FEA430C18BF7FEA6C5C1BD001B050EA50
:100A4000410C0CBF52EA430C91EA030F02BF90EA3B
:100A5000020F0020704710F1000F91EA030F58BFFA
:100A6000994208BF90422CBFD8176FEAE37040F05C
:100A7000010070474FEA410C7FEA6C5C02D150EAFA
:100A8000013C07D14FEA430C7FEA6C5CD6D152EAB5
:100A9000033CD3D05DF8040B704700BF844610467A
:100AA00062468C461946634600E000BF01B5FFF779
:100AB000B7FF002848BF10F1000F01BD4DF808ED49
:100AC000FFF7F4FF0CBF012000205DF808FB00BF1A
:100AD0004DF808EDFFF7EAFF34BF012000205DF874
:100AE00008FB00BF4DF808EDFFF7E0FF94BF0120C1
:100AF00000205DF808FB00BF4DF808EDFFF7CEFFC2
:100B000094BF012000205DF808FB00BF4DF808ED00
:100B1000FFF7C4FF34BF012000205DF808FB00BFD1
:100B20004FEA410C7FEA6C5C02D150EA013C0AD1E9
:100B30004FEA430C7FEA6C5C02D152EA033C02D1DB
:100B40004FF0000070474FF0010070474FEA41023C
:100B500012F5001215D211D56FF47873B3EB62520F
:100B600012D94FEAC12343F0004343EA505311F036
:100B7000004F23FA02F018BF404270474FF00000C8
:100B8000704750EA013005D111F0004008BF6FF006
:100B9000004070474FF00000704700BF2DE9F04F54
:100BA00007468C460846099E15463C461946002BCA
:100BB00040F0C6808242B2FA82F746D94FB1C7F1FF
:100BC000200E24FA0EFE00FA07F3BD404EEA030C95
:100BD000BC404FEA15481FFA85FEBCFBF8F9220C11
:100BE00008FB19C309FB0EFA42EA03439A4528D9C8
:100BF000EB1809F1FF3004D29A4502D9A9F102009D
:100C00002B44A3EB0A03A4B2B3FBF8F208FB1233A4
:100C100002FB0EFE44EA0344A64514D92C1902F146
:100C2000FF3303D2A64501D9931E2C44A4EB0E0436
:100C300043EA00401EB1FC40002334607360BDE80D
:100C4000F08F4846DDE71346F0E702B9FFDE87BBC9
:100C5000831A01214FEA154EAAB2B3FBFEFC200C09
:100C60000EFB1C330CFB02F840EA0343984563D9A2
:100C7000EB180CF1FF3004D2984502D9ACF1020018
:100C80002B44A3EB0803A4B2B3FBFEFC0EFB1C3306
:100C90000CFB02F244EA0344A2424FD92C190CF196
:100CA000FF3304D2A24202D9ACF102032C44A41AAD
:100CB000BEE7C7F1200C20FA0CF800FA07F324FA7B
:100CC0000CFCBD404CEA03024FEA154EABB2B8FB38
:100CD000FEFC110C0EFB1C800CFB03F941EA0040EA
:100CE000814504FA07F423D928180CF1FF3104D206
:100CF000814502D9ACF102012844A0EB090092B26F
:100D0000B0FBFEFC0EFB1C000CFB03F842EA0043A8
:100D100098450FD9EB180CF1FF3204D2984502D94F
:100D2000ACF102022B44A3EB080342EA014191E734
:100D30006146E2E76246F6E76046A2E76346B6E749
:100D4000834205D90EB1C6E900700021084676E756
:100D5000B3FA83F181B9834201D3BA420AD8BC1AEB
:100D600060EB030301209C46002E68D0C6E9004CCE
:100D7000002164E70846F7E7C1F1200C8B4022FA16
:100D80000CF41C4302FA01F500FA01F327FA0CF205
:100D900020FA0CFB4FEA14491343BBFBF9F81FFA86
:100DA00084FE09FB18BB1A0C08FB0EFA42EA0B4240
:100DB000924507FA01F73ED9A21808F1FF3004D294
:100DC000924502D9A8F102002244A2EB0A029BB28A
:100DD000B2FBF9F809FB182208FB0EFE43EA0242B7
:100DE00096452AD9A21808F1FF3304D2964502D9B4
:100DF000A8F10203224443EA0040A0FB0593A2EBC2
:100E00000E029A42CE46984602D306D14F4504D2EE
:100E1000B9EB050E63EB0408013886B1B7EB0E039E
:100E200062EB080707FA0CFCCB404CEA0303CF4007
:100E3000C6E900379CE74046C7E74346DBE7314653
:100E4000FDE610F8012B11F8013B012A28BF9A4258
:100E5000F7D0D01A7047034613F8012B002AFBD1B4
:100E6000181A01387047000070B586B0054644680E
:100E70000669206810F06FFA50B10023227E934279
:100E800022D2E269D25C032A10D80133DBB2F5E743
:100E900023681B680293284B0193009003460122AC
:100EA000264910F03EFA6FF012003DE02B680293E5
:100EB000234B019300200090034601221F4910F0AC
:100EC00030FA6FF015002FE02068616883685B6876
:100ED00004AA9847A58C0498A0FB050114A3D3E9A4
:100EE0000023DDF814C005FB0C11FFF777FD30601F
:100EF000258C0498A0FB05010DA3D3E90023DDF8A0
:100F000014C005FB0C11FFF769FD7060648C049838
:100F1000A0FB040106A3D3E90023059D04FB0511F2
:100F2000FFF75CFDB060002006B070BDAFF300803D
:100F300000CA9A3B00000000003D0108C8270108D4
:100F40001C3D0108000000002DE9F04F446A99B0F3
:100F500016461F46CDE90467DDF89480054674B94E
:100F600010200CF0A9FD0246686220B9A84BEA21C6
:100F7000A8480DF0D1FCC0E901440460C4606B6A6C
:100F8000196851B15A684A60012393408B60284622
:100F90000DF0EEF96B6A00221A603B1EB9BF23F018
:100FA000004305930023C8F80030DDF814909A4BF5
:100FB000BCBF0122C8F8002033EA090319D1249AE2
:100FC00042F20F731360C9F31303334300F08085BB
:100FD000269B53B9914B22E0914B03930833269AF9
:100FE0001360039819B0BDE8F08F8C4B0393033363
:100FF000F5E7DDE90434CDE90C34DDE90C0100222C
:101000000023FFF75BFD804658B1249A012313604B
:10101000269B002B00F0598582481860431E0393DD
:10102000DFE716AB019317AB00932846DDE90C23ED
:101030000DF016FCC9F30A548346002C7ED00D9B9C
:10104000CDF84C80C3F31303DDE90C0143F07F516D
:1010500041F44011A4F2FF34734B0022FFF7F4F87F
:1010600065A3D3E90023FFF7A7FA65A3D3E900231B
:10107000FFF7ECF8064620460F46FFF733FA62A367
:10108000D3E90023FFF798FA02460B46304639466B
:10109000FFF7DCF806460F46FFF758FD00228246B0
:1010A000002330463946FFF713FD48B15046FFF79D
:1010B00019FA32463B46FFF701FD08B90AF1FF3A3B
:1010C000BAF1160F57D8594B03EBCA03D3E90023E3
:1010D000DDE90C01FFF7FCFC00284ED00AF1FF3AD5
:1010E00000230F93169B1C1B631E099345BFC4F17D
:1010F00001030693002300234CBF09930693BAF122
:10110000000F3CDB099BCDF838A053440993002322
:101110000A93229B092B00F28D80052BC4BF043B50
:101120002293229BA3F10203CCBF00240124032BB2
:1011300000F28C80DFE803F02D4F4D5BDDE91643B4
:101140001C4404F23243202BC3BFC3F1400304F21A
:10115000124009FA03F3C3F12003C6BF26FA00F0D8
:10116000184306FA03F0FFF7ADF90123A1F1F87176
:10117000013C139370E70123B3E70F90B2E7069B9E
:10118000A3EB0A030693CAF100030A9300230E930C
:10119000BFE700230B93239B002B5ADC4FF0010980
:1011A000CDF820904B46CDF88C90686A00224260C2
:1011B000042202F114069E42416850D928460DF0DF
:1011C00097F8039000284ED1194B02464FF4D57181
:1011D000CEE60123DEE700230B93239B0AEB0309F2
:1011E00009F10103012B0893B8BF0123DDE70123B7
:1011F000F2E700BFAFF3008061436F63A787D23F80
:10120000B3C8608B288AC63FFB799F501344D33FF5
:1012100082420108994201080000F07F7E420108E5
:1012200075420108524201080000F83FE828010811
:10123000F34201080124002322930B944FF0FF395D
:101240000022CDF8209012232392AEE701230B93C6
:10125000F4E7DDF88C90CDF820904B46A5E70131FE
:1012600041605200A5E76B6A039A1A60089B0E2B37
:1012700000F2A880002C00F0A580BAF1000F34DD48
:101280009A4A0AF00F0302EBC303D3E900341AF4BD
:10129000807FCDE910344FEA2A1416D0944BDDE953
:1012A0000C01D3E90823FFF7B1FACDE9040104F0FA
:1012B0000F0403278E4E54B9DDE91023DDE9040144
:1012C000FFF7A4FACDE9040129E00227F2E7E107DC
:1012D00008D5DDE91001D6E90023FFF76DF9CDE966
:1012E0001001013764100836E5E700F0A580CAF167
:1012F00000047E4B7E4E04F00F0203EBC203D3E9E1
:101300000023DDE90C01FFF757F9CDE904012411B1
:1013100000230227002C40F08480002BD2D10F9BA9
:10132000002B00F08B80DDE90434CDE91034DDE9D9
:101330001001704B0022FFF7CBFB00287ED0089BEA
:10134000002B7BD0B9F1000F38DDDDE910016A4BCD
:101350000022FFF731F9CDE904010AF1FF38013726
:101360004C463846FFF7BEF8DDE90423FFF724F9C1
:10137000624B0022FEF76AFFA1F15076CDE9100121
:101380001196002C5DD1DDE904015D4B0022FEF7D2
:101390005BFF02460B46CDE90423109A3346FFF764
:1013A000B5FB002840F09C82DDE90401109A06F1AB
:1013B0000043FFF78DFB002840F09082DDE90C34FC
:1013C000CDE90434179B002BC0F25281BAF10E0F05
:1013D00000F34E81454B03EBCA03D3E90034CDE95A
:1013E0000634239B002B80F2DB80089B002B00F34C
:1013F000D78040F07282424B0022DDE90601FFF700
:10140000DBF8DDE90423FFF777FB089C264600287C
:1014100040F04882039F312307F8013B0AF1010A9B
:1014200044E2E20705D5D6E90023FFF7C5F8013706
:101430000123641008366DE7022770E7089CD04648
:101440008FE70399294B214412910B9903EBC403B5
:10145000DDE9106753E90223002955D0294900200E
:10146000FFF7D4F93B463246FEF7EEFECDE9100118
:10147000039FDDE90401FFF769FB0446FFF732F83B
:1014800002460B46DDE90401FEF7DEFE303402467B
:101490000B46CDE9042307F8014BDDE91023FFF7E4
:1014A00017FB002874D1DDE9042312490020FEF760
:1014B000CBFEDDE91023FFF70BFB002840F0B780DF
:1014C000129B9F423FF47AAFDDE910010A4B0022E4
:1014D000FFF772F8084BCDE910010022DDE90401A5
:1014E000FFF76AF8CDE90401C3E700BFE828010867
:1014F000C02801080000F03F0000244000001C400C
:10150000000014400000E03F30463946FFF754F831
:10151000CDE91001129B039C1493DDE90401FFF750
:1015200015FB1590FEF7DEFF02460B46DDE90401D0
:10153000FEF78AFE159B303304F8013B129B9C4258
:1015400006460F464FF0000224D1A44BDDE91001FE
:10155000FEF77CFE02460B4630463946FFF7D6FAC8
:10156000002863D1DDE910239C490020FEF76CFEC2
:1015700002460B4630463946FFF7AAFA00283FF4E8
:101580001DAF149F7B1E149317F8013C302BF8D02D
:10159000C2463BE0924BFFF70FF8CDE90401BCE7F0
:1015A000DDE90489039FDDE9062340464946FFF74C
:1015B0002DF9FFF7CBFA0446FEF794FFDDE9062389
:1015C000FEF7FAFF04F1300602460B464046494654
:1015D000FEF73AFE07F8016B039EDDF820C0BE1B44
:1015E000B44502460B4636D1FEF730FEDDE9062350
:1015F00080468946FFF78AFA58BBDDE90623404654
:101600004946FFF75BFA08B1E10722D4284659465C
:101610000CF0AEFE00233B70249B0AF10100186021
:10162000269B002B3FF4DDAC1F60DAE427463B46E7
:101630001F4613F8012D392A07D1039A9A42F7D190
:101640000399302208F101080A701A7801321A70E1
:101650009EE7D046EBE7624B0022FEF7ADFF00228B
:10166000002380468946FFF729FA00289BD0CDE762
:101670000B9A002A00F0D080229A012A00F3B2804F
:10168000139A002A00F0A68003F233430A9C069FB7
:10169000069A1A440692099A01211A442846099288
:1016A0000CF0CEFE0646002F0CDD099B002B09DD59
:1016B000BB42069AA8BF3B46D21A0692099AFF1A65
:1016C000D31A09930A9BF3B10B9B002B00F0A8805F
:1016D000002C10DD3146224628460CF06FFF5A469A
:1016E0000146064628460CF0C1FE5946804628466B
:1016F0000CF03EFEC3460A9B1A1B04D059462846EE
:101700000CF05CFF8346012128460CF099FE0E9BED
:10171000002B044640F386801A46014628460CF00A
:101720004DFF229B012B04467FDD4FF0000823690B
:1017300004EB8303186910F005FCC0F12000099B3D
:10174000184410F01F0000F09280C0F12003042B19
:1017500040F38A80C0F11C00069B03440693099B5A
:10176000034407440993069B002B05DD59461A469E
:1017700028460CF07DFF8346099B002B05DD2146A2
:101780001A4628460CF074FF04460F9B002B70D0BD
:101790002146584610F023FC00286ADA00235946F7
:1017A0000A2228460CF006FE0B9B0AF1FF3A8346FC
:1017B000002B00F09481314600230A2228460CF0C9
:1017C000F9FDB9F1000F064600F39380229B022B2E
:1017D00057DC8EE0169BC3F1360357E70000E03F6D
:1017E00000002440089B5C1E0A9BA342BFBF0A9BCB
:1017F0000A94E21A0E9BB6BF9B181C1B0E93089B03
:10180000B8BF0024002BB9BF069B089A069F089B0F
:10181000BCBF9F1A00233BE70A9C069F0B9E42E732
:101820000A9A6BE7229B012B19DC049BBBB9059B31
:10183000C3F313039BB9059B23F000431B0D1B054A
:1018400083B1069B01330693099B013309934FF043
:1018500001080E9B002B7FF46AAF01206FE74FF069
:101860000008F6E79846F4E73FF47DAF18461C30D1
:1018700072E7089B002B36DC229B022B33DDDDF860
:101880002090B9F1000F0DD121464B460522284684
:101890000CF090FD01460446584610F0A0FB0028CD
:1018A0003FF7B8AD239B039F6FEA030A4FF0000890
:1018B000214628460CF05CFD002E3FF4A7AEB8F19F
:1018C000000F05D0B04503D0414628460CF050FD2E
:1018D000314628460CF04CFD98E600242646E1E708
:1018E000C246264696E50B9BDDF82090002B00F0C3
:1018F000FD80002F05DD31463A4628460CF0B8FE43
:101900000646B8F1000F5CD0716828460CF0F0FC78
:10191000074628B9804B024640F2EA21FFF728BB70
:1019200032690232920006F10C010C3010F056F9C7
:101930000122394628460CF09BFE039B0133089395
:10194000039B4B440A93049B03F00103B0460993A5
:101950000646089B2146013B5846049310F06BFA5B
:10196000034630330690414658460B9310F037FB40
:1019700032468146214628460CF0EAFEC2680B9B9F
:10198000074602BB0146584610F029FB0B9B024656
:1019900039462846CDE90B320CF0EAFC229B0C9A22
:1019A000089F43EA0201099B0B430B9B0DD1392B86
:1019B00029D0B9F1000F01DD069B3133049A137071
:1019C00076E73046B9E70122E2E7B9F1000F06DB1E
:1019D000229941EA0909099959EA010120D1002A0D
:1019E000ECDD59460122284608930CF041FE2146C1
:1019F000834610F0F4FA0028089B02DCDED1DA07F7
:101A0000DCD5392BD8D1049A392313703B461F46B5
:101A1000013B17F8012C392A50D001321A7047E7E0
:101A2000002A03DD392BEED00133C7E7089A0A9963
:101A300002F8013C8A422AD0594600230A2228464D
:101A40000CF0B8FCB04583464FF000034FF00A029B
:101A50004146284607D10CF0ADFC80460646089B5F
:101A60000133089375E70CF0A5FC3146804600234E
:101A70000A2228460CF09EFC0646F0E7B9F1000F5A
:101A8000039ACCBF4F46012717444FF00008594630
:101A90000122284608930CF0EBFD2146834610F006
:101AA0009EFA0028B2DC02D1089BDB07AED43B468D
:101AB0001F4613F8012D302AFAD0F9E6039A9A420C
:101AC000A5D10AF1010A312379E7144BFFF7A7BA30
:101AD000269B002B7FF480AA114BFFF7A0BAB9F127
:101AE000000F03DC229B022B3FF7CBAE039F214666
:101AF000584610F0A0F900F1300307F8013B039AB3
:101B0000BA1A9145BADD594600230A2228460CF03C
:101B100051FC8346EBE700BFF34201085142010844
:101B20007542010830B583B0344B0193344B1868CB
:101B30000FF011FC00284ED0314B186819795B79F1
:101B400043F480738568046903F480523AB113F456
:101B5000406F04D013F0010F01D083F4406323F4ED
:101B6000805213F0010F3DD0012303FA01FC2368DA
:101B700043EA0C0323602B689847214B18681979B6
:101B8000846803691A6801238B401A4232D14FF4EA
:101B9000B822A46902F4C02302F4A032A047184A74
:101BA000117901238B401749174848608B601068F2
:101BB0008368DB690BB10122984709F087F84FF081
:101BC000FF324FF0FF3301A809F00EF8012009F0B1
:101BD000EFFB03B030BD4FF0FF304FF0FF310BF0A3
:101BE000CDF9A9E7012303FA01FC236823EA0C03DA
:101BF0002360C0E74FF47032CBE700BFA40200209F
:101C00000C000020B40E00200D1C000808B5BFF326
:101C10005B8F054B1B68BFF35B8F03B108BD0348A7
:101C200009F06EFEFAE700BFB00E00200C000020A5
:101C300030B583B001928378012B39D026D8002BA0
:101C400052D10378012B4FD1284B01934FF0FF3431
:101C50004FF0FF3522462B4601A808F0C5FF0320B0
:101C600009F0A6FB224B0122BFF35B8F53E8001F54
:101C700043E800200028F9D1BFF35B8F1D4B01938F
:101C800022462B4601A808F0AFFF2DE0033BDBB254
:101C9000012B29D80378012B26D1144B0193164A26
:101CA000002301A808F0A0FF032009F081FB1BE03E
:101CB0000F4B0022BFF35B8F53E8001F43E8002067
:101CC0000028F9D1BFF35B8F084B01934FF0FF322F
:101CD0004FF0FF3301A808F087FF084B0193064A35
:101CE000002301A808F080FF03B030BD44020020AB
:101CF00094150020E4010020C0270900A402002060
:101D000000B583B0019201220A7082788A70022A9B
:101D10000FD0052A12D10B4B1B787BB10A4B0193D4
:101D20000A4A002301A808F05FFF064B00221A7040
:101D300004E00B460021184609F026FB03B05DF8CD
:101D400004FB00BF94040020A4020020C027090067
:101D500030B583B004460D460023ADF8063000933D
:101D6000ADF80430C378002B39D0012B09D18DF8A0
:101D7000003083788DF80230324B1A686946FFF7DD
:101D8000BFFF0DF1060009F0F5FABDF9063013F1B9
:101D9000460F2ADA9BB203F1500292B2092A31D9D6
:101DA00003F15A0292B2092A2ED903F1640292B2C7
:101DB000092A2BD903F1690292B2042A28D903F126
:101DC0007D0292B2132A25D903F17F0292B2012A31
:101DD00022D982339BB2022B20D8012306E0194B73
:101DE0001A686946FFF724FFCBE708236B60637925
:101DF000AB60BFF35B8F144B1B68BFF35B8F7BB192
:101E000003B030BD0723F1E70623EFE70523EDE735
:101E10000423EBE70323E9E70223E7E70023E5E7F1
:101E20000A4C0B4A21460B480FF0C9FE2368002BD1
:101E3000E6D00448084B0360084A002308F0D4FEAB
:101E4000DEE700BF0800002094150020AC0E002043
:101E5000A80E002044160020A4020020C02709007C
:101E600000B589B000230593ADF81830444B01ACA0
:101E70000FCB84E80F0043480FF06DFA88B141485A
:101E800083681B6801A99847002811DB002400948F
:101E9000FFF748FE3B4883681B693B4A3B4998472C
:101EA00037E04FF0FF304FF0FF310BF067F8E6E717
:101EB0004FF0FF304FF0FF310BF060F8E6E73448A9
:101EC0000DF0D9F90220002430E0324B00934FF09E
:101ED000FF324FF0FF33684608F086FE19E0012319
:101EE00005AA022107A808F035FF90B1BFF35B8F68
:101EF000294B1C68BFF35B8F0CB1002409E0274914
:101F000005A8FFF725FF04E001A91E4808F03CFEE4
:101F100000240A2000210BF031F809F0FDFC013407
:101F200045F220339C42CAD00028F2DB0128D6D0EB
:101F30000228E9D00028ECD101A9124809F0B8F92B
:101F40000028C2D00028E4DA154B00934FF0FF328E
:101F50004FF0FF33684608F047FEBFF35B8F114B2D
:101F60001B68BFF35B8F002BD3D00F4B00934FF058
:101F7000FF324FF0FF33684608F036FEC9E700BF76
:101F8000882801087824010851A8000821A9000820
:101F9000B02901085C020020B00E0020A40200203D
:101FA0005002002094150020E401002010B50446E2
:101FB000094B1B68026811681868FEF742FF20B9D8
:101FC0002279054B1B799A4200D010BD01210348AC
:101FD00009F0DAF9F9E700BF0C000020000000204A
:101FE0002DE9F04F89B0029210F0030A40F01582FB
:101FF00007468B46041DE0B127B1E21B04325A4567
:1020000000F20E825D1ECDF800A0CDF80CA0CDF838
:1020100004A000264FF00408C14607B12360C64A59
:102020009342C0F05A81C54A9342C0F07F8100229A
:1020300054E101F0070B5C44CBF1080BDCE7252BE6
:1020400005D101264FF00408C14600E00026654690
:1020500005F1010C6B78002B00F08481002EEED08E
:10206000A3F120015A29F1D801A252F821F000BFB2
:102070004F2000084D2000084D2000084F20000888
:102080004D2000084D2000084D2000084D2000087C
:102090004D2000084D200008FD2100084F200008B9
:1020A0004D2000084F2000084F2000084D20000858
:1020B0004F2000084F2000084F2000084F20000844
:1020C0004F2000084F2000084F2000084F20000834
:1020D0004F2000084F2000084D2000084D20000828
:1020E0004D2000084D2000084D2000084D2000081C
:1020F0004D200008652200084D2000084D200008F2
:102100004D200008652200086522000865220008AD
:102110004D2000084D2000084D2000084D200008EB
:102120004F2000084D2000084D2000084D200008D9
:102130004D2000084D2000084D2000084D200008CB
:102140004D2000084D2000084D2000084D200008BB
:10215000F52100084D2000084D2000084D20000802
:102160004D2000084D2000084D2000084D2000089B
:102170004D200008652200084D200008F5210008C8
:10218000F521000865220008652200086522000884
:102190004F200008F5210008DD2100084D2000082F
:1021A0004F2000084D200008C5220008F521000836
:1021B000C52200084D2000084D200008C522000857
:1021C000ED210008F52100084D2000084D200008F1
:1021D000F52100084D200008E52100084FF008080F
:1021E000C14634E74FF00408C14630E74FF0040819
:1021F000C1462CE72A786C2A26D0002604EB080278
:10220000013AC8F100010A40144627B1D11B4944E4
:102210008B45C0F00881732B59D0B9F1040F00F041
:102220009980B9F1080F40F00781129B073323F022
:10223000070303F108011291D3E900010FB1C2E9CC
:10224000000102F1080402E71CF8022C6C2A04D0F9
:1022500000264FF00408C146D0E700264FF00808DA
:10226000C146CBE72B784C2B1CD0129B073323F0B5
:10227000070303F108021292D3E90001E21D22F0E4
:10228000070247B1D31B08335B4515D82B784C2B7D
:1022900015D0C2E9000102F1080400264FF0080839
:1022A000C146D4E6129B073323F0070303F108026B
:1022B0001292D3E90001E1E76FF01B00AAE0C2E946
:1022C0000001E8E700264FF00408C14696E7129B9C
:1022D0001A1D12921B6865469FE60022029901F0C2
:1022E0000101104602B1F9B1A4EB070C4FEA9C02C0
:1022F00019B1BCF5007F80F0998001990F2900F297
:102300009880EFB1D2B208AB0B4403F8102C78B12F
:1023100062F07F0208AB0B4403F8102C009B0133E2
:102320000093019B01330193043491E60122D5E728
:10233000039B01330393F4E760220108B8430108CB
:1023400010B10BF1010BECE71846FEF784FD831C7E
:102350009B44E6E7129B191D12911B6807B113609D
:10236000141D74E6E31BB3F5806F68D25FB10022E1
:102370003A609B083B70039B7B70009BBB70D3B99A
:10238000DDF8049039E05B44A3F1080042E001333A
:10239000984213D908AA1A4412F8101C12F9102CEA
:1023A000002AF4DA01F07F01E21B0132934549D3A0
:1023B00004F8011BEBE753460198E9E7DDF80490C8
:1023C0001BE008AB534413F8106C57F82680002329
:1023D00047F826304046FEF73EFD451CE31B2B44E4
:1023E00001339B4531D304F8016B2A464146204610
:1023F0000FF0F4FB2C440AF1010AD14509D9009BE6
:10240000002BDED008AB534413F9103C002BD8DA74
:10241000F1E7E01B09B0BDE8F08F6FF00D00F9E7C0
:102420006FF01B00F6E76FF01B00F3E76FF015008D
:10243000F0E76FF01500EDE76FF01500EAE76FF0D9
:102440001500E7E76FF01B00E4E76FF01B00E1E722
:1024500008B50B6801330B60014B1B68984708BD3A
:1024600014000020014B1860704700BF14000020CA
:1024700000B583B002460B460021019101A9034833
:1024800000F02CFA03B05DF804FB00BF51240008F3
:1024900010B584B00446019002910021039101A976
:1024A000054800F01BFA039B029A934201DA0022CE
:1024B000E254039804B010BD47F200088446026855
:1024C000002005E000EB8000013203EB40003038D3
:1024D00013780449595C11F0040FF3D1CCF80020B3
:1024E000704700BF4141010870B582B00446002327
:1024F0000360436083604B78252B02D04E1C01257E
:102500001FE0881CE37045E1237843F00403237047
:10251000B5B1013614E0237843F008032370F7E7E0
:10252000237843F010032370F2E7237843F020036D
:102530002370EDE7237843F040032370E8E700259C
:1025400045B33378203B102BF9D801A252F823F081
:10255000212500083F2500083F2500082B250008FD
:102560003F2500083F2500083F2500083F250008BB
:102570003F2500083F2500083F25000817250008D3
:102580003F250008092500083F2500083F250008D1
:1025900035250008237803F04403442B5FD00196CF
:1025A000237843F08003237033782A2B5CD001A872
:1025B000FFF784FF019B9E420FD0237843F08003F6
:1025C00023706060DBB2C3F34003002854DB0022B9
:1025D0001343227863F341022270019B01931B781D
:1025E0002E2B14BF00230123627863F34102627033
:1025F000002B43D0019B5A1C01925B782A2B3FD0C1
:1026000001A8FFF75BFFA0602378C3F34003002815
:102610003EDB00221343227863F3410222700198CB
:1026200003784C3B2E2B00F29D80DFE803F0909B5B
:102630009B9B9B9B9B9B9B9B9B9B9B9B9B9B9B9BEA
:102640009B9B9B9B9B9B9B9B9B9B339B579B459BDC
:102650009B9B9B9B9B9B899B9B9B9B9B820023782B
:102660006FF3861323709AE7637843F00103637076
:10267000334601330193B1E70122A9E70198CFE77F
:10268000637843F004036370104601300190C7E79C
:102690000122BFE7421C4378682B06D063780221F1
:1026A00061F3C603637010461EE06378012262F393
:1026B000C6036370023017E0421C43786C2B06D0CF
:1026C0006378032161F3C603637010460CE06378FE
:1026D000042262F3C6036370023005E063780522CA
:1026E00062F3C6036370013010F8013BE370A3F19D
:1026F0004102372A7DD8DFE802F05E7C7C7C5E5E9A
:102700005E7C7C7C7C7C7C7C7C7C7C7C7C7C7C7C27
:102710007C4F7C7C7C7C7C7C7C7C5E7C4F3A5E5EEF
:102720005E7C3A7C7C7C7C654F717C7C717C4F7CD0
:102730007C4F6378062262F3C60363700130D3E7EF
:102740006378072262F3C60363700130CCE76378D5
:10275000082262F3C60363700130237843F002035A
:102760002370C1E763786FF3C6036370BCE7A27898
:10277000012161F30202A270627802F07802402A1D
:1027800010D0632B13D02378C3F34002154365F3B5
:102790004103237002B070BDA278022161F30202EE
:1027A000A270E9E7217841F001012170E9E7151EE7
:1027B00018BF0125E7E7A378042262F30203A370A0
:1027C0000125E0E7A378032262F30203A370637894
:1027D00003F07803402BD6D10125D4E7A378032258
:1027E00062F30203A370637813F0780FCBD0012556
:1027F000C9E7237843F001032370C4E72DE9F04FC4
:1028000083B004460D4601929A460C9ED378324A14
:1028100013F802B00BF0030B6F2B0FD006D9702BFF
:102820000FD0782B10D14FF0100923E0582B02D095
:102830004FF00A091EE04FF010091BE04FF00809A5
:1028400018E04FF0100915E04FF00A0912E0D2B27B
:102850003032D2B206F8012D3A4643462046294688
:10286000FEF7BCF8BC4275F1000319D3564517D9E1
:1028700004460D464FF000084F464A464346204660
:102880002946FEF7ABF8092AE1D9BBF1010F03D0C5
:10289000D2B25732D2B2DDE7D2B23732D2B2D9E7B2
:1028A000019B1B7813F0200F05D0B9F1080F06D05B
:1028B000B9F1100F09D0304603B0BDE8F08F019A8E
:1028C000937843F008039370F5E7019A937843F007
:1028D00010039370EFE700BF414101082DE9F04F6D
:1028E00091B006460D4691460393002499F80000E6
:1028F000002800F0D582252808D009F101092946D1
:10290000B0470028C0F2CD820134EFE700230493E2
:1029100005930693079308930993494606A8FFF782
:10292000E3FD02909DF8193013F0010F00F097803D
:10293000039B1A1D03921F68002FC0F288809DF828
:10294000193013F0040F00F09C80039B1A1D0392B2
:10295000D3F800A0BAF1000FC0F28A8000230793D9
:1029600008939DF81A3003F007039DF81910C1F37E
:10297000C301012B00F08E80022B00F0D380042BCA
:1029800000F02481032B00F03B819DF8188018F0A3
:10299000030B40F03B819DF81B30253B532B00F28D
:1029A000E681DFE813F04001E401E401E401E40121
:1029B000E401E401E401E401E401E401E401E401EF
:1029C000E401E401E401E401E401E401E401E401DF
:1029D000E401E401E401E401E401E401E401E401CF
:1029E000E401E401E401E401E401E401E401E401BF
:1029F000E401E401E401E401E401E401E401E401AF
:102A0000E401E401E401E401E401E4018101E40101
:102A1000E401E401E401E401E401E401E401E4018E
:102A2000E4015E016701E401E401E401E4016701FE
:102A3000E401E401E401E401BE018101A201E40139
:102A4000E4014D01E4018101E401E40181019DF80B
:102A5000183043F004038DF818307F426FE79DF97A
:102A60001830002B02DB4FF0FF3768E7079F66E75F
:102A70009DF819306FF341038DF819304FF0FF3A8C
:102A80006CE713F0020F02D0DDF820A066E74FF0EC
:102A9000FF3A63E7CB1E042B04D8DFE803F00B1DDD
:102AA00029353500039B1A1D03921B68DA1704931E
:102AB000059206E0039B1A1D03921B68DA17049324
:102AC0000592012928D002297FF45FAFBDF91030AB
:102AD000DA170493059258E7039B073323F00703A3
:102AE00003F108020392D3E90023CDE90423E8E7C8
:102AF000039B073323F0070303F108020392D3E992
:102B00000023CDE90423DCE7039B1A1D03921B6815
:102B1000DA1704930592D4E79DF81030049300234C
:102B2000059332E7CB1E042B04D8DFE803F00B1F1C
:102B300035414100039B1A1D03921B680493002337
:102B400005931EE09DF81B30632B07D0039B1A1DD5
:102B500003921B6804930023059312E0039B1A1D44
:102B600003921B680493002305930AE0039B073339
:102B700023F0070303F108020392D3E90023CDE910
:102B8000042301291CD002297FF4FFAEBDF81030C8
:102B9000049300230593F8E6039B073323F0070310
:102BA00003F108020392D3E90023CDE90423E8E707
:102BB000039B1A1D03921B68049300230593E0E70F
:102BC0009DF81030049300230593DEE608290BD00E
:102BD000039B073323F0070303F108020392D3E9B1
:102BE0000023CDE90423D0E6039B073323F007033A
:102BF00003F108020392D3E90023CDE90423C4E6DC
:102C0000039B1A1D03921B680493BEE6029F3B467A
:102C10004A46294630460CF0CAFB0028C0F24181E2
:102C20000444B94662E629462520B0470028C0F290
:102C300038810134D8460DF13E0A4FF000099BE07F
:102C4000DDF81090BAF1000F07DB514648460FF04F
:102C5000E6F809EB000AD8468EE04846FEF7FBF896
:102C6000F7E7049B8DF82830D8460DF1290A0DF1BD
:102C7000280981E018F0080F05D118F0100804D0D9
:102C80004FF0200801E04FF02B08049A059B002B21
:102C900002DB0492059308E0524263EB4303049283
:102CA00005934FF02D0800E0D8460DF13E03009348
:102CB0000AAB06AADDE90401FFF7A0FD8146BAF1DF
:102CC000000FC0F288800DF13E03A3EB09039DF8CD
:102CD00018206FF386128DF818209A457ED9AAEB3A
:102CE000030307930DF13E0A46E0049828B9D8463D
:102CF000DFF8B4A1AAF105093EE00DF13E0300930F
:102D00000AAB06AA0021FFF779FD81469DF81A302B
:102D100043F010038DF81A3078238DF81B30D84615
:102D2000CDE7049A9DF81930C3F3C303072B06D8E7
:102D3000DFE803F0040B0D0F1115191B1460D846C2
:102D40000DF13E0A4FF0000916E01470F7E7148009
:102D5000F5E71460F3E7E31714605360EFE7E31758
:102D600014605360EBE71460E9E71460E7E7D846C6
:102D70000DF13E0A4FF00009B9F1000F00F08D800F
:102D8000AAEB0902B8F1000F00D001329DF81A1029
:102D900011F0100F25D00232079B134411F0400FA1
:102DA00001D0089A1344002F31DDFF1A9DF8183026
:102DB00013F0040F2BD113F0400F17D0B8F1000F10
:102DC00017D029464046B04700286ADB0134D84670
:102DD0004FF0300B0FE00DF13E0ACDE70DF13E0A4A
:102DE000CAE711F0080FD7D00132D5E74FF0200B1A
:102DF00001E04FF0300B3B465F1E002B07DD2946FC
:102E00005846B04700284CDB01343B46F4E7B8F1A4
:102E1000000F05D029464046B047002841DB013469
:102E20009DF81A30C3F30012C3F3C003134305D057
:102E300029463020B047002833DB01349DF81A3092
:102E400013F0100F06D029469DF81B00B04700284C
:102E500027DB0134079B03F1FF38002B07DD2946F0
:102E60003020B04700281CDB01344346F3E75346CB
:102E70004A46294630460CF09AFA002811DB0444F1
:102E8000002F07DD29462020B047002809DB013448
:102E9000013FF5E7DDF8089028E5DDF8089025E525
:102EA000204611B0BDE8F08F092A01084FF010024A
:102EB000EFF3118382F31288BFF36F8F83F31188CE
:102EC000BFF36F8F024B034A1A600020704700BFA8
:102ED000E001002000093D0008B5064B186018B15C
:102EE000054B1B68092B00DC08BD044809F0C0FA3B
:102EF000FAE700BF0C0F0020C00E0020C40600201F
:102F000008B5024809F0B4FA08BD00BFC4060020A5
:102F100030B589B000220F490F480EF08EFD0F4DDD
:102F200000220023CDE90623002404940E230393FA
:102F30000294019400940A4B4FF4407209492846C8
:102F40000EF06CFA084928460EF054FA204609B0F3
:102F500030BD00BF012F0008E00B0020180C00203E
:102F60000533000800270020102A0108184BBFF382
:102F70005B8F53E8002F511C43E800100028F8D164
:102F8000BFF35B8F1ABB70B5002409E0114B03EB54
:102F900006135B6804221968284600F0D9F9013449
:102FA0000D4B0C4A9B1AB4EB231F0FDA2646094D32
:102FB00005EB04152B7B002BF1D02301054AD358D8
:102FC0009B69002BE2D028469847DFE770BD704729
:102FD000C80E0020D0270108E027010838B108B545
:102FE000044A1060084600F0A3FB002008BD6FF003
:102FF000150070471800002008B5054B1B781BB161
:10300000034B01221A7008BD024809F031FAF7E7B4
:10301000B0160020C40600200D4BBFF35B8F53E8B1
:10302000002F013243E800210029F8D1BFF35B8F64
:1030300000B97047074BBFF35B8F53E8002F013A8D
:1030400043E800210029F8D1BFF35B8FF1E700BF0F
:10305000C40E0020C00E0020064B00200246BFF325
:103060005B8F53E8000F43E800210029F9D1BFF33B
:103070005B8F7047C40E002038B5FFF7EDFF0546A3
:10308000002400E001340B4B0B4A9B1AB4EB231FC6
:103090000FDA094800EB041043685B79002BF1D08C
:1030A0002301054AD3581B69002BEBD029469847CA
:1030B000E8E738BDE0270108D0270108034B18686E
:1030C0000028D4BF00200120704700BFC40E00209C
:1030D00008B5024902480CF036FA08BD1C2A01085E
:1030E000CC0E002008B50023054A1370054A136072
:1030F0004FF47A710448FFF771FFFFF7E9FF08BD4D
:10310000B1160020C40E0020AFF8000808B5014633
:103110000022002301480CF03BFA08BDCC0E002031
:1031200008B502480CF0F1FA08BD00BFCC0E002033
:1031300008B5014601480CF059FB08BDCC0E002033
:10314000F8B50646E9B9002400E001340F4B104AF7
:103150009B1AB4EB231F14DA0D4D05EB04156B68B5
:103160005B79002BF1D0314628460CF09EFB0028FD
:10317000EBD02701064BDB591B68314628469847A0
:10318000E3E73046FFF7D4FFF8BD00BFE0270108B2
:10319000D027010808B502480CF065FB08BD00BF48
:1031A000CC0E002010B50446114B1B7803B9D0B1EA
:1031B0000CF08AFB034680B15CB90E4ABFF35B8F0B
:1031C00052E8001F013942E800100028F8D1BFF38F
:1031D0005B8F21461846FFF7B3FF14B9FFF76EFF68
:1031E00010B90CF075FB10BDFFF746FFF9E700BF03
:1031F000B0160020C00E002010B582B01D4BBFF3EA
:103200005B8F53E8002F511C43E800100028F8D1D1
:10321000BFF35B8F184B1B783BB9184B1B6803B18E
:103220009AB10A2A1CD002B010BD4FF01003EFF380
:10323000118483F31288BFF36F8F0020FFF7B2FF72
:1032400084F31188BFF36F8FEDE700220023CDE9EF
:10325000002342F21072002309480AF0CDF8E2E799
:10326000002BE0D006480EF0F4FB064809F000F908
:10327000D9E700BFC00E0020B11600200C0F0020BF
:10328000E00B0020C406002010B50446054B1B6867
:103290009847A060214604480CF011FAFFF7ACFFF4
:1032A00010BD00BF18000020CC0E0020124B1B7870
:1032B00003B1704710B5FFF759FE002400E0013458
:1032C0000E4B0F4A9B1AB4EB231F0CDA0C4800EB91
:1032D000041043685B79002BF1D02301084AD358CE
:1032E0005B699847EBE70020FFF75CFF0028FAD105
:1032F000014B01221A7010BDB1160020E027010811
:10330000D027010808B5FFF731FE09F04FFEFFF79F
:10331000E3FD0020FFF746FF0028FAD14FF0FF320F
:103320004FF0FF33014809F0CBF8F2E7C406002064
:10333000054B064A9B1AB1EBD30F02D252F831006B
:1033400070470020704700BFD027010858270108A8
:1033500008B5074BC31A1B11013342681371436848
:103360001960436801225A71FFF746FE08BD00BF8D
:10337000D02701080EB400B582B0014603AB53F864
:10338000042B01930348FFF7A9FA02B05DF804EBA0
:1033900003B0704777F9000830B585B011F0440FDD
:1033A00005D01A4B1C6834B9002005B030BD18494F
:1033B000FFF7E0FFF9E7174B1968B2FBF1F1B1FB3A
:1033C000F4FC154AA2FB0C32D20A4FF4616E0EFBDC
:1033D00012CE124BA3FB0E535B0904FB1C114FF4DE
:1033E0007A7C0CFB01F1B1FBF4F505FB14110CFB2D
:1033F00001F1B1FBF4F102910195C3EB0311AEEBC6
:10340000810100910649FFF7B5FFCEE7100F0020BC
:10341000302A0108140F0020C5B3A291898888883A
:103420003C2A010861B108B52AB1064A52F82320A6
:1034300012B9054A00E0044A0449FFF79BFF08BDA2
:10344000704700BFB42A0108582A0108602A010801
:1034500011F0100F0BD108B511F0200F03D0044963
:10346000FFF788FF08BD0349FFF784FFFAE77047BD
:10347000CC290108642A01082DE9F04105460F46D0
:10348000164698460699FFF7E3FF0024444505DAFF
:1034900024492846FFF76EFF0134F7E7002409E0CE
:1034A00020492846FFF766FF0BE01F492846FFF733
:1034B00061FF01340F2C0CDC002C02DD14F0070F2F
:1034C000EED0B442F1D23A5D18492846FFF752FFD8
:1034D000EFE717492846FFF74DFF002409E011499F
:1034E0002846FFF747FF0BE012492846FFF742FF47
:1034F00001340F2C13DC002C02DD14F0070FEED08A
:10350000B44207D23A5D0C4BD35C13F0970FEBD16A
:103510002E22E9E703492846FFF72CFFE8E7BDE83C
:10352000F08100BF8C2A0108702A0108682A01086E
:10353000742A0108782A0108414101082DE9F04167
:10354000804616461D46BDF9187059B90024002F53
:103550001CDB86B10123079A934013F0100F18D19A
:103560000D4E09E00D4B079A53F822200C49FFF746
:1035700001FF0446EBE7084E39462846FFF7D8FE20
:10358000024631464046FFF7F5FE04442046BDE8BA
:10359000F081044EF0E700BF7C2A0108F02A010800
:1035A000882A0108842A01082DE9F04F85B00546D4
:1035B0000C46164603939DF8388001F0020B01F08B
:1035C000010AC1F3C0090CF087F9E8B102461349BA
:1035D0002846FFF7CFFE0746BBF1000F16D1424643
:1035E000514628460CF087F9CDF80480BDF94030EB
:1035F00000939DF83C30324649462846FFF79EFF2F
:10360000384405B0BDE8F08F0027E5E7039A21466E
:103610002846FFF7C1FE0744E1E700BF902A0108F2
:103620002DE9F04385B006460C4617468B680A889C
:10363000C2F3821812F4E07F35D04A680978C1F3EA
:10364000C2016AB32048121A42F3CF0202920191DA
:10365000CDF80080002239463046FFF7A5FF8146AD
:10366000254655F80C3BC3F3492343B1B8F1000F8D
:103670001CD116482B46324615490BF0B5FD628821
:10368000C2F3CB022168C1F34921294482B9B8F1C0
:10369000000F13D130460CF061F905B0BDE8F0839E
:1036A0004FF0FF32D2E74FF00009D9E70948E1E7D0
:1036B00000974B4630460CF036F9E8E7424639466B
:1036C00030460CF024F9E5E758270108AFF9000867
:1036D000DD28000877F9000870B582B00446056857
:1036E00042F20F738B4228BF0B460E4A05216846F3
:1036F0000BF0CFFD064663685B680B220A4928463B
:103700000CF0ECF863685B683246694628460CF0BA
:10371000E5F863685B681B22044928460CF0DEF874
:1037200002B070BD8C300108E42A0108C82A0108E3
:10373000074B01221A6004E04008054A13685B0049
:103740001360044B9842F7D8034B1860704700BFD2
:10375000140F002040420F00100F002070B50646E5
:103760000D46002406E0054B1868315D83685B68F0
:1037700098470134AC42F6D3284670BD2C0F002088
:10378000014B024A1A6070472C0F002030240108B8
:1037900008B5034B01221A7002480CF0DFF808BD8F
:1037A000B2160020402B010808B50248FFF794FF2D
:1037B00008BD00BF402B010808B50F220148FFF7E4
:1037C0002FFF08BD402B010810B5044C02E054F84F
:1037D000043B9847024B9C42F9D310BD582701087F
:1037E00058270108064B1B684BB110B55C1E044AF4
:1037F00052F8233098472346002CF7D110BD70476C
:1038000050270108014910220A60704710ED00E0BE
:1038100072B6404080F31188BFF36F8FBFF34F8FB4
:1038200030BF62B6BFF36F8F704700BF2DE9F0471E
:1038300096B000AF054601233B816C4688B06B46CD
:1038400013F10C0200F0CA801421012038811AB152
:10385000042901DD67481861286812B1082900DDD4
:103860005861686812B10C2900DD9861A86812B12E
:10387000102900DDD861132940F3B38014202AB148
:1038800000217960052139717968D96000216FF3D1
:1038900000016FF341016FF382016FF3C50101264F
:1038A00066F3881100F47D7363F352216FF3DE41F8
:1038B0006FF3DF71002350480CF0A0F8A5463E815D
:1038C0006C4688B06B4613F10C0200F08D80142119
:1038D000012038811AB1042901DD48481861E868DF
:1038E00012B1082900DD5861286912B10C2900DDE8
:1038F0009861686912B1102900DDD861132976DD5D
:1039000014202AB100217960052139717968D960C4
:1039100000216FF300016FF341016FF382016FF338
:10392000C501012666F3881100F47D7363F352210B
:103930006FF3DE416FF3DF71DFF8BC800023404698
:103940000CF05CF8A5463E81EB692D4ABA63FB6337
:1039500000247C604FF0030A87F804A07B687B6337
:10396000214664F3000164F3410164F3820164F3CE
:10397000C50166F388114FF00C0969F3522164F315
:10398000DE4164F3DF71234607F1340240460CF058
:1039900035F83E81AB691B4A3A657B657C6087F8E8
:1039A00004A07B68FB64214664F3000164F34101D9
:1039B00064F3820164F3C50166F3881169F352214F
:1039C00064F3DE4164F3DF71234607F14C024046A5
:1039D0000CF014F85837BD46BDE8F0876FF0004191
:1039E00033E76FF01B004AE76FF0004170E76FF0BC
:1039F0001B0086E7502B010888270108802B01084F
:103A0000B02B0108C02B010840B2002807DB00F0F2
:103A10001F02400901239340014A42F820307047B9
:103A200000E100E040B200280CDB00F01F0240097A
:103A3000012393402030044A42F82030BFF34F8FD7
:103A4000BFF36F8F704700BF00E100E04209054BF4
:103A500053F8222000F01F00012303FA00F0104069
:103A6000704700BF00E100E0013140B2002808DBF0
:103A70000901C9B200F1604000F5614080F800130F
:103A8000704700F00F000901C9B2014B195470478B
:103A900014ED00E030BFFFF7FDBF00BF08B50F4BCE
:103AA0000F4A22F07F029A60BFF34F8FBFF36F8FF0
:103AB000D3F8882022F47002C3F88820EFF314832F
:103AC00023F0040383F31488BFF36F8F08F066FAC2
:103AD00009F0BEFA00F0AEFE08F06CFA00ED00E06E
:103AE00000000008094A9368986709490968D9677E
:103AF00008494B6843F080534B60002383F31188DF
:103B0000BFF36F8F9368D86F704700BF54160020C3
:103B1000903F010800ED00E012498A684FF0300044
:103B20001044EFF3098C80E8F01F102080F3128816
:103B3000BFF36F8F0C4F4FF000668A698A603E605A
:103B4000906F0023936780F3118804B5104600F04E
:103B5000C5FEBDE8044002F1300090E8F01F8CF390
:103B6000098870475416002004ED00E01EF0040F91
:103B70000CBFEFF30880EFF30980816911F8021C94
:103B80000229FFD001B50BF0B2FF01BD10B4A2F1C4
:103B900020040D4942F8081C21F0010142F8081CDC
:103BA00042F8203C019B42F81C3C029B42F8183C26
:103BB000039B42F8143C4FF0807342F8043C0465C8
:103BC0000023836710BC7047AFF20008114B9A685E
:103BD000EAB110F1160F10D0936EA3F1200C8445BA
:103BE00005D8834205D98B4205D800210AE000217F
:103BF00008E0002106E0012104E0936E8B4294BFAF
:103C00000021012109B900207047906E7047002003
:103C1000704700BF5416002008B50D461446084BE7
:103C2000986000F05BFE204685F30988002163B6AA
:103C300081F31188BFF36F8F002200230BF037FB55
:103C40005416002001B5EFF30580A0F110004FEAF3
:103C5000C0000449014409C99847BDE80140024930
:103C600008470000A82401086D3C0008044B99682F
:103C70009869884203D003494FF080520A60704728
:103C80005416002004ED00E000B585B00F290FDCCC
:103C9000084B103903910293074B019300200090C9
:103CA0000346012205490BF036FF05B05DF804FB21
:103CB000034BEEE70C2C0108242C0108882701088F
:103CC000F02B010870B5BAB005460E461446012225
:103CD000ADF80820A84B0E930023019302218DF824
:103CE000041001990D91194663F3000163F341013A
:103CF00063F3820163F3C50162F38811082262F362
:103D0000522163F3DE4163F3DF710DAA9B480BF090
:103D100075FE9B4B9B6A13F4805F28D1984B9B6A7E
:103D200013F4006F46D1964B9B6A13F4007F64D165
:103D3000934B9B6A13F4806F40F0B480904B9B6A66
:103D400013F4807F40F0D1808D4B9B6A13F4005FA9
:103D500040F0EE808A4A936A43F47F4393620121E4
:103D600028460BF0D6FE207000203AB070BD01222C
:103D7000ADF80820834B14930023019302218DF8A2
:103D8000041001991391194663F3000163F3410193
:103D900063F3820163F3C50162F38811082262F3C1
:103DA000522163F3DE4163F3DF7113AA73480BF012
:103DB00025FEB3E70122ADF80820734B1A930023C8
:103DC000019302218DF8041001991991194663F3AA
:103DD000000163F3410163F3820163F3C50162F300
:103DE0008811082262F3522163F3DE4163F3DF712D
:103DF00019AA62480BF002FE95E70122ADF80820EF
:103E0000624B20930023019302218DF80410019945
:103E10001F91194663F3000163F3410163F38201CB
:103E200063F3C50162F38811082262F3522163F340
:103E3000DE4163F3DF711FAA50480BF0DFFD504BEA
:103E40009A6B9B6A13F4004F3FF472AF0120ADF8F8
:103E500008004F4B269327920023019303228DF8ED
:103E60000420019A2592194663F3000163F341018E
:103E700063F3820163F3C50160F388110C2262F3DE
:103E8000522163F3DE4163F3DF7125AA3B480BF057
:103E9000B5FD002E3FF44CAF394A936A23F400433A
:103EA000936245E70122ADF808203A4B2C9300239A
:103EB000019302218DF8041001992B91194663F3A7
:103EC000000163F3410163F3820163F3C50162F30F
:103ED0008811082262F3522163F3DE4163F3DF713C
:103EE0002BAA26480BF08AFD28E70122ADF808200E
:103EF000294B38930023019302218DF80410019976
:103F00003791194663F3000163F3410163F38201C2
:103F100063F3C50162F38811082262F3522163F34F
:103F2000DE4163F3DF7137AA14480BF067FD11E738
:103F30000122ADF80820194B32930023019302218E
:103F40008DF8041001993191194663F3000163F370
:103F5000410163F3820163F3C50162F38811082212
:103F600062F3522163F3DE4163F3DF7131AA034848
:103F70000BF044FDEEE600BF382C0108882701084D
:103F800000ED00E0502C0108642C0108782C010899
:103F9000942C0108AC2C0108C82C0108E02C010865
:103FA00000B5B5B00122ADF808208E4B0E9300236A
:103FB000019302218DF8041001990D91194663F3C4
:103FC000000163F3410163F3820163F3C50162F30E
:103FD0008811082262F3522163F3DE4163F3DF713B
:103FE0000DAA81480BF00AFD804B9B6A13F0007FFD
:103FF00025D17E4B9B6A13F0807F43D17B4B9B6A1C
:1040000013F4002F61D1794B9B6A13F4802F7FD179
:10401000764B9B6A13F4003F40F09D80734B9B6A84
:1040200013F4803F40F0BA80704A936A6FEA03430A
:104030006FEA13439362002035B05DF804FB012260
:10404000ADF808206A4B14930023019302218DF8E8
:10405000041001991391194663F3000163F34101C0
:1040600063F3820163F3C50162F38811082262F3EE
:10407000522163F3DE4163F3DF7113AA5A480BF058
:10408000BDFCB6E70122ADF808205A4B1A93002375
:10409000019302218DF8041001991991194663F3D7
:1040A000000163F3410163F3820163F3C50162F32D
:1040B0008811082262F3522163F3DE4163F3DF715A
:1040C00019AA49480BF09AFC98E70122ADF808209C
:1040D000494B20930023019302218DF8041001998C
:1040E0001F91194663F3000163F3410163F38201F9
:1040F00063F3C50162F38811082262F3522163F36E
:10410000DE4163F3DF711FAA37480BF077FC7AE7D3
:104110000122ADF80820394B269300230193022198
:104120008DF8041001992591194663F3000163F39A
:10413000410163F3820163F3C50162F38811082230
:1041400062F3522163F3DE4163F3DF7125AA26484F
:104150000BF054FC5CE70122ADF80820284B2C93AF
:104160000023019302218DF8041001992B91194627
:1041700063F3000163F3410163F3820163F3C5015B
:1041800062F38811082262F3522163F3DE4163F384
:10419000DF712BAA14480BF031FC3FE70122ADF888
:1041A0000820184B32930023019302218DF804104C
:1041B00001993191194663F3000163F3410163F3FF
:1041C000820163F3C50162F38811082262F3522170
:1041D00063F3DE4163F3DF7131AA03480BF00EFC99
:1041E00022E700BF102D01088827010800ED00E03C
:1041F000282D01083C2D0108582D0108782D0108B3
:10420000A02D0108BC2D010800B591B000230B7052
:104210000122ADF8082010490E91019302218DF87A
:10422000041001990D91194663F3000163F34101F4
:1042300063F3820163F3C50162F38811082262F31C
:10424000522163F3DE4163F3DF710DAA03480BF0E3
:10425000D5FB11B05DF804FBE82D010888270108A3
:10426000F0B5B5B005460C4616460122ADF808205B
:10427000A34B0E930023019302218DF804100199A2
:104280000D91194663F3000163F3410163F3820169
:1042900063F3C50162F38811082262F3522163F3CC
:1042A000DE4163F3DF710DAA96480BF0A7FB964B36
:1042B0009B6A13F0100F34D1934B9B6A13F0080FD5
:1042C00052D1914B9B6A13F0020F70D16FF015071A
:1042D0008D4B9B6A13F0010F40F0C0808A4B9B6AA4
:1042E00013F0200F40F0DD80874B9B6A13F0100F16
:1042F00004D1854B9C6A14F0020405D0824B5C68A3
:1043000014F4006440F0F0807F4A936A43F0FF03A6
:104310009362012128460BF0FCFB3070204635B03B
:10432000F0BD0122ADF80820784B149300230193CF
:1043300002218DF8041001991391194663F30001CD
:1043400063F3410163F3820163F3C50162F38811F2
:10435000082262F3522163F3DE4163F3DF7113AA93
:1043600068480BF04BFBA7E70122ADF80820684B2B
:104370001A930023019302218DF8041001991991D9
:10438000194663F3000163F3410163F3820163F3B0
:10439000C50162F38811082262F3522163F3DE4102
:1043A00063F3DF7119AA57480BF028FB89E7012254
:1043B000ADF80820574B20930023019302218DF87C
:1043C000041001991F91194663F3000163F3410141
:1043D00063F3820163F3C50162F38811082262F37B
:1043E000522163F3DE4163F3DF711FAA45480BF0EE
:1043F00005FB454B5F6B9B6A13F0800F02D16FF09A
:10440000150765E70122ADF80820434B269327974F
:104410000023019303218DF8041001992591194679
:1044200063F3000163F3410163F3820163F3C501A8
:1044300062F388110C2262F3522163F3DE4163F3CD
:10444000DF7125AA2F480BF0D9FA002C3FF440AFBA
:104450002D4A936A23F08003936239E70122ADF875
:1044600008202E4B2C930023019302218DF8041079
:1044700001992B91194663F3000163F3410163F342
:10448000820163F3C50162F38811082262F35221AD
:1044900063F3DE4163F3DF712BAA1A480BF0AEFA27
:1044A0001CE70122ADF808201D4B32930023019335
:1044B00002218DF8041001993191194663F300012E
:1044C00063F3410163F3820163F3C50162F3881171
:1044D000082262F3522163F3DE4163F3DF7131AAF4
:1044E00008480BF08BFAFFE629463846FFF76EFBCB
:1044F000044600283FF408AF80F30988022403E74C
:104500000C2E01088827010800ED00E0242E010888
:10451000642C0108582E0108702E0108882E01080D
:10452000E02C0108F0B5A9B007460E460123ADF80E
:104530000830734A0E920024019402228DF8042060
:10454000019A0D92214664F3000164F3410164F382
:10455000820164F3C50163F38811082363F35221D8
:1045600064F3DE4164F3DF7123460DAA65480BF066
:1045700045FA3470644BDD6A15F002050AD1624BCE
:10458000DB6A002B2ADB604BD86A10F0804049D1EF
:1045900029B0F0BD0123ADF808305C4A26920194A1
:1045A00002228DF80420019A2592214664F300012D
:1045B00064F3410164F3820164F3C50163F388117C
:1045C000082363F3522164F3DE4164F3DF71234671
:1045D00025AA4C480BF012FA2046D9E70122ADF883
:1045E00008204B4B20930023019302218DF80410E7
:1045F00001991F91194663F3000163F3410163F3CD
:10460000820163F3C50162F38811082262F352212B
:1046100063F3DE4163F3DF711FAA3A480BF0EEF952
:104620002846B5E70122ADF808203A4B1493002341
:10463000019302218DF8041001991391194663F337
:10464000000163F3410163F3820163F3C50162F387
:104650008811082262F3522163F3DE4163F3DF71B4
:1046600013AA28480BF0CAF9BB6933F8022C4DF69F
:1046700002739A420DD0244B93F828307BBB224B17
:1046800093F829308BBB204B5B8D9BB29BBB28469C
:104690007EE70122ADF808201F4B1A933B681B935D
:1046A0000023019303218DF80410019919911946F3
:1046B00063F3000163F3410163F3820163F3C50116
:1046C00062F388110C2262F3522163F3DE4163F33B
:1046D000DF7119AA0B480BF091F9386858E7324698
:1046E00001213846FFF7BCFD52E73246012138462A
:1046F000FFF7E8FA4CE73846FFF752FC48E700BFFF
:10470000A82E01088827010800ED00E0C02E01084E
:10471000E42E0108F42E0108142F010870B598B09A
:10472000384B5D68C5F30805002383F31188BFF398
:104730006F8F02F07F43B3F17F4F3CD102F00C0347
:10474000082B10D012F0080F32D00C4600260DF1C5
:104750004702294620460BF0EBF905469DF8473005
:1047600063B318B070BD0123ADF80430264A169229
:104770000024009402228DF80020009A1592214610
:1047800064F3000164F3410164F3820164F3C50141
:1047900063F38811082363F3522164F3DE4164F369
:1047A000DF71234615AA19480BF028F92646CEE7F3
:1047B00004460126CBE700263446C8E70DF1240C59
:1047C00020686168A268E368ACE80F00206961694D
:1047D000A269E369ACE80F0046B1C3F308025AB915
:1047E0006FEA53236FEA4323109305E0109B23F4F1
:1047F000FF7323F00103109309A928460BF06BF90E
:10480000AFE700BF00ED00E0302F01088827010866
:10481000024A536943F010035361704700ED00E012
:10482000EFF30880EFF3098101B57246FFF776FFD9
:1048300001BD00BF002206E002F00F01094B0B444E
:10484000102119760132542A0ADC53B2002BF3DB13
:1048500003F1604303F56143102183F80013F1E78E
:10486000704700BFFCEC00E0102080F3118808487E
:104870004FF40261401880F30988EFF3148002219D
:10488000084380F31488BFF36F8FFFF707F9000028
:10489000A03B002008B5084B9B68834202D008F07B
:1048A0009BFB08BDEFF30583002BF8D0034A536848
:1048B00043F080535360F2E75416002000ED00E00F
:1048C00008B5034B034A012103480BF086F908BDE4
:1048D0000080022000000020602F010808B5836ED0
:1048E000203B0548036020234360044B8360012183
:1048F0000BF077F908BD00BF340F002000000B1546
:10490000084AC2F898000B6823F01F03034343F0E2
:104910001003C2F89C308B6843F00103C2F8A0304A
:10492000704700BF00ED00E010B590B004460728C6
:1049300004D8FFF7E5FF204610B010BD0122ADF806
:104940000820114B0E930F900023019303218DF843
:10495000041001990D91194663F3000163F34101BD
:1049600063F3820163F3C50162F388110C2262F3E1
:10497000522163F3DE4163F3DF710DAA03480BF0AC
:104980003DF86FF01500D7E76C2F0108802701086C
:104990002DE9F04391B080460F4699461646002512
:1049A00009E02146F0B20BF0F9F8064610F1160FB7
:1049B00037D001360135BD4233DA05EB450408EB4B
:1049C00084046268002AF5D0B9F1000FE9D02046CE
:1049D0000BF0D3F80028E4D10122ADF80820134BE6
:1049E0000E930F950023019303218DF80410019974
:1049F0000D91194663F3000163F3410163F38201F2
:104A000063F3C50162F388110C2262F3522163F350
:104A1000DE4163F3DF710DAA05480AF0EFFF6FF086
:104A20001506304611B0BDE8F08300BF942F010891
:104A30008027010810B5034C01232278FFF7A8FF57
:104A4000207010BDB316002008B50023094A127863
:104A5000FFF79EFF10F1160F0AD0034606E0064A44
:104A6000C2F898300021C2F8A0100133072BF6DD00
:104A700008BD00BFB316002000ED00E0044B052286
:104A8000C3F89420BFF34F8FBFF36F8F704700BF01
:104A900000ED00E0BFF35F8F024B0022C3F89420CB
:104AA000704700BF00ED00E038B50E4B1D68082DC3
:104AB00015D8FFF7EFFF002409E00A4B596804EB13
:104AC0004402930019442046FFF71AFF0134A5421F
:104AD000F3D8054B1D70FFF7D1FF002038BD4FF014
:104AE000FF30FBE7D02F0108B3160020014B186000
:104AF000704700BF2000002070B506460D46002418
:104B000000E00134AC4208DA054B1B689847305589
:104B10000A2801D00D28F4D10134204670BD00BF11
:104B20001C000020F8B505460F46002404E0094BA0
:104B30001B68307898470134BC4208DA2E192B5D87
:104B40000A2BF4D1034B1B680D209847EFE738463A
:104B5000F8BD00BF2000002008B505220249012051
:104B60000BF050F8FEE700BFB82F01080246084BD3
:104B70001968084BC8180A44C3F1005303F52033E1
:104B80009A4202D2024B1A6070474FF0FF307047D2
:104B9000400F0020A848002070B504460D46166955
:104BA00002E001220CE00134AC4217DA1F2CFADCDF
:104BB0000123A3400A4A526933EA0202F1D00022DB
:104BC000002AF0D0064A536156F83430002BEAD060
:104BD00006EBC402516820469847E4E770BD00BF69
:104BE0000004014008B501238340044A11680B43C7
:104BF0001360034B1856FEF707FF08BD0004014081
:104C0000103001081F2806DC01238340024A106887
:104C100020EA03001060704700040140032932D8E5
:104C2000DFE801F0020F1B27012303FA00F0164B07
:104C30009A6822EA00029A60DA6822EA0000D860E4
:104C40007047012303FA00F00F4B9A6802439A6001
:104C5000DA6822EA0000D8607047012303FA00F006
:104C6000094BDA680243DA609A6822EA0000986029
:104C70007047012303FA00F0034B9A6802439A60DD
:104C8000DA681043D860704700040140074B53F8BE
:104C900030303BB9054B43F8301003EBC0004260A5
:104CA000002070476FF00F00704700BF440F0020D6
:104CB000034B002243F8302003EBC0035A607047D7
:104CC000440F002086B00B68062B48D8DFE803F0BD
:104CD0000410263C31471B004B68224A916C194353
:104CE0009164926C13400093009B002006B07047C3
:104CF0004B681C4AD16C1943D164D26C13400193A8
:104D0000019B0020F2E74B68164A116D19431165AB
:104D1000126D13400293029B0020E7E74B68114A93
:104D2000916D19439165926D13400393039B00208D
:104D3000DCE74B680B4AD16D1943D165D26D134046
:104D40000493049B0020D1E74B68064A116E194377
:104D50001166126E13400593059B0020C6E76FF0A5
:104D60008500C3E7001002400B68062B35D8DFE84A
:104D700003F0040C1C2C243414004968184A936C6A
:104D800023EA01039364002070474968144AD36CF6
:104D900023EA0103D364002070474968104A136D69
:104DA00023EA010313650020704749680C4A936D9C
:104DB00023EA01039365002070474968084AD36DD0
:104DC00023EA0103D365002070474968044A136E43
:104DD00023EA01031366002070476FF085007047D7
:104DE0000010024070B50C4615460D4B1E6801219F
:104DF00030460AF095FF2368062B0ED8DFE803F053
:104E00000404070A070D04002E60002070BD28600E
:104E10000020FBE728600020F8E76FF08500F5E749
:104E2000E0010020104B1B6813F4806F09D10E4A7B
:104E3000136843F4807313600B4B1B6813F4806F8B
:104E4000FAD0094A936823F0030343F00103936007
:104E5000936823F0F00318439060034B9B6803F0C2
:104E60000C03042BF9D170470010024010B586B036
:104E700003A80AF050FF00F023F868460AF053FF39
:104E80000020FFF7CFFF0D4C236823F080732360D1
:104E9000E36823F4C00343F48003E36003A9684696
:104EA00005F0B2FA236823F480332360236823F0EB
:104EB00001032360002006B010BD00BF00100240B7
:104EC00082B0064B9A6D42F080529A659B6D03F05A
:104ED00080530193019B02B0704700BF0010024055
:104EE00010B504460A2807D0074B1868E1B283685A
:104EF0005B689847204610BD034B186883685B6861
:104F00000D219847F0E700BFC40F002010B5044CF6
:104F10002046FFF7EBFD2046FDF7A4FA10BD00BFC9
:104F2000E14E000808B50648064B18600CF013FA6D
:104F300018B1FFF7EBFF002008BD6FF01200FBE790
:104F400030240108C40F0020032815D8DFE800F042
:104F500002050A0F0020086070474FF480530B6071
:104F6000002070474FF400530B60002070474FF44F
:104F700040530B600020704700B591B00122ADF89E
:104F80000820124B0E930F900023019303218DF8FC
:104F9000041001990D91194663F3000163F3410177
:104FA00063F3820163F3C50162F388110C2262F39B
:104FB000522163F3DE4163F3DF710DAA04480AF066
:104FC0001DFD6FF0150011B05DF804FB30300108D5
:104FD00058270108012830D0022832D048B300B544
:104FE00091B00122ADF80820174B0E930F900023CB
:104FF000019303218DF8041001990D91194663F373
:10500000000163F3410163F3820163F3C50162F3BD
:1050100088110C2262F3522163F3DE4163F3DF71E6
:105020000DAA0A480AF0EAFC6FF0150011B05DF80D
:1050300004FB4FF480430B60704710230B6000208B
:105040007047002008607047443001085827010865
:10505000012832D002282DD048B300B591B00122EA
:10506000ADF80820164B0E930F90002301930321F7
:105070008DF8041001990D91194663F3000163F353
:10508000410163F3820163F3C50162F388110C22CD
:1050900062F3522163F3DE4163F3DF710DAA094825
:1050A0000AF0ACFC6FF0150011B05DF804FB802332
:1050B0000B6070470020086070476FF085007047F4
:1050C0005830010858270108012832D002282DD075
:1050D00048B300B591B00122ADF80820164B0E93ED
:1050E0000F900023019303218DF8041001990D9175
:1050F000194663F3000163F3410163F3820163F333
:10510000C50162F388110C2262F3522163F3DE4180
:1051100063F3DF710DAA09480AF070FC6FF0150007
:1051200011B05DF804FB40230B607047002008605D
:1051300070476FF0850070477430010858270108E8
:105140002DE9F04196B006460D4643681F699C69FB
:1051500001EB410304EBC30401F101080023A37137
:10516000384600F061FD78B1637943B16569002389
:10517000424621693046A84716B0BDE8F08129466D
:10518000384600F059FCF1E72946384600F032FD78
:1051900068B1637933B165690023424621693046BD
:1051A000A847E9E72946384600F04EFCF3E72946D0
:1051B00038460AF0B6FF48B30122ADF808202C4B60
:1051C00014930023019302218DF804100199139187
:1051D000194663F3000163F3410163F3820163F352
:1051E000C50162F38811082262F3522163F3DE41A4
:1051F00063F3DF7113AA1F480AF000FC65696FF0C2
:105200000403424621693046A847B5E70122ADF8BC
:105210000820194B0E930023019302218DF80410EE
:1052200001990D91194663F3000163F3410163F3A2
:10523000820163F3C50162F38811082262F35221EF
:1052400063F3DE4163F3DF710DAA0A480AF0D6FB6F
:10525000294630460AF0E3FD294630460AF0E5FDCE
:1052600065696FF00403424621693046A84783E729
:105270009030010858270108AC3001082DE9F041B1
:10528000144643681E69481E5A69824216D99F69AE
:1052900000EB40054FEAC50807EBC50500F0C6FB6B
:1052A000084B1B5C1E4473689BB2636017F80830A0
:1052B0006370AB7923700020BDE8F0816FF01500BA
:1052C000FAE700BF44320108F8B54268966901EB7D
:1052D0004103DB00183B1E4417694C1E5369A3426F
:1052E00014D90546204600F0A1FB0A4B1A5CBB58B6
:1052F00023F00203BB50214638460AF0ECFD21465C
:1053000028460AF092FD0020B071F8BD6FF015003C
:10531000FBE700BF443201082DE9F84F1F46406803
:1053200006694C1E4369A34264D99046D0F818A080
:1053300004EB44054FEAC50B0AEBC5052146304690
:105340000AF0C9FD8146002857D15AF80B100129EF
:1053500007D002292CD059B36FF015094846BDE893
:10536000F88F204600F062FBDFF894A01AF80030B6
:105370003344C3F80C80204600F058FB1AF8003084
:1053800033449F602B792BB3204600F04FFBAB6872
:105390000A9AB2FBF3F31A4A115C31444A68120CC0
:1053A000120413434B602146304600F057FCD5E70A
:1053B000204600F03BFBDFF848A01AF800303344E9
:1053C000C3F80880204600F031FB1AF8003033445F
:1053D000DF60D7E7204600F029FBEB680A9AB2FBB2
:1053E000F3F3074A115C31444A68120C1204134368
:1053F0004B60D8E76FF01509B0E76FF00F09ADE724
:10540000443201082DE9F04FD1B007460D4614464D
:10541000D0F804B0DBF8189001EB4106F600183E16
:1054200009EB0608DBF810A009A80BF0D0FE638892
:1054300003F4FE63B3F5FE6F00F09C80013DDBF8E2
:105440001430AB4240F2A68098F80630002B40F0B2
:10545000C780294650460AF03EFD002840F0E6800D
:10546000294638460AF0E1FC22695369B3F5803FCA
:1054700080F00281E188A388994240F02581042BC5
:1054800004D0022B02D0012B40F04381137FC3F3E1
:105490008012B2EBD31F40F06381012388F80630FD
:1054A000A369C8F814302388C3F3C21349F806303F
:1054B0006369C8F81030A388C8F80830E388C8F8D2
:1054C0000C3023691B68002B00F06F8123695B6837
:1054D000002B00F08D8159F80630012B00F0AB81D4
:1054E00023691A6809925B680A93206813A9C0F3BC
:1054F0008330FFF729FD071E48DB20880BA9C0F386
:10550000C210FFF767FD071E40DB2388C3F3C213F9
:10551000012B00F01B82022B00F0AA81002B00F06F
:10552000A7810122ADF80420C64B2A932388C3F338
:10553000C2132B930023009303218DF800100099D0
:105540002991194663F3000163F3410163F382017A
:1055500063F3C50162F388110C2262F3522163F3F5
:10556000DE4163F3DF7129AAB7480AF047FA6FF00A
:1055700015070BE0012388F8063088F80530A36989
:10558000C8F814306369C8F810300027384651B0A5
:10559000BDE8F08F0122ADF80420AC4B4E934F953F
:1055A0000023009303218DF8001000994D911946B6
:1055B00063F3000163F3410163F3820163F3C50107
:1055C00062F388110C2262F3522163F3DE4163F32C
:1055D000DF714DAA9C480AF011FA6FF01507D5E764
:1055E0000122ADF804209A4B48934995002300937B
:1055F00003218DF8001000994791194663F30001CB
:1056000063F3410163F3820163F3C50162F388111F
:105610000C2262F3522163F3DE4163F3DF7147AA88
:1056200089480AF0EBF96FF00F07AFE70122ADF8F8
:105630000420884B429343950023009303218DF867
:10564000001000994191194663F3000163F3410191
:1056500063F3820163F3C50162F388110C2262F3E4
:10566000522163F3DE4163F3DF7141AA76480AF009
:10567000C5F96FF00F0789E70122ADF80420764BDA
:105680003C9323695B693D930023009303218DF8CC
:10569000001000993B91194663F3000163F3410147
:1056A00063F3820163F3C50162F388110C2262F394
:1056B000522163F3DE4163F3DF713BAA62480AF0D3
:1056C0009DF96FF0150761E70122ADF80420634BE7
:1056D00036930023009302218DF800100099359134
:1056E000194663F3000163F3410163F3820163F33D
:1056F000C50162F38811082262F3522163F3DE418F
:1057000063F3DF7135AA50480AF078F96FF0150796
:105710003CE70122ADF80420514B1893A38819935C
:105720000023009303218DF800100099179119466A
:1057300063F3000163F3410163F3820163F3C50185
:1057400062F388110C2262F3522163F3DE4163F3AA
:10575000DF7117AA3C480AF051F96FF0150715E7F9
:105760000122ADF804203F4B309300230093022127
:105770008DF8001000992F91194663F3000163F32F
:10578000410163F3820163F3C50162F388110822CA
:1057900062F3522163F3DE4163F3DF712FAA2A48DB
:1057A0000AF02CF96FF01507F0E60123ADF804308C
:1057B0002D4B1E930023009302228DF800200099A8
:1057C0001D91194663F3000163F3410163F3820104
:1057D00063F3C50162F38811082262F3522163F377
:1057E000DE4163F3DF711DAA17480AF007F96DE681
:1057F0000123ADF804301D4B2493002300930222B3
:105800008DF8002000992391194663F3000163F39A
:10581000410163F3820163F3C50162F38811082239
:1058200062F3522163F3DE4163F3DF7123AA06487A
:105830000AF0E4F84FE623691A680A925B68099354
:1058400053E600BFF431010858270108BC300108B5
:10585000E0300108F83001081C310108343101083A
:10586000583101087C310108B4310108D4310108F4
:10587000236993F81CB0CBF30110CBF3810B0EA975
:10588000FFF7E6FB071EFFF681AE0DA95846FFF7AE
:105890001BFC071EFFF67AAE23691B7F13F0400F37
:1058A0005CD020230C9359F80630022B14BF002340
:1058B000012388F80430A38893FAA3F2B2FA82F2A3
:1058C0000BB94FF0FF322A4B53F822300F93E38885
:1058D00093FAA3F2B2FA82F20BB94FF0FF32254BE2
:1058E00053F82230109398F80430002B39D02369F4
:1058F0005B69A288B3FBF2F31193237803F07F0373
:105900001293284600F092F8014609AA504604F086
:10591000C3FA284600F08AF8174B1A5C5AF802308E
:1059200043F002034AF8023023691B7F13F0400F53
:105930003FF42CAE284600F079F80F4B1A5C5AF869
:10594000023043F004034AF802301FE6236993F85B
:105950001CB0CBF38100CBF3011B90E700230C9329
:10596000A1E723695B69E288B3FBF2F31193C4E713
:10597000B0320108A43201084432010870B590B079
:105980000546446826480BF0E6FC58B12448836875
:105990001B682146984706463EB9A36828469847A3
:1059A00000232FE06FF01206F6E70122ADF8082081
:1059B0001C4B0E930023019302218DF804100199D2
:1059C0000D91194663F3000163F3410163F3820112
:1059D00063F3C50162F38811082262F3522163F375
:1059E000DE4163F3DF710DAA0F480AF007F86FF08C
:1059F000040611E0A26903EB430102EBC10200219E
:105A00009171013362699342F4D32A6900231360D0
:105A10002A6953602A699360304610B070BD00BF98
:105A2000282301081432010858270108014B53F8B4
:105A300020007047B833010808B5024B53F82130F5
:105A4000984708BD9C33010808B5024B53F8213034
:105A5000984708BD8033010808B5044B53F821303E
:105A60009847003818BF012008BD00BF6433010803
:105A700008B5044B53F821309847003818BF01206F
:105A800008BD00BF4833010808B5024B53F8213068
:105A9000984708BD2C33010808B5044B53F8213052
:105AA0009847003818BF012008BD00BF1033010817
:105AB00008B5044B53F821309847003818BF01202F
:105AC00008BD00BFF43201082DE9F0438BB000AFF0
